{
  "contracts/MetaverseMarketplace.sol": {
    "MetaverseMarketplace": {
      "abi": [
        {
          "inputs": [
            {
              "internalType": "address",
              "name": "_metaverseTokenAddress",
              "type": "address"
            }
          ],
          "stateMutability": "nonpayable",
          "type": "constructor"
        },
        {
          "inputs": [
            {
              "internalType": "address",
              "name": "senderAddress",
              "type": "address"
            }
          ],
          "name": "MetaverseMarketplace__AddressLessThan1DayForMetaverseToken",
          "type": "error"
        },
        {
          "inputs": [],
          "name": "MetaverseMarketplace__NoProceeds",
          "type": "error"
        },
        {
          "inputs": [],
          "name": "MetaverseMarketplace__PriceMustBeAboveZero",
          "type": "error"
        },
        {
          "inputs": [
            {
              "internalType": "string",
              "name": "productCode",
              "type": "string"
            },
            {
              "internalType": "address",
              "name": "seller",
              "type": "address"
            },
            {
              "internalType": "uint256",
              "name": "price",
              "type": "uint256"
            }
          ],
          "name": "MetaverseMarketplace__PriceNotMet",
          "type": "error"
        },
        {
          "inputs": [],
          "name": "ReentrancyGuardReentrantCall",
          "type": "error"
        },
        {
          "anonymous": false,
          "inputs": [
            {
              "indexed": true,
              "internalType": "address",
              "name": "commenter",
              "type": "address"
            },
            {
              "indexed": true,
              "internalType": "string",
              "name": "comment",
              "type": "string"
            },
            {
              "indexed": true,
              "internalType": "string",
              "name": "productCode",
              "type": "string"
            },
            {
              "indexed": false,
              "internalType": "address",
              "name": "seller",
              "type": "address"
            }
          ],
          "name": "CommentAdded",
          "type": "event"
        },
        {
          "anonymous": false,
          "inputs": [
            {
              "indexed": true,
              "internalType": "address",
              "name": "buyer",
              "type": "address"
            },
            {
              "indexed": true,
              "internalType": "string",
              "name": "productCode",
              "type": "string"
            },
            {
              "indexed": true,
              "internalType": "uint256",
              "name": "price",
              "type": "uint256"
            }
          ],
          "name": "ItemBought",
          "type": "event"
        },
        {
          "anonymous": false,
          "inputs": [
            {
              "indexed": true,
              "internalType": "address",
              "name": "seller",
              "type": "address"
            },
            {
              "indexed": true,
              "internalType": "uint256",
              "name": "price",
              "type": "uint256"
            },
            {
              "indexed": true,
              "internalType": "string",
              "name": "productCode",
              "type": "string"
            },
            {
              "indexed": false,
              "internalType": "string",
              "name": "title",
              "type": "string"
            }
          ],
          "name": "ItemListed",
          "type": "event"
        },
        {
          "anonymous": false,
          "inputs": [
            {
              "indexed": true,
              "internalType": "address",
              "name": "seller",
              "type": "address"
            },
            {
              "indexed": true,
              "internalType": "string",
              "name": "productCode",
              "type": "string"
            },
            {
              "indexed": true,
              "internalType": "bool",
              "name": "publish",
              "type": "bool"
            }
          ],
          "name": "ItemPublished",
          "type": "event"
        },
        {
          "anonymous": false,
          "inputs": [
            {
              "indexed": true,
              "internalType": "address",
              "name": "seller",
              "type": "address"
            },
            {
              "indexed": true,
              "internalType": "string",
              "name": "productCode",
              "type": "string"
            },
            {
              "indexed": true,
              "internalType": "string",
              "name": "title",
              "type": "string"
            },
            {
              "indexed": false,
              "internalType": "uint256",
              "name": "price",
              "type": "uint256"
            }
          ],
          "name": "ListingUpdated",
          "type": "event"
        },
        {
          "anonymous": false,
          "inputs": [
            {
              "indexed": true,
              "internalType": "address",
              "name": "person",
              "type": "address"
            }
          ],
          "name": "MetaverseAirdrop",
          "type": "event"
        },
        {
          "anonymous": false,
          "inputs": [
            {
              "indexed": true,
              "internalType": "address",
              "name": "person",
              "type": "address"
            },
            {
              "indexed": true,
              "internalType": "string",
              "name": "currency",
              "type": "string"
            },
            {
              "indexed": true,
              "internalType": "uint256",
              "name": "amount",
              "type": "uint256"
            }
          ],
          "name": "ProceedsWithdrawn",
          "type": "event"
        },
        {
          "anonymous": false,
          "inputs": [
            {
              "indexed": true,
              "internalType": "address",
              "name": "owner",
              "type": "address"
            },
            {
              "indexed": true,
              "internalType": "string",
              "name": "username",
              "type": "string"
            },
            {
              "indexed": true,
              "internalType": "string",
              "name": "profileImageUrl",
              "type": "string"
            }
          ],
          "name": "SetUserProfile",
          "type": "event"
        },
        {
          "inputs": [
            {
              "internalType": "string",
              "name": "comment",
              "type": "string"
            },
            {
              "internalType": "uint256",
              "name": "rating",
              "type": "uint256"
            },
            {
              "internalType": "string",
              "name": "dateString",
              "type": "string"
            },
            {
              "internalType": "string",
              "name": "productCode",
              "type": "string"
            },
            {
              "internalType": "address",
              "name": "seller",
              "type": "address"
            }
          ],
          "name": "addComment",
          "outputs": [],
          "stateMutability": "nonpayable",
          "type": "function"
        },
        {
          "inputs": [
            {
              "internalType": "address",
              "name": "",
              "type": "address"
            }
          ],
          "name": "addressToLastGetMetaverseToken",
          "outputs": [
            {
              "internalType": "uint256",
              "name": "",
              "type": "uint256"
            }
          ],
          "stateMutability": "view",
          "type": "function"
        },
        {
          "inputs": [
            {
              "internalType": "string",
              "name": "productCode",
              "type": "string"
            },
            {
              "internalType": "address",
              "name": "seller",
              "type": "address"
            },
            {
              "internalType": "uint256",
              "name": "quantity",
              "type": "uint256"
            }
          ],
          "name": "buyItem",
          "outputs": [],
          "stateMutability": "payable",
          "type": "function"
        },
        {
          "inputs": [
            {
              "internalType": "string",
              "name": "productCode",
              "type": "string"
            },
            {
              "internalType": "bool",
              "name": "publish",
              "type": "bool"
            }
          ],
          "name": "changeListingVisibility",
          "outputs": [],
          "stateMutability": "nonpayable",
          "type": "function"
        },
        {
          "inputs": [],
          "name": "get1000MetaverseToken",
          "outputs": [],
          "stateMutability": "nonpayable",
          "type": "function"
        },
        {
          "inputs": [],
          "name": "getAllUserListings",
          "outputs": [
            {
              "components": [
                {
                  "internalType": "uint256",
                  "name": "price",
                  "type": "uint256"
                },
                {
                  "internalType": "address",
                  "name": "seller",
                  "type": "address"
                },
                {
                  "internalType": "bool",
                  "name": "published",
                  "type": "bool"
                },
                {
                  "internalType": "string",
                  "name": "productType",
                  "type": "string"
                },
                {
                  "internalType": "string",
                  "name": "title",
                  "type": "string"
                },
                {
                  "internalType": "string",
                  "name": "description",
                  "type": "string"
                },
                {
                  "internalType": "string",
                  "name": "imageUrl",
                  "type": "string"
                },
                {
                  "internalType": "string",
                  "name": "currency",
                  "type": "string"
                },
                {
                  "internalType": "string",
                  "name": "productUrl",
                  "type": "string"
                },
                {
                  "internalType": "string",
                  "name": "productInfo",
                  "type": "string"
                },
                {
                  "internalType": "string",
                  "name": "productCode",
                  "type": "string"
                },
                {
                  "internalType": "uint256",
                  "name": "nftTokenId",
                  "type": "uint256"
                },
                {
                  "components": [
                    {
                      "internalType": "address",
                      "name": "commenter",
                      "type": "address"
                    },
                    {
                      "internalType": "uint256",
                      "name": "rating",
                      "type": "uint256"
                    },
                    {
                      "internalType": "string",
                      "name": "comment",
                      "type": "string"
                    },
                    {
                      "internalType": "uint256",
                      "name": "time",
                      "type": "uint256"
                    },
                    {
                      "internalType": "string",
                      "name": "dateString",
                      "type": "string"
                    }
                  ],
                  "internalType": "struct MetaverseMarketplace.Comment[]",
                  "name": "comments",
                  "type": "tuple[]"
                },
                {
                  "components": [
                    {
                      "internalType": "address",
                      "name": "buyer",
                      "type": "address"
                    },
                    {
                      "internalType": "uint256",
                      "name": "quantity",
                      "type": "uint256"
                    },
                    {
                      "internalType": "uint256",
                      "name": "totalPrice",
                      "type": "uint256"
                    }
                  ],
                  "internalType": "struct MetaverseMarketplace.Buyer[]",
                  "name": "buyers",
                  "type": "tuple[]"
                }
              ],
              "internalType": "struct MetaverseMarketplace.Listing[]",
              "name": "",
              "type": "tuple[]"
            }
          ],
          "stateMutability": "view",
          "type": "function"
        },
        {
          "inputs": [
            {
              "internalType": "string",
              "name": "productCode",
              "type": "string"
            }
          ],
          "name": "getListingByProductCode",
          "outputs": [
            {
              "components": [
                {
                  "internalType": "uint256",
                  "name": "price",
                  "type": "uint256"
                },
                {
                  "internalType": "address",
                  "name": "seller",
                  "type": "address"
                },
                {
                  "internalType": "bool",
                  "name": "published",
                  "type": "bool"
                },
                {
                  "internalType": "string",
                  "name": "productType",
                  "type": "string"
                },
                {
                  "internalType": "string",
                  "name": "title",
                  "type": "string"
                },
                {
                  "internalType": "string",
                  "name": "description",
                  "type": "string"
                },
                {
                  "internalType": "string",
                  "name": "imageUrl",
                  "type": "string"
                },
                {
                  "internalType": "string",
                  "name": "currency",
                  "type": "string"
                },
                {
                  "internalType": "string",
                  "name": "productUrl",
                  "type": "string"
                },
                {
                  "internalType": "string",
                  "name": "productInfo",
                  "type": "string"
                },
                {
                  "internalType": "string",
                  "name": "productCode",
                  "type": "string"
                },
                {
                  "internalType": "uint256",
                  "name": "nftTokenId",
                  "type": "uint256"
                },
                {
                  "components": [
                    {
                      "internalType": "address",
                      "name": "commenter",
                      "type": "address"
                    },
                    {
                      "internalType": "uint256",
                      "name": "rating",
                      "type": "uint256"
                    },
                    {
                      "internalType": "string",
                      "name": "comment",
                      "type": "string"
                    },
                    {
                      "internalType": "uint256",
                      "name": "time",
                      "type": "uint256"
                    },
                    {
                      "internalType": "string",
                      "name": "dateString",
                      "type": "string"
                    }
                  ],
                  "internalType": "struct MetaverseMarketplace.Comment[]",
                  "name": "comments",
                  "type": "tuple[]"
                },
                {
                  "components": [
                    {
                      "internalType": "address",
                      "name": "buyer",
                      "type": "address"
                    },
                    {
                      "internalType": "uint256",
                      "name": "quantity",
                      "type": "uint256"
                    },
                    {
                      "internalType": "uint256",
                      "name": "totalPrice",
                      "type": "uint256"
                    }
                  ],
                  "internalType": "struct MetaverseMarketplace.Buyer[]",
                  "name": "buyers",
                  "type": "tuple[]"
                }
              ],
              "internalType": "struct MetaverseMarketplace.Listing",
              "name": "",
              "type": "tuple"
            }
          ],
          "stateMutability": "view",
          "type": "function"
        },
        {
          "inputs": [
            {
              "internalType": "string",
              "name": "productType",
              "type": "string"
            }
          ],
          "name": "getListingByProductType",
          "outputs": [
            {
              "components": [
                {
                  "internalType": "uint256",
                  "name": "price",
                  "type": "uint256"
                },
                {
                  "internalType": "address",
                  "name": "seller",
                  "type": "address"
                },
                {
                  "internalType": "bool",
                  "name": "published",
                  "type": "bool"
                },
                {
                  "internalType": "string",
                  "name": "productType",
                  "type": "string"
                },
                {
                  "internalType": "string",
                  "name": "title",
                  "type": "string"
                },
                {
                  "internalType": "string",
                  "name": "description",
                  "type": "string"
                },
                {
                  "internalType": "string",
                  "name": "imageUrl",
                  "type": "string"
                },
                {
                  "internalType": "string",
                  "name": "currency",
                  "type": "string"
                },
                {
                  "internalType": "string",
                  "name": "productUrl",
                  "type": "string"
                },
                {
                  "internalType": "string",
                  "name": "productInfo",
                  "type": "string"
                },
                {
                  "internalType": "string",
                  "name": "productCode",
                  "type": "string"
                },
                {
                  "internalType": "uint256",
                  "name": "nftTokenId",
                  "type": "uint256"
                },
                {
                  "components": [
                    {
                      "internalType": "address",
                      "name": "commenter",
                      "type": "address"
                    },
                    {
                      "internalType": "uint256",
                      "name": "rating",
                      "type": "uint256"
                    },
                    {
                      "internalType": "string",
                      "name": "comment",
                      "type": "string"
                    },
                    {
                      "internalType": "uint256",
                      "name": "time",
                      "type": "uint256"
                    },
                    {
                      "internalType": "string",
                      "name": "dateString",
                      "type": "string"
                    }
                  ],
                  "internalType": "struct MetaverseMarketplace.Comment[]",
                  "name": "comments",
                  "type": "tuple[]"
                },
                {
                  "components": [
                    {
                      "internalType": "address",
                      "name": "buyer",
                      "type": "address"
                    },
                    {
                      "internalType": "uint256",
                      "name": "quantity",
                      "type": "uint256"
                    },
                    {
                      "internalType": "uint256",
                      "name": "totalPrice",
                      "type": "uint256"
                    }
                  ],
                  "internalType": "struct MetaverseMarketplace.Buyer[]",
                  "name": "buyers",
                  "type": "tuple[]"
                }
              ],
              "internalType": "struct MetaverseMarketplace.Listing[]",
              "name": "",
              "type": "tuple[]"
            }
          ],
          "stateMutability": "view",
          "type": "function"
        },
        {
          "inputs": [
            {
              "internalType": "address",
              "name": "seller",
              "type": "address"
            },
            {
              "internalType": "string",
              "name": "currency",
              "type": "string"
            }
          ],
          "name": "getProceeds",
          "outputs": [
            {
              "internalType": "uint256",
              "name": "",
              "type": "uint256"
            }
          ],
          "stateMutability": "view",
          "type": "function"
        },
        {
          "inputs": [],
          "name": "getUserListing",
          "outputs": [
            {
              "components": [
                {
                  "internalType": "uint256",
                  "name": "price",
                  "type": "uint256"
                },
                {
                  "internalType": "address",
                  "name": "seller",
                  "type": "address"
                },
                {
                  "internalType": "bool",
                  "name": "published",
                  "type": "bool"
                },
                {
                  "internalType": "string",
                  "name": "productType",
                  "type": "string"
                },
                {
                  "internalType": "string",
                  "name": "title",
                  "type": "string"
                },
                {
                  "internalType": "string",
                  "name": "description",
                  "type": "string"
                },
                {
                  "internalType": "string",
                  "name": "imageUrl",
                  "type": "string"
                },
                {
                  "internalType": "string",
                  "name": "currency",
                  "type": "string"
                },
                {
                  "internalType": "string",
                  "name": "productUrl",
                  "type": "string"
                },
                {
                  "internalType": "string",
                  "name": "productInfo",
                  "type": "string"
                },
                {
                  "internalType": "string",
                  "name": "productCode",
                  "type": "string"
                },
                {
                  "internalType": "uint256",
                  "name": "nftTokenId",
                  "type": "uint256"
                },
                {
                  "components": [
                    {
                      "internalType": "address",
                      "name": "commenter",
                      "type": "address"
                    },
                    {
                      "internalType": "uint256",
                      "name": "rating",
                      "type": "uint256"
                    },
                    {
                      "internalType": "string",
                      "name": "comment",
                      "type": "string"
                    },
                    {
                      "internalType": "uint256",
                      "name": "time",
                      "type": "uint256"
                    },
                    {
                      "internalType": "string",
                      "name": "dateString",
                      "type": "string"
                    }
                  ],
                  "internalType": "struct MetaverseMarketplace.Comment[]",
                  "name": "comments",
                  "type": "tuple[]"
                },
                {
                  "components": [
                    {
                      "internalType": "address",
                      "name": "buyer",
                      "type": "address"
                    },
                    {
                      "internalType": "uint256",
                      "name": "quantity",
                      "type": "uint256"
                    },
                    {
                      "internalType": "uint256",
                      "name": "totalPrice",
                      "type": "uint256"
                    }
                  ],
                  "internalType": "struct MetaverseMarketplace.Buyer[]",
                  "name": "buyers",
                  "type": "tuple[]"
                }
              ],
              "internalType": "struct MetaverseMarketplace.Listing[]",
              "name": "",
              "type": "tuple[]"
            }
          ],
          "stateMutability": "view",
          "type": "function"
        },
        {
          "inputs": [
            {
              "internalType": "address",
              "name": "profileOwner",
              "type": "address"
            }
          ],
          "name": "getUserProfile",
          "outputs": [
            {
              "components": [
                {
                  "internalType": "string",
                  "name": "username",
                  "type": "string"
                },
                {
                  "internalType": "string",
                  "name": "profileImageUrl",
                  "type": "string"
                }
              ],
              "internalType": "struct MetaverseMarketplace.UserProfile",
              "name": "",
              "type": "tuple"
            }
          ],
          "stateMutability": "view",
          "type": "function"
        },
        {
          "inputs": [
            {
              "internalType": "uint256",
              "name": "price",
              "type": "uint256"
            },
            {
              "internalType": "string",
              "name": "productType",
              "type": "string"
            },
            {
              "internalType": "string",
              "name": "title",
              "type": "string"
            },
            {
              "internalType": "string",
              "name": "description",
              "type": "string"
            },
            {
              "internalType": "string",
              "name": "imageUrl",
              "type": "string"
            },
            {
              "internalType": "string",
              "name": "currency",
              "type": "string"
            },
            {
              "internalType": "string",
              "name": "productUrl",
              "type": "string"
            },
            {
              "internalType": "string",
              "name": "productInfo",
              "type": "string"
            },
            {
              "internalType": "string",
              "name": "productCode",
              "type": "string"
            },
            {
              "internalType": "uint256",
              "name": "nftTokenId",
              "type": "uint256"
            }
          ],
          "name": "listItem",
          "outputs": [],
          "stateMutability": "nonpayable",
          "type": "function"
        },
        {
          "inputs": [],
          "name": "metaverseToken",
          "outputs": [
            {
              "internalType": "contract IERC20",
              "name": "",
              "type": "address"
            }
          ],
          "stateMutability": "view",
          "type": "function"
        },
        {
          "inputs": [
            {
              "internalType": "string",
              "name": "",
              "type": "string"
            },
            {
              "internalType": "address",
              "name": "",
              "type": "address"
            }
          ],
          "name": "productCodeCommentToAddress",
          "outputs": [
            {
              "internalType": "bool",
              "name": "",
              "type": "bool"
            }
          ],
          "stateMutability": "view",
          "type": "function"
        },
        {
          "inputs": [
            {
              "internalType": "string",
              "name": "productCode",
              "type": "string"
            }
          ],
          "name": "productCodeExists",
          "outputs": [
            {
              "internalType": "bool",
              "name": "",
              "type": "bool"
            }
          ],
          "stateMutability": "view",
          "type": "function"
        },
        {
          "inputs": [
            {
              "internalType": "string",
              "name": "newUsername",
              "type": "string"
            },
            {
              "internalType": "string",
              "name": "profileImageUrl",
              "type": "string"
            }
          ],
          "name": "setUserProfile",
          "outputs": [],
          "stateMutability": "nonpayable",
          "type": "function"
        },
        {
          "inputs": [
            {
              "internalType": "string",
              "name": "productCode",
              "type": "string"
            },
            {
              "internalType": "uint256",
              "name": "price",
              "type": "uint256"
            },
            {
              "internalType": "string",
              "name": "title",
              "type": "string"
            },
            {
              "internalType": "string",
              "name": "description",
              "type": "string"
            },
            {
              "internalType": "string",
              "name": "productInfo",
              "type": "string"
            },
            {
              "internalType": "string",
              "name": "productUrl",
              "type": "string"
            },
            {
              "internalType": "string",
              "name": "imageUrl",
              "type": "string"
            }
          ],
          "name": "updateListing",
          "outputs": [],
          "stateMutability": "nonpayable",
          "type": "function"
        },
        {
          "inputs": [
            {
              "internalType": "string",
              "name": "currency",
              "type": "string"
            }
          ],
          "name": "withdrawProceeds",
          "outputs": [],
          "stateMutability": "nonpayable",
          "type": "function"
        }
      ],
      "evm": {
        "bytecode": {
          "linkReferences": {},
          "object": "60803461007b57601f62002e7a38819003918201601f19168301916001600160401b038311848410176100805780849260209460405283398101031261007b57516001600160a01b0381169081900361007b576001600055600580546001600160a01b031916919091179055604051612de39081620000978239f35b600080fd5b634e487b7160e01b600052604160045260246000fdfe6080604052600436101561001257600080fd5b6000803560e01c8063016363fa146113505780631a13cc59146111695780631cad3ac514611124578063318bb5c714610e555780633829f31314610e2c5780637791b33014610dac57806393ec02f114610b11578063987ee15614610a72578063990d6459146109325780639992b606146108a65780639dee74d514610806578063a39249b8146107a3578063a97ce3c21461058f578063bd6236421461053b578063bddff4d814610502578063d41aab2314610277578063e4ba3747146101f45763e607a8ba146100e357600080fd5b346101f157806003193601126101f1573381526003602052604081205442034281116101dd5762015180116101c557338152600360205242604082205580602060018060a01b036005541660446040518094819363a9059cbb60e01b8352336004840152683635c9adc5dea0000060248401525af180156101ba5761018c575b50337f561f98adfb5df58a7c3c03f4ada643cc46c1a5291389819dbd6d01fe490481498280a280f35b6101ac9060203d81116101b3575b6101a48183611694565b810190612b58565b5038610163565b503d61019a565b6040513d84823e3d90fd5b60405163fca47e3160e01b8152336004820152602490fd5b634e487b7160e01b82526011600452602482fd5b80fd5b50346101f15760403660031901126101f1576004356001600160401b03811161027357604060209261022c60ff9336906004016116d0565b61024b856102386119ce565b928186519382858094519384920161171c565b6004908201908152030190206001600160a01b03909116825284522054604051911615158152f35b5080fd5b50606080600319360112610273576004356001600160401b0381116104fe576102a49036906004016116d0565b6102ac6119ce565b60449283359060028654146104ec5760028655855b6006548110156104e1576102e9856102e460096102dd85611a0a565b50016127ab565b61284f565b6102fb576102f69061279c565b6102c1565b9192939461031161030b84611a0a565b506129d7565b946020928387019160018060a01b039384845116331461049e5788519081341061046a5750505050855180860290868204148615171561045657604051956103588761165e565b3387528487015260408601525116865260019182825261037f6040882060e08701516119e4565b8054903482018092116104565755600c9061039990611a0a565b5001805492600160401b84101561044257830180825583101561042e5786528520825160039092020180546001600160a01b0319166001600160a01b03929092169190911781556020820151600182015560409091015160029091015561040190519161277c565b337f253fcd678c758e0e03dbf3a0243701c7439c306a61158b3c522a8119772990108480a45b6001815580f35b634e487b7160e01b87526032600452602487fd5b634e487b7160e01b88526041600452602488fd5b634e487b7160e01b89526011600452602489fd5b8a945085610490604051968796630e90db8560e31b88526004880152606487019061173f565b931660248501528301520390fd5b857f43616e206e6f742062757920796f7572206f776e2070726f64756374210000006064926040519262461bcd60e51b84526004840152601d6024840152820152fd5b505050505050610427565b604051633ee5aeb560e01b8152600490fd5b8280fd5b50346101f15760203660031901126101f1576020906040906001600160a01b0361052a6119b8565b168152600383522054604051908152f35b50346101f15760203660031901126101f157600435906001600160401b0382116101f15761058b61057761057236600486016116d0565b612c3f565b604051918291602083526020830190611764565b0390f35b50346101f157602080600319360112610273576004356001600160401b0381116104fe576105c19036906004016116d0565b338352600182526105d560408420826119e4565b5480156107915733845260018352836105f160408220846119e4565b55610616604051610601816115f6565b600381526208aa8960eb1b858201528361284f565b156106cd578380808084335af191823d156106c8573d610635816116b5565b906106436040519283611694565b815286863d92013e5b610693575b50501561065c575080f35b6064906040519062461bcd60e51b82526004820152601060248201526f5472616e73666572206661696c65642160801b6044820152fd5b61069c9061277c565b337ff2ca3efe12f71d386ef0fd2b75ebbef402882711943ccb42d5bdb696fa7a13418680a43880610651565b61064c565b906106f490604051906106df826115f6565b60048252631351551560e21b8583015261284f565b6106fe575b505080f35b6005546001600160a01b031690678ac7230489e800008102908104678ac7230489e7ffff190161077d57839160448492604051948593849263a9059cbb60e01b845233600485015260248401525af1801561077257156106f9578161076e92903d106101b3576101a48183611694565b5080f35b6040513d85823e3d90fd5b634e487b7160e01b84526011600452602484fd5b60405163125d726b60e21b8152600490fd5b50346101f15760403660031901126101f1576107bd6119b8565b6024356001600160401b0381116104fe579060406020936107e56107fd9436906004016116d0565b6001600160a01b0390931681526001855220906119e4565b54604051908152f35b50346101f15760203660031901126101f1576004356001600160401b038111610273576108379036906004016116d0565b6006549061084482612bdb565b925b82811061085b576040518061058b8682611956565b80610871836102e460026102dd61087a96611a0a565b61087f5761279c565b610846565b61088b61030b82611a0a565b6108958287612c2b565b526108a08186612c2b565b5061279c565b50346101f157806003193601126101f1576006546108c3816128a4565b906108d16040519283611694565b808252600683527ff652222313e28459528d920b65115c16c04f3efc82aaedc97be59f3f377c0d3f9260208084015b838310610915576040518061058b8782611956565b600d82600192610924896129d7565b815201960192019194610900565b50346101f15760403660031901126101f1576004356001600160401b038111610273576109639036906004016116d0565b60249081359081151591828103610a6e57845b600654811015610a6657610992836102e460096102dd85611a0a565b6109a45761099f9061279c565b610976565b6109b2819592939495611a0a565b506001908101549092906001600160a01b03163303610a2a5750916109fd916109de610a029594611a0a565b5001805460ff60a01b191691151560a01b60ff60a01b16919091179055565b61277c565b337f51dabe03dbc9869cdc42f327348910c055732b793c7aaade368a32d8f3658e1e8480a480f35b60649060156040519162461bcd60e51b835260206004840152820152744e6f7420796f7572206f776e2070726f647563742160581b6044820152fd5b505050505080f35b8480fd5b50346101f1576020806003193601126102735761058b60408093610a946119b8565b6060858451610aa2816115f6565b82815201526001600160a01b03168152600284522083519290610afe90610ae090600190610acf876115f6565b610ad8816127ab565b8752016127ab565b9180850192835285519586958287525191860152606085019061173f565b9051838203601f1901604085015261173f565b50346101f15760a03660031901126101f1576001600160401b036004358181116104fe57610b439036906004016116d0565b916024928335936044918235858111610a6e57610b649036906004016116d0565b956064958635908111610da857610b7f9036906004016116d0565b9360849788359460018060a01b0392838716809703610da457885b600654811015610d9557610bad81611a0a565b50610bbf8a6102e460098094016127ab565b610bd25750610bcd9061279c565b610b9a565b91610be6829495969798999a9b9c92611a0a565b5096600180980154163314610d46578b9c5060ff6040610c1085610c0988611a0a565b5001612ac5565b9d33815260209e8f52205416610d0657505081610c35610c4d92610c09600b95611a0a565b338d528b5260408c20805460ff191687179055611a0a565b50019160405194610c5d86611643565b338652898601528560408601524260608601526080850152815492600160401b841015610cf3578301808355831015610ce15750926109fd610cd493610cce937f8bb52eee1b68032569fa2c483528d7d2b7db7824b9704ee675f7202956220865968b5260058a8c20910201611af6565b9361277c565b936040519283523392a480f35b634e487b7160e01b8952603260045288fd5b50634e487b7160e01b8952604160045288fd5b7f43616e206e6f7420636f6d6d656e74206d6f7265207468616e206f6e636521008c91601f876040519462461bcd60e51b86526004860152840152820152fd5b64756374732160d81b8d927f43616e206e6f7420636f6d6d656e74206f6e20796f7572206f776e2070726f64879360256040519562461bcd60e51b875260206004880152860152840152820152fd5b50505050505050505091505080f35b8880fd5b8580fd5b50346101f157806003193601126101f157600654610dc981612bdb565b915b818110610de0576040518061058b8582611956565b80610ded610e0692611a0a565b50600101546001600160a01b03163314610e0b5761279c565b610dcb565b610e1761030b82611a0a565b610e218286612c2b565b526108a08185612c2b565b50346101f157806003193601126101f1576005546040516001600160a01b039091168152602090f35b50346101f15760e03660031901126101f1576001600160401b036004358181116104fe57610e879036906004016116d0565b6044908135838111610a6e57610ea19036906004016116d0565b91606493843581811161112057610ebc9036906004016116d0565b6084908135838111610da457610ed69036906004016116d0565b9160a43584811161111c57610eef9036906004016116d0565b9360c43590811161111c57610f089036906004016116d0565b94895b60065481101561110f57610f27886102e460096102dd85611a0a565b610f3957610f349061279c565b610f0b565b95969798610f4687611a0a565b50600101546001600160a01b031633036110c057505050610f6684611a0a565b50600101546001600160a01b031694610f7e85611a0a565b506001015492610f8d86611a0a565b5094610f9887611a0a565b50610fa288611a0a565b5093610fad89611a0a565b50600a015495610fbc8a611a0a565b5097610fc78b611a0a565b50996040519c610fd68e611627565b6024358e5260208e015260ff60a092831c16151560408e0152610ffb906002016127ab565b60608d01528d60808d01528b015260c08a015260060161101a906127ab565b60e0890152610100880152610120870152600901611037906127ab565b610140860152610160850152600b0161104f906128bb565b610180840152600c016110619061295a565b6101a083015261107090611a0a565b61107a9291611d26565b6110839061277c565b9061108d9061277c565b906040516024358152339060207f384c5f98880fad6ed933597fe4becd24246db16d5a262945362c7ace0a0e47b591a480f35b656f647563742160d01b907f43616e206e6f74206564697420616e6f7468657220706572736f6e27732070726040519362461bcd60e51b85526020600486015260266024860152840152820152fd5b5050505050505050505080f35b8980fd5b8680fd5b50346101f15760203660031901126101f157600435906001600160401b0382116101f157602061115f61115a36600486016116d0565b612d6b565b6040519015158152f35b50346101f15761014080600319360112610273576004356001600160401b03602435818111610a6e576111a09036906004016116d0565b604435828111610da8576111b89036906004016116d0565b93606435838111611120576111d19036906004016116d0565b9060843584811161134c576111ea9036906004016116d0565b9360a435818111610da4576112039036906004016116d0565b60c43582811161111c5761121b9036906004016116d0565b9060e435838111611348576112349036906004016116d0565b92610104359081116113485761124e9036906004016116d0565b9688156113365787956040519761126489611627565b8a89523360208a01528c60408a015260608901528a608089015260a088015260c087015260e086015261010085015261012084015282015261012435610160820152606061018082015260606101a0820152600654600160401b811015611322576112e392916112dd8260016109fd9401600655611a0a565b90611d26565b917f9ec512f6157daf19471fdb4abc754cd622ce54571fda42c4c416ff378b041583604051602081528061131c3394602083019061173f565b0390a480f35b634e487b7160e01b86526041600452602486fd5b604051635ebde5f560e11b8152600490fd5b8a80fd5b8780fd5b50346101f15760403660031901126101f1576001600160401b036004358181116104fe576113829036906004016116d0565b906024358181116115f25761139b9036906004016116d0565b916040516113a8816115f6565b8181526020928382019185835233875260028552604087209051805183811161154457806113d68454611a5b565b92601f938481116115c6575b508890848311600114611563578b92611558575b50508160011b916000199060031b1c19161782555b60018092019351958651938411611544576114268554611a5b565b82811161150e575b50809184116001146114a057509180809261146696959461146c988b94611495575b50501b916000199060031b1c191617905561277c565b9161277c565b90337f8fb63d21cd1646c22e90408d0771d27886ed526a60064418e44b4e4a35bf6a078480a480f35b015192503880611450565b91939495601f198416868a52838a20938a905b8282106114f75750509161146c9795939185611466989694106114de575b505050811b01905561277c565b015160001960f88460031b161c191690553880806114d1565b8088869782949787015181550196019401906114b3565b61153590868b52828b208480880160051c82019285891061153b575b0160051c0190611a95565b3861142e565b9250819261152a565b634e487b7160e01b89526041600452602489fd5b0151905038806113f6565b858c52898c209250601f1984168c5b8b8282106115b0575050908460019594939210611597575b505050811b01825561140b565b015160001960f88460031b161c1916905538808061158a565b6001859682939686015181550195019301611572565b6115ec90868d528a8d208680860160051c8201928d871061153b570160051c0190611a95565b386113e2565b8380fd5b604081019081106001600160401b0382111761161157604052565b634e487b7160e01b600052604160045260246000fd5b6101c081019081106001600160401b0382111761161157604052565b60a081019081106001600160401b0382111761161157604052565b606081019081106001600160401b0382111761161157604052565b602081019081106001600160401b0382111761161157604052565b90601f801991011681019081106001600160401b0382111761161157604052565b6001600160401b03811161161157601f01601f191660200190565b81601f82011215611717578035906116e7826116b5565b926116f56040519485611694565b8284526020838301011161171757816000926020809301838601378301015290565b600080fd5b60005b83811061172f5750506000910152565b818101518382015260200161171f565b906020916117588151809281855285808601910161171c565b601f01601f1916010190565b908151815260018060a01b03906020828185015116818301526040928385015115158484015260606117a3818701516101c0808488015286019061173f565b936117ba608095868901518382038885015261173f565b61184061182c6118186118046117f28c60c06117e260a098898401518b82038b8d015261173f565b91015188820360c08a015261173f565b60e08d015187820360e089015261173f565b610100808d0151908783039088015261173f565b610120808c0151908683039087015261173f565b610140808b0151908583039086015261173f565b95610160808a01519084015261018096878a015197848203908501528751918282528782019088808560051b8501019a01946000935b8585106118dd57505050505050506101a080970151968186039101528280875195868152019601946000925b8584106118b3575050505050505090565b865180518216895280860151898701528201518883015296820196958401956001909301926118a2565b9091929394959b9798999a8b8061193f8f6001948f8f92908f611927908c938e601f198d88030190525192835116855287830151888601528b81840151918601528b85019061173f565b9380820151908401520151908981840391015261173f565b9e01950195019395949291909b9a9998979b611876565b602080820190808352835180925260408301928160408460051b8301019501936000915b84831061198a5750505050505090565b90919293949584806119a8600193603f198682030187528a51611764565b980193019301919493929061197a565b600435906001600160a01b038216820361171757565b602435906001600160a01b038216820361171757565b6020906119fe92826040519483868095519384920161171c565b82019081520301902090565b600654811015611a4557600d906006600052027ff652222313e28459528d920b65115c16c04f3efc82aaedc97be59f3f377c0d3f0190600090565b634e487b7160e01b600052603260045260246000fd5b90600182811c92168015611a8b575b6020831014611a7557565b634e487b7160e01b600052602260045260246000fd5b91607f1691611a6a565b818110611aa0575050565b60008155600101611a95565b611ab68154611a5b565b9081611ac0575050565b81601f60009311600114611ad35750555b565b908083918252611af2601f60208420940160051c840160018501611a95565b5555565b60018060a01b038251166bffffffffffffffffffffffff60a01b825416178155602080830151916001928382015560028101916040850151918251936001600160401b039485811161161157611b4c8254611a5b565b94601f95868111611cf8575b508490868311600114611c8a5791806004949260809694600092611c7f575b5050600019600383901b1c191690891b1790555b606088015160038201550195015190815193841161161157611bad8654611a5b565b838111611c51575b5080928411600114611bee5750928293918392600094611be3575b50501b916000199060031b1c1916179055565b015192503880611bd0565b919083601f1981168760005284600020946000905b88838310611c375750505010611c1e575b505050811b019055565b015160001960f88460031b161c19169055388080611c14565b858701518855909601959485019487935090810190611c03565b611c799087600052826000208580880160051c82019285891061153b570160051c0190611a95565b38611bb5565b015190503880611b77565b889291601f1983169185600052876000209260005b89828210611ce25750509160809795939185600498969410611cc9575b505050811b019055611b8b565b015160001960f88460031b161c19169055388080611cbc565b8385015186558d97909501949384019301611c9f565b611d209084600052866000208880860160051c82019289871061153b570160051c0190611a95565b38611b58565b919061276657805182556020810151600183018054604084015160ff60a01b90151560a01b166001600160a01b039093166001600160a81b0319909116179190911790556002820160608201518051906001600160401b038211611611578190611d908454611a5b565b601f8111612734575b50602090601f83116001146126ce576000926126c3575b50508160011b916000199060031b1c19161790555b6003820160808201518051906001600160401b038211611611578190611deb8454611a5b565b601f8111612691575b50602090601f831160011461262b57600092612620575b50508160011b916000199060031b1c19161790555b6004820160a08201518051906001600160401b038211611611578190611e468454611a5b565b601f81116125ee575b50602090601f83116001146125885760009261257d575b50508160011b916000199060031b1c19161790555b6005820160c08201518051906001600160401b038211611611578190611ea18454611a5b565b601f811161254b575b50602090601f83116001146124e5576000926124da575b50508160011b916000199060031b1c19161790555b60e08101519283516001600160401b03811161161157611ef96006850154611a5b565b601f81116124a5575b50602094601f82116001146124395794819293949560009261242e575b50508160011b916000199060031b1c19161760068401555b6101008201519283516001600160401b03811161161157611f5b6007830154611a5b565b601f81116123f9575b506020601f821160011461238a57819293949560009261237f575b50508160011b916000199060031b1c19161760078201555b6101208301519283516001600160401b03811161161157611fbb6008840154611a5b565b601f811161234a575b506020601f82116001146122db5781929394956000926122d0575b50508160011b916000199060031b1c19161760088301555b600982016101408201518051906001600160401b03821161161157819061201e8454611a5b565b601f8111612293575b50602090601f831160011461222d57600092612222575b50508160011b916000199060031b1c19161790555b610160810151600a8301556101808101518051600160401b9391600b8301908583116116115781548383558084106121b7575b506020019060005260206000206000915b8383106121995750505050600c6101a091019101518051928311611611578154838355808410612130575b506020019060005260206000206000915b8383106120e05750505050565b6003602082612124600194518690604060029160018060a01b038151166bffffffffffffffffffffffff60a01b855416178455602081015160018501550151910155565b019201920191906120d3565b8060030290600382040361218357836003026003810485036121835783600052602060002091820191015b81811061216857506120c2565b8060006003925560006001820155600060028201550161215b565b634e487b7160e01b600052601160045260246000fd5b60056020826121ab6001945186611af6565b01920192019190612097565b8060050290600582040361218357836005026005810485036121835783600052602060002091820191015b8181106121ef5750612086565b806000600592556000600182015561220960028201611aac565b6000600382015561221c60048201611aac565b016121e2565b01519050388061203e565b6000858152602081209350601f198516905b81811061227b5750908460019594939210612262575b505050811b019055612053565b015160001960f88460031b161c19169055388080612255565b9293602060018192878601518155019501930161223f565b6122c090856000526020600020601f850160051c810191602086106122c6575b601f0160051c0190611a95565b38612027565b90915081906122b3565b015190503880611fdf565b6008840160005260206000209060005b601f1984168110612332575060019394959683601f19811610612319575b505050811b016008830155611ff7565b015160001960f88460031b161c19169055388080612309565b9091602060018192858b0151815501930191016122eb565b61237990600885016000526020600020601f840160051c810191602085106122c657601f0160051c0190611a95565b38611fc4565b015190503880611f7f565b6007830160005260206000209060005b601f19841681106123e1575060019394959683601f198116106123c8575b505050811b016007820155611f97565b015160001960f88460031b161c191690553880806123b8565b9091602060018192858b01518155019301910161239a565b61242890600784016000526020600020601f840160051c810191602085106122c657601f0160051c0190611a95565b38611f64565b015190503880611f1f565b601f198216956006860160005260206000209160005b88811061248d57508360019596979810612474575b505050811b016006840155611f37565b015160001960f88460031b161c19169055388080612464565b9192602060018192868501518155019401920161244f565b6124d490600686016000526020600020601f840160051c810191602085106122c657601f0160051c0190611a95565b38611f02565b015190503880611ec1565b6000858152602081209350601f198516905b818110612533575090846001959493921061251a575b505050811b019055611ed6565b015160001960f88460031b161c1916905538808061250d565b929360206001819287860151815501950193016124f7565b61257790856000526020600020601f850160051c810191602086106122c657601f0160051c0190611a95565b38611eaa565b015190503880611e66565b6000858152602081209350601f198516905b8181106125d657509084600195949392106125bd575b505050811b019055611e7b565b015160001960f88460031b161c191690553880806125b0565b9293602060018192878601518155019501930161259a565b61261a90856000526020600020601f850160051c810191602086106122c657601f0160051c0190611a95565b38611e4f565b015190503880611e0b565b6000858152602081209350601f198516905b8181106126795750908460019594939210612660575b505050811b019055611e20565b015160001960f88460031b161c19169055388080612653565b9293602060018192878601518155019501930161263d565b6126bd90856000526020600020601f850160051c810191602086106122c657601f0160051c0190611a95565b38611df4565b015190503880611db0565b6000858152602081209350601f198516905b81811061271c5750908460019594939210612703575b505050811b019055611dc5565b015160001960f88460031b161c191690553880806126f6565b929360206001819287860151815501950193016126e0565b61276090856000526020600020601f850160051c810191602086106122c657601f0160051c0190611a95565b38611d99565b634e487b7160e01b600052600060045260246000fd5b6127949060206040519282848094519384920161171c565b810103902090565b60001981146121835760010190565b90604051918260008254926127bf84611a5b565b90818452600194858116908160001461282c57506001146127e9575b5050611ad192500383611694565b9093915060005260209081600020936000915b818310612814575050611ad1935082010138806127db565b855488840185015294850194879450918301916127fc565b915050611ad194506020925060ff191682840152151560051b82010138806127db565b906040519160209261287d848281612870818301968781519384920161171c565b8101038084520182611694565b5190209161289d604051918281612870818301968781519384920161171c565b5190201490565b6001600160401b0381116116115760051b60200190565b9081546128c7816128a4565b926040936128d785519182611694565b828152809460208092019260005281600020906000935b8585106128fd57505050505050565b600584600192845161290e81611643565b848060a01b038754168152848701548382015261292d600288016127ab565b8682015260038701546060820152612947600488016127ab565b60808201528152019301940193916128ee565b908154612966816128a4565b9260409361297685519182611694565b828152809460208092019260005281600020906000935b85851061299c57505050505050565b60038460019284516129ad8161165e565b848060a01b038754168152848701548382015260028701548682015281520193019401939161298d565b906040516129e481611627565b6101a0612ac0600c83958054855260ff600182015460018060a01b038116602088015260a01c1615156040860152612a1e600282016127ab565b6060860152612a2f600382016127ab565b6080860152612a40600482016127ab565b60a0860152612a51600582016127ab565b60c0860152612a62600682016127ab565b60e0860152612a73600782016127ab565b610100860152612a85600882016127ab565b610120860152612a97600982016127ab565b610140860152600a810154610160860152612ab4600b82016128bb565b6101808601520161295a565b910152565b604051908160008254612ad781611a5b565b93600191808316908115612b3c5750600114612aff575b505060209250600481520301902090565b90915060005260209081600020906000915b858310612b28575050505060209181013880612aee565b805487840152869450918301918101612b11565b92505050602093915060ff191682528015150281013880612aee565b90816020910312611717575180151581036117175790565b60405190612b7d82611627565b816000815260006020820152600060408201526101a060609182808201528260808201528260a08201528260c08201528260e08201528261010082015282610120820152826101408201526000610160820152826101808201520152565b90612be5826128a4565b612bf26040519182611694565b8281528092612c03601f19916128a4565b019060005b828110612c1457505050565b602090612c1f612b70565b82828501015201612c08565b8051821015611a455760209160051b010190565b612c47612b70565b506006549060005b828110612d35575050506040805190612c6782611627565b60008252600060208301526000818301528051612c8381611679565b6000815260608301528051612c9781611679565b6000815260808301528051612cab81611679565b6000815260a08301528051612cbf81611679565b6000815260c08301528051612cd381611679565b6000815260e08301528051612ce781611679565b600081526101008301528051612cfc81611679565b6000815261012083015251612d1081611679565b600081526101408201526000610160820152606061018082015260606101a082015290565b612d47826102e460096102dd85611a0a565b612d5957612d549061279c565b612c4f565b612d68925061030b9150611a0a565b90565b6006549060005b828110612d8157505050600090565b612d93826102e460096102dd85611a0a565b612da557612da09061279c565b612d72565b50505060019056fea2646970667358221220e1442ff1d140e0c928ac2bf9a41ac2a60bb0c69bc236939afcf93490886a2ac964736f6c63430008140033",
          "opcodes": "PUSH1 0x80 CALLVALUE PUSH2 0x7B JUMPI PUSH1 0x1F PUSH3 0x2E7A CODESIZE DUP2 SWAP1 SUB SWAP2 DUP3 ADD PUSH1 0x1F NOT AND DUP4 ADD SWAP2 PUSH1 0x1 PUSH1 0x1 PUSH1 0x40 SHL SUB DUP4 GT DUP5 DUP5 LT OR PUSH2 0x80 JUMPI DUP1 DUP5 SWAP3 PUSH1 0x20 SWAP5 PUSH1 0x40 MSTORE DUP4 CODECOPY DUP2 ADD SUB SLT PUSH2 0x7B JUMPI MLOAD PUSH1 0x1 PUSH1 0x1 PUSH1 0xA0 SHL SUB DUP2 AND SWAP1 DUP2 SWAP1 SUB PUSH2 0x7B JUMPI PUSH1 0x1 PUSH1 0x0 SSTORE PUSH1 0x5 DUP1 SLOAD PUSH1 0x1 PUSH1 0x1 PUSH1 0xA0 SHL SUB NOT AND SWAP2 SWAP1 SWAP2 OR SWAP1 SSTORE PUSH1 0x40 MLOAD PUSH2 0x2DE3 SWAP1 DUP2 PUSH3 0x97 DUP3 CODECOPY RETURN JUMPDEST PUSH1 0x0 DUP1 REVERT JUMPDEST PUSH4 0x4E487B71 PUSH1 0xE0 SHL PUSH1 0x0 MSTORE PUSH1 0x41 PUSH1 0x4 MSTORE PUSH1 0x24 PUSH1 0x0 REVERT INVALID PUSH1 0x80 PUSH1 0x40 MSTORE PUSH1 0x4 CALLDATASIZE LT ISZERO PUSH2 0x12 JUMPI PUSH1 0x0 DUP1 REVERT JUMPDEST PUSH1 0x0 DUP1 CALLDATALOAD PUSH1 0xE0 SHR DUP1 PUSH4 0x16363FA EQ PUSH2 0x1350 JUMPI DUP1 PUSH4 0x1A13CC59 EQ PUSH2 0x1169 JUMPI DUP1 PUSH4 0x1CAD3AC5 EQ PUSH2 0x1124 JUMPI DUP1 PUSH4 0x318BB5C7 EQ PUSH2 0xE55 JUMPI DUP1 PUSH4 0x3829F313 EQ PUSH2 0xE2C JUMPI DUP1 PUSH4 0x7791B330 EQ PUSH2 0xDAC JUMPI DUP1 PUSH4 0x93EC02F1 EQ PUSH2 0xB11 JUMPI DUP1 PUSH4 0x987EE156 EQ PUSH2 0xA72 JUMPI DUP1 PUSH4 0x990D6459 EQ PUSH2 0x932 JUMPI DUP1 PUSH4 0x9992B606 EQ PUSH2 0x8A6 JUMPI DUP1 PUSH4 0x9DEE74D5 EQ PUSH2 0x806 JUMPI DUP1 PUSH4 0xA39249B8 EQ PUSH2 0x7A3 JUMPI DUP1 PUSH4 0xA97CE3C2 EQ PUSH2 0x58F JUMPI DUP1 PUSH4 0xBD623642 EQ PUSH2 0x53B JUMPI DUP1 PUSH4 0xBDDFF4D8 EQ PUSH2 0x502 JUMPI DUP1 PUSH4 0xD41AAB23 EQ PUSH2 0x277 JUMPI DUP1 PUSH4 0xE4BA3747 EQ PUSH2 0x1F4 JUMPI PUSH4 0xE607A8BA EQ PUSH2 0xE3 JUMPI PUSH1 0x0 DUP1 REVERT JUMPDEST CALLVALUE PUSH2 0x1F1 JUMPI DUP1 PUSH1 0x3 NOT CALLDATASIZE ADD SLT PUSH2 0x1F1 JUMPI CALLER DUP2 MSTORE PUSH1 0x3 PUSH1 0x20 MSTORE PUSH1 0x40 DUP2 KECCAK256 SLOAD TIMESTAMP SUB TIMESTAMP DUP2 GT PUSH2 0x1DD JUMPI PUSH3 0x15180 GT PUSH2 0x1C5 JUMPI CALLER DUP2 MSTORE PUSH1 0x3 PUSH1 0x20 MSTORE TIMESTAMP PUSH1 0x40 DUP3 KECCAK256 SSTORE DUP1 PUSH1 0x20 PUSH1 0x1 DUP1 PUSH1 0xA0 SHL SUB PUSH1 0x5 SLOAD AND PUSH1 0x44 PUSH1 0x40 MLOAD DUP1 SWAP5 DUP2 SWAP4 PUSH4 0xA9059CBB PUSH1 0xE0 SHL DUP4 MSTORE CALLER PUSH1 0x4 DUP5 ADD MSTORE PUSH9 0x3635C9ADC5DEA00000 PUSH1 0x24 DUP5 ADD MSTORE GAS CALL DUP1 ISZERO PUSH2 0x1BA JUMPI PUSH2 0x18C JUMPI JUMPDEST POP CALLER PUSH32 0x561F98ADFB5DF58A7C3C03F4ADA643CC46C1A5291389819DBD6D01FE49048149 DUP3 DUP1 LOG2 DUP1 RETURN JUMPDEST PUSH2 0x1AC SWAP1 PUSH1 0x20 RETURNDATASIZE DUP2 GT PUSH2 0x1B3 JUMPI JUMPDEST PUSH2 0x1A4 DUP2 DUP4 PUSH2 0x1694 JUMP JUMPDEST DUP2 ADD SWAP1 PUSH2 0x2B58 JUMP JUMPDEST POP CODESIZE PUSH2 0x163 JUMP JUMPDEST POP RETURNDATASIZE PUSH2 0x19A JUMP JUMPDEST PUSH1 0x40 MLOAD RETURNDATASIZE DUP5 DUP3 RETURNDATACOPY RETURNDATASIZE SWAP1 REVERT JUMPDEST PUSH1 0x40 MLOAD PUSH4 0xFCA47E31 PUSH1 0xE0 SHL DUP2 MSTORE CALLER PUSH1 0x4 DUP3 ADD MSTORE PUSH1 0x24 SWAP1 REVERT JUMPDEST PUSH4 0x4E487B71 PUSH1 0xE0 SHL DUP3 MSTORE PUSH1 0x11 PUSH1 0x4 MSTORE PUSH1 0x24 DUP3 REVERT JUMPDEST DUP1 REVERT JUMPDEST POP CALLVALUE PUSH2 0x1F1 JUMPI PUSH1 0x40 CALLDATASIZE PUSH1 0x3 NOT ADD SLT PUSH2 0x1F1 JUMPI PUSH1 0x4 CALLDATALOAD PUSH1 0x1 PUSH1 0x1 PUSH1 0x40 SHL SUB DUP2 GT PUSH2 0x273 JUMPI PUSH1 0x40 PUSH1 0x20 SWAP3 PUSH2 0x22C PUSH1 0xFF SWAP4 CALLDATASIZE SWAP1 PUSH1 0x4 ADD PUSH2 0x16D0 JUMP JUMPDEST PUSH2 0x24B DUP6 PUSH2 0x238 PUSH2 0x19CE JUMP JUMPDEST SWAP3 DUP2 DUP7 MLOAD SWAP4 DUP3 DUP6 DUP1 SWAP5 MLOAD SWAP4 DUP5 SWAP3 ADD PUSH2 0x171C JUMP JUMPDEST PUSH1 0x4 SWAP1 DUP3 ADD SWAP1 DUP2 MSTORE SUB ADD SWAP1 KECCAK256 PUSH1 0x1 PUSH1 0x1 PUSH1 0xA0 SHL SUB SWAP1 SWAP2 AND DUP3 MSTORE DUP5 MSTORE KECCAK256 SLOAD PUSH1 0x40 MLOAD SWAP2 AND ISZERO ISZERO DUP2 MSTORE RETURN JUMPDEST POP DUP1 REVERT JUMPDEST POP PUSH1 0x60 DUP1 PUSH1 0x3 NOT CALLDATASIZE ADD SLT PUSH2 0x273 JUMPI PUSH1 0x4 CALLDATALOAD PUSH1 0x1 PUSH1 0x1 PUSH1 0x40 SHL SUB DUP2 GT PUSH2 0x4FE JUMPI PUSH2 0x2A4 SWAP1 CALLDATASIZE SWAP1 PUSH1 0x4 ADD PUSH2 0x16D0 JUMP JUMPDEST PUSH2 0x2AC PUSH2 0x19CE JUMP JUMPDEST PUSH1 0x44 SWAP3 DUP4 CALLDATALOAD SWAP1 PUSH1 0x2 DUP7 SLOAD EQ PUSH2 0x4EC JUMPI PUSH1 0x2 DUP7 SSTORE DUP6 JUMPDEST PUSH1 0x6 SLOAD DUP2 LT ISZERO PUSH2 0x4E1 JUMPI PUSH2 0x2E9 DUP6 PUSH2 0x2E4 PUSH1 0x9 PUSH2 0x2DD DUP6 PUSH2 0x1A0A JUMP JUMPDEST POP ADD PUSH2 0x27AB JUMP JUMPDEST PUSH2 0x284F JUMP JUMPDEST PUSH2 0x2FB JUMPI PUSH2 0x2F6 SWAP1 PUSH2 0x279C JUMP JUMPDEST PUSH2 0x2C1 JUMP JUMPDEST SWAP2 SWAP3 SWAP4 SWAP5 PUSH2 0x311 PUSH2 0x30B DUP5 PUSH2 0x1A0A JUMP JUMPDEST POP PUSH2 0x29D7 JUMP JUMPDEST SWAP5 PUSH1 0x20 SWAP3 DUP4 DUP8 ADD SWAP2 PUSH1 0x1 DUP1 PUSH1 0xA0 SHL SUB SWAP4 DUP5 DUP5 MLOAD AND CALLER EQ PUSH2 0x49E JUMPI DUP9 MLOAD SWAP1 DUP2 CALLVALUE LT PUSH2 0x46A JUMPI POP POP POP POP DUP6 MLOAD DUP1 DUP7 MUL SWAP1 DUP7 DUP3 DIV EQ DUP7 ISZERO OR ISZERO PUSH2 0x456 JUMPI PUSH1 0x40 MLOAD SWAP6 PUSH2 0x358 DUP8 PUSH2 0x165E JUMP JUMPDEST CALLER DUP8 MSTORE DUP5 DUP8 ADD MSTORE PUSH1 0x40 DUP7 ADD MSTORE MLOAD AND DUP7 MSTORE PUSH1 0x1 SWAP2 DUP3 DUP3 MSTORE PUSH2 0x37F PUSH1 0x40 DUP9 KECCAK256 PUSH1 0xE0 DUP8 ADD MLOAD PUSH2 0x19E4 JUMP JUMPDEST DUP1 SLOAD SWAP1 CALLVALUE DUP3 ADD DUP1 SWAP3 GT PUSH2 0x456 JUMPI SSTORE PUSH1 0xC SWAP1 PUSH2 0x399 SWAP1 PUSH2 0x1A0A JUMP JUMPDEST POP ADD DUP1 SLOAD SWAP3 PUSH1 0x1 PUSH1 0x40 SHL DUP5 LT ISZERO PUSH2 0x442 JUMPI DUP4 ADD DUP1 DUP3 SSTORE DUP4 LT ISZERO PUSH2 0x42E JUMPI DUP7 MSTORE DUP6 KECCAK256 DUP3 MLOAD PUSH1 0x3 SWAP1 SWAP3 MUL ADD DUP1 SLOAD PUSH1 0x1 PUSH1 0x1 PUSH1 0xA0 SHL SUB NOT AND PUSH1 0x1 PUSH1 0x1 PUSH1 0xA0 SHL SUB SWAP3 SWAP1 SWAP3 AND SWAP2 SWAP1 SWAP2 OR DUP2 SSTORE PUSH1 0x20 DUP3 ADD MLOAD PUSH1 0x1 DUP3 ADD SSTORE PUSH1 0x40 SWAP1 SWAP2 ADD MLOAD PUSH1 0x2 SWAP1 SWAP2 ADD SSTORE PUSH2 0x401 SWAP1 MLOAD SWAP2 PUSH2 0x277C JUMP JUMPDEST CALLER PUSH32 0x253FCD678C758E0E03DBF3A0243701C7439C306A61158B3C522A811977299010 DUP5 DUP1 LOG4 JUMPDEST PUSH1 0x1 DUP2 SSTORE DUP1 RETURN JUMPDEST PUSH4 0x4E487B71 PUSH1 0xE0 SHL DUP8 MSTORE PUSH1 0x32 PUSH1 0x4 MSTORE PUSH1 0x24 DUP8 REVERT JUMPDEST PUSH4 0x4E487B71 PUSH1 0xE0 SHL DUP9 MSTORE PUSH1 0x41 PUSH1 0x4 MSTORE PUSH1 0x24 DUP9 REVERT JUMPDEST PUSH4 0x4E487B71 PUSH1 0xE0 SHL DUP10 MSTORE PUSH1 0x11 PUSH1 0x4 MSTORE PUSH1 0x24 DUP10 REVERT JUMPDEST DUP11 SWAP5 POP DUP6 PUSH2 0x490 PUSH1 0x40 MLOAD SWAP7 DUP8 SWAP7 PUSH4 0xE90DB85 PUSH1 0xE3 SHL DUP9 MSTORE PUSH1 0x4 DUP9 ADD MSTORE PUSH1 0x64 DUP8 ADD SWAP1 PUSH2 0x173F JUMP JUMPDEST SWAP4 AND PUSH1 0x24 DUP6 ADD MSTORE DUP4 ADD MSTORE SUB SWAP1 REVERT JUMPDEST DUP6 PUSH32 0x43616E206E6F742062757920796F7572206F776E2070726F6475637421000000 PUSH1 0x64 SWAP3 PUSH1 0x40 MLOAD SWAP3 PUSH3 0x461BCD PUSH1 0xE5 SHL DUP5 MSTORE PUSH1 0x4 DUP5 ADD MSTORE PUSH1 0x1D PUSH1 0x24 DUP5 ADD MSTORE DUP3 ADD MSTORE REVERT JUMPDEST POP POP POP POP POP POP PUSH2 0x427 JUMP JUMPDEST PUSH1 0x40 MLOAD PUSH4 0x3EE5AEB5 PUSH1 0xE0 SHL DUP2 MSTORE PUSH1 0x4 SWAP1 REVERT JUMPDEST DUP3 DUP1 REVERT JUMPDEST POP CALLVALUE PUSH2 0x1F1 JUMPI PUSH1 0x20 CALLDATASIZE PUSH1 0x3 NOT ADD SLT PUSH2 0x1F1 JUMPI PUSH1 0x20 SWAP1 PUSH1 0x40 SWAP1 PUSH1 0x1 PUSH1 0x1 PUSH1 0xA0 SHL SUB PUSH2 0x52A PUSH2 0x19B8 JUMP JUMPDEST AND DUP2 MSTORE PUSH1 0x3 DUP4 MSTORE KECCAK256 SLOAD PUSH1 0x40 MLOAD SWAP1 DUP2 MSTORE RETURN JUMPDEST POP CALLVALUE PUSH2 0x1F1 JUMPI PUSH1 0x20 CALLDATASIZE PUSH1 0x3 NOT ADD SLT PUSH2 0x1F1 JUMPI PUSH1 0x4 CALLDATALOAD SWAP1 PUSH1 0x1 PUSH1 0x1 PUSH1 0x40 SHL SUB DUP3 GT PUSH2 0x1F1 JUMPI PUSH2 0x58B PUSH2 0x577 PUSH2 0x572 CALLDATASIZE PUSH1 0x4 DUP7 ADD PUSH2 0x16D0 JUMP JUMPDEST PUSH2 0x2C3F JUMP JUMPDEST PUSH1 0x40 MLOAD SWAP2 DUP3 SWAP2 PUSH1 0x20 DUP4 MSTORE PUSH1 0x20 DUP4 ADD SWAP1 PUSH2 0x1764 JUMP JUMPDEST SUB SWAP1 RETURN JUMPDEST POP CALLVALUE PUSH2 0x1F1 JUMPI PUSH1 0x20 DUP1 PUSH1 0x3 NOT CALLDATASIZE ADD SLT PUSH2 0x273 JUMPI PUSH1 0x4 CALLDATALOAD PUSH1 0x1 PUSH1 0x1 PUSH1 0x40 SHL SUB DUP2 GT PUSH2 0x4FE JUMPI PUSH2 0x5C1 SWAP1 CALLDATASIZE SWAP1 PUSH1 0x4 ADD PUSH2 0x16D0 JUMP JUMPDEST CALLER DUP4 MSTORE PUSH1 0x1 DUP3 MSTORE PUSH2 0x5D5 PUSH1 0x40 DUP5 KECCAK256 DUP3 PUSH2 0x19E4 JUMP JUMPDEST SLOAD DUP1 ISZERO PUSH2 0x791 JUMPI CALLER DUP5 MSTORE PUSH1 0x1 DUP4 MSTORE DUP4 PUSH2 0x5F1 PUSH1 0x40 DUP3 KECCAK256 DUP5 PUSH2 0x19E4 JUMP JUMPDEST SSTORE PUSH2 0x616 PUSH1 0x40 MLOAD PUSH2 0x601 DUP2 PUSH2 0x15F6 JUMP JUMPDEST PUSH1 0x3 DUP2 MSTORE PUSH3 0x8AA89 PUSH1 0xEB SHL DUP6 DUP3 ADD MSTORE DUP4 PUSH2 0x284F JUMP JUMPDEST ISZERO PUSH2 0x6CD JUMPI DUP4 DUP1 DUP1 DUP1 DUP5 CALLER GAS CALL SWAP2 DUP3 RETURNDATASIZE ISZERO PUSH2 0x6C8 JUMPI RETURNDATASIZE PUSH2 0x635 DUP2 PUSH2 0x16B5 JUMP JUMPDEST SWAP1 PUSH2 0x643 PUSH1 0x40 MLOAD SWAP3 DUP4 PUSH2 0x1694 JUMP JUMPDEST DUP2 MSTORE DUP7 DUP7 RETURNDATASIZE SWAP3 ADD RETURNDATACOPY JUMPDEST PUSH2 0x693 JUMPI JUMPDEST POP POP ISZERO PUSH2 0x65C JUMPI POP DUP1 RETURN JUMPDEST PUSH1 0x64 SWAP1 PUSH1 0x40 MLOAD SWAP1 PUSH3 0x461BCD PUSH1 0xE5 SHL DUP3 MSTORE PUSH1 0x4 DUP3 ADD MSTORE PUSH1 0x10 PUSH1 0x24 DUP3 ADD MSTORE PUSH16 0x5472616E73666572206661696C656421 PUSH1 0x80 SHL PUSH1 0x44 DUP3 ADD MSTORE REVERT JUMPDEST PUSH2 0x69C SWAP1 PUSH2 0x277C JUMP JUMPDEST CALLER PUSH32 0xF2CA3EFE12F71D386EF0FD2B75EBBEF402882711943CCB42D5BDB696FA7A1341 DUP7 DUP1 LOG4 CODESIZE DUP1 PUSH2 0x651 JUMP JUMPDEST PUSH2 0x64C JUMP JUMPDEST SWAP1 PUSH2 0x6F4 SWAP1 PUSH1 0x40 MLOAD SWAP1 PUSH2 0x6DF DUP3 PUSH2 0x15F6 JUMP JUMPDEST PUSH1 0x4 DUP3 MSTORE PUSH4 0x13515515 PUSH1 0xE2 SHL DUP6 DUP4 ADD MSTORE PUSH2 0x284F JUMP JUMPDEST PUSH2 0x6FE JUMPI JUMPDEST POP POP DUP1 RETURN JUMPDEST PUSH1 0x5 SLOAD PUSH1 0x1 PUSH1 0x1 PUSH1 0xA0 SHL SUB AND SWAP1 PUSH8 0x8AC7230489E80000 DUP2 MUL SWAP1 DUP2 DIV PUSH8 0x8AC7230489E7FFFF NOT ADD PUSH2 0x77D JUMPI DUP4 SWAP2 PUSH1 0x44 DUP5 SWAP3 PUSH1 0x40 MLOAD SWAP5 DUP6 SWAP4 DUP5 SWAP3 PUSH4 0xA9059CBB PUSH1 0xE0 SHL DUP5 MSTORE CALLER PUSH1 0x4 DUP6 ADD MSTORE PUSH1 0x24 DUP5 ADD MSTORE GAS CALL DUP1 ISZERO PUSH2 0x772 JUMPI ISZERO PUSH2 0x6F9 JUMPI DUP2 PUSH2 0x76E SWAP3 SWAP1 RETURNDATASIZE LT PUSH2 0x1B3 JUMPI PUSH2 0x1A4 DUP2 DUP4 PUSH2 0x1694 JUMP JUMPDEST POP DUP1 RETURN JUMPDEST PUSH1 0x40 MLOAD RETURNDATASIZE DUP6 DUP3 RETURNDATACOPY RETURNDATASIZE SWAP1 REVERT JUMPDEST PUSH4 0x4E487B71 PUSH1 0xE0 SHL DUP5 MSTORE PUSH1 0x11 PUSH1 0x4 MSTORE PUSH1 0x24 DUP5 REVERT JUMPDEST PUSH1 0x40 MLOAD PUSH4 0x125D726B PUSH1 0xE2 SHL DUP2 MSTORE PUSH1 0x4 SWAP1 REVERT JUMPDEST POP CALLVALUE PUSH2 0x1F1 JUMPI PUSH1 0x40 CALLDATASIZE PUSH1 0x3 NOT ADD SLT PUSH2 0x1F1 JUMPI PUSH2 0x7BD PUSH2 0x19B8 JUMP JUMPDEST PUSH1 0x24 CALLDATALOAD PUSH1 0x1 PUSH1 0x1 PUSH1 0x40 SHL SUB DUP2 GT PUSH2 0x4FE JUMPI SWAP1 PUSH1 0x40 PUSH1 0x20 SWAP4 PUSH2 0x7E5 PUSH2 0x7FD SWAP5 CALLDATASIZE SWAP1 PUSH1 0x4 ADD PUSH2 0x16D0 JUMP JUMPDEST PUSH1 0x1 PUSH1 0x1 PUSH1 0xA0 SHL SUB SWAP1 SWAP4 AND DUP2 MSTORE PUSH1 0x1 DUP6 MSTORE KECCAK256 SWAP1 PUSH2 0x19E4 JUMP JUMPDEST SLOAD PUSH1 0x40 MLOAD SWAP1 DUP2 MSTORE RETURN JUMPDEST POP CALLVALUE PUSH2 0x1F1 JUMPI PUSH1 0x20 CALLDATASIZE PUSH1 0x3 NOT ADD SLT PUSH2 0x1F1 JUMPI PUSH1 0x4 CALLDATALOAD PUSH1 0x1 PUSH1 0x1 PUSH1 0x40 SHL SUB DUP2 GT PUSH2 0x273 JUMPI PUSH2 0x837 SWAP1 CALLDATASIZE SWAP1 PUSH1 0x4 ADD PUSH2 0x16D0 JUMP JUMPDEST PUSH1 0x6 SLOAD SWAP1 PUSH2 0x844 DUP3 PUSH2 0x2BDB JUMP JUMPDEST SWAP3 JUMPDEST DUP3 DUP2 LT PUSH2 0x85B JUMPI PUSH1 0x40 MLOAD DUP1 PUSH2 0x58B DUP7 DUP3 PUSH2 0x1956 JUMP JUMPDEST DUP1 PUSH2 0x871 DUP4 PUSH2 0x2E4 PUSH1 0x2 PUSH2 0x2DD PUSH2 0x87A SWAP7 PUSH2 0x1A0A JUMP JUMPDEST PUSH2 0x87F JUMPI PUSH2 0x279C JUMP JUMPDEST PUSH2 0x846 JUMP JUMPDEST PUSH2 0x88B PUSH2 0x30B DUP3 PUSH2 0x1A0A JUMP JUMPDEST PUSH2 0x895 DUP3 DUP8 PUSH2 0x2C2B JUMP JUMPDEST MSTORE PUSH2 0x8A0 DUP2 DUP7 PUSH2 0x2C2B JUMP JUMPDEST POP PUSH2 0x279C JUMP JUMPDEST POP CALLVALUE PUSH2 0x1F1 JUMPI DUP1 PUSH1 0x3 NOT CALLDATASIZE ADD SLT PUSH2 0x1F1 JUMPI PUSH1 0x6 SLOAD PUSH2 0x8C3 DUP2 PUSH2 0x28A4 JUMP JUMPDEST SWAP1 PUSH2 0x8D1 PUSH1 0x40 MLOAD SWAP3 DUP4 PUSH2 0x1694 JUMP JUMPDEST DUP1 DUP3 MSTORE PUSH1 0x6 DUP4 MSTORE PUSH32 0xF652222313E28459528D920B65115C16C04F3EFC82AAEDC97BE59F3F377C0D3F SWAP3 PUSH1 0x20 DUP1 DUP5 ADD JUMPDEST DUP4 DUP4 LT PUSH2 0x915 JUMPI PUSH1 0x40 MLOAD DUP1 PUSH2 0x58B DUP8 DUP3 PUSH2 0x1956 JUMP JUMPDEST PUSH1 0xD DUP3 PUSH1 0x1 SWAP3 PUSH2 0x924 DUP10 PUSH2 0x29D7 JUMP JUMPDEST DUP2 MSTORE ADD SWAP7 ADD SWAP3 ADD SWAP2 SWAP5 PUSH2 0x900 JUMP JUMPDEST POP CALLVALUE PUSH2 0x1F1 JUMPI PUSH1 0x40 CALLDATASIZE PUSH1 0x3 NOT ADD SLT PUSH2 0x1F1 JUMPI PUSH1 0x4 CALLDATALOAD PUSH1 0x1 PUSH1 0x1 PUSH1 0x40 SHL SUB DUP2 GT PUSH2 0x273 JUMPI PUSH2 0x963 SWAP1 CALLDATASIZE SWAP1 PUSH1 0x4 ADD PUSH2 0x16D0 JUMP JUMPDEST PUSH1 0x24 SWAP1 DUP2 CALLDATALOAD SWAP1 DUP2 ISZERO ISZERO SWAP2 DUP3 DUP2 SUB PUSH2 0xA6E JUMPI DUP5 JUMPDEST PUSH1 0x6 SLOAD DUP2 LT ISZERO PUSH2 0xA66 JUMPI PUSH2 0x992 DUP4 PUSH2 0x2E4 PUSH1 0x9 PUSH2 0x2DD DUP6 PUSH2 0x1A0A JUMP JUMPDEST PUSH2 0x9A4 JUMPI PUSH2 0x99F SWAP1 PUSH2 0x279C JUMP JUMPDEST PUSH2 0x976 JUMP JUMPDEST PUSH2 0x9B2 DUP2 SWAP6 SWAP3 SWAP4 SWAP5 SWAP6 PUSH2 0x1A0A JUMP JUMPDEST POP PUSH1 0x1 SWAP1 DUP2 ADD SLOAD SWAP1 SWAP3 SWAP1 PUSH1 0x1 PUSH1 0x1 PUSH1 0xA0 SHL SUB AND CALLER SUB PUSH2 0xA2A JUMPI POP SWAP2 PUSH2 0x9FD SWAP2 PUSH2 0x9DE PUSH2 0xA02 SWAP6 SWAP5 PUSH2 0x1A0A JUMP JUMPDEST POP ADD DUP1 SLOAD PUSH1 0xFF PUSH1 0xA0 SHL NOT AND SWAP2 ISZERO ISZERO PUSH1 0xA0 SHL PUSH1 0xFF PUSH1 0xA0 SHL AND SWAP2 SWAP1 SWAP2 OR SWAP1 SSTORE JUMP JUMPDEST PUSH2 0x277C JUMP JUMPDEST CALLER PUSH32 0x51DABE03DBC9869CDC42F327348910C055732B793C7AAADE368A32D8F3658E1E DUP5 DUP1 LOG4 DUP1 RETURN JUMPDEST PUSH1 0x64 SWAP1 PUSH1 0x15 PUSH1 0x40 MLOAD SWAP2 PUSH3 0x461BCD PUSH1 0xE5 SHL DUP4 MSTORE PUSH1 0x20 PUSH1 0x4 DUP5 ADD MSTORE DUP3 ADD MSTORE PUSH21 0x4E6F7420796F7572206F776E2070726F6475637421 PUSH1 0x58 SHL PUSH1 0x44 DUP3 ADD MSTORE REVERT JUMPDEST POP POP POP POP POP DUP1 RETURN JUMPDEST DUP5 DUP1 REVERT JUMPDEST POP CALLVALUE PUSH2 0x1F1 JUMPI PUSH1 0x20 DUP1 PUSH1 0x3 NOT CALLDATASIZE ADD SLT PUSH2 0x273 JUMPI PUSH2 0x58B PUSH1 0x40 DUP1 SWAP4 PUSH2 0xA94 PUSH2 0x19B8 JUMP JUMPDEST PUSH1 0x60 DUP6 DUP5 MLOAD PUSH2 0xAA2 DUP2 PUSH2 0x15F6 JUMP JUMPDEST DUP3 DUP2 MSTORE ADD MSTORE PUSH1 0x1 PUSH1 0x1 PUSH1 0xA0 SHL SUB AND DUP2 MSTORE PUSH1 0x2 DUP5 MSTORE KECCAK256 DUP4 MLOAD SWAP3 SWAP1 PUSH2 0xAFE SWAP1 PUSH2 0xAE0 SWAP1 PUSH1 0x1 SWAP1 PUSH2 0xACF DUP8 PUSH2 0x15F6 JUMP JUMPDEST PUSH2 0xAD8 DUP2 PUSH2 0x27AB JUMP JUMPDEST DUP8 MSTORE ADD PUSH2 0x27AB JUMP JUMPDEST SWAP2 DUP1 DUP6 ADD SWAP3 DUP4 MSTORE DUP6 MLOAD SWAP6 DUP7 SWAP6 DUP3 DUP8 MSTORE MLOAD SWAP2 DUP7 ADD MSTORE PUSH1 0x60 DUP6 ADD SWAP1 PUSH2 0x173F JUMP JUMPDEST SWAP1 MLOAD DUP4 DUP3 SUB PUSH1 0x1F NOT ADD PUSH1 0x40 DUP6 ADD MSTORE PUSH2 0x173F JUMP JUMPDEST POP CALLVALUE PUSH2 0x1F1 JUMPI PUSH1 0xA0 CALLDATASIZE PUSH1 0x3 NOT ADD SLT PUSH2 0x1F1 JUMPI PUSH1 0x1 PUSH1 0x1 PUSH1 0x40 SHL SUB PUSH1 0x4 CALLDATALOAD DUP2 DUP2 GT PUSH2 0x4FE JUMPI PUSH2 0xB43 SWAP1 CALLDATASIZE SWAP1 PUSH1 0x4 ADD PUSH2 0x16D0 JUMP JUMPDEST SWAP2 PUSH1 0x24 SWAP3 DUP4 CALLDATALOAD SWAP4 PUSH1 0x44 SWAP2 DUP3 CALLDATALOAD DUP6 DUP2 GT PUSH2 0xA6E JUMPI PUSH2 0xB64 SWAP1 CALLDATASIZE SWAP1 PUSH1 0x4 ADD PUSH2 0x16D0 JUMP JUMPDEST SWAP6 PUSH1 0x64 SWAP6 DUP7 CALLDATALOAD SWAP1 DUP2 GT PUSH2 0xDA8 JUMPI PUSH2 0xB7F SWAP1 CALLDATASIZE SWAP1 PUSH1 0x4 ADD PUSH2 0x16D0 JUMP JUMPDEST SWAP4 PUSH1 0x84 SWAP8 DUP9 CALLDATALOAD SWAP5 PUSH1 0x1 DUP1 PUSH1 0xA0 SHL SUB SWAP3 DUP4 DUP8 AND DUP1 SWAP8 SUB PUSH2 0xDA4 JUMPI DUP9 JUMPDEST PUSH1 0x6 SLOAD DUP2 LT ISZERO PUSH2 0xD95 JUMPI PUSH2 0xBAD DUP2 PUSH2 0x1A0A JUMP JUMPDEST POP PUSH2 0xBBF DUP11 PUSH2 0x2E4 PUSH1 0x9 DUP1 SWAP5 ADD PUSH2 0x27AB JUMP JUMPDEST PUSH2 0xBD2 JUMPI POP PUSH2 0xBCD SWAP1 PUSH2 0x279C JUMP JUMPDEST PUSH2 0xB9A JUMP JUMPDEST SWAP2 PUSH2 0xBE6 DUP3 SWAP5 SWAP6 SWAP7 SWAP8 SWAP9 SWAP10 SWAP11 SWAP12 SWAP13 SWAP3 PUSH2 0x1A0A JUMP JUMPDEST POP SWAP7 PUSH1 0x1 DUP1 SWAP9 ADD SLOAD AND CALLER EQ PUSH2 0xD46 JUMPI DUP12 SWAP13 POP PUSH1 0xFF PUSH1 0x40 PUSH2 0xC10 DUP6 PUSH2 0xC09 DUP9 PUSH2 0x1A0A JUMP JUMPDEST POP ADD PUSH2 0x2AC5 JUMP JUMPDEST SWAP14 CALLER DUP2 MSTORE PUSH1 0x20 SWAP15 DUP16 MSTORE KECCAK256 SLOAD AND PUSH2 0xD06 JUMPI POP POP DUP2 PUSH2 0xC35 PUSH2 0xC4D SWAP3 PUSH2 0xC09 PUSH1 0xB SWAP6 PUSH2 0x1A0A JUMP JUMPDEST CALLER DUP14 MSTORE DUP12 MSTORE PUSH1 0x40 DUP13 KECCAK256 DUP1 SLOAD PUSH1 0xFF NOT AND DUP8 OR SWAP1 SSTORE PUSH2 0x1A0A JUMP JUMPDEST POP ADD SWAP2 PUSH1 0x40 MLOAD SWAP5 PUSH2 0xC5D DUP7 PUSH2 0x1643 JUMP JUMPDEST CALLER DUP7 MSTORE DUP10 DUP7 ADD MSTORE DUP6 PUSH1 0x40 DUP7 ADD MSTORE TIMESTAMP PUSH1 0x60 DUP7 ADD MSTORE PUSH1 0x80 DUP6 ADD MSTORE DUP2 SLOAD SWAP3 PUSH1 0x1 PUSH1 0x40 SHL DUP5 LT ISZERO PUSH2 0xCF3 JUMPI DUP4 ADD DUP1 DUP4 SSTORE DUP4 LT ISZERO PUSH2 0xCE1 JUMPI POP SWAP3 PUSH2 0x9FD PUSH2 0xCD4 SWAP4 PUSH2 0xCCE SWAP4 PUSH32 0x8BB52EEE1B68032569FA2C483528D7D2B7DB7824B9704EE675F7202956220865 SWAP7 DUP12 MSTORE PUSH1 0x5 DUP11 DUP13 KECCAK256 SWAP2 MUL ADD PUSH2 0x1AF6 JUMP JUMPDEST SWAP4 PUSH2 0x277C JUMP JUMPDEST SWAP4 PUSH1 0x40 MLOAD SWAP3 DUP4 MSTORE CALLER SWAP3 LOG4 DUP1 RETURN JUMPDEST PUSH4 0x4E487B71 PUSH1 0xE0 SHL DUP10 MSTORE PUSH1 0x32 PUSH1 0x4 MSTORE DUP9 REVERT JUMPDEST POP PUSH4 0x4E487B71 PUSH1 0xE0 SHL DUP10 MSTORE PUSH1 0x41 PUSH1 0x4 MSTORE DUP9 REVERT JUMPDEST PUSH32 0x43616E206E6F7420636F6D6D656E74206D6F7265207468616E206F6E63652100 DUP13 SWAP2 PUSH1 0x1F DUP8 PUSH1 0x40 MLOAD SWAP5 PUSH3 0x461BCD PUSH1 0xE5 SHL DUP7 MSTORE PUSH1 0x4 DUP7 ADD MSTORE DUP5 ADD MSTORE DUP3 ADD MSTORE REVERT JUMPDEST PUSH5 0x7563747321 PUSH1 0xD8 SHL DUP14 SWAP3 PUSH32 0x43616E206E6F7420636F6D6D656E74206F6E20796F7572206F776E2070726F64 DUP8 SWAP4 PUSH1 0x25 PUSH1 0x40 MLOAD SWAP6 PUSH3 0x461BCD PUSH1 0xE5 SHL DUP8 MSTORE PUSH1 0x20 PUSH1 0x4 DUP9 ADD MSTORE DUP7 ADD MSTORE DUP5 ADD MSTORE DUP3 ADD MSTORE REVERT JUMPDEST POP POP POP POP POP POP POP POP POP SWAP2 POP POP DUP1 RETURN JUMPDEST DUP9 DUP1 REVERT JUMPDEST DUP6 DUP1 REVERT JUMPDEST POP CALLVALUE PUSH2 0x1F1 JUMPI DUP1 PUSH1 0x3 NOT CALLDATASIZE ADD SLT PUSH2 0x1F1 JUMPI PUSH1 0x6 SLOAD PUSH2 0xDC9 DUP2 PUSH2 0x2BDB JUMP JUMPDEST SWAP2 JUMPDEST DUP2 DUP2 LT PUSH2 0xDE0 JUMPI PUSH1 0x40 MLOAD DUP1 PUSH2 0x58B DUP6 DUP3 PUSH2 0x1956 JUMP JUMPDEST DUP1 PUSH2 0xDED PUSH2 0xE06 SWAP3 PUSH2 0x1A0A JUMP JUMPDEST POP PUSH1 0x1 ADD SLOAD PUSH1 0x1 PUSH1 0x1 PUSH1 0xA0 SHL SUB AND CALLER EQ PUSH2 0xE0B JUMPI PUSH2 0x279C JUMP JUMPDEST PUSH2 0xDCB JUMP JUMPDEST PUSH2 0xE17 PUSH2 0x30B DUP3 PUSH2 0x1A0A JUMP JUMPDEST PUSH2 0xE21 DUP3 DUP7 PUSH2 0x2C2B JUMP JUMPDEST MSTORE PUSH2 0x8A0 DUP2 DUP6 PUSH2 0x2C2B JUMP JUMPDEST POP CALLVALUE PUSH2 0x1F1 JUMPI DUP1 PUSH1 0x3 NOT CALLDATASIZE ADD SLT PUSH2 0x1F1 JUMPI PUSH1 0x5 SLOAD PUSH1 0x40 MLOAD PUSH1 0x1 PUSH1 0x1 PUSH1 0xA0 SHL SUB SWAP1 SWAP2 AND DUP2 MSTORE PUSH1 0x20 SWAP1 RETURN JUMPDEST POP CALLVALUE PUSH2 0x1F1 JUMPI PUSH1 0xE0 CALLDATASIZE PUSH1 0x3 NOT ADD SLT PUSH2 0x1F1 JUMPI PUSH1 0x1 PUSH1 0x1 PUSH1 0x40 SHL SUB PUSH1 0x4 CALLDATALOAD DUP2 DUP2 GT PUSH2 0x4FE JUMPI PUSH2 0xE87 SWAP1 CALLDATASIZE SWAP1 PUSH1 0x4 ADD PUSH2 0x16D0 JUMP JUMPDEST PUSH1 0x44 SWAP1 DUP2 CALLDATALOAD DUP4 DUP2 GT PUSH2 0xA6E JUMPI PUSH2 0xEA1 SWAP1 CALLDATASIZE SWAP1 PUSH1 0x4 ADD PUSH2 0x16D0 JUMP JUMPDEST SWAP2 PUSH1 0x64 SWAP4 DUP5 CALLDATALOAD DUP2 DUP2 GT PUSH2 0x1120 JUMPI PUSH2 0xEBC SWAP1 CALLDATASIZE SWAP1 PUSH1 0x4 ADD PUSH2 0x16D0 JUMP JUMPDEST PUSH1 0x84 SWAP1 DUP2 CALLDATALOAD DUP4 DUP2 GT PUSH2 0xDA4 JUMPI PUSH2 0xED6 SWAP1 CALLDATASIZE SWAP1 PUSH1 0x4 ADD PUSH2 0x16D0 JUMP JUMPDEST SWAP2 PUSH1 0xA4 CALLDATALOAD DUP5 DUP2 GT PUSH2 0x111C JUMPI PUSH2 0xEEF SWAP1 CALLDATASIZE SWAP1 PUSH1 0x4 ADD PUSH2 0x16D0 JUMP JUMPDEST SWAP4 PUSH1 0xC4 CALLDATALOAD SWAP1 DUP2 GT PUSH2 0x111C JUMPI PUSH2 0xF08 SWAP1 CALLDATASIZE SWAP1 PUSH1 0x4 ADD PUSH2 0x16D0 JUMP JUMPDEST SWAP5 DUP10 JUMPDEST PUSH1 0x6 SLOAD DUP2 LT ISZERO PUSH2 0x110F JUMPI PUSH2 0xF27 DUP9 PUSH2 0x2E4 PUSH1 0x9 PUSH2 0x2DD DUP6 PUSH2 0x1A0A JUMP JUMPDEST PUSH2 0xF39 JUMPI PUSH2 0xF34 SWAP1 PUSH2 0x279C JUMP JUMPDEST PUSH2 0xF0B JUMP JUMPDEST SWAP6 SWAP7 SWAP8 SWAP9 PUSH2 0xF46 DUP8 PUSH2 0x1A0A JUMP JUMPDEST POP PUSH1 0x1 ADD SLOAD PUSH1 0x1 PUSH1 0x1 PUSH1 0xA0 SHL SUB AND CALLER SUB PUSH2 0x10C0 JUMPI POP POP POP PUSH2 0xF66 DUP5 PUSH2 0x1A0A JUMP JUMPDEST POP PUSH1 0x1 ADD SLOAD PUSH1 0x1 PUSH1 0x1 PUSH1 0xA0 SHL SUB AND SWAP5 PUSH2 0xF7E DUP6 PUSH2 0x1A0A JUMP JUMPDEST POP PUSH1 0x1 ADD SLOAD SWAP3 PUSH2 0xF8D DUP7 PUSH2 0x1A0A JUMP JUMPDEST POP SWAP5 PUSH2 0xF98 DUP8 PUSH2 0x1A0A JUMP JUMPDEST POP PUSH2 0xFA2 DUP9 PUSH2 0x1A0A JUMP JUMPDEST POP SWAP4 PUSH2 0xFAD DUP10 PUSH2 0x1A0A JUMP JUMPDEST POP PUSH1 0xA ADD SLOAD SWAP6 PUSH2 0xFBC DUP11 PUSH2 0x1A0A JUMP JUMPDEST POP SWAP8 PUSH2 0xFC7 DUP12 PUSH2 0x1A0A JUMP JUMPDEST POP SWAP10 PUSH1 0x40 MLOAD SWAP13 PUSH2 0xFD6 DUP15 PUSH2 0x1627 JUMP JUMPDEST PUSH1 0x24 CALLDATALOAD DUP15 MSTORE PUSH1 0x20 DUP15 ADD MSTORE PUSH1 0xFF PUSH1 0xA0 SWAP3 DUP4 SHR AND ISZERO ISZERO PUSH1 0x40 DUP15 ADD MSTORE PUSH2 0xFFB SWAP1 PUSH1 0x2 ADD PUSH2 0x27AB JUMP JUMPDEST PUSH1 0x60 DUP14 ADD MSTORE DUP14 PUSH1 0x80 DUP14 ADD MSTORE DUP12 ADD MSTORE PUSH1 0xC0 DUP11 ADD MSTORE PUSH1 0x6 ADD PUSH2 0x101A SWAP1 PUSH2 0x27AB JUMP JUMPDEST PUSH1 0xE0 DUP10 ADD MSTORE PUSH2 0x100 DUP9 ADD MSTORE PUSH2 0x120 DUP8 ADD MSTORE PUSH1 0x9 ADD PUSH2 0x1037 SWAP1 PUSH2 0x27AB JUMP JUMPDEST PUSH2 0x140 DUP7 ADD MSTORE PUSH2 0x160 DUP6 ADD MSTORE PUSH1 0xB ADD PUSH2 0x104F SWAP1 PUSH2 0x28BB JUMP JUMPDEST PUSH2 0x180 DUP5 ADD MSTORE PUSH1 0xC ADD PUSH2 0x1061 SWAP1 PUSH2 0x295A JUMP JUMPDEST PUSH2 0x1A0 DUP4 ADD MSTORE PUSH2 0x1070 SWAP1 PUSH2 0x1A0A JUMP JUMPDEST PUSH2 0x107A SWAP3 SWAP2 PUSH2 0x1D26 JUMP JUMPDEST PUSH2 0x1083 SWAP1 PUSH2 0x277C JUMP JUMPDEST SWAP1 PUSH2 0x108D SWAP1 PUSH2 0x277C JUMP JUMPDEST SWAP1 PUSH1 0x40 MLOAD PUSH1 0x24 CALLDATALOAD DUP2 MSTORE CALLER SWAP1 PUSH1 0x20 PUSH32 0x384C5F98880FAD6ED933597FE4BECD24246DB16D5A262945362C7ACE0A0E47B5 SWAP2 LOG4 DUP1 RETURN JUMPDEST PUSH6 0x6F6475637421 PUSH1 0xD0 SHL SWAP1 PUSH32 0x43616E206E6F74206564697420616E6F7468657220706572736F6E2773207072 PUSH1 0x40 MLOAD SWAP4 PUSH3 0x461BCD PUSH1 0xE5 SHL DUP6 MSTORE PUSH1 0x20 PUSH1 0x4 DUP7 ADD MSTORE PUSH1 0x26 PUSH1 0x24 DUP7 ADD MSTORE DUP5 ADD MSTORE DUP3 ADD MSTORE REVERT JUMPDEST POP POP POP POP POP POP POP POP POP POP DUP1 RETURN JUMPDEST DUP10 DUP1 REVERT JUMPDEST DUP7 DUP1 REVERT JUMPDEST POP CALLVALUE PUSH2 0x1F1 JUMPI PUSH1 0x20 CALLDATASIZE PUSH1 0x3 NOT ADD SLT PUSH2 0x1F1 JUMPI PUSH1 0x4 CALLDATALOAD SWAP1 PUSH1 0x1 PUSH1 0x1 PUSH1 0x40 SHL SUB DUP3 GT PUSH2 0x1F1 JUMPI PUSH1 0x20 PUSH2 0x115F PUSH2 0x115A CALLDATASIZE PUSH1 0x4 DUP7 ADD PUSH2 0x16D0 JUMP JUMPDEST PUSH2 0x2D6B JUMP JUMPDEST PUSH1 0x40 MLOAD SWAP1 ISZERO ISZERO DUP2 MSTORE RETURN JUMPDEST POP CALLVALUE PUSH2 0x1F1 JUMPI PUSH2 0x140 DUP1 PUSH1 0x3 NOT CALLDATASIZE ADD SLT PUSH2 0x273 JUMPI PUSH1 0x4 CALLDATALOAD PUSH1 0x1 PUSH1 0x1 PUSH1 0x40 SHL SUB PUSH1 0x24 CALLDATALOAD DUP2 DUP2 GT PUSH2 0xA6E JUMPI PUSH2 0x11A0 SWAP1 CALLDATASIZE SWAP1 PUSH1 0x4 ADD PUSH2 0x16D0 JUMP JUMPDEST PUSH1 0x44 CALLDATALOAD DUP3 DUP2 GT PUSH2 0xDA8 JUMPI PUSH2 0x11B8 SWAP1 CALLDATASIZE SWAP1 PUSH1 0x4 ADD PUSH2 0x16D0 JUMP JUMPDEST SWAP4 PUSH1 0x64 CALLDATALOAD DUP4 DUP2 GT PUSH2 0x1120 JUMPI PUSH2 0x11D1 SWAP1 CALLDATASIZE SWAP1 PUSH1 0x4 ADD PUSH2 0x16D0 JUMP JUMPDEST SWAP1 PUSH1 0x84 CALLDATALOAD DUP5 DUP2 GT PUSH2 0x134C JUMPI PUSH2 0x11EA SWAP1 CALLDATASIZE SWAP1 PUSH1 0x4 ADD PUSH2 0x16D0 JUMP JUMPDEST SWAP4 PUSH1 0xA4 CALLDATALOAD DUP2 DUP2 GT PUSH2 0xDA4 JUMPI PUSH2 0x1203 SWAP1 CALLDATASIZE SWAP1 PUSH1 0x4 ADD PUSH2 0x16D0 JUMP JUMPDEST PUSH1 0xC4 CALLDATALOAD DUP3 DUP2 GT PUSH2 0x111C JUMPI PUSH2 0x121B SWAP1 CALLDATASIZE SWAP1 PUSH1 0x4 ADD PUSH2 0x16D0 JUMP JUMPDEST SWAP1 PUSH1 0xE4 CALLDATALOAD DUP4 DUP2 GT PUSH2 0x1348 JUMPI PUSH2 0x1234 SWAP1 CALLDATASIZE SWAP1 PUSH1 0x4 ADD PUSH2 0x16D0 JUMP JUMPDEST SWAP3 PUSH2 0x104 CALLDATALOAD SWAP1 DUP2 GT PUSH2 0x1348 JUMPI PUSH2 0x124E SWAP1 CALLDATASIZE SWAP1 PUSH1 0x4 ADD PUSH2 0x16D0 JUMP JUMPDEST SWAP7 DUP9 ISZERO PUSH2 0x1336 JUMPI DUP8 SWAP6 PUSH1 0x40 MLOAD SWAP8 PUSH2 0x1264 DUP10 PUSH2 0x1627 JUMP JUMPDEST DUP11 DUP10 MSTORE CALLER PUSH1 0x20 DUP11 ADD MSTORE DUP13 PUSH1 0x40 DUP11 ADD MSTORE PUSH1 0x60 DUP10 ADD MSTORE DUP11 PUSH1 0x80 DUP10 ADD MSTORE PUSH1 0xA0 DUP9 ADD MSTORE PUSH1 0xC0 DUP8 ADD MSTORE PUSH1 0xE0 DUP7 ADD MSTORE PUSH2 0x100 DUP6 ADD MSTORE PUSH2 0x120 DUP5 ADD MSTORE DUP3 ADD MSTORE PUSH2 0x124 CALLDATALOAD PUSH2 0x160 DUP3 ADD MSTORE PUSH1 0x60 PUSH2 0x180 DUP3 ADD MSTORE PUSH1 0x60 PUSH2 0x1A0 DUP3 ADD MSTORE PUSH1 0x6 SLOAD PUSH1 0x1 PUSH1 0x40 SHL DUP2 LT ISZERO PUSH2 0x1322 JUMPI PUSH2 0x12E3 SWAP3 SWAP2 PUSH2 0x12DD DUP3 PUSH1 0x1 PUSH2 0x9FD SWAP5 ADD PUSH1 0x6 SSTORE PUSH2 0x1A0A JUMP JUMPDEST SWAP1 PUSH2 0x1D26 JUMP JUMPDEST SWAP2 PUSH32 0x9EC512F6157DAF19471FDB4ABC754CD622CE54571FDA42C4C416FF378B041583 PUSH1 0x40 MLOAD PUSH1 0x20 DUP2 MSTORE DUP1 PUSH2 0x131C CALLER SWAP5 PUSH1 0x20 DUP4 ADD SWAP1 PUSH2 0x173F JUMP JUMPDEST SUB SWAP1 LOG4 DUP1 RETURN JUMPDEST PUSH4 0x4E487B71 PUSH1 0xE0 SHL DUP7 MSTORE PUSH1 0x41 PUSH1 0x4 MSTORE PUSH1 0x24 DUP7 REVERT JUMPDEST PUSH1 0x40 MLOAD PUSH4 0x5EBDE5F5 PUSH1 0xE1 SHL DUP2 MSTORE PUSH1 0x4 SWAP1 REVERT JUMPDEST DUP11 DUP1 REVERT JUMPDEST DUP8 DUP1 REVERT JUMPDEST POP CALLVALUE PUSH2 0x1F1 JUMPI PUSH1 0x40 CALLDATASIZE PUSH1 0x3 NOT ADD SLT PUSH2 0x1F1 JUMPI PUSH1 0x1 PUSH1 0x1 PUSH1 0x40 SHL SUB PUSH1 0x4 CALLDATALOAD DUP2 DUP2 GT PUSH2 0x4FE JUMPI PUSH2 0x1382 SWAP1 CALLDATASIZE SWAP1 PUSH1 0x4 ADD PUSH2 0x16D0 JUMP JUMPDEST SWAP1 PUSH1 0x24 CALLDATALOAD DUP2 DUP2 GT PUSH2 0x15F2 JUMPI PUSH2 0x139B SWAP1 CALLDATASIZE SWAP1 PUSH1 0x4 ADD PUSH2 0x16D0 JUMP JUMPDEST SWAP2 PUSH1 0x40 MLOAD PUSH2 0x13A8 DUP2 PUSH2 0x15F6 JUMP JUMPDEST DUP2 DUP2 MSTORE PUSH1 0x20 SWAP3 DUP4 DUP3 ADD SWAP2 DUP6 DUP4 MSTORE CALLER DUP8 MSTORE PUSH1 0x2 DUP6 MSTORE PUSH1 0x40 DUP8 KECCAK256 SWAP1 MLOAD DUP1 MLOAD DUP4 DUP2 GT PUSH2 0x1544 JUMPI DUP1 PUSH2 0x13D6 DUP5 SLOAD PUSH2 0x1A5B JUMP JUMPDEST SWAP3 PUSH1 0x1F SWAP4 DUP5 DUP2 GT PUSH2 0x15C6 JUMPI JUMPDEST POP DUP9 SWAP1 DUP5 DUP4 GT PUSH1 0x1 EQ PUSH2 0x1563 JUMPI DUP12 SWAP3 PUSH2 0x1558 JUMPI JUMPDEST POP POP DUP2 PUSH1 0x1 SHL SWAP2 PUSH1 0x0 NOT SWAP1 PUSH1 0x3 SHL SHR NOT AND OR DUP3 SSTORE JUMPDEST PUSH1 0x1 DUP1 SWAP3 ADD SWAP4 MLOAD SWAP6 DUP7 MLOAD SWAP4 DUP5 GT PUSH2 0x1544 JUMPI PUSH2 0x1426 DUP6 SLOAD PUSH2 0x1A5B JUMP JUMPDEST DUP3 DUP2 GT PUSH2 0x150E JUMPI JUMPDEST POP DUP1 SWAP2 DUP5 GT PUSH1 0x1 EQ PUSH2 0x14A0 JUMPI POP SWAP2 DUP1 DUP1 SWAP3 PUSH2 0x1466 SWAP7 SWAP6 SWAP5 PUSH2 0x146C SWAP9 DUP12 SWAP5 PUSH2 0x1495 JUMPI JUMPDEST POP POP SHL SWAP2 PUSH1 0x0 NOT SWAP1 PUSH1 0x3 SHL SHR NOT AND OR SWAP1 SSTORE PUSH2 0x277C JUMP JUMPDEST SWAP2 PUSH2 0x277C JUMP JUMPDEST SWAP1 CALLER PUSH32 0x8FB63D21CD1646C22E90408D0771D27886ED526A60064418E44B4E4A35BF6A07 DUP5 DUP1 LOG4 DUP1 RETURN JUMPDEST ADD MLOAD SWAP3 POP CODESIZE DUP1 PUSH2 0x1450 JUMP JUMPDEST SWAP2 SWAP4 SWAP5 SWAP6 PUSH1 0x1F NOT DUP5 AND DUP7 DUP11 MSTORE DUP4 DUP11 KECCAK256 SWAP4 DUP11 SWAP1 JUMPDEST DUP3 DUP3 LT PUSH2 0x14F7 JUMPI POP POP SWAP2 PUSH2 0x146C SWAP8 SWAP6 SWAP4 SWAP2 DUP6 PUSH2 0x1466 SWAP9 SWAP7 SWAP5 LT PUSH2 0x14DE JUMPI JUMPDEST POP POP POP DUP2 SHL ADD SWAP1 SSTORE PUSH2 0x277C JUMP JUMPDEST ADD MLOAD PUSH1 0x0 NOT PUSH1 0xF8 DUP5 PUSH1 0x3 SHL AND SHR NOT AND SWAP1 SSTORE CODESIZE DUP1 DUP1 PUSH2 0x14D1 JUMP JUMPDEST DUP1 DUP9 DUP7 SWAP8 DUP3 SWAP5 SWAP8 DUP8 ADD MLOAD DUP2 SSTORE ADD SWAP7 ADD SWAP5 ADD SWAP1 PUSH2 0x14B3 JUMP JUMPDEST PUSH2 0x1535 SWAP1 DUP7 DUP12 MSTORE DUP3 DUP12 KECCAK256 DUP5 DUP1 DUP9 ADD PUSH1 0x5 SHR DUP3 ADD SWAP3 DUP6 DUP10 LT PUSH2 0x153B JUMPI JUMPDEST ADD PUSH1 0x5 SHR ADD SWAP1 PUSH2 0x1A95 JUMP JUMPDEST CODESIZE PUSH2 0x142E JUMP JUMPDEST SWAP3 POP DUP2 SWAP3 PUSH2 0x152A JUMP JUMPDEST PUSH4 0x4E487B71 PUSH1 0xE0 SHL DUP10 MSTORE PUSH1 0x41 PUSH1 0x4 MSTORE PUSH1 0x24 DUP10 REVERT JUMPDEST ADD MLOAD SWAP1 POP CODESIZE DUP1 PUSH2 0x13F6 JUMP JUMPDEST DUP6 DUP13 MSTORE DUP10 DUP13 KECCAK256 SWAP3 POP PUSH1 0x1F NOT DUP5 AND DUP13 JUMPDEST DUP12 DUP3 DUP3 LT PUSH2 0x15B0 JUMPI POP POP SWAP1 DUP5 PUSH1 0x1 SWAP6 SWAP5 SWAP4 SWAP3 LT PUSH2 0x1597 JUMPI JUMPDEST POP POP POP DUP2 SHL ADD DUP3 SSTORE PUSH2 0x140B JUMP JUMPDEST ADD MLOAD PUSH1 0x0 NOT PUSH1 0xF8 DUP5 PUSH1 0x3 SHL AND SHR NOT AND SWAP1 SSTORE CODESIZE DUP1 DUP1 PUSH2 0x158A JUMP JUMPDEST PUSH1 0x1 DUP6 SWAP7 DUP3 SWAP4 SWAP7 DUP7 ADD MLOAD DUP2 SSTORE ADD SWAP6 ADD SWAP4 ADD PUSH2 0x1572 JUMP JUMPDEST PUSH2 0x15EC SWAP1 DUP7 DUP14 MSTORE DUP11 DUP14 KECCAK256 DUP7 DUP1 DUP7 ADD PUSH1 0x5 SHR DUP3 ADD SWAP3 DUP14 DUP8 LT PUSH2 0x153B JUMPI ADD PUSH1 0x5 SHR ADD SWAP1 PUSH2 0x1A95 JUMP JUMPDEST CODESIZE PUSH2 0x13E2 JUMP JUMPDEST DUP4 DUP1 REVERT JUMPDEST PUSH1 0x40 DUP2 ADD SWAP1 DUP2 LT PUSH1 0x1 PUSH1 0x1 PUSH1 0x40 SHL SUB DUP3 GT OR PUSH2 0x1611 JUMPI PUSH1 0x40 MSTORE JUMP JUMPDEST PUSH4 0x4E487B71 PUSH1 0xE0 SHL PUSH1 0x0 MSTORE PUSH1 0x41 PUSH1 0x4 MSTORE PUSH1 0x24 PUSH1 0x0 REVERT JUMPDEST PUSH2 0x1C0 DUP2 ADD SWAP1 DUP2 LT PUSH1 0x1 PUSH1 0x1 PUSH1 0x40 SHL SUB DUP3 GT OR PUSH2 0x1611 JUMPI PUSH1 0x40 MSTORE JUMP JUMPDEST PUSH1 0xA0 DUP2 ADD SWAP1 DUP2 LT PUSH1 0x1 PUSH1 0x1 PUSH1 0x40 SHL SUB DUP3 GT OR PUSH2 0x1611 JUMPI PUSH1 0x40 MSTORE JUMP JUMPDEST PUSH1 0x60 DUP2 ADD SWAP1 DUP2 LT PUSH1 0x1 PUSH1 0x1 PUSH1 0x40 SHL SUB DUP3 GT OR PUSH2 0x1611 JUMPI PUSH1 0x40 MSTORE JUMP JUMPDEST PUSH1 0x20 DUP2 ADD SWAP1 DUP2 LT PUSH1 0x1 PUSH1 0x1 PUSH1 0x40 SHL SUB DUP3 GT OR PUSH2 0x1611 JUMPI PUSH1 0x40 MSTORE JUMP JUMPDEST SWAP1 PUSH1 0x1F DUP1 NOT SWAP2 ADD AND DUP2 ADD SWAP1 DUP2 LT PUSH1 0x1 PUSH1 0x1 PUSH1 0x40 SHL SUB DUP3 GT OR PUSH2 0x1611 JUMPI PUSH1 0x40 MSTORE JUMP JUMPDEST PUSH1 0x1 PUSH1 0x1 PUSH1 0x40 SHL SUB DUP2 GT PUSH2 0x1611 JUMPI PUSH1 0x1F ADD PUSH1 0x1F NOT AND PUSH1 0x20 ADD SWAP1 JUMP JUMPDEST DUP2 PUSH1 0x1F DUP3 ADD SLT ISZERO PUSH2 0x1717 JUMPI DUP1 CALLDATALOAD SWAP1 PUSH2 0x16E7 DUP3 PUSH2 0x16B5 JUMP JUMPDEST SWAP3 PUSH2 0x16F5 PUSH1 0x40 MLOAD SWAP5 DUP6 PUSH2 0x1694 JUMP JUMPDEST DUP3 DUP5 MSTORE PUSH1 0x20 DUP4 DUP4 ADD ADD GT PUSH2 0x1717 JUMPI DUP2 PUSH1 0x0 SWAP3 PUSH1 0x20 DUP1 SWAP4 ADD DUP4 DUP7 ADD CALLDATACOPY DUP4 ADD ADD MSTORE SWAP1 JUMP JUMPDEST PUSH1 0x0 DUP1 REVERT JUMPDEST PUSH1 0x0 JUMPDEST DUP4 DUP2 LT PUSH2 0x172F JUMPI POP POP PUSH1 0x0 SWAP2 ADD MSTORE JUMP JUMPDEST DUP2 DUP2 ADD MLOAD DUP4 DUP3 ADD MSTORE PUSH1 0x20 ADD PUSH2 0x171F JUMP JUMPDEST SWAP1 PUSH1 0x20 SWAP2 PUSH2 0x1758 DUP2 MLOAD DUP1 SWAP3 DUP2 DUP6 MSTORE DUP6 DUP1 DUP7 ADD SWAP2 ADD PUSH2 0x171C JUMP JUMPDEST PUSH1 0x1F ADD PUSH1 0x1F NOT AND ADD ADD SWAP1 JUMP JUMPDEST SWAP1 DUP2 MLOAD DUP2 MSTORE PUSH1 0x1 DUP1 PUSH1 0xA0 SHL SUB SWAP1 PUSH1 0x20 DUP3 DUP2 DUP6 ADD MLOAD AND DUP2 DUP4 ADD MSTORE PUSH1 0x40 SWAP3 DUP4 DUP6 ADD MLOAD ISZERO ISZERO DUP5 DUP5 ADD MSTORE PUSH1 0x60 PUSH2 0x17A3 DUP2 DUP8 ADD MLOAD PUSH2 0x1C0 DUP1 DUP5 DUP9 ADD MSTORE DUP7 ADD SWAP1 PUSH2 0x173F JUMP JUMPDEST SWAP4 PUSH2 0x17BA PUSH1 0x80 SWAP6 DUP7 DUP10 ADD MLOAD DUP4 DUP3 SUB DUP9 DUP6 ADD MSTORE PUSH2 0x173F JUMP JUMPDEST PUSH2 0x1840 PUSH2 0x182C PUSH2 0x1818 PUSH2 0x1804 PUSH2 0x17F2 DUP13 PUSH1 0xC0 PUSH2 0x17E2 PUSH1 0xA0 SWAP9 DUP10 DUP5 ADD MLOAD DUP12 DUP3 SUB DUP12 DUP14 ADD MSTORE PUSH2 0x173F JUMP JUMPDEST SWAP2 ADD MLOAD DUP9 DUP3 SUB PUSH1 0xC0 DUP11 ADD MSTORE PUSH2 0x173F JUMP JUMPDEST PUSH1 0xE0 DUP14 ADD MLOAD DUP8 DUP3 SUB PUSH1 0xE0 DUP10 ADD MSTORE PUSH2 0x173F JUMP JUMPDEST PUSH2 0x100 DUP1 DUP14 ADD MLOAD SWAP1 DUP8 DUP4 SUB SWAP1 DUP9 ADD MSTORE PUSH2 0x173F JUMP JUMPDEST PUSH2 0x120 DUP1 DUP13 ADD MLOAD SWAP1 DUP7 DUP4 SUB SWAP1 DUP8 ADD MSTORE PUSH2 0x173F JUMP JUMPDEST PUSH2 0x140 DUP1 DUP12 ADD MLOAD SWAP1 DUP6 DUP4 SUB SWAP1 DUP7 ADD MSTORE PUSH2 0x173F JUMP JUMPDEST SWAP6 PUSH2 0x160 DUP1 DUP11 ADD MLOAD SWAP1 DUP5 ADD MSTORE PUSH2 0x180 SWAP7 DUP8 DUP11 ADD MLOAD SWAP8 DUP5 DUP3 SUB SWAP1 DUP6 ADD MSTORE DUP8 MLOAD SWAP2 DUP3 DUP3 MSTORE DUP8 DUP3 ADD SWAP1 DUP9 DUP1 DUP6 PUSH1 0x5 SHL DUP6 ADD ADD SWAP11 ADD SWAP5 PUSH1 0x0 SWAP4 JUMPDEST DUP6 DUP6 LT PUSH2 0x18DD JUMPI POP POP POP POP POP POP POP PUSH2 0x1A0 DUP1 SWAP8 ADD MLOAD SWAP7 DUP2 DUP7 SUB SWAP2 ADD MSTORE DUP3 DUP1 DUP8 MLOAD SWAP6 DUP7 DUP2 MSTORE ADD SWAP7 ADD SWAP5 PUSH1 0x0 SWAP3 JUMPDEST DUP6 DUP5 LT PUSH2 0x18B3 JUMPI POP POP POP POP POP POP POP SWAP1 JUMP JUMPDEST DUP7 MLOAD DUP1 MLOAD DUP3 AND DUP10 MSTORE DUP1 DUP7 ADD MLOAD DUP10 DUP8 ADD MSTORE DUP3 ADD MLOAD DUP9 DUP4 ADD MSTORE SWAP7 DUP3 ADD SWAP7 SWAP6 DUP5 ADD SWAP6 PUSH1 0x1 SWAP1 SWAP4 ADD SWAP3 PUSH2 0x18A2 JUMP JUMPDEST SWAP1 SWAP2 SWAP3 SWAP4 SWAP5 SWAP6 SWAP12 SWAP8 SWAP9 SWAP10 SWAP11 DUP12 DUP1 PUSH2 0x193F DUP16 PUSH1 0x1 SWAP5 DUP16 DUP16 SWAP3 SWAP1 DUP16 PUSH2 0x1927 SWAP1 DUP13 SWAP4 DUP15 PUSH1 0x1F NOT DUP14 DUP9 SUB ADD SWAP1 MSTORE MLOAD SWAP3 DUP4 MLOAD AND DUP6 MSTORE DUP8 DUP4 ADD MLOAD DUP9 DUP7 ADD MSTORE DUP12 DUP2 DUP5 ADD MLOAD SWAP2 DUP7 ADD MSTORE DUP12 DUP6 ADD SWAP1 PUSH2 0x173F JUMP JUMPDEST SWAP4 DUP1 DUP3 ADD MLOAD SWAP1 DUP5 ADD MSTORE ADD MLOAD SWAP1 DUP10 DUP2 DUP5 SUB SWAP2 ADD MSTORE PUSH2 0x173F JUMP JUMPDEST SWAP15 ADD SWAP6 ADD SWAP6 ADD SWAP4 SWAP6 SWAP5 SWAP3 SWAP2 SWAP1 SWAP12 SWAP11 SWAP10 SWAP9 SWAP8 SWAP12 PUSH2 0x1876 JUMP JUMPDEST PUSH1 0x20 DUP1 DUP3 ADD SWAP1 DUP1 DUP4 MSTORE DUP4 MLOAD DUP1 SWAP3 MSTORE PUSH1 0x40 DUP4 ADD SWAP3 DUP2 PUSH1 0x40 DUP5 PUSH1 0x5 SHL DUP4 ADD ADD SWAP6 ADD SWAP4 PUSH1 0x0 SWAP2 JUMPDEST DUP5 DUP4 LT PUSH2 0x198A JUMPI POP POP POP POP POP POP SWAP1 JUMP JUMPDEST SWAP1 SWAP2 SWAP3 SWAP4 SWAP5 SWAP6 DUP5 DUP1 PUSH2 0x19A8 PUSH1 0x1 SWAP4 PUSH1 0x3F NOT DUP7 DUP3 SUB ADD DUP8 MSTORE DUP11 MLOAD PUSH2 0x1764 JUMP JUMPDEST SWAP9 ADD SWAP4 ADD SWAP4 ADD SWAP2 SWAP5 SWAP4 SWAP3 SWAP1 PUSH2 0x197A JUMP JUMPDEST PUSH1 0x4 CALLDATALOAD SWAP1 PUSH1 0x1 PUSH1 0x1 PUSH1 0xA0 SHL SUB DUP3 AND DUP3 SUB PUSH2 0x1717 JUMPI JUMP JUMPDEST PUSH1 0x24 CALLDATALOAD SWAP1 PUSH1 0x1 PUSH1 0x1 PUSH1 0xA0 SHL SUB DUP3 AND DUP3 SUB PUSH2 0x1717 JUMPI JUMP JUMPDEST PUSH1 0x20 SWAP1 PUSH2 0x19FE SWAP3 DUP3 PUSH1 0x40 MLOAD SWAP5 DUP4 DUP7 DUP1 SWAP6 MLOAD SWAP4 DUP5 SWAP3 ADD PUSH2 0x171C JUMP JUMPDEST DUP3 ADD SWAP1 DUP2 MSTORE SUB ADD SWAP1 KECCAK256 SWAP1 JUMP JUMPDEST PUSH1 0x6 SLOAD DUP2 LT ISZERO PUSH2 0x1A45 JUMPI PUSH1 0xD SWAP1 PUSH1 0x6 PUSH1 0x0 MSTORE MUL PUSH32 0xF652222313E28459528D920B65115C16C04F3EFC82AAEDC97BE59F3F377C0D3F ADD SWAP1 PUSH1 0x0 SWAP1 JUMP JUMPDEST PUSH4 0x4E487B71 PUSH1 0xE0 SHL PUSH1 0x0 MSTORE PUSH1 0x32 PUSH1 0x4 MSTORE PUSH1 0x24 PUSH1 0x0 REVERT JUMPDEST SWAP1 PUSH1 0x1 DUP3 DUP2 SHR SWAP3 AND DUP1 ISZERO PUSH2 0x1A8B JUMPI JUMPDEST PUSH1 0x20 DUP4 LT EQ PUSH2 0x1A75 JUMPI JUMP JUMPDEST PUSH4 0x4E487B71 PUSH1 0xE0 SHL PUSH1 0x0 MSTORE PUSH1 0x22 PUSH1 0x4 MSTORE PUSH1 0x24 PUSH1 0x0 REVERT JUMPDEST SWAP2 PUSH1 0x7F AND SWAP2 PUSH2 0x1A6A JUMP JUMPDEST DUP2 DUP2 LT PUSH2 0x1AA0 JUMPI POP POP JUMP JUMPDEST PUSH1 0x0 DUP2 SSTORE PUSH1 0x1 ADD PUSH2 0x1A95 JUMP JUMPDEST PUSH2 0x1AB6 DUP2 SLOAD PUSH2 0x1A5B JUMP JUMPDEST SWAP1 DUP2 PUSH2 0x1AC0 JUMPI POP POP JUMP JUMPDEST DUP2 PUSH1 0x1F PUSH1 0x0 SWAP4 GT PUSH1 0x1 EQ PUSH2 0x1AD3 JUMPI POP SSTORE JUMPDEST JUMP JUMPDEST SWAP1 DUP1 DUP4 SWAP2 DUP3 MSTORE PUSH2 0x1AF2 PUSH1 0x1F PUSH1 0x20 DUP5 KECCAK256 SWAP5 ADD PUSH1 0x5 SHR DUP5 ADD PUSH1 0x1 DUP6 ADD PUSH2 0x1A95 JUMP JUMPDEST SSTORE SSTORE JUMP JUMPDEST PUSH1 0x1 DUP1 PUSH1 0xA0 SHL SUB DUP3 MLOAD AND PUSH12 0xFFFFFFFFFFFFFFFFFFFFFFFF PUSH1 0xA0 SHL DUP3 SLOAD AND OR DUP2 SSTORE PUSH1 0x20 DUP1 DUP4 ADD MLOAD SWAP2 PUSH1 0x1 SWAP3 DUP4 DUP3 ADD SSTORE PUSH1 0x2 DUP2 ADD SWAP2 PUSH1 0x40 DUP6 ADD MLOAD SWAP2 DUP3 MLOAD SWAP4 PUSH1 0x1 PUSH1 0x1 PUSH1 0x40 SHL SUB SWAP5 DUP6 DUP2 GT PUSH2 0x1611 JUMPI PUSH2 0x1B4C DUP3 SLOAD PUSH2 0x1A5B JUMP JUMPDEST SWAP5 PUSH1 0x1F SWAP6 DUP7 DUP2 GT PUSH2 0x1CF8 JUMPI JUMPDEST POP DUP5 SWAP1 DUP7 DUP4 GT PUSH1 0x1 EQ PUSH2 0x1C8A JUMPI SWAP2 DUP1 PUSH1 0x4 SWAP5 SWAP3 PUSH1 0x80 SWAP7 SWAP5 PUSH1 0x0 SWAP3 PUSH2 0x1C7F JUMPI JUMPDEST POP POP PUSH1 0x0 NOT PUSH1 0x3 DUP4 SWAP1 SHL SHR NOT AND SWAP1 DUP10 SHL OR SWAP1 SSTORE JUMPDEST PUSH1 0x60 DUP9 ADD MLOAD PUSH1 0x3 DUP3 ADD SSTORE ADD SWAP6 ADD MLOAD SWAP1 DUP2 MLOAD SWAP4 DUP5 GT PUSH2 0x1611 JUMPI PUSH2 0x1BAD DUP7 SLOAD PUSH2 0x1A5B JUMP JUMPDEST DUP4 DUP2 GT PUSH2 0x1C51 JUMPI JUMPDEST POP DUP1 SWAP3 DUP5 GT PUSH1 0x1 EQ PUSH2 0x1BEE JUMPI POP SWAP3 DUP3 SWAP4 SWAP2 DUP4 SWAP3 PUSH1 0x0 SWAP5 PUSH2 0x1BE3 JUMPI JUMPDEST POP POP SHL SWAP2 PUSH1 0x0 NOT SWAP1 PUSH1 0x3 SHL SHR NOT AND OR SWAP1 SSTORE JUMP JUMPDEST ADD MLOAD SWAP3 POP CODESIZE DUP1 PUSH2 0x1BD0 JUMP JUMPDEST SWAP2 SWAP1 DUP4 PUSH1 0x1F NOT DUP2 AND DUP8 PUSH1 0x0 MSTORE DUP5 PUSH1 0x0 KECCAK256 SWAP5 PUSH1 0x0 SWAP1 JUMPDEST DUP9 DUP4 DUP4 LT PUSH2 0x1C37 JUMPI POP POP POP LT PUSH2 0x1C1E JUMPI JUMPDEST POP POP POP DUP2 SHL ADD SWAP1 SSTORE JUMP JUMPDEST ADD MLOAD PUSH1 0x0 NOT PUSH1 0xF8 DUP5 PUSH1 0x3 SHL AND SHR NOT AND SWAP1 SSTORE CODESIZE DUP1 DUP1 PUSH2 0x1C14 JUMP JUMPDEST DUP6 DUP8 ADD MLOAD DUP9 SSTORE SWAP1 SWAP7 ADD SWAP6 SWAP5 DUP6 ADD SWAP5 DUP8 SWAP4 POP SWAP1 DUP2 ADD SWAP1 PUSH2 0x1C03 JUMP JUMPDEST PUSH2 0x1C79 SWAP1 DUP8 PUSH1 0x0 MSTORE DUP3 PUSH1 0x0 KECCAK256 DUP6 DUP1 DUP9 ADD PUSH1 0x5 SHR DUP3 ADD SWAP3 DUP6 DUP10 LT PUSH2 0x153B JUMPI ADD PUSH1 0x5 SHR ADD SWAP1 PUSH2 0x1A95 JUMP JUMPDEST CODESIZE PUSH2 0x1BB5 JUMP JUMPDEST ADD MLOAD SWAP1 POP CODESIZE DUP1 PUSH2 0x1B77 JUMP JUMPDEST DUP9 SWAP3 SWAP2 PUSH1 0x1F NOT DUP4 AND SWAP2 DUP6 PUSH1 0x0 MSTORE DUP8 PUSH1 0x0 KECCAK256 SWAP3 PUSH1 0x0 JUMPDEST DUP10 DUP3 DUP3 LT PUSH2 0x1CE2 JUMPI POP POP SWAP2 PUSH1 0x80 SWAP8 SWAP6 SWAP4 SWAP2 DUP6 PUSH1 0x4 SWAP9 SWAP7 SWAP5 LT PUSH2 0x1CC9 JUMPI JUMPDEST POP POP POP DUP2 SHL ADD SWAP1 SSTORE PUSH2 0x1B8B JUMP JUMPDEST ADD MLOAD PUSH1 0x0 NOT PUSH1 0xF8 DUP5 PUSH1 0x3 SHL AND SHR NOT AND SWAP1 SSTORE CODESIZE DUP1 DUP1 PUSH2 0x1CBC JUMP JUMPDEST DUP4 DUP6 ADD MLOAD DUP7 SSTORE DUP14 SWAP8 SWAP1 SWAP6 ADD SWAP5 SWAP4 DUP5 ADD SWAP4 ADD PUSH2 0x1C9F JUMP JUMPDEST PUSH2 0x1D20 SWAP1 DUP5 PUSH1 0x0 MSTORE DUP7 PUSH1 0x0 KECCAK256 DUP9 DUP1 DUP7 ADD PUSH1 0x5 SHR DUP3 ADD SWAP3 DUP10 DUP8 LT PUSH2 0x153B JUMPI ADD PUSH1 0x5 SHR ADD SWAP1 PUSH2 0x1A95 JUMP JUMPDEST CODESIZE PUSH2 0x1B58 JUMP JUMPDEST SWAP2 SWAP1 PUSH2 0x2766 JUMPI DUP1 MLOAD DUP3 SSTORE PUSH1 0x20 DUP2 ADD MLOAD PUSH1 0x1 DUP4 ADD DUP1 SLOAD PUSH1 0x40 DUP5 ADD MLOAD PUSH1 0xFF PUSH1 0xA0 SHL SWAP1 ISZERO ISZERO PUSH1 0xA0 SHL AND PUSH1 0x1 PUSH1 0x1 PUSH1 0xA0 SHL SUB SWAP1 SWAP4 AND PUSH1 0x1 PUSH1 0x1 PUSH1 0xA8 SHL SUB NOT SWAP1 SWAP2 AND OR SWAP2 SWAP1 SWAP2 OR SWAP1 SSTORE PUSH1 0x2 DUP3 ADD PUSH1 0x60 DUP3 ADD MLOAD DUP1 MLOAD SWAP1 PUSH1 0x1 PUSH1 0x1 PUSH1 0x40 SHL SUB DUP3 GT PUSH2 0x1611 JUMPI DUP2 SWAP1 PUSH2 0x1D90 DUP5 SLOAD PUSH2 0x1A5B JUMP JUMPDEST PUSH1 0x1F DUP2 GT PUSH2 0x2734 JUMPI JUMPDEST POP PUSH1 0x20 SWAP1 PUSH1 0x1F DUP4 GT PUSH1 0x1 EQ PUSH2 0x26CE JUMPI PUSH1 0x0 SWAP3 PUSH2 0x26C3 JUMPI JUMPDEST POP POP DUP2 PUSH1 0x1 SHL SWAP2 PUSH1 0x0 NOT SWAP1 PUSH1 0x3 SHL SHR NOT AND OR SWAP1 SSTORE JUMPDEST PUSH1 0x3 DUP3 ADD PUSH1 0x80 DUP3 ADD MLOAD DUP1 MLOAD SWAP1 PUSH1 0x1 PUSH1 0x1 PUSH1 0x40 SHL SUB DUP3 GT PUSH2 0x1611 JUMPI DUP2 SWAP1 PUSH2 0x1DEB DUP5 SLOAD PUSH2 0x1A5B JUMP JUMPDEST PUSH1 0x1F DUP2 GT PUSH2 0x2691 JUMPI JUMPDEST POP PUSH1 0x20 SWAP1 PUSH1 0x1F DUP4 GT PUSH1 0x1 EQ PUSH2 0x262B JUMPI PUSH1 0x0 SWAP3 PUSH2 0x2620 JUMPI JUMPDEST POP POP DUP2 PUSH1 0x1 SHL SWAP2 PUSH1 0x0 NOT SWAP1 PUSH1 0x3 SHL SHR NOT AND OR SWAP1 SSTORE JUMPDEST PUSH1 0x4 DUP3 ADD PUSH1 0xA0 DUP3 ADD MLOAD DUP1 MLOAD SWAP1 PUSH1 0x1 PUSH1 0x1 PUSH1 0x40 SHL SUB DUP3 GT PUSH2 0x1611 JUMPI DUP2 SWAP1 PUSH2 0x1E46 DUP5 SLOAD PUSH2 0x1A5B JUMP JUMPDEST PUSH1 0x1F DUP2 GT PUSH2 0x25EE JUMPI JUMPDEST POP PUSH1 0x20 SWAP1 PUSH1 0x1F DUP4 GT PUSH1 0x1 EQ PUSH2 0x2588 JUMPI PUSH1 0x0 SWAP3 PUSH2 0x257D JUMPI JUMPDEST POP POP DUP2 PUSH1 0x1 SHL SWAP2 PUSH1 0x0 NOT SWAP1 PUSH1 0x3 SHL SHR NOT AND OR SWAP1 SSTORE JUMPDEST PUSH1 0x5 DUP3 ADD PUSH1 0xC0 DUP3 ADD MLOAD DUP1 MLOAD SWAP1 PUSH1 0x1 PUSH1 0x1 PUSH1 0x40 SHL SUB DUP3 GT PUSH2 0x1611 JUMPI DUP2 SWAP1 PUSH2 0x1EA1 DUP5 SLOAD PUSH2 0x1A5B JUMP JUMPDEST PUSH1 0x1F DUP2 GT PUSH2 0x254B JUMPI JUMPDEST POP PUSH1 0x20 SWAP1 PUSH1 0x1F DUP4 GT PUSH1 0x1 EQ PUSH2 0x24E5 JUMPI PUSH1 0x0 SWAP3 PUSH2 0x24DA JUMPI JUMPDEST POP POP DUP2 PUSH1 0x1 SHL SWAP2 PUSH1 0x0 NOT SWAP1 PUSH1 0x3 SHL SHR NOT AND OR SWAP1 SSTORE JUMPDEST PUSH1 0xE0 DUP2 ADD MLOAD SWAP3 DUP4 MLOAD PUSH1 0x1 PUSH1 0x1 PUSH1 0x40 SHL SUB DUP2 GT PUSH2 0x1611 JUMPI PUSH2 0x1EF9 PUSH1 0x6 DUP6 ADD SLOAD PUSH2 0x1A5B JUMP JUMPDEST PUSH1 0x1F DUP2 GT PUSH2 0x24A5 JUMPI JUMPDEST POP PUSH1 0x20 SWAP5 PUSH1 0x1F DUP3 GT PUSH1 0x1 EQ PUSH2 0x2439 JUMPI SWAP5 DUP2 SWAP3 SWAP4 SWAP5 SWAP6 PUSH1 0x0 SWAP3 PUSH2 0x242E JUMPI JUMPDEST POP POP DUP2 PUSH1 0x1 SHL SWAP2 PUSH1 0x0 NOT SWAP1 PUSH1 0x3 SHL SHR NOT AND OR PUSH1 0x6 DUP5 ADD SSTORE JUMPDEST PUSH2 0x100 DUP3 ADD MLOAD SWAP3 DUP4 MLOAD PUSH1 0x1 PUSH1 0x1 PUSH1 0x40 SHL SUB DUP2 GT PUSH2 0x1611 JUMPI PUSH2 0x1F5B PUSH1 0x7 DUP4 ADD SLOAD PUSH2 0x1A5B JUMP JUMPDEST PUSH1 0x1F DUP2 GT PUSH2 0x23F9 JUMPI JUMPDEST POP PUSH1 0x20 PUSH1 0x1F DUP3 GT PUSH1 0x1 EQ PUSH2 0x238A JUMPI DUP2 SWAP3 SWAP4 SWAP5 SWAP6 PUSH1 0x0 SWAP3 PUSH2 0x237F JUMPI JUMPDEST POP POP DUP2 PUSH1 0x1 SHL SWAP2 PUSH1 0x0 NOT SWAP1 PUSH1 0x3 SHL SHR NOT AND OR PUSH1 0x7 DUP3 ADD SSTORE JUMPDEST PUSH2 0x120 DUP4 ADD MLOAD SWAP3 DUP4 MLOAD PUSH1 0x1 PUSH1 0x1 PUSH1 0x40 SHL SUB DUP2 GT PUSH2 0x1611 JUMPI PUSH2 0x1FBB PUSH1 0x8 DUP5 ADD SLOAD PUSH2 0x1A5B JUMP JUMPDEST PUSH1 0x1F DUP2 GT PUSH2 0x234A JUMPI JUMPDEST POP PUSH1 0x20 PUSH1 0x1F DUP3 GT PUSH1 0x1 EQ PUSH2 0x22DB JUMPI DUP2 SWAP3 SWAP4 SWAP5 SWAP6 PUSH1 0x0 SWAP3 PUSH2 0x22D0 JUMPI JUMPDEST POP POP DUP2 PUSH1 0x1 SHL SWAP2 PUSH1 0x0 NOT SWAP1 PUSH1 0x3 SHL SHR NOT AND OR PUSH1 0x8 DUP4 ADD SSTORE JUMPDEST PUSH1 0x9 DUP3 ADD PUSH2 0x140 DUP3 ADD MLOAD DUP1 MLOAD SWAP1 PUSH1 0x1 PUSH1 0x1 PUSH1 0x40 SHL SUB DUP3 GT PUSH2 0x1611 JUMPI DUP2 SWAP1 PUSH2 0x201E DUP5 SLOAD PUSH2 0x1A5B JUMP JUMPDEST PUSH1 0x1F DUP2 GT PUSH2 0x2293 JUMPI JUMPDEST POP PUSH1 0x20 SWAP1 PUSH1 0x1F DUP4 GT PUSH1 0x1 EQ PUSH2 0x222D JUMPI PUSH1 0x0 SWAP3 PUSH2 0x2222 JUMPI JUMPDEST POP POP DUP2 PUSH1 0x1 SHL SWAP2 PUSH1 0x0 NOT SWAP1 PUSH1 0x3 SHL SHR NOT AND OR SWAP1 SSTORE JUMPDEST PUSH2 0x160 DUP2 ADD MLOAD PUSH1 0xA DUP4 ADD SSTORE PUSH2 0x180 DUP2 ADD MLOAD DUP1 MLOAD PUSH1 0x1 PUSH1 0x40 SHL SWAP4 SWAP2 PUSH1 0xB DUP4 ADD SWAP1 DUP6 DUP4 GT PUSH2 0x1611 JUMPI DUP2 SLOAD DUP4 DUP4 SSTORE DUP1 DUP5 LT PUSH2 0x21B7 JUMPI JUMPDEST POP PUSH1 0x20 ADD SWAP1 PUSH1 0x0 MSTORE PUSH1 0x20 PUSH1 0x0 KECCAK256 PUSH1 0x0 SWAP2 JUMPDEST DUP4 DUP4 LT PUSH2 0x2199 JUMPI POP POP POP POP PUSH1 0xC PUSH2 0x1A0 SWAP2 ADD SWAP2 ADD MLOAD DUP1 MLOAD SWAP3 DUP4 GT PUSH2 0x1611 JUMPI DUP2 SLOAD DUP4 DUP4 SSTORE DUP1 DUP5 LT PUSH2 0x2130 JUMPI JUMPDEST POP PUSH1 0x20 ADD SWAP1 PUSH1 0x0 MSTORE PUSH1 0x20 PUSH1 0x0 KECCAK256 PUSH1 0x0 SWAP2 JUMPDEST DUP4 DUP4 LT PUSH2 0x20E0 JUMPI POP POP POP POP JUMP JUMPDEST PUSH1 0x3 PUSH1 0x20 DUP3 PUSH2 0x2124 PUSH1 0x1 SWAP5 MLOAD DUP7 SWAP1 PUSH1 0x40 PUSH1 0x2 SWAP2 PUSH1 0x1 DUP1 PUSH1 0xA0 SHL SUB DUP2 MLOAD AND PUSH12 0xFFFFFFFFFFFFFFFFFFFFFFFF PUSH1 0xA0 SHL DUP6 SLOAD AND OR DUP5 SSTORE PUSH1 0x20 DUP2 ADD MLOAD PUSH1 0x1 DUP6 ADD SSTORE ADD MLOAD SWAP2 ADD SSTORE JUMP JUMPDEST ADD SWAP3 ADD SWAP3 ADD SWAP2 SWAP1 PUSH2 0x20D3 JUMP JUMPDEST DUP1 PUSH1 0x3 MUL SWAP1 PUSH1 0x3 DUP3 DIV SUB PUSH2 0x2183 JUMPI DUP4 PUSH1 0x3 MUL PUSH1 0x3 DUP2 DIV DUP6 SUB PUSH2 0x2183 JUMPI DUP4 PUSH1 0x0 MSTORE PUSH1 0x20 PUSH1 0x0 KECCAK256 SWAP2 DUP3 ADD SWAP2 ADD JUMPDEST DUP2 DUP2 LT PUSH2 0x2168 JUMPI POP PUSH2 0x20C2 JUMP JUMPDEST DUP1 PUSH1 0x0 PUSH1 0x3 SWAP3 SSTORE PUSH1 0x0 PUSH1 0x1 DUP3 ADD SSTORE PUSH1 0x0 PUSH1 0x2 DUP3 ADD SSTORE ADD PUSH2 0x215B JUMP JUMPDEST PUSH4 0x4E487B71 PUSH1 0xE0 SHL PUSH1 0x0 MSTORE PUSH1 0x11 PUSH1 0x4 MSTORE PUSH1 0x24 PUSH1 0x0 REVERT JUMPDEST PUSH1 0x5 PUSH1 0x20 DUP3 PUSH2 0x21AB PUSH1 0x1 SWAP5 MLOAD DUP7 PUSH2 0x1AF6 JUMP JUMPDEST ADD SWAP3 ADD SWAP3 ADD SWAP2 SWAP1 PUSH2 0x2097 JUMP JUMPDEST DUP1 PUSH1 0x5 MUL SWAP1 PUSH1 0x5 DUP3 DIV SUB PUSH2 0x2183 JUMPI DUP4 PUSH1 0x5 MUL PUSH1 0x5 DUP2 DIV DUP6 SUB PUSH2 0x2183 JUMPI DUP4 PUSH1 0x0 MSTORE PUSH1 0x20 PUSH1 0x0 KECCAK256 SWAP2 DUP3 ADD SWAP2 ADD JUMPDEST DUP2 DUP2 LT PUSH2 0x21EF JUMPI POP PUSH2 0x2086 JUMP JUMPDEST DUP1 PUSH1 0x0 PUSH1 0x5 SWAP3 SSTORE PUSH1 0x0 PUSH1 0x1 DUP3 ADD SSTORE PUSH2 0x2209 PUSH1 0x2 DUP3 ADD PUSH2 0x1AAC JUMP JUMPDEST PUSH1 0x0 PUSH1 0x3 DUP3 ADD SSTORE PUSH2 0x221C PUSH1 0x4 DUP3 ADD PUSH2 0x1AAC JUMP JUMPDEST ADD PUSH2 0x21E2 JUMP JUMPDEST ADD MLOAD SWAP1 POP CODESIZE DUP1 PUSH2 0x203E JUMP JUMPDEST PUSH1 0x0 DUP6 DUP2 MSTORE PUSH1 0x20 DUP2 KECCAK256 SWAP4 POP PUSH1 0x1F NOT DUP6 AND SWAP1 JUMPDEST DUP2 DUP2 LT PUSH2 0x227B JUMPI POP SWAP1 DUP5 PUSH1 0x1 SWAP6 SWAP5 SWAP4 SWAP3 LT PUSH2 0x2262 JUMPI JUMPDEST POP POP POP DUP2 SHL ADD SWAP1 SSTORE PUSH2 0x2053 JUMP JUMPDEST ADD MLOAD PUSH1 0x0 NOT PUSH1 0xF8 DUP5 PUSH1 0x3 SHL AND SHR NOT AND SWAP1 SSTORE CODESIZE DUP1 DUP1 PUSH2 0x2255 JUMP JUMPDEST SWAP3 SWAP4 PUSH1 0x20 PUSH1 0x1 DUP2 SWAP3 DUP8 DUP7 ADD MLOAD DUP2 SSTORE ADD SWAP6 ADD SWAP4 ADD PUSH2 0x223F JUMP JUMPDEST PUSH2 0x22C0 SWAP1 DUP6 PUSH1 0x0 MSTORE PUSH1 0x20 PUSH1 0x0 KECCAK256 PUSH1 0x1F DUP6 ADD PUSH1 0x5 SHR DUP2 ADD SWAP2 PUSH1 0x20 DUP7 LT PUSH2 0x22C6 JUMPI JUMPDEST PUSH1 0x1F ADD PUSH1 0x5 SHR ADD SWAP1 PUSH2 0x1A95 JUMP JUMPDEST CODESIZE PUSH2 0x2027 JUMP JUMPDEST SWAP1 SWAP2 POP DUP2 SWAP1 PUSH2 0x22B3 JUMP JUMPDEST ADD MLOAD SWAP1 POP CODESIZE DUP1 PUSH2 0x1FDF JUMP JUMPDEST PUSH1 0x8 DUP5 ADD PUSH1 0x0 MSTORE PUSH1 0x20 PUSH1 0x0 KECCAK256 SWAP1 PUSH1 0x0 JUMPDEST PUSH1 0x1F NOT DUP5 AND DUP2 LT PUSH2 0x2332 JUMPI POP PUSH1 0x1 SWAP4 SWAP5 SWAP6 SWAP7 DUP4 PUSH1 0x1F NOT DUP2 AND LT PUSH2 0x2319 JUMPI JUMPDEST POP POP POP DUP2 SHL ADD PUSH1 0x8 DUP4 ADD SSTORE PUSH2 0x1FF7 JUMP JUMPDEST ADD MLOAD PUSH1 0x0 NOT PUSH1 0xF8 DUP5 PUSH1 0x3 SHL AND SHR NOT AND SWAP1 SSTORE CODESIZE DUP1 DUP1 PUSH2 0x2309 JUMP JUMPDEST SWAP1 SWAP2 PUSH1 0x20 PUSH1 0x1 DUP2 SWAP3 DUP6 DUP12 ADD MLOAD DUP2 SSTORE ADD SWAP4 ADD SWAP2 ADD PUSH2 0x22EB JUMP JUMPDEST PUSH2 0x2379 SWAP1 PUSH1 0x8 DUP6 ADD PUSH1 0x0 MSTORE PUSH1 0x20 PUSH1 0x0 KECCAK256 PUSH1 0x1F DUP5 ADD PUSH1 0x5 SHR DUP2 ADD SWAP2 PUSH1 0x20 DUP6 LT PUSH2 0x22C6 JUMPI PUSH1 0x1F ADD PUSH1 0x5 SHR ADD SWAP1 PUSH2 0x1A95 JUMP JUMPDEST CODESIZE PUSH2 0x1FC4 JUMP JUMPDEST ADD MLOAD SWAP1 POP CODESIZE DUP1 PUSH2 0x1F7F JUMP JUMPDEST PUSH1 0x7 DUP4 ADD PUSH1 0x0 MSTORE PUSH1 0x20 PUSH1 0x0 KECCAK256 SWAP1 PUSH1 0x0 JUMPDEST PUSH1 0x1F NOT DUP5 AND DUP2 LT PUSH2 0x23E1 JUMPI POP PUSH1 0x1 SWAP4 SWAP5 SWAP6 SWAP7 DUP4 PUSH1 0x1F NOT DUP2 AND LT PUSH2 0x23C8 JUMPI JUMPDEST POP POP POP DUP2 SHL ADD PUSH1 0x7 DUP3 ADD SSTORE PUSH2 0x1F97 JUMP JUMPDEST ADD MLOAD PUSH1 0x0 NOT PUSH1 0xF8 DUP5 PUSH1 0x3 SHL AND SHR NOT AND SWAP1 SSTORE CODESIZE DUP1 DUP1 PUSH2 0x23B8 JUMP JUMPDEST SWAP1 SWAP2 PUSH1 0x20 PUSH1 0x1 DUP2 SWAP3 DUP6 DUP12 ADD MLOAD DUP2 SSTORE ADD SWAP4 ADD SWAP2 ADD PUSH2 0x239A JUMP JUMPDEST PUSH2 0x2428 SWAP1 PUSH1 0x7 DUP5 ADD PUSH1 0x0 MSTORE PUSH1 0x20 PUSH1 0x0 KECCAK256 PUSH1 0x1F DUP5 ADD PUSH1 0x5 SHR DUP2 ADD SWAP2 PUSH1 0x20 DUP6 LT PUSH2 0x22C6 JUMPI PUSH1 0x1F ADD PUSH1 0x5 SHR ADD SWAP1 PUSH2 0x1A95 JUMP JUMPDEST CODESIZE PUSH2 0x1F64 JUMP JUMPDEST ADD MLOAD SWAP1 POP CODESIZE DUP1 PUSH2 0x1F1F JUMP JUMPDEST PUSH1 0x1F NOT DUP3 AND SWAP6 PUSH1 0x6 DUP7 ADD PUSH1 0x0 MSTORE PUSH1 0x20 PUSH1 0x0 KECCAK256 SWAP2 PUSH1 0x0 JUMPDEST DUP9 DUP2 LT PUSH2 0x248D JUMPI POP DUP4 PUSH1 0x1 SWAP6 SWAP7 SWAP8 SWAP9 LT PUSH2 0x2474 JUMPI JUMPDEST POP POP POP DUP2 SHL ADD PUSH1 0x6 DUP5 ADD SSTORE PUSH2 0x1F37 JUMP JUMPDEST ADD MLOAD PUSH1 0x0 NOT PUSH1 0xF8 DUP5 PUSH1 0x3 SHL AND SHR NOT AND SWAP1 SSTORE CODESIZE DUP1 DUP1 PUSH2 0x2464 JUMP JUMPDEST SWAP2 SWAP3 PUSH1 0x20 PUSH1 0x1 DUP2 SWAP3 DUP7 DUP6 ADD MLOAD DUP2 SSTORE ADD SWAP5 ADD SWAP3 ADD PUSH2 0x244F JUMP JUMPDEST PUSH2 0x24D4 SWAP1 PUSH1 0x6 DUP7 ADD PUSH1 0x0 MSTORE PUSH1 0x20 PUSH1 0x0 KECCAK256 PUSH1 0x1F DUP5 ADD PUSH1 0x5 SHR DUP2 ADD SWAP2 PUSH1 0x20 DUP6 LT PUSH2 0x22C6 JUMPI PUSH1 0x1F ADD PUSH1 0x5 SHR ADD SWAP1 PUSH2 0x1A95 JUMP JUMPDEST CODESIZE PUSH2 0x1F02 JUMP JUMPDEST ADD MLOAD SWAP1 POP CODESIZE DUP1 PUSH2 0x1EC1 JUMP JUMPDEST PUSH1 0x0 DUP6 DUP2 MSTORE PUSH1 0x20 DUP2 KECCAK256 SWAP4 POP PUSH1 0x1F NOT DUP6 AND SWAP1 JUMPDEST DUP2 DUP2 LT PUSH2 0x2533 JUMPI POP SWAP1 DUP5 PUSH1 0x1 SWAP6 SWAP5 SWAP4 SWAP3 LT PUSH2 0x251A JUMPI JUMPDEST POP POP POP DUP2 SHL ADD SWAP1 SSTORE PUSH2 0x1ED6 JUMP JUMPDEST ADD MLOAD PUSH1 0x0 NOT PUSH1 0xF8 DUP5 PUSH1 0x3 SHL AND SHR NOT AND SWAP1 SSTORE CODESIZE DUP1 DUP1 PUSH2 0x250D JUMP JUMPDEST SWAP3 SWAP4 PUSH1 0x20 PUSH1 0x1 DUP2 SWAP3 DUP8 DUP7 ADD MLOAD DUP2 SSTORE ADD SWAP6 ADD SWAP4 ADD PUSH2 0x24F7 JUMP JUMPDEST PUSH2 0x2577 SWAP1 DUP6 PUSH1 0x0 MSTORE PUSH1 0x20 PUSH1 0x0 KECCAK256 PUSH1 0x1F DUP6 ADD PUSH1 0x5 SHR DUP2 ADD SWAP2 PUSH1 0x20 DUP7 LT PUSH2 0x22C6 JUMPI PUSH1 0x1F ADD PUSH1 0x5 SHR ADD SWAP1 PUSH2 0x1A95 JUMP JUMPDEST CODESIZE PUSH2 0x1EAA JUMP JUMPDEST ADD MLOAD SWAP1 POP CODESIZE DUP1 PUSH2 0x1E66 JUMP JUMPDEST PUSH1 0x0 DUP6 DUP2 MSTORE PUSH1 0x20 DUP2 KECCAK256 SWAP4 POP PUSH1 0x1F NOT DUP6 AND SWAP1 JUMPDEST DUP2 DUP2 LT PUSH2 0x25D6 JUMPI POP SWAP1 DUP5 PUSH1 0x1 SWAP6 SWAP5 SWAP4 SWAP3 LT PUSH2 0x25BD JUMPI JUMPDEST POP POP POP DUP2 SHL ADD SWAP1 SSTORE PUSH2 0x1E7B JUMP JUMPDEST ADD MLOAD PUSH1 0x0 NOT PUSH1 0xF8 DUP5 PUSH1 0x3 SHL AND SHR NOT AND SWAP1 SSTORE CODESIZE DUP1 DUP1 PUSH2 0x25B0 JUMP JUMPDEST SWAP3 SWAP4 PUSH1 0x20 PUSH1 0x1 DUP2 SWAP3 DUP8 DUP7 ADD MLOAD DUP2 SSTORE ADD SWAP6 ADD SWAP4 ADD PUSH2 0x259A JUMP JUMPDEST PUSH2 0x261A SWAP1 DUP6 PUSH1 0x0 MSTORE PUSH1 0x20 PUSH1 0x0 KECCAK256 PUSH1 0x1F DUP6 ADD PUSH1 0x5 SHR DUP2 ADD SWAP2 PUSH1 0x20 DUP7 LT PUSH2 0x22C6 JUMPI PUSH1 0x1F ADD PUSH1 0x5 SHR ADD SWAP1 PUSH2 0x1A95 JUMP JUMPDEST CODESIZE PUSH2 0x1E4F JUMP JUMPDEST ADD MLOAD SWAP1 POP CODESIZE DUP1 PUSH2 0x1E0B JUMP JUMPDEST PUSH1 0x0 DUP6 DUP2 MSTORE PUSH1 0x20 DUP2 KECCAK256 SWAP4 POP PUSH1 0x1F NOT DUP6 AND SWAP1 JUMPDEST DUP2 DUP2 LT PUSH2 0x2679 JUMPI POP SWAP1 DUP5 PUSH1 0x1 SWAP6 SWAP5 SWAP4 SWAP3 LT PUSH2 0x2660 JUMPI JUMPDEST POP POP POP DUP2 SHL ADD SWAP1 SSTORE PUSH2 0x1E20 JUMP JUMPDEST ADD MLOAD PUSH1 0x0 NOT PUSH1 0xF8 DUP5 PUSH1 0x3 SHL AND SHR NOT AND SWAP1 SSTORE CODESIZE DUP1 DUP1 PUSH2 0x2653 JUMP JUMPDEST SWAP3 SWAP4 PUSH1 0x20 PUSH1 0x1 DUP2 SWAP3 DUP8 DUP7 ADD MLOAD DUP2 SSTORE ADD SWAP6 ADD SWAP4 ADD PUSH2 0x263D JUMP JUMPDEST PUSH2 0x26BD SWAP1 DUP6 PUSH1 0x0 MSTORE PUSH1 0x20 PUSH1 0x0 KECCAK256 PUSH1 0x1F DUP6 ADD PUSH1 0x5 SHR DUP2 ADD SWAP2 PUSH1 0x20 DUP7 LT PUSH2 0x22C6 JUMPI PUSH1 0x1F ADD PUSH1 0x5 SHR ADD SWAP1 PUSH2 0x1A95 JUMP JUMPDEST CODESIZE PUSH2 0x1DF4 JUMP JUMPDEST ADD MLOAD SWAP1 POP CODESIZE DUP1 PUSH2 0x1DB0 JUMP JUMPDEST PUSH1 0x0 DUP6 DUP2 MSTORE PUSH1 0x20 DUP2 KECCAK256 SWAP4 POP PUSH1 0x1F NOT DUP6 AND SWAP1 JUMPDEST DUP2 DUP2 LT PUSH2 0x271C JUMPI POP SWAP1 DUP5 PUSH1 0x1 SWAP6 SWAP5 SWAP4 SWAP3 LT PUSH2 0x2703 JUMPI JUMPDEST POP POP POP DUP2 SHL ADD SWAP1 SSTORE PUSH2 0x1DC5 JUMP JUMPDEST ADD MLOAD PUSH1 0x0 NOT PUSH1 0xF8 DUP5 PUSH1 0x3 SHL AND SHR NOT AND SWAP1 SSTORE CODESIZE DUP1 DUP1 PUSH2 0x26F6 JUMP JUMPDEST SWAP3 SWAP4 PUSH1 0x20 PUSH1 0x1 DUP2 SWAP3 DUP8 DUP7 ADD MLOAD DUP2 SSTORE ADD SWAP6 ADD SWAP4 ADD PUSH2 0x26E0 JUMP JUMPDEST PUSH2 0x2760 SWAP1 DUP6 PUSH1 0x0 MSTORE PUSH1 0x20 PUSH1 0x0 KECCAK256 PUSH1 0x1F DUP6 ADD PUSH1 0x5 SHR DUP2 ADD SWAP2 PUSH1 0x20 DUP7 LT PUSH2 0x22C6 JUMPI PUSH1 0x1F ADD PUSH1 0x5 SHR ADD SWAP1 PUSH2 0x1A95 JUMP JUMPDEST CODESIZE PUSH2 0x1D99 JUMP JUMPDEST PUSH4 0x4E487B71 PUSH1 0xE0 SHL PUSH1 0x0 MSTORE PUSH1 0x0 PUSH1 0x4 MSTORE PUSH1 0x24 PUSH1 0x0 REVERT JUMPDEST PUSH2 0x2794 SWAP1 PUSH1 0x20 PUSH1 0x40 MLOAD SWAP3 DUP3 DUP5 DUP1 SWAP5 MLOAD SWAP4 DUP5 SWAP3 ADD PUSH2 0x171C JUMP JUMPDEST DUP2 ADD SUB SWAP1 KECCAK256 SWAP1 JUMP JUMPDEST PUSH1 0x0 NOT DUP2 EQ PUSH2 0x2183 JUMPI PUSH1 0x1 ADD SWAP1 JUMP JUMPDEST SWAP1 PUSH1 0x40 MLOAD SWAP2 DUP3 PUSH1 0x0 DUP3 SLOAD SWAP3 PUSH2 0x27BF DUP5 PUSH2 0x1A5B JUMP JUMPDEST SWAP1 DUP2 DUP5 MSTORE PUSH1 0x1 SWAP5 DUP6 DUP2 AND SWAP1 DUP2 PUSH1 0x0 EQ PUSH2 0x282C JUMPI POP PUSH1 0x1 EQ PUSH2 0x27E9 JUMPI JUMPDEST POP POP PUSH2 0x1AD1 SWAP3 POP SUB DUP4 PUSH2 0x1694 JUMP JUMPDEST SWAP1 SWAP4 SWAP2 POP PUSH1 0x0 MSTORE PUSH1 0x20 SWAP1 DUP2 PUSH1 0x0 KECCAK256 SWAP4 PUSH1 0x0 SWAP2 JUMPDEST DUP2 DUP4 LT PUSH2 0x2814 JUMPI POP POP PUSH2 0x1AD1 SWAP4 POP DUP3 ADD ADD CODESIZE DUP1 PUSH2 0x27DB JUMP JUMPDEST DUP6 SLOAD DUP9 DUP5 ADD DUP6 ADD MSTORE SWAP5 DUP6 ADD SWAP5 DUP8 SWAP5 POP SWAP2 DUP4 ADD SWAP2 PUSH2 0x27FC JUMP JUMPDEST SWAP2 POP POP PUSH2 0x1AD1 SWAP5 POP PUSH1 0x20 SWAP3 POP PUSH1 0xFF NOT AND DUP3 DUP5 ADD MSTORE ISZERO ISZERO PUSH1 0x5 SHL DUP3 ADD ADD CODESIZE DUP1 PUSH2 0x27DB JUMP JUMPDEST SWAP1 PUSH1 0x40 MLOAD SWAP2 PUSH1 0x20 SWAP3 PUSH2 0x287D DUP5 DUP3 DUP2 PUSH2 0x2870 DUP2 DUP4 ADD SWAP7 DUP8 DUP2 MLOAD SWAP4 DUP5 SWAP3 ADD PUSH2 0x171C JUMP JUMPDEST DUP2 ADD SUB DUP1 DUP5 MSTORE ADD DUP3 PUSH2 0x1694 JUMP JUMPDEST MLOAD SWAP1 KECCAK256 SWAP2 PUSH2 0x289D PUSH1 0x40 MLOAD SWAP2 DUP3 DUP2 PUSH2 0x2870 DUP2 DUP4 ADD SWAP7 DUP8 DUP2 MLOAD SWAP4 DUP5 SWAP3 ADD PUSH2 0x171C JUMP JUMPDEST MLOAD SWAP1 KECCAK256 EQ SWAP1 JUMP JUMPDEST PUSH1 0x1 PUSH1 0x1 PUSH1 0x40 SHL SUB DUP2 GT PUSH2 0x1611 JUMPI PUSH1 0x5 SHL PUSH1 0x20 ADD SWAP1 JUMP JUMPDEST SWAP1 DUP2 SLOAD PUSH2 0x28C7 DUP2 PUSH2 0x28A4 JUMP JUMPDEST SWAP3 PUSH1 0x40 SWAP4 PUSH2 0x28D7 DUP6 MLOAD SWAP2 DUP3 PUSH2 0x1694 JUMP JUMPDEST DUP3 DUP2 MSTORE DUP1 SWAP5 PUSH1 0x20 DUP1 SWAP3 ADD SWAP3 PUSH1 0x0 MSTORE DUP2 PUSH1 0x0 KECCAK256 SWAP1 PUSH1 0x0 SWAP4 JUMPDEST DUP6 DUP6 LT PUSH2 0x28FD JUMPI POP POP POP POP POP POP JUMP JUMPDEST PUSH1 0x5 DUP5 PUSH1 0x1 SWAP3 DUP5 MLOAD PUSH2 0x290E DUP2 PUSH2 0x1643 JUMP JUMPDEST DUP5 DUP1 PUSH1 0xA0 SHL SUB DUP8 SLOAD AND DUP2 MSTORE DUP5 DUP8 ADD SLOAD DUP4 DUP3 ADD MSTORE PUSH2 0x292D PUSH1 0x2 DUP9 ADD PUSH2 0x27AB JUMP JUMPDEST DUP7 DUP3 ADD MSTORE PUSH1 0x3 DUP8 ADD SLOAD PUSH1 0x60 DUP3 ADD MSTORE PUSH2 0x2947 PUSH1 0x4 DUP9 ADD PUSH2 0x27AB JUMP JUMPDEST PUSH1 0x80 DUP3 ADD MSTORE DUP2 MSTORE ADD SWAP4 ADD SWAP5 ADD SWAP4 SWAP2 PUSH2 0x28EE JUMP JUMPDEST SWAP1 DUP2 SLOAD PUSH2 0x2966 DUP2 PUSH2 0x28A4 JUMP JUMPDEST SWAP3 PUSH1 0x40 SWAP4 PUSH2 0x2976 DUP6 MLOAD SWAP2 DUP3 PUSH2 0x1694 JUMP JUMPDEST DUP3 DUP2 MSTORE DUP1 SWAP5 PUSH1 0x20 DUP1 SWAP3 ADD SWAP3 PUSH1 0x0 MSTORE DUP2 PUSH1 0x0 KECCAK256 SWAP1 PUSH1 0x0 SWAP4 JUMPDEST DUP6 DUP6 LT PUSH2 0x299C JUMPI POP POP POP POP POP POP JUMP JUMPDEST PUSH1 0x3 DUP5 PUSH1 0x1 SWAP3 DUP5 MLOAD PUSH2 0x29AD DUP2 PUSH2 0x165E JUMP JUMPDEST DUP5 DUP1 PUSH1 0xA0 SHL SUB DUP8 SLOAD AND DUP2 MSTORE DUP5 DUP8 ADD SLOAD DUP4 DUP3 ADD MSTORE PUSH1 0x2 DUP8 ADD SLOAD DUP7 DUP3 ADD MSTORE DUP2 MSTORE ADD SWAP4 ADD SWAP5 ADD SWAP4 SWAP2 PUSH2 0x298D JUMP JUMPDEST SWAP1 PUSH1 0x40 MLOAD PUSH2 0x29E4 DUP2 PUSH2 0x1627 JUMP JUMPDEST PUSH2 0x1A0 PUSH2 0x2AC0 PUSH1 0xC DUP4 SWAP6 DUP1 SLOAD DUP6 MSTORE PUSH1 0xFF PUSH1 0x1 DUP3 ADD SLOAD PUSH1 0x1 DUP1 PUSH1 0xA0 SHL SUB DUP2 AND PUSH1 0x20 DUP9 ADD MSTORE PUSH1 0xA0 SHR AND ISZERO ISZERO PUSH1 0x40 DUP7 ADD MSTORE PUSH2 0x2A1E PUSH1 0x2 DUP3 ADD PUSH2 0x27AB JUMP JUMPDEST PUSH1 0x60 DUP7 ADD MSTORE PUSH2 0x2A2F PUSH1 0x3 DUP3 ADD PUSH2 0x27AB JUMP JUMPDEST PUSH1 0x80 DUP7 ADD MSTORE PUSH2 0x2A40 PUSH1 0x4 DUP3 ADD PUSH2 0x27AB JUMP JUMPDEST PUSH1 0xA0 DUP7 ADD MSTORE PUSH2 0x2A51 PUSH1 0x5 DUP3 ADD PUSH2 0x27AB JUMP JUMPDEST PUSH1 0xC0 DUP7 ADD MSTORE PUSH2 0x2A62 PUSH1 0x6 DUP3 ADD PUSH2 0x27AB JUMP JUMPDEST PUSH1 0xE0 DUP7 ADD MSTORE PUSH2 0x2A73 PUSH1 0x7 DUP3 ADD PUSH2 0x27AB JUMP JUMPDEST PUSH2 0x100 DUP7 ADD MSTORE PUSH2 0x2A85 PUSH1 0x8 DUP3 ADD PUSH2 0x27AB JUMP JUMPDEST PUSH2 0x120 DUP7 ADD MSTORE PUSH2 0x2A97 PUSH1 0x9 DUP3 ADD PUSH2 0x27AB JUMP JUMPDEST PUSH2 0x140 DUP7 ADD MSTORE PUSH1 0xA DUP2 ADD SLOAD PUSH2 0x160 DUP7 ADD MSTORE PUSH2 0x2AB4 PUSH1 0xB DUP3 ADD PUSH2 0x28BB JUMP JUMPDEST PUSH2 0x180 DUP7 ADD MSTORE ADD PUSH2 0x295A JUMP JUMPDEST SWAP2 ADD MSTORE JUMP JUMPDEST PUSH1 0x40 MLOAD SWAP1 DUP2 PUSH1 0x0 DUP3 SLOAD PUSH2 0x2AD7 DUP2 PUSH2 0x1A5B JUMP JUMPDEST SWAP4 PUSH1 0x1 SWAP2 DUP1 DUP4 AND SWAP1 DUP2 ISZERO PUSH2 0x2B3C JUMPI POP PUSH1 0x1 EQ PUSH2 0x2AFF JUMPI JUMPDEST POP POP PUSH1 0x20 SWAP3 POP PUSH1 0x4 DUP2 MSTORE SUB ADD SWAP1 KECCAK256 SWAP1 JUMP JUMPDEST SWAP1 SWAP2 POP PUSH1 0x0 MSTORE PUSH1 0x20 SWAP1 DUP2 PUSH1 0x0 KECCAK256 SWAP1 PUSH1 0x0 SWAP2 JUMPDEST DUP6 DUP4 LT PUSH2 0x2B28 JUMPI POP POP POP POP PUSH1 0x20 SWAP2 DUP2 ADD CODESIZE DUP1 PUSH2 0x2AEE JUMP JUMPDEST DUP1 SLOAD DUP8 DUP5 ADD MSTORE DUP7 SWAP5 POP SWAP2 DUP4 ADD SWAP2 DUP2 ADD PUSH2 0x2B11 JUMP JUMPDEST SWAP3 POP POP POP PUSH1 0x20 SWAP4 SWAP2 POP PUSH1 0xFF NOT AND DUP3 MSTORE DUP1 ISZERO ISZERO MUL DUP2 ADD CODESIZE DUP1 PUSH2 0x2AEE JUMP JUMPDEST SWAP1 DUP2 PUSH1 0x20 SWAP2 SUB SLT PUSH2 0x1717 JUMPI MLOAD DUP1 ISZERO ISZERO DUP2 SUB PUSH2 0x1717 JUMPI SWAP1 JUMP JUMPDEST PUSH1 0x40 MLOAD SWAP1 PUSH2 0x2B7D DUP3 PUSH2 0x1627 JUMP JUMPDEST DUP2 PUSH1 0x0 DUP2 MSTORE PUSH1 0x0 PUSH1 0x20 DUP3 ADD MSTORE PUSH1 0x0 PUSH1 0x40 DUP3 ADD MSTORE PUSH2 0x1A0 PUSH1 0x60 SWAP2 DUP3 DUP1 DUP3 ADD MSTORE DUP3 PUSH1 0x80 DUP3 ADD MSTORE DUP3 PUSH1 0xA0 DUP3 ADD MSTORE DUP3 PUSH1 0xC0 DUP3 ADD MSTORE DUP3 PUSH1 0xE0 DUP3 ADD MSTORE DUP3 PUSH2 0x100 DUP3 ADD MSTORE DUP3 PUSH2 0x120 DUP3 ADD MSTORE DUP3 PUSH2 0x140 DUP3 ADD MSTORE PUSH1 0x0 PUSH2 0x160 DUP3 ADD MSTORE DUP3 PUSH2 0x180 DUP3 ADD MSTORE ADD MSTORE JUMP JUMPDEST SWAP1 PUSH2 0x2BE5 DUP3 PUSH2 0x28A4 JUMP JUMPDEST PUSH2 0x2BF2 PUSH1 0x40 MLOAD SWAP2 DUP3 PUSH2 0x1694 JUMP JUMPDEST DUP3 DUP2 MSTORE DUP1 SWAP3 PUSH2 0x2C03 PUSH1 0x1F NOT SWAP2 PUSH2 0x28A4 JUMP JUMPDEST ADD SWAP1 PUSH1 0x0 JUMPDEST DUP3 DUP2 LT PUSH2 0x2C14 JUMPI POP POP POP JUMP JUMPDEST PUSH1 0x20 SWAP1 PUSH2 0x2C1F PUSH2 0x2B70 JUMP JUMPDEST DUP3 DUP3 DUP6 ADD ADD MSTORE ADD PUSH2 0x2C08 JUMP JUMPDEST DUP1 MLOAD DUP3 LT ISZERO PUSH2 0x1A45 JUMPI PUSH1 0x20 SWAP2 PUSH1 0x5 SHL ADD ADD SWAP1 JUMP JUMPDEST PUSH2 0x2C47 PUSH2 0x2B70 JUMP JUMPDEST POP PUSH1 0x6 SLOAD SWAP1 PUSH1 0x0 JUMPDEST DUP3 DUP2 LT PUSH2 0x2D35 JUMPI POP POP POP PUSH1 0x40 DUP1 MLOAD SWAP1 PUSH2 0x2C67 DUP3 PUSH2 0x1627 JUMP JUMPDEST PUSH1 0x0 DUP3 MSTORE PUSH1 0x0 PUSH1 0x20 DUP4 ADD MSTORE PUSH1 0x0 DUP2 DUP4 ADD MSTORE DUP1 MLOAD PUSH2 0x2C83 DUP2 PUSH2 0x1679 JUMP JUMPDEST PUSH1 0x0 DUP2 MSTORE PUSH1 0x60 DUP4 ADD MSTORE DUP1 MLOAD PUSH2 0x2C97 DUP2 PUSH2 0x1679 JUMP JUMPDEST PUSH1 0x0 DUP2 MSTORE PUSH1 0x80 DUP4 ADD MSTORE DUP1 MLOAD PUSH2 0x2CAB DUP2 PUSH2 0x1679 JUMP JUMPDEST PUSH1 0x0 DUP2 MSTORE PUSH1 0xA0 DUP4 ADD MSTORE DUP1 MLOAD PUSH2 0x2CBF DUP2 PUSH2 0x1679 JUMP JUMPDEST PUSH1 0x0 DUP2 MSTORE PUSH1 0xC0 DUP4 ADD MSTORE DUP1 MLOAD PUSH2 0x2CD3 DUP2 PUSH2 0x1679 JUMP JUMPDEST PUSH1 0x0 DUP2 MSTORE PUSH1 0xE0 DUP4 ADD MSTORE DUP1 MLOAD PUSH2 0x2CE7 DUP2 PUSH2 0x1679 JUMP JUMPDEST PUSH1 0x0 DUP2 MSTORE PUSH2 0x100 DUP4 ADD MSTORE DUP1 MLOAD PUSH2 0x2CFC DUP2 PUSH2 0x1679 JUMP JUMPDEST PUSH1 0x0 DUP2 MSTORE PUSH2 0x120 DUP4 ADD MSTORE MLOAD PUSH2 0x2D10 DUP2 PUSH2 0x1679 JUMP JUMPDEST PUSH1 0x0 DUP2 MSTORE PUSH2 0x140 DUP3 ADD MSTORE PUSH1 0x0 PUSH2 0x160 DUP3 ADD MSTORE PUSH1 0x60 PUSH2 0x180 DUP3 ADD MSTORE PUSH1 0x60 PUSH2 0x1A0 DUP3 ADD MSTORE SWAP1 JUMP JUMPDEST PUSH2 0x2D47 DUP3 PUSH2 0x2E4 PUSH1 0x9 PUSH2 0x2DD DUP6 PUSH2 0x1A0A JUMP JUMPDEST PUSH2 0x2D59 JUMPI PUSH2 0x2D54 SWAP1 PUSH2 0x279C JUMP JUMPDEST PUSH2 0x2C4F JUMP JUMPDEST PUSH2 0x2D68 SWAP3 POP PUSH2 0x30B SWAP2 POP PUSH2 0x1A0A JUMP JUMPDEST SWAP1 JUMP JUMPDEST PUSH1 0x6 SLOAD SWAP1 PUSH1 0x0 JUMPDEST DUP3 DUP2 LT PUSH2 0x2D81 JUMPI POP POP POP PUSH1 0x0 SWAP1 JUMP JUMPDEST PUSH2 0x2D93 DUP3 PUSH2 0x2E4 PUSH1 0x9 PUSH2 0x2DD DUP6 PUSH2 0x1A0A JUMP JUMPDEST PUSH2 0x2DA5 JUMPI PUSH2 0x2DA0 SWAP1 PUSH2 0x279C JUMP JUMPDEST PUSH2 0x2D72 JUMP JUMPDEST POP POP POP PUSH1 0x1 SWAP1 JUMP INVALID LOG2 PUSH5 0x6970667358 0x22 SLT KECCAK256 0xE1 PREVRANDAO 0x2F CALL 0xD1 BLOCKHASH 0xE0 0xC9 0x28 0xAC 0x2B 0xF9 LOG4 BYTE 0xC2 0xA6 SIGNEXTEND 0xB0 0xC6 SWAP12 0xC2 CALLDATASIZE SWAP4 SWAP11 0xFC 0xF9 CALLVALUE SWAP1 DUP9 PUSH11 0x2AC964736F6C6343000814 STOP CALLER "
        },
        "methodIdentifiers": {
          "addComment(string,uint256,string,string,address)": "93ec02f1",
          "addressToLastGetMetaverseToken(address)": "bddff4d8",
          "buyItem(string,address,uint256)": "d41aab23",
          "changeListingVisibility(string,bool)": "990d6459",
          "get1000MetaverseToken()": "e607a8ba",
          "getAllUserListings()": "9992b606",
          "getListingByProductCode(string)": "bd623642",
          "getListingByProductType(string)": "9dee74d5",
          "getProceeds(address,string)": "a39249b8",
          "getUserListing()": "7791b330",
          "getUserProfile(address)": "987ee156",
          "listItem(uint256,string,string,string,string,string,string,string,string,uint256)": "1a13cc59",
          "metaverseToken()": "3829f313",
          "productCodeCommentToAddress(string,address)": "e4ba3747",
          "productCodeExists(string)": "1cad3ac5",
          "setUserProfile(string,string)": "016363fa",
          "updateListing(string,uint256,string,string,string,string,string)": "318bb5c7",
          "withdrawProceeds(string)": "a97ce3c2"
        }
      }
    }
  }
}