{
  "contracts/MetaverseMarketplace.sol": {
    "MetaverseMarketplace": {
      "abi": [
        {
          "inputs": [
            {
              "internalType": "address",
              "name": "_metaverseTokenAddress",
              "type": "address"
            }
          ],
          "stateMutability": "nonpayable",
          "type": "constructor"
        },
        {
          "inputs": [
            {
              "internalType": "address",
              "name": "senderAddress",
              "type": "address"
            }
          ],
          "name": "MetaverseMarketplace__AddressLessThan1DayForMetaverseToken",
          "type": "error"
        },
        {
          "inputs": [],
          "name": "MetaverseMarketplace__NoProceeds",
          "type": "error"
        },
        {
          "inputs": [],
          "name": "MetaverseMarketplace__PriceMustBeAboveZero",
          "type": "error"
        },
        {
          "inputs": [
            {
              "internalType": "string",
              "name": "productCode",
              "type": "string"
            },
            {
              "internalType": "address",
              "name": "seller",
              "type": "address"
            },
            {
              "internalType": "uint256",
              "name": "price",
              "type": "uint256"
            }
          ],
          "name": "MetaverseMarketplace__PriceNotMet",
          "type": "error"
        },
        {
          "inputs": [],
          "name": "ReentrancyGuardReentrantCall",
          "type": "error"
        },
        {
          "anonymous": false,
          "inputs": [
            {
              "indexed": true,
              "internalType": "address",
              "name": "commenter",
              "type": "address"
            },
            {
              "indexed": true,
              "internalType": "string",
              "name": "comment",
              "type": "string"
            },
            {
              "indexed": true,
              "internalType": "string",
              "name": "productCode",
              "type": "string"
            },
            {
              "indexed": false,
              "internalType": "address",
              "name": "seller",
              "type": "address"
            }
          ],
          "name": "CommentAdded",
          "type": "event"
        },
        {
          "anonymous": false,
          "inputs": [
            {
              "indexed": true,
              "internalType": "address",
              "name": "buyer",
              "type": "address"
            },
            {
              "indexed": true,
              "internalType": "string",
              "name": "productCode",
              "type": "string"
            },
            {
              "indexed": true,
              "internalType": "uint256",
              "name": "price",
              "type": "uint256"
            }
          ],
          "name": "ItemBought",
          "type": "event"
        },
        {
          "anonymous": false,
          "inputs": [
            {
              "indexed": true,
              "internalType": "address",
              "name": "seller",
              "type": "address"
            },
            {
              "indexed": true,
              "internalType": "uint256",
              "name": "price",
              "type": "uint256"
            },
            {
              "indexed": true,
              "internalType": "string",
              "name": "productCode",
              "type": "string"
            },
            {
              "indexed": false,
              "internalType": "string",
              "name": "title",
              "type": "string"
            }
          ],
          "name": "ItemListed",
          "type": "event"
        },
        {
          "anonymous": false,
          "inputs": [
            {
              "indexed": true,
              "internalType": "address",
              "name": "seller",
              "type": "address"
            },
            {
              "indexed": true,
              "internalType": "string",
              "name": "productCode",
              "type": "string"
            },
            {
              "indexed": true,
              "internalType": "bool",
              "name": "publish",
              "type": "bool"
            }
          ],
          "name": "ItemPublished",
          "type": "event"
        },
        {
          "anonymous": false,
          "inputs": [
            {
              "indexed": true,
              "internalType": "address",
              "name": "seller",
              "type": "address"
            },
            {
              "indexed": true,
              "internalType": "string",
              "name": "productCode",
              "type": "string"
            },
            {
              "indexed": true,
              "internalType": "string",
              "name": "title",
              "type": "string"
            },
            {
              "indexed": false,
              "internalType": "uint256",
              "name": "price",
              "type": "uint256"
            }
          ],
          "name": "ListingUpdated",
          "type": "event"
        },
        {
          "anonymous": false,
          "inputs": [
            {
              "indexed": true,
              "internalType": "address",
              "name": "person",
              "type": "address"
            }
          ],
          "name": "MetaverseAirdrop",
          "type": "event"
        },
        {
          "anonymous": false,
          "inputs": [
            {
              "indexed": true,
              "internalType": "address",
              "name": "person",
              "type": "address"
            },
            {
              "indexed": true,
              "internalType": "string",
              "name": "currency",
              "type": "string"
            },
            {
              "indexed": true,
              "internalType": "uint256",
              "name": "amount",
              "type": "uint256"
            }
          ],
          "name": "ProceedsWithdrawn",
          "type": "event"
        },
        {
          "anonymous": false,
          "inputs": [
            {
              "indexed": true,
              "internalType": "address",
              "name": "owner",
              "type": "address"
            },
            {
              "indexed": true,
              "internalType": "string",
              "name": "username",
              "type": "string"
            },
            {
              "indexed": true,
              "internalType": "string",
              "name": "profileImageUrl",
              "type": "string"
            }
          ],
          "name": "SetUserProfile",
          "type": "event"
        },
        {
          "inputs": [
            {
              "internalType": "string",
              "name": "comment",
              "type": "string"
            },
            {
              "internalType": "uint256",
              "name": "rating",
              "type": "uint256"
            },
            {
              "internalType": "string",
              "name": "dateString",
              "type": "string"
            },
            {
              "internalType": "string",
              "name": "productCode",
              "type": "string"
            },
            {
              "internalType": "address",
              "name": "seller",
              "type": "address"
            }
          ],
          "name": "addComment",
          "outputs": [],
          "stateMutability": "nonpayable",
          "type": "function"
        },
        {
          "inputs": [
            {
              "internalType": "address",
              "name": "",
              "type": "address"
            }
          ],
          "name": "addressToLastGetMetaverseToken",
          "outputs": [
            {
              "internalType": "uint256",
              "name": "",
              "type": "uint256"
            }
          ],
          "stateMutability": "view",
          "type": "function"
        },
        {
          "inputs": [
            {
              "internalType": "string",
              "name": "productCode",
              "type": "string"
            },
            {
              "internalType": "address",
              "name": "seller",
              "type": "address"
            },
            {
              "internalType": "uint256",
              "name": "quantity",
              "type": "uint256"
            }
          ],
          "name": "buyItem",
          "outputs": [],
          "stateMutability": "payable",
          "type": "function"
        },
        {
          "inputs": [
            {
              "internalType": "string",
              "name": "productCode",
              "type": "string"
            },
            {
              "internalType": "bool",
              "name": "publish",
              "type": "bool"
            }
          ],
          "name": "changeListingVisibility",
          "outputs": [],
          "stateMutability": "nonpayable",
          "type": "function"
        },
        {
          "inputs": [],
          "name": "get1000MetaverseToken",
          "outputs": [],
          "stateMutability": "nonpayable",
          "type": "function"
        },
        {
          "inputs": [],
          "name": "getAllUserListings",
          "outputs": [
            {
              "components": [
                {
                  "internalType": "uint256",
                  "name": "price",
                  "type": "uint256"
                },
                {
                  "internalType": "address",
                  "name": "seller",
                  "type": "address"
                },
                {
                  "internalType": "bool",
                  "name": "published",
                  "type": "bool"
                },
                {
                  "internalType": "string",
                  "name": "productType",
                  "type": "string"
                },
                {
                  "internalType": "string",
                  "name": "title",
                  "type": "string"
                },
                {
                  "internalType": "string",
                  "name": "description",
                  "type": "string"
                },
                {
                  "internalType": "string",
                  "name": "imageUrl",
                  "type": "string"
                },
                {
                  "internalType": "string",
                  "name": "currency",
                  "type": "string"
                },
                {
                  "internalType": "string",
                  "name": "productUrl",
                  "type": "string"
                },
                {
                  "internalType": "string",
                  "name": "productInfo",
                  "type": "string"
                },
                {
                  "internalType": "string",
                  "name": "productCode",
                  "type": "string"
                },
                {
                  "internalType": "uint256",
                  "name": "nftTokenId",
                  "type": "uint256"
                },
                {
                  "components": [
                    {
                      "internalType": "address",
                      "name": "commenter",
                      "type": "address"
                    },
                    {
                      "internalType": "uint256",
                      "name": "rating",
                      "type": "uint256"
                    },
                    {
                      "internalType": "string",
                      "name": "comment",
                      "type": "string"
                    },
                    {
                      "internalType": "uint256",
                      "name": "time",
                      "type": "uint256"
                    },
                    {
                      "internalType": "string",
                      "name": "dateString",
                      "type": "string"
                    }
                  ],
                  "internalType": "struct MetaverseMarketplace.Comment[]",
                  "name": "comments",
                  "type": "tuple[]"
                },
                {
                  "components": [
                    {
                      "internalType": "address",
                      "name": "buyer",
                      "type": "address"
                    },
                    {
                      "internalType": "uint256",
                      "name": "quantity",
                      "type": "uint256"
                    },
                    {
                      "internalType": "uint256",
                      "name": "totalPrice",
                      "type": "uint256"
                    }
                  ],
                  "internalType": "struct MetaverseMarketplace.Buyer[]",
                  "name": "buyers",
                  "type": "tuple[]"
                }
              ],
              "internalType": "struct MetaverseMarketplace.Listing[]",
              "name": "",
              "type": "tuple[]"
            }
          ],
          "stateMutability": "view",
          "type": "function"
        },
        {
          "inputs": [
            {
              "internalType": "string",
              "name": "productCode",
              "type": "string"
            }
          ],
          "name": "getListingByProductCode",
          "outputs": [
            {
              "components": [
                {
                  "internalType": "uint256",
                  "name": "price",
                  "type": "uint256"
                },
                {
                  "internalType": "address",
                  "name": "seller",
                  "type": "address"
                },
                {
                  "internalType": "bool",
                  "name": "published",
                  "type": "bool"
                },
                {
                  "internalType": "string",
                  "name": "productType",
                  "type": "string"
                },
                {
                  "internalType": "string",
                  "name": "title",
                  "type": "string"
                },
                {
                  "internalType": "string",
                  "name": "description",
                  "type": "string"
                },
                {
                  "internalType": "string",
                  "name": "imageUrl",
                  "type": "string"
                },
                {
                  "internalType": "string",
                  "name": "currency",
                  "type": "string"
                },
                {
                  "internalType": "string",
                  "name": "productUrl",
                  "type": "string"
                },
                {
                  "internalType": "string",
                  "name": "productInfo",
                  "type": "string"
                },
                {
                  "internalType": "string",
                  "name": "productCode",
                  "type": "string"
                },
                {
                  "internalType": "uint256",
                  "name": "nftTokenId",
                  "type": "uint256"
                },
                {
                  "components": [
                    {
                      "internalType": "address",
                      "name": "commenter",
                      "type": "address"
                    },
                    {
                      "internalType": "uint256",
                      "name": "rating",
                      "type": "uint256"
                    },
                    {
                      "internalType": "string",
                      "name": "comment",
                      "type": "string"
                    },
                    {
                      "internalType": "uint256",
                      "name": "time",
                      "type": "uint256"
                    },
                    {
                      "internalType": "string",
                      "name": "dateString",
                      "type": "string"
                    }
                  ],
                  "internalType": "struct MetaverseMarketplace.Comment[]",
                  "name": "comments",
                  "type": "tuple[]"
                },
                {
                  "components": [
                    {
                      "internalType": "address",
                      "name": "buyer",
                      "type": "address"
                    },
                    {
                      "internalType": "uint256",
                      "name": "quantity",
                      "type": "uint256"
                    },
                    {
                      "internalType": "uint256",
                      "name": "totalPrice",
                      "type": "uint256"
                    }
                  ],
                  "internalType": "struct MetaverseMarketplace.Buyer[]",
                  "name": "buyers",
                  "type": "tuple[]"
                }
              ],
              "internalType": "struct MetaverseMarketplace.Listing",
              "name": "",
              "type": "tuple"
            }
          ],
          "stateMutability": "view",
          "type": "function"
        },
        {
          "inputs": [
            {
              "internalType": "string",
              "name": "productType",
              "type": "string"
            }
          ],
          "name": "getListingByProductType",
          "outputs": [
            {
              "components": [
                {
                  "internalType": "uint256",
                  "name": "price",
                  "type": "uint256"
                },
                {
                  "internalType": "address",
                  "name": "seller",
                  "type": "address"
                },
                {
                  "internalType": "bool",
                  "name": "published",
                  "type": "bool"
                },
                {
                  "internalType": "string",
                  "name": "productType",
                  "type": "string"
                },
                {
                  "internalType": "string",
                  "name": "title",
                  "type": "string"
                },
                {
                  "internalType": "string",
                  "name": "description",
                  "type": "string"
                },
                {
                  "internalType": "string",
                  "name": "imageUrl",
                  "type": "string"
                },
                {
                  "internalType": "string",
                  "name": "currency",
                  "type": "string"
                },
                {
                  "internalType": "string",
                  "name": "productUrl",
                  "type": "string"
                },
                {
                  "internalType": "string",
                  "name": "productInfo",
                  "type": "string"
                },
                {
                  "internalType": "string",
                  "name": "productCode",
                  "type": "string"
                },
                {
                  "internalType": "uint256",
                  "name": "nftTokenId",
                  "type": "uint256"
                },
                {
                  "components": [
                    {
                      "internalType": "address",
                      "name": "commenter",
                      "type": "address"
                    },
                    {
                      "internalType": "uint256",
                      "name": "rating",
                      "type": "uint256"
                    },
                    {
                      "internalType": "string",
                      "name": "comment",
                      "type": "string"
                    },
                    {
                      "internalType": "uint256",
                      "name": "time",
                      "type": "uint256"
                    },
                    {
                      "internalType": "string",
                      "name": "dateString",
                      "type": "string"
                    }
                  ],
                  "internalType": "struct MetaverseMarketplace.Comment[]",
                  "name": "comments",
                  "type": "tuple[]"
                },
                {
                  "components": [
                    {
                      "internalType": "address",
                      "name": "buyer",
                      "type": "address"
                    },
                    {
                      "internalType": "uint256",
                      "name": "quantity",
                      "type": "uint256"
                    },
                    {
                      "internalType": "uint256",
                      "name": "totalPrice",
                      "type": "uint256"
                    }
                  ],
                  "internalType": "struct MetaverseMarketplace.Buyer[]",
                  "name": "buyers",
                  "type": "tuple[]"
                }
              ],
              "internalType": "struct MetaverseMarketplace.Listing[]",
              "name": "",
              "type": "tuple[]"
            }
          ],
          "stateMutability": "view",
          "type": "function"
        },
        {
          "inputs": [
            {
              "internalType": "address",
              "name": "seller",
              "type": "address"
            },
            {
              "internalType": "string",
              "name": "currency",
              "type": "string"
            }
          ],
          "name": "getProceeds",
          "outputs": [
            {
              "internalType": "uint256",
              "name": "",
              "type": "uint256"
            }
          ],
          "stateMutability": "view",
          "type": "function"
        },
        {
          "inputs": [],
          "name": "getUserListing",
          "outputs": [
            {
              "components": [
                {
                  "internalType": "uint256",
                  "name": "price",
                  "type": "uint256"
                },
                {
                  "internalType": "address",
                  "name": "seller",
                  "type": "address"
                },
                {
                  "internalType": "bool",
                  "name": "published",
                  "type": "bool"
                },
                {
                  "internalType": "string",
                  "name": "productType",
                  "type": "string"
                },
                {
                  "internalType": "string",
                  "name": "title",
                  "type": "string"
                },
                {
                  "internalType": "string",
                  "name": "description",
                  "type": "string"
                },
                {
                  "internalType": "string",
                  "name": "imageUrl",
                  "type": "string"
                },
                {
                  "internalType": "string",
                  "name": "currency",
                  "type": "string"
                },
                {
                  "internalType": "string",
                  "name": "productUrl",
                  "type": "string"
                },
                {
                  "internalType": "string",
                  "name": "productInfo",
                  "type": "string"
                },
                {
                  "internalType": "string",
                  "name": "productCode",
                  "type": "string"
                },
                {
                  "internalType": "uint256",
                  "name": "nftTokenId",
                  "type": "uint256"
                },
                {
                  "components": [
                    {
                      "internalType": "address",
                      "name": "commenter",
                      "type": "address"
                    },
                    {
                      "internalType": "uint256",
                      "name": "rating",
                      "type": "uint256"
                    },
                    {
                      "internalType": "string",
                      "name": "comment",
                      "type": "string"
                    },
                    {
                      "internalType": "uint256",
                      "name": "time",
                      "type": "uint256"
                    },
                    {
                      "internalType": "string",
                      "name": "dateString",
                      "type": "string"
                    }
                  ],
                  "internalType": "struct MetaverseMarketplace.Comment[]",
                  "name": "comments",
                  "type": "tuple[]"
                },
                {
                  "components": [
                    {
                      "internalType": "address",
                      "name": "buyer",
                      "type": "address"
                    },
                    {
                      "internalType": "uint256",
                      "name": "quantity",
                      "type": "uint256"
                    },
                    {
                      "internalType": "uint256",
                      "name": "totalPrice",
                      "type": "uint256"
                    }
                  ],
                  "internalType": "struct MetaverseMarketplace.Buyer[]",
                  "name": "buyers",
                  "type": "tuple[]"
                }
              ],
              "internalType": "struct MetaverseMarketplace.Listing[]",
              "name": "",
              "type": "tuple[]"
            }
          ],
          "stateMutability": "view",
          "type": "function"
        },
        {
          "inputs": [
            {
              "internalType": "address",
              "name": "profileOwner",
              "type": "address"
            }
          ],
          "name": "getUserProfile",
          "outputs": [
            {
              "components": [
                {
                  "internalType": "string",
                  "name": "username",
                  "type": "string"
                },
                {
                  "internalType": "string",
                  "name": "profileImageUrl",
                  "type": "string"
                }
              ],
              "internalType": "struct MetaverseMarketplace.UserProfile",
              "name": "",
              "type": "tuple"
            }
          ],
          "stateMutability": "view",
          "type": "function"
        },
        {
          "inputs": [
            {
              "internalType": "uint256",
              "name": "price",
              "type": "uint256"
            },
            {
              "internalType": "string",
              "name": "productType",
              "type": "string"
            },
            {
              "internalType": "string",
              "name": "title",
              "type": "string"
            },
            {
              "internalType": "string",
              "name": "description",
              "type": "string"
            },
            {
              "internalType": "string",
              "name": "imageUrl",
              "type": "string"
            },
            {
              "internalType": "string",
              "name": "currency",
              "type": "string"
            },
            {
              "internalType": "string",
              "name": "productUrl",
              "type": "string"
            },
            {
              "internalType": "string",
              "name": "productInfo",
              "type": "string"
            },
            {
              "internalType": "string",
              "name": "productCode",
              "type": "string"
            },
            {
              "internalType": "uint256",
              "name": "nftTokenId",
              "type": "uint256"
            }
          ],
          "name": "listItem",
          "outputs": [],
          "stateMutability": "nonpayable",
          "type": "function"
        },
        {
          "inputs": [],
          "name": "metaverseToken",
          "outputs": [
            {
              "internalType": "contract IERC20",
              "name": "",
              "type": "address"
            }
          ],
          "stateMutability": "view",
          "type": "function"
        },
        {
          "inputs": [
            {
              "internalType": "string",
              "name": "productCode",
              "type": "string"
            }
          ],
          "name": "productCodeExists",
          "outputs": [
            {
              "internalType": "bool",
              "name": "",
              "type": "bool"
            }
          ],
          "stateMutability": "view",
          "type": "function"
        },
        {
          "inputs": [
            {
              "internalType": "string",
              "name": "newUsername",
              "type": "string"
            },
            {
              "internalType": "string",
              "name": "profileImageUrl",
              "type": "string"
            }
          ],
          "name": "setUserProfile",
          "outputs": [],
          "stateMutability": "nonpayable",
          "type": "function"
        },
        {
          "inputs": [
            {
              "internalType": "string",
              "name": "productCode",
              "type": "string"
            },
            {
              "internalType": "uint256",
              "name": "price",
              "type": "uint256"
            },
            {
              "internalType": "string",
              "name": "title",
              "type": "string"
            },
            {
              "internalType": "string",
              "name": "description",
              "type": "string"
            },
            {
              "internalType": "string",
              "name": "productInfo",
              "type": "string"
            },
            {
              "internalType": "string",
              "name": "productUrl",
              "type": "string"
            },
            {
              "internalType": "string",
              "name": "imageUrl",
              "type": "string"
            }
          ],
          "name": "updateListing",
          "outputs": [],
          "stateMutability": "nonpayable",
          "type": "function"
        },
        {
          "inputs": [
            {
              "internalType": "string",
              "name": "currency",
              "type": "string"
            }
          ],
          "name": "withdrawProceeds",
          "outputs": [],
          "stateMutability": "nonpayable",
          "type": "function"
        }
      ],
      "evm": {
        "bytecode": {
          "linkReferences": {},
          "object": "60803461007b57601f62002cfb38819003918201601f19168301916001600160401b038311848410176100805780849260209460405283398101031261007b57516001600160a01b0381169081900361007b576001600055600480546001600160a01b031916919091179055604051612c649081620000978239f35b600080fd5b634e487b7160e01b600052604160045260246000fdfe608060405260048036101561001357600080fd5b600090813560e01c8063016363fa1461128a5780631a13cc59146110ac5780631cad3ac514611068578063318bb5c714610da45780633829f31314610d7d5780637791b33014610cfd57806393ec02f114610af0578063987ee15614610a51578063990d6459146109135780639992b606146108875780639dee74d5146107e9578063a39249b81461076e578063a97ce3c214610525578063bd623642146104d2578063bddff4d814610496578063d41aab23146101eb5763e607a8ba146100da57600080fd5b346101e757816003193601126101e7573382526003602052604082205442034281116101d45762015180116101bc576020829133835260038252426040842055604460018060a01b0382541691604051948593849263a9059cbb60e01b84523390840152683635c9adc5dea0000060248401525af180156101b157610183575b50337f561f98adfb5df58a7c3c03f4ada643cc46c1a5291389819dbd6d01fe490481498280a280f35b6101a39060203d81116101aa575b61019b81836115e4565b8101906129d9565b503861015a565b503d610191565b6040513d84823e3d90fd5b6024906040519063fca47e3160e01b82523390820152fd5b634e487b7160e01b835260118252602483fd5b5080fd5b506060806003193601126104925781356001600160401b03811161048e576102169036908401611620565b90602492833560018060a01b039182821680920361048a5760449586359360028954146104795760028955885b60055481101561046b5761026b88610266600961025f8561191e565b50016126bf565b612763565b61027d57610278906126b0565b610243565b9495969761029361028d8761191e565b506128eb565b97602095868a019284845116331461042a578a51918234106103f9575050505087518088029088820414881517156103e757604051976102d2896115ae565b338952868901526040880152511688526001938484526103098460408b2060e08a015190826040519483868095519384920161166c565b8201908152030190208054903482018092116103e75755600c9061032c9061191e565b500191825494600160401b8610156103d55785018084558510156103c457505086528520825160039092020180546001600160a01b0319166001600160a01b039290921691909117815560208201516001820155604090910151600290910155610397905191612690565b337f253fcd678c758e0e03dbf3a0243701c7439c306a61158b3c522a8119772990108480a45b6001815580f35b634e487b7160e01b89526032905287fd5b50634e487b7160e01b89526041905287fd5b634e487b7160e01b8b5260118552838bfd5b918691889361041f8f604051978897630e90db8560e31b8952880152606487019061168f565b938501528301520390fd5b867f43616e206e6f742062757920796f7572206f776e2070726f6475637421000000606492601d898c6040519562461bcd60e51b8752860152840152820152fd5b5050505050505050506103bd565b604051633ee5aeb560e01b81528390fd5b8680fd5b8380fd5b8280fd5b82346104cf5760203660031901126104cf576020906040906001600160a01b036104be611908565b168152600383522054604051908152f35b80fd5b5090346104cf5760203660031901126104cf578135906001600160401b0382116104cf5761052161050d61050836858701611620565b612ac0565b6040519182916020835260208301906116b4565b0390f35b50346101e7576020806003193601126104925781356001600160401b03811161048e576105559036908401611620565b338452600182526040842060405183818451938286019461057781848861166c565b8201908152030190205490811561075d576105aa848792338452600182526040842060405180948193895192839161166c565b820190815203019020556105d86040516105c381611546565b600381526208aa8960eb1b8582015283612763565b1561068f578480808084335af191823d1561068a573d6105f781611605565b9061060560405192836115e4565b815287863d92013e5b610655575b50501561061f57505080f35b60405162461bcd60e51b815291820152601060248201526f5472616e73666572206661696c65642160801b604482015260649150fd5b61065e90612690565b337ff2ca3efe12f71d386ef0fd2b75ebbef402882711943ccb42d5bdb696fa7a13418780a43880610613565b61060e565b906106b890604094939451906106a482611546565b848252631351551560e21b86830152612763565b6106c3575b50505080f35b81546001600160a01b031691678ac7230489e800008202918204678ac7230489e7ffff190161074a57906044849286604051958694859363a9059cbb60e01b8552339085015260248401525af1801561073f57610721575b806106bd565b8161073792903d106101aa5761019b81836115e4565b50388061071b565b6040513d85823e3d90fd5b634e487b7160e01b855260119052602484fd5b60405163125d726b60e21b81528590fd5b50346101e75760403660031901126101e757610788611908565b906024356001600160401b03811161048e579160406020946107b186946107d796369101611620565b6001600160a01b039093168152600184522060405182519094859382908590870161166c565b82019081520301902054604051908152f35b50346101e75760203660031901126101e7578035906001600160401b0382116104925761081891369101611620565b6005549061082582612a5c565b925b82811061083c576040518061052186826118a6565b8061085283610266600261025f61085b9661191e565b610860576126b0565b610827565b61086c61028d8261191e565b6108768287612aac565b526108818186612aac565b506126b0565b82346104cf57806003193601126104cf576005546108a4816127b8565b906108b260405192836115e4565b808252600583527f036b6384b5eca791c62761152d0c79bb0604c104a5fb6f4eb0703f3154bb3db09260208084015b8383106108f6576040518061052187826118a6565b600d82600192610905896128eb565b8152019601920191946108e1565b50346101e75760403660031901126101e75780356001600160401b038111610492576109429036908301611620565b602490813580151592838203610a4d57855b600554811015610a445761097084610266600961025f8561191e565b6109825761097d906126b0565b610954565b90919293946109908261191e565b506001908101549093906001600160a01b03163303610a09575050916109dc916109bd6109e1959461191e565b5001805460ff60a01b191691151560a01b60ff60a01b16919091179055565b612690565b337f51dabe03dbc9869cdc42f327348910c055732b793c7aaade368a32d8f3658e1e8480a480f35b90601560649260206040519362461bcd60e51b8552840152820152744e6f7420796f7572206f776e2070726f647563742160581b6044820152fd5b50505050505080f35b8580fd5b82346104cf576020806003193601126101e75761052160408093610a73611908565b6060858451610a8181611546565b82815201526001600160a01b03168152600284522083519290610add90610abf90600190610aae87611546565b610ab7816126bf565b8752016126bf565b9180850192835285519586958287525191860152606085019061168f565b9051838203601f1901604085015261168f565b50346101e75760a03660031901126101e7576001600160401b0390803582811161048e57610b219036908301611620565b9060248035926044928335868111610cf957610b409036908301611620565b906064968735908111610cf557610b5a9036908301611620565b946001600160a01b0360848035828116979294929190889003610cf1578b5b60058054821015610ce157610b968b610266600961025f8661191e565b610ba95750610ba4906126b0565b610b79565b95969798999a9b90929394610bbd8461191e565b5097600180990154163314610c9457505050610bda600b9161191e565b50019160405195610bea87611593565b33875260209a8b8801528760408801524260608801526080870152825494600160401b861015610c82578501808455851015610c71575050610c6493610c5e937f8bb52eee1b68032569fa2c483528d7d2b7db7824b9704ee675f720295622086596936109dc938c528a8c20910201611a0a565b93612690565b936040519283523392a480f35b634e487b7160e01b8b526032905289fd5b50634e487b7160e01b8b526041905289fd5b85917f43616e206e6f7420636f6d6d656e74206f6e20796f7572206f776e2070726f6464756374732160d81b9260258860206040519762461bcd60e51b8952880152860152840152820152fd5b5050505050505050505050505080f35b8b80fd5b8880fd5b8780fd5b82346104cf57806003193601126104cf57600554610d1a81612a5c565b915b818110610d31576040518061052185826118a6565b80610d3e610d579261191e565b50600101546001600160a01b03163314610d5c576126b0565b610d1c565b610d6861028d8261191e565b610d728286612aac565b526108818185612aac565b50346101e757816003193601126101e757546040516001600160a01b039091168152602090f35b50346101e75760e03660031901126101e7576001600160401b03813581811161048e57610dd49036908401611620565b60448035838111610a4d57610dec9036908601611620565b926064918235828111610cf957610e069036908801611620565b6084803584811161106457610e1e9036908a01611620565b9260a43585811161106057610e369036908b01611620565b9460c43590811161106057610e4e9036908b01611620565b918a5b60055481101561105257610e6d89610266600961025f8561191e565b610e7f57610e7a906126b0565b610e51565b96979899610e8c8861191e565b5060019081015490996001600160a01b0394909185163303611004575050505086610eb68761191e565b5001541695610ec48661191e565b50015492610ed18661191e565b5094610edc8761191e565b50610ee68861191e565b5093610ef18961191e565b50600a015495610f008a61191e565b5097610f0b8b61191e565b50996040519c610f1a8e611577565b6024358e5260208e015260ff60a092831c16151560408e0152610f3f906002016126bf565b60608d01528d60808d01528b015260c08a0152600601610f5e906126bf565b60e0890152610100880152610120870152600901610f7b906126bf565b610140860152610160850152600b01610f93906127cf565b610180840152600c01610fa59061286e565b6101a0830152610fb49061191e565b610fbe9291611c3a565b610fc790612690565b90610fd190612690565b906040516024358152339060207f384c5f98880fad6ed933597fe4becd24246db16d5a262945362c7ace0a0e47b591a480f35b907f43616e206e6f74206564697420616e6f7468657220706572736f6e2773207072656f647563742160d01b9260206040519562461bcd60e51b875286015260266024860152840152820152fd5b505050505050505050505080f35b8a80fd5b8980fd5b5090346104cf5760203660031901126104cf578135906001600160401b0382116104cf5760206110a261109d36858701611620565b612bec565b6040519015158152f35b50346101e7576101409081600319360112610492578035906001600160401b0390602435828111610a4d576110e49036908301611620565b9060443583811161048a576110fc9036908301611620565b94606435848111610cf9576111149036908401611620565b93608435818111610cf55761112c9036908501611620565b60a435828111611064576111439036908601611620565b60c4358381116110605761115a9036908701611620565b9160e435848111610cf1576111729036908801611620565b9361010435908111610cf15761118b9036908801611620565b9789156112795790889594939291604051986111a68a611577565b8b8a523360208b01528d60408b015260608a01528b60808a015260a089015260c088015260e087015261010086015261012085015283015261012435610160830152606061018083015260606101a083015260055490600160401b821015611266575061122792916112218260016109dc940160055561191e565b90611c3a565b917f9ec512f6157daf19471fdb4abc754cd622ce54571fda42c4c416ff378b04158360405160208152806112603394602083019061168f565b0390a480f35b634e487b7160e01b875260419052602486fd5b604051635ebde5f560e11b81528790fd5b50346101e75760403660031901126101e7576001600160401b0390803582811161048e576112bb9036908301611620565b602435838111611542576112d29036908401611620565b92604051906112e082611546565b828252602091828101928684523388526002815260408820915190815184811161152f578061130f855461196f565b938b601f9585878211611503575b50505083908583116001146114a0578c92611495575b50508160011b916000199060031b1c19161783555b600180930194519687519485116114825750611364855461196f565b82811161144c575b50809184116001146113de5750918080926113a49695946113aa988b946113d3575b50501b916000199060031b1c1916179055612690565b91612690565b90337f8fb63d21cd1646c22e90408d0771d27886ed526a60064418e44b4e4a35bf6a078480a480f35b01519250388061138e565b91939495601f198416868a52838a20938a905b828210611435575050916113aa97959391856113a49896941061141c575b505050811b019055612690565b015160001960f88460031b161c1916905538808061140f565b8088869782949787015181550196019401906113f1565b61147390868b52828b208480880160051c820192858910611479575b0160051c01906119a9565b3861136c565b92508192611468565b634e487b7160e01b8a5260419052602489fd5b015190503880611333565b868d52848d209250601f1984168d5b868282106114ed5750509084600195949392106114d4575b505050811b018355611348565b015160001960f88460031b161c191690553880806114c7565b60018596829396860151815501950193016114af565b82896115279452208780860160051c820192888710611479570160051c01906119a9565b8b388561131d565b634e487b7160e01b8a526041885260248afd5b8480fd5b604081019081106001600160401b0382111761156157604052565b634e487b7160e01b600052604160045260246000fd5b6101c081019081106001600160401b0382111761156157604052565b60a081019081106001600160401b0382111761156157604052565b606081019081106001600160401b0382111761156157604052565b602081019081106001600160401b0382111761156157604052565b90601f801991011681019081106001600160401b0382111761156157604052565b6001600160401b03811161156157601f01601f191660200190565b81601f820112156116675780359061163782611605565b9261164560405194856115e4565b8284526020838301011161166757816000926020809301838601378301015290565b600080fd5b60005b83811061167f5750506000910152565b818101518382015260200161166f565b906020916116a88151809281855285808601910161166c565b601f01601f1916010190565b908151815260018060a01b03906020828185015116818301526040928385015115158484015260606116f3818701516101c0808488015286019061168f565b9361170a608095868901518382038885015261168f565b61179061177c6117686117546117428c60c061173260a098898401518b82038b8d015261168f565b91015188820360c08a015261168f565b60e08d015187820360e089015261168f565b610100808d0151908783039088015261168f565b610120808c0151908683039087015261168f565b610140808b0151908583039086015261168f565b95610160808a01519084015261018096878a015197848203908501528751918282528782019088808560051b8501019a01946000935b85851061182d57505050505050506101a080970151968186039101528280875195868152019601946000925b858410611803575050505050505090565b865180518216895280860151898701528201518883015296820196958401956001909301926117f2565b9091929394959b9798999a8b8061188f8f6001948f8f92908f611877908c938e601f198d88030190525192835116855287830151888601528b81840151918601528b85019061168f565b9380820151908401520151908981840391015261168f565b9e01950195019395949291909b9a9998979b6117c6565b602080820190808352835180925260408301928160408460051b8301019501936000915b8483106118da5750505050505090565b90919293949584806118f8600193603f198682030187528a516116b4565b98019301930191949392906118ca565b600435906001600160a01b038216820361166757565b60055481101561195957600d906005600052027f036b6384b5eca791c62761152d0c79bb0604c104a5fb6f4eb0703f3154bb3db00190600090565b634e487b7160e01b600052603260045260246000fd5b90600182811c9216801561199f575b602083101461198957565b634e487b7160e01b600052602260045260246000fd5b91607f169161197e565b8181106119b4575050565b600081556001016119a9565b6119ca815461196f565b90816119d4575050565b81601f600093116001146119e75750555b565b908083918252611a06601f60208420940160051c8401600185016119a9565b5555565b60018060a01b038251166bffffffffffffffffffffffff60a01b825416178155602080830151916001928382015560028101916040850151918251936001600160401b039485811161156157611a60825461196f565b94601f95868111611c0c575b508490868311600114611b9e5791806004949260809694600092611b93575b5050600019600383901b1c191690891b1790555b606088015160038201550195015190815193841161156157611ac1865461196f565b838111611b65575b5080928411600114611b025750928293918392600094611af7575b50501b916000199060031b1c1916179055565b015192503880611ae4565b919083601f1981168760005284600020946000905b88838310611b4b5750505010611b32575b505050811b019055565b015160001960f88460031b161c19169055388080611b28565b858701518855909601959485019487935090810190611b17565b611b8d9087600052826000208580880160051c820192858910611479570160051c01906119a9565b38611ac9565b015190503880611a8b565b889291601f1983169185600052876000209260005b89828210611bf65750509160809795939185600498969410611bdd575b505050811b019055611a9f565b015160001960f88460031b161c19169055388080611bd0565b8385015186558d97909501949384019301611bb3565b611c349084600052866000208880860160051c820192898710611479570160051c01906119a9565b38611a6c565b919061267a57805182556020810151600183018054604084015160ff60a01b90151560a01b166001600160a01b039093166001600160a81b0319909116179190911790556002820160608201518051906001600160401b038211611561578190611ca4845461196f565b601f8111612648575b50602090601f83116001146125e2576000926125d7575b50508160011b916000199060031b1c19161790555b6003820160808201518051906001600160401b038211611561578190611cff845461196f565b601f81116125a5575b50602090601f831160011461253f57600092612534575b50508160011b916000199060031b1c19161790555b6004820160a08201518051906001600160401b038211611561578190611d5a845461196f565b601f8111612502575b50602090601f831160011461249c57600092612491575b50508160011b916000199060031b1c19161790555b6005820160c08201518051906001600160401b038211611561578190611db5845461196f565b601f811161245f575b50602090601f83116001146123f9576000926123ee575b50508160011b916000199060031b1c19161790555b60e08101519283516001600160401b03811161156157611e0d600685015461196f565b601f81116123b9575b50602094601f821160011461234d57948192939495600092612342575b50508160011b916000199060031b1c19161760068401555b6101008201519283516001600160401b03811161156157611e6f600783015461196f565b601f811161230d575b506020601f821160011461229e578192939495600092612293575b50508160011b916000199060031b1c19161760078201555b6101208301519283516001600160401b03811161156157611ecf600884015461196f565b601f811161225e575b506020601f82116001146121ef5781929394956000926121e4575b50508160011b916000199060031b1c19161760088301555b600982016101408201518051906001600160401b038211611561578190611f32845461196f565b601f81116121a7575b50602090601f831160011461214157600092612136575b50508160011b916000199060031b1c19161790555b610160810151600a8301556101808101518051600160401b9391600b8301908583116115615781548383558084106120cb575b506020019060005260206000206000915b8383106120ad5750505050600c6101a091019101518051928311611561578154838355808410612044575b506020019060005260206000206000915b838310611ff45750505050565b6003602082612038600194518690604060029160018060a01b038151166bffffffffffffffffffffffff60a01b855416178455602081015160018501550151910155565b01920192019190611fe7565b8060030290600382040361209757836003026003810485036120975783600052602060002091820191015b81811061207c5750611fd6565b8060006003925560006001820155600060028201550161206f565b634e487b7160e01b600052601160045260246000fd5b60056020826120bf6001945186611a0a565b01920192019190611fab565b8060050290600582040361209757836005026005810485036120975783600052602060002091820191015b8181106121035750611f9a565b806000600592556000600182015561211d600282016119c0565b60006003820155612130600482016119c0565b016120f6565b015190503880611f52565b6000858152602081209350601f198516905b81811061218f5750908460019594939210612176575b505050811b019055611f67565b015160001960f88460031b161c19169055388080612169565b92936020600181928786015181550195019301612153565b6121d490856000526020600020601f850160051c810191602086106121da575b601f0160051c01906119a9565b38611f3b565b90915081906121c7565b015190503880611ef3565b6008840160005260206000209060005b601f1984168110612246575060019394959683601f1981161061222d575b505050811b016008830155611f0b565b015160001960f88460031b161c1916905538808061221d565b9091602060018192858b0151815501930191016121ff565b61228d90600885016000526020600020601f840160051c810191602085106121da57601f0160051c01906119a9565b38611ed8565b015190503880611e93565b6007830160005260206000209060005b601f19841681106122f5575060019394959683601f198116106122dc575b505050811b016007820155611eab565b015160001960f88460031b161c191690553880806122cc565b9091602060018192858b0151815501930191016122ae565b61233c90600784016000526020600020601f840160051c810191602085106121da57601f0160051c01906119a9565b38611e78565b015190503880611e33565b601f198216956006860160005260206000209160005b8881106123a157508360019596979810612388575b505050811b016006840155611e4b565b015160001960f88460031b161c19169055388080612378565b91926020600181928685015181550194019201612363565b6123e890600686016000526020600020601f840160051c810191602085106121da57601f0160051c01906119a9565b38611e16565b015190503880611dd5565b6000858152602081209350601f198516905b818110612447575090846001959493921061242e575b505050811b019055611dea565b015160001960f88460031b161c19169055388080612421565b9293602060018192878601518155019501930161240b565b61248b90856000526020600020601f850160051c810191602086106121da57601f0160051c01906119a9565b38611dbe565b015190503880611d7a565b6000858152602081209350601f198516905b8181106124ea57509084600195949392106124d1575b505050811b019055611d8f565b015160001960f88460031b161c191690553880806124c4565b929360206001819287860151815501950193016124ae565b61252e90856000526020600020601f850160051c810191602086106121da57601f0160051c01906119a9565b38611d63565b015190503880611d1f565b6000858152602081209350601f198516905b81811061258d5750908460019594939210612574575b505050811b019055611d34565b015160001960f88460031b161c19169055388080612567565b92936020600181928786015181550195019301612551565b6125d190856000526020600020601f850160051c810191602086106121da57601f0160051c01906119a9565b38611d08565b015190503880611cc4565b6000858152602081209350601f198516905b8181106126305750908460019594939210612617575b505050811b019055611cd9565b015160001960f88460031b161c1916905538808061260a565b929360206001819287860151815501950193016125f4565b61267490856000526020600020601f850160051c810191602086106121da57601f0160051c01906119a9565b38611cad565b634e487b7160e01b600052600060045260246000fd5b6126a89060206040519282848094519384920161166c565b810103902090565b60001981146120975760010190565b90604051918260008254926126d38461196f565b90818452600194858116908160001461274057506001146126fd575b50506119e5925003836115e4565b9093915060005260209081600020936000915b8183106127285750506119e5935082010138806126ef565b85548884018501529485019487945091830191612710565b9150506119e594506020925060ff191682840152151560051b82010138806126ef565b9060405191602092612791848281612784818301968781519384920161166c565b81010380845201826115e4565b519020916127b1604051918281612784818301968781519384920161166c565b5190201490565b6001600160401b0381116115615760051b60200190565b9081546127db816127b8565b926040936127eb855191826115e4565b828152809460208092019260005281600020906000935b85851061281157505050505050565b600584600192845161282281611593565b848060a01b0387541681528487015483820152612841600288016126bf565b868201526003870154606082015261285b600488016126bf565b6080820152815201930194019391612802565b90815461287a816127b8565b9260409361288a855191826115e4565b828152809460208092019260005281600020906000935b8585106128b057505050505050565b60038460019284516128c1816115ae565b848060a01b03875416815284870154838201526002870154868201528152019301940193916128a1565b906040516128f881611577565b6101a06129d4600c83958054855260ff600182015460018060a01b038116602088015260a01c1615156040860152612932600282016126bf565b6060860152612943600382016126bf565b6080860152612954600482016126bf565b60a0860152612965600582016126bf565b60c0860152612976600682016126bf565b60e0860152612987600782016126bf565b610100860152612999600882016126bf565b6101208601526129ab600982016126bf565b610140860152600a8101546101608601526129c8600b82016127cf565b6101808601520161286e565b910152565b90816020910312611667575180151581036116675790565b604051906129fe82611577565b816000815260006020820152600060408201526101a060609182808201528260808201528260a08201528260c08201528260e08201528261010082015282610120820152826101408201526000610160820152826101808201520152565b90612a66826127b8565b612a7360405191826115e4565b8281528092612a84601f19916127b8565b019060005b828110612a9557505050565b602090612aa06129f1565b82828501015201612a89565b80518210156119595760209160051b010190565b612ac86129f1565b506005549060005b828110612bb6575050506040805190612ae882611577565b60008252600060208301526000818301528051612b04816115c9565b6000815260608301528051612b18816115c9565b6000815260808301528051612b2c816115c9565b6000815260a08301528051612b40816115c9565b6000815260c08301528051612b54816115c9565b6000815260e08301528051612b68816115c9565b600081526101008301528051612b7d816115c9565b6000815261012083015251612b91816115c9565b600081526101408201526000610160820152606061018082015260606101a082015290565b612bc882610266600961025f8561191e565b612bda57612bd5906126b0565b612ad0565b612be9925061028d915061191e565b90565b6005549060005b828110612c0257505050600090565b612c1482610266600961025f8561191e565b612c2657612c21906126b0565b612bf3565b50505060019056fea2646970667358221220a80ddbf2024dfa3e6ef9829ac08326fc7a674cf642289220423d687193d653c964736f6c63430008140033",
          "opcodes": "PUSH1 0x80 CALLVALUE PUSH2 0x7B JUMPI PUSH1 0x1F PUSH3 0x2CFB CODESIZE DUP2 SWAP1 SUB SWAP2 DUP3 ADD PUSH1 0x1F NOT AND DUP4 ADD SWAP2 PUSH1 0x1 PUSH1 0x1 PUSH1 0x40 SHL SUB DUP4 GT DUP5 DUP5 LT OR PUSH2 0x80 JUMPI DUP1 DUP5 SWAP3 PUSH1 0x20 SWAP5 PUSH1 0x40 MSTORE DUP4 CODECOPY DUP2 ADD SUB SLT PUSH2 0x7B JUMPI MLOAD PUSH1 0x1 PUSH1 0x1 PUSH1 0xA0 SHL SUB DUP2 AND SWAP1 DUP2 SWAP1 SUB PUSH2 0x7B JUMPI PUSH1 0x1 PUSH1 0x0 SSTORE PUSH1 0x4 DUP1 SLOAD PUSH1 0x1 PUSH1 0x1 PUSH1 0xA0 SHL SUB NOT AND SWAP2 SWAP1 SWAP2 OR SWAP1 SSTORE PUSH1 0x40 MLOAD PUSH2 0x2C64 SWAP1 DUP2 PUSH3 0x97 DUP3 CODECOPY RETURN JUMPDEST PUSH1 0x0 DUP1 REVERT JUMPDEST PUSH4 0x4E487B71 PUSH1 0xE0 SHL PUSH1 0x0 MSTORE PUSH1 0x41 PUSH1 0x4 MSTORE PUSH1 0x24 PUSH1 0x0 REVERT INVALID PUSH1 0x80 PUSH1 0x40 MSTORE PUSH1 0x4 DUP1 CALLDATASIZE LT ISZERO PUSH2 0x13 JUMPI PUSH1 0x0 DUP1 REVERT JUMPDEST PUSH1 0x0 SWAP1 DUP2 CALLDATALOAD PUSH1 0xE0 SHR DUP1 PUSH4 0x16363FA EQ PUSH2 0x128A JUMPI DUP1 PUSH4 0x1A13CC59 EQ PUSH2 0x10AC JUMPI DUP1 PUSH4 0x1CAD3AC5 EQ PUSH2 0x1068 JUMPI DUP1 PUSH4 0x318BB5C7 EQ PUSH2 0xDA4 JUMPI DUP1 PUSH4 0x3829F313 EQ PUSH2 0xD7D JUMPI DUP1 PUSH4 0x7791B330 EQ PUSH2 0xCFD JUMPI DUP1 PUSH4 0x93EC02F1 EQ PUSH2 0xAF0 JUMPI DUP1 PUSH4 0x987EE156 EQ PUSH2 0xA51 JUMPI DUP1 PUSH4 0x990D6459 EQ PUSH2 0x913 JUMPI DUP1 PUSH4 0x9992B606 EQ PUSH2 0x887 JUMPI DUP1 PUSH4 0x9DEE74D5 EQ PUSH2 0x7E9 JUMPI DUP1 PUSH4 0xA39249B8 EQ PUSH2 0x76E JUMPI DUP1 PUSH4 0xA97CE3C2 EQ PUSH2 0x525 JUMPI DUP1 PUSH4 0xBD623642 EQ PUSH2 0x4D2 JUMPI DUP1 PUSH4 0xBDDFF4D8 EQ PUSH2 0x496 JUMPI DUP1 PUSH4 0xD41AAB23 EQ PUSH2 0x1EB JUMPI PUSH4 0xE607A8BA EQ PUSH2 0xDA JUMPI PUSH1 0x0 DUP1 REVERT JUMPDEST CALLVALUE PUSH2 0x1E7 JUMPI DUP2 PUSH1 0x3 NOT CALLDATASIZE ADD SLT PUSH2 0x1E7 JUMPI CALLER DUP3 MSTORE PUSH1 0x3 PUSH1 0x20 MSTORE PUSH1 0x40 DUP3 KECCAK256 SLOAD TIMESTAMP SUB TIMESTAMP DUP2 GT PUSH2 0x1D4 JUMPI PUSH3 0x15180 GT PUSH2 0x1BC JUMPI PUSH1 0x20 DUP3 SWAP2 CALLER DUP4 MSTORE PUSH1 0x3 DUP3 MSTORE TIMESTAMP PUSH1 0x40 DUP5 KECCAK256 SSTORE PUSH1 0x44 PUSH1 0x1 DUP1 PUSH1 0xA0 SHL SUB DUP3 SLOAD AND SWAP2 PUSH1 0x40 MLOAD SWAP5 DUP6 SWAP4 DUP5 SWAP3 PUSH4 0xA9059CBB PUSH1 0xE0 SHL DUP5 MSTORE CALLER SWAP1 DUP5 ADD MSTORE PUSH9 0x3635C9ADC5DEA00000 PUSH1 0x24 DUP5 ADD MSTORE GAS CALL DUP1 ISZERO PUSH2 0x1B1 JUMPI PUSH2 0x183 JUMPI JUMPDEST POP CALLER PUSH32 0x561F98ADFB5DF58A7C3C03F4ADA643CC46C1A5291389819DBD6D01FE49048149 DUP3 DUP1 LOG2 DUP1 RETURN JUMPDEST PUSH2 0x1A3 SWAP1 PUSH1 0x20 RETURNDATASIZE DUP2 GT PUSH2 0x1AA JUMPI JUMPDEST PUSH2 0x19B DUP2 DUP4 PUSH2 0x15E4 JUMP JUMPDEST DUP2 ADD SWAP1 PUSH2 0x29D9 JUMP JUMPDEST POP CODESIZE PUSH2 0x15A JUMP JUMPDEST POP RETURNDATASIZE PUSH2 0x191 JUMP JUMPDEST PUSH1 0x40 MLOAD RETURNDATASIZE DUP5 DUP3 RETURNDATACOPY RETURNDATASIZE SWAP1 REVERT JUMPDEST PUSH1 0x24 SWAP1 PUSH1 0x40 MLOAD SWAP1 PUSH4 0xFCA47E31 PUSH1 0xE0 SHL DUP3 MSTORE CALLER SWAP1 DUP3 ADD MSTORE REVERT JUMPDEST PUSH4 0x4E487B71 PUSH1 0xE0 SHL DUP4 MSTORE PUSH1 0x11 DUP3 MSTORE PUSH1 0x24 DUP4 REVERT JUMPDEST POP DUP1 REVERT JUMPDEST POP PUSH1 0x60 DUP1 PUSH1 0x3 NOT CALLDATASIZE ADD SLT PUSH2 0x492 JUMPI DUP2 CALLDATALOAD PUSH1 0x1 PUSH1 0x1 PUSH1 0x40 SHL SUB DUP2 GT PUSH2 0x48E JUMPI PUSH2 0x216 SWAP1 CALLDATASIZE SWAP1 DUP5 ADD PUSH2 0x1620 JUMP JUMPDEST SWAP1 PUSH1 0x24 SWAP3 DUP4 CALLDATALOAD PUSH1 0x1 DUP1 PUSH1 0xA0 SHL SUB SWAP2 DUP3 DUP3 AND DUP1 SWAP3 SUB PUSH2 0x48A JUMPI PUSH1 0x44 SWAP6 DUP7 CALLDATALOAD SWAP4 PUSH1 0x2 DUP10 SLOAD EQ PUSH2 0x479 JUMPI PUSH1 0x2 DUP10 SSTORE DUP9 JUMPDEST PUSH1 0x5 SLOAD DUP2 LT ISZERO PUSH2 0x46B JUMPI PUSH2 0x26B DUP9 PUSH2 0x266 PUSH1 0x9 PUSH2 0x25F DUP6 PUSH2 0x191E JUMP JUMPDEST POP ADD PUSH2 0x26BF JUMP JUMPDEST PUSH2 0x2763 JUMP JUMPDEST PUSH2 0x27D JUMPI PUSH2 0x278 SWAP1 PUSH2 0x26B0 JUMP JUMPDEST PUSH2 0x243 JUMP JUMPDEST SWAP5 SWAP6 SWAP7 SWAP8 PUSH2 0x293 PUSH2 0x28D DUP8 PUSH2 0x191E JUMP JUMPDEST POP PUSH2 0x28EB JUMP JUMPDEST SWAP8 PUSH1 0x20 SWAP6 DUP7 DUP11 ADD SWAP3 DUP5 DUP5 MLOAD AND CALLER EQ PUSH2 0x42A JUMPI DUP11 MLOAD SWAP2 DUP3 CALLVALUE LT PUSH2 0x3F9 JUMPI POP POP POP POP DUP8 MLOAD DUP1 DUP9 MUL SWAP1 DUP9 DUP3 DIV EQ DUP9 ISZERO OR ISZERO PUSH2 0x3E7 JUMPI PUSH1 0x40 MLOAD SWAP8 PUSH2 0x2D2 DUP10 PUSH2 0x15AE JUMP JUMPDEST CALLER DUP10 MSTORE DUP7 DUP10 ADD MSTORE PUSH1 0x40 DUP9 ADD MSTORE MLOAD AND DUP9 MSTORE PUSH1 0x1 SWAP4 DUP5 DUP5 MSTORE PUSH2 0x309 DUP5 PUSH1 0x40 DUP12 KECCAK256 PUSH1 0xE0 DUP11 ADD MLOAD SWAP1 DUP3 PUSH1 0x40 MLOAD SWAP5 DUP4 DUP7 DUP1 SWAP6 MLOAD SWAP4 DUP5 SWAP3 ADD PUSH2 0x166C JUMP JUMPDEST DUP3 ADD SWAP1 DUP2 MSTORE SUB ADD SWAP1 KECCAK256 DUP1 SLOAD SWAP1 CALLVALUE DUP3 ADD DUP1 SWAP3 GT PUSH2 0x3E7 JUMPI SSTORE PUSH1 0xC SWAP1 PUSH2 0x32C SWAP1 PUSH2 0x191E JUMP JUMPDEST POP ADD SWAP2 DUP3 SLOAD SWAP5 PUSH1 0x1 PUSH1 0x40 SHL DUP7 LT ISZERO PUSH2 0x3D5 JUMPI DUP6 ADD DUP1 DUP5 SSTORE DUP6 LT ISZERO PUSH2 0x3C4 JUMPI POP POP DUP7 MSTORE DUP6 KECCAK256 DUP3 MLOAD PUSH1 0x3 SWAP1 SWAP3 MUL ADD DUP1 SLOAD PUSH1 0x1 PUSH1 0x1 PUSH1 0xA0 SHL SUB NOT AND PUSH1 0x1 PUSH1 0x1 PUSH1 0xA0 SHL SUB SWAP3 SWAP1 SWAP3 AND SWAP2 SWAP1 SWAP2 OR DUP2 SSTORE PUSH1 0x20 DUP3 ADD MLOAD PUSH1 0x1 DUP3 ADD SSTORE PUSH1 0x40 SWAP1 SWAP2 ADD MLOAD PUSH1 0x2 SWAP1 SWAP2 ADD SSTORE PUSH2 0x397 SWAP1 MLOAD SWAP2 PUSH2 0x2690 JUMP JUMPDEST CALLER PUSH32 0x253FCD678C758E0E03DBF3A0243701C7439C306A61158B3C522A811977299010 DUP5 DUP1 LOG4 JUMPDEST PUSH1 0x1 DUP2 SSTORE DUP1 RETURN JUMPDEST PUSH4 0x4E487B71 PUSH1 0xE0 SHL DUP10 MSTORE PUSH1 0x32 SWAP1 MSTORE DUP8 REVERT JUMPDEST POP PUSH4 0x4E487B71 PUSH1 0xE0 SHL DUP10 MSTORE PUSH1 0x41 SWAP1 MSTORE DUP8 REVERT JUMPDEST PUSH4 0x4E487B71 PUSH1 0xE0 SHL DUP12 MSTORE PUSH1 0x11 DUP6 MSTORE DUP4 DUP12 REVERT JUMPDEST SWAP2 DUP7 SWAP2 DUP9 SWAP4 PUSH2 0x41F DUP16 PUSH1 0x40 MLOAD SWAP8 DUP9 SWAP8 PUSH4 0xE90DB85 PUSH1 0xE3 SHL DUP10 MSTORE DUP9 ADD MSTORE PUSH1 0x64 DUP8 ADD SWAP1 PUSH2 0x168F JUMP JUMPDEST SWAP4 DUP6 ADD MSTORE DUP4 ADD MSTORE SUB SWAP1 REVERT JUMPDEST DUP7 PUSH32 0x43616E206E6F742062757920796F7572206F776E2070726F6475637421000000 PUSH1 0x64 SWAP3 PUSH1 0x1D DUP10 DUP13 PUSH1 0x40 MLOAD SWAP6 PUSH3 0x461BCD PUSH1 0xE5 SHL DUP8 MSTORE DUP7 ADD MSTORE DUP5 ADD MSTORE DUP3 ADD MSTORE REVERT JUMPDEST POP POP POP POP POP POP POP POP POP PUSH2 0x3BD JUMP JUMPDEST PUSH1 0x40 MLOAD PUSH4 0x3EE5AEB5 PUSH1 0xE0 SHL DUP2 MSTORE DUP4 SWAP1 REVERT JUMPDEST DUP7 DUP1 REVERT JUMPDEST DUP4 DUP1 REVERT JUMPDEST DUP3 DUP1 REVERT JUMPDEST DUP3 CALLVALUE PUSH2 0x4CF JUMPI PUSH1 0x20 CALLDATASIZE PUSH1 0x3 NOT ADD SLT PUSH2 0x4CF JUMPI PUSH1 0x20 SWAP1 PUSH1 0x40 SWAP1 PUSH1 0x1 PUSH1 0x1 PUSH1 0xA0 SHL SUB PUSH2 0x4BE PUSH2 0x1908 JUMP JUMPDEST AND DUP2 MSTORE PUSH1 0x3 DUP4 MSTORE KECCAK256 SLOAD PUSH1 0x40 MLOAD SWAP1 DUP2 MSTORE RETURN JUMPDEST DUP1 REVERT JUMPDEST POP SWAP1 CALLVALUE PUSH2 0x4CF JUMPI PUSH1 0x20 CALLDATASIZE PUSH1 0x3 NOT ADD SLT PUSH2 0x4CF JUMPI DUP2 CALLDATALOAD SWAP1 PUSH1 0x1 PUSH1 0x1 PUSH1 0x40 SHL SUB DUP3 GT PUSH2 0x4CF JUMPI PUSH2 0x521 PUSH2 0x50D PUSH2 0x508 CALLDATASIZE DUP6 DUP8 ADD PUSH2 0x1620 JUMP JUMPDEST PUSH2 0x2AC0 JUMP JUMPDEST PUSH1 0x40 MLOAD SWAP2 DUP3 SWAP2 PUSH1 0x20 DUP4 MSTORE PUSH1 0x20 DUP4 ADD SWAP1 PUSH2 0x16B4 JUMP JUMPDEST SUB SWAP1 RETURN JUMPDEST POP CALLVALUE PUSH2 0x1E7 JUMPI PUSH1 0x20 DUP1 PUSH1 0x3 NOT CALLDATASIZE ADD SLT PUSH2 0x492 JUMPI DUP2 CALLDATALOAD PUSH1 0x1 PUSH1 0x1 PUSH1 0x40 SHL SUB DUP2 GT PUSH2 0x48E JUMPI PUSH2 0x555 SWAP1 CALLDATASIZE SWAP1 DUP5 ADD PUSH2 0x1620 JUMP JUMPDEST CALLER DUP5 MSTORE PUSH1 0x1 DUP3 MSTORE PUSH1 0x40 DUP5 KECCAK256 PUSH1 0x40 MLOAD DUP4 DUP2 DUP5 MLOAD SWAP4 DUP3 DUP7 ADD SWAP5 PUSH2 0x577 DUP2 DUP5 DUP9 PUSH2 0x166C JUMP JUMPDEST DUP3 ADD SWAP1 DUP2 MSTORE SUB ADD SWAP1 KECCAK256 SLOAD SWAP1 DUP2 ISZERO PUSH2 0x75D JUMPI PUSH2 0x5AA DUP5 DUP8 SWAP3 CALLER DUP5 MSTORE PUSH1 0x1 DUP3 MSTORE PUSH1 0x40 DUP5 KECCAK256 PUSH1 0x40 MLOAD DUP1 SWAP5 DUP2 SWAP4 DUP10 MLOAD SWAP3 DUP4 SWAP2 PUSH2 0x166C JUMP JUMPDEST DUP3 ADD SWAP1 DUP2 MSTORE SUB ADD SWAP1 KECCAK256 SSTORE PUSH2 0x5D8 PUSH1 0x40 MLOAD PUSH2 0x5C3 DUP2 PUSH2 0x1546 JUMP JUMPDEST PUSH1 0x3 DUP2 MSTORE PUSH3 0x8AA89 PUSH1 0xEB SHL DUP6 DUP3 ADD MSTORE DUP4 PUSH2 0x2763 JUMP JUMPDEST ISZERO PUSH2 0x68F JUMPI DUP5 DUP1 DUP1 DUP1 DUP5 CALLER GAS CALL SWAP2 DUP3 RETURNDATASIZE ISZERO PUSH2 0x68A JUMPI RETURNDATASIZE PUSH2 0x5F7 DUP2 PUSH2 0x1605 JUMP JUMPDEST SWAP1 PUSH2 0x605 PUSH1 0x40 MLOAD SWAP3 DUP4 PUSH2 0x15E4 JUMP JUMPDEST DUP2 MSTORE DUP8 DUP7 RETURNDATASIZE SWAP3 ADD RETURNDATACOPY JUMPDEST PUSH2 0x655 JUMPI JUMPDEST POP POP ISZERO PUSH2 0x61F JUMPI POP POP DUP1 RETURN JUMPDEST PUSH1 0x40 MLOAD PUSH3 0x461BCD PUSH1 0xE5 SHL DUP2 MSTORE SWAP2 DUP3 ADD MSTORE PUSH1 0x10 PUSH1 0x24 DUP3 ADD MSTORE PUSH16 0x5472616E73666572206661696C656421 PUSH1 0x80 SHL PUSH1 0x44 DUP3 ADD MSTORE PUSH1 0x64 SWAP2 POP REVERT JUMPDEST PUSH2 0x65E SWAP1 PUSH2 0x2690 JUMP JUMPDEST CALLER PUSH32 0xF2CA3EFE12F71D386EF0FD2B75EBBEF402882711943CCB42D5BDB696FA7A1341 DUP8 DUP1 LOG4 CODESIZE DUP1 PUSH2 0x613 JUMP JUMPDEST PUSH2 0x60E JUMP JUMPDEST SWAP1 PUSH2 0x6B8 SWAP1 PUSH1 0x40 SWAP5 SWAP4 SWAP5 MLOAD SWAP1 PUSH2 0x6A4 DUP3 PUSH2 0x1546 JUMP JUMPDEST DUP5 DUP3 MSTORE PUSH4 0x13515515 PUSH1 0xE2 SHL DUP7 DUP4 ADD MSTORE PUSH2 0x2763 JUMP JUMPDEST PUSH2 0x6C3 JUMPI JUMPDEST POP POP POP DUP1 RETURN JUMPDEST DUP2 SLOAD PUSH1 0x1 PUSH1 0x1 PUSH1 0xA0 SHL SUB AND SWAP2 PUSH8 0x8AC7230489E80000 DUP3 MUL SWAP2 DUP3 DIV PUSH8 0x8AC7230489E7FFFF NOT ADD PUSH2 0x74A JUMPI SWAP1 PUSH1 0x44 DUP5 SWAP3 DUP7 PUSH1 0x40 MLOAD SWAP6 DUP7 SWAP5 DUP6 SWAP4 PUSH4 0xA9059CBB PUSH1 0xE0 SHL DUP6 MSTORE CALLER SWAP1 DUP6 ADD MSTORE PUSH1 0x24 DUP5 ADD MSTORE GAS CALL DUP1 ISZERO PUSH2 0x73F JUMPI PUSH2 0x721 JUMPI JUMPDEST DUP1 PUSH2 0x6BD JUMP JUMPDEST DUP2 PUSH2 0x737 SWAP3 SWAP1 RETURNDATASIZE LT PUSH2 0x1AA JUMPI PUSH2 0x19B DUP2 DUP4 PUSH2 0x15E4 JUMP JUMPDEST POP CODESIZE DUP1 PUSH2 0x71B JUMP JUMPDEST PUSH1 0x40 MLOAD RETURNDATASIZE DUP6 DUP3 RETURNDATACOPY RETURNDATASIZE SWAP1 REVERT JUMPDEST PUSH4 0x4E487B71 PUSH1 0xE0 SHL DUP6 MSTORE PUSH1 0x11 SWAP1 MSTORE PUSH1 0x24 DUP5 REVERT JUMPDEST PUSH1 0x40 MLOAD PUSH4 0x125D726B PUSH1 0xE2 SHL DUP2 MSTORE DUP6 SWAP1 REVERT JUMPDEST POP CALLVALUE PUSH2 0x1E7 JUMPI PUSH1 0x40 CALLDATASIZE PUSH1 0x3 NOT ADD SLT PUSH2 0x1E7 JUMPI PUSH2 0x788 PUSH2 0x1908 JUMP JUMPDEST SWAP1 PUSH1 0x24 CALLDATALOAD PUSH1 0x1 PUSH1 0x1 PUSH1 0x40 SHL SUB DUP2 GT PUSH2 0x48E JUMPI SWAP2 PUSH1 0x40 PUSH1 0x20 SWAP5 PUSH2 0x7B1 DUP7 SWAP5 PUSH2 0x7D7 SWAP7 CALLDATASIZE SWAP2 ADD PUSH2 0x1620 JUMP JUMPDEST PUSH1 0x1 PUSH1 0x1 PUSH1 0xA0 SHL SUB SWAP1 SWAP4 AND DUP2 MSTORE PUSH1 0x1 DUP5 MSTORE KECCAK256 PUSH1 0x40 MLOAD DUP3 MLOAD SWAP1 SWAP5 DUP6 SWAP4 DUP3 SWAP1 DUP6 SWAP1 DUP8 ADD PUSH2 0x166C JUMP JUMPDEST DUP3 ADD SWAP1 DUP2 MSTORE SUB ADD SWAP1 KECCAK256 SLOAD PUSH1 0x40 MLOAD SWAP1 DUP2 MSTORE RETURN JUMPDEST POP CALLVALUE PUSH2 0x1E7 JUMPI PUSH1 0x20 CALLDATASIZE PUSH1 0x3 NOT ADD SLT PUSH2 0x1E7 JUMPI DUP1 CALLDATALOAD SWAP1 PUSH1 0x1 PUSH1 0x1 PUSH1 0x40 SHL SUB DUP3 GT PUSH2 0x492 JUMPI PUSH2 0x818 SWAP2 CALLDATASIZE SWAP2 ADD PUSH2 0x1620 JUMP JUMPDEST PUSH1 0x5 SLOAD SWAP1 PUSH2 0x825 DUP3 PUSH2 0x2A5C JUMP JUMPDEST SWAP3 JUMPDEST DUP3 DUP2 LT PUSH2 0x83C JUMPI PUSH1 0x40 MLOAD DUP1 PUSH2 0x521 DUP7 DUP3 PUSH2 0x18A6 JUMP JUMPDEST DUP1 PUSH2 0x852 DUP4 PUSH2 0x266 PUSH1 0x2 PUSH2 0x25F PUSH2 0x85B SWAP7 PUSH2 0x191E JUMP JUMPDEST PUSH2 0x860 JUMPI PUSH2 0x26B0 JUMP JUMPDEST PUSH2 0x827 JUMP JUMPDEST PUSH2 0x86C PUSH2 0x28D DUP3 PUSH2 0x191E JUMP JUMPDEST PUSH2 0x876 DUP3 DUP8 PUSH2 0x2AAC JUMP JUMPDEST MSTORE PUSH2 0x881 DUP2 DUP7 PUSH2 0x2AAC JUMP JUMPDEST POP PUSH2 0x26B0 JUMP JUMPDEST DUP3 CALLVALUE PUSH2 0x4CF JUMPI DUP1 PUSH1 0x3 NOT CALLDATASIZE ADD SLT PUSH2 0x4CF JUMPI PUSH1 0x5 SLOAD PUSH2 0x8A4 DUP2 PUSH2 0x27B8 JUMP JUMPDEST SWAP1 PUSH2 0x8B2 PUSH1 0x40 MLOAD SWAP3 DUP4 PUSH2 0x15E4 JUMP JUMPDEST DUP1 DUP3 MSTORE PUSH1 0x5 DUP4 MSTORE PUSH32 0x36B6384B5ECA791C62761152D0C79BB0604C104A5FB6F4EB0703F3154BB3DB0 SWAP3 PUSH1 0x20 DUP1 DUP5 ADD JUMPDEST DUP4 DUP4 LT PUSH2 0x8F6 JUMPI PUSH1 0x40 MLOAD DUP1 PUSH2 0x521 DUP8 DUP3 PUSH2 0x18A6 JUMP JUMPDEST PUSH1 0xD DUP3 PUSH1 0x1 SWAP3 PUSH2 0x905 DUP10 PUSH2 0x28EB JUMP JUMPDEST DUP2 MSTORE ADD SWAP7 ADD SWAP3 ADD SWAP2 SWAP5 PUSH2 0x8E1 JUMP JUMPDEST POP CALLVALUE PUSH2 0x1E7 JUMPI PUSH1 0x40 CALLDATASIZE PUSH1 0x3 NOT ADD SLT PUSH2 0x1E7 JUMPI DUP1 CALLDATALOAD PUSH1 0x1 PUSH1 0x1 PUSH1 0x40 SHL SUB DUP2 GT PUSH2 0x492 JUMPI PUSH2 0x942 SWAP1 CALLDATASIZE SWAP1 DUP4 ADD PUSH2 0x1620 JUMP JUMPDEST PUSH1 0x24 SWAP1 DUP2 CALLDATALOAD DUP1 ISZERO ISZERO SWAP3 DUP4 DUP3 SUB PUSH2 0xA4D JUMPI DUP6 JUMPDEST PUSH1 0x5 SLOAD DUP2 LT ISZERO PUSH2 0xA44 JUMPI PUSH2 0x970 DUP5 PUSH2 0x266 PUSH1 0x9 PUSH2 0x25F DUP6 PUSH2 0x191E JUMP JUMPDEST PUSH2 0x982 JUMPI PUSH2 0x97D SWAP1 PUSH2 0x26B0 JUMP JUMPDEST PUSH2 0x954 JUMP JUMPDEST SWAP1 SWAP2 SWAP3 SWAP4 SWAP5 PUSH2 0x990 DUP3 PUSH2 0x191E JUMP JUMPDEST POP PUSH1 0x1 SWAP1 DUP2 ADD SLOAD SWAP1 SWAP4 SWAP1 PUSH1 0x1 PUSH1 0x1 PUSH1 0xA0 SHL SUB AND CALLER SUB PUSH2 0xA09 JUMPI POP POP SWAP2 PUSH2 0x9DC SWAP2 PUSH2 0x9BD PUSH2 0x9E1 SWAP6 SWAP5 PUSH2 0x191E JUMP JUMPDEST POP ADD DUP1 SLOAD PUSH1 0xFF PUSH1 0xA0 SHL NOT AND SWAP2 ISZERO ISZERO PUSH1 0xA0 SHL PUSH1 0xFF PUSH1 0xA0 SHL AND SWAP2 SWAP1 SWAP2 OR SWAP1 SSTORE JUMP JUMPDEST PUSH2 0x2690 JUMP JUMPDEST CALLER PUSH32 0x51DABE03DBC9869CDC42F327348910C055732B793C7AAADE368A32D8F3658E1E DUP5 DUP1 LOG4 DUP1 RETURN JUMPDEST SWAP1 PUSH1 0x15 PUSH1 0x64 SWAP3 PUSH1 0x20 PUSH1 0x40 MLOAD SWAP4 PUSH3 0x461BCD PUSH1 0xE5 SHL DUP6 MSTORE DUP5 ADD MSTORE DUP3 ADD MSTORE PUSH21 0x4E6F7420796F7572206F776E2070726F6475637421 PUSH1 0x58 SHL PUSH1 0x44 DUP3 ADD MSTORE REVERT JUMPDEST POP POP POP POP POP POP DUP1 RETURN JUMPDEST DUP6 DUP1 REVERT JUMPDEST DUP3 CALLVALUE PUSH2 0x4CF JUMPI PUSH1 0x20 DUP1 PUSH1 0x3 NOT CALLDATASIZE ADD SLT PUSH2 0x1E7 JUMPI PUSH2 0x521 PUSH1 0x40 DUP1 SWAP4 PUSH2 0xA73 PUSH2 0x1908 JUMP JUMPDEST PUSH1 0x60 DUP6 DUP5 MLOAD PUSH2 0xA81 DUP2 PUSH2 0x1546 JUMP JUMPDEST DUP3 DUP2 MSTORE ADD MSTORE PUSH1 0x1 PUSH1 0x1 PUSH1 0xA0 SHL SUB AND DUP2 MSTORE PUSH1 0x2 DUP5 MSTORE KECCAK256 DUP4 MLOAD SWAP3 SWAP1 PUSH2 0xADD SWAP1 PUSH2 0xABF SWAP1 PUSH1 0x1 SWAP1 PUSH2 0xAAE DUP8 PUSH2 0x1546 JUMP JUMPDEST PUSH2 0xAB7 DUP2 PUSH2 0x26BF JUMP JUMPDEST DUP8 MSTORE ADD PUSH2 0x26BF JUMP JUMPDEST SWAP2 DUP1 DUP6 ADD SWAP3 DUP4 MSTORE DUP6 MLOAD SWAP6 DUP7 SWAP6 DUP3 DUP8 MSTORE MLOAD SWAP2 DUP7 ADD MSTORE PUSH1 0x60 DUP6 ADD SWAP1 PUSH2 0x168F JUMP JUMPDEST SWAP1 MLOAD DUP4 DUP3 SUB PUSH1 0x1F NOT ADD PUSH1 0x40 DUP6 ADD MSTORE PUSH2 0x168F JUMP JUMPDEST POP CALLVALUE PUSH2 0x1E7 JUMPI PUSH1 0xA0 CALLDATASIZE PUSH1 0x3 NOT ADD SLT PUSH2 0x1E7 JUMPI PUSH1 0x1 PUSH1 0x1 PUSH1 0x40 SHL SUB SWAP1 DUP1 CALLDATALOAD DUP3 DUP2 GT PUSH2 0x48E JUMPI PUSH2 0xB21 SWAP1 CALLDATASIZE SWAP1 DUP4 ADD PUSH2 0x1620 JUMP JUMPDEST SWAP1 PUSH1 0x24 DUP1 CALLDATALOAD SWAP3 PUSH1 0x44 SWAP3 DUP4 CALLDATALOAD DUP7 DUP2 GT PUSH2 0xCF9 JUMPI PUSH2 0xB40 SWAP1 CALLDATASIZE SWAP1 DUP4 ADD PUSH2 0x1620 JUMP JUMPDEST SWAP1 PUSH1 0x64 SWAP7 DUP8 CALLDATALOAD SWAP1 DUP2 GT PUSH2 0xCF5 JUMPI PUSH2 0xB5A SWAP1 CALLDATASIZE SWAP1 DUP4 ADD PUSH2 0x1620 JUMP JUMPDEST SWAP5 PUSH1 0x1 PUSH1 0x1 PUSH1 0xA0 SHL SUB PUSH1 0x84 DUP1 CALLDATALOAD DUP3 DUP2 AND SWAP8 SWAP3 SWAP5 SWAP3 SWAP2 SWAP1 DUP9 SWAP1 SUB PUSH2 0xCF1 JUMPI DUP12 JUMPDEST PUSH1 0x5 DUP1 SLOAD DUP3 LT ISZERO PUSH2 0xCE1 JUMPI PUSH2 0xB96 DUP12 PUSH2 0x266 PUSH1 0x9 PUSH2 0x25F DUP7 PUSH2 0x191E JUMP JUMPDEST PUSH2 0xBA9 JUMPI POP PUSH2 0xBA4 SWAP1 PUSH2 0x26B0 JUMP JUMPDEST PUSH2 0xB79 JUMP JUMPDEST SWAP6 SWAP7 SWAP8 SWAP9 SWAP10 SWAP11 SWAP12 SWAP1 SWAP3 SWAP4 SWAP5 PUSH2 0xBBD DUP5 PUSH2 0x191E JUMP JUMPDEST POP SWAP8 PUSH1 0x1 DUP1 SWAP10 ADD SLOAD AND CALLER EQ PUSH2 0xC94 JUMPI POP POP POP PUSH2 0xBDA PUSH1 0xB SWAP2 PUSH2 0x191E JUMP JUMPDEST POP ADD SWAP2 PUSH1 0x40 MLOAD SWAP6 PUSH2 0xBEA DUP8 PUSH2 0x1593 JUMP JUMPDEST CALLER DUP8 MSTORE PUSH1 0x20 SWAP11 DUP12 DUP9 ADD MSTORE DUP8 PUSH1 0x40 DUP9 ADD MSTORE TIMESTAMP PUSH1 0x60 DUP9 ADD MSTORE PUSH1 0x80 DUP8 ADD MSTORE DUP3 SLOAD SWAP5 PUSH1 0x1 PUSH1 0x40 SHL DUP7 LT ISZERO PUSH2 0xC82 JUMPI DUP6 ADD DUP1 DUP5 SSTORE DUP6 LT ISZERO PUSH2 0xC71 JUMPI POP POP PUSH2 0xC64 SWAP4 PUSH2 0xC5E SWAP4 PUSH32 0x8BB52EEE1B68032569FA2C483528D7D2B7DB7824B9704EE675F7202956220865 SWAP7 SWAP4 PUSH2 0x9DC SWAP4 DUP13 MSTORE DUP11 DUP13 KECCAK256 SWAP2 MUL ADD PUSH2 0x1A0A JUMP JUMPDEST SWAP4 PUSH2 0x2690 JUMP JUMPDEST SWAP4 PUSH1 0x40 MLOAD SWAP3 DUP4 MSTORE CALLER SWAP3 LOG4 DUP1 RETURN JUMPDEST PUSH4 0x4E487B71 PUSH1 0xE0 SHL DUP12 MSTORE PUSH1 0x32 SWAP1 MSTORE DUP10 REVERT JUMPDEST POP PUSH4 0x4E487B71 PUSH1 0xE0 SHL DUP12 MSTORE PUSH1 0x41 SWAP1 MSTORE DUP10 REVERT JUMPDEST DUP6 SWAP2 PUSH32 0x43616E206E6F7420636F6D6D656E74206F6E20796F7572206F776E2070726F64 PUSH5 0x7563747321 PUSH1 0xD8 SHL SWAP3 PUSH1 0x25 DUP9 PUSH1 0x20 PUSH1 0x40 MLOAD SWAP8 PUSH3 0x461BCD PUSH1 0xE5 SHL DUP10 MSTORE DUP9 ADD MSTORE DUP7 ADD MSTORE DUP5 ADD MSTORE DUP3 ADD MSTORE REVERT JUMPDEST POP POP POP POP POP POP POP POP POP POP POP POP POP DUP1 RETURN JUMPDEST DUP12 DUP1 REVERT JUMPDEST DUP9 DUP1 REVERT JUMPDEST DUP8 DUP1 REVERT JUMPDEST DUP3 CALLVALUE PUSH2 0x4CF JUMPI DUP1 PUSH1 0x3 NOT CALLDATASIZE ADD SLT PUSH2 0x4CF JUMPI PUSH1 0x5 SLOAD PUSH2 0xD1A DUP2 PUSH2 0x2A5C JUMP JUMPDEST SWAP2 JUMPDEST DUP2 DUP2 LT PUSH2 0xD31 JUMPI PUSH1 0x40 MLOAD DUP1 PUSH2 0x521 DUP6 DUP3 PUSH2 0x18A6 JUMP JUMPDEST DUP1 PUSH2 0xD3E PUSH2 0xD57 SWAP3 PUSH2 0x191E JUMP JUMPDEST POP PUSH1 0x1 ADD SLOAD PUSH1 0x1 PUSH1 0x1 PUSH1 0xA0 SHL SUB AND CALLER EQ PUSH2 0xD5C JUMPI PUSH2 0x26B0 JUMP JUMPDEST PUSH2 0xD1C JUMP JUMPDEST PUSH2 0xD68 PUSH2 0x28D DUP3 PUSH2 0x191E JUMP JUMPDEST PUSH2 0xD72 DUP3 DUP7 PUSH2 0x2AAC JUMP JUMPDEST MSTORE PUSH2 0x881 DUP2 DUP6 PUSH2 0x2AAC JUMP JUMPDEST POP CALLVALUE PUSH2 0x1E7 JUMPI DUP2 PUSH1 0x3 NOT CALLDATASIZE ADD SLT PUSH2 0x1E7 JUMPI SLOAD PUSH1 0x40 MLOAD PUSH1 0x1 PUSH1 0x1 PUSH1 0xA0 SHL SUB SWAP1 SWAP2 AND DUP2 MSTORE PUSH1 0x20 SWAP1 RETURN JUMPDEST POP CALLVALUE PUSH2 0x1E7 JUMPI PUSH1 0xE0 CALLDATASIZE PUSH1 0x3 NOT ADD SLT PUSH2 0x1E7 JUMPI PUSH1 0x1 PUSH1 0x1 PUSH1 0x40 SHL SUB DUP2 CALLDATALOAD DUP2 DUP2 GT PUSH2 0x48E JUMPI PUSH2 0xDD4 SWAP1 CALLDATASIZE SWAP1 DUP5 ADD PUSH2 0x1620 JUMP JUMPDEST PUSH1 0x44 DUP1 CALLDATALOAD DUP4 DUP2 GT PUSH2 0xA4D JUMPI PUSH2 0xDEC SWAP1 CALLDATASIZE SWAP1 DUP7 ADD PUSH2 0x1620 JUMP JUMPDEST SWAP3 PUSH1 0x64 SWAP2 DUP3 CALLDATALOAD DUP3 DUP2 GT PUSH2 0xCF9 JUMPI PUSH2 0xE06 SWAP1 CALLDATASIZE SWAP1 DUP9 ADD PUSH2 0x1620 JUMP JUMPDEST PUSH1 0x84 DUP1 CALLDATALOAD DUP5 DUP2 GT PUSH2 0x1064 JUMPI PUSH2 0xE1E SWAP1 CALLDATASIZE SWAP1 DUP11 ADD PUSH2 0x1620 JUMP JUMPDEST SWAP3 PUSH1 0xA4 CALLDATALOAD DUP6 DUP2 GT PUSH2 0x1060 JUMPI PUSH2 0xE36 SWAP1 CALLDATASIZE SWAP1 DUP12 ADD PUSH2 0x1620 JUMP JUMPDEST SWAP5 PUSH1 0xC4 CALLDATALOAD SWAP1 DUP2 GT PUSH2 0x1060 JUMPI PUSH2 0xE4E SWAP1 CALLDATASIZE SWAP1 DUP12 ADD PUSH2 0x1620 JUMP JUMPDEST SWAP2 DUP11 JUMPDEST PUSH1 0x5 SLOAD DUP2 LT ISZERO PUSH2 0x1052 JUMPI PUSH2 0xE6D DUP10 PUSH2 0x266 PUSH1 0x9 PUSH2 0x25F DUP6 PUSH2 0x191E JUMP JUMPDEST PUSH2 0xE7F JUMPI PUSH2 0xE7A SWAP1 PUSH2 0x26B0 JUMP JUMPDEST PUSH2 0xE51 JUMP JUMPDEST SWAP7 SWAP8 SWAP9 SWAP10 PUSH2 0xE8C DUP9 PUSH2 0x191E JUMP JUMPDEST POP PUSH1 0x1 SWAP1 DUP2 ADD SLOAD SWAP1 SWAP10 PUSH1 0x1 PUSH1 0x1 PUSH1 0xA0 SHL SUB SWAP5 SWAP1 SWAP2 DUP6 AND CALLER SUB PUSH2 0x1004 JUMPI POP POP POP POP DUP7 PUSH2 0xEB6 DUP8 PUSH2 0x191E JUMP JUMPDEST POP ADD SLOAD AND SWAP6 PUSH2 0xEC4 DUP7 PUSH2 0x191E JUMP JUMPDEST POP ADD SLOAD SWAP3 PUSH2 0xED1 DUP7 PUSH2 0x191E JUMP JUMPDEST POP SWAP5 PUSH2 0xEDC DUP8 PUSH2 0x191E JUMP JUMPDEST POP PUSH2 0xEE6 DUP9 PUSH2 0x191E JUMP JUMPDEST POP SWAP4 PUSH2 0xEF1 DUP10 PUSH2 0x191E JUMP JUMPDEST POP PUSH1 0xA ADD SLOAD SWAP6 PUSH2 0xF00 DUP11 PUSH2 0x191E JUMP JUMPDEST POP SWAP8 PUSH2 0xF0B DUP12 PUSH2 0x191E JUMP JUMPDEST POP SWAP10 PUSH1 0x40 MLOAD SWAP13 PUSH2 0xF1A DUP15 PUSH2 0x1577 JUMP JUMPDEST PUSH1 0x24 CALLDATALOAD DUP15 MSTORE PUSH1 0x20 DUP15 ADD MSTORE PUSH1 0xFF PUSH1 0xA0 SWAP3 DUP4 SHR AND ISZERO ISZERO PUSH1 0x40 DUP15 ADD MSTORE PUSH2 0xF3F SWAP1 PUSH1 0x2 ADD PUSH2 0x26BF JUMP JUMPDEST PUSH1 0x60 DUP14 ADD MSTORE DUP14 PUSH1 0x80 DUP14 ADD MSTORE DUP12 ADD MSTORE PUSH1 0xC0 DUP11 ADD MSTORE PUSH1 0x6 ADD PUSH2 0xF5E SWAP1 PUSH2 0x26BF JUMP JUMPDEST PUSH1 0xE0 DUP10 ADD MSTORE PUSH2 0x100 DUP9 ADD MSTORE PUSH2 0x120 DUP8 ADD MSTORE PUSH1 0x9 ADD PUSH2 0xF7B SWAP1 PUSH2 0x26BF JUMP JUMPDEST PUSH2 0x140 DUP7 ADD MSTORE PUSH2 0x160 DUP6 ADD MSTORE PUSH1 0xB ADD PUSH2 0xF93 SWAP1 PUSH2 0x27CF JUMP JUMPDEST PUSH2 0x180 DUP5 ADD MSTORE PUSH1 0xC ADD PUSH2 0xFA5 SWAP1 PUSH2 0x286E JUMP JUMPDEST PUSH2 0x1A0 DUP4 ADD MSTORE PUSH2 0xFB4 SWAP1 PUSH2 0x191E JUMP JUMPDEST PUSH2 0xFBE SWAP3 SWAP2 PUSH2 0x1C3A JUMP JUMPDEST PUSH2 0xFC7 SWAP1 PUSH2 0x2690 JUMP JUMPDEST SWAP1 PUSH2 0xFD1 SWAP1 PUSH2 0x2690 JUMP JUMPDEST SWAP1 PUSH1 0x40 MLOAD PUSH1 0x24 CALLDATALOAD DUP2 MSTORE CALLER SWAP1 PUSH1 0x20 PUSH32 0x384C5F98880FAD6ED933597FE4BECD24246DB16D5A262945362C7ACE0A0E47B5 SWAP2 LOG4 DUP1 RETURN JUMPDEST SWAP1 PUSH32 0x43616E206E6F74206564697420616E6F7468657220706572736F6E2773207072 PUSH6 0x6F6475637421 PUSH1 0xD0 SHL SWAP3 PUSH1 0x20 PUSH1 0x40 MLOAD SWAP6 PUSH3 0x461BCD PUSH1 0xE5 SHL DUP8 MSTORE DUP7 ADD MSTORE PUSH1 0x26 PUSH1 0x24 DUP7 ADD MSTORE DUP5 ADD MSTORE DUP3 ADD MSTORE REVERT JUMPDEST POP POP POP POP POP POP POP POP POP POP POP DUP1 RETURN JUMPDEST DUP11 DUP1 REVERT JUMPDEST DUP10 DUP1 REVERT JUMPDEST POP SWAP1 CALLVALUE PUSH2 0x4CF JUMPI PUSH1 0x20 CALLDATASIZE PUSH1 0x3 NOT ADD SLT PUSH2 0x4CF JUMPI DUP2 CALLDATALOAD SWAP1 PUSH1 0x1 PUSH1 0x1 PUSH1 0x40 SHL SUB DUP3 GT PUSH2 0x4CF JUMPI PUSH1 0x20 PUSH2 0x10A2 PUSH2 0x109D CALLDATASIZE DUP6 DUP8 ADD PUSH2 0x1620 JUMP JUMPDEST PUSH2 0x2BEC JUMP JUMPDEST PUSH1 0x40 MLOAD SWAP1 ISZERO ISZERO DUP2 MSTORE RETURN JUMPDEST POP CALLVALUE PUSH2 0x1E7 JUMPI PUSH2 0x140 SWAP1 DUP2 PUSH1 0x3 NOT CALLDATASIZE ADD SLT PUSH2 0x492 JUMPI DUP1 CALLDATALOAD SWAP1 PUSH1 0x1 PUSH1 0x1 PUSH1 0x40 SHL SUB SWAP1 PUSH1 0x24 CALLDATALOAD DUP3 DUP2 GT PUSH2 0xA4D JUMPI PUSH2 0x10E4 SWAP1 CALLDATASIZE SWAP1 DUP4 ADD PUSH2 0x1620 JUMP JUMPDEST SWAP1 PUSH1 0x44 CALLDATALOAD DUP4 DUP2 GT PUSH2 0x48A JUMPI PUSH2 0x10FC SWAP1 CALLDATASIZE SWAP1 DUP4 ADD PUSH2 0x1620 JUMP JUMPDEST SWAP5 PUSH1 0x64 CALLDATALOAD DUP5 DUP2 GT PUSH2 0xCF9 JUMPI PUSH2 0x1114 SWAP1 CALLDATASIZE SWAP1 DUP5 ADD PUSH2 0x1620 JUMP JUMPDEST SWAP4 PUSH1 0x84 CALLDATALOAD DUP2 DUP2 GT PUSH2 0xCF5 JUMPI PUSH2 0x112C SWAP1 CALLDATASIZE SWAP1 DUP6 ADD PUSH2 0x1620 JUMP JUMPDEST PUSH1 0xA4 CALLDATALOAD DUP3 DUP2 GT PUSH2 0x1064 JUMPI PUSH2 0x1143 SWAP1 CALLDATASIZE SWAP1 DUP7 ADD PUSH2 0x1620 JUMP JUMPDEST PUSH1 0xC4 CALLDATALOAD DUP4 DUP2 GT PUSH2 0x1060 JUMPI PUSH2 0x115A SWAP1 CALLDATASIZE SWAP1 DUP8 ADD PUSH2 0x1620 JUMP JUMPDEST SWAP2 PUSH1 0xE4 CALLDATALOAD DUP5 DUP2 GT PUSH2 0xCF1 JUMPI PUSH2 0x1172 SWAP1 CALLDATASIZE SWAP1 DUP9 ADD PUSH2 0x1620 JUMP JUMPDEST SWAP4 PUSH2 0x104 CALLDATALOAD SWAP1 DUP2 GT PUSH2 0xCF1 JUMPI PUSH2 0x118B SWAP1 CALLDATASIZE SWAP1 DUP9 ADD PUSH2 0x1620 JUMP JUMPDEST SWAP8 DUP10 ISZERO PUSH2 0x1279 JUMPI SWAP1 DUP9 SWAP6 SWAP5 SWAP4 SWAP3 SWAP2 PUSH1 0x40 MLOAD SWAP9 PUSH2 0x11A6 DUP11 PUSH2 0x1577 JUMP JUMPDEST DUP12 DUP11 MSTORE CALLER PUSH1 0x20 DUP12 ADD MSTORE DUP14 PUSH1 0x40 DUP12 ADD MSTORE PUSH1 0x60 DUP11 ADD MSTORE DUP12 PUSH1 0x80 DUP11 ADD MSTORE PUSH1 0xA0 DUP10 ADD MSTORE PUSH1 0xC0 DUP9 ADD MSTORE PUSH1 0xE0 DUP8 ADD MSTORE PUSH2 0x100 DUP7 ADD MSTORE PUSH2 0x120 DUP6 ADD MSTORE DUP4 ADD MSTORE PUSH2 0x124 CALLDATALOAD PUSH2 0x160 DUP4 ADD MSTORE PUSH1 0x60 PUSH2 0x180 DUP4 ADD MSTORE PUSH1 0x60 PUSH2 0x1A0 DUP4 ADD MSTORE PUSH1 0x5 SLOAD SWAP1 PUSH1 0x1 PUSH1 0x40 SHL DUP3 LT ISZERO PUSH2 0x1266 JUMPI POP PUSH2 0x1227 SWAP3 SWAP2 PUSH2 0x1221 DUP3 PUSH1 0x1 PUSH2 0x9DC SWAP5 ADD PUSH1 0x5 SSTORE PUSH2 0x191E JUMP JUMPDEST SWAP1 PUSH2 0x1C3A JUMP JUMPDEST SWAP2 PUSH32 0x9EC512F6157DAF19471FDB4ABC754CD622CE54571FDA42C4C416FF378B041583 PUSH1 0x40 MLOAD PUSH1 0x20 DUP2 MSTORE DUP1 PUSH2 0x1260 CALLER SWAP5 PUSH1 0x20 DUP4 ADD SWAP1 PUSH2 0x168F JUMP JUMPDEST SUB SWAP1 LOG4 DUP1 RETURN JUMPDEST PUSH4 0x4E487B71 PUSH1 0xE0 SHL DUP8 MSTORE PUSH1 0x41 SWAP1 MSTORE PUSH1 0x24 DUP7 REVERT JUMPDEST PUSH1 0x40 MLOAD PUSH4 0x5EBDE5F5 PUSH1 0xE1 SHL DUP2 MSTORE DUP8 SWAP1 REVERT JUMPDEST POP CALLVALUE PUSH2 0x1E7 JUMPI PUSH1 0x40 CALLDATASIZE PUSH1 0x3 NOT ADD SLT PUSH2 0x1E7 JUMPI PUSH1 0x1 PUSH1 0x1 PUSH1 0x40 SHL SUB SWAP1 DUP1 CALLDATALOAD DUP3 DUP2 GT PUSH2 0x48E JUMPI PUSH2 0x12BB SWAP1 CALLDATASIZE SWAP1 DUP4 ADD PUSH2 0x1620 JUMP JUMPDEST PUSH1 0x24 CALLDATALOAD DUP4 DUP2 GT PUSH2 0x1542 JUMPI PUSH2 0x12D2 SWAP1 CALLDATASIZE SWAP1 DUP5 ADD PUSH2 0x1620 JUMP JUMPDEST SWAP3 PUSH1 0x40 MLOAD SWAP1 PUSH2 0x12E0 DUP3 PUSH2 0x1546 JUMP JUMPDEST DUP3 DUP3 MSTORE PUSH1 0x20 SWAP2 DUP3 DUP2 ADD SWAP3 DUP7 DUP5 MSTORE CALLER DUP9 MSTORE PUSH1 0x2 DUP2 MSTORE PUSH1 0x40 DUP9 KECCAK256 SWAP2 MLOAD SWAP1 DUP2 MLOAD DUP5 DUP2 GT PUSH2 0x152F JUMPI DUP1 PUSH2 0x130F DUP6 SLOAD PUSH2 0x196F JUMP JUMPDEST SWAP4 DUP12 PUSH1 0x1F SWAP6 DUP6 DUP8 DUP3 GT PUSH2 0x1503 JUMPI JUMPDEST POP POP POP DUP4 SWAP1 DUP6 DUP4 GT PUSH1 0x1 EQ PUSH2 0x14A0 JUMPI DUP13 SWAP3 PUSH2 0x1495 JUMPI JUMPDEST POP POP DUP2 PUSH1 0x1 SHL SWAP2 PUSH1 0x0 NOT SWAP1 PUSH1 0x3 SHL SHR NOT AND OR DUP4 SSTORE JUMPDEST PUSH1 0x1 DUP1 SWAP4 ADD SWAP5 MLOAD SWAP7 DUP8 MLOAD SWAP5 DUP6 GT PUSH2 0x1482 JUMPI POP PUSH2 0x1364 DUP6 SLOAD PUSH2 0x196F JUMP JUMPDEST DUP3 DUP2 GT PUSH2 0x144C JUMPI JUMPDEST POP DUP1 SWAP2 DUP5 GT PUSH1 0x1 EQ PUSH2 0x13DE JUMPI POP SWAP2 DUP1 DUP1 SWAP3 PUSH2 0x13A4 SWAP7 SWAP6 SWAP5 PUSH2 0x13AA SWAP9 DUP12 SWAP5 PUSH2 0x13D3 JUMPI JUMPDEST POP POP SHL SWAP2 PUSH1 0x0 NOT SWAP1 PUSH1 0x3 SHL SHR NOT AND OR SWAP1 SSTORE PUSH2 0x2690 JUMP JUMPDEST SWAP2 PUSH2 0x2690 JUMP JUMPDEST SWAP1 CALLER PUSH32 0x8FB63D21CD1646C22E90408D0771D27886ED526A60064418E44B4E4A35BF6A07 DUP5 DUP1 LOG4 DUP1 RETURN JUMPDEST ADD MLOAD SWAP3 POP CODESIZE DUP1 PUSH2 0x138E JUMP JUMPDEST SWAP2 SWAP4 SWAP5 SWAP6 PUSH1 0x1F NOT DUP5 AND DUP7 DUP11 MSTORE DUP4 DUP11 KECCAK256 SWAP4 DUP11 SWAP1 JUMPDEST DUP3 DUP3 LT PUSH2 0x1435 JUMPI POP POP SWAP2 PUSH2 0x13AA SWAP8 SWAP6 SWAP4 SWAP2 DUP6 PUSH2 0x13A4 SWAP9 SWAP7 SWAP5 LT PUSH2 0x141C JUMPI JUMPDEST POP POP POP DUP2 SHL ADD SWAP1 SSTORE PUSH2 0x2690 JUMP JUMPDEST ADD MLOAD PUSH1 0x0 NOT PUSH1 0xF8 DUP5 PUSH1 0x3 SHL AND SHR NOT AND SWAP1 SSTORE CODESIZE DUP1 DUP1 PUSH2 0x140F JUMP JUMPDEST DUP1 DUP9 DUP7 SWAP8 DUP3 SWAP5 SWAP8 DUP8 ADD MLOAD DUP2 SSTORE ADD SWAP7 ADD SWAP5 ADD SWAP1 PUSH2 0x13F1 JUMP JUMPDEST PUSH2 0x1473 SWAP1 DUP7 DUP12 MSTORE DUP3 DUP12 KECCAK256 DUP5 DUP1 DUP9 ADD PUSH1 0x5 SHR DUP3 ADD SWAP3 DUP6 DUP10 LT PUSH2 0x1479 JUMPI JUMPDEST ADD PUSH1 0x5 SHR ADD SWAP1 PUSH2 0x19A9 JUMP JUMPDEST CODESIZE PUSH2 0x136C JUMP JUMPDEST SWAP3 POP DUP2 SWAP3 PUSH2 0x1468 JUMP JUMPDEST PUSH4 0x4E487B71 PUSH1 0xE0 SHL DUP11 MSTORE PUSH1 0x41 SWAP1 MSTORE PUSH1 0x24 DUP10 REVERT JUMPDEST ADD MLOAD SWAP1 POP CODESIZE DUP1 PUSH2 0x1333 JUMP JUMPDEST DUP7 DUP14 MSTORE DUP5 DUP14 KECCAK256 SWAP3 POP PUSH1 0x1F NOT DUP5 AND DUP14 JUMPDEST DUP7 DUP3 DUP3 LT PUSH2 0x14ED JUMPI POP POP SWAP1 DUP5 PUSH1 0x1 SWAP6 SWAP5 SWAP4 SWAP3 LT PUSH2 0x14D4 JUMPI JUMPDEST POP POP POP DUP2 SHL ADD DUP4 SSTORE PUSH2 0x1348 JUMP JUMPDEST ADD MLOAD PUSH1 0x0 NOT PUSH1 0xF8 DUP5 PUSH1 0x3 SHL AND SHR NOT AND SWAP1 SSTORE CODESIZE DUP1 DUP1 PUSH2 0x14C7 JUMP JUMPDEST PUSH1 0x1 DUP6 SWAP7 DUP3 SWAP4 SWAP7 DUP7 ADD MLOAD DUP2 SSTORE ADD SWAP6 ADD SWAP4 ADD PUSH2 0x14AF JUMP JUMPDEST DUP3 DUP10 PUSH2 0x1527 SWAP5 MSTORE KECCAK256 DUP8 DUP1 DUP7 ADD PUSH1 0x5 SHR DUP3 ADD SWAP3 DUP9 DUP8 LT PUSH2 0x1479 JUMPI ADD PUSH1 0x5 SHR ADD SWAP1 PUSH2 0x19A9 JUMP JUMPDEST DUP12 CODESIZE DUP6 PUSH2 0x131D JUMP JUMPDEST PUSH4 0x4E487B71 PUSH1 0xE0 SHL DUP11 MSTORE PUSH1 0x41 DUP9 MSTORE PUSH1 0x24 DUP11 REVERT JUMPDEST DUP5 DUP1 REVERT JUMPDEST PUSH1 0x40 DUP2 ADD SWAP1 DUP2 LT PUSH1 0x1 PUSH1 0x1 PUSH1 0x40 SHL SUB DUP3 GT OR PUSH2 0x1561 JUMPI PUSH1 0x40 MSTORE JUMP JUMPDEST PUSH4 0x4E487B71 PUSH1 0xE0 SHL PUSH1 0x0 MSTORE PUSH1 0x41 PUSH1 0x4 MSTORE PUSH1 0x24 PUSH1 0x0 REVERT JUMPDEST PUSH2 0x1C0 DUP2 ADD SWAP1 DUP2 LT PUSH1 0x1 PUSH1 0x1 PUSH1 0x40 SHL SUB DUP3 GT OR PUSH2 0x1561 JUMPI PUSH1 0x40 MSTORE JUMP JUMPDEST PUSH1 0xA0 DUP2 ADD SWAP1 DUP2 LT PUSH1 0x1 PUSH1 0x1 PUSH1 0x40 SHL SUB DUP3 GT OR PUSH2 0x1561 JUMPI PUSH1 0x40 MSTORE JUMP JUMPDEST PUSH1 0x60 DUP2 ADD SWAP1 DUP2 LT PUSH1 0x1 PUSH1 0x1 PUSH1 0x40 SHL SUB DUP3 GT OR PUSH2 0x1561 JUMPI PUSH1 0x40 MSTORE JUMP JUMPDEST PUSH1 0x20 DUP2 ADD SWAP1 DUP2 LT PUSH1 0x1 PUSH1 0x1 PUSH1 0x40 SHL SUB DUP3 GT OR PUSH2 0x1561 JUMPI PUSH1 0x40 MSTORE JUMP JUMPDEST SWAP1 PUSH1 0x1F DUP1 NOT SWAP2 ADD AND DUP2 ADD SWAP1 DUP2 LT PUSH1 0x1 PUSH1 0x1 PUSH1 0x40 SHL SUB DUP3 GT OR PUSH2 0x1561 JUMPI PUSH1 0x40 MSTORE JUMP JUMPDEST PUSH1 0x1 PUSH1 0x1 PUSH1 0x40 SHL SUB DUP2 GT PUSH2 0x1561 JUMPI PUSH1 0x1F ADD PUSH1 0x1F NOT AND PUSH1 0x20 ADD SWAP1 JUMP JUMPDEST DUP2 PUSH1 0x1F DUP3 ADD SLT ISZERO PUSH2 0x1667 JUMPI DUP1 CALLDATALOAD SWAP1 PUSH2 0x1637 DUP3 PUSH2 0x1605 JUMP JUMPDEST SWAP3 PUSH2 0x1645 PUSH1 0x40 MLOAD SWAP5 DUP6 PUSH2 0x15E4 JUMP JUMPDEST DUP3 DUP5 MSTORE PUSH1 0x20 DUP4 DUP4 ADD ADD GT PUSH2 0x1667 JUMPI DUP2 PUSH1 0x0 SWAP3 PUSH1 0x20 DUP1 SWAP4 ADD DUP4 DUP7 ADD CALLDATACOPY DUP4 ADD ADD MSTORE SWAP1 JUMP JUMPDEST PUSH1 0x0 DUP1 REVERT JUMPDEST PUSH1 0x0 JUMPDEST DUP4 DUP2 LT PUSH2 0x167F JUMPI POP POP PUSH1 0x0 SWAP2 ADD MSTORE JUMP JUMPDEST DUP2 DUP2 ADD MLOAD DUP4 DUP3 ADD MSTORE PUSH1 0x20 ADD PUSH2 0x166F JUMP JUMPDEST SWAP1 PUSH1 0x20 SWAP2 PUSH2 0x16A8 DUP2 MLOAD DUP1 SWAP3 DUP2 DUP6 MSTORE DUP6 DUP1 DUP7 ADD SWAP2 ADD PUSH2 0x166C JUMP JUMPDEST PUSH1 0x1F ADD PUSH1 0x1F NOT AND ADD ADD SWAP1 JUMP JUMPDEST SWAP1 DUP2 MLOAD DUP2 MSTORE PUSH1 0x1 DUP1 PUSH1 0xA0 SHL SUB SWAP1 PUSH1 0x20 DUP3 DUP2 DUP6 ADD MLOAD AND DUP2 DUP4 ADD MSTORE PUSH1 0x40 SWAP3 DUP4 DUP6 ADD MLOAD ISZERO ISZERO DUP5 DUP5 ADD MSTORE PUSH1 0x60 PUSH2 0x16F3 DUP2 DUP8 ADD MLOAD PUSH2 0x1C0 DUP1 DUP5 DUP9 ADD MSTORE DUP7 ADD SWAP1 PUSH2 0x168F JUMP JUMPDEST SWAP4 PUSH2 0x170A PUSH1 0x80 SWAP6 DUP7 DUP10 ADD MLOAD DUP4 DUP3 SUB DUP9 DUP6 ADD MSTORE PUSH2 0x168F JUMP JUMPDEST PUSH2 0x1790 PUSH2 0x177C PUSH2 0x1768 PUSH2 0x1754 PUSH2 0x1742 DUP13 PUSH1 0xC0 PUSH2 0x1732 PUSH1 0xA0 SWAP9 DUP10 DUP5 ADD MLOAD DUP12 DUP3 SUB DUP12 DUP14 ADD MSTORE PUSH2 0x168F JUMP JUMPDEST SWAP2 ADD MLOAD DUP9 DUP3 SUB PUSH1 0xC0 DUP11 ADD MSTORE PUSH2 0x168F JUMP JUMPDEST PUSH1 0xE0 DUP14 ADD MLOAD DUP8 DUP3 SUB PUSH1 0xE0 DUP10 ADD MSTORE PUSH2 0x168F JUMP JUMPDEST PUSH2 0x100 DUP1 DUP14 ADD MLOAD SWAP1 DUP8 DUP4 SUB SWAP1 DUP9 ADD MSTORE PUSH2 0x168F JUMP JUMPDEST PUSH2 0x120 DUP1 DUP13 ADD MLOAD SWAP1 DUP7 DUP4 SUB SWAP1 DUP8 ADD MSTORE PUSH2 0x168F JUMP JUMPDEST PUSH2 0x140 DUP1 DUP12 ADD MLOAD SWAP1 DUP6 DUP4 SUB SWAP1 DUP7 ADD MSTORE PUSH2 0x168F JUMP JUMPDEST SWAP6 PUSH2 0x160 DUP1 DUP11 ADD MLOAD SWAP1 DUP5 ADD MSTORE PUSH2 0x180 SWAP7 DUP8 DUP11 ADD MLOAD SWAP8 DUP5 DUP3 SUB SWAP1 DUP6 ADD MSTORE DUP8 MLOAD SWAP2 DUP3 DUP3 MSTORE DUP8 DUP3 ADD SWAP1 DUP9 DUP1 DUP6 PUSH1 0x5 SHL DUP6 ADD ADD SWAP11 ADD SWAP5 PUSH1 0x0 SWAP4 JUMPDEST DUP6 DUP6 LT PUSH2 0x182D JUMPI POP POP POP POP POP POP POP PUSH2 0x1A0 DUP1 SWAP8 ADD MLOAD SWAP7 DUP2 DUP7 SUB SWAP2 ADD MSTORE DUP3 DUP1 DUP8 MLOAD SWAP6 DUP7 DUP2 MSTORE ADD SWAP7 ADD SWAP5 PUSH1 0x0 SWAP3 JUMPDEST DUP6 DUP5 LT PUSH2 0x1803 JUMPI POP POP POP POP POP POP POP SWAP1 JUMP JUMPDEST DUP7 MLOAD DUP1 MLOAD DUP3 AND DUP10 MSTORE DUP1 DUP7 ADD MLOAD DUP10 DUP8 ADD MSTORE DUP3 ADD MLOAD DUP9 DUP4 ADD MSTORE SWAP7 DUP3 ADD SWAP7 SWAP6 DUP5 ADD SWAP6 PUSH1 0x1 SWAP1 SWAP4 ADD SWAP3 PUSH2 0x17F2 JUMP JUMPDEST SWAP1 SWAP2 SWAP3 SWAP4 SWAP5 SWAP6 SWAP12 SWAP8 SWAP9 SWAP10 SWAP11 DUP12 DUP1 PUSH2 0x188F DUP16 PUSH1 0x1 SWAP5 DUP16 DUP16 SWAP3 SWAP1 DUP16 PUSH2 0x1877 SWAP1 DUP13 SWAP4 DUP15 PUSH1 0x1F NOT DUP14 DUP9 SUB ADD SWAP1 MSTORE MLOAD SWAP3 DUP4 MLOAD AND DUP6 MSTORE DUP8 DUP4 ADD MLOAD DUP9 DUP7 ADD MSTORE DUP12 DUP2 DUP5 ADD MLOAD SWAP2 DUP7 ADD MSTORE DUP12 DUP6 ADD SWAP1 PUSH2 0x168F JUMP JUMPDEST SWAP4 DUP1 DUP3 ADD MLOAD SWAP1 DUP5 ADD MSTORE ADD MLOAD SWAP1 DUP10 DUP2 DUP5 SUB SWAP2 ADD MSTORE PUSH2 0x168F JUMP JUMPDEST SWAP15 ADD SWAP6 ADD SWAP6 ADD SWAP4 SWAP6 SWAP5 SWAP3 SWAP2 SWAP1 SWAP12 SWAP11 SWAP10 SWAP9 SWAP8 SWAP12 PUSH2 0x17C6 JUMP JUMPDEST PUSH1 0x20 DUP1 DUP3 ADD SWAP1 DUP1 DUP4 MSTORE DUP4 MLOAD DUP1 SWAP3 MSTORE PUSH1 0x40 DUP4 ADD SWAP3 DUP2 PUSH1 0x40 DUP5 PUSH1 0x5 SHL DUP4 ADD ADD SWAP6 ADD SWAP4 PUSH1 0x0 SWAP2 JUMPDEST DUP5 DUP4 LT PUSH2 0x18DA JUMPI POP POP POP POP POP POP SWAP1 JUMP JUMPDEST SWAP1 SWAP2 SWAP3 SWAP4 SWAP5 SWAP6 DUP5 DUP1 PUSH2 0x18F8 PUSH1 0x1 SWAP4 PUSH1 0x3F NOT DUP7 DUP3 SUB ADD DUP8 MSTORE DUP11 MLOAD PUSH2 0x16B4 JUMP JUMPDEST SWAP9 ADD SWAP4 ADD SWAP4 ADD SWAP2 SWAP5 SWAP4 SWAP3 SWAP1 PUSH2 0x18CA JUMP JUMPDEST PUSH1 0x4 CALLDATALOAD SWAP1 PUSH1 0x1 PUSH1 0x1 PUSH1 0xA0 SHL SUB DUP3 AND DUP3 SUB PUSH2 0x1667 JUMPI JUMP JUMPDEST PUSH1 0x5 SLOAD DUP2 LT ISZERO PUSH2 0x1959 JUMPI PUSH1 0xD SWAP1 PUSH1 0x5 PUSH1 0x0 MSTORE MUL PUSH32 0x36B6384B5ECA791C62761152D0C79BB0604C104A5FB6F4EB0703F3154BB3DB0 ADD SWAP1 PUSH1 0x0 SWAP1 JUMP JUMPDEST PUSH4 0x4E487B71 PUSH1 0xE0 SHL PUSH1 0x0 MSTORE PUSH1 0x32 PUSH1 0x4 MSTORE PUSH1 0x24 PUSH1 0x0 REVERT JUMPDEST SWAP1 PUSH1 0x1 DUP3 DUP2 SHR SWAP3 AND DUP1 ISZERO PUSH2 0x199F JUMPI JUMPDEST PUSH1 0x20 DUP4 LT EQ PUSH2 0x1989 JUMPI JUMP JUMPDEST PUSH4 0x4E487B71 PUSH1 0xE0 SHL PUSH1 0x0 MSTORE PUSH1 0x22 PUSH1 0x4 MSTORE PUSH1 0x24 PUSH1 0x0 REVERT JUMPDEST SWAP2 PUSH1 0x7F AND SWAP2 PUSH2 0x197E JUMP JUMPDEST DUP2 DUP2 LT PUSH2 0x19B4 JUMPI POP POP JUMP JUMPDEST PUSH1 0x0 DUP2 SSTORE PUSH1 0x1 ADD PUSH2 0x19A9 JUMP JUMPDEST PUSH2 0x19CA DUP2 SLOAD PUSH2 0x196F JUMP JUMPDEST SWAP1 DUP2 PUSH2 0x19D4 JUMPI POP POP JUMP JUMPDEST DUP2 PUSH1 0x1F PUSH1 0x0 SWAP4 GT PUSH1 0x1 EQ PUSH2 0x19E7 JUMPI POP SSTORE JUMPDEST JUMP JUMPDEST SWAP1 DUP1 DUP4 SWAP2 DUP3 MSTORE PUSH2 0x1A06 PUSH1 0x1F PUSH1 0x20 DUP5 KECCAK256 SWAP5 ADD PUSH1 0x5 SHR DUP5 ADD PUSH1 0x1 DUP6 ADD PUSH2 0x19A9 JUMP JUMPDEST SSTORE SSTORE JUMP JUMPDEST PUSH1 0x1 DUP1 PUSH1 0xA0 SHL SUB DUP3 MLOAD AND PUSH12 0xFFFFFFFFFFFFFFFFFFFFFFFF PUSH1 0xA0 SHL DUP3 SLOAD AND OR DUP2 SSTORE PUSH1 0x20 DUP1 DUP4 ADD MLOAD SWAP2 PUSH1 0x1 SWAP3 DUP4 DUP3 ADD SSTORE PUSH1 0x2 DUP2 ADD SWAP2 PUSH1 0x40 DUP6 ADD MLOAD SWAP2 DUP3 MLOAD SWAP4 PUSH1 0x1 PUSH1 0x1 PUSH1 0x40 SHL SUB SWAP5 DUP6 DUP2 GT PUSH2 0x1561 JUMPI PUSH2 0x1A60 DUP3 SLOAD PUSH2 0x196F JUMP JUMPDEST SWAP5 PUSH1 0x1F SWAP6 DUP7 DUP2 GT PUSH2 0x1C0C JUMPI JUMPDEST POP DUP5 SWAP1 DUP7 DUP4 GT PUSH1 0x1 EQ PUSH2 0x1B9E JUMPI SWAP2 DUP1 PUSH1 0x4 SWAP5 SWAP3 PUSH1 0x80 SWAP7 SWAP5 PUSH1 0x0 SWAP3 PUSH2 0x1B93 JUMPI JUMPDEST POP POP PUSH1 0x0 NOT PUSH1 0x3 DUP4 SWAP1 SHL SHR NOT AND SWAP1 DUP10 SHL OR SWAP1 SSTORE JUMPDEST PUSH1 0x60 DUP9 ADD MLOAD PUSH1 0x3 DUP3 ADD SSTORE ADD SWAP6 ADD MLOAD SWAP1 DUP2 MLOAD SWAP4 DUP5 GT PUSH2 0x1561 JUMPI PUSH2 0x1AC1 DUP7 SLOAD PUSH2 0x196F JUMP JUMPDEST DUP4 DUP2 GT PUSH2 0x1B65 JUMPI JUMPDEST POP DUP1 SWAP3 DUP5 GT PUSH1 0x1 EQ PUSH2 0x1B02 JUMPI POP SWAP3 DUP3 SWAP4 SWAP2 DUP4 SWAP3 PUSH1 0x0 SWAP5 PUSH2 0x1AF7 JUMPI JUMPDEST POP POP SHL SWAP2 PUSH1 0x0 NOT SWAP1 PUSH1 0x3 SHL SHR NOT AND OR SWAP1 SSTORE JUMP JUMPDEST ADD MLOAD SWAP3 POP CODESIZE DUP1 PUSH2 0x1AE4 JUMP JUMPDEST SWAP2 SWAP1 DUP4 PUSH1 0x1F NOT DUP2 AND DUP8 PUSH1 0x0 MSTORE DUP5 PUSH1 0x0 KECCAK256 SWAP5 PUSH1 0x0 SWAP1 JUMPDEST DUP9 DUP4 DUP4 LT PUSH2 0x1B4B JUMPI POP POP POP LT PUSH2 0x1B32 JUMPI JUMPDEST POP POP POP DUP2 SHL ADD SWAP1 SSTORE JUMP JUMPDEST ADD MLOAD PUSH1 0x0 NOT PUSH1 0xF8 DUP5 PUSH1 0x3 SHL AND SHR NOT AND SWAP1 SSTORE CODESIZE DUP1 DUP1 PUSH2 0x1B28 JUMP JUMPDEST DUP6 DUP8 ADD MLOAD DUP9 SSTORE SWAP1 SWAP7 ADD SWAP6 SWAP5 DUP6 ADD SWAP5 DUP8 SWAP4 POP SWAP1 DUP2 ADD SWAP1 PUSH2 0x1B17 JUMP JUMPDEST PUSH2 0x1B8D SWAP1 DUP8 PUSH1 0x0 MSTORE DUP3 PUSH1 0x0 KECCAK256 DUP6 DUP1 DUP9 ADD PUSH1 0x5 SHR DUP3 ADD SWAP3 DUP6 DUP10 LT PUSH2 0x1479 JUMPI ADD PUSH1 0x5 SHR ADD SWAP1 PUSH2 0x19A9 JUMP JUMPDEST CODESIZE PUSH2 0x1AC9 JUMP JUMPDEST ADD MLOAD SWAP1 POP CODESIZE DUP1 PUSH2 0x1A8B JUMP JUMPDEST DUP9 SWAP3 SWAP2 PUSH1 0x1F NOT DUP4 AND SWAP2 DUP6 PUSH1 0x0 MSTORE DUP8 PUSH1 0x0 KECCAK256 SWAP3 PUSH1 0x0 JUMPDEST DUP10 DUP3 DUP3 LT PUSH2 0x1BF6 JUMPI POP POP SWAP2 PUSH1 0x80 SWAP8 SWAP6 SWAP4 SWAP2 DUP6 PUSH1 0x4 SWAP9 SWAP7 SWAP5 LT PUSH2 0x1BDD JUMPI JUMPDEST POP POP POP DUP2 SHL ADD SWAP1 SSTORE PUSH2 0x1A9F JUMP JUMPDEST ADD MLOAD PUSH1 0x0 NOT PUSH1 0xF8 DUP5 PUSH1 0x3 SHL AND SHR NOT AND SWAP1 SSTORE CODESIZE DUP1 DUP1 PUSH2 0x1BD0 JUMP JUMPDEST DUP4 DUP6 ADD MLOAD DUP7 SSTORE DUP14 SWAP8 SWAP1 SWAP6 ADD SWAP5 SWAP4 DUP5 ADD SWAP4 ADD PUSH2 0x1BB3 JUMP JUMPDEST PUSH2 0x1C34 SWAP1 DUP5 PUSH1 0x0 MSTORE DUP7 PUSH1 0x0 KECCAK256 DUP9 DUP1 DUP7 ADD PUSH1 0x5 SHR DUP3 ADD SWAP3 DUP10 DUP8 LT PUSH2 0x1479 JUMPI ADD PUSH1 0x5 SHR ADD SWAP1 PUSH2 0x19A9 JUMP JUMPDEST CODESIZE PUSH2 0x1A6C JUMP JUMPDEST SWAP2 SWAP1 PUSH2 0x267A JUMPI DUP1 MLOAD DUP3 SSTORE PUSH1 0x20 DUP2 ADD MLOAD PUSH1 0x1 DUP4 ADD DUP1 SLOAD PUSH1 0x40 DUP5 ADD MLOAD PUSH1 0xFF PUSH1 0xA0 SHL SWAP1 ISZERO ISZERO PUSH1 0xA0 SHL AND PUSH1 0x1 PUSH1 0x1 PUSH1 0xA0 SHL SUB SWAP1 SWAP4 AND PUSH1 0x1 PUSH1 0x1 PUSH1 0xA8 SHL SUB NOT SWAP1 SWAP2 AND OR SWAP2 SWAP1 SWAP2 OR SWAP1 SSTORE PUSH1 0x2 DUP3 ADD PUSH1 0x60 DUP3 ADD MLOAD DUP1 MLOAD SWAP1 PUSH1 0x1 PUSH1 0x1 PUSH1 0x40 SHL SUB DUP3 GT PUSH2 0x1561 JUMPI DUP2 SWAP1 PUSH2 0x1CA4 DUP5 SLOAD PUSH2 0x196F JUMP JUMPDEST PUSH1 0x1F DUP2 GT PUSH2 0x2648 JUMPI JUMPDEST POP PUSH1 0x20 SWAP1 PUSH1 0x1F DUP4 GT PUSH1 0x1 EQ PUSH2 0x25E2 JUMPI PUSH1 0x0 SWAP3 PUSH2 0x25D7 JUMPI JUMPDEST POP POP DUP2 PUSH1 0x1 SHL SWAP2 PUSH1 0x0 NOT SWAP1 PUSH1 0x3 SHL SHR NOT AND OR SWAP1 SSTORE JUMPDEST PUSH1 0x3 DUP3 ADD PUSH1 0x80 DUP3 ADD MLOAD DUP1 MLOAD SWAP1 PUSH1 0x1 PUSH1 0x1 PUSH1 0x40 SHL SUB DUP3 GT PUSH2 0x1561 JUMPI DUP2 SWAP1 PUSH2 0x1CFF DUP5 SLOAD PUSH2 0x196F JUMP JUMPDEST PUSH1 0x1F DUP2 GT PUSH2 0x25A5 JUMPI JUMPDEST POP PUSH1 0x20 SWAP1 PUSH1 0x1F DUP4 GT PUSH1 0x1 EQ PUSH2 0x253F JUMPI PUSH1 0x0 SWAP3 PUSH2 0x2534 JUMPI JUMPDEST POP POP DUP2 PUSH1 0x1 SHL SWAP2 PUSH1 0x0 NOT SWAP1 PUSH1 0x3 SHL SHR NOT AND OR SWAP1 SSTORE JUMPDEST PUSH1 0x4 DUP3 ADD PUSH1 0xA0 DUP3 ADD MLOAD DUP1 MLOAD SWAP1 PUSH1 0x1 PUSH1 0x1 PUSH1 0x40 SHL SUB DUP3 GT PUSH2 0x1561 JUMPI DUP2 SWAP1 PUSH2 0x1D5A DUP5 SLOAD PUSH2 0x196F JUMP JUMPDEST PUSH1 0x1F DUP2 GT PUSH2 0x2502 JUMPI JUMPDEST POP PUSH1 0x20 SWAP1 PUSH1 0x1F DUP4 GT PUSH1 0x1 EQ PUSH2 0x249C JUMPI PUSH1 0x0 SWAP3 PUSH2 0x2491 JUMPI JUMPDEST POP POP DUP2 PUSH1 0x1 SHL SWAP2 PUSH1 0x0 NOT SWAP1 PUSH1 0x3 SHL SHR NOT AND OR SWAP1 SSTORE JUMPDEST PUSH1 0x5 DUP3 ADD PUSH1 0xC0 DUP3 ADD MLOAD DUP1 MLOAD SWAP1 PUSH1 0x1 PUSH1 0x1 PUSH1 0x40 SHL SUB DUP3 GT PUSH2 0x1561 JUMPI DUP2 SWAP1 PUSH2 0x1DB5 DUP5 SLOAD PUSH2 0x196F JUMP JUMPDEST PUSH1 0x1F DUP2 GT PUSH2 0x245F JUMPI JUMPDEST POP PUSH1 0x20 SWAP1 PUSH1 0x1F DUP4 GT PUSH1 0x1 EQ PUSH2 0x23F9 JUMPI PUSH1 0x0 SWAP3 PUSH2 0x23EE JUMPI JUMPDEST POP POP DUP2 PUSH1 0x1 SHL SWAP2 PUSH1 0x0 NOT SWAP1 PUSH1 0x3 SHL SHR NOT AND OR SWAP1 SSTORE JUMPDEST PUSH1 0xE0 DUP2 ADD MLOAD SWAP3 DUP4 MLOAD PUSH1 0x1 PUSH1 0x1 PUSH1 0x40 SHL SUB DUP2 GT PUSH2 0x1561 JUMPI PUSH2 0x1E0D PUSH1 0x6 DUP6 ADD SLOAD PUSH2 0x196F JUMP JUMPDEST PUSH1 0x1F DUP2 GT PUSH2 0x23B9 JUMPI JUMPDEST POP PUSH1 0x20 SWAP5 PUSH1 0x1F DUP3 GT PUSH1 0x1 EQ PUSH2 0x234D JUMPI SWAP5 DUP2 SWAP3 SWAP4 SWAP5 SWAP6 PUSH1 0x0 SWAP3 PUSH2 0x2342 JUMPI JUMPDEST POP POP DUP2 PUSH1 0x1 SHL SWAP2 PUSH1 0x0 NOT SWAP1 PUSH1 0x3 SHL SHR NOT AND OR PUSH1 0x6 DUP5 ADD SSTORE JUMPDEST PUSH2 0x100 DUP3 ADD MLOAD SWAP3 DUP4 MLOAD PUSH1 0x1 PUSH1 0x1 PUSH1 0x40 SHL SUB DUP2 GT PUSH2 0x1561 JUMPI PUSH2 0x1E6F PUSH1 0x7 DUP4 ADD SLOAD PUSH2 0x196F JUMP JUMPDEST PUSH1 0x1F DUP2 GT PUSH2 0x230D JUMPI JUMPDEST POP PUSH1 0x20 PUSH1 0x1F DUP3 GT PUSH1 0x1 EQ PUSH2 0x229E JUMPI DUP2 SWAP3 SWAP4 SWAP5 SWAP6 PUSH1 0x0 SWAP3 PUSH2 0x2293 JUMPI JUMPDEST POP POP DUP2 PUSH1 0x1 SHL SWAP2 PUSH1 0x0 NOT SWAP1 PUSH1 0x3 SHL SHR NOT AND OR PUSH1 0x7 DUP3 ADD SSTORE JUMPDEST PUSH2 0x120 DUP4 ADD MLOAD SWAP3 DUP4 MLOAD PUSH1 0x1 PUSH1 0x1 PUSH1 0x40 SHL SUB DUP2 GT PUSH2 0x1561 JUMPI PUSH2 0x1ECF PUSH1 0x8 DUP5 ADD SLOAD PUSH2 0x196F JUMP JUMPDEST PUSH1 0x1F DUP2 GT PUSH2 0x225E JUMPI JUMPDEST POP PUSH1 0x20 PUSH1 0x1F DUP3 GT PUSH1 0x1 EQ PUSH2 0x21EF JUMPI DUP2 SWAP3 SWAP4 SWAP5 SWAP6 PUSH1 0x0 SWAP3 PUSH2 0x21E4 JUMPI JUMPDEST POP POP DUP2 PUSH1 0x1 SHL SWAP2 PUSH1 0x0 NOT SWAP1 PUSH1 0x3 SHL SHR NOT AND OR PUSH1 0x8 DUP4 ADD SSTORE JUMPDEST PUSH1 0x9 DUP3 ADD PUSH2 0x140 DUP3 ADD MLOAD DUP1 MLOAD SWAP1 PUSH1 0x1 PUSH1 0x1 PUSH1 0x40 SHL SUB DUP3 GT PUSH2 0x1561 JUMPI DUP2 SWAP1 PUSH2 0x1F32 DUP5 SLOAD PUSH2 0x196F JUMP JUMPDEST PUSH1 0x1F DUP2 GT PUSH2 0x21A7 JUMPI JUMPDEST POP PUSH1 0x20 SWAP1 PUSH1 0x1F DUP4 GT PUSH1 0x1 EQ PUSH2 0x2141 JUMPI PUSH1 0x0 SWAP3 PUSH2 0x2136 JUMPI JUMPDEST POP POP DUP2 PUSH1 0x1 SHL SWAP2 PUSH1 0x0 NOT SWAP1 PUSH1 0x3 SHL SHR NOT AND OR SWAP1 SSTORE JUMPDEST PUSH2 0x160 DUP2 ADD MLOAD PUSH1 0xA DUP4 ADD SSTORE PUSH2 0x180 DUP2 ADD MLOAD DUP1 MLOAD PUSH1 0x1 PUSH1 0x40 SHL SWAP4 SWAP2 PUSH1 0xB DUP4 ADD SWAP1 DUP6 DUP4 GT PUSH2 0x1561 JUMPI DUP2 SLOAD DUP4 DUP4 SSTORE DUP1 DUP5 LT PUSH2 0x20CB JUMPI JUMPDEST POP PUSH1 0x20 ADD SWAP1 PUSH1 0x0 MSTORE PUSH1 0x20 PUSH1 0x0 KECCAK256 PUSH1 0x0 SWAP2 JUMPDEST DUP4 DUP4 LT PUSH2 0x20AD JUMPI POP POP POP POP PUSH1 0xC PUSH2 0x1A0 SWAP2 ADD SWAP2 ADD MLOAD DUP1 MLOAD SWAP3 DUP4 GT PUSH2 0x1561 JUMPI DUP2 SLOAD DUP4 DUP4 SSTORE DUP1 DUP5 LT PUSH2 0x2044 JUMPI JUMPDEST POP PUSH1 0x20 ADD SWAP1 PUSH1 0x0 MSTORE PUSH1 0x20 PUSH1 0x0 KECCAK256 PUSH1 0x0 SWAP2 JUMPDEST DUP4 DUP4 LT PUSH2 0x1FF4 JUMPI POP POP POP POP JUMP JUMPDEST PUSH1 0x3 PUSH1 0x20 DUP3 PUSH2 0x2038 PUSH1 0x1 SWAP5 MLOAD DUP7 SWAP1 PUSH1 0x40 PUSH1 0x2 SWAP2 PUSH1 0x1 DUP1 PUSH1 0xA0 SHL SUB DUP2 MLOAD AND PUSH12 0xFFFFFFFFFFFFFFFFFFFFFFFF PUSH1 0xA0 SHL DUP6 SLOAD AND OR DUP5 SSTORE PUSH1 0x20 DUP2 ADD MLOAD PUSH1 0x1 DUP6 ADD SSTORE ADD MLOAD SWAP2 ADD SSTORE JUMP JUMPDEST ADD SWAP3 ADD SWAP3 ADD SWAP2 SWAP1 PUSH2 0x1FE7 JUMP JUMPDEST DUP1 PUSH1 0x3 MUL SWAP1 PUSH1 0x3 DUP3 DIV SUB PUSH2 0x2097 JUMPI DUP4 PUSH1 0x3 MUL PUSH1 0x3 DUP2 DIV DUP6 SUB PUSH2 0x2097 JUMPI DUP4 PUSH1 0x0 MSTORE PUSH1 0x20 PUSH1 0x0 KECCAK256 SWAP2 DUP3 ADD SWAP2 ADD JUMPDEST DUP2 DUP2 LT PUSH2 0x207C JUMPI POP PUSH2 0x1FD6 JUMP JUMPDEST DUP1 PUSH1 0x0 PUSH1 0x3 SWAP3 SSTORE PUSH1 0x0 PUSH1 0x1 DUP3 ADD SSTORE PUSH1 0x0 PUSH1 0x2 DUP3 ADD SSTORE ADD PUSH2 0x206F JUMP JUMPDEST PUSH4 0x4E487B71 PUSH1 0xE0 SHL PUSH1 0x0 MSTORE PUSH1 0x11 PUSH1 0x4 MSTORE PUSH1 0x24 PUSH1 0x0 REVERT JUMPDEST PUSH1 0x5 PUSH1 0x20 DUP3 PUSH2 0x20BF PUSH1 0x1 SWAP5 MLOAD DUP7 PUSH2 0x1A0A JUMP JUMPDEST ADD SWAP3 ADD SWAP3 ADD SWAP2 SWAP1 PUSH2 0x1FAB JUMP JUMPDEST DUP1 PUSH1 0x5 MUL SWAP1 PUSH1 0x5 DUP3 DIV SUB PUSH2 0x2097 JUMPI DUP4 PUSH1 0x5 MUL PUSH1 0x5 DUP2 DIV DUP6 SUB PUSH2 0x2097 JUMPI DUP4 PUSH1 0x0 MSTORE PUSH1 0x20 PUSH1 0x0 KECCAK256 SWAP2 DUP3 ADD SWAP2 ADD JUMPDEST DUP2 DUP2 LT PUSH2 0x2103 JUMPI POP PUSH2 0x1F9A JUMP JUMPDEST DUP1 PUSH1 0x0 PUSH1 0x5 SWAP3 SSTORE PUSH1 0x0 PUSH1 0x1 DUP3 ADD SSTORE PUSH2 0x211D PUSH1 0x2 DUP3 ADD PUSH2 0x19C0 JUMP JUMPDEST PUSH1 0x0 PUSH1 0x3 DUP3 ADD SSTORE PUSH2 0x2130 PUSH1 0x4 DUP3 ADD PUSH2 0x19C0 JUMP JUMPDEST ADD PUSH2 0x20F6 JUMP JUMPDEST ADD MLOAD SWAP1 POP CODESIZE DUP1 PUSH2 0x1F52 JUMP JUMPDEST PUSH1 0x0 DUP6 DUP2 MSTORE PUSH1 0x20 DUP2 KECCAK256 SWAP4 POP PUSH1 0x1F NOT DUP6 AND SWAP1 JUMPDEST DUP2 DUP2 LT PUSH2 0x218F JUMPI POP SWAP1 DUP5 PUSH1 0x1 SWAP6 SWAP5 SWAP4 SWAP3 LT PUSH2 0x2176 JUMPI JUMPDEST POP POP POP DUP2 SHL ADD SWAP1 SSTORE PUSH2 0x1F67 JUMP JUMPDEST ADD MLOAD PUSH1 0x0 NOT PUSH1 0xF8 DUP5 PUSH1 0x3 SHL AND SHR NOT AND SWAP1 SSTORE CODESIZE DUP1 DUP1 PUSH2 0x2169 JUMP JUMPDEST SWAP3 SWAP4 PUSH1 0x20 PUSH1 0x1 DUP2 SWAP3 DUP8 DUP7 ADD MLOAD DUP2 SSTORE ADD SWAP6 ADD SWAP4 ADD PUSH2 0x2153 JUMP JUMPDEST PUSH2 0x21D4 SWAP1 DUP6 PUSH1 0x0 MSTORE PUSH1 0x20 PUSH1 0x0 KECCAK256 PUSH1 0x1F DUP6 ADD PUSH1 0x5 SHR DUP2 ADD SWAP2 PUSH1 0x20 DUP7 LT PUSH2 0x21DA JUMPI JUMPDEST PUSH1 0x1F ADD PUSH1 0x5 SHR ADD SWAP1 PUSH2 0x19A9 JUMP JUMPDEST CODESIZE PUSH2 0x1F3B JUMP JUMPDEST SWAP1 SWAP2 POP DUP2 SWAP1 PUSH2 0x21C7 JUMP JUMPDEST ADD MLOAD SWAP1 POP CODESIZE DUP1 PUSH2 0x1EF3 JUMP JUMPDEST PUSH1 0x8 DUP5 ADD PUSH1 0x0 MSTORE PUSH1 0x20 PUSH1 0x0 KECCAK256 SWAP1 PUSH1 0x0 JUMPDEST PUSH1 0x1F NOT DUP5 AND DUP2 LT PUSH2 0x2246 JUMPI POP PUSH1 0x1 SWAP4 SWAP5 SWAP6 SWAP7 DUP4 PUSH1 0x1F NOT DUP2 AND LT PUSH2 0x222D JUMPI JUMPDEST POP POP POP DUP2 SHL ADD PUSH1 0x8 DUP4 ADD SSTORE PUSH2 0x1F0B JUMP JUMPDEST ADD MLOAD PUSH1 0x0 NOT PUSH1 0xF8 DUP5 PUSH1 0x3 SHL AND SHR NOT AND SWAP1 SSTORE CODESIZE DUP1 DUP1 PUSH2 0x221D JUMP JUMPDEST SWAP1 SWAP2 PUSH1 0x20 PUSH1 0x1 DUP2 SWAP3 DUP6 DUP12 ADD MLOAD DUP2 SSTORE ADD SWAP4 ADD SWAP2 ADD PUSH2 0x21FF JUMP JUMPDEST PUSH2 0x228D SWAP1 PUSH1 0x8 DUP6 ADD PUSH1 0x0 MSTORE PUSH1 0x20 PUSH1 0x0 KECCAK256 PUSH1 0x1F DUP5 ADD PUSH1 0x5 SHR DUP2 ADD SWAP2 PUSH1 0x20 DUP6 LT PUSH2 0x21DA JUMPI PUSH1 0x1F ADD PUSH1 0x5 SHR ADD SWAP1 PUSH2 0x19A9 JUMP JUMPDEST CODESIZE PUSH2 0x1ED8 JUMP JUMPDEST ADD MLOAD SWAP1 POP CODESIZE DUP1 PUSH2 0x1E93 JUMP JUMPDEST PUSH1 0x7 DUP4 ADD PUSH1 0x0 MSTORE PUSH1 0x20 PUSH1 0x0 KECCAK256 SWAP1 PUSH1 0x0 JUMPDEST PUSH1 0x1F NOT DUP5 AND DUP2 LT PUSH2 0x22F5 JUMPI POP PUSH1 0x1 SWAP4 SWAP5 SWAP6 SWAP7 DUP4 PUSH1 0x1F NOT DUP2 AND LT PUSH2 0x22DC JUMPI JUMPDEST POP POP POP DUP2 SHL ADD PUSH1 0x7 DUP3 ADD SSTORE PUSH2 0x1EAB JUMP JUMPDEST ADD MLOAD PUSH1 0x0 NOT PUSH1 0xF8 DUP5 PUSH1 0x3 SHL AND SHR NOT AND SWAP1 SSTORE CODESIZE DUP1 DUP1 PUSH2 0x22CC JUMP JUMPDEST SWAP1 SWAP2 PUSH1 0x20 PUSH1 0x1 DUP2 SWAP3 DUP6 DUP12 ADD MLOAD DUP2 SSTORE ADD SWAP4 ADD SWAP2 ADD PUSH2 0x22AE JUMP JUMPDEST PUSH2 0x233C SWAP1 PUSH1 0x7 DUP5 ADD PUSH1 0x0 MSTORE PUSH1 0x20 PUSH1 0x0 KECCAK256 PUSH1 0x1F DUP5 ADD PUSH1 0x5 SHR DUP2 ADD SWAP2 PUSH1 0x20 DUP6 LT PUSH2 0x21DA JUMPI PUSH1 0x1F ADD PUSH1 0x5 SHR ADD SWAP1 PUSH2 0x19A9 JUMP JUMPDEST CODESIZE PUSH2 0x1E78 JUMP JUMPDEST ADD MLOAD SWAP1 POP CODESIZE DUP1 PUSH2 0x1E33 JUMP JUMPDEST PUSH1 0x1F NOT DUP3 AND SWAP6 PUSH1 0x6 DUP7 ADD PUSH1 0x0 MSTORE PUSH1 0x20 PUSH1 0x0 KECCAK256 SWAP2 PUSH1 0x0 JUMPDEST DUP9 DUP2 LT PUSH2 0x23A1 JUMPI POP DUP4 PUSH1 0x1 SWAP6 SWAP7 SWAP8 SWAP9 LT PUSH2 0x2388 JUMPI JUMPDEST POP POP POP DUP2 SHL ADD PUSH1 0x6 DUP5 ADD SSTORE PUSH2 0x1E4B JUMP JUMPDEST ADD MLOAD PUSH1 0x0 NOT PUSH1 0xF8 DUP5 PUSH1 0x3 SHL AND SHR NOT AND SWAP1 SSTORE CODESIZE DUP1 DUP1 PUSH2 0x2378 JUMP JUMPDEST SWAP2 SWAP3 PUSH1 0x20 PUSH1 0x1 DUP2 SWAP3 DUP7 DUP6 ADD MLOAD DUP2 SSTORE ADD SWAP5 ADD SWAP3 ADD PUSH2 0x2363 JUMP JUMPDEST PUSH2 0x23E8 SWAP1 PUSH1 0x6 DUP7 ADD PUSH1 0x0 MSTORE PUSH1 0x20 PUSH1 0x0 KECCAK256 PUSH1 0x1F DUP5 ADD PUSH1 0x5 SHR DUP2 ADD SWAP2 PUSH1 0x20 DUP6 LT PUSH2 0x21DA JUMPI PUSH1 0x1F ADD PUSH1 0x5 SHR ADD SWAP1 PUSH2 0x19A9 JUMP JUMPDEST CODESIZE PUSH2 0x1E16 JUMP JUMPDEST ADD MLOAD SWAP1 POP CODESIZE DUP1 PUSH2 0x1DD5 JUMP JUMPDEST PUSH1 0x0 DUP6 DUP2 MSTORE PUSH1 0x20 DUP2 KECCAK256 SWAP4 POP PUSH1 0x1F NOT DUP6 AND SWAP1 JUMPDEST DUP2 DUP2 LT PUSH2 0x2447 JUMPI POP SWAP1 DUP5 PUSH1 0x1 SWAP6 SWAP5 SWAP4 SWAP3 LT PUSH2 0x242E JUMPI JUMPDEST POP POP POP DUP2 SHL ADD SWAP1 SSTORE PUSH2 0x1DEA JUMP JUMPDEST ADD MLOAD PUSH1 0x0 NOT PUSH1 0xF8 DUP5 PUSH1 0x3 SHL AND SHR NOT AND SWAP1 SSTORE CODESIZE DUP1 DUP1 PUSH2 0x2421 JUMP JUMPDEST SWAP3 SWAP4 PUSH1 0x20 PUSH1 0x1 DUP2 SWAP3 DUP8 DUP7 ADD MLOAD DUP2 SSTORE ADD SWAP6 ADD SWAP4 ADD PUSH2 0x240B JUMP JUMPDEST PUSH2 0x248B SWAP1 DUP6 PUSH1 0x0 MSTORE PUSH1 0x20 PUSH1 0x0 KECCAK256 PUSH1 0x1F DUP6 ADD PUSH1 0x5 SHR DUP2 ADD SWAP2 PUSH1 0x20 DUP7 LT PUSH2 0x21DA JUMPI PUSH1 0x1F ADD PUSH1 0x5 SHR ADD SWAP1 PUSH2 0x19A9 JUMP JUMPDEST CODESIZE PUSH2 0x1DBE JUMP JUMPDEST ADD MLOAD SWAP1 POP CODESIZE DUP1 PUSH2 0x1D7A JUMP JUMPDEST PUSH1 0x0 DUP6 DUP2 MSTORE PUSH1 0x20 DUP2 KECCAK256 SWAP4 POP PUSH1 0x1F NOT DUP6 AND SWAP1 JUMPDEST DUP2 DUP2 LT PUSH2 0x24EA JUMPI POP SWAP1 DUP5 PUSH1 0x1 SWAP6 SWAP5 SWAP4 SWAP3 LT PUSH2 0x24D1 JUMPI JUMPDEST POP POP POP DUP2 SHL ADD SWAP1 SSTORE PUSH2 0x1D8F JUMP JUMPDEST ADD MLOAD PUSH1 0x0 NOT PUSH1 0xF8 DUP5 PUSH1 0x3 SHL AND SHR NOT AND SWAP1 SSTORE CODESIZE DUP1 DUP1 PUSH2 0x24C4 JUMP JUMPDEST SWAP3 SWAP4 PUSH1 0x20 PUSH1 0x1 DUP2 SWAP3 DUP8 DUP7 ADD MLOAD DUP2 SSTORE ADD SWAP6 ADD SWAP4 ADD PUSH2 0x24AE JUMP JUMPDEST PUSH2 0x252E SWAP1 DUP6 PUSH1 0x0 MSTORE PUSH1 0x20 PUSH1 0x0 KECCAK256 PUSH1 0x1F DUP6 ADD PUSH1 0x5 SHR DUP2 ADD SWAP2 PUSH1 0x20 DUP7 LT PUSH2 0x21DA JUMPI PUSH1 0x1F ADD PUSH1 0x5 SHR ADD SWAP1 PUSH2 0x19A9 JUMP JUMPDEST CODESIZE PUSH2 0x1D63 JUMP JUMPDEST ADD MLOAD SWAP1 POP CODESIZE DUP1 PUSH2 0x1D1F JUMP JUMPDEST PUSH1 0x0 DUP6 DUP2 MSTORE PUSH1 0x20 DUP2 KECCAK256 SWAP4 POP PUSH1 0x1F NOT DUP6 AND SWAP1 JUMPDEST DUP2 DUP2 LT PUSH2 0x258D JUMPI POP SWAP1 DUP5 PUSH1 0x1 SWAP6 SWAP5 SWAP4 SWAP3 LT PUSH2 0x2574 JUMPI JUMPDEST POP POP POP DUP2 SHL ADD SWAP1 SSTORE PUSH2 0x1D34 JUMP JUMPDEST ADD MLOAD PUSH1 0x0 NOT PUSH1 0xF8 DUP5 PUSH1 0x3 SHL AND SHR NOT AND SWAP1 SSTORE CODESIZE DUP1 DUP1 PUSH2 0x2567 JUMP JUMPDEST SWAP3 SWAP4 PUSH1 0x20 PUSH1 0x1 DUP2 SWAP3 DUP8 DUP7 ADD MLOAD DUP2 SSTORE ADD SWAP6 ADD SWAP4 ADD PUSH2 0x2551 JUMP JUMPDEST PUSH2 0x25D1 SWAP1 DUP6 PUSH1 0x0 MSTORE PUSH1 0x20 PUSH1 0x0 KECCAK256 PUSH1 0x1F DUP6 ADD PUSH1 0x5 SHR DUP2 ADD SWAP2 PUSH1 0x20 DUP7 LT PUSH2 0x21DA JUMPI PUSH1 0x1F ADD PUSH1 0x5 SHR ADD SWAP1 PUSH2 0x19A9 JUMP JUMPDEST CODESIZE PUSH2 0x1D08 JUMP JUMPDEST ADD MLOAD SWAP1 POP CODESIZE DUP1 PUSH2 0x1CC4 JUMP JUMPDEST PUSH1 0x0 DUP6 DUP2 MSTORE PUSH1 0x20 DUP2 KECCAK256 SWAP4 POP PUSH1 0x1F NOT DUP6 AND SWAP1 JUMPDEST DUP2 DUP2 LT PUSH2 0x2630 JUMPI POP SWAP1 DUP5 PUSH1 0x1 SWAP6 SWAP5 SWAP4 SWAP3 LT PUSH2 0x2617 JUMPI JUMPDEST POP POP POP DUP2 SHL ADD SWAP1 SSTORE PUSH2 0x1CD9 JUMP JUMPDEST ADD MLOAD PUSH1 0x0 NOT PUSH1 0xF8 DUP5 PUSH1 0x3 SHL AND SHR NOT AND SWAP1 SSTORE CODESIZE DUP1 DUP1 PUSH2 0x260A JUMP JUMPDEST SWAP3 SWAP4 PUSH1 0x20 PUSH1 0x1 DUP2 SWAP3 DUP8 DUP7 ADD MLOAD DUP2 SSTORE ADD SWAP6 ADD SWAP4 ADD PUSH2 0x25F4 JUMP JUMPDEST PUSH2 0x2674 SWAP1 DUP6 PUSH1 0x0 MSTORE PUSH1 0x20 PUSH1 0x0 KECCAK256 PUSH1 0x1F DUP6 ADD PUSH1 0x5 SHR DUP2 ADD SWAP2 PUSH1 0x20 DUP7 LT PUSH2 0x21DA JUMPI PUSH1 0x1F ADD PUSH1 0x5 SHR ADD SWAP1 PUSH2 0x19A9 JUMP JUMPDEST CODESIZE PUSH2 0x1CAD JUMP JUMPDEST PUSH4 0x4E487B71 PUSH1 0xE0 SHL PUSH1 0x0 MSTORE PUSH1 0x0 PUSH1 0x4 MSTORE PUSH1 0x24 PUSH1 0x0 REVERT JUMPDEST PUSH2 0x26A8 SWAP1 PUSH1 0x20 PUSH1 0x40 MLOAD SWAP3 DUP3 DUP5 DUP1 SWAP5 MLOAD SWAP4 DUP5 SWAP3 ADD PUSH2 0x166C JUMP JUMPDEST DUP2 ADD SUB SWAP1 KECCAK256 SWAP1 JUMP JUMPDEST PUSH1 0x0 NOT DUP2 EQ PUSH2 0x2097 JUMPI PUSH1 0x1 ADD SWAP1 JUMP JUMPDEST SWAP1 PUSH1 0x40 MLOAD SWAP2 DUP3 PUSH1 0x0 DUP3 SLOAD SWAP3 PUSH2 0x26D3 DUP5 PUSH2 0x196F JUMP JUMPDEST SWAP1 DUP2 DUP5 MSTORE PUSH1 0x1 SWAP5 DUP6 DUP2 AND SWAP1 DUP2 PUSH1 0x0 EQ PUSH2 0x2740 JUMPI POP PUSH1 0x1 EQ PUSH2 0x26FD JUMPI JUMPDEST POP POP PUSH2 0x19E5 SWAP3 POP SUB DUP4 PUSH2 0x15E4 JUMP JUMPDEST SWAP1 SWAP4 SWAP2 POP PUSH1 0x0 MSTORE PUSH1 0x20 SWAP1 DUP2 PUSH1 0x0 KECCAK256 SWAP4 PUSH1 0x0 SWAP2 JUMPDEST DUP2 DUP4 LT PUSH2 0x2728 JUMPI POP POP PUSH2 0x19E5 SWAP4 POP DUP3 ADD ADD CODESIZE DUP1 PUSH2 0x26EF JUMP JUMPDEST DUP6 SLOAD DUP9 DUP5 ADD DUP6 ADD MSTORE SWAP5 DUP6 ADD SWAP5 DUP8 SWAP5 POP SWAP2 DUP4 ADD SWAP2 PUSH2 0x2710 JUMP JUMPDEST SWAP2 POP POP PUSH2 0x19E5 SWAP5 POP PUSH1 0x20 SWAP3 POP PUSH1 0xFF NOT AND DUP3 DUP5 ADD MSTORE ISZERO ISZERO PUSH1 0x5 SHL DUP3 ADD ADD CODESIZE DUP1 PUSH2 0x26EF JUMP JUMPDEST SWAP1 PUSH1 0x40 MLOAD SWAP2 PUSH1 0x20 SWAP3 PUSH2 0x2791 DUP5 DUP3 DUP2 PUSH2 0x2784 DUP2 DUP4 ADD SWAP7 DUP8 DUP2 MLOAD SWAP4 DUP5 SWAP3 ADD PUSH2 0x166C JUMP JUMPDEST DUP2 ADD SUB DUP1 DUP5 MSTORE ADD DUP3 PUSH2 0x15E4 JUMP JUMPDEST MLOAD SWAP1 KECCAK256 SWAP2 PUSH2 0x27B1 PUSH1 0x40 MLOAD SWAP2 DUP3 DUP2 PUSH2 0x2784 DUP2 DUP4 ADD SWAP7 DUP8 DUP2 MLOAD SWAP4 DUP5 SWAP3 ADD PUSH2 0x166C JUMP JUMPDEST MLOAD SWAP1 KECCAK256 EQ SWAP1 JUMP JUMPDEST PUSH1 0x1 PUSH1 0x1 PUSH1 0x40 SHL SUB DUP2 GT PUSH2 0x1561 JUMPI PUSH1 0x5 SHL PUSH1 0x20 ADD SWAP1 JUMP JUMPDEST SWAP1 DUP2 SLOAD PUSH2 0x27DB DUP2 PUSH2 0x27B8 JUMP JUMPDEST SWAP3 PUSH1 0x40 SWAP4 PUSH2 0x27EB DUP6 MLOAD SWAP2 DUP3 PUSH2 0x15E4 JUMP JUMPDEST DUP3 DUP2 MSTORE DUP1 SWAP5 PUSH1 0x20 DUP1 SWAP3 ADD SWAP3 PUSH1 0x0 MSTORE DUP2 PUSH1 0x0 KECCAK256 SWAP1 PUSH1 0x0 SWAP4 JUMPDEST DUP6 DUP6 LT PUSH2 0x2811 JUMPI POP POP POP POP POP POP JUMP JUMPDEST PUSH1 0x5 DUP5 PUSH1 0x1 SWAP3 DUP5 MLOAD PUSH2 0x2822 DUP2 PUSH2 0x1593 JUMP JUMPDEST DUP5 DUP1 PUSH1 0xA0 SHL SUB DUP8 SLOAD AND DUP2 MSTORE DUP5 DUP8 ADD SLOAD DUP4 DUP3 ADD MSTORE PUSH2 0x2841 PUSH1 0x2 DUP9 ADD PUSH2 0x26BF JUMP JUMPDEST DUP7 DUP3 ADD MSTORE PUSH1 0x3 DUP8 ADD SLOAD PUSH1 0x60 DUP3 ADD MSTORE PUSH2 0x285B PUSH1 0x4 DUP9 ADD PUSH2 0x26BF JUMP JUMPDEST PUSH1 0x80 DUP3 ADD MSTORE DUP2 MSTORE ADD SWAP4 ADD SWAP5 ADD SWAP4 SWAP2 PUSH2 0x2802 JUMP JUMPDEST SWAP1 DUP2 SLOAD PUSH2 0x287A DUP2 PUSH2 0x27B8 JUMP JUMPDEST SWAP3 PUSH1 0x40 SWAP4 PUSH2 0x288A DUP6 MLOAD SWAP2 DUP3 PUSH2 0x15E4 JUMP JUMPDEST DUP3 DUP2 MSTORE DUP1 SWAP5 PUSH1 0x20 DUP1 SWAP3 ADD SWAP3 PUSH1 0x0 MSTORE DUP2 PUSH1 0x0 KECCAK256 SWAP1 PUSH1 0x0 SWAP4 JUMPDEST DUP6 DUP6 LT PUSH2 0x28B0 JUMPI POP POP POP POP POP POP JUMP JUMPDEST PUSH1 0x3 DUP5 PUSH1 0x1 SWAP3 DUP5 MLOAD PUSH2 0x28C1 DUP2 PUSH2 0x15AE JUMP JUMPDEST DUP5 DUP1 PUSH1 0xA0 SHL SUB DUP8 SLOAD AND DUP2 MSTORE DUP5 DUP8 ADD SLOAD DUP4 DUP3 ADD MSTORE PUSH1 0x2 DUP8 ADD SLOAD DUP7 DUP3 ADD MSTORE DUP2 MSTORE ADD SWAP4 ADD SWAP5 ADD SWAP4 SWAP2 PUSH2 0x28A1 JUMP JUMPDEST SWAP1 PUSH1 0x40 MLOAD PUSH2 0x28F8 DUP2 PUSH2 0x1577 JUMP JUMPDEST PUSH2 0x1A0 PUSH2 0x29D4 PUSH1 0xC DUP4 SWAP6 DUP1 SLOAD DUP6 MSTORE PUSH1 0xFF PUSH1 0x1 DUP3 ADD SLOAD PUSH1 0x1 DUP1 PUSH1 0xA0 SHL SUB DUP2 AND PUSH1 0x20 DUP9 ADD MSTORE PUSH1 0xA0 SHR AND ISZERO ISZERO PUSH1 0x40 DUP7 ADD MSTORE PUSH2 0x2932 PUSH1 0x2 DUP3 ADD PUSH2 0x26BF JUMP JUMPDEST PUSH1 0x60 DUP7 ADD MSTORE PUSH2 0x2943 PUSH1 0x3 DUP3 ADD PUSH2 0x26BF JUMP JUMPDEST PUSH1 0x80 DUP7 ADD MSTORE PUSH2 0x2954 PUSH1 0x4 DUP3 ADD PUSH2 0x26BF JUMP JUMPDEST PUSH1 0xA0 DUP7 ADD MSTORE PUSH2 0x2965 PUSH1 0x5 DUP3 ADD PUSH2 0x26BF JUMP JUMPDEST PUSH1 0xC0 DUP7 ADD MSTORE PUSH2 0x2976 PUSH1 0x6 DUP3 ADD PUSH2 0x26BF JUMP JUMPDEST PUSH1 0xE0 DUP7 ADD MSTORE PUSH2 0x2987 PUSH1 0x7 DUP3 ADD PUSH2 0x26BF JUMP JUMPDEST PUSH2 0x100 DUP7 ADD MSTORE PUSH2 0x2999 PUSH1 0x8 DUP3 ADD PUSH2 0x26BF JUMP JUMPDEST PUSH2 0x120 DUP7 ADD MSTORE PUSH2 0x29AB PUSH1 0x9 DUP3 ADD PUSH2 0x26BF JUMP JUMPDEST PUSH2 0x140 DUP7 ADD MSTORE PUSH1 0xA DUP2 ADD SLOAD PUSH2 0x160 DUP7 ADD MSTORE PUSH2 0x29C8 PUSH1 0xB DUP3 ADD PUSH2 0x27CF JUMP JUMPDEST PUSH2 0x180 DUP7 ADD MSTORE ADD PUSH2 0x286E JUMP JUMPDEST SWAP2 ADD MSTORE JUMP JUMPDEST SWAP1 DUP2 PUSH1 0x20 SWAP2 SUB SLT PUSH2 0x1667 JUMPI MLOAD DUP1 ISZERO ISZERO DUP2 SUB PUSH2 0x1667 JUMPI SWAP1 JUMP JUMPDEST PUSH1 0x40 MLOAD SWAP1 PUSH2 0x29FE DUP3 PUSH2 0x1577 JUMP JUMPDEST DUP2 PUSH1 0x0 DUP2 MSTORE PUSH1 0x0 PUSH1 0x20 DUP3 ADD MSTORE PUSH1 0x0 PUSH1 0x40 DUP3 ADD MSTORE PUSH2 0x1A0 PUSH1 0x60 SWAP2 DUP3 DUP1 DUP3 ADD MSTORE DUP3 PUSH1 0x80 DUP3 ADD MSTORE DUP3 PUSH1 0xA0 DUP3 ADD MSTORE DUP3 PUSH1 0xC0 DUP3 ADD MSTORE DUP3 PUSH1 0xE0 DUP3 ADD MSTORE DUP3 PUSH2 0x100 DUP3 ADD MSTORE DUP3 PUSH2 0x120 DUP3 ADD MSTORE DUP3 PUSH2 0x140 DUP3 ADD MSTORE PUSH1 0x0 PUSH2 0x160 DUP3 ADD MSTORE DUP3 PUSH2 0x180 DUP3 ADD MSTORE ADD MSTORE JUMP JUMPDEST SWAP1 PUSH2 0x2A66 DUP3 PUSH2 0x27B8 JUMP JUMPDEST PUSH2 0x2A73 PUSH1 0x40 MLOAD SWAP2 DUP3 PUSH2 0x15E4 JUMP JUMPDEST DUP3 DUP2 MSTORE DUP1 SWAP3 PUSH2 0x2A84 PUSH1 0x1F NOT SWAP2 PUSH2 0x27B8 JUMP JUMPDEST ADD SWAP1 PUSH1 0x0 JUMPDEST DUP3 DUP2 LT PUSH2 0x2A95 JUMPI POP POP POP JUMP JUMPDEST PUSH1 0x20 SWAP1 PUSH2 0x2AA0 PUSH2 0x29F1 JUMP JUMPDEST DUP3 DUP3 DUP6 ADD ADD MSTORE ADD PUSH2 0x2A89 JUMP JUMPDEST DUP1 MLOAD DUP3 LT ISZERO PUSH2 0x1959 JUMPI PUSH1 0x20 SWAP2 PUSH1 0x5 SHL ADD ADD SWAP1 JUMP JUMPDEST PUSH2 0x2AC8 PUSH2 0x29F1 JUMP JUMPDEST POP PUSH1 0x5 SLOAD SWAP1 PUSH1 0x0 JUMPDEST DUP3 DUP2 LT PUSH2 0x2BB6 JUMPI POP POP POP PUSH1 0x40 DUP1 MLOAD SWAP1 PUSH2 0x2AE8 DUP3 PUSH2 0x1577 JUMP JUMPDEST PUSH1 0x0 DUP3 MSTORE PUSH1 0x0 PUSH1 0x20 DUP4 ADD MSTORE PUSH1 0x0 DUP2 DUP4 ADD MSTORE DUP1 MLOAD PUSH2 0x2B04 DUP2 PUSH2 0x15C9 JUMP JUMPDEST PUSH1 0x0 DUP2 MSTORE PUSH1 0x60 DUP4 ADD MSTORE DUP1 MLOAD PUSH2 0x2B18 DUP2 PUSH2 0x15C9 JUMP JUMPDEST PUSH1 0x0 DUP2 MSTORE PUSH1 0x80 DUP4 ADD MSTORE DUP1 MLOAD PUSH2 0x2B2C DUP2 PUSH2 0x15C9 JUMP JUMPDEST PUSH1 0x0 DUP2 MSTORE PUSH1 0xA0 DUP4 ADD MSTORE DUP1 MLOAD PUSH2 0x2B40 DUP2 PUSH2 0x15C9 JUMP JUMPDEST PUSH1 0x0 DUP2 MSTORE PUSH1 0xC0 DUP4 ADD MSTORE DUP1 MLOAD PUSH2 0x2B54 DUP2 PUSH2 0x15C9 JUMP JUMPDEST PUSH1 0x0 DUP2 MSTORE PUSH1 0xE0 DUP4 ADD MSTORE DUP1 MLOAD PUSH2 0x2B68 DUP2 PUSH2 0x15C9 JUMP JUMPDEST PUSH1 0x0 DUP2 MSTORE PUSH2 0x100 DUP4 ADD MSTORE DUP1 MLOAD PUSH2 0x2B7D DUP2 PUSH2 0x15C9 JUMP JUMPDEST PUSH1 0x0 DUP2 MSTORE PUSH2 0x120 DUP4 ADD MSTORE MLOAD PUSH2 0x2B91 DUP2 PUSH2 0x15C9 JUMP JUMPDEST PUSH1 0x0 DUP2 MSTORE PUSH2 0x140 DUP3 ADD MSTORE PUSH1 0x0 PUSH2 0x160 DUP3 ADD MSTORE PUSH1 0x60 PUSH2 0x180 DUP3 ADD MSTORE PUSH1 0x60 PUSH2 0x1A0 DUP3 ADD MSTORE SWAP1 JUMP JUMPDEST PUSH2 0x2BC8 DUP3 PUSH2 0x266 PUSH1 0x9 PUSH2 0x25F DUP6 PUSH2 0x191E JUMP JUMPDEST PUSH2 0x2BDA JUMPI PUSH2 0x2BD5 SWAP1 PUSH2 0x26B0 JUMP JUMPDEST PUSH2 0x2AD0 JUMP JUMPDEST PUSH2 0x2BE9 SWAP3 POP PUSH2 0x28D SWAP2 POP PUSH2 0x191E JUMP JUMPDEST SWAP1 JUMP JUMPDEST PUSH1 0x5 SLOAD SWAP1 PUSH1 0x0 JUMPDEST DUP3 DUP2 LT PUSH2 0x2C02 JUMPI POP POP POP PUSH1 0x0 SWAP1 JUMP JUMPDEST PUSH2 0x2C14 DUP3 PUSH2 0x266 PUSH1 0x9 PUSH2 0x25F DUP6 PUSH2 0x191E JUMP JUMPDEST PUSH2 0x2C26 JUMPI PUSH2 0x2C21 SWAP1 PUSH2 0x26B0 JUMP JUMPDEST PUSH2 0x2BF3 JUMP JUMPDEST POP POP POP PUSH1 0x1 SWAP1 JUMP INVALID LOG2 PUSH5 0x6970667358 0x22 SLT KECCAK256 0xA8 0xD 0xDB CALLCODE MUL 0x4D STATICCALL RETURNDATACOPY PUSH15 0xF9829AC08326FC7A674CF642289220 TIMESTAMP RETURNDATASIZE PUSH9 0x7193D653C964736F6C PUSH4 0x43000814 STOP CALLER "
        },
        "methodIdentifiers": {
          "addComment(string,uint256,string,string,address)": "93ec02f1",
          "addressToLastGetMetaverseToken(address)": "bddff4d8",
          "buyItem(string,address,uint256)": "d41aab23",
          "changeListingVisibility(string,bool)": "990d6459",
          "get1000MetaverseToken()": "e607a8ba",
          "getAllUserListings()": "9992b606",
          "getListingByProductCode(string)": "bd623642",
          "getListingByProductType(string)": "9dee74d5",
          "getProceeds(address,string)": "a39249b8",
          "getUserListing()": "7791b330",
          "getUserProfile(address)": "987ee156",
          "listItem(uint256,string,string,string,string,string,string,string,string,uint256)": "1a13cc59",
          "metaverseToken()": "3829f313",
          "productCodeExists(string)": "1cad3ac5",
          "setUserProfile(string,string)": "016363fa",
          "updateListing(string,uint256,string,string,string,string,string)": "318bb5c7",
          "withdrawProceeds(string)": "a97ce3c2"
        }
      }
    }
  }
}