{
  "contracts/MetaverseMarketplace.sol": {
    "MetaverseMarketplace": {
      "abi": [
        {
          "inputs": [
            {
              "internalType": "address",
              "name": "_metaverseTokenAddress",
              "type": "address"
            }
          ],
          "stateMutability": "nonpayable",
          "type": "constructor"
        },
        {
          "inputs": [
            {
              "internalType": "address",
              "name": "senderAddress",
              "type": "address"
            }
          ],
          "name": "MetaverseMarketplace__AddressLessThan1DayForMetaverseToken",
          "type": "error"
        },
        {
          "inputs": [],
          "name": "MetaverseMarketplace__NoProceeds",
          "type": "error"
        },
        {
          "inputs": [],
          "name": "MetaverseMarketplace__PriceMustBeAboveZero",
          "type": "error"
        },
        {
          "inputs": [
            {
              "internalType": "string",
              "name": "productCode",
              "type": "string"
            },
            {
              "internalType": "address",
              "name": "seller",
              "type": "address"
            },
            {
              "internalType": "uint256",
              "name": "price",
              "type": "uint256"
            }
          ],
          "name": "MetaverseMarketplace__PriceNotMet",
          "type": "error"
        },
        {
          "inputs": [],
          "name": "ReentrancyGuardReentrantCall",
          "type": "error"
        },
        {
          "anonymous": false,
          "inputs": [
            {
              "indexed": true,
              "internalType": "address",
              "name": "commenter",
              "type": "address"
            },
            {
              "indexed": true,
              "internalType": "string",
              "name": "comment",
              "type": "string"
            },
            {
              "indexed": true,
              "internalType": "string",
              "name": "productCode",
              "type": "string"
            },
            {
              "indexed": false,
              "internalType": "address",
              "name": "seller",
              "type": "address"
            }
          ],
          "name": "CommentAdded",
          "type": "event"
        },
        {
          "anonymous": false,
          "inputs": [
            {
              "indexed": true,
              "internalType": "address",
              "name": "buyer",
              "type": "address"
            },
            {
              "indexed": true,
              "internalType": "string",
              "name": "productCode",
              "type": "string"
            },
            {
              "indexed": true,
              "internalType": "uint256",
              "name": "price",
              "type": "uint256"
            }
          ],
          "name": "ItemBought",
          "type": "event"
        },
        {
          "anonymous": false,
          "inputs": [
            {
              "indexed": true,
              "internalType": "address",
              "name": "seller",
              "type": "address"
            },
            {
              "indexed": true,
              "internalType": "uint256",
              "name": "price",
              "type": "uint256"
            },
            {
              "indexed": true,
              "internalType": "string",
              "name": "productCode",
              "type": "string"
            },
            {
              "indexed": false,
              "internalType": "string",
              "name": "title",
              "type": "string"
            }
          ],
          "name": "ItemListed",
          "type": "event"
        },
        {
          "anonymous": false,
          "inputs": [
            {
              "indexed": true,
              "internalType": "address",
              "name": "seller",
              "type": "address"
            },
            {
              "indexed": true,
              "internalType": "string",
              "name": "productCode",
              "type": "string"
            },
            {
              "indexed": true,
              "internalType": "bool",
              "name": "publish",
              "type": "bool"
            }
          ],
          "name": "ItemPublished",
          "type": "event"
        },
        {
          "anonymous": false,
          "inputs": [
            {
              "indexed": true,
              "internalType": "address",
              "name": "seller",
              "type": "address"
            },
            {
              "indexed": true,
              "internalType": "string",
              "name": "productCode",
              "type": "string"
            },
            {
              "indexed": true,
              "internalType": "string",
              "name": "title",
              "type": "string"
            },
            {
              "indexed": false,
              "internalType": "uint256",
              "name": "price",
              "type": "uint256"
            }
          ],
          "name": "ListingUpdated",
          "type": "event"
        },
        {
          "anonymous": false,
          "inputs": [
            {
              "indexed": true,
              "internalType": "address",
              "name": "person",
              "type": "address"
            }
          ],
          "name": "MetaverseAirdrop",
          "type": "event"
        },
        {
          "anonymous": false,
          "inputs": [
            {
              "indexed": true,
              "internalType": "address",
              "name": "person",
              "type": "address"
            },
            {
              "indexed": true,
              "internalType": "string",
              "name": "currency",
              "type": "string"
            },
            {
              "indexed": true,
              "internalType": "uint256",
              "name": "amount",
              "type": "uint256"
            }
          ],
          "name": "ProceedsWithdrawn",
          "type": "event"
        },
        {
          "anonymous": false,
          "inputs": [
            {
              "indexed": true,
              "internalType": "address",
              "name": "owner",
              "type": "address"
            },
            {
              "indexed": true,
              "internalType": "string",
              "name": "username",
              "type": "string"
            },
            {
              "indexed": true,
              "internalType": "string",
              "name": "profileImageUrl",
              "type": "string"
            }
          ],
          "name": "SetUserProfile",
          "type": "event"
        },
        {
          "inputs": [
            {
              "internalType": "string",
              "name": "comment",
              "type": "string"
            },
            {
              "internalType": "uint256",
              "name": "rating",
              "type": "uint256"
            },
            {
              "internalType": "string",
              "name": "dateString",
              "type": "string"
            },
            {
              "internalType": "string",
              "name": "productCode",
              "type": "string"
            },
            {
              "internalType": "address",
              "name": "seller",
              "type": "address"
            }
          ],
          "name": "addComment",
          "outputs": [],
          "stateMutability": "nonpayable",
          "type": "function"
        },
        {
          "inputs": [
            {
              "internalType": "address",
              "name": "",
              "type": "address"
            }
          ],
          "name": "addressToLastGetMetaverseToken",
          "outputs": [
            {
              "internalType": "uint256",
              "name": "",
              "type": "uint256"
            }
          ],
          "stateMutability": "view",
          "type": "function"
        },
        {
          "inputs": [
            {
              "internalType": "string",
              "name": "productCode",
              "type": "string"
            },
            {
              "internalType": "address",
              "name": "seller",
              "type": "address"
            },
            {
              "internalType": "uint256",
              "name": "quantity",
              "type": "uint256"
            }
          ],
          "name": "buyItem",
          "outputs": [],
          "stateMutability": "payable",
          "type": "function"
        },
        {
          "inputs": [
            {
              "internalType": "string",
              "name": "productCode",
              "type": "string"
            },
            {
              "internalType": "bool",
              "name": "publish",
              "type": "bool"
            }
          ],
          "name": "changeListingVisibility",
          "outputs": [],
          "stateMutability": "nonpayable",
          "type": "function"
        },
        {
          "inputs": [],
          "name": "get1000MetaverseToken",
          "outputs": [],
          "stateMutability": "nonpayable",
          "type": "function"
        },
        {
          "inputs": [],
          "name": "getAllUserListings",
          "outputs": [
            {
              "components": [
                {
                  "internalType": "uint256",
                  "name": "price",
                  "type": "uint256"
                },
                {
                  "internalType": "address",
                  "name": "seller",
                  "type": "address"
                },
                {
                  "internalType": "bool",
                  "name": "published",
                  "type": "bool"
                },
                {
                  "internalType": "string",
                  "name": "productType",
                  "type": "string"
                },
                {
                  "internalType": "string",
                  "name": "title",
                  "type": "string"
                },
                {
                  "internalType": "string",
                  "name": "description",
                  "type": "string"
                },
                {
                  "internalType": "string",
                  "name": "imageUrl",
                  "type": "string"
                },
                {
                  "internalType": "string",
                  "name": "currency",
                  "type": "string"
                },
                {
                  "internalType": "string",
                  "name": "productUrl",
                  "type": "string"
                },
                {
                  "internalType": "string",
                  "name": "productInfo",
                  "type": "string"
                },
                {
                  "internalType": "string",
                  "name": "productCode",
                  "type": "string"
                },
                {
                  "internalType": "uint256",
                  "name": "nftTokenId",
                  "type": "uint256"
                },
                {
                  "components": [
                    {
                      "internalType": "address",
                      "name": "commenter",
                      "type": "address"
                    },
                    {
                      "internalType": "uint256",
                      "name": "rating",
                      "type": "uint256"
                    },
                    {
                      "internalType": "string",
                      "name": "comment",
                      "type": "string"
                    },
                    {
                      "internalType": "uint256",
                      "name": "time",
                      "type": "uint256"
                    },
                    {
                      "internalType": "string",
                      "name": "dateString",
                      "type": "string"
                    }
                  ],
                  "internalType": "struct MetaverseMarketplace.Comment[]",
                  "name": "comments",
                  "type": "tuple[]"
                },
                {
                  "components": [
                    {
                      "internalType": "address",
                      "name": "buyer",
                      "type": "address"
                    },
                    {
                      "internalType": "uint256",
                      "name": "quantity",
                      "type": "uint256"
                    },
                    {
                      "internalType": "uint256",
                      "name": "totalPrice",
                      "type": "uint256"
                    }
                  ],
                  "internalType": "struct MetaverseMarketplace.Buyer[]",
                  "name": "buyers",
                  "type": "tuple[]"
                }
              ],
              "internalType": "struct MetaverseMarketplace.Listing[]",
              "name": "",
              "type": "tuple[]"
            }
          ],
          "stateMutability": "view",
          "type": "function"
        },
        {
          "inputs": [
            {
              "internalType": "string",
              "name": "productCode",
              "type": "string"
            }
          ],
          "name": "getListingByProductCode",
          "outputs": [
            {
              "components": [
                {
                  "internalType": "uint256",
                  "name": "price",
                  "type": "uint256"
                },
                {
                  "internalType": "address",
                  "name": "seller",
                  "type": "address"
                },
                {
                  "internalType": "bool",
                  "name": "published",
                  "type": "bool"
                },
                {
                  "internalType": "string",
                  "name": "productType",
                  "type": "string"
                },
                {
                  "internalType": "string",
                  "name": "title",
                  "type": "string"
                },
                {
                  "internalType": "string",
                  "name": "description",
                  "type": "string"
                },
                {
                  "internalType": "string",
                  "name": "imageUrl",
                  "type": "string"
                },
                {
                  "internalType": "string",
                  "name": "currency",
                  "type": "string"
                },
                {
                  "internalType": "string",
                  "name": "productUrl",
                  "type": "string"
                },
                {
                  "internalType": "string",
                  "name": "productInfo",
                  "type": "string"
                },
                {
                  "internalType": "string",
                  "name": "productCode",
                  "type": "string"
                },
                {
                  "internalType": "uint256",
                  "name": "nftTokenId",
                  "type": "uint256"
                },
                {
                  "components": [
                    {
                      "internalType": "address",
                      "name": "commenter",
                      "type": "address"
                    },
                    {
                      "internalType": "uint256",
                      "name": "rating",
                      "type": "uint256"
                    },
                    {
                      "internalType": "string",
                      "name": "comment",
                      "type": "string"
                    },
                    {
                      "internalType": "uint256",
                      "name": "time",
                      "type": "uint256"
                    },
                    {
                      "internalType": "string",
                      "name": "dateString",
                      "type": "string"
                    }
                  ],
                  "internalType": "struct MetaverseMarketplace.Comment[]",
                  "name": "comments",
                  "type": "tuple[]"
                },
                {
                  "components": [
                    {
                      "internalType": "address",
                      "name": "buyer",
                      "type": "address"
                    },
                    {
                      "internalType": "uint256",
                      "name": "quantity",
                      "type": "uint256"
                    },
                    {
                      "internalType": "uint256",
                      "name": "totalPrice",
                      "type": "uint256"
                    }
                  ],
                  "internalType": "struct MetaverseMarketplace.Buyer[]",
                  "name": "buyers",
                  "type": "tuple[]"
                }
              ],
              "internalType": "struct MetaverseMarketplace.Listing",
              "name": "",
              "type": "tuple"
            }
          ],
          "stateMutability": "view",
          "type": "function"
        },
        {
          "inputs": [
            {
              "internalType": "string",
              "name": "productType",
              "type": "string"
            }
          ],
          "name": "getListingByProductType",
          "outputs": [
            {
              "components": [
                {
                  "internalType": "uint256",
                  "name": "price",
                  "type": "uint256"
                },
                {
                  "internalType": "address",
                  "name": "seller",
                  "type": "address"
                },
                {
                  "internalType": "bool",
                  "name": "published",
                  "type": "bool"
                },
                {
                  "internalType": "string",
                  "name": "productType",
                  "type": "string"
                },
                {
                  "internalType": "string",
                  "name": "title",
                  "type": "string"
                },
                {
                  "internalType": "string",
                  "name": "description",
                  "type": "string"
                },
                {
                  "internalType": "string",
                  "name": "imageUrl",
                  "type": "string"
                },
                {
                  "internalType": "string",
                  "name": "currency",
                  "type": "string"
                },
                {
                  "internalType": "string",
                  "name": "productUrl",
                  "type": "string"
                },
                {
                  "internalType": "string",
                  "name": "productInfo",
                  "type": "string"
                },
                {
                  "internalType": "string",
                  "name": "productCode",
                  "type": "string"
                },
                {
                  "internalType": "uint256",
                  "name": "nftTokenId",
                  "type": "uint256"
                },
                {
                  "components": [
                    {
                      "internalType": "address",
                      "name": "commenter",
                      "type": "address"
                    },
                    {
                      "internalType": "uint256",
                      "name": "rating",
                      "type": "uint256"
                    },
                    {
                      "internalType": "string",
                      "name": "comment",
                      "type": "string"
                    },
                    {
                      "internalType": "uint256",
                      "name": "time",
                      "type": "uint256"
                    },
                    {
                      "internalType": "string",
                      "name": "dateString",
                      "type": "string"
                    }
                  ],
                  "internalType": "struct MetaverseMarketplace.Comment[]",
                  "name": "comments",
                  "type": "tuple[]"
                },
                {
                  "components": [
                    {
                      "internalType": "address",
                      "name": "buyer",
                      "type": "address"
                    },
                    {
                      "internalType": "uint256",
                      "name": "quantity",
                      "type": "uint256"
                    },
                    {
                      "internalType": "uint256",
                      "name": "totalPrice",
                      "type": "uint256"
                    }
                  ],
                  "internalType": "struct MetaverseMarketplace.Buyer[]",
                  "name": "buyers",
                  "type": "tuple[]"
                }
              ],
              "internalType": "struct MetaverseMarketplace.Listing[]",
              "name": "",
              "type": "tuple[]"
            }
          ],
          "stateMutability": "view",
          "type": "function"
        },
        {
          "inputs": [
            {
              "internalType": "address",
              "name": "seller",
              "type": "address"
            },
            {
              "internalType": "string",
              "name": "currency",
              "type": "string"
            }
          ],
          "name": "getProceeds",
          "outputs": [
            {
              "internalType": "uint256",
              "name": "",
              "type": "uint256"
            }
          ],
          "stateMutability": "view",
          "type": "function"
        },
        {
          "inputs": [],
          "name": "getUserListing",
          "outputs": [
            {
              "components": [
                {
                  "internalType": "uint256",
                  "name": "price",
                  "type": "uint256"
                },
                {
                  "internalType": "address",
                  "name": "seller",
                  "type": "address"
                },
                {
                  "internalType": "bool",
                  "name": "published",
                  "type": "bool"
                },
                {
                  "internalType": "string",
                  "name": "productType",
                  "type": "string"
                },
                {
                  "internalType": "string",
                  "name": "title",
                  "type": "string"
                },
                {
                  "internalType": "string",
                  "name": "description",
                  "type": "string"
                },
                {
                  "internalType": "string",
                  "name": "imageUrl",
                  "type": "string"
                },
                {
                  "internalType": "string",
                  "name": "currency",
                  "type": "string"
                },
                {
                  "internalType": "string",
                  "name": "productUrl",
                  "type": "string"
                },
                {
                  "internalType": "string",
                  "name": "productInfo",
                  "type": "string"
                },
                {
                  "internalType": "string",
                  "name": "productCode",
                  "type": "string"
                },
                {
                  "internalType": "uint256",
                  "name": "nftTokenId",
                  "type": "uint256"
                },
                {
                  "components": [
                    {
                      "internalType": "address",
                      "name": "commenter",
                      "type": "address"
                    },
                    {
                      "internalType": "uint256",
                      "name": "rating",
                      "type": "uint256"
                    },
                    {
                      "internalType": "string",
                      "name": "comment",
                      "type": "string"
                    },
                    {
                      "internalType": "uint256",
                      "name": "time",
                      "type": "uint256"
                    },
                    {
                      "internalType": "string",
                      "name": "dateString",
                      "type": "string"
                    }
                  ],
                  "internalType": "struct MetaverseMarketplace.Comment[]",
                  "name": "comments",
                  "type": "tuple[]"
                },
                {
                  "components": [
                    {
                      "internalType": "address",
                      "name": "buyer",
                      "type": "address"
                    },
                    {
                      "internalType": "uint256",
                      "name": "quantity",
                      "type": "uint256"
                    },
                    {
                      "internalType": "uint256",
                      "name": "totalPrice",
                      "type": "uint256"
                    }
                  ],
                  "internalType": "struct MetaverseMarketplace.Buyer[]",
                  "name": "buyers",
                  "type": "tuple[]"
                }
              ],
              "internalType": "struct MetaverseMarketplace.Listing[]",
              "name": "",
              "type": "tuple[]"
            }
          ],
          "stateMutability": "view",
          "type": "function"
        },
        {
          "inputs": [
            {
              "internalType": "address",
              "name": "profileOwner",
              "type": "address"
            }
          ],
          "name": "getUserProfile",
          "outputs": [
            {
              "components": [
                {
                  "internalType": "string",
                  "name": "username",
                  "type": "string"
                },
                {
                  "internalType": "string",
                  "name": "profileImageUrl",
                  "type": "string"
                }
              ],
              "internalType": "struct MetaverseMarketplace.UserProfile",
              "name": "",
              "type": "tuple"
            }
          ],
          "stateMutability": "view",
          "type": "function"
        },
        {
          "inputs": [
            {
              "internalType": "uint256",
              "name": "price",
              "type": "uint256"
            },
            {
              "internalType": "string",
              "name": "productType",
              "type": "string"
            },
            {
              "internalType": "string",
              "name": "title",
              "type": "string"
            },
            {
              "internalType": "string",
              "name": "description",
              "type": "string"
            },
            {
              "internalType": "string",
              "name": "imageUrl",
              "type": "string"
            },
            {
              "internalType": "string",
              "name": "currency",
              "type": "string"
            },
            {
              "internalType": "string",
              "name": "productUrl",
              "type": "string"
            },
            {
              "internalType": "string",
              "name": "productInfo",
              "type": "string"
            },
            {
              "internalType": "string",
              "name": "productCode",
              "type": "string"
            },
            {
              "internalType": "uint256",
              "name": "nftTokenId",
              "type": "uint256"
            }
          ],
          "name": "listItem",
          "outputs": [],
          "stateMutability": "nonpayable",
          "type": "function"
        },
        {
          "inputs": [],
          "name": "metaverseToken",
          "outputs": [
            {
              "internalType": "contract IERC20",
              "name": "",
              "type": "address"
            }
          ],
          "stateMutability": "view",
          "type": "function"
        },
        {
          "inputs": [
            {
              "internalType": "string",
              "name": "productCode",
              "type": "string"
            }
          ],
          "name": "productCodeExists",
          "outputs": [
            {
              "internalType": "bool",
              "name": "",
              "type": "bool"
            }
          ],
          "stateMutability": "view",
          "type": "function"
        },
        {
          "inputs": [
            {
              "internalType": "string",
              "name": "newUsername",
              "type": "string"
            },
            {
              "internalType": "string",
              "name": "profileImageUrl",
              "type": "string"
            }
          ],
          "name": "setUserProfile",
          "outputs": [],
          "stateMutability": "nonpayable",
          "type": "function"
        },
        {
          "inputs": [
            {
              "internalType": "string",
              "name": "productCode",
              "type": "string"
            },
            {
              "internalType": "uint256",
              "name": "price",
              "type": "uint256"
            },
            {
              "internalType": "string",
              "name": "title",
              "type": "string"
            },
            {
              "internalType": "string",
              "name": "description",
              "type": "string"
            },
            {
              "internalType": "string",
              "name": "productInfo",
              "type": "string"
            },
            {
              "internalType": "string",
              "name": "productUrl",
              "type": "string"
            },
            {
              "internalType": "string",
              "name": "imageUrl",
              "type": "string"
            }
          ],
          "name": "updateListing",
          "outputs": [],
          "stateMutability": "nonpayable",
          "type": "function"
        },
        {
          "inputs": [
            {
              "internalType": "string",
              "name": "currency",
              "type": "string"
            }
          ],
          "name": "withdrawProceeds",
          "outputs": [],
          "stateMutability": "nonpayable",
          "type": "function"
        }
      ],
      "evm": {
        "bytecode": {
          "linkReferences": {},
          "object": "60803461007b57601f62002b7538819003918201601f19168301916001600160401b038311848410176100805780849260209460405283398101031261007b57516001600160a01b0381169081900361007b576001600055600480546001600160a01b031916919091179055604051612ade9081620000978239f35b600080fd5b634e487b7160e01b600052604160045260246000fdfe608060405260048036101561001357600080fd5b600090813560e01c8063016363fa146111085780631a13cc5914610f1a5780631cad3ac514610ed6578063318bb5c714610c855780633829f31314610c5e5780637791b33014610bde57806393ec02f114610a51578063987ee156146109b2578063990d6459146108de5780639992b606146108525780639dee74d5146107b4578063a39249b814610739578063a97ce3c2146104f0578063bd6236421461049d578063bddff4d814610461578063d41aab23146101eb5763e607a8ba146100da57600080fd5b346101e757816003193601126101e7573382526003602052604082205442034281116101d45762015180116101bc576020829133835260038252426040842055604460018060a01b0382541691604051948593849263a9059cbb60e01b84523390840152683635c9adc5dea0000060248401525af180156101b157610183575b50337f561f98adfb5df58a7c3c03f4ada643cc46c1a5291389819dbd6d01fe490481498280a280f35b6101a39060203d81116101aa575b61019b818361145e565b810190612853565b503861015a565b503d610191565b6040513d84823e3d90fd5b6024906040519063fca47e3160e01b82523390820152fd5b634e487b7160e01b835260118252602483fd5b5080fd5b506060908160031936011261045d5780356001600160401b03811161045957610217903690830161149a565b6001600160a01b0360248035828116959394919391908690036104555760449384359260028954146104445760028955885b600554811015610436576102718861026c600961026585611798565b5001612539565b6125dd565b6102835761027e9061252a565b610249565b9495969761029961029387611798565b50612765565b9788519182341061040757505050508551948584029584870414841517156103f557604051956102c887611428565b338752602094858801526040870152838701511688526001938484526103058460408b2060e08a01519082604051948386809551938492016114e6565b8201908152030190208054903482018092116103e35755600c9061032890611798565b500191825494600160401b8610156103d15785018084558510156103c057505086528520825160039092020180546001600160a01b0319166001600160a01b03929092169190911781556020820151600182015560409091015160029091015561039390519161250a565b337f253fcd678c758e0e03dbf3a0243701c7439c306a61158b3c522a8119772990108480a45b6001815580f35b634e487b7160e01b89526032905287fd5b50634e487b7160e01b89526041905287fd5b634e487b7160e01b8b5260118552838bfd5b50634e487b7160e01b88526011825287fd5b604051630e90db8560e31b81529586019390935284939261042b606486018c611509565b938501528301520390fd5b5050505050505050506103b9565b604051633ee5aeb560e01b81528390fd5b8680fd5b8380fd5b8280fd5b823461049a57602036600319011261049a576020906040906001600160a01b03610489611782565b168152600383522054604051908152f35b80fd5b50903461049a57602036600319011261049a578135906001600160401b03821161049a576104ec6104d86104d33685870161149a565b61293a565b60405191829160208352602083019061152e565b0390f35b50346101e75760208060031936011261045d5781356001600160401b03811161045957610520903690840161149a565b33845260018252604084206040518381845193828601946105428184886114e6565b820190815203019020549081156107285761057584879233845260018252604084206040518094819389519283916114e6565b820190815203019020556105a360405161058e816113c0565b600381526208aa8960eb1b85820152836125dd565b1561065a578480808084335af191823d15610655573d6105c28161147f565b906105d0604051928361145e565b815287863d92013e5b610620575b5050156105ea57505080f35b60405162461bcd60e51b815291820152601060248201526f5472616e73666572206661696c65642160801b604482015260649150fd5b6106299061250a565b337ff2ca3efe12f71d386ef0fd2b75ebbef402882711943ccb42d5bdb696fa7a13418780a438806105de565b6105d9565b90610683906040949394519061066f826113c0565b848252631351551560e21b868301526125dd565b61068e575b50505080f35b81546001600160a01b031691678ac7230489e800008202918204678ac7230489e7ffff190161071557906044849286604051958694859363a9059cbb60e01b8552339085015260248401525af1801561070a576106ec575b80610688565b8161070292903d106101aa5761019b818361145e565b5038806106e6565b6040513d85823e3d90fd5b634e487b7160e01b855260119052602484fd5b60405163125d726b60e21b81528590fd5b50346101e75760403660031901126101e757610753611782565b906024356001600160401b0381116104595791604060209461077c86946107a29636910161149a565b6001600160a01b03909316815260018452206040518251909485938290859087016114e6565b82019081520301902054604051908152f35b50346101e75760203660031901126101e7578035906001600160401b03821161045d576107e39136910161149a565b600554906107f0826128d6565b925b82811061080757604051806104ec8682611720565b8061081d8361026c600261026561082696611798565b61082b5761252a565b6107f2565b61083761029382611798565b6108418287612926565b5261084c8186612926565b5061252a565b823461049a578060031936011261049a5760055461086f81612632565b9061087d604051928361145e565b808252600583527f036b6384b5eca791c62761152d0c79bb0604c104a5fb6f4eb0703f3154bb3db09260208084015b8383106108c157604051806104ec8782611720565b600d826001926108d089612765565b8152019601920191946108ac565b50346101e75760403660031901126101e7578035906001600160401b03821161045d5761090d9136910161149a565b602435908115159081830361045957835b6005548110156109ab5761093a8261026c600961026585611798565b61094c576109479061252a565b61091e565b6109839293600161095f61097e93611798565b5001805460ff60a01b191691151560a01b60ff60a01b16919091179055565b61250a565b337f51dabe03dbc9869cdc42f327348910c055732b793c7aaade368a32d8f3658e1e8480a480f35b5050505080f35b823461049a576020806003193601126101e7576104ec604080936109d4611782565b60608584516109e2816113c0565b82815201526001600160a01b03168152600284522083519290610a3e90610a2090600190610a0f876113c0565b610a1881612539565b875201612539565b91808501928352855195869582875251918601526060850190611509565b9051838203601f19016040850152611509565b50346101e75760a03660031901126101e7576001600160401b03813581811161045957610a81903690840161149a565b9060249283359260443583811161045557610a9f903690840161149a565b9260643590811161045557610ab7903690840161149a565b926084356001600160a01b0381169390849003610bda57875b60058054821015610bce57610aed8761026c600961026586611798565b610b005750610afb9061252a565b610ad0565b9192939495969790610b13600b91611798565b50019060405194610b238661140d565b3386526020998a8701528660408701524260608701526080860152815493600160401b851015610bbd5760018501808455851015610bac575050610b9f93610b99937f8bb52eee1b68032569fa2c483528d7d2b7db7824b9704ee675f7202956220865969361097e938c528a8c20910201611884565b9361250a565b936040519283523392a480f35b634e487b7160e01b8b526032905289fd5b634e487b7160e01b8b526041905289fd5b50505050505050505080f35b8780fd5b823461049a578060031936011261049a57600554610bfb816128d6565b915b818110610c1257604051806104ec8582611720565b80610c1f610c3892611798565b50600101546001600160a01b03163314610c3d5761252a565b610bfd565b610c4961029382611798565b610c538286612926565b5261084c8185612926565b50346101e757816003193601126101e757546040516001600160a01b039091168152602090f35b50346101e75760e03660031901126101e7576001600160401b03813581811161045957610cb5903690840161149a565b604435828111610ed257610ccc903690850161149a565b91606435818111610ece57610ce4903690860161149a565b9360843582811161045557610cfc903690830161149a565b9160a435818111610bda57610d14903690840161149a565b9160c435918211610bda57610d2b9136910161149a565b91865b600554811015610ec457610d4a8561026c600961026585611798565b610d5c57610d579061252a565b610d2e565b92939495610d6984611798565b506001908101546001600160a01b03169590610d8486611798565b50015492610d9186611798565b5094610d9c87611798565b50610da688611798565b5093610db189611798565b50600a015495610dc08a611798565b5097610dcb8b611798565b50996040519c610dda8e6113f1565b6024358e5260208e015260ff60a092831c16151560408e0152610dff90600201612539565b60608d01528d60808d01528b015260c08a0152600601610e1e90612539565b60e0890152610100880152610120870152600901610e3b90612539565b610140860152610160850152600b01610e5390612649565b610180840152600c01610e65906126e8565b6101a0830152610e7490611798565b610e7e9291611ab4565b610e879061250a565b90610e919061250a565b906040516024358152339060207f384c5f98880fad6ed933597fe4becd24246db16d5a262945362c7ace0a0e47b591a480f35b5050505050505080f35b8580fd5b8480fd5b50903461049a57602036600319011261049a578135906001600160401b03821161049a576020610f10610f0b3685870161149a565b612a66565b6040519015158152f35b50346101e757610140908160031936011261045d578035906001600160401b0390602435828111610ece57610f52903690830161149a565b9060443583811161045557610f6a903690830161149a565b94606435848111610bda57610f82903690840161149a565b9360843581811161110457610f9a903690850161149a565b60a43582811161110057610fb1903690860161149a565b60c4358381116110fc57610fc8903690870161149a565b9160e4358481116110f857610fe0903690880161149a565b93610104359081116110f857610ff9903690880161149a565b9789156110e75790889594939291604051986110148a6113f1565b8b8a523360208b01528d60408b015260608a01528b60808a015260a089015260c088015260e087015261010086015261012085015283015261012435610160830152606061018083015260606101a083015260055490600160401b8210156110d45750611095929161108f82600161097e9401600555611798565b90611ab4565b917f9ec512f6157daf19471fdb4abc754cd622ce54571fda42c4c416ff378b04158360405160208152806110ce33946020830190611509565b0390a480f35b634e487b7160e01b875260419052602486fd5b604051635ebde5f560e11b81528790fd5b8b80fd5b8a80fd5b8980fd5b8880fd5b50346101e75760403660031901126101e7576001600160401b0390803582811161045957611139903690830161149a565b602435838111610ed257611150903690840161149a565b926040519061115e826113c0565b82825260209182810192868452338852600281526040882091519081518481116113ad578061118d85546117e9565b938b601f9585878211611381575b505050839085831160011461131e578c92611313575b50508160011b916000199060031b1c19161783555b6001809301945196875194851161130057506111e285546117e9565b8281116112ca575b508091841160011461125c575091808092611222969594611228988b94611251575b50501b916000199060031b1c191617905561250a565b9161250a565b90337f8fb63d21cd1646c22e90408d0771d27886ed526a60064418e44b4e4a35bf6a078480a480f35b01519250388061120c565b91939495601f198416868a52838a20938a905b8282106112b35750509161122897959391856112229896941061129a575b505050811b01905561250a565b015160001960f88460031b161c1916905538808061128d565b80888697829497870151815501960194019061126f565b6112f190868b52828b208480880160051c8201928589106112f7575b0160051c0190611823565b386111ea565b925081926112e6565b634e487b7160e01b8a5260419052602489fd5b0151905038806111b1565b868d52848d209250601f1984168d5b8682821061136b575050908460019594939210611352575b505050811b0183556111c6565b015160001960f88460031b161c19169055388080611345565b600185968293968601518155019501930161132d565b82896113a59452208780860160051c8201928887106112f7570160051c0190611823565b8b388561119b565b634e487b7160e01b8a526041885260248afd5b604081019081106001600160401b038211176113db57604052565b634e487b7160e01b600052604160045260246000fd5b6101c081019081106001600160401b038211176113db57604052565b60a081019081106001600160401b038211176113db57604052565b606081019081106001600160401b038211176113db57604052565b602081019081106001600160401b038211176113db57604052565b90601f801991011681019081106001600160401b038211176113db57604052565b6001600160401b0381116113db57601f01601f191660200190565b81601f820112156114e1578035906114b18261147f565b926114bf604051948561145e565b828452602083830101116114e157816000926020809301838601378301015290565b600080fd5b60005b8381106114f95750506000910152565b81810151838201526020016114e9565b90602091611522815180928185528580860191016114e6565b601f01601f1916010190565b908151815260018060a01b039060208281850151168183015260409283850151151584840152606061156d818701516101c08084880152860190611509565b936115846080958689015183820388850152611509565b61160a6115f66115e26115ce6115bc8c60c06115ac60a098898401518b82038b8d0152611509565b91015188820360c08a0152611509565b60e08d015187820360e0890152611509565b610100808d01519087830390880152611509565b610120808c01519086830390870152611509565b610140808b01519085830390860152611509565b95610160808a01519084015261018096878a015197848203908501528751918282528782019088808560051b8501019a01946000935b8585106116a757505050505050506101a080970151968186039101528280875195868152019601946000925b85841061167d575050505050505090565b8651805182168952808601518987015282015188830152968201969584019560019093019261166c565b9091929394959b9798999a8b806117098f6001948f8f92908f6116f1908c938e601f198d88030190525192835116855287830151888601528b81840151918601528b850190611509565b93808201519084015201519089818403910152611509565b9e01950195019395949291909b9a9998979b611640565b602080820190808352835180925260408301928160408460051b8301019501936000915b8483106117545750505050505090565b9091929394958480611772600193603f198682030187528a5161152e565b9801930193019194939290611744565b600435906001600160a01b03821682036114e157565b6005548110156117d357600d906005600052027f036b6384b5eca791c62761152d0c79bb0604c104a5fb6f4eb0703f3154bb3db00190600090565b634e487b7160e01b600052603260045260246000fd5b90600182811c92168015611819575b602083101461180357565b634e487b7160e01b600052602260045260246000fd5b91607f16916117f8565b81811061182e575050565b60008155600101611823565b61184481546117e9565b908161184e575050565b81601f600093116001146118615750555b565b908083918252611880601f60208420940160051c840160018501611823565b5555565b60018060a01b038251166bffffffffffffffffffffffff60a01b825416178155602080830151916001928382015560028101916040850151918251936001600160401b03948581116113db576118da82546117e9565b94601f95868111611a86575b508490868311600114611a185791806004949260809694600092611a0d575b5050600019600383901b1c191690891b1790555b60608801516003820155019501519081519384116113db5761193b86546117e9565b8381116119df575b508092841160011461197c5750928293918392600094611971575b50501b916000199060031b1c1916179055565b01519250388061195e565b919083601f1981168760005284600020946000905b888383106119c557505050106119ac575b505050811b019055565b015160001960f88460031b161c191690553880806119a2565b858701518855909601959485019487935090810190611991565b611a079087600052826000208580880160051c8201928589106112f7570160051c0190611823565b38611943565b015190503880611905565b889291601f1983169185600052876000209260005b89828210611a705750509160809795939185600498969410611a57575b505050811b019055611919565b015160001960f88460031b161c19169055388080611a4a565b8385015186558d97909501949384019301611a2d565b611aae9084600052866000208880860160051c8201928987106112f7570160051c0190611823565b386118e6565b91906124f457805182556020810151600183018054604084015160ff60a01b90151560a01b166001600160a01b039093166001600160a81b0319909116179190911790556002820160608201518051906001600160401b0382116113db578190611b1e84546117e9565b601f81116124c2575b50602090601f831160011461245c57600092612451575b50508160011b916000199060031b1c19161790555b6003820160808201518051906001600160401b0382116113db578190611b7984546117e9565b601f811161241f575b50602090601f83116001146123b9576000926123ae575b50508160011b916000199060031b1c19161790555b6004820160a08201518051906001600160401b0382116113db578190611bd484546117e9565b601f811161237c575b50602090601f83116001146123165760009261230b575b50508160011b916000199060031b1c19161790555b6005820160c08201518051906001600160401b0382116113db578190611c2f84546117e9565b601f81116122d9575b50602090601f831160011461227357600092612268575b50508160011b916000199060031b1c19161790555b60e08101519283516001600160401b0381116113db57611c8760068501546117e9565b601f8111612233575b50602094601f82116001146121c7579481929394956000926121bc575b50508160011b916000199060031b1c19161760068401555b6101008201519283516001600160401b0381116113db57611ce960078301546117e9565b601f8111612187575b506020601f821160011461211857819293949560009261210d575b50508160011b916000199060031b1c19161760078201555b6101208301519283516001600160401b0381116113db57611d4960088401546117e9565b601f81116120d8575b506020601f821160011461206957819293949560009261205e575b50508160011b916000199060031b1c19161760088301555b600982016101408201518051906001600160401b0382116113db578190611dac84546117e9565b601f8111612021575b50602090601f8311600114611fbb57600092611fb0575b50508160011b916000199060031b1c19161790555b610160810151600a8301556101808101518051600160401b9391600b8301908583116113db578154838355808410611f45575b506020019060005260206000206000915b838310611f275750505050600c6101a0910191015180519283116113db578154838355808410611ebe575b506020019060005260206000206000915b838310611e6e5750505050565b6003602082611eb2600194518690604060029160018060a01b038151166bffffffffffffffffffffffff60a01b855416178455602081015160018501550151910155565b01920192019190611e61565b80600302906003820403611f115783600302600381048503611f115783600052602060002091820191015b818110611ef65750611e50565b80600060039255600060018201556000600282015501611ee9565b634e487b7160e01b600052601160045260246000fd5b6005602082611f396001945186611884565b01920192019190611e25565b80600502906005820403611f115783600502600581048503611f115783600052602060002091820191015b818110611f7d5750611e14565b8060006005925560006001820155611f976002820161183a565b60006003820155611faa6004820161183a565b01611f70565b015190503880611dcc565b6000858152602081209350601f198516905b8181106120095750908460019594939210611ff0575b505050811b019055611de1565b015160001960f88460031b161c19169055388080611fe3565b92936020600181928786015181550195019301611fcd565b61204e90856000526020600020601f850160051c81019160208610612054575b601f0160051c0190611823565b38611db5565b9091508190612041565b015190503880611d6d565b6008840160005260206000209060005b601f19841681106120c0575060019394959683601f198116106120a7575b505050811b016008830155611d85565b015160001960f88460031b161c19169055388080612097565b9091602060018192858b015181550193019101612079565b61210790600885016000526020600020601f840160051c8101916020851061205457601f0160051c0190611823565b38611d52565b015190503880611d0d565b6007830160005260206000209060005b601f198416811061216f575060019394959683601f19811610612156575b505050811b016007820155611d25565b015160001960f88460031b161c19169055388080612146565b9091602060018192858b015181550193019101612128565b6121b690600784016000526020600020601f840160051c8101916020851061205457601f0160051c0190611823565b38611cf2565b015190503880611cad565b601f198216956006860160005260206000209160005b88811061221b57508360019596979810612202575b505050811b016006840155611cc5565b015160001960f88460031b161c191690553880806121f2565b919260206001819286850151815501940192016121dd565b61226290600686016000526020600020601f840160051c8101916020851061205457601f0160051c0190611823565b38611c90565b015190503880611c4f565b6000858152602081209350601f198516905b8181106122c157509084600195949392106122a8575b505050811b019055611c64565b015160001960f88460031b161c1916905538808061229b565b92936020600181928786015181550195019301612285565b61230590856000526020600020601f850160051c8101916020861061205457601f0160051c0190611823565b38611c38565b015190503880611bf4565b6000858152602081209350601f198516905b818110612364575090846001959493921061234b575b505050811b019055611c09565b015160001960f88460031b161c1916905538808061233e565b92936020600181928786015181550195019301612328565b6123a890856000526020600020601f850160051c8101916020861061205457601f0160051c0190611823565b38611bdd565b015190503880611b99565b6000858152602081209350601f198516905b81811061240757509084600195949392106123ee575b505050811b019055611bae565b015160001960f88460031b161c191690553880806123e1565b929360206001819287860151815501950193016123cb565b61244b90856000526020600020601f850160051c8101916020861061205457601f0160051c0190611823565b38611b82565b015190503880611b3e565b6000858152602081209350601f198516905b8181106124aa5750908460019594939210612491575b505050811b019055611b53565b015160001960f88460031b161c19169055388080612484565b9293602060018192878601518155019501930161246e565b6124ee90856000526020600020601f850160051c8101916020861061205457601f0160051c0190611823565b38611b27565b634e487b7160e01b600052600060045260246000fd5b612522906020604051928284809451938492016114e6565b810103902090565b6000198114611f115760010190565b906040519182600082549261254d846117e9565b9081845260019485811690816000146125ba5750600114612577575b505061185f9250038361145e565b9093915060005260209081600020936000915b8183106125a257505061185f93508201013880612569565b8554888401850152948501948794509183019161258a565b91505061185f94506020925060ff191682840152151560051b8201013880612569565b906040519160209261260b8482816125fe81830196878151938492016114e6565b810103808452018261145e565b5190209161262b6040519182816125fe81830196878151938492016114e6565b5190201490565b6001600160401b0381116113db5760051b60200190565b90815461265581612632565b926040936126658551918261145e565b828152809460208092019260005281600020906000935b85851061268b57505050505050565b600584600192845161269c8161140d565b848060a01b03875416815284870154838201526126bb60028801612539565b86820152600387015460608201526126d560048801612539565b608082015281520193019401939161267c565b9081546126f481612632565b926040936127048551918261145e565b828152809460208092019260005281600020906000935b85851061272a57505050505050565b600384600192845161273b81611428565b848060a01b038754168152848701548382015260028701548682015281520193019401939161271b565b90604051612772816113f1565b6101a061284e600c83958054855260ff600182015460018060a01b038116602088015260a01c16151560408601526127ac60028201612539565b60608601526127bd60038201612539565b60808601526127ce60048201612539565b60a08601526127df60058201612539565b60c08601526127f060068201612539565b60e086015261280160078201612539565b61010086015261281360088201612539565b61012086015261282560098201612539565b610140860152600a810154610160860152612842600b8201612649565b610180860152016126e8565b910152565b908160209103126114e1575180151581036114e15790565b60405190612878826113f1565b816000815260006020820152600060408201526101a060609182808201528260808201528260a08201528260c08201528260e08201528261010082015282610120820152826101408201526000610160820152826101808201520152565b906128e082612632565b6128ed604051918261145e565b82815280926128fe601f1991612632565b019060005b82811061290f57505050565b60209061291a61286b565b82828501015201612903565b80518210156117d35760209160051b010190565b61294261286b565b506005549060005b828110612a30575050506040805190612962826113f1565b6000825260006020830152600081830152805161297e81611443565b600081526060830152805161299281611443565b60008152608083015280516129a681611443565b6000815260a083015280516129ba81611443565b6000815260c083015280516129ce81611443565b6000815260e083015280516129e281611443565b6000815261010083015280516129f781611443565b6000815261012083015251612a0b81611443565b600081526101408201526000610160820152606061018082015260606101a082015290565b612a428261026c600961026585611798565b612a5457612a4f9061252a565b61294a565b612a6392506102939150611798565b90565b6005549060005b828110612a7c57505050600090565b612a8e8261026c600961026585611798565b612aa057612a9b9061252a565b612a6d565b50505060019056fea26469706673582212208852f2c02f66a362df35139f7dc705efb95c7c1816ba82d19f25a9a7b09f884f64736f6c63430008140033",
          "opcodes": "PUSH1 0x80 CALLVALUE PUSH2 0x7B JUMPI PUSH1 0x1F PUSH3 0x2B75 CODESIZE DUP2 SWAP1 SUB SWAP2 DUP3 ADD PUSH1 0x1F NOT AND DUP4 ADD SWAP2 PUSH1 0x1 PUSH1 0x1 PUSH1 0x40 SHL SUB DUP4 GT DUP5 DUP5 LT OR PUSH2 0x80 JUMPI DUP1 DUP5 SWAP3 PUSH1 0x20 SWAP5 PUSH1 0x40 MSTORE DUP4 CODECOPY DUP2 ADD SUB SLT PUSH2 0x7B JUMPI MLOAD PUSH1 0x1 PUSH1 0x1 PUSH1 0xA0 SHL SUB DUP2 AND SWAP1 DUP2 SWAP1 SUB PUSH2 0x7B JUMPI PUSH1 0x1 PUSH1 0x0 SSTORE PUSH1 0x4 DUP1 SLOAD PUSH1 0x1 PUSH1 0x1 PUSH1 0xA0 SHL SUB NOT AND SWAP2 SWAP1 SWAP2 OR SWAP1 SSTORE PUSH1 0x40 MLOAD PUSH2 0x2ADE SWAP1 DUP2 PUSH3 0x97 DUP3 CODECOPY RETURN JUMPDEST PUSH1 0x0 DUP1 REVERT JUMPDEST PUSH4 0x4E487B71 PUSH1 0xE0 SHL PUSH1 0x0 MSTORE PUSH1 0x41 PUSH1 0x4 MSTORE PUSH1 0x24 PUSH1 0x0 REVERT INVALID PUSH1 0x80 PUSH1 0x40 MSTORE PUSH1 0x4 DUP1 CALLDATASIZE LT ISZERO PUSH2 0x13 JUMPI PUSH1 0x0 DUP1 REVERT JUMPDEST PUSH1 0x0 SWAP1 DUP2 CALLDATALOAD PUSH1 0xE0 SHR DUP1 PUSH4 0x16363FA EQ PUSH2 0x1108 JUMPI DUP1 PUSH4 0x1A13CC59 EQ PUSH2 0xF1A JUMPI DUP1 PUSH4 0x1CAD3AC5 EQ PUSH2 0xED6 JUMPI DUP1 PUSH4 0x318BB5C7 EQ PUSH2 0xC85 JUMPI DUP1 PUSH4 0x3829F313 EQ PUSH2 0xC5E JUMPI DUP1 PUSH4 0x7791B330 EQ PUSH2 0xBDE JUMPI DUP1 PUSH4 0x93EC02F1 EQ PUSH2 0xA51 JUMPI DUP1 PUSH4 0x987EE156 EQ PUSH2 0x9B2 JUMPI DUP1 PUSH4 0x990D6459 EQ PUSH2 0x8DE JUMPI DUP1 PUSH4 0x9992B606 EQ PUSH2 0x852 JUMPI DUP1 PUSH4 0x9DEE74D5 EQ PUSH2 0x7B4 JUMPI DUP1 PUSH4 0xA39249B8 EQ PUSH2 0x739 JUMPI DUP1 PUSH4 0xA97CE3C2 EQ PUSH2 0x4F0 JUMPI DUP1 PUSH4 0xBD623642 EQ PUSH2 0x49D JUMPI DUP1 PUSH4 0xBDDFF4D8 EQ PUSH2 0x461 JUMPI DUP1 PUSH4 0xD41AAB23 EQ PUSH2 0x1EB JUMPI PUSH4 0xE607A8BA EQ PUSH2 0xDA JUMPI PUSH1 0x0 DUP1 REVERT JUMPDEST CALLVALUE PUSH2 0x1E7 JUMPI DUP2 PUSH1 0x3 NOT CALLDATASIZE ADD SLT PUSH2 0x1E7 JUMPI CALLER DUP3 MSTORE PUSH1 0x3 PUSH1 0x20 MSTORE PUSH1 0x40 DUP3 KECCAK256 SLOAD TIMESTAMP SUB TIMESTAMP DUP2 GT PUSH2 0x1D4 JUMPI PUSH3 0x15180 GT PUSH2 0x1BC JUMPI PUSH1 0x20 DUP3 SWAP2 CALLER DUP4 MSTORE PUSH1 0x3 DUP3 MSTORE TIMESTAMP PUSH1 0x40 DUP5 KECCAK256 SSTORE PUSH1 0x44 PUSH1 0x1 DUP1 PUSH1 0xA0 SHL SUB DUP3 SLOAD AND SWAP2 PUSH1 0x40 MLOAD SWAP5 DUP6 SWAP4 DUP5 SWAP3 PUSH4 0xA9059CBB PUSH1 0xE0 SHL DUP5 MSTORE CALLER SWAP1 DUP5 ADD MSTORE PUSH9 0x3635C9ADC5DEA00000 PUSH1 0x24 DUP5 ADD MSTORE GAS CALL DUP1 ISZERO PUSH2 0x1B1 JUMPI PUSH2 0x183 JUMPI JUMPDEST POP CALLER PUSH32 0x561F98ADFB5DF58A7C3C03F4ADA643CC46C1A5291389819DBD6D01FE49048149 DUP3 DUP1 LOG2 DUP1 RETURN JUMPDEST PUSH2 0x1A3 SWAP1 PUSH1 0x20 RETURNDATASIZE DUP2 GT PUSH2 0x1AA JUMPI JUMPDEST PUSH2 0x19B DUP2 DUP4 PUSH2 0x145E JUMP JUMPDEST DUP2 ADD SWAP1 PUSH2 0x2853 JUMP JUMPDEST POP CODESIZE PUSH2 0x15A JUMP JUMPDEST POP RETURNDATASIZE PUSH2 0x191 JUMP JUMPDEST PUSH1 0x40 MLOAD RETURNDATASIZE DUP5 DUP3 RETURNDATACOPY RETURNDATASIZE SWAP1 REVERT JUMPDEST PUSH1 0x24 SWAP1 PUSH1 0x40 MLOAD SWAP1 PUSH4 0xFCA47E31 PUSH1 0xE0 SHL DUP3 MSTORE CALLER SWAP1 DUP3 ADD MSTORE REVERT JUMPDEST PUSH4 0x4E487B71 PUSH1 0xE0 SHL DUP4 MSTORE PUSH1 0x11 DUP3 MSTORE PUSH1 0x24 DUP4 REVERT JUMPDEST POP DUP1 REVERT JUMPDEST POP PUSH1 0x60 SWAP1 DUP2 PUSH1 0x3 NOT CALLDATASIZE ADD SLT PUSH2 0x45D JUMPI DUP1 CALLDATALOAD PUSH1 0x1 PUSH1 0x1 PUSH1 0x40 SHL SUB DUP2 GT PUSH2 0x459 JUMPI PUSH2 0x217 SWAP1 CALLDATASIZE SWAP1 DUP4 ADD PUSH2 0x149A JUMP JUMPDEST PUSH1 0x1 PUSH1 0x1 PUSH1 0xA0 SHL SUB PUSH1 0x24 DUP1 CALLDATALOAD DUP3 DUP2 AND SWAP6 SWAP4 SWAP5 SWAP2 SWAP4 SWAP2 SWAP1 DUP7 SWAP1 SUB PUSH2 0x455 JUMPI PUSH1 0x44 SWAP4 DUP5 CALLDATALOAD SWAP3 PUSH1 0x2 DUP10 SLOAD EQ PUSH2 0x444 JUMPI PUSH1 0x2 DUP10 SSTORE DUP9 JUMPDEST PUSH1 0x5 SLOAD DUP2 LT ISZERO PUSH2 0x436 JUMPI PUSH2 0x271 DUP9 PUSH2 0x26C PUSH1 0x9 PUSH2 0x265 DUP6 PUSH2 0x1798 JUMP JUMPDEST POP ADD PUSH2 0x2539 JUMP JUMPDEST PUSH2 0x25DD JUMP JUMPDEST PUSH2 0x283 JUMPI PUSH2 0x27E SWAP1 PUSH2 0x252A JUMP JUMPDEST PUSH2 0x249 JUMP JUMPDEST SWAP5 SWAP6 SWAP7 SWAP8 PUSH2 0x299 PUSH2 0x293 DUP8 PUSH2 0x1798 JUMP JUMPDEST POP PUSH2 0x2765 JUMP JUMPDEST SWAP8 DUP9 MLOAD SWAP2 DUP3 CALLVALUE LT PUSH2 0x407 JUMPI POP POP POP POP DUP6 MLOAD SWAP5 DUP6 DUP5 MUL SWAP6 DUP5 DUP8 DIV EQ DUP5 ISZERO OR ISZERO PUSH2 0x3F5 JUMPI PUSH1 0x40 MLOAD SWAP6 PUSH2 0x2C8 DUP8 PUSH2 0x1428 JUMP JUMPDEST CALLER DUP8 MSTORE PUSH1 0x20 SWAP5 DUP6 DUP9 ADD MSTORE PUSH1 0x40 DUP8 ADD MSTORE DUP4 DUP8 ADD MLOAD AND DUP9 MSTORE PUSH1 0x1 SWAP4 DUP5 DUP5 MSTORE PUSH2 0x305 DUP5 PUSH1 0x40 DUP12 KECCAK256 PUSH1 0xE0 DUP11 ADD MLOAD SWAP1 DUP3 PUSH1 0x40 MLOAD SWAP5 DUP4 DUP7 DUP1 SWAP6 MLOAD SWAP4 DUP5 SWAP3 ADD PUSH2 0x14E6 JUMP JUMPDEST DUP3 ADD SWAP1 DUP2 MSTORE SUB ADD SWAP1 KECCAK256 DUP1 SLOAD SWAP1 CALLVALUE DUP3 ADD DUP1 SWAP3 GT PUSH2 0x3E3 JUMPI SSTORE PUSH1 0xC SWAP1 PUSH2 0x328 SWAP1 PUSH2 0x1798 JUMP JUMPDEST POP ADD SWAP2 DUP3 SLOAD SWAP5 PUSH1 0x1 PUSH1 0x40 SHL DUP7 LT ISZERO PUSH2 0x3D1 JUMPI DUP6 ADD DUP1 DUP5 SSTORE DUP6 LT ISZERO PUSH2 0x3C0 JUMPI POP POP DUP7 MSTORE DUP6 KECCAK256 DUP3 MLOAD PUSH1 0x3 SWAP1 SWAP3 MUL ADD DUP1 SLOAD PUSH1 0x1 PUSH1 0x1 PUSH1 0xA0 SHL SUB NOT AND PUSH1 0x1 PUSH1 0x1 PUSH1 0xA0 SHL SUB SWAP3 SWAP1 SWAP3 AND SWAP2 SWAP1 SWAP2 OR DUP2 SSTORE PUSH1 0x20 DUP3 ADD MLOAD PUSH1 0x1 DUP3 ADD SSTORE PUSH1 0x40 SWAP1 SWAP2 ADD MLOAD PUSH1 0x2 SWAP1 SWAP2 ADD SSTORE PUSH2 0x393 SWAP1 MLOAD SWAP2 PUSH2 0x250A JUMP JUMPDEST CALLER PUSH32 0x253FCD678C758E0E03DBF3A0243701C7439C306A61158B3C522A811977299010 DUP5 DUP1 LOG4 JUMPDEST PUSH1 0x1 DUP2 SSTORE DUP1 RETURN JUMPDEST PUSH4 0x4E487B71 PUSH1 0xE0 SHL DUP10 MSTORE PUSH1 0x32 SWAP1 MSTORE DUP8 REVERT JUMPDEST POP PUSH4 0x4E487B71 PUSH1 0xE0 SHL DUP10 MSTORE PUSH1 0x41 SWAP1 MSTORE DUP8 REVERT JUMPDEST PUSH4 0x4E487B71 PUSH1 0xE0 SHL DUP12 MSTORE PUSH1 0x11 DUP6 MSTORE DUP4 DUP12 REVERT JUMPDEST POP PUSH4 0x4E487B71 PUSH1 0xE0 SHL DUP9 MSTORE PUSH1 0x11 DUP3 MSTORE DUP8 REVERT JUMPDEST PUSH1 0x40 MLOAD PUSH4 0xE90DB85 PUSH1 0xE3 SHL DUP2 MSTORE SWAP6 DUP7 ADD SWAP4 SWAP1 SWAP4 MSTORE DUP5 SWAP4 SWAP3 PUSH2 0x42B PUSH1 0x64 DUP7 ADD DUP13 PUSH2 0x1509 JUMP JUMPDEST SWAP4 DUP6 ADD MSTORE DUP4 ADD MSTORE SUB SWAP1 REVERT JUMPDEST POP POP POP POP POP POP POP POP POP PUSH2 0x3B9 JUMP JUMPDEST PUSH1 0x40 MLOAD PUSH4 0x3EE5AEB5 PUSH1 0xE0 SHL DUP2 MSTORE DUP4 SWAP1 REVERT JUMPDEST DUP7 DUP1 REVERT JUMPDEST DUP4 DUP1 REVERT JUMPDEST DUP3 DUP1 REVERT JUMPDEST DUP3 CALLVALUE PUSH2 0x49A JUMPI PUSH1 0x20 CALLDATASIZE PUSH1 0x3 NOT ADD SLT PUSH2 0x49A JUMPI PUSH1 0x20 SWAP1 PUSH1 0x40 SWAP1 PUSH1 0x1 PUSH1 0x1 PUSH1 0xA0 SHL SUB PUSH2 0x489 PUSH2 0x1782 JUMP JUMPDEST AND DUP2 MSTORE PUSH1 0x3 DUP4 MSTORE KECCAK256 SLOAD PUSH1 0x40 MLOAD SWAP1 DUP2 MSTORE RETURN JUMPDEST DUP1 REVERT JUMPDEST POP SWAP1 CALLVALUE PUSH2 0x49A JUMPI PUSH1 0x20 CALLDATASIZE PUSH1 0x3 NOT ADD SLT PUSH2 0x49A JUMPI DUP2 CALLDATALOAD SWAP1 PUSH1 0x1 PUSH1 0x1 PUSH1 0x40 SHL SUB DUP3 GT PUSH2 0x49A JUMPI PUSH2 0x4EC PUSH2 0x4D8 PUSH2 0x4D3 CALLDATASIZE DUP6 DUP8 ADD PUSH2 0x149A JUMP JUMPDEST PUSH2 0x293A JUMP JUMPDEST PUSH1 0x40 MLOAD SWAP2 DUP3 SWAP2 PUSH1 0x20 DUP4 MSTORE PUSH1 0x20 DUP4 ADD SWAP1 PUSH2 0x152E JUMP JUMPDEST SUB SWAP1 RETURN JUMPDEST POP CALLVALUE PUSH2 0x1E7 JUMPI PUSH1 0x20 DUP1 PUSH1 0x3 NOT CALLDATASIZE ADD SLT PUSH2 0x45D JUMPI DUP2 CALLDATALOAD PUSH1 0x1 PUSH1 0x1 PUSH1 0x40 SHL SUB DUP2 GT PUSH2 0x459 JUMPI PUSH2 0x520 SWAP1 CALLDATASIZE SWAP1 DUP5 ADD PUSH2 0x149A JUMP JUMPDEST CALLER DUP5 MSTORE PUSH1 0x1 DUP3 MSTORE PUSH1 0x40 DUP5 KECCAK256 PUSH1 0x40 MLOAD DUP4 DUP2 DUP5 MLOAD SWAP4 DUP3 DUP7 ADD SWAP5 PUSH2 0x542 DUP2 DUP5 DUP9 PUSH2 0x14E6 JUMP JUMPDEST DUP3 ADD SWAP1 DUP2 MSTORE SUB ADD SWAP1 KECCAK256 SLOAD SWAP1 DUP2 ISZERO PUSH2 0x728 JUMPI PUSH2 0x575 DUP5 DUP8 SWAP3 CALLER DUP5 MSTORE PUSH1 0x1 DUP3 MSTORE PUSH1 0x40 DUP5 KECCAK256 PUSH1 0x40 MLOAD DUP1 SWAP5 DUP2 SWAP4 DUP10 MLOAD SWAP3 DUP4 SWAP2 PUSH2 0x14E6 JUMP JUMPDEST DUP3 ADD SWAP1 DUP2 MSTORE SUB ADD SWAP1 KECCAK256 SSTORE PUSH2 0x5A3 PUSH1 0x40 MLOAD PUSH2 0x58E DUP2 PUSH2 0x13C0 JUMP JUMPDEST PUSH1 0x3 DUP2 MSTORE PUSH3 0x8AA89 PUSH1 0xEB SHL DUP6 DUP3 ADD MSTORE DUP4 PUSH2 0x25DD JUMP JUMPDEST ISZERO PUSH2 0x65A JUMPI DUP5 DUP1 DUP1 DUP1 DUP5 CALLER GAS CALL SWAP2 DUP3 RETURNDATASIZE ISZERO PUSH2 0x655 JUMPI RETURNDATASIZE PUSH2 0x5C2 DUP2 PUSH2 0x147F JUMP JUMPDEST SWAP1 PUSH2 0x5D0 PUSH1 0x40 MLOAD SWAP3 DUP4 PUSH2 0x145E JUMP JUMPDEST DUP2 MSTORE DUP8 DUP7 RETURNDATASIZE SWAP3 ADD RETURNDATACOPY JUMPDEST PUSH2 0x620 JUMPI JUMPDEST POP POP ISZERO PUSH2 0x5EA JUMPI POP POP DUP1 RETURN JUMPDEST PUSH1 0x40 MLOAD PUSH3 0x461BCD PUSH1 0xE5 SHL DUP2 MSTORE SWAP2 DUP3 ADD MSTORE PUSH1 0x10 PUSH1 0x24 DUP3 ADD MSTORE PUSH16 0x5472616E73666572206661696C656421 PUSH1 0x80 SHL PUSH1 0x44 DUP3 ADD MSTORE PUSH1 0x64 SWAP2 POP REVERT JUMPDEST PUSH2 0x629 SWAP1 PUSH2 0x250A JUMP JUMPDEST CALLER PUSH32 0xF2CA3EFE12F71D386EF0FD2B75EBBEF402882711943CCB42D5BDB696FA7A1341 DUP8 DUP1 LOG4 CODESIZE DUP1 PUSH2 0x5DE JUMP JUMPDEST PUSH2 0x5D9 JUMP JUMPDEST SWAP1 PUSH2 0x683 SWAP1 PUSH1 0x40 SWAP5 SWAP4 SWAP5 MLOAD SWAP1 PUSH2 0x66F DUP3 PUSH2 0x13C0 JUMP JUMPDEST DUP5 DUP3 MSTORE PUSH4 0x13515515 PUSH1 0xE2 SHL DUP7 DUP4 ADD MSTORE PUSH2 0x25DD JUMP JUMPDEST PUSH2 0x68E JUMPI JUMPDEST POP POP POP DUP1 RETURN JUMPDEST DUP2 SLOAD PUSH1 0x1 PUSH1 0x1 PUSH1 0xA0 SHL SUB AND SWAP2 PUSH8 0x8AC7230489E80000 DUP3 MUL SWAP2 DUP3 DIV PUSH8 0x8AC7230489E7FFFF NOT ADD PUSH2 0x715 JUMPI SWAP1 PUSH1 0x44 DUP5 SWAP3 DUP7 PUSH1 0x40 MLOAD SWAP6 DUP7 SWAP5 DUP6 SWAP4 PUSH4 0xA9059CBB PUSH1 0xE0 SHL DUP6 MSTORE CALLER SWAP1 DUP6 ADD MSTORE PUSH1 0x24 DUP5 ADD MSTORE GAS CALL DUP1 ISZERO PUSH2 0x70A JUMPI PUSH2 0x6EC JUMPI JUMPDEST DUP1 PUSH2 0x688 JUMP JUMPDEST DUP2 PUSH2 0x702 SWAP3 SWAP1 RETURNDATASIZE LT PUSH2 0x1AA JUMPI PUSH2 0x19B DUP2 DUP4 PUSH2 0x145E JUMP JUMPDEST POP CODESIZE DUP1 PUSH2 0x6E6 JUMP JUMPDEST PUSH1 0x40 MLOAD RETURNDATASIZE DUP6 DUP3 RETURNDATACOPY RETURNDATASIZE SWAP1 REVERT JUMPDEST PUSH4 0x4E487B71 PUSH1 0xE0 SHL DUP6 MSTORE PUSH1 0x11 SWAP1 MSTORE PUSH1 0x24 DUP5 REVERT JUMPDEST PUSH1 0x40 MLOAD PUSH4 0x125D726B PUSH1 0xE2 SHL DUP2 MSTORE DUP6 SWAP1 REVERT JUMPDEST POP CALLVALUE PUSH2 0x1E7 JUMPI PUSH1 0x40 CALLDATASIZE PUSH1 0x3 NOT ADD SLT PUSH2 0x1E7 JUMPI PUSH2 0x753 PUSH2 0x1782 JUMP JUMPDEST SWAP1 PUSH1 0x24 CALLDATALOAD PUSH1 0x1 PUSH1 0x1 PUSH1 0x40 SHL SUB DUP2 GT PUSH2 0x459 JUMPI SWAP2 PUSH1 0x40 PUSH1 0x20 SWAP5 PUSH2 0x77C DUP7 SWAP5 PUSH2 0x7A2 SWAP7 CALLDATASIZE SWAP2 ADD PUSH2 0x149A JUMP JUMPDEST PUSH1 0x1 PUSH1 0x1 PUSH1 0xA0 SHL SUB SWAP1 SWAP4 AND DUP2 MSTORE PUSH1 0x1 DUP5 MSTORE KECCAK256 PUSH1 0x40 MLOAD DUP3 MLOAD SWAP1 SWAP5 DUP6 SWAP4 DUP3 SWAP1 DUP6 SWAP1 DUP8 ADD PUSH2 0x14E6 JUMP JUMPDEST DUP3 ADD SWAP1 DUP2 MSTORE SUB ADD SWAP1 KECCAK256 SLOAD PUSH1 0x40 MLOAD SWAP1 DUP2 MSTORE RETURN JUMPDEST POP CALLVALUE PUSH2 0x1E7 JUMPI PUSH1 0x20 CALLDATASIZE PUSH1 0x3 NOT ADD SLT PUSH2 0x1E7 JUMPI DUP1 CALLDATALOAD SWAP1 PUSH1 0x1 PUSH1 0x1 PUSH1 0x40 SHL SUB DUP3 GT PUSH2 0x45D JUMPI PUSH2 0x7E3 SWAP2 CALLDATASIZE SWAP2 ADD PUSH2 0x149A JUMP JUMPDEST PUSH1 0x5 SLOAD SWAP1 PUSH2 0x7F0 DUP3 PUSH2 0x28D6 JUMP JUMPDEST SWAP3 JUMPDEST DUP3 DUP2 LT PUSH2 0x807 JUMPI PUSH1 0x40 MLOAD DUP1 PUSH2 0x4EC DUP7 DUP3 PUSH2 0x1720 JUMP JUMPDEST DUP1 PUSH2 0x81D DUP4 PUSH2 0x26C PUSH1 0x2 PUSH2 0x265 PUSH2 0x826 SWAP7 PUSH2 0x1798 JUMP JUMPDEST PUSH2 0x82B JUMPI PUSH2 0x252A JUMP JUMPDEST PUSH2 0x7F2 JUMP JUMPDEST PUSH2 0x837 PUSH2 0x293 DUP3 PUSH2 0x1798 JUMP JUMPDEST PUSH2 0x841 DUP3 DUP8 PUSH2 0x2926 JUMP JUMPDEST MSTORE PUSH2 0x84C DUP2 DUP7 PUSH2 0x2926 JUMP JUMPDEST POP PUSH2 0x252A JUMP JUMPDEST DUP3 CALLVALUE PUSH2 0x49A JUMPI DUP1 PUSH1 0x3 NOT CALLDATASIZE ADD SLT PUSH2 0x49A JUMPI PUSH1 0x5 SLOAD PUSH2 0x86F DUP2 PUSH2 0x2632 JUMP JUMPDEST SWAP1 PUSH2 0x87D PUSH1 0x40 MLOAD SWAP3 DUP4 PUSH2 0x145E JUMP JUMPDEST DUP1 DUP3 MSTORE PUSH1 0x5 DUP4 MSTORE PUSH32 0x36B6384B5ECA791C62761152D0C79BB0604C104A5FB6F4EB0703F3154BB3DB0 SWAP3 PUSH1 0x20 DUP1 DUP5 ADD JUMPDEST DUP4 DUP4 LT PUSH2 0x8C1 JUMPI PUSH1 0x40 MLOAD DUP1 PUSH2 0x4EC DUP8 DUP3 PUSH2 0x1720 JUMP JUMPDEST PUSH1 0xD DUP3 PUSH1 0x1 SWAP3 PUSH2 0x8D0 DUP10 PUSH2 0x2765 JUMP JUMPDEST DUP2 MSTORE ADD SWAP7 ADD SWAP3 ADD SWAP2 SWAP5 PUSH2 0x8AC JUMP JUMPDEST POP CALLVALUE PUSH2 0x1E7 JUMPI PUSH1 0x40 CALLDATASIZE PUSH1 0x3 NOT ADD SLT PUSH2 0x1E7 JUMPI DUP1 CALLDATALOAD SWAP1 PUSH1 0x1 PUSH1 0x1 PUSH1 0x40 SHL SUB DUP3 GT PUSH2 0x45D JUMPI PUSH2 0x90D SWAP2 CALLDATASIZE SWAP2 ADD PUSH2 0x149A JUMP JUMPDEST PUSH1 0x24 CALLDATALOAD SWAP1 DUP2 ISZERO ISZERO SWAP1 DUP2 DUP4 SUB PUSH2 0x459 JUMPI DUP4 JUMPDEST PUSH1 0x5 SLOAD DUP2 LT ISZERO PUSH2 0x9AB JUMPI PUSH2 0x93A DUP3 PUSH2 0x26C PUSH1 0x9 PUSH2 0x265 DUP6 PUSH2 0x1798 JUMP JUMPDEST PUSH2 0x94C JUMPI PUSH2 0x947 SWAP1 PUSH2 0x252A JUMP JUMPDEST PUSH2 0x91E JUMP JUMPDEST PUSH2 0x983 SWAP3 SWAP4 PUSH1 0x1 PUSH2 0x95F PUSH2 0x97E SWAP4 PUSH2 0x1798 JUMP JUMPDEST POP ADD DUP1 SLOAD PUSH1 0xFF PUSH1 0xA0 SHL NOT AND SWAP2 ISZERO ISZERO PUSH1 0xA0 SHL PUSH1 0xFF PUSH1 0xA0 SHL AND SWAP2 SWAP1 SWAP2 OR SWAP1 SSTORE JUMP JUMPDEST PUSH2 0x250A JUMP JUMPDEST CALLER PUSH32 0x51DABE03DBC9869CDC42F327348910C055732B793C7AAADE368A32D8F3658E1E DUP5 DUP1 LOG4 DUP1 RETURN JUMPDEST POP POP POP POP DUP1 RETURN JUMPDEST DUP3 CALLVALUE PUSH2 0x49A JUMPI PUSH1 0x20 DUP1 PUSH1 0x3 NOT CALLDATASIZE ADD SLT PUSH2 0x1E7 JUMPI PUSH2 0x4EC PUSH1 0x40 DUP1 SWAP4 PUSH2 0x9D4 PUSH2 0x1782 JUMP JUMPDEST PUSH1 0x60 DUP6 DUP5 MLOAD PUSH2 0x9E2 DUP2 PUSH2 0x13C0 JUMP JUMPDEST DUP3 DUP2 MSTORE ADD MSTORE PUSH1 0x1 PUSH1 0x1 PUSH1 0xA0 SHL SUB AND DUP2 MSTORE PUSH1 0x2 DUP5 MSTORE KECCAK256 DUP4 MLOAD SWAP3 SWAP1 PUSH2 0xA3E SWAP1 PUSH2 0xA20 SWAP1 PUSH1 0x1 SWAP1 PUSH2 0xA0F DUP8 PUSH2 0x13C0 JUMP JUMPDEST PUSH2 0xA18 DUP2 PUSH2 0x2539 JUMP JUMPDEST DUP8 MSTORE ADD PUSH2 0x2539 JUMP JUMPDEST SWAP2 DUP1 DUP6 ADD SWAP3 DUP4 MSTORE DUP6 MLOAD SWAP6 DUP7 SWAP6 DUP3 DUP8 MSTORE MLOAD SWAP2 DUP7 ADD MSTORE PUSH1 0x60 DUP6 ADD SWAP1 PUSH2 0x1509 JUMP JUMPDEST SWAP1 MLOAD DUP4 DUP3 SUB PUSH1 0x1F NOT ADD PUSH1 0x40 DUP6 ADD MSTORE PUSH2 0x1509 JUMP JUMPDEST POP CALLVALUE PUSH2 0x1E7 JUMPI PUSH1 0xA0 CALLDATASIZE PUSH1 0x3 NOT ADD SLT PUSH2 0x1E7 JUMPI PUSH1 0x1 PUSH1 0x1 PUSH1 0x40 SHL SUB DUP2 CALLDATALOAD DUP2 DUP2 GT PUSH2 0x459 JUMPI PUSH2 0xA81 SWAP1 CALLDATASIZE SWAP1 DUP5 ADD PUSH2 0x149A JUMP JUMPDEST SWAP1 PUSH1 0x24 SWAP3 DUP4 CALLDATALOAD SWAP3 PUSH1 0x44 CALLDATALOAD DUP4 DUP2 GT PUSH2 0x455 JUMPI PUSH2 0xA9F SWAP1 CALLDATASIZE SWAP1 DUP5 ADD PUSH2 0x149A JUMP JUMPDEST SWAP3 PUSH1 0x64 CALLDATALOAD SWAP1 DUP2 GT PUSH2 0x455 JUMPI PUSH2 0xAB7 SWAP1 CALLDATASIZE SWAP1 DUP5 ADD PUSH2 0x149A JUMP JUMPDEST SWAP3 PUSH1 0x84 CALLDATALOAD PUSH1 0x1 PUSH1 0x1 PUSH1 0xA0 SHL SUB DUP2 AND SWAP4 SWAP1 DUP5 SWAP1 SUB PUSH2 0xBDA JUMPI DUP8 JUMPDEST PUSH1 0x5 DUP1 SLOAD DUP3 LT ISZERO PUSH2 0xBCE JUMPI PUSH2 0xAED DUP8 PUSH2 0x26C PUSH1 0x9 PUSH2 0x265 DUP7 PUSH2 0x1798 JUMP JUMPDEST PUSH2 0xB00 JUMPI POP PUSH2 0xAFB SWAP1 PUSH2 0x252A JUMP JUMPDEST PUSH2 0xAD0 JUMP JUMPDEST SWAP2 SWAP3 SWAP4 SWAP5 SWAP6 SWAP7 SWAP8 SWAP1 PUSH2 0xB13 PUSH1 0xB SWAP2 PUSH2 0x1798 JUMP JUMPDEST POP ADD SWAP1 PUSH1 0x40 MLOAD SWAP5 PUSH2 0xB23 DUP7 PUSH2 0x140D JUMP JUMPDEST CALLER DUP7 MSTORE PUSH1 0x20 SWAP10 DUP11 DUP8 ADD MSTORE DUP7 PUSH1 0x40 DUP8 ADD MSTORE TIMESTAMP PUSH1 0x60 DUP8 ADD MSTORE PUSH1 0x80 DUP7 ADD MSTORE DUP2 SLOAD SWAP4 PUSH1 0x1 PUSH1 0x40 SHL DUP6 LT ISZERO PUSH2 0xBBD JUMPI PUSH1 0x1 DUP6 ADD DUP1 DUP5 SSTORE DUP6 LT ISZERO PUSH2 0xBAC JUMPI POP POP PUSH2 0xB9F SWAP4 PUSH2 0xB99 SWAP4 PUSH32 0x8BB52EEE1B68032569FA2C483528D7D2B7DB7824B9704EE675F7202956220865 SWAP7 SWAP4 PUSH2 0x97E SWAP4 DUP13 MSTORE DUP11 DUP13 KECCAK256 SWAP2 MUL ADD PUSH2 0x1884 JUMP JUMPDEST SWAP4 PUSH2 0x250A JUMP JUMPDEST SWAP4 PUSH1 0x40 MLOAD SWAP3 DUP4 MSTORE CALLER SWAP3 LOG4 DUP1 RETURN JUMPDEST PUSH4 0x4E487B71 PUSH1 0xE0 SHL DUP12 MSTORE PUSH1 0x32 SWAP1 MSTORE DUP10 REVERT JUMPDEST PUSH4 0x4E487B71 PUSH1 0xE0 SHL DUP12 MSTORE PUSH1 0x41 SWAP1 MSTORE DUP10 REVERT JUMPDEST POP POP POP POP POP POP POP POP POP DUP1 RETURN JUMPDEST DUP8 DUP1 REVERT JUMPDEST DUP3 CALLVALUE PUSH2 0x49A JUMPI DUP1 PUSH1 0x3 NOT CALLDATASIZE ADD SLT PUSH2 0x49A JUMPI PUSH1 0x5 SLOAD PUSH2 0xBFB DUP2 PUSH2 0x28D6 JUMP JUMPDEST SWAP2 JUMPDEST DUP2 DUP2 LT PUSH2 0xC12 JUMPI PUSH1 0x40 MLOAD DUP1 PUSH2 0x4EC DUP6 DUP3 PUSH2 0x1720 JUMP JUMPDEST DUP1 PUSH2 0xC1F PUSH2 0xC38 SWAP3 PUSH2 0x1798 JUMP JUMPDEST POP PUSH1 0x1 ADD SLOAD PUSH1 0x1 PUSH1 0x1 PUSH1 0xA0 SHL SUB AND CALLER EQ PUSH2 0xC3D JUMPI PUSH2 0x252A JUMP JUMPDEST PUSH2 0xBFD JUMP JUMPDEST PUSH2 0xC49 PUSH2 0x293 DUP3 PUSH2 0x1798 JUMP JUMPDEST PUSH2 0xC53 DUP3 DUP7 PUSH2 0x2926 JUMP JUMPDEST MSTORE PUSH2 0x84C DUP2 DUP6 PUSH2 0x2926 JUMP JUMPDEST POP CALLVALUE PUSH2 0x1E7 JUMPI DUP2 PUSH1 0x3 NOT CALLDATASIZE ADD SLT PUSH2 0x1E7 JUMPI SLOAD PUSH1 0x40 MLOAD PUSH1 0x1 PUSH1 0x1 PUSH1 0xA0 SHL SUB SWAP1 SWAP2 AND DUP2 MSTORE PUSH1 0x20 SWAP1 RETURN JUMPDEST POP CALLVALUE PUSH2 0x1E7 JUMPI PUSH1 0xE0 CALLDATASIZE PUSH1 0x3 NOT ADD SLT PUSH2 0x1E7 JUMPI PUSH1 0x1 PUSH1 0x1 PUSH1 0x40 SHL SUB DUP2 CALLDATALOAD DUP2 DUP2 GT PUSH2 0x459 JUMPI PUSH2 0xCB5 SWAP1 CALLDATASIZE SWAP1 DUP5 ADD PUSH2 0x149A JUMP JUMPDEST PUSH1 0x44 CALLDATALOAD DUP3 DUP2 GT PUSH2 0xED2 JUMPI PUSH2 0xCCC SWAP1 CALLDATASIZE SWAP1 DUP6 ADD PUSH2 0x149A JUMP JUMPDEST SWAP2 PUSH1 0x64 CALLDATALOAD DUP2 DUP2 GT PUSH2 0xECE JUMPI PUSH2 0xCE4 SWAP1 CALLDATASIZE SWAP1 DUP7 ADD PUSH2 0x149A JUMP JUMPDEST SWAP4 PUSH1 0x84 CALLDATALOAD DUP3 DUP2 GT PUSH2 0x455 JUMPI PUSH2 0xCFC SWAP1 CALLDATASIZE SWAP1 DUP4 ADD PUSH2 0x149A JUMP JUMPDEST SWAP2 PUSH1 0xA4 CALLDATALOAD DUP2 DUP2 GT PUSH2 0xBDA JUMPI PUSH2 0xD14 SWAP1 CALLDATASIZE SWAP1 DUP5 ADD PUSH2 0x149A JUMP JUMPDEST SWAP2 PUSH1 0xC4 CALLDATALOAD SWAP2 DUP3 GT PUSH2 0xBDA JUMPI PUSH2 0xD2B SWAP2 CALLDATASIZE SWAP2 ADD PUSH2 0x149A JUMP JUMPDEST SWAP2 DUP7 JUMPDEST PUSH1 0x5 SLOAD DUP2 LT ISZERO PUSH2 0xEC4 JUMPI PUSH2 0xD4A DUP6 PUSH2 0x26C PUSH1 0x9 PUSH2 0x265 DUP6 PUSH2 0x1798 JUMP JUMPDEST PUSH2 0xD5C JUMPI PUSH2 0xD57 SWAP1 PUSH2 0x252A JUMP JUMPDEST PUSH2 0xD2E JUMP JUMPDEST SWAP3 SWAP4 SWAP5 SWAP6 PUSH2 0xD69 DUP5 PUSH2 0x1798 JUMP JUMPDEST POP PUSH1 0x1 SWAP1 DUP2 ADD SLOAD PUSH1 0x1 PUSH1 0x1 PUSH1 0xA0 SHL SUB AND SWAP6 SWAP1 PUSH2 0xD84 DUP7 PUSH2 0x1798 JUMP JUMPDEST POP ADD SLOAD SWAP3 PUSH2 0xD91 DUP7 PUSH2 0x1798 JUMP JUMPDEST POP SWAP5 PUSH2 0xD9C DUP8 PUSH2 0x1798 JUMP JUMPDEST POP PUSH2 0xDA6 DUP9 PUSH2 0x1798 JUMP JUMPDEST POP SWAP4 PUSH2 0xDB1 DUP10 PUSH2 0x1798 JUMP JUMPDEST POP PUSH1 0xA ADD SLOAD SWAP6 PUSH2 0xDC0 DUP11 PUSH2 0x1798 JUMP JUMPDEST POP SWAP8 PUSH2 0xDCB DUP12 PUSH2 0x1798 JUMP JUMPDEST POP SWAP10 PUSH1 0x40 MLOAD SWAP13 PUSH2 0xDDA DUP15 PUSH2 0x13F1 JUMP JUMPDEST PUSH1 0x24 CALLDATALOAD DUP15 MSTORE PUSH1 0x20 DUP15 ADD MSTORE PUSH1 0xFF PUSH1 0xA0 SWAP3 DUP4 SHR AND ISZERO ISZERO PUSH1 0x40 DUP15 ADD MSTORE PUSH2 0xDFF SWAP1 PUSH1 0x2 ADD PUSH2 0x2539 JUMP JUMPDEST PUSH1 0x60 DUP14 ADD MSTORE DUP14 PUSH1 0x80 DUP14 ADD MSTORE DUP12 ADD MSTORE PUSH1 0xC0 DUP11 ADD MSTORE PUSH1 0x6 ADD PUSH2 0xE1E SWAP1 PUSH2 0x2539 JUMP JUMPDEST PUSH1 0xE0 DUP10 ADD MSTORE PUSH2 0x100 DUP9 ADD MSTORE PUSH2 0x120 DUP8 ADD MSTORE PUSH1 0x9 ADD PUSH2 0xE3B SWAP1 PUSH2 0x2539 JUMP JUMPDEST PUSH2 0x140 DUP7 ADD MSTORE PUSH2 0x160 DUP6 ADD MSTORE PUSH1 0xB ADD PUSH2 0xE53 SWAP1 PUSH2 0x2649 JUMP JUMPDEST PUSH2 0x180 DUP5 ADD MSTORE PUSH1 0xC ADD PUSH2 0xE65 SWAP1 PUSH2 0x26E8 JUMP JUMPDEST PUSH2 0x1A0 DUP4 ADD MSTORE PUSH2 0xE74 SWAP1 PUSH2 0x1798 JUMP JUMPDEST PUSH2 0xE7E SWAP3 SWAP2 PUSH2 0x1AB4 JUMP JUMPDEST PUSH2 0xE87 SWAP1 PUSH2 0x250A JUMP JUMPDEST SWAP1 PUSH2 0xE91 SWAP1 PUSH2 0x250A JUMP JUMPDEST SWAP1 PUSH1 0x40 MLOAD PUSH1 0x24 CALLDATALOAD DUP2 MSTORE CALLER SWAP1 PUSH1 0x20 PUSH32 0x384C5F98880FAD6ED933597FE4BECD24246DB16D5A262945362C7ACE0A0E47B5 SWAP2 LOG4 DUP1 RETURN JUMPDEST POP POP POP POP POP POP POP DUP1 RETURN JUMPDEST DUP6 DUP1 REVERT JUMPDEST DUP5 DUP1 REVERT JUMPDEST POP SWAP1 CALLVALUE PUSH2 0x49A JUMPI PUSH1 0x20 CALLDATASIZE PUSH1 0x3 NOT ADD SLT PUSH2 0x49A JUMPI DUP2 CALLDATALOAD SWAP1 PUSH1 0x1 PUSH1 0x1 PUSH1 0x40 SHL SUB DUP3 GT PUSH2 0x49A JUMPI PUSH1 0x20 PUSH2 0xF10 PUSH2 0xF0B CALLDATASIZE DUP6 DUP8 ADD PUSH2 0x149A JUMP JUMPDEST PUSH2 0x2A66 JUMP JUMPDEST PUSH1 0x40 MLOAD SWAP1 ISZERO ISZERO DUP2 MSTORE RETURN JUMPDEST POP CALLVALUE PUSH2 0x1E7 JUMPI PUSH2 0x140 SWAP1 DUP2 PUSH1 0x3 NOT CALLDATASIZE ADD SLT PUSH2 0x45D JUMPI DUP1 CALLDATALOAD SWAP1 PUSH1 0x1 PUSH1 0x1 PUSH1 0x40 SHL SUB SWAP1 PUSH1 0x24 CALLDATALOAD DUP3 DUP2 GT PUSH2 0xECE JUMPI PUSH2 0xF52 SWAP1 CALLDATASIZE SWAP1 DUP4 ADD PUSH2 0x149A JUMP JUMPDEST SWAP1 PUSH1 0x44 CALLDATALOAD DUP4 DUP2 GT PUSH2 0x455 JUMPI PUSH2 0xF6A SWAP1 CALLDATASIZE SWAP1 DUP4 ADD PUSH2 0x149A JUMP JUMPDEST SWAP5 PUSH1 0x64 CALLDATALOAD DUP5 DUP2 GT PUSH2 0xBDA JUMPI PUSH2 0xF82 SWAP1 CALLDATASIZE SWAP1 DUP5 ADD PUSH2 0x149A JUMP JUMPDEST SWAP4 PUSH1 0x84 CALLDATALOAD DUP2 DUP2 GT PUSH2 0x1104 JUMPI PUSH2 0xF9A SWAP1 CALLDATASIZE SWAP1 DUP6 ADD PUSH2 0x149A JUMP JUMPDEST PUSH1 0xA4 CALLDATALOAD DUP3 DUP2 GT PUSH2 0x1100 JUMPI PUSH2 0xFB1 SWAP1 CALLDATASIZE SWAP1 DUP7 ADD PUSH2 0x149A JUMP JUMPDEST PUSH1 0xC4 CALLDATALOAD DUP4 DUP2 GT PUSH2 0x10FC JUMPI PUSH2 0xFC8 SWAP1 CALLDATASIZE SWAP1 DUP8 ADD PUSH2 0x149A JUMP JUMPDEST SWAP2 PUSH1 0xE4 CALLDATALOAD DUP5 DUP2 GT PUSH2 0x10F8 JUMPI PUSH2 0xFE0 SWAP1 CALLDATASIZE SWAP1 DUP9 ADD PUSH2 0x149A JUMP JUMPDEST SWAP4 PUSH2 0x104 CALLDATALOAD SWAP1 DUP2 GT PUSH2 0x10F8 JUMPI PUSH2 0xFF9 SWAP1 CALLDATASIZE SWAP1 DUP9 ADD PUSH2 0x149A JUMP JUMPDEST SWAP8 DUP10 ISZERO PUSH2 0x10E7 JUMPI SWAP1 DUP9 SWAP6 SWAP5 SWAP4 SWAP3 SWAP2 PUSH1 0x40 MLOAD SWAP9 PUSH2 0x1014 DUP11 PUSH2 0x13F1 JUMP JUMPDEST DUP12 DUP11 MSTORE CALLER PUSH1 0x20 DUP12 ADD MSTORE DUP14 PUSH1 0x40 DUP12 ADD MSTORE PUSH1 0x60 DUP11 ADD MSTORE DUP12 PUSH1 0x80 DUP11 ADD MSTORE PUSH1 0xA0 DUP10 ADD MSTORE PUSH1 0xC0 DUP9 ADD MSTORE PUSH1 0xE0 DUP8 ADD MSTORE PUSH2 0x100 DUP7 ADD MSTORE PUSH2 0x120 DUP6 ADD MSTORE DUP4 ADD MSTORE PUSH2 0x124 CALLDATALOAD PUSH2 0x160 DUP4 ADD MSTORE PUSH1 0x60 PUSH2 0x180 DUP4 ADD MSTORE PUSH1 0x60 PUSH2 0x1A0 DUP4 ADD MSTORE PUSH1 0x5 SLOAD SWAP1 PUSH1 0x1 PUSH1 0x40 SHL DUP3 LT ISZERO PUSH2 0x10D4 JUMPI POP PUSH2 0x1095 SWAP3 SWAP2 PUSH2 0x108F DUP3 PUSH1 0x1 PUSH2 0x97E SWAP5 ADD PUSH1 0x5 SSTORE PUSH2 0x1798 JUMP JUMPDEST SWAP1 PUSH2 0x1AB4 JUMP JUMPDEST SWAP2 PUSH32 0x9EC512F6157DAF19471FDB4ABC754CD622CE54571FDA42C4C416FF378B041583 PUSH1 0x40 MLOAD PUSH1 0x20 DUP2 MSTORE DUP1 PUSH2 0x10CE CALLER SWAP5 PUSH1 0x20 DUP4 ADD SWAP1 PUSH2 0x1509 JUMP JUMPDEST SUB SWAP1 LOG4 DUP1 RETURN JUMPDEST PUSH4 0x4E487B71 PUSH1 0xE0 SHL DUP8 MSTORE PUSH1 0x41 SWAP1 MSTORE PUSH1 0x24 DUP7 REVERT JUMPDEST PUSH1 0x40 MLOAD PUSH4 0x5EBDE5F5 PUSH1 0xE1 SHL DUP2 MSTORE DUP8 SWAP1 REVERT JUMPDEST DUP12 DUP1 REVERT JUMPDEST DUP11 DUP1 REVERT JUMPDEST DUP10 DUP1 REVERT JUMPDEST DUP9 DUP1 REVERT JUMPDEST POP CALLVALUE PUSH2 0x1E7 JUMPI PUSH1 0x40 CALLDATASIZE PUSH1 0x3 NOT ADD SLT PUSH2 0x1E7 JUMPI PUSH1 0x1 PUSH1 0x1 PUSH1 0x40 SHL SUB SWAP1 DUP1 CALLDATALOAD DUP3 DUP2 GT PUSH2 0x459 JUMPI PUSH2 0x1139 SWAP1 CALLDATASIZE SWAP1 DUP4 ADD PUSH2 0x149A JUMP JUMPDEST PUSH1 0x24 CALLDATALOAD DUP4 DUP2 GT PUSH2 0xED2 JUMPI PUSH2 0x1150 SWAP1 CALLDATASIZE SWAP1 DUP5 ADD PUSH2 0x149A JUMP JUMPDEST SWAP3 PUSH1 0x40 MLOAD SWAP1 PUSH2 0x115E DUP3 PUSH2 0x13C0 JUMP JUMPDEST DUP3 DUP3 MSTORE PUSH1 0x20 SWAP2 DUP3 DUP2 ADD SWAP3 DUP7 DUP5 MSTORE CALLER DUP9 MSTORE PUSH1 0x2 DUP2 MSTORE PUSH1 0x40 DUP9 KECCAK256 SWAP2 MLOAD SWAP1 DUP2 MLOAD DUP5 DUP2 GT PUSH2 0x13AD JUMPI DUP1 PUSH2 0x118D DUP6 SLOAD PUSH2 0x17E9 JUMP JUMPDEST SWAP4 DUP12 PUSH1 0x1F SWAP6 DUP6 DUP8 DUP3 GT PUSH2 0x1381 JUMPI JUMPDEST POP POP POP DUP4 SWAP1 DUP6 DUP4 GT PUSH1 0x1 EQ PUSH2 0x131E JUMPI DUP13 SWAP3 PUSH2 0x1313 JUMPI JUMPDEST POP POP DUP2 PUSH1 0x1 SHL SWAP2 PUSH1 0x0 NOT SWAP1 PUSH1 0x3 SHL SHR NOT AND OR DUP4 SSTORE JUMPDEST PUSH1 0x1 DUP1 SWAP4 ADD SWAP5 MLOAD SWAP7 DUP8 MLOAD SWAP5 DUP6 GT PUSH2 0x1300 JUMPI POP PUSH2 0x11E2 DUP6 SLOAD PUSH2 0x17E9 JUMP JUMPDEST DUP3 DUP2 GT PUSH2 0x12CA JUMPI JUMPDEST POP DUP1 SWAP2 DUP5 GT PUSH1 0x1 EQ PUSH2 0x125C JUMPI POP SWAP2 DUP1 DUP1 SWAP3 PUSH2 0x1222 SWAP7 SWAP6 SWAP5 PUSH2 0x1228 SWAP9 DUP12 SWAP5 PUSH2 0x1251 JUMPI JUMPDEST POP POP SHL SWAP2 PUSH1 0x0 NOT SWAP1 PUSH1 0x3 SHL SHR NOT AND OR SWAP1 SSTORE PUSH2 0x250A JUMP JUMPDEST SWAP2 PUSH2 0x250A JUMP JUMPDEST SWAP1 CALLER PUSH32 0x8FB63D21CD1646C22E90408D0771D27886ED526A60064418E44B4E4A35BF6A07 DUP5 DUP1 LOG4 DUP1 RETURN JUMPDEST ADD MLOAD SWAP3 POP CODESIZE DUP1 PUSH2 0x120C JUMP JUMPDEST SWAP2 SWAP4 SWAP5 SWAP6 PUSH1 0x1F NOT DUP5 AND DUP7 DUP11 MSTORE DUP4 DUP11 KECCAK256 SWAP4 DUP11 SWAP1 JUMPDEST DUP3 DUP3 LT PUSH2 0x12B3 JUMPI POP POP SWAP2 PUSH2 0x1228 SWAP8 SWAP6 SWAP4 SWAP2 DUP6 PUSH2 0x1222 SWAP9 SWAP7 SWAP5 LT PUSH2 0x129A JUMPI JUMPDEST POP POP POP DUP2 SHL ADD SWAP1 SSTORE PUSH2 0x250A JUMP JUMPDEST ADD MLOAD PUSH1 0x0 NOT PUSH1 0xF8 DUP5 PUSH1 0x3 SHL AND SHR NOT AND SWAP1 SSTORE CODESIZE DUP1 DUP1 PUSH2 0x128D JUMP JUMPDEST DUP1 DUP9 DUP7 SWAP8 DUP3 SWAP5 SWAP8 DUP8 ADD MLOAD DUP2 SSTORE ADD SWAP7 ADD SWAP5 ADD SWAP1 PUSH2 0x126F JUMP JUMPDEST PUSH2 0x12F1 SWAP1 DUP7 DUP12 MSTORE DUP3 DUP12 KECCAK256 DUP5 DUP1 DUP9 ADD PUSH1 0x5 SHR DUP3 ADD SWAP3 DUP6 DUP10 LT PUSH2 0x12F7 JUMPI JUMPDEST ADD PUSH1 0x5 SHR ADD SWAP1 PUSH2 0x1823 JUMP JUMPDEST CODESIZE PUSH2 0x11EA JUMP JUMPDEST SWAP3 POP DUP2 SWAP3 PUSH2 0x12E6 JUMP JUMPDEST PUSH4 0x4E487B71 PUSH1 0xE0 SHL DUP11 MSTORE PUSH1 0x41 SWAP1 MSTORE PUSH1 0x24 DUP10 REVERT JUMPDEST ADD MLOAD SWAP1 POP CODESIZE DUP1 PUSH2 0x11B1 JUMP JUMPDEST DUP7 DUP14 MSTORE DUP5 DUP14 KECCAK256 SWAP3 POP PUSH1 0x1F NOT DUP5 AND DUP14 JUMPDEST DUP7 DUP3 DUP3 LT PUSH2 0x136B JUMPI POP POP SWAP1 DUP5 PUSH1 0x1 SWAP6 SWAP5 SWAP4 SWAP3 LT PUSH2 0x1352 JUMPI JUMPDEST POP POP POP DUP2 SHL ADD DUP4 SSTORE PUSH2 0x11C6 JUMP JUMPDEST ADD MLOAD PUSH1 0x0 NOT PUSH1 0xF8 DUP5 PUSH1 0x3 SHL AND SHR NOT AND SWAP1 SSTORE CODESIZE DUP1 DUP1 PUSH2 0x1345 JUMP JUMPDEST PUSH1 0x1 DUP6 SWAP7 DUP3 SWAP4 SWAP7 DUP7 ADD MLOAD DUP2 SSTORE ADD SWAP6 ADD SWAP4 ADD PUSH2 0x132D JUMP JUMPDEST DUP3 DUP10 PUSH2 0x13A5 SWAP5 MSTORE KECCAK256 DUP8 DUP1 DUP7 ADD PUSH1 0x5 SHR DUP3 ADD SWAP3 DUP9 DUP8 LT PUSH2 0x12F7 JUMPI ADD PUSH1 0x5 SHR ADD SWAP1 PUSH2 0x1823 JUMP JUMPDEST DUP12 CODESIZE DUP6 PUSH2 0x119B JUMP JUMPDEST PUSH4 0x4E487B71 PUSH1 0xE0 SHL DUP11 MSTORE PUSH1 0x41 DUP9 MSTORE PUSH1 0x24 DUP11 REVERT JUMPDEST PUSH1 0x40 DUP2 ADD SWAP1 DUP2 LT PUSH1 0x1 PUSH1 0x1 PUSH1 0x40 SHL SUB DUP3 GT OR PUSH2 0x13DB JUMPI PUSH1 0x40 MSTORE JUMP JUMPDEST PUSH4 0x4E487B71 PUSH1 0xE0 SHL PUSH1 0x0 MSTORE PUSH1 0x41 PUSH1 0x4 MSTORE PUSH1 0x24 PUSH1 0x0 REVERT JUMPDEST PUSH2 0x1C0 DUP2 ADD SWAP1 DUP2 LT PUSH1 0x1 PUSH1 0x1 PUSH1 0x40 SHL SUB DUP3 GT OR PUSH2 0x13DB JUMPI PUSH1 0x40 MSTORE JUMP JUMPDEST PUSH1 0xA0 DUP2 ADD SWAP1 DUP2 LT PUSH1 0x1 PUSH1 0x1 PUSH1 0x40 SHL SUB DUP3 GT OR PUSH2 0x13DB JUMPI PUSH1 0x40 MSTORE JUMP JUMPDEST PUSH1 0x60 DUP2 ADD SWAP1 DUP2 LT PUSH1 0x1 PUSH1 0x1 PUSH1 0x40 SHL SUB DUP3 GT OR PUSH2 0x13DB JUMPI PUSH1 0x40 MSTORE JUMP JUMPDEST PUSH1 0x20 DUP2 ADD SWAP1 DUP2 LT PUSH1 0x1 PUSH1 0x1 PUSH1 0x40 SHL SUB DUP3 GT OR PUSH2 0x13DB JUMPI PUSH1 0x40 MSTORE JUMP JUMPDEST SWAP1 PUSH1 0x1F DUP1 NOT SWAP2 ADD AND DUP2 ADD SWAP1 DUP2 LT PUSH1 0x1 PUSH1 0x1 PUSH1 0x40 SHL SUB DUP3 GT OR PUSH2 0x13DB JUMPI PUSH1 0x40 MSTORE JUMP JUMPDEST PUSH1 0x1 PUSH1 0x1 PUSH1 0x40 SHL SUB DUP2 GT PUSH2 0x13DB JUMPI PUSH1 0x1F ADD PUSH1 0x1F NOT AND PUSH1 0x20 ADD SWAP1 JUMP JUMPDEST DUP2 PUSH1 0x1F DUP3 ADD SLT ISZERO PUSH2 0x14E1 JUMPI DUP1 CALLDATALOAD SWAP1 PUSH2 0x14B1 DUP3 PUSH2 0x147F JUMP JUMPDEST SWAP3 PUSH2 0x14BF PUSH1 0x40 MLOAD SWAP5 DUP6 PUSH2 0x145E JUMP JUMPDEST DUP3 DUP5 MSTORE PUSH1 0x20 DUP4 DUP4 ADD ADD GT PUSH2 0x14E1 JUMPI DUP2 PUSH1 0x0 SWAP3 PUSH1 0x20 DUP1 SWAP4 ADD DUP4 DUP7 ADD CALLDATACOPY DUP4 ADD ADD MSTORE SWAP1 JUMP JUMPDEST PUSH1 0x0 DUP1 REVERT JUMPDEST PUSH1 0x0 JUMPDEST DUP4 DUP2 LT PUSH2 0x14F9 JUMPI POP POP PUSH1 0x0 SWAP2 ADD MSTORE JUMP JUMPDEST DUP2 DUP2 ADD MLOAD DUP4 DUP3 ADD MSTORE PUSH1 0x20 ADD PUSH2 0x14E9 JUMP JUMPDEST SWAP1 PUSH1 0x20 SWAP2 PUSH2 0x1522 DUP2 MLOAD DUP1 SWAP3 DUP2 DUP6 MSTORE DUP6 DUP1 DUP7 ADD SWAP2 ADD PUSH2 0x14E6 JUMP JUMPDEST PUSH1 0x1F ADD PUSH1 0x1F NOT AND ADD ADD SWAP1 JUMP JUMPDEST SWAP1 DUP2 MLOAD DUP2 MSTORE PUSH1 0x1 DUP1 PUSH1 0xA0 SHL SUB SWAP1 PUSH1 0x20 DUP3 DUP2 DUP6 ADD MLOAD AND DUP2 DUP4 ADD MSTORE PUSH1 0x40 SWAP3 DUP4 DUP6 ADD MLOAD ISZERO ISZERO DUP5 DUP5 ADD MSTORE PUSH1 0x60 PUSH2 0x156D DUP2 DUP8 ADD MLOAD PUSH2 0x1C0 DUP1 DUP5 DUP9 ADD MSTORE DUP7 ADD SWAP1 PUSH2 0x1509 JUMP JUMPDEST SWAP4 PUSH2 0x1584 PUSH1 0x80 SWAP6 DUP7 DUP10 ADD MLOAD DUP4 DUP3 SUB DUP9 DUP6 ADD MSTORE PUSH2 0x1509 JUMP JUMPDEST PUSH2 0x160A PUSH2 0x15F6 PUSH2 0x15E2 PUSH2 0x15CE PUSH2 0x15BC DUP13 PUSH1 0xC0 PUSH2 0x15AC PUSH1 0xA0 SWAP9 DUP10 DUP5 ADD MLOAD DUP12 DUP3 SUB DUP12 DUP14 ADD MSTORE PUSH2 0x1509 JUMP JUMPDEST SWAP2 ADD MLOAD DUP9 DUP3 SUB PUSH1 0xC0 DUP11 ADD MSTORE PUSH2 0x1509 JUMP JUMPDEST PUSH1 0xE0 DUP14 ADD MLOAD DUP8 DUP3 SUB PUSH1 0xE0 DUP10 ADD MSTORE PUSH2 0x1509 JUMP JUMPDEST PUSH2 0x100 DUP1 DUP14 ADD MLOAD SWAP1 DUP8 DUP4 SUB SWAP1 DUP9 ADD MSTORE PUSH2 0x1509 JUMP JUMPDEST PUSH2 0x120 DUP1 DUP13 ADD MLOAD SWAP1 DUP7 DUP4 SUB SWAP1 DUP8 ADD MSTORE PUSH2 0x1509 JUMP JUMPDEST PUSH2 0x140 DUP1 DUP12 ADD MLOAD SWAP1 DUP6 DUP4 SUB SWAP1 DUP7 ADD MSTORE PUSH2 0x1509 JUMP JUMPDEST SWAP6 PUSH2 0x160 DUP1 DUP11 ADD MLOAD SWAP1 DUP5 ADD MSTORE PUSH2 0x180 SWAP7 DUP8 DUP11 ADD MLOAD SWAP8 DUP5 DUP3 SUB SWAP1 DUP6 ADD MSTORE DUP8 MLOAD SWAP2 DUP3 DUP3 MSTORE DUP8 DUP3 ADD SWAP1 DUP9 DUP1 DUP6 PUSH1 0x5 SHL DUP6 ADD ADD SWAP11 ADD SWAP5 PUSH1 0x0 SWAP4 JUMPDEST DUP6 DUP6 LT PUSH2 0x16A7 JUMPI POP POP POP POP POP POP POP PUSH2 0x1A0 DUP1 SWAP8 ADD MLOAD SWAP7 DUP2 DUP7 SUB SWAP2 ADD MSTORE DUP3 DUP1 DUP8 MLOAD SWAP6 DUP7 DUP2 MSTORE ADD SWAP7 ADD SWAP5 PUSH1 0x0 SWAP3 JUMPDEST DUP6 DUP5 LT PUSH2 0x167D JUMPI POP POP POP POP POP POP POP SWAP1 JUMP JUMPDEST DUP7 MLOAD DUP1 MLOAD DUP3 AND DUP10 MSTORE DUP1 DUP7 ADD MLOAD DUP10 DUP8 ADD MSTORE DUP3 ADD MLOAD DUP9 DUP4 ADD MSTORE SWAP7 DUP3 ADD SWAP7 SWAP6 DUP5 ADD SWAP6 PUSH1 0x1 SWAP1 SWAP4 ADD SWAP3 PUSH2 0x166C JUMP JUMPDEST SWAP1 SWAP2 SWAP3 SWAP4 SWAP5 SWAP6 SWAP12 SWAP8 SWAP9 SWAP10 SWAP11 DUP12 DUP1 PUSH2 0x1709 DUP16 PUSH1 0x1 SWAP5 DUP16 DUP16 SWAP3 SWAP1 DUP16 PUSH2 0x16F1 SWAP1 DUP13 SWAP4 DUP15 PUSH1 0x1F NOT DUP14 DUP9 SUB ADD SWAP1 MSTORE MLOAD SWAP3 DUP4 MLOAD AND DUP6 MSTORE DUP8 DUP4 ADD MLOAD DUP9 DUP7 ADD MSTORE DUP12 DUP2 DUP5 ADD MLOAD SWAP2 DUP7 ADD MSTORE DUP12 DUP6 ADD SWAP1 PUSH2 0x1509 JUMP JUMPDEST SWAP4 DUP1 DUP3 ADD MLOAD SWAP1 DUP5 ADD MSTORE ADD MLOAD SWAP1 DUP10 DUP2 DUP5 SUB SWAP2 ADD MSTORE PUSH2 0x1509 JUMP JUMPDEST SWAP15 ADD SWAP6 ADD SWAP6 ADD SWAP4 SWAP6 SWAP5 SWAP3 SWAP2 SWAP1 SWAP12 SWAP11 SWAP10 SWAP9 SWAP8 SWAP12 PUSH2 0x1640 JUMP JUMPDEST PUSH1 0x20 DUP1 DUP3 ADD SWAP1 DUP1 DUP4 MSTORE DUP4 MLOAD DUP1 SWAP3 MSTORE PUSH1 0x40 DUP4 ADD SWAP3 DUP2 PUSH1 0x40 DUP5 PUSH1 0x5 SHL DUP4 ADD ADD SWAP6 ADD SWAP4 PUSH1 0x0 SWAP2 JUMPDEST DUP5 DUP4 LT PUSH2 0x1754 JUMPI POP POP POP POP POP POP SWAP1 JUMP JUMPDEST SWAP1 SWAP2 SWAP3 SWAP4 SWAP5 SWAP6 DUP5 DUP1 PUSH2 0x1772 PUSH1 0x1 SWAP4 PUSH1 0x3F NOT DUP7 DUP3 SUB ADD DUP8 MSTORE DUP11 MLOAD PUSH2 0x152E JUMP JUMPDEST SWAP9 ADD SWAP4 ADD SWAP4 ADD SWAP2 SWAP5 SWAP4 SWAP3 SWAP1 PUSH2 0x1744 JUMP JUMPDEST PUSH1 0x4 CALLDATALOAD SWAP1 PUSH1 0x1 PUSH1 0x1 PUSH1 0xA0 SHL SUB DUP3 AND DUP3 SUB PUSH2 0x14E1 JUMPI JUMP JUMPDEST PUSH1 0x5 SLOAD DUP2 LT ISZERO PUSH2 0x17D3 JUMPI PUSH1 0xD SWAP1 PUSH1 0x5 PUSH1 0x0 MSTORE MUL PUSH32 0x36B6384B5ECA791C62761152D0C79BB0604C104A5FB6F4EB0703F3154BB3DB0 ADD SWAP1 PUSH1 0x0 SWAP1 JUMP JUMPDEST PUSH4 0x4E487B71 PUSH1 0xE0 SHL PUSH1 0x0 MSTORE PUSH1 0x32 PUSH1 0x4 MSTORE PUSH1 0x24 PUSH1 0x0 REVERT JUMPDEST SWAP1 PUSH1 0x1 DUP3 DUP2 SHR SWAP3 AND DUP1 ISZERO PUSH2 0x1819 JUMPI JUMPDEST PUSH1 0x20 DUP4 LT EQ PUSH2 0x1803 JUMPI JUMP JUMPDEST PUSH4 0x4E487B71 PUSH1 0xE0 SHL PUSH1 0x0 MSTORE PUSH1 0x22 PUSH1 0x4 MSTORE PUSH1 0x24 PUSH1 0x0 REVERT JUMPDEST SWAP2 PUSH1 0x7F AND SWAP2 PUSH2 0x17F8 JUMP JUMPDEST DUP2 DUP2 LT PUSH2 0x182E JUMPI POP POP JUMP JUMPDEST PUSH1 0x0 DUP2 SSTORE PUSH1 0x1 ADD PUSH2 0x1823 JUMP JUMPDEST PUSH2 0x1844 DUP2 SLOAD PUSH2 0x17E9 JUMP JUMPDEST SWAP1 DUP2 PUSH2 0x184E JUMPI POP POP JUMP JUMPDEST DUP2 PUSH1 0x1F PUSH1 0x0 SWAP4 GT PUSH1 0x1 EQ PUSH2 0x1861 JUMPI POP SSTORE JUMPDEST JUMP JUMPDEST SWAP1 DUP1 DUP4 SWAP2 DUP3 MSTORE PUSH2 0x1880 PUSH1 0x1F PUSH1 0x20 DUP5 KECCAK256 SWAP5 ADD PUSH1 0x5 SHR DUP5 ADD PUSH1 0x1 DUP6 ADD PUSH2 0x1823 JUMP JUMPDEST SSTORE SSTORE JUMP JUMPDEST PUSH1 0x1 DUP1 PUSH1 0xA0 SHL SUB DUP3 MLOAD AND PUSH12 0xFFFFFFFFFFFFFFFFFFFFFFFF PUSH1 0xA0 SHL DUP3 SLOAD AND OR DUP2 SSTORE PUSH1 0x20 DUP1 DUP4 ADD MLOAD SWAP2 PUSH1 0x1 SWAP3 DUP4 DUP3 ADD SSTORE PUSH1 0x2 DUP2 ADD SWAP2 PUSH1 0x40 DUP6 ADD MLOAD SWAP2 DUP3 MLOAD SWAP4 PUSH1 0x1 PUSH1 0x1 PUSH1 0x40 SHL SUB SWAP5 DUP6 DUP2 GT PUSH2 0x13DB JUMPI PUSH2 0x18DA DUP3 SLOAD PUSH2 0x17E9 JUMP JUMPDEST SWAP5 PUSH1 0x1F SWAP6 DUP7 DUP2 GT PUSH2 0x1A86 JUMPI JUMPDEST POP DUP5 SWAP1 DUP7 DUP4 GT PUSH1 0x1 EQ PUSH2 0x1A18 JUMPI SWAP2 DUP1 PUSH1 0x4 SWAP5 SWAP3 PUSH1 0x80 SWAP7 SWAP5 PUSH1 0x0 SWAP3 PUSH2 0x1A0D JUMPI JUMPDEST POP POP PUSH1 0x0 NOT PUSH1 0x3 DUP4 SWAP1 SHL SHR NOT AND SWAP1 DUP10 SHL OR SWAP1 SSTORE JUMPDEST PUSH1 0x60 DUP9 ADD MLOAD PUSH1 0x3 DUP3 ADD SSTORE ADD SWAP6 ADD MLOAD SWAP1 DUP2 MLOAD SWAP4 DUP5 GT PUSH2 0x13DB JUMPI PUSH2 0x193B DUP7 SLOAD PUSH2 0x17E9 JUMP JUMPDEST DUP4 DUP2 GT PUSH2 0x19DF JUMPI JUMPDEST POP DUP1 SWAP3 DUP5 GT PUSH1 0x1 EQ PUSH2 0x197C JUMPI POP SWAP3 DUP3 SWAP4 SWAP2 DUP4 SWAP3 PUSH1 0x0 SWAP5 PUSH2 0x1971 JUMPI JUMPDEST POP POP SHL SWAP2 PUSH1 0x0 NOT SWAP1 PUSH1 0x3 SHL SHR NOT AND OR SWAP1 SSTORE JUMP JUMPDEST ADD MLOAD SWAP3 POP CODESIZE DUP1 PUSH2 0x195E JUMP JUMPDEST SWAP2 SWAP1 DUP4 PUSH1 0x1F NOT DUP2 AND DUP8 PUSH1 0x0 MSTORE DUP5 PUSH1 0x0 KECCAK256 SWAP5 PUSH1 0x0 SWAP1 JUMPDEST DUP9 DUP4 DUP4 LT PUSH2 0x19C5 JUMPI POP POP POP LT PUSH2 0x19AC JUMPI JUMPDEST POP POP POP DUP2 SHL ADD SWAP1 SSTORE JUMP JUMPDEST ADD MLOAD PUSH1 0x0 NOT PUSH1 0xF8 DUP5 PUSH1 0x3 SHL AND SHR NOT AND SWAP1 SSTORE CODESIZE DUP1 DUP1 PUSH2 0x19A2 JUMP JUMPDEST DUP6 DUP8 ADD MLOAD DUP9 SSTORE SWAP1 SWAP7 ADD SWAP6 SWAP5 DUP6 ADD SWAP5 DUP8 SWAP4 POP SWAP1 DUP2 ADD SWAP1 PUSH2 0x1991 JUMP JUMPDEST PUSH2 0x1A07 SWAP1 DUP8 PUSH1 0x0 MSTORE DUP3 PUSH1 0x0 KECCAK256 DUP6 DUP1 DUP9 ADD PUSH1 0x5 SHR DUP3 ADD SWAP3 DUP6 DUP10 LT PUSH2 0x12F7 JUMPI ADD PUSH1 0x5 SHR ADD SWAP1 PUSH2 0x1823 JUMP JUMPDEST CODESIZE PUSH2 0x1943 JUMP JUMPDEST ADD MLOAD SWAP1 POP CODESIZE DUP1 PUSH2 0x1905 JUMP JUMPDEST DUP9 SWAP3 SWAP2 PUSH1 0x1F NOT DUP4 AND SWAP2 DUP6 PUSH1 0x0 MSTORE DUP8 PUSH1 0x0 KECCAK256 SWAP3 PUSH1 0x0 JUMPDEST DUP10 DUP3 DUP3 LT PUSH2 0x1A70 JUMPI POP POP SWAP2 PUSH1 0x80 SWAP8 SWAP6 SWAP4 SWAP2 DUP6 PUSH1 0x4 SWAP9 SWAP7 SWAP5 LT PUSH2 0x1A57 JUMPI JUMPDEST POP POP POP DUP2 SHL ADD SWAP1 SSTORE PUSH2 0x1919 JUMP JUMPDEST ADD MLOAD PUSH1 0x0 NOT PUSH1 0xF8 DUP5 PUSH1 0x3 SHL AND SHR NOT AND SWAP1 SSTORE CODESIZE DUP1 DUP1 PUSH2 0x1A4A JUMP JUMPDEST DUP4 DUP6 ADD MLOAD DUP7 SSTORE DUP14 SWAP8 SWAP1 SWAP6 ADD SWAP5 SWAP4 DUP5 ADD SWAP4 ADD PUSH2 0x1A2D JUMP JUMPDEST PUSH2 0x1AAE SWAP1 DUP5 PUSH1 0x0 MSTORE DUP7 PUSH1 0x0 KECCAK256 DUP9 DUP1 DUP7 ADD PUSH1 0x5 SHR DUP3 ADD SWAP3 DUP10 DUP8 LT PUSH2 0x12F7 JUMPI ADD PUSH1 0x5 SHR ADD SWAP1 PUSH2 0x1823 JUMP JUMPDEST CODESIZE PUSH2 0x18E6 JUMP JUMPDEST SWAP2 SWAP1 PUSH2 0x24F4 JUMPI DUP1 MLOAD DUP3 SSTORE PUSH1 0x20 DUP2 ADD MLOAD PUSH1 0x1 DUP4 ADD DUP1 SLOAD PUSH1 0x40 DUP5 ADD MLOAD PUSH1 0xFF PUSH1 0xA0 SHL SWAP1 ISZERO ISZERO PUSH1 0xA0 SHL AND PUSH1 0x1 PUSH1 0x1 PUSH1 0xA0 SHL SUB SWAP1 SWAP4 AND PUSH1 0x1 PUSH1 0x1 PUSH1 0xA8 SHL SUB NOT SWAP1 SWAP2 AND OR SWAP2 SWAP1 SWAP2 OR SWAP1 SSTORE PUSH1 0x2 DUP3 ADD PUSH1 0x60 DUP3 ADD MLOAD DUP1 MLOAD SWAP1 PUSH1 0x1 PUSH1 0x1 PUSH1 0x40 SHL SUB DUP3 GT PUSH2 0x13DB JUMPI DUP2 SWAP1 PUSH2 0x1B1E DUP5 SLOAD PUSH2 0x17E9 JUMP JUMPDEST PUSH1 0x1F DUP2 GT PUSH2 0x24C2 JUMPI JUMPDEST POP PUSH1 0x20 SWAP1 PUSH1 0x1F DUP4 GT PUSH1 0x1 EQ PUSH2 0x245C JUMPI PUSH1 0x0 SWAP3 PUSH2 0x2451 JUMPI JUMPDEST POP POP DUP2 PUSH1 0x1 SHL SWAP2 PUSH1 0x0 NOT SWAP1 PUSH1 0x3 SHL SHR NOT AND OR SWAP1 SSTORE JUMPDEST PUSH1 0x3 DUP3 ADD PUSH1 0x80 DUP3 ADD MLOAD DUP1 MLOAD SWAP1 PUSH1 0x1 PUSH1 0x1 PUSH1 0x40 SHL SUB DUP3 GT PUSH2 0x13DB JUMPI DUP2 SWAP1 PUSH2 0x1B79 DUP5 SLOAD PUSH2 0x17E9 JUMP JUMPDEST PUSH1 0x1F DUP2 GT PUSH2 0x241F JUMPI JUMPDEST POP PUSH1 0x20 SWAP1 PUSH1 0x1F DUP4 GT PUSH1 0x1 EQ PUSH2 0x23B9 JUMPI PUSH1 0x0 SWAP3 PUSH2 0x23AE JUMPI JUMPDEST POP POP DUP2 PUSH1 0x1 SHL SWAP2 PUSH1 0x0 NOT SWAP1 PUSH1 0x3 SHL SHR NOT AND OR SWAP1 SSTORE JUMPDEST PUSH1 0x4 DUP3 ADD PUSH1 0xA0 DUP3 ADD MLOAD DUP1 MLOAD SWAP1 PUSH1 0x1 PUSH1 0x1 PUSH1 0x40 SHL SUB DUP3 GT PUSH2 0x13DB JUMPI DUP2 SWAP1 PUSH2 0x1BD4 DUP5 SLOAD PUSH2 0x17E9 JUMP JUMPDEST PUSH1 0x1F DUP2 GT PUSH2 0x237C JUMPI JUMPDEST POP PUSH1 0x20 SWAP1 PUSH1 0x1F DUP4 GT PUSH1 0x1 EQ PUSH2 0x2316 JUMPI PUSH1 0x0 SWAP3 PUSH2 0x230B JUMPI JUMPDEST POP POP DUP2 PUSH1 0x1 SHL SWAP2 PUSH1 0x0 NOT SWAP1 PUSH1 0x3 SHL SHR NOT AND OR SWAP1 SSTORE JUMPDEST PUSH1 0x5 DUP3 ADD PUSH1 0xC0 DUP3 ADD MLOAD DUP1 MLOAD SWAP1 PUSH1 0x1 PUSH1 0x1 PUSH1 0x40 SHL SUB DUP3 GT PUSH2 0x13DB JUMPI DUP2 SWAP1 PUSH2 0x1C2F DUP5 SLOAD PUSH2 0x17E9 JUMP JUMPDEST PUSH1 0x1F DUP2 GT PUSH2 0x22D9 JUMPI JUMPDEST POP PUSH1 0x20 SWAP1 PUSH1 0x1F DUP4 GT PUSH1 0x1 EQ PUSH2 0x2273 JUMPI PUSH1 0x0 SWAP3 PUSH2 0x2268 JUMPI JUMPDEST POP POP DUP2 PUSH1 0x1 SHL SWAP2 PUSH1 0x0 NOT SWAP1 PUSH1 0x3 SHL SHR NOT AND OR SWAP1 SSTORE JUMPDEST PUSH1 0xE0 DUP2 ADD MLOAD SWAP3 DUP4 MLOAD PUSH1 0x1 PUSH1 0x1 PUSH1 0x40 SHL SUB DUP2 GT PUSH2 0x13DB JUMPI PUSH2 0x1C87 PUSH1 0x6 DUP6 ADD SLOAD PUSH2 0x17E9 JUMP JUMPDEST PUSH1 0x1F DUP2 GT PUSH2 0x2233 JUMPI JUMPDEST POP PUSH1 0x20 SWAP5 PUSH1 0x1F DUP3 GT PUSH1 0x1 EQ PUSH2 0x21C7 JUMPI SWAP5 DUP2 SWAP3 SWAP4 SWAP5 SWAP6 PUSH1 0x0 SWAP3 PUSH2 0x21BC JUMPI JUMPDEST POP POP DUP2 PUSH1 0x1 SHL SWAP2 PUSH1 0x0 NOT SWAP1 PUSH1 0x3 SHL SHR NOT AND OR PUSH1 0x6 DUP5 ADD SSTORE JUMPDEST PUSH2 0x100 DUP3 ADD MLOAD SWAP3 DUP4 MLOAD PUSH1 0x1 PUSH1 0x1 PUSH1 0x40 SHL SUB DUP2 GT PUSH2 0x13DB JUMPI PUSH2 0x1CE9 PUSH1 0x7 DUP4 ADD SLOAD PUSH2 0x17E9 JUMP JUMPDEST PUSH1 0x1F DUP2 GT PUSH2 0x2187 JUMPI JUMPDEST POP PUSH1 0x20 PUSH1 0x1F DUP3 GT PUSH1 0x1 EQ PUSH2 0x2118 JUMPI DUP2 SWAP3 SWAP4 SWAP5 SWAP6 PUSH1 0x0 SWAP3 PUSH2 0x210D JUMPI JUMPDEST POP POP DUP2 PUSH1 0x1 SHL SWAP2 PUSH1 0x0 NOT SWAP1 PUSH1 0x3 SHL SHR NOT AND OR PUSH1 0x7 DUP3 ADD SSTORE JUMPDEST PUSH2 0x120 DUP4 ADD MLOAD SWAP3 DUP4 MLOAD PUSH1 0x1 PUSH1 0x1 PUSH1 0x40 SHL SUB DUP2 GT PUSH2 0x13DB JUMPI PUSH2 0x1D49 PUSH1 0x8 DUP5 ADD SLOAD PUSH2 0x17E9 JUMP JUMPDEST PUSH1 0x1F DUP2 GT PUSH2 0x20D8 JUMPI JUMPDEST POP PUSH1 0x20 PUSH1 0x1F DUP3 GT PUSH1 0x1 EQ PUSH2 0x2069 JUMPI DUP2 SWAP3 SWAP4 SWAP5 SWAP6 PUSH1 0x0 SWAP3 PUSH2 0x205E JUMPI JUMPDEST POP POP DUP2 PUSH1 0x1 SHL SWAP2 PUSH1 0x0 NOT SWAP1 PUSH1 0x3 SHL SHR NOT AND OR PUSH1 0x8 DUP4 ADD SSTORE JUMPDEST PUSH1 0x9 DUP3 ADD PUSH2 0x140 DUP3 ADD MLOAD DUP1 MLOAD SWAP1 PUSH1 0x1 PUSH1 0x1 PUSH1 0x40 SHL SUB DUP3 GT PUSH2 0x13DB JUMPI DUP2 SWAP1 PUSH2 0x1DAC DUP5 SLOAD PUSH2 0x17E9 JUMP JUMPDEST PUSH1 0x1F DUP2 GT PUSH2 0x2021 JUMPI JUMPDEST POP PUSH1 0x20 SWAP1 PUSH1 0x1F DUP4 GT PUSH1 0x1 EQ PUSH2 0x1FBB JUMPI PUSH1 0x0 SWAP3 PUSH2 0x1FB0 JUMPI JUMPDEST POP POP DUP2 PUSH1 0x1 SHL SWAP2 PUSH1 0x0 NOT SWAP1 PUSH1 0x3 SHL SHR NOT AND OR SWAP1 SSTORE JUMPDEST PUSH2 0x160 DUP2 ADD MLOAD PUSH1 0xA DUP4 ADD SSTORE PUSH2 0x180 DUP2 ADD MLOAD DUP1 MLOAD PUSH1 0x1 PUSH1 0x40 SHL SWAP4 SWAP2 PUSH1 0xB DUP4 ADD SWAP1 DUP6 DUP4 GT PUSH2 0x13DB JUMPI DUP2 SLOAD DUP4 DUP4 SSTORE DUP1 DUP5 LT PUSH2 0x1F45 JUMPI JUMPDEST POP PUSH1 0x20 ADD SWAP1 PUSH1 0x0 MSTORE PUSH1 0x20 PUSH1 0x0 KECCAK256 PUSH1 0x0 SWAP2 JUMPDEST DUP4 DUP4 LT PUSH2 0x1F27 JUMPI POP POP POP POP PUSH1 0xC PUSH2 0x1A0 SWAP2 ADD SWAP2 ADD MLOAD DUP1 MLOAD SWAP3 DUP4 GT PUSH2 0x13DB JUMPI DUP2 SLOAD DUP4 DUP4 SSTORE DUP1 DUP5 LT PUSH2 0x1EBE JUMPI JUMPDEST POP PUSH1 0x20 ADD SWAP1 PUSH1 0x0 MSTORE PUSH1 0x20 PUSH1 0x0 KECCAK256 PUSH1 0x0 SWAP2 JUMPDEST DUP4 DUP4 LT PUSH2 0x1E6E JUMPI POP POP POP POP JUMP JUMPDEST PUSH1 0x3 PUSH1 0x20 DUP3 PUSH2 0x1EB2 PUSH1 0x1 SWAP5 MLOAD DUP7 SWAP1 PUSH1 0x40 PUSH1 0x2 SWAP2 PUSH1 0x1 DUP1 PUSH1 0xA0 SHL SUB DUP2 MLOAD AND PUSH12 0xFFFFFFFFFFFFFFFFFFFFFFFF PUSH1 0xA0 SHL DUP6 SLOAD AND OR DUP5 SSTORE PUSH1 0x20 DUP2 ADD MLOAD PUSH1 0x1 DUP6 ADD SSTORE ADD MLOAD SWAP2 ADD SSTORE JUMP JUMPDEST ADD SWAP3 ADD SWAP3 ADD SWAP2 SWAP1 PUSH2 0x1E61 JUMP JUMPDEST DUP1 PUSH1 0x3 MUL SWAP1 PUSH1 0x3 DUP3 DIV SUB PUSH2 0x1F11 JUMPI DUP4 PUSH1 0x3 MUL PUSH1 0x3 DUP2 DIV DUP6 SUB PUSH2 0x1F11 JUMPI DUP4 PUSH1 0x0 MSTORE PUSH1 0x20 PUSH1 0x0 KECCAK256 SWAP2 DUP3 ADD SWAP2 ADD JUMPDEST DUP2 DUP2 LT PUSH2 0x1EF6 JUMPI POP PUSH2 0x1E50 JUMP JUMPDEST DUP1 PUSH1 0x0 PUSH1 0x3 SWAP3 SSTORE PUSH1 0x0 PUSH1 0x1 DUP3 ADD SSTORE PUSH1 0x0 PUSH1 0x2 DUP3 ADD SSTORE ADD PUSH2 0x1EE9 JUMP JUMPDEST PUSH4 0x4E487B71 PUSH1 0xE0 SHL PUSH1 0x0 MSTORE PUSH1 0x11 PUSH1 0x4 MSTORE PUSH1 0x24 PUSH1 0x0 REVERT JUMPDEST PUSH1 0x5 PUSH1 0x20 DUP3 PUSH2 0x1F39 PUSH1 0x1 SWAP5 MLOAD DUP7 PUSH2 0x1884 JUMP JUMPDEST ADD SWAP3 ADD SWAP3 ADD SWAP2 SWAP1 PUSH2 0x1E25 JUMP JUMPDEST DUP1 PUSH1 0x5 MUL SWAP1 PUSH1 0x5 DUP3 DIV SUB PUSH2 0x1F11 JUMPI DUP4 PUSH1 0x5 MUL PUSH1 0x5 DUP2 DIV DUP6 SUB PUSH2 0x1F11 JUMPI DUP4 PUSH1 0x0 MSTORE PUSH1 0x20 PUSH1 0x0 KECCAK256 SWAP2 DUP3 ADD SWAP2 ADD JUMPDEST DUP2 DUP2 LT PUSH2 0x1F7D JUMPI POP PUSH2 0x1E14 JUMP JUMPDEST DUP1 PUSH1 0x0 PUSH1 0x5 SWAP3 SSTORE PUSH1 0x0 PUSH1 0x1 DUP3 ADD SSTORE PUSH2 0x1F97 PUSH1 0x2 DUP3 ADD PUSH2 0x183A JUMP JUMPDEST PUSH1 0x0 PUSH1 0x3 DUP3 ADD SSTORE PUSH2 0x1FAA PUSH1 0x4 DUP3 ADD PUSH2 0x183A JUMP JUMPDEST ADD PUSH2 0x1F70 JUMP JUMPDEST ADD MLOAD SWAP1 POP CODESIZE DUP1 PUSH2 0x1DCC JUMP JUMPDEST PUSH1 0x0 DUP6 DUP2 MSTORE PUSH1 0x20 DUP2 KECCAK256 SWAP4 POP PUSH1 0x1F NOT DUP6 AND SWAP1 JUMPDEST DUP2 DUP2 LT PUSH2 0x2009 JUMPI POP SWAP1 DUP5 PUSH1 0x1 SWAP6 SWAP5 SWAP4 SWAP3 LT PUSH2 0x1FF0 JUMPI JUMPDEST POP POP POP DUP2 SHL ADD SWAP1 SSTORE PUSH2 0x1DE1 JUMP JUMPDEST ADD MLOAD PUSH1 0x0 NOT PUSH1 0xF8 DUP5 PUSH1 0x3 SHL AND SHR NOT AND SWAP1 SSTORE CODESIZE DUP1 DUP1 PUSH2 0x1FE3 JUMP JUMPDEST SWAP3 SWAP4 PUSH1 0x20 PUSH1 0x1 DUP2 SWAP3 DUP8 DUP7 ADD MLOAD DUP2 SSTORE ADD SWAP6 ADD SWAP4 ADD PUSH2 0x1FCD JUMP JUMPDEST PUSH2 0x204E SWAP1 DUP6 PUSH1 0x0 MSTORE PUSH1 0x20 PUSH1 0x0 KECCAK256 PUSH1 0x1F DUP6 ADD PUSH1 0x5 SHR DUP2 ADD SWAP2 PUSH1 0x20 DUP7 LT PUSH2 0x2054 JUMPI JUMPDEST PUSH1 0x1F ADD PUSH1 0x5 SHR ADD SWAP1 PUSH2 0x1823 JUMP JUMPDEST CODESIZE PUSH2 0x1DB5 JUMP JUMPDEST SWAP1 SWAP2 POP DUP2 SWAP1 PUSH2 0x2041 JUMP JUMPDEST ADD MLOAD SWAP1 POP CODESIZE DUP1 PUSH2 0x1D6D JUMP JUMPDEST PUSH1 0x8 DUP5 ADD PUSH1 0x0 MSTORE PUSH1 0x20 PUSH1 0x0 KECCAK256 SWAP1 PUSH1 0x0 JUMPDEST PUSH1 0x1F NOT DUP5 AND DUP2 LT PUSH2 0x20C0 JUMPI POP PUSH1 0x1 SWAP4 SWAP5 SWAP6 SWAP7 DUP4 PUSH1 0x1F NOT DUP2 AND LT PUSH2 0x20A7 JUMPI JUMPDEST POP POP POP DUP2 SHL ADD PUSH1 0x8 DUP4 ADD SSTORE PUSH2 0x1D85 JUMP JUMPDEST ADD MLOAD PUSH1 0x0 NOT PUSH1 0xF8 DUP5 PUSH1 0x3 SHL AND SHR NOT AND SWAP1 SSTORE CODESIZE DUP1 DUP1 PUSH2 0x2097 JUMP JUMPDEST SWAP1 SWAP2 PUSH1 0x20 PUSH1 0x1 DUP2 SWAP3 DUP6 DUP12 ADD MLOAD DUP2 SSTORE ADD SWAP4 ADD SWAP2 ADD PUSH2 0x2079 JUMP JUMPDEST PUSH2 0x2107 SWAP1 PUSH1 0x8 DUP6 ADD PUSH1 0x0 MSTORE PUSH1 0x20 PUSH1 0x0 KECCAK256 PUSH1 0x1F DUP5 ADD PUSH1 0x5 SHR DUP2 ADD SWAP2 PUSH1 0x20 DUP6 LT PUSH2 0x2054 JUMPI PUSH1 0x1F ADD PUSH1 0x5 SHR ADD SWAP1 PUSH2 0x1823 JUMP JUMPDEST CODESIZE PUSH2 0x1D52 JUMP JUMPDEST ADD MLOAD SWAP1 POP CODESIZE DUP1 PUSH2 0x1D0D JUMP JUMPDEST PUSH1 0x7 DUP4 ADD PUSH1 0x0 MSTORE PUSH1 0x20 PUSH1 0x0 KECCAK256 SWAP1 PUSH1 0x0 JUMPDEST PUSH1 0x1F NOT DUP5 AND DUP2 LT PUSH2 0x216F JUMPI POP PUSH1 0x1 SWAP4 SWAP5 SWAP6 SWAP7 DUP4 PUSH1 0x1F NOT DUP2 AND LT PUSH2 0x2156 JUMPI JUMPDEST POP POP POP DUP2 SHL ADD PUSH1 0x7 DUP3 ADD SSTORE PUSH2 0x1D25 JUMP JUMPDEST ADD MLOAD PUSH1 0x0 NOT PUSH1 0xF8 DUP5 PUSH1 0x3 SHL AND SHR NOT AND SWAP1 SSTORE CODESIZE DUP1 DUP1 PUSH2 0x2146 JUMP JUMPDEST SWAP1 SWAP2 PUSH1 0x20 PUSH1 0x1 DUP2 SWAP3 DUP6 DUP12 ADD MLOAD DUP2 SSTORE ADD SWAP4 ADD SWAP2 ADD PUSH2 0x2128 JUMP JUMPDEST PUSH2 0x21B6 SWAP1 PUSH1 0x7 DUP5 ADD PUSH1 0x0 MSTORE PUSH1 0x20 PUSH1 0x0 KECCAK256 PUSH1 0x1F DUP5 ADD PUSH1 0x5 SHR DUP2 ADD SWAP2 PUSH1 0x20 DUP6 LT PUSH2 0x2054 JUMPI PUSH1 0x1F ADD PUSH1 0x5 SHR ADD SWAP1 PUSH2 0x1823 JUMP JUMPDEST CODESIZE PUSH2 0x1CF2 JUMP JUMPDEST ADD MLOAD SWAP1 POP CODESIZE DUP1 PUSH2 0x1CAD JUMP JUMPDEST PUSH1 0x1F NOT DUP3 AND SWAP6 PUSH1 0x6 DUP7 ADD PUSH1 0x0 MSTORE PUSH1 0x20 PUSH1 0x0 KECCAK256 SWAP2 PUSH1 0x0 JUMPDEST DUP9 DUP2 LT PUSH2 0x221B JUMPI POP DUP4 PUSH1 0x1 SWAP6 SWAP7 SWAP8 SWAP9 LT PUSH2 0x2202 JUMPI JUMPDEST POP POP POP DUP2 SHL ADD PUSH1 0x6 DUP5 ADD SSTORE PUSH2 0x1CC5 JUMP JUMPDEST ADD MLOAD PUSH1 0x0 NOT PUSH1 0xF8 DUP5 PUSH1 0x3 SHL AND SHR NOT AND SWAP1 SSTORE CODESIZE DUP1 DUP1 PUSH2 0x21F2 JUMP JUMPDEST SWAP2 SWAP3 PUSH1 0x20 PUSH1 0x1 DUP2 SWAP3 DUP7 DUP6 ADD MLOAD DUP2 SSTORE ADD SWAP5 ADD SWAP3 ADD PUSH2 0x21DD JUMP JUMPDEST PUSH2 0x2262 SWAP1 PUSH1 0x6 DUP7 ADD PUSH1 0x0 MSTORE PUSH1 0x20 PUSH1 0x0 KECCAK256 PUSH1 0x1F DUP5 ADD PUSH1 0x5 SHR DUP2 ADD SWAP2 PUSH1 0x20 DUP6 LT PUSH2 0x2054 JUMPI PUSH1 0x1F ADD PUSH1 0x5 SHR ADD SWAP1 PUSH2 0x1823 JUMP JUMPDEST CODESIZE PUSH2 0x1C90 JUMP JUMPDEST ADD MLOAD SWAP1 POP CODESIZE DUP1 PUSH2 0x1C4F JUMP JUMPDEST PUSH1 0x0 DUP6 DUP2 MSTORE PUSH1 0x20 DUP2 KECCAK256 SWAP4 POP PUSH1 0x1F NOT DUP6 AND SWAP1 JUMPDEST DUP2 DUP2 LT PUSH2 0x22C1 JUMPI POP SWAP1 DUP5 PUSH1 0x1 SWAP6 SWAP5 SWAP4 SWAP3 LT PUSH2 0x22A8 JUMPI JUMPDEST POP POP POP DUP2 SHL ADD SWAP1 SSTORE PUSH2 0x1C64 JUMP JUMPDEST ADD MLOAD PUSH1 0x0 NOT PUSH1 0xF8 DUP5 PUSH1 0x3 SHL AND SHR NOT AND SWAP1 SSTORE CODESIZE DUP1 DUP1 PUSH2 0x229B JUMP JUMPDEST SWAP3 SWAP4 PUSH1 0x20 PUSH1 0x1 DUP2 SWAP3 DUP8 DUP7 ADD MLOAD DUP2 SSTORE ADD SWAP6 ADD SWAP4 ADD PUSH2 0x2285 JUMP JUMPDEST PUSH2 0x2305 SWAP1 DUP6 PUSH1 0x0 MSTORE PUSH1 0x20 PUSH1 0x0 KECCAK256 PUSH1 0x1F DUP6 ADD PUSH1 0x5 SHR DUP2 ADD SWAP2 PUSH1 0x20 DUP7 LT PUSH2 0x2054 JUMPI PUSH1 0x1F ADD PUSH1 0x5 SHR ADD SWAP1 PUSH2 0x1823 JUMP JUMPDEST CODESIZE PUSH2 0x1C38 JUMP JUMPDEST ADD MLOAD SWAP1 POP CODESIZE DUP1 PUSH2 0x1BF4 JUMP JUMPDEST PUSH1 0x0 DUP6 DUP2 MSTORE PUSH1 0x20 DUP2 KECCAK256 SWAP4 POP PUSH1 0x1F NOT DUP6 AND SWAP1 JUMPDEST DUP2 DUP2 LT PUSH2 0x2364 JUMPI POP SWAP1 DUP5 PUSH1 0x1 SWAP6 SWAP5 SWAP4 SWAP3 LT PUSH2 0x234B JUMPI JUMPDEST POP POP POP DUP2 SHL ADD SWAP1 SSTORE PUSH2 0x1C09 JUMP JUMPDEST ADD MLOAD PUSH1 0x0 NOT PUSH1 0xF8 DUP5 PUSH1 0x3 SHL AND SHR NOT AND SWAP1 SSTORE CODESIZE DUP1 DUP1 PUSH2 0x233E JUMP JUMPDEST SWAP3 SWAP4 PUSH1 0x20 PUSH1 0x1 DUP2 SWAP3 DUP8 DUP7 ADD MLOAD DUP2 SSTORE ADD SWAP6 ADD SWAP4 ADD PUSH2 0x2328 JUMP JUMPDEST PUSH2 0x23A8 SWAP1 DUP6 PUSH1 0x0 MSTORE PUSH1 0x20 PUSH1 0x0 KECCAK256 PUSH1 0x1F DUP6 ADD PUSH1 0x5 SHR DUP2 ADD SWAP2 PUSH1 0x20 DUP7 LT PUSH2 0x2054 JUMPI PUSH1 0x1F ADD PUSH1 0x5 SHR ADD SWAP1 PUSH2 0x1823 JUMP JUMPDEST CODESIZE PUSH2 0x1BDD JUMP JUMPDEST ADD MLOAD SWAP1 POP CODESIZE DUP1 PUSH2 0x1B99 JUMP JUMPDEST PUSH1 0x0 DUP6 DUP2 MSTORE PUSH1 0x20 DUP2 KECCAK256 SWAP4 POP PUSH1 0x1F NOT DUP6 AND SWAP1 JUMPDEST DUP2 DUP2 LT PUSH2 0x2407 JUMPI POP SWAP1 DUP5 PUSH1 0x1 SWAP6 SWAP5 SWAP4 SWAP3 LT PUSH2 0x23EE JUMPI JUMPDEST POP POP POP DUP2 SHL ADD SWAP1 SSTORE PUSH2 0x1BAE JUMP JUMPDEST ADD MLOAD PUSH1 0x0 NOT PUSH1 0xF8 DUP5 PUSH1 0x3 SHL AND SHR NOT AND SWAP1 SSTORE CODESIZE DUP1 DUP1 PUSH2 0x23E1 JUMP JUMPDEST SWAP3 SWAP4 PUSH1 0x20 PUSH1 0x1 DUP2 SWAP3 DUP8 DUP7 ADD MLOAD DUP2 SSTORE ADD SWAP6 ADD SWAP4 ADD PUSH2 0x23CB JUMP JUMPDEST PUSH2 0x244B SWAP1 DUP6 PUSH1 0x0 MSTORE PUSH1 0x20 PUSH1 0x0 KECCAK256 PUSH1 0x1F DUP6 ADD PUSH1 0x5 SHR DUP2 ADD SWAP2 PUSH1 0x20 DUP7 LT PUSH2 0x2054 JUMPI PUSH1 0x1F ADD PUSH1 0x5 SHR ADD SWAP1 PUSH2 0x1823 JUMP JUMPDEST CODESIZE PUSH2 0x1B82 JUMP JUMPDEST ADD MLOAD SWAP1 POP CODESIZE DUP1 PUSH2 0x1B3E JUMP JUMPDEST PUSH1 0x0 DUP6 DUP2 MSTORE PUSH1 0x20 DUP2 KECCAK256 SWAP4 POP PUSH1 0x1F NOT DUP6 AND SWAP1 JUMPDEST DUP2 DUP2 LT PUSH2 0x24AA JUMPI POP SWAP1 DUP5 PUSH1 0x1 SWAP6 SWAP5 SWAP4 SWAP3 LT PUSH2 0x2491 JUMPI JUMPDEST POP POP POP DUP2 SHL ADD SWAP1 SSTORE PUSH2 0x1B53 JUMP JUMPDEST ADD MLOAD PUSH1 0x0 NOT PUSH1 0xF8 DUP5 PUSH1 0x3 SHL AND SHR NOT AND SWAP1 SSTORE CODESIZE DUP1 DUP1 PUSH2 0x2484 JUMP JUMPDEST SWAP3 SWAP4 PUSH1 0x20 PUSH1 0x1 DUP2 SWAP3 DUP8 DUP7 ADD MLOAD DUP2 SSTORE ADD SWAP6 ADD SWAP4 ADD PUSH2 0x246E JUMP JUMPDEST PUSH2 0x24EE SWAP1 DUP6 PUSH1 0x0 MSTORE PUSH1 0x20 PUSH1 0x0 KECCAK256 PUSH1 0x1F DUP6 ADD PUSH1 0x5 SHR DUP2 ADD SWAP2 PUSH1 0x20 DUP7 LT PUSH2 0x2054 JUMPI PUSH1 0x1F ADD PUSH1 0x5 SHR ADD SWAP1 PUSH2 0x1823 JUMP JUMPDEST CODESIZE PUSH2 0x1B27 JUMP JUMPDEST PUSH4 0x4E487B71 PUSH1 0xE0 SHL PUSH1 0x0 MSTORE PUSH1 0x0 PUSH1 0x4 MSTORE PUSH1 0x24 PUSH1 0x0 REVERT JUMPDEST PUSH2 0x2522 SWAP1 PUSH1 0x20 PUSH1 0x40 MLOAD SWAP3 DUP3 DUP5 DUP1 SWAP5 MLOAD SWAP4 DUP5 SWAP3 ADD PUSH2 0x14E6 JUMP JUMPDEST DUP2 ADD SUB SWAP1 KECCAK256 SWAP1 JUMP JUMPDEST PUSH1 0x0 NOT DUP2 EQ PUSH2 0x1F11 JUMPI PUSH1 0x1 ADD SWAP1 JUMP JUMPDEST SWAP1 PUSH1 0x40 MLOAD SWAP2 DUP3 PUSH1 0x0 DUP3 SLOAD SWAP3 PUSH2 0x254D DUP5 PUSH2 0x17E9 JUMP JUMPDEST SWAP1 DUP2 DUP5 MSTORE PUSH1 0x1 SWAP5 DUP6 DUP2 AND SWAP1 DUP2 PUSH1 0x0 EQ PUSH2 0x25BA JUMPI POP PUSH1 0x1 EQ PUSH2 0x2577 JUMPI JUMPDEST POP POP PUSH2 0x185F SWAP3 POP SUB DUP4 PUSH2 0x145E JUMP JUMPDEST SWAP1 SWAP4 SWAP2 POP PUSH1 0x0 MSTORE PUSH1 0x20 SWAP1 DUP2 PUSH1 0x0 KECCAK256 SWAP4 PUSH1 0x0 SWAP2 JUMPDEST DUP2 DUP4 LT PUSH2 0x25A2 JUMPI POP POP PUSH2 0x185F SWAP4 POP DUP3 ADD ADD CODESIZE DUP1 PUSH2 0x2569 JUMP JUMPDEST DUP6 SLOAD DUP9 DUP5 ADD DUP6 ADD MSTORE SWAP5 DUP6 ADD SWAP5 DUP8 SWAP5 POP SWAP2 DUP4 ADD SWAP2 PUSH2 0x258A JUMP JUMPDEST SWAP2 POP POP PUSH2 0x185F SWAP5 POP PUSH1 0x20 SWAP3 POP PUSH1 0xFF NOT AND DUP3 DUP5 ADD MSTORE ISZERO ISZERO PUSH1 0x5 SHL DUP3 ADD ADD CODESIZE DUP1 PUSH2 0x2569 JUMP JUMPDEST SWAP1 PUSH1 0x40 MLOAD SWAP2 PUSH1 0x20 SWAP3 PUSH2 0x260B DUP5 DUP3 DUP2 PUSH2 0x25FE DUP2 DUP4 ADD SWAP7 DUP8 DUP2 MLOAD SWAP4 DUP5 SWAP3 ADD PUSH2 0x14E6 JUMP JUMPDEST DUP2 ADD SUB DUP1 DUP5 MSTORE ADD DUP3 PUSH2 0x145E JUMP JUMPDEST MLOAD SWAP1 KECCAK256 SWAP2 PUSH2 0x262B PUSH1 0x40 MLOAD SWAP2 DUP3 DUP2 PUSH2 0x25FE DUP2 DUP4 ADD SWAP7 DUP8 DUP2 MLOAD SWAP4 DUP5 SWAP3 ADD PUSH2 0x14E6 JUMP JUMPDEST MLOAD SWAP1 KECCAK256 EQ SWAP1 JUMP JUMPDEST PUSH1 0x1 PUSH1 0x1 PUSH1 0x40 SHL SUB DUP2 GT PUSH2 0x13DB JUMPI PUSH1 0x5 SHL PUSH1 0x20 ADD SWAP1 JUMP JUMPDEST SWAP1 DUP2 SLOAD PUSH2 0x2655 DUP2 PUSH2 0x2632 JUMP JUMPDEST SWAP3 PUSH1 0x40 SWAP4 PUSH2 0x2665 DUP6 MLOAD SWAP2 DUP3 PUSH2 0x145E JUMP JUMPDEST DUP3 DUP2 MSTORE DUP1 SWAP5 PUSH1 0x20 DUP1 SWAP3 ADD SWAP3 PUSH1 0x0 MSTORE DUP2 PUSH1 0x0 KECCAK256 SWAP1 PUSH1 0x0 SWAP4 JUMPDEST DUP6 DUP6 LT PUSH2 0x268B JUMPI POP POP POP POP POP POP JUMP JUMPDEST PUSH1 0x5 DUP5 PUSH1 0x1 SWAP3 DUP5 MLOAD PUSH2 0x269C DUP2 PUSH2 0x140D JUMP JUMPDEST DUP5 DUP1 PUSH1 0xA0 SHL SUB DUP8 SLOAD AND DUP2 MSTORE DUP5 DUP8 ADD SLOAD DUP4 DUP3 ADD MSTORE PUSH2 0x26BB PUSH1 0x2 DUP9 ADD PUSH2 0x2539 JUMP JUMPDEST DUP7 DUP3 ADD MSTORE PUSH1 0x3 DUP8 ADD SLOAD PUSH1 0x60 DUP3 ADD MSTORE PUSH2 0x26D5 PUSH1 0x4 DUP9 ADD PUSH2 0x2539 JUMP JUMPDEST PUSH1 0x80 DUP3 ADD MSTORE DUP2 MSTORE ADD SWAP4 ADD SWAP5 ADD SWAP4 SWAP2 PUSH2 0x267C JUMP JUMPDEST SWAP1 DUP2 SLOAD PUSH2 0x26F4 DUP2 PUSH2 0x2632 JUMP JUMPDEST SWAP3 PUSH1 0x40 SWAP4 PUSH2 0x2704 DUP6 MLOAD SWAP2 DUP3 PUSH2 0x145E JUMP JUMPDEST DUP3 DUP2 MSTORE DUP1 SWAP5 PUSH1 0x20 DUP1 SWAP3 ADD SWAP3 PUSH1 0x0 MSTORE DUP2 PUSH1 0x0 KECCAK256 SWAP1 PUSH1 0x0 SWAP4 JUMPDEST DUP6 DUP6 LT PUSH2 0x272A JUMPI POP POP POP POP POP POP JUMP JUMPDEST PUSH1 0x3 DUP5 PUSH1 0x1 SWAP3 DUP5 MLOAD PUSH2 0x273B DUP2 PUSH2 0x1428 JUMP JUMPDEST DUP5 DUP1 PUSH1 0xA0 SHL SUB DUP8 SLOAD AND DUP2 MSTORE DUP5 DUP8 ADD SLOAD DUP4 DUP3 ADD MSTORE PUSH1 0x2 DUP8 ADD SLOAD DUP7 DUP3 ADD MSTORE DUP2 MSTORE ADD SWAP4 ADD SWAP5 ADD SWAP4 SWAP2 PUSH2 0x271B JUMP JUMPDEST SWAP1 PUSH1 0x40 MLOAD PUSH2 0x2772 DUP2 PUSH2 0x13F1 JUMP JUMPDEST PUSH2 0x1A0 PUSH2 0x284E PUSH1 0xC DUP4 SWAP6 DUP1 SLOAD DUP6 MSTORE PUSH1 0xFF PUSH1 0x1 DUP3 ADD SLOAD PUSH1 0x1 DUP1 PUSH1 0xA0 SHL SUB DUP2 AND PUSH1 0x20 DUP9 ADD MSTORE PUSH1 0xA0 SHR AND ISZERO ISZERO PUSH1 0x40 DUP7 ADD MSTORE PUSH2 0x27AC PUSH1 0x2 DUP3 ADD PUSH2 0x2539 JUMP JUMPDEST PUSH1 0x60 DUP7 ADD MSTORE PUSH2 0x27BD PUSH1 0x3 DUP3 ADD PUSH2 0x2539 JUMP JUMPDEST PUSH1 0x80 DUP7 ADD MSTORE PUSH2 0x27CE PUSH1 0x4 DUP3 ADD PUSH2 0x2539 JUMP JUMPDEST PUSH1 0xA0 DUP7 ADD MSTORE PUSH2 0x27DF PUSH1 0x5 DUP3 ADD PUSH2 0x2539 JUMP JUMPDEST PUSH1 0xC0 DUP7 ADD MSTORE PUSH2 0x27F0 PUSH1 0x6 DUP3 ADD PUSH2 0x2539 JUMP JUMPDEST PUSH1 0xE0 DUP7 ADD MSTORE PUSH2 0x2801 PUSH1 0x7 DUP3 ADD PUSH2 0x2539 JUMP JUMPDEST PUSH2 0x100 DUP7 ADD MSTORE PUSH2 0x2813 PUSH1 0x8 DUP3 ADD PUSH2 0x2539 JUMP JUMPDEST PUSH2 0x120 DUP7 ADD MSTORE PUSH2 0x2825 PUSH1 0x9 DUP3 ADD PUSH2 0x2539 JUMP JUMPDEST PUSH2 0x140 DUP7 ADD MSTORE PUSH1 0xA DUP2 ADD SLOAD PUSH2 0x160 DUP7 ADD MSTORE PUSH2 0x2842 PUSH1 0xB DUP3 ADD PUSH2 0x2649 JUMP JUMPDEST PUSH2 0x180 DUP7 ADD MSTORE ADD PUSH2 0x26E8 JUMP JUMPDEST SWAP2 ADD MSTORE JUMP JUMPDEST SWAP1 DUP2 PUSH1 0x20 SWAP2 SUB SLT PUSH2 0x14E1 JUMPI MLOAD DUP1 ISZERO ISZERO DUP2 SUB PUSH2 0x14E1 JUMPI SWAP1 JUMP JUMPDEST PUSH1 0x40 MLOAD SWAP1 PUSH2 0x2878 DUP3 PUSH2 0x13F1 JUMP JUMPDEST DUP2 PUSH1 0x0 DUP2 MSTORE PUSH1 0x0 PUSH1 0x20 DUP3 ADD MSTORE PUSH1 0x0 PUSH1 0x40 DUP3 ADD MSTORE PUSH2 0x1A0 PUSH1 0x60 SWAP2 DUP3 DUP1 DUP3 ADD MSTORE DUP3 PUSH1 0x80 DUP3 ADD MSTORE DUP3 PUSH1 0xA0 DUP3 ADD MSTORE DUP3 PUSH1 0xC0 DUP3 ADD MSTORE DUP3 PUSH1 0xE0 DUP3 ADD MSTORE DUP3 PUSH2 0x100 DUP3 ADD MSTORE DUP3 PUSH2 0x120 DUP3 ADD MSTORE DUP3 PUSH2 0x140 DUP3 ADD MSTORE PUSH1 0x0 PUSH2 0x160 DUP3 ADD MSTORE DUP3 PUSH2 0x180 DUP3 ADD MSTORE ADD MSTORE JUMP JUMPDEST SWAP1 PUSH2 0x28E0 DUP3 PUSH2 0x2632 JUMP JUMPDEST PUSH2 0x28ED PUSH1 0x40 MLOAD SWAP2 DUP3 PUSH2 0x145E JUMP JUMPDEST DUP3 DUP2 MSTORE DUP1 SWAP3 PUSH2 0x28FE PUSH1 0x1F NOT SWAP2 PUSH2 0x2632 JUMP JUMPDEST ADD SWAP1 PUSH1 0x0 JUMPDEST DUP3 DUP2 LT PUSH2 0x290F JUMPI POP POP POP JUMP JUMPDEST PUSH1 0x20 SWAP1 PUSH2 0x291A PUSH2 0x286B JUMP JUMPDEST DUP3 DUP3 DUP6 ADD ADD MSTORE ADD PUSH2 0x2903 JUMP JUMPDEST DUP1 MLOAD DUP3 LT ISZERO PUSH2 0x17D3 JUMPI PUSH1 0x20 SWAP2 PUSH1 0x5 SHL ADD ADD SWAP1 JUMP JUMPDEST PUSH2 0x2942 PUSH2 0x286B JUMP JUMPDEST POP PUSH1 0x5 SLOAD SWAP1 PUSH1 0x0 JUMPDEST DUP3 DUP2 LT PUSH2 0x2A30 JUMPI POP POP POP PUSH1 0x40 DUP1 MLOAD SWAP1 PUSH2 0x2962 DUP3 PUSH2 0x13F1 JUMP JUMPDEST PUSH1 0x0 DUP3 MSTORE PUSH1 0x0 PUSH1 0x20 DUP4 ADD MSTORE PUSH1 0x0 DUP2 DUP4 ADD MSTORE DUP1 MLOAD PUSH2 0x297E DUP2 PUSH2 0x1443 JUMP JUMPDEST PUSH1 0x0 DUP2 MSTORE PUSH1 0x60 DUP4 ADD MSTORE DUP1 MLOAD PUSH2 0x2992 DUP2 PUSH2 0x1443 JUMP JUMPDEST PUSH1 0x0 DUP2 MSTORE PUSH1 0x80 DUP4 ADD MSTORE DUP1 MLOAD PUSH2 0x29A6 DUP2 PUSH2 0x1443 JUMP JUMPDEST PUSH1 0x0 DUP2 MSTORE PUSH1 0xA0 DUP4 ADD MSTORE DUP1 MLOAD PUSH2 0x29BA DUP2 PUSH2 0x1443 JUMP JUMPDEST PUSH1 0x0 DUP2 MSTORE PUSH1 0xC0 DUP4 ADD MSTORE DUP1 MLOAD PUSH2 0x29CE DUP2 PUSH2 0x1443 JUMP JUMPDEST PUSH1 0x0 DUP2 MSTORE PUSH1 0xE0 DUP4 ADD MSTORE DUP1 MLOAD PUSH2 0x29E2 DUP2 PUSH2 0x1443 JUMP JUMPDEST PUSH1 0x0 DUP2 MSTORE PUSH2 0x100 DUP4 ADD MSTORE DUP1 MLOAD PUSH2 0x29F7 DUP2 PUSH2 0x1443 JUMP JUMPDEST PUSH1 0x0 DUP2 MSTORE PUSH2 0x120 DUP4 ADD MSTORE MLOAD PUSH2 0x2A0B DUP2 PUSH2 0x1443 JUMP JUMPDEST PUSH1 0x0 DUP2 MSTORE PUSH2 0x140 DUP3 ADD MSTORE PUSH1 0x0 PUSH2 0x160 DUP3 ADD MSTORE PUSH1 0x60 PUSH2 0x180 DUP3 ADD MSTORE PUSH1 0x60 PUSH2 0x1A0 DUP3 ADD MSTORE SWAP1 JUMP JUMPDEST PUSH2 0x2A42 DUP3 PUSH2 0x26C PUSH1 0x9 PUSH2 0x265 DUP6 PUSH2 0x1798 JUMP JUMPDEST PUSH2 0x2A54 JUMPI PUSH2 0x2A4F SWAP1 PUSH2 0x252A JUMP JUMPDEST PUSH2 0x294A JUMP JUMPDEST PUSH2 0x2A63 SWAP3 POP PUSH2 0x293 SWAP2 POP PUSH2 0x1798 JUMP JUMPDEST SWAP1 JUMP JUMPDEST PUSH1 0x5 SLOAD SWAP1 PUSH1 0x0 JUMPDEST DUP3 DUP2 LT PUSH2 0x2A7C JUMPI POP POP POP PUSH1 0x0 SWAP1 JUMP JUMPDEST PUSH2 0x2A8E DUP3 PUSH2 0x26C PUSH1 0x9 PUSH2 0x265 DUP6 PUSH2 0x1798 JUMP JUMPDEST PUSH2 0x2AA0 JUMPI PUSH2 0x2A9B SWAP1 PUSH2 0x252A JUMP JUMPDEST PUSH2 0x2A6D JUMP JUMPDEST POP POP POP PUSH1 0x1 SWAP1 JUMP INVALID LOG2 PUSH5 0x6970667358 0x22 SLT KECCAK256 DUP9 MSTORE CALLCODE 0xC0 0x2F PUSH7 0xA362DF35139F7D 0xC7 SDIV 0xEF 0xB9 0x5C PUSH29 0x1816BA82D19F25A9A7B09F884F64736F6C634300081400330000000000 "
        },
        "methodIdentifiers": {
          "addComment(string,uint256,string,string,address)": "93ec02f1",
          "addressToLastGetMetaverseToken(address)": "bddff4d8",
          "buyItem(string,address,uint256)": "d41aab23",
          "changeListingVisibility(string,bool)": "990d6459",
          "get1000MetaverseToken()": "e607a8ba",
          "getAllUserListings()": "9992b606",
          "getListingByProductCode(string)": "bd623642",
          "getListingByProductType(string)": "9dee74d5",
          "getProceeds(address,string)": "a39249b8",
          "getUserListing()": "7791b330",
          "getUserProfile(address)": "987ee156",
          "listItem(uint256,string,string,string,string,string,string,string,string,uint256)": "1a13cc59",
          "metaverseToken()": "3829f313",
          "productCodeExists(string)": "1cad3ac5",
          "setUserProfile(string,string)": "016363fa",
          "updateListing(string,uint256,string,string,string,string,string)": "318bb5c7",
          "withdrawProceeds(string)": "a97ce3c2"
        }
      }
    }
  }
}