{
  "contracts/MetaverseMarketplace.sol": {
    "MetaverseMarketplace": {
      "abi": [
        {
          "inputs": [
            {
              "internalType": "address",
              "name": "_metaverseTokenAddress",
              "type": "address"
            }
          ],
          "stateMutability": "nonpayable",
          "type": "constructor"
        },
        {
          "inputs": [
            {
              "internalType": "address",
              "name": "senderAddress",
              "type": "address"
            }
          ],
          "name": "MetaverseMarketplace__AddressLessThan1DayForMetaverseToken",
          "type": "error"
        },
        {
          "inputs": [],
          "name": "MetaverseMarketplace__NoProceeds",
          "type": "error"
        },
        {
          "inputs": [],
          "name": "MetaverseMarketplace__PriceMustBeAboveZero",
          "type": "error"
        },
        {
          "inputs": [
            {
              "internalType": "string",
              "name": "productCode",
              "type": "string"
            },
            {
              "internalType": "address",
              "name": "seller",
              "type": "address"
            },
            {
              "internalType": "uint256",
              "name": "price",
              "type": "uint256"
            }
          ],
          "name": "MetaverseMarketplace__PriceNotMet",
          "type": "error"
        },
        {
          "inputs": [],
          "name": "ReentrancyGuardReentrantCall",
          "type": "error"
        },
        {
          "anonymous": false,
          "inputs": [
            {
              "indexed": true,
              "internalType": "address",
              "name": "commenter",
              "type": "address"
            },
            {
              "indexed": true,
              "internalType": "string",
              "name": "comment",
              "type": "string"
            },
            {
              "indexed": true,
              "internalType": "string",
              "name": "productCode",
              "type": "string"
            },
            {
              "indexed": false,
              "internalType": "address",
              "name": "seller",
              "type": "address"
            }
          ],
          "name": "CommentAdded",
          "type": "event"
        },
        {
          "anonymous": false,
          "inputs": [
            {
              "indexed": true,
              "internalType": "address",
              "name": "buyer",
              "type": "address"
            },
            {
              "indexed": true,
              "internalType": "string",
              "name": "productCode",
              "type": "string"
            },
            {
              "indexed": true,
              "internalType": "uint256",
              "name": "price",
              "type": "uint256"
            }
          ],
          "name": "ItemBought",
          "type": "event"
        },
        {
          "anonymous": false,
          "inputs": [
            {
              "indexed": true,
              "internalType": "address",
              "name": "seller",
              "type": "address"
            },
            {
              "indexed": true,
              "internalType": "uint256",
              "name": "price",
              "type": "uint256"
            },
            {
              "indexed": true,
              "internalType": "string",
              "name": "productCode",
              "type": "string"
            },
            {
              "indexed": false,
              "internalType": "string",
              "name": "title",
              "type": "string"
            }
          ],
          "name": "ItemListed",
          "type": "event"
        },
        {
          "anonymous": false,
          "inputs": [
            {
              "indexed": true,
              "internalType": "address",
              "name": "seller",
              "type": "address"
            },
            {
              "indexed": true,
              "internalType": "string",
              "name": "productCode",
              "type": "string"
            },
            {
              "indexed": true,
              "internalType": "bool",
              "name": "publish",
              "type": "bool"
            }
          ],
          "name": "ItemPublished",
          "type": "event"
        },
        {
          "anonymous": false,
          "inputs": [
            {
              "indexed": true,
              "internalType": "address",
              "name": "seller",
              "type": "address"
            },
            {
              "indexed": true,
              "internalType": "string",
              "name": "productCode",
              "type": "string"
            },
            {
              "indexed": true,
              "internalType": "string",
              "name": "title",
              "type": "string"
            },
            {
              "indexed": false,
              "internalType": "uint256",
              "name": "price",
              "type": "uint256"
            }
          ],
          "name": "ListingUpdated",
          "type": "event"
        },
        {
          "anonymous": false,
          "inputs": [
            {
              "indexed": true,
              "internalType": "address",
              "name": "person",
              "type": "address"
            }
          ],
          "name": "MetaverseAirdrop",
          "type": "event"
        },
        {
          "anonymous": false,
          "inputs": [
            {
              "indexed": true,
              "internalType": "address",
              "name": "person",
              "type": "address"
            },
            {
              "indexed": true,
              "internalType": "string",
              "name": "currency",
              "type": "string"
            },
            {
              "indexed": true,
              "internalType": "uint256",
              "name": "amount",
              "type": "uint256"
            }
          ],
          "name": "ProceedsWithdrawn",
          "type": "event"
        },
        {
          "anonymous": false,
          "inputs": [
            {
              "indexed": true,
              "internalType": "address",
              "name": "owner",
              "type": "address"
            },
            {
              "indexed": true,
              "internalType": "string",
              "name": "username",
              "type": "string"
            }
          ],
          "name": "SetUsername",
          "type": "event"
        },
        {
          "inputs": [
            {
              "internalType": "string",
              "name": "comment",
              "type": "string"
            },
            {
              "internalType": "uint256",
              "name": "rating",
              "type": "uint256"
            },
            {
              "internalType": "string",
              "name": "dateString",
              "type": "string"
            },
            {
              "internalType": "string",
              "name": "productCode",
              "type": "string"
            },
            {
              "internalType": "address",
              "name": "seller",
              "type": "address"
            }
          ],
          "name": "addComment",
          "outputs": [],
          "stateMutability": "nonpayable",
          "type": "function"
        },
        {
          "inputs": [
            {
              "internalType": "address",
              "name": "",
              "type": "address"
            }
          ],
          "name": "addressToLastGetMetaverseToken",
          "outputs": [
            {
              "internalType": "uint256",
              "name": "",
              "type": "uint256"
            }
          ],
          "stateMutability": "view",
          "type": "function"
        },
        {
          "inputs": [
            {
              "internalType": "string",
              "name": "productCode",
              "type": "string"
            },
            {
              "internalType": "address",
              "name": "seller",
              "type": "address"
            },
            {
              "internalType": "uint256",
              "name": "quantity",
              "type": "uint256"
            }
          ],
          "name": "buyItem",
          "outputs": [],
          "stateMutability": "payable",
          "type": "function"
        },
        {
          "inputs": [
            {
              "internalType": "string",
              "name": "productCode",
              "type": "string"
            },
            {
              "internalType": "bool",
              "name": "publish",
              "type": "bool"
            }
          ],
          "name": "changeListingVisibility",
          "outputs": [],
          "stateMutability": "nonpayable",
          "type": "function"
        },
        {
          "inputs": [],
          "name": "get1000MetaverseToken",
          "outputs": [],
          "stateMutability": "nonpayable",
          "type": "function"
        },
        {
          "inputs": [],
          "name": "getAllUserListings",
          "outputs": [
            {
              "components": [
                {
                  "internalType": "uint256",
                  "name": "price",
                  "type": "uint256"
                },
                {
                  "internalType": "address",
                  "name": "seller",
                  "type": "address"
                },
                {
                  "internalType": "bool",
                  "name": "published",
                  "type": "bool"
                },
                {
                  "internalType": "string",
                  "name": "productType",
                  "type": "string"
                },
                {
                  "internalType": "string",
                  "name": "title",
                  "type": "string"
                },
                {
                  "internalType": "string",
                  "name": "description",
                  "type": "string"
                },
                {
                  "internalType": "string",
                  "name": "imageUrl",
                  "type": "string"
                },
                {
                  "internalType": "string",
                  "name": "currency",
                  "type": "string"
                },
                {
                  "internalType": "string",
                  "name": "productUrl",
                  "type": "string"
                },
                {
                  "internalType": "string",
                  "name": "productInfo",
                  "type": "string"
                },
                {
                  "internalType": "string",
                  "name": "productCode",
                  "type": "string"
                },
                {
                  "internalType": "uint256",
                  "name": "nftTokenId",
                  "type": "uint256"
                },
                {
                  "components": [
                    {
                      "internalType": "address",
                      "name": "commenter",
                      "type": "address"
                    },
                    {
                      "internalType": "uint256",
                      "name": "rating",
                      "type": "uint256"
                    },
                    {
                      "internalType": "string",
                      "name": "comment",
                      "type": "string"
                    },
                    {
                      "internalType": "uint256",
                      "name": "time",
                      "type": "uint256"
                    },
                    {
                      "internalType": "string",
                      "name": "dateString",
                      "type": "string"
                    }
                  ],
                  "internalType": "struct MetaverseMarketplace.Comment[]",
                  "name": "comments",
                  "type": "tuple[]"
                },
                {
                  "components": [
                    {
                      "internalType": "address",
                      "name": "buyer",
                      "type": "address"
                    },
                    {
                      "internalType": "uint256",
                      "name": "quantity",
                      "type": "uint256"
                    },
                    {
                      "internalType": "uint256",
                      "name": "totalPrice",
                      "type": "uint256"
                    }
                  ],
                  "internalType": "struct MetaverseMarketplace.Buyer[]",
                  "name": "buyers",
                  "type": "tuple[]"
                }
              ],
              "internalType": "struct MetaverseMarketplace.Listing[]",
              "name": "",
              "type": "tuple[]"
            }
          ],
          "stateMutability": "view",
          "type": "function"
        },
        {
          "inputs": [
            {
              "internalType": "string",
              "name": "productType",
              "type": "string"
            }
          ],
          "name": "getListingByProductType",
          "outputs": [
            {
              "components": [
                {
                  "internalType": "uint256",
                  "name": "price",
                  "type": "uint256"
                },
                {
                  "internalType": "address",
                  "name": "seller",
                  "type": "address"
                },
                {
                  "internalType": "bool",
                  "name": "published",
                  "type": "bool"
                },
                {
                  "internalType": "string",
                  "name": "productType",
                  "type": "string"
                },
                {
                  "internalType": "string",
                  "name": "title",
                  "type": "string"
                },
                {
                  "internalType": "string",
                  "name": "description",
                  "type": "string"
                },
                {
                  "internalType": "string",
                  "name": "imageUrl",
                  "type": "string"
                },
                {
                  "internalType": "string",
                  "name": "currency",
                  "type": "string"
                },
                {
                  "internalType": "string",
                  "name": "productUrl",
                  "type": "string"
                },
                {
                  "internalType": "string",
                  "name": "productInfo",
                  "type": "string"
                },
                {
                  "internalType": "string",
                  "name": "productCode",
                  "type": "string"
                },
                {
                  "internalType": "uint256",
                  "name": "nftTokenId",
                  "type": "uint256"
                },
                {
                  "components": [
                    {
                      "internalType": "address",
                      "name": "commenter",
                      "type": "address"
                    },
                    {
                      "internalType": "uint256",
                      "name": "rating",
                      "type": "uint256"
                    },
                    {
                      "internalType": "string",
                      "name": "comment",
                      "type": "string"
                    },
                    {
                      "internalType": "uint256",
                      "name": "time",
                      "type": "uint256"
                    },
                    {
                      "internalType": "string",
                      "name": "dateString",
                      "type": "string"
                    }
                  ],
                  "internalType": "struct MetaverseMarketplace.Comment[]",
                  "name": "comments",
                  "type": "tuple[]"
                },
                {
                  "components": [
                    {
                      "internalType": "address",
                      "name": "buyer",
                      "type": "address"
                    },
                    {
                      "internalType": "uint256",
                      "name": "quantity",
                      "type": "uint256"
                    },
                    {
                      "internalType": "uint256",
                      "name": "totalPrice",
                      "type": "uint256"
                    }
                  ],
                  "internalType": "struct MetaverseMarketplace.Buyer[]",
                  "name": "buyers",
                  "type": "tuple[]"
                }
              ],
              "internalType": "struct MetaverseMarketplace.Listing[]",
              "name": "",
              "type": "tuple[]"
            }
          ],
          "stateMutability": "view",
          "type": "function"
        },
        {
          "inputs": [
            {
              "internalType": "address",
              "name": "seller",
              "type": "address"
            },
            {
              "internalType": "string",
              "name": "currency",
              "type": "string"
            }
          ],
          "name": "getProceeds",
          "outputs": [
            {
              "internalType": "uint256",
              "name": "",
              "type": "uint256"
            }
          ],
          "stateMutability": "view",
          "type": "function"
        },
        {
          "inputs": [],
          "name": "getUserListing",
          "outputs": [
            {
              "components": [
                {
                  "internalType": "uint256",
                  "name": "price",
                  "type": "uint256"
                },
                {
                  "internalType": "address",
                  "name": "seller",
                  "type": "address"
                },
                {
                  "internalType": "bool",
                  "name": "published",
                  "type": "bool"
                },
                {
                  "internalType": "string",
                  "name": "productType",
                  "type": "string"
                },
                {
                  "internalType": "string",
                  "name": "title",
                  "type": "string"
                },
                {
                  "internalType": "string",
                  "name": "description",
                  "type": "string"
                },
                {
                  "internalType": "string",
                  "name": "imageUrl",
                  "type": "string"
                },
                {
                  "internalType": "string",
                  "name": "currency",
                  "type": "string"
                },
                {
                  "internalType": "string",
                  "name": "productUrl",
                  "type": "string"
                },
                {
                  "internalType": "string",
                  "name": "productInfo",
                  "type": "string"
                },
                {
                  "internalType": "string",
                  "name": "productCode",
                  "type": "string"
                },
                {
                  "internalType": "uint256",
                  "name": "nftTokenId",
                  "type": "uint256"
                },
                {
                  "components": [
                    {
                      "internalType": "address",
                      "name": "commenter",
                      "type": "address"
                    },
                    {
                      "internalType": "uint256",
                      "name": "rating",
                      "type": "uint256"
                    },
                    {
                      "internalType": "string",
                      "name": "comment",
                      "type": "string"
                    },
                    {
                      "internalType": "uint256",
                      "name": "time",
                      "type": "uint256"
                    },
                    {
                      "internalType": "string",
                      "name": "dateString",
                      "type": "string"
                    }
                  ],
                  "internalType": "struct MetaverseMarketplace.Comment[]",
                  "name": "comments",
                  "type": "tuple[]"
                },
                {
                  "components": [
                    {
                      "internalType": "address",
                      "name": "buyer",
                      "type": "address"
                    },
                    {
                      "internalType": "uint256",
                      "name": "quantity",
                      "type": "uint256"
                    },
                    {
                      "internalType": "uint256",
                      "name": "totalPrice",
                      "type": "uint256"
                    }
                  ],
                  "internalType": "struct MetaverseMarketplace.Buyer[]",
                  "name": "buyers",
                  "type": "tuple[]"
                }
              ],
              "internalType": "struct MetaverseMarketplace.Listing[]",
              "name": "",
              "type": "tuple[]"
            }
          ],
          "stateMutability": "view",
          "type": "function"
        },
        {
          "inputs": [
            {
              "internalType": "uint256",
              "name": "price",
              "type": "uint256"
            },
            {
              "internalType": "string",
              "name": "productType",
              "type": "string"
            },
            {
              "internalType": "string",
              "name": "title",
              "type": "string"
            },
            {
              "internalType": "string",
              "name": "description",
              "type": "string"
            },
            {
              "internalType": "string",
              "name": "imageUrl",
              "type": "string"
            },
            {
              "internalType": "string",
              "name": "currency",
              "type": "string"
            },
            {
              "internalType": "string",
              "name": "productUrl",
              "type": "string"
            },
            {
              "internalType": "string",
              "name": "productInfo",
              "type": "string"
            },
            {
              "internalType": "string",
              "name": "productCode",
              "type": "string"
            },
            {
              "internalType": "uint256",
              "name": "nftTokenId",
              "type": "uint256"
            }
          ],
          "name": "listItem",
          "outputs": [],
          "stateMutability": "nonpayable",
          "type": "function"
        },
        {
          "inputs": [],
          "name": "metaverseToken",
          "outputs": [
            {
              "internalType": "contract IERC20",
              "name": "",
              "type": "address"
            }
          ],
          "stateMutability": "view",
          "type": "function"
        },
        {
          "inputs": [
            {
              "internalType": "string",
              "name": "productCode",
              "type": "string"
            }
          ],
          "name": "productCodeExists",
          "outputs": [
            {
              "internalType": "bool",
              "name": "",
              "type": "bool"
            }
          ],
          "stateMutability": "view",
          "type": "function"
        },
        {
          "inputs": [
            {
              "internalType": "string",
              "name": "newUsername",
              "type": "string"
            }
          ],
          "name": "setUsername",
          "outputs": [],
          "stateMutability": "nonpayable",
          "type": "function"
        },
        {
          "inputs": [
            {
              "internalType": "string",
              "name": "productCode",
              "type": "string"
            },
            {
              "internalType": "uint256",
              "name": "price",
              "type": "uint256"
            },
            {
              "internalType": "string",
              "name": "title",
              "type": "string"
            },
            {
              "internalType": "string",
              "name": "description",
              "type": "string"
            },
            {
              "internalType": "string",
              "name": "productInfo",
              "type": "string"
            },
            {
              "internalType": "string",
              "name": "productUrl",
              "type": "string"
            },
            {
              "internalType": "string",
              "name": "imageUrl",
              "type": "string"
            }
          ],
          "name": "updateListing",
          "outputs": [],
          "stateMutability": "nonpayable",
          "type": "function"
        },
        {
          "inputs": [
            {
              "internalType": "string",
              "name": "currency",
              "type": "string"
            }
          ],
          "name": "withdrawProceeds",
          "outputs": [],
          "stateMutability": "nonpayable",
          "type": "function"
        }
      ],
      "evm": {
        "bytecode": {
          "linkReferences": {},
          "object": "60803461007957601f6126a238819003918201601f19168301916001600160401b0383118484101761007e5780849260209460405283398101031261007957516001600160a01b03811690819003610079576001600055600480546001600160a01b03191691909117905560405161260d90816100958239f35b600080fd5b634e487b7160e01b600052604160045260246000fdfe608060405260048036101561001357600080fd5b6000803560e01c80631a13cc5914610e9e5780631cad3ac514610e5b578063318bb5c714610c095780633829f31314610be15780637791b33014610b6157806393ec02f1146109d3578063990d6459146108fe5780639992b606146108725780639dee74d5146107cf578063a39249b814610753578063a97ce3c214610601578063bddff4d8146105c8578063d41aab2314610355578063e607a8ba146102435763ed59313a146100c357600080fd5b346102405760208060031936011261023c576001600160401b03928035848111610238576100f49036908301611131565b91338452600281526040842091835195861161022557506101158254611469565b601f81116101ec575b5080601f8611600114610185575093808495610152959161017a575b508160011b916000199060031b1c1916179055612189565b337fcfa484be7b1d89ac1b8203c2067a8efdffde3d5e5ec8a446cf9c54cb01c7e20b8380a380f35b90508301513861013a565b90601f1986168386528286209286905b8282106101d45750509186916101529697600194106101bb575b5050811b019055612189565b85015160001960f88460031b161c1916905538806101af565b80600185968294968a01518155019501930190610195565b61021590838652828620601f880160051c81019184891061021b575b601f0160051c01906114a3565b3861011e565b9091508190610208565b634e487b7160e01b855260419052602484fd5b8380fd5b5080fd5b80fd5b50346102405780600319360112610240573381526020600381526040822054420342811161034257620151801161032b5780829333845260038252426040852055604460018060a01b0382541691604051958693849263a9059cbb60e01b84523390840152683635c9adc5dea0000060248401525af18015610320576102ed575b82337f561f98adfb5df58a7c3c03f4ada643cc46c1a5291389819dbd6d01fe490481498280a280f35b81813d8311610319575b61030181836110f5565b8101031261023c5751801515036102405738806102c4565b503d6102f7565b6040513d85823e3d90fd5b60405163fca47e3160e01b81523381850152602490fd5b634e487b7160e01b835260118452602483fd5b5090606090816003193601126105c45780356001600160401b038111610238576103829036908301611131565b6001600160a01b0360248035828116959394919391908690036105c05760449384359260028954146105af5760028955885b6005548110156105a1576103dc886103d760096103d085611418565b50016121b8565b61225c565b6103ee576103e9906121a9565b6103b4565b949596976104046103fe87611418565b506123e4565b9788519182341061057257505050508551948584029584870414841517156105605760405195610433876110da565b338752602094858801526040870152838701511688526001938484526104708460408b2060e08a015190826040519483868095519384920161117d565b82019081520301902080549034820180921161054e5755600c9061049390611418565b500191825494600160401b86101561053c57850180845585101561052b57505086528520825160039092020180546001600160a01b0319166001600160a01b0392909216919091178155602082015160018201556040909101516002909101556104fe905191612189565b337f253fcd678c758e0e03dbf3a0243701c7439c306a61158b3c522a8119772990108480a45b6001815580f35b634e487b7160e01b89526032905287fd5b50634e487b7160e01b89526041905287fd5b634e487b7160e01b8b5260118552838bfd5b50634e487b7160e01b88526011825287fd5b604051630e90db8560e31b815295860193909352849392610596606486018c6111a0565b938501528301520390fd5b505050505050505050610524565b604051633ee5aeb560e01b81528390fd5b8680fd5b8280fd5b5034610240576020366003190112610240576020906040906001600160a01b036105f0611402565b168152600383522054604051908152f35b50903461023c576020806003193601126105c45781356001600160401b038111610238576106329036908401611131565b338452600182526040842060405183818451938286019461065481848861117d565b8201908152030190205490811561074257610687848792338452600182526040842060405180948193895192839161117d565b820190815203019020558480808084335af191823d1561073d573d6106ab81611116565b906106b960405192836110f5565b815287863d92013e5b610708575b5050156106d2578280f35b60405162461bcd60e51b815291820152601060248201526f5472616e73666572206661696c65642160801b604482015260649150fd5b61071190612189565b337ff2ca3efe12f71d386ef0fd2b75ebbef402882711943ccb42d5bdb696fa7a13418780a438806106c7565b6106c2565b60405163125d726b60e21b81528590fd5b50903461023c57604036600319011261023c5761076e611402565b906024356001600160401b0381116102385791604060209461079786946107bd96369101611131565b6001600160a01b039093168152600184522060405182519094859382908590870161117d565b82019081520301902054604051908152f35b50903461023c57602036600319011261023c578035906001600160401b0382116105c4576107ff91369101611131565b6005549061080c826124d2565b925b828110610827576040518061082386826111c5565b0390f35b8061083d836103d760026103d061084696611418565b61084b576121a9565b61080e565b6108576103fe82611418565b6108618287612581565b5261086c8186612581565b506121a9565b503461024057806003193601126102405760055461088f816122b1565b9061089d60405192836110f5565b808252600583527f036b6384b5eca791c62761152d0c79bb0604c104a5fb6f4eb0703f3154bb3db09260208084015b8383106108e1576040518061082387826111c5565b600d826001926108f0896123e4565b8152019601920191946108cc565b50903461023c57604036600319011261023c578035906001600160401b0382116105c45761092e91369101611131565b602435908115159081830361023857835b6005548110156109cc5761095b826103d760096103d085611418565b61096d57610968906121a9565b61093f565b6109a49293600161098061099f93611418565b5001805460ff60a01b191691151560a01b60ff60a01b16919091179055565b612189565b337f51dabe03dbc9869cdc42f327348910c055732b793c7aaade368a32d8f3658e1e8480a480f35b5050505080f35b50903461023c5760a036600319011261023c576001600160401b03813581811161023857610a049036908401611131565b906024928335926044358381116105c057610a229036908401611131565b926064359081116105c057610a3a9036908401611131565b926084356001600160a01b0381169390849003610b5d57875b60058054821015610b5157610a70876103d760096103d086611418565b610a835750610a7e906121a9565b610a53565b9192939495969790610a96600b91611418565b50019060405194610aa6866110bf565b3386526020998a8701528660408701524260608701526080860152815493600160401b851015610b405760018501808455851015610b2f575050610b2293610b1c937f8bb52eee1b68032569fa2c483528d7d2b7db7824b9704ee675f7202956220865969361099f938c528a8c20910201611504565b93612189565b936040519283523392a480f35b634e487b7160e01b8b526032905289fd5b634e487b7160e01b8b526041905289fd5b50505050505050505080f35b8780fd5b5034610240578060031936011261024057600554610b7e816124d2565b915b818110610b95576040518061082385826111c5565b80610ba2610bbb92611418565b50600101546001600160a01b03163314610bc0576121a9565b610b80565b610bcc6103fe82611418565b610bd68286612581565b5261086c8185612581565b50903461023c578160031936011261023c57546040516001600160a01b039091168152602090f35b50903461023c5760e036600319011261023c576001600160401b03813581811161023857610c3a9036908401611131565b604435828111610e5757610c519036908501611131565b91606435818111610e5357610c699036908601611131565b936084358281116105c057610c819036908301611131565b9160a435818111610b5d57610c999036908401611131565b9160c435918211610b5d57610cb091369101611131565b91865b600554811015610e4957610ccf856103d760096103d085611418565b610ce157610cdc906121a9565b610cb3565b92939495610cee84611418565b506001908101546001600160a01b03169590610d0986611418565b50015492610d1686611418565b5094610d2187611418565b50610d2b88611418565b5093610d3689611418565b50600a015495610d458a611418565b5097610d508b611418565b50996040519c610d5f8e61108d565b6024358e5260208e015260ff60a092831c16151560408e0152610d84906002016121b8565b60608d01528d60808d01528b015260c08a0152600601610da3906121b8565b60e0890152610100880152610120870152600901610dc0906121b8565b610140860152610160850152600b01610dd8906122c8565b610180840152600c01610dea90612367565b6101a0830152610df990611418565b610e03929161173e565b610e0c90612189565b90610e1690612189565b906040516024358152339060207f384c5f98880fad6ed933597fe4becd24246db16d5a262945362c7ace0a0e47b591a480f35b5050505050505080f35b8580fd5b8480fd5b5034610240576020366003190112610240578135906001600160401b038211610240576020610e94610e8f36858701611131565b612595565b6040519015158152f35b50903461023c5761014090816003193601126105c4578035906001600160401b0390602435828111610e5357610ed79036908301611131565b906044358381116105c057610eef9036908301611131565b94606435848111610b5d57610f079036908401611131565b9360843581811161108957610f1f9036908501611131565b60a43582811161108557610f369036908601611131565b60c43583811161108157610f4d9036908701611131565b9160e43584811161107d57610f659036908801611131565b936101043590811161107d57610f7e9036908801611131565b97891561106c579088959493929160405198610f998a61108d565b8b8a523360208b01528d60408b015260608a01528b60808a015260a089015260c088015260e087015261010086015261012085015283015261012435610160830152606061018083015260606101a083015260055490600160401b821015611059575061101a929161101482600161099f9401600555611418565b9061173e565b917f9ec512f6157daf19471fdb4abc754cd622ce54571fda42c4c416ff378b0415836040516020815280611053339460208301906111a0565b0390a480f35b634e487b7160e01b875260419052602486fd5b604051635ebde5f560e11b81528790fd5b8b80fd5b8a80fd5b8980fd5b8880fd5b6101c081019081106001600160401b038211176110a957604052565b634e487b7160e01b600052604160045260246000fd5b60a081019081106001600160401b038211176110a957604052565b606081019081106001600160401b038211176110a957604052565b90601f801991011681019081106001600160401b038211176110a957604052565b6001600160401b0381116110a957601f01601f191660200190565b81601f820112156111785780359061114882611116565b9261115660405194856110f5565b8284526020838301011161117857816000926020809301838601378301015290565b600080fd5b60005b8381106111905750506000910152565b8181015183820152602001611180565b906020916111b98151809281855285808601910161117d565b601f01601f1916010190565b602081016020825282518091526040820191602060408360051b8301019401926000915b8383106111f857505050505090565b9091929394603f198282030183528551908151815260018060a01b0360208301511660208201526040820151151560408201526112df6112cb6112b76112a361129061127d61126b61125960608a01516101c08060608c01528a01906111a0565b60808a015189820360808b01526111a0565b60a089015188820360a08a01526111a0565b60c08089015190888303908901526111a0565b60e08088015190878303908801526111a0565b6101008087015190868303908701526111a0565b6101208086015190858303908601526111a0565b6101408085015190848303908501526111a0565b90610160808401519082015261018091828401519282820390830152825180825260208201906020808260051b85010195019260005b8281106113925750505050506101a08093015192818303910152602080835192838152019201906000905b80821061135f57505050602080600192970193019301919392906111e9565b9091926020606060019260408751858060a01b038151168352848101518584015201516040820152019401920190611340565b90919293956020806113f5600193601f198782030189528a5190858060a01b038251168152838201518482015260806113da604084015160a0604085015260a08401906111a0565b926060810151606084015201519060808184039101526111a0565b9801950193929101611315565b600435906001600160a01b038216820361117857565b60055481101561145357600d906005600052027f036b6384b5eca791c62761152d0c79bb0604c104a5fb6f4eb0703f3154bb3db00190600090565b634e487b7160e01b600052603260045260246000fd5b90600182811c92168015611499575b602083101461148357565b634e487b7160e01b600052602260045260246000fd5b91607f1691611478565b8181106114ae575050565b600081556001016114a3565b6114c48154611469565b90816114ce575050565b81601f600093116001146114e15750555b565b908083918252611500601f60208420940160051c8401600185016114a3565b5555565b60018060a01b038251166bffffffffffffffffffffffff60a01b825416178155602080830151916001928382015560028101916040850151918251936001600160401b03948581116110a95761155a8254611469565b94601f95868111611710575b5084908683116001146116a25791806004949260809694600092611697575b5050600019600383901b1c191690891b1790555b60608801516003820155019501519081519384116110a9576115bb8654611469565b83811161165f575b50809284116001146115fc57509282939183926000946115f1575b50501b916000199060031b1c1916179055565b0151925038806115de565b919083601f1981168760005284600020946000905b88838310611645575050501061162c575b505050811b019055565b015160001960f88460031b161c19169055388080611622565b858701518855909601959485019487935090810190611611565b6116889087600052826000208580880160051c82019285891061168e575b0160051c01906114a3565b386115c3565b9250819261167d565b015190503880611585565b889291601f1983169185600052876000209260005b898282106116fa57505091608097959391856004989694106116e1575b505050811b019055611599565b015160001960f88460031b161c191690553880806116d4565b8385015186558d979095019493840193016116b7565b6117389084600052866000208880860160051c82019289871061168e570160051c01906114a3565b38611566565b919061217357805182556020810151600183018054604084015160ff60a01b90151560a01b166001600160a01b039093166001600160a81b0319909116179190911790556002820160608201518051906001600160401b0382116110a95781906117a88454611469565b601f8111612141575b50602090601f83116001146120db576000926120d0575b50508160011b916000199060031b1c19161790555b6003820160808201518051906001600160401b0382116110a95781906118038454611469565b601f811161209e575b50602090601f83116001146120385760009261202d575b50508160011b916000199060031b1c19161790555b6004820160a08201518051906001600160401b0382116110a957819061185e8454611469565b601f8111611ffb575b50602090601f8311600114611f9557600092611f8a575b50508160011b916000199060031b1c19161790555b6005820160c08201518051906001600160401b0382116110a95781906118b98454611469565b601f8111611f58575b50602090601f8311600114611ef257600092611ee7575b50508160011b916000199060031b1c19161790555b60e08101519283516001600160401b0381116110a9576119116006850154611469565b601f8111611eb2575b50602094601f8211600114611e4657948192939495600092611e3b575b50508160011b916000199060031b1c19161760068401555b6101008201519283516001600160401b0381116110a9576119736007830154611469565b601f8111611e06575b506020601f8211600114611d97578192939495600092611d8c575b50508160011b916000199060031b1c19161760078201555b6101208301519283516001600160401b0381116110a9576119d36008840154611469565b601f8111611d57575b506020601f8211600114611ce8578192939495600092611cdd575b50508160011b916000199060031b1c19161760088301555b600982016101408201518051906001600160401b0382116110a9578190611a368454611469565b601f8111611cab575b50602090601f8311600114611c4557600092611c3a575b50508160011b916000199060031b1c19161790555b610160810151600a8301556101808101518051600160401b9391600b8301908583116110a9578154838355808410611bcf575b506020019060005260206000206000915b838310611bb15750505050600c6101a0910191015180519283116110a9578154838355808410611b48575b506020019060005260206000206000915b838310611af85750505050565b6003602082611b3c600194518690604060029160018060a01b038151166bffffffffffffffffffffffff60a01b855416178455602081015160018501550151910155565b01920192019190611aeb565b80600302906003820403611b9b5783600302600381048503611b9b5783600052602060002091820191015b818110611b805750611ada565b80600060039255600060018201556000600282015501611b73565b634e487b7160e01b600052601160045260246000fd5b6005602082611bc36001945186611504565b01920192019190611aaf565b80600502906005820403611b9b5783600502600581048503611b9b5783600052602060002091820191015b818110611c075750611a9e565b8060006005925560006001820155611c21600282016114ba565b60006003820155611c34600482016114ba565b01611bfa565b015190503880611a56565b6000858152602081209350601f198516905b818110611c935750908460019594939210611c7a575b505050811b019055611a6b565b015160001960f88460031b161c19169055388080611c6d565b92936020600181928786015181550195019301611c57565b611cd790856000526020600020601f850160051c8101916020861061021b57601f0160051c01906114a3565b38611a3f565b0151905038806119f7565b6008840160005260206000209060005b601f1984168110611d3f575060019394959683601f19811610611d26575b505050811b016008830155611a0f565b015160001960f88460031b161c19169055388080611d16565b9091602060018192858b015181550193019101611cf8565b611d8690600885016000526020600020601f840160051c8101916020851061021b57601f0160051c01906114a3565b386119dc565b015190503880611997565b6007830160005260206000209060005b601f1984168110611dee575060019394959683601f19811610611dd5575b505050811b0160078201556119af565b015160001960f88460031b161c19169055388080611dc5565b9091602060018192858b015181550193019101611da7565b611e3590600784016000526020600020601f840160051c8101916020851061021b57601f0160051c01906114a3565b3861197c565b015190503880611937565b601f198216956006860160005260206000209160005b888110611e9a57508360019596979810611e81575b505050811b01600684015561194f565b015160001960f88460031b161c19169055388080611e71565b91926020600181928685015181550194019201611e5c565b611ee190600686016000526020600020601f840160051c8101916020851061021b57601f0160051c01906114a3565b3861191a565b0151905038806118d9565b6000858152602081209350601f198516905b818110611f405750908460019594939210611f27575b505050811b0190556118ee565b015160001960f88460031b161c19169055388080611f1a565b92936020600181928786015181550195019301611f04565b611f8490856000526020600020601f850160051c8101916020861061021b57601f0160051c01906114a3565b386118c2565b01519050388061187e565b6000858152602081209350601f198516905b818110611fe35750908460019594939210611fca575b505050811b019055611893565b015160001960f88460031b161c19169055388080611fbd565b92936020600181928786015181550195019301611fa7565b61202790856000526020600020601f850160051c8101916020861061021b57601f0160051c01906114a3565b38611867565b015190503880611823565b6000858152602081209350601f198516905b818110612086575090846001959493921061206d575b505050811b019055611838565b015160001960f88460031b161c19169055388080612060565b9293602060018192878601518155019501930161204a565b6120ca90856000526020600020601f850160051c8101916020861061021b57601f0160051c01906114a3565b3861180c565b0151905038806117c8565b6000858152602081209350601f198516905b8181106121295750908460019594939210612110575b505050811b0190556117dd565b015160001960f88460031b161c19169055388080612103565b929360206001819287860151815501950193016120ed565b61216d90856000526020600020601f850160051c8101916020861061021b57601f0160051c01906114a3565b386117b1565b634e487b7160e01b600052600060045260246000fd5b6121a19060206040519282848094519384920161117d565b810103902090565b6000198114611b9b5760010190565b90604051918260008254926121cc84611469565b90818452600194858116908160001461223957506001146121f6575b50506114df925003836110f5565b9093915060005260209081600020936000915b8183106122215750506114df935082010138806121e8565b85548884018501529485019487945091830191612209565b9150506114df94506020925060ff191682840152151560051b82010138806121e8565b906040519160209261228a84828161227d818301968781519384920161117d565b81010380845201826110f5565b519020916122aa60405191828161227d818301968781519384920161117d565b5190201490565b6001600160401b0381116110a95760051b60200190565b9081546122d4816122b1565b926040936122e4855191826110f5565b828152809460208092019260005281600020906000935b85851061230a57505050505050565b600584600192845161231b816110bf565b848060a01b038754168152848701548382015261233a600288016121b8565b8682015260038701546060820152612354600488016121b8565b60808201528152019301940193916122fb565b908154612373816122b1565b92604093612383855191826110f5565b828152809460208092019260005281600020906000935b8585106123a957505050505050565b60038460019284516123ba816110da565b848060a01b038754168152848701548382015260028701548682015281520193019401939161239a565b906040516123f18161108d565b6101a06124cd600c83958054855260ff600182015460018060a01b038116602088015260a01c161515604086015261242b600282016121b8565b606086015261243c600382016121b8565b608086015261244d600482016121b8565b60a086015261245e600582016121b8565b60c086015261246f600682016121b8565b60e0860152612480600782016121b8565b610100860152612492600882016121b8565b6101208601526124a4600982016121b8565b610140860152600a8101546101608601526124c1600b82016122c8565b61018086015201612367565b910152565b906124dc826122b1565b6040906124eb825191826110f5565b83815280936124fc601f19916122b1565b019160005b83811061250e5750505050565b602090825161251c8161108d565b6000815282600081830152600085830152606080808401528060808401528060a08401528060c08401528060e08401528061010084015280610120840152806101408401526000610160840152806101808401526101a0830152828601015201612501565b80518210156114535760209160051b010190565b6005549060005b8281106125ab57505050600090565b6125bd826103d760096103d085611418565b6125cf576125ca906121a9565b61259c565b50505060019056fea2646970667358221220ddee69b8dd8282e2e28cfbb70dda2554a6797a810525490b224dcb9c5558675364736f6c63430008140033",
          "opcodes": "PUSH1 0x80 CALLVALUE PUSH2 0x79 JUMPI PUSH1 0x1F PUSH2 0x26A2 CODESIZE DUP2 SWAP1 SUB SWAP2 DUP3 ADD PUSH1 0x1F NOT AND DUP4 ADD SWAP2 PUSH1 0x1 PUSH1 0x1 PUSH1 0x40 SHL SUB DUP4 GT DUP5 DUP5 LT OR PUSH2 0x7E JUMPI DUP1 DUP5 SWAP3 PUSH1 0x20 SWAP5 PUSH1 0x40 MSTORE DUP4 CODECOPY DUP2 ADD SUB SLT PUSH2 0x79 JUMPI MLOAD PUSH1 0x1 PUSH1 0x1 PUSH1 0xA0 SHL SUB DUP2 AND SWAP1 DUP2 SWAP1 SUB PUSH2 0x79 JUMPI PUSH1 0x1 PUSH1 0x0 SSTORE PUSH1 0x4 DUP1 SLOAD PUSH1 0x1 PUSH1 0x1 PUSH1 0xA0 SHL SUB NOT AND SWAP2 SWAP1 SWAP2 OR SWAP1 SSTORE PUSH1 0x40 MLOAD PUSH2 0x260D SWAP1 DUP2 PUSH2 0x95 DUP3 CODECOPY RETURN JUMPDEST PUSH1 0x0 DUP1 REVERT JUMPDEST PUSH4 0x4E487B71 PUSH1 0xE0 SHL PUSH1 0x0 MSTORE PUSH1 0x41 PUSH1 0x4 MSTORE PUSH1 0x24 PUSH1 0x0 REVERT INVALID PUSH1 0x80 PUSH1 0x40 MSTORE PUSH1 0x4 DUP1 CALLDATASIZE LT ISZERO PUSH2 0x13 JUMPI PUSH1 0x0 DUP1 REVERT JUMPDEST PUSH1 0x0 DUP1 CALLDATALOAD PUSH1 0xE0 SHR DUP1 PUSH4 0x1A13CC59 EQ PUSH2 0xE9E JUMPI DUP1 PUSH4 0x1CAD3AC5 EQ PUSH2 0xE5B JUMPI DUP1 PUSH4 0x318BB5C7 EQ PUSH2 0xC09 JUMPI DUP1 PUSH4 0x3829F313 EQ PUSH2 0xBE1 JUMPI DUP1 PUSH4 0x7791B330 EQ PUSH2 0xB61 JUMPI DUP1 PUSH4 0x93EC02F1 EQ PUSH2 0x9D3 JUMPI DUP1 PUSH4 0x990D6459 EQ PUSH2 0x8FE JUMPI DUP1 PUSH4 0x9992B606 EQ PUSH2 0x872 JUMPI DUP1 PUSH4 0x9DEE74D5 EQ PUSH2 0x7CF JUMPI DUP1 PUSH4 0xA39249B8 EQ PUSH2 0x753 JUMPI DUP1 PUSH4 0xA97CE3C2 EQ PUSH2 0x601 JUMPI DUP1 PUSH4 0xBDDFF4D8 EQ PUSH2 0x5C8 JUMPI DUP1 PUSH4 0xD41AAB23 EQ PUSH2 0x355 JUMPI DUP1 PUSH4 0xE607A8BA EQ PUSH2 0x243 JUMPI PUSH4 0xED59313A EQ PUSH2 0xC3 JUMPI PUSH1 0x0 DUP1 REVERT JUMPDEST CALLVALUE PUSH2 0x240 JUMPI PUSH1 0x20 DUP1 PUSH1 0x3 NOT CALLDATASIZE ADD SLT PUSH2 0x23C JUMPI PUSH1 0x1 PUSH1 0x1 PUSH1 0x40 SHL SUB SWAP3 DUP1 CALLDATALOAD DUP5 DUP2 GT PUSH2 0x238 JUMPI PUSH2 0xF4 SWAP1 CALLDATASIZE SWAP1 DUP4 ADD PUSH2 0x1131 JUMP JUMPDEST SWAP2 CALLER DUP5 MSTORE PUSH1 0x2 DUP2 MSTORE PUSH1 0x40 DUP5 KECCAK256 SWAP2 DUP4 MLOAD SWAP6 DUP7 GT PUSH2 0x225 JUMPI POP PUSH2 0x115 DUP3 SLOAD PUSH2 0x1469 JUMP JUMPDEST PUSH1 0x1F DUP2 GT PUSH2 0x1EC JUMPI JUMPDEST POP DUP1 PUSH1 0x1F DUP7 GT PUSH1 0x1 EQ PUSH2 0x185 JUMPI POP SWAP4 DUP1 DUP5 SWAP6 PUSH2 0x152 SWAP6 SWAP2 PUSH2 0x17A JUMPI JUMPDEST POP DUP2 PUSH1 0x1 SHL SWAP2 PUSH1 0x0 NOT SWAP1 PUSH1 0x3 SHL SHR NOT AND OR SWAP1 SSTORE PUSH2 0x2189 JUMP JUMPDEST CALLER PUSH32 0xCFA484BE7B1D89AC1B8203C2067A8EFDFFDE3D5E5EC8A446CF9C54CB01C7E20B DUP4 DUP1 LOG3 DUP1 RETURN JUMPDEST SWAP1 POP DUP4 ADD MLOAD CODESIZE PUSH2 0x13A JUMP JUMPDEST SWAP1 PUSH1 0x1F NOT DUP7 AND DUP4 DUP7 MSTORE DUP3 DUP7 KECCAK256 SWAP3 DUP7 SWAP1 JUMPDEST DUP3 DUP3 LT PUSH2 0x1D4 JUMPI POP POP SWAP2 DUP7 SWAP2 PUSH2 0x152 SWAP7 SWAP8 PUSH1 0x1 SWAP5 LT PUSH2 0x1BB JUMPI JUMPDEST POP POP DUP2 SHL ADD SWAP1 SSTORE PUSH2 0x2189 JUMP JUMPDEST DUP6 ADD MLOAD PUSH1 0x0 NOT PUSH1 0xF8 DUP5 PUSH1 0x3 SHL AND SHR NOT AND SWAP1 SSTORE CODESIZE DUP1 PUSH2 0x1AF JUMP JUMPDEST DUP1 PUSH1 0x1 DUP6 SWAP7 DUP3 SWAP5 SWAP7 DUP11 ADD MLOAD DUP2 SSTORE ADD SWAP6 ADD SWAP4 ADD SWAP1 PUSH2 0x195 JUMP JUMPDEST PUSH2 0x215 SWAP1 DUP4 DUP7 MSTORE DUP3 DUP7 KECCAK256 PUSH1 0x1F DUP9 ADD PUSH1 0x5 SHR DUP2 ADD SWAP2 DUP5 DUP10 LT PUSH2 0x21B JUMPI JUMPDEST PUSH1 0x1F ADD PUSH1 0x5 SHR ADD SWAP1 PUSH2 0x14A3 JUMP JUMPDEST CODESIZE PUSH2 0x11E JUMP JUMPDEST SWAP1 SWAP2 POP DUP2 SWAP1 PUSH2 0x208 JUMP JUMPDEST PUSH4 0x4E487B71 PUSH1 0xE0 SHL DUP6 MSTORE PUSH1 0x41 SWAP1 MSTORE PUSH1 0x24 DUP5 REVERT JUMPDEST DUP4 DUP1 REVERT JUMPDEST POP DUP1 REVERT JUMPDEST DUP1 REVERT JUMPDEST POP CALLVALUE PUSH2 0x240 JUMPI DUP1 PUSH1 0x3 NOT CALLDATASIZE ADD SLT PUSH2 0x240 JUMPI CALLER DUP2 MSTORE PUSH1 0x20 PUSH1 0x3 DUP2 MSTORE PUSH1 0x40 DUP3 KECCAK256 SLOAD TIMESTAMP SUB TIMESTAMP DUP2 GT PUSH2 0x342 JUMPI PUSH3 0x15180 GT PUSH2 0x32B JUMPI DUP1 DUP3 SWAP4 CALLER DUP5 MSTORE PUSH1 0x3 DUP3 MSTORE TIMESTAMP PUSH1 0x40 DUP6 KECCAK256 SSTORE PUSH1 0x44 PUSH1 0x1 DUP1 PUSH1 0xA0 SHL SUB DUP3 SLOAD AND SWAP2 PUSH1 0x40 MLOAD SWAP6 DUP7 SWAP4 DUP5 SWAP3 PUSH4 0xA9059CBB PUSH1 0xE0 SHL DUP5 MSTORE CALLER SWAP1 DUP5 ADD MSTORE PUSH9 0x3635C9ADC5DEA00000 PUSH1 0x24 DUP5 ADD MSTORE GAS CALL DUP1 ISZERO PUSH2 0x320 JUMPI PUSH2 0x2ED JUMPI JUMPDEST DUP3 CALLER PUSH32 0x561F98ADFB5DF58A7C3C03F4ADA643CC46C1A5291389819DBD6D01FE49048149 DUP3 DUP1 LOG2 DUP1 RETURN JUMPDEST DUP2 DUP2 RETURNDATASIZE DUP4 GT PUSH2 0x319 JUMPI JUMPDEST PUSH2 0x301 DUP2 DUP4 PUSH2 0x10F5 JUMP JUMPDEST DUP2 ADD SUB SLT PUSH2 0x23C JUMPI MLOAD DUP1 ISZERO ISZERO SUB PUSH2 0x240 JUMPI CODESIZE DUP1 PUSH2 0x2C4 JUMP JUMPDEST POP RETURNDATASIZE PUSH2 0x2F7 JUMP JUMPDEST PUSH1 0x40 MLOAD RETURNDATASIZE DUP6 DUP3 RETURNDATACOPY RETURNDATASIZE SWAP1 REVERT JUMPDEST PUSH1 0x40 MLOAD PUSH4 0xFCA47E31 PUSH1 0xE0 SHL DUP2 MSTORE CALLER DUP2 DUP6 ADD MSTORE PUSH1 0x24 SWAP1 REVERT JUMPDEST PUSH4 0x4E487B71 PUSH1 0xE0 SHL DUP4 MSTORE PUSH1 0x11 DUP5 MSTORE PUSH1 0x24 DUP4 REVERT JUMPDEST POP SWAP1 PUSH1 0x60 SWAP1 DUP2 PUSH1 0x3 NOT CALLDATASIZE ADD SLT PUSH2 0x5C4 JUMPI DUP1 CALLDATALOAD PUSH1 0x1 PUSH1 0x1 PUSH1 0x40 SHL SUB DUP2 GT PUSH2 0x238 JUMPI PUSH2 0x382 SWAP1 CALLDATASIZE SWAP1 DUP4 ADD PUSH2 0x1131 JUMP JUMPDEST PUSH1 0x1 PUSH1 0x1 PUSH1 0xA0 SHL SUB PUSH1 0x24 DUP1 CALLDATALOAD DUP3 DUP2 AND SWAP6 SWAP4 SWAP5 SWAP2 SWAP4 SWAP2 SWAP1 DUP7 SWAP1 SUB PUSH2 0x5C0 JUMPI PUSH1 0x44 SWAP4 DUP5 CALLDATALOAD SWAP3 PUSH1 0x2 DUP10 SLOAD EQ PUSH2 0x5AF JUMPI PUSH1 0x2 DUP10 SSTORE DUP9 JUMPDEST PUSH1 0x5 SLOAD DUP2 LT ISZERO PUSH2 0x5A1 JUMPI PUSH2 0x3DC DUP9 PUSH2 0x3D7 PUSH1 0x9 PUSH2 0x3D0 DUP6 PUSH2 0x1418 JUMP JUMPDEST POP ADD PUSH2 0x21B8 JUMP JUMPDEST PUSH2 0x225C JUMP JUMPDEST PUSH2 0x3EE JUMPI PUSH2 0x3E9 SWAP1 PUSH2 0x21A9 JUMP JUMPDEST PUSH2 0x3B4 JUMP JUMPDEST SWAP5 SWAP6 SWAP7 SWAP8 PUSH2 0x404 PUSH2 0x3FE DUP8 PUSH2 0x1418 JUMP JUMPDEST POP PUSH2 0x23E4 JUMP JUMPDEST SWAP8 DUP9 MLOAD SWAP2 DUP3 CALLVALUE LT PUSH2 0x572 JUMPI POP POP POP POP DUP6 MLOAD SWAP5 DUP6 DUP5 MUL SWAP6 DUP5 DUP8 DIV EQ DUP5 ISZERO OR ISZERO PUSH2 0x560 JUMPI PUSH1 0x40 MLOAD SWAP6 PUSH2 0x433 DUP8 PUSH2 0x10DA JUMP JUMPDEST CALLER DUP8 MSTORE PUSH1 0x20 SWAP5 DUP6 DUP9 ADD MSTORE PUSH1 0x40 DUP8 ADD MSTORE DUP4 DUP8 ADD MLOAD AND DUP9 MSTORE PUSH1 0x1 SWAP4 DUP5 DUP5 MSTORE PUSH2 0x470 DUP5 PUSH1 0x40 DUP12 KECCAK256 PUSH1 0xE0 DUP11 ADD MLOAD SWAP1 DUP3 PUSH1 0x40 MLOAD SWAP5 DUP4 DUP7 DUP1 SWAP6 MLOAD SWAP4 DUP5 SWAP3 ADD PUSH2 0x117D JUMP JUMPDEST DUP3 ADD SWAP1 DUP2 MSTORE SUB ADD SWAP1 KECCAK256 DUP1 SLOAD SWAP1 CALLVALUE DUP3 ADD DUP1 SWAP3 GT PUSH2 0x54E JUMPI SSTORE PUSH1 0xC SWAP1 PUSH2 0x493 SWAP1 PUSH2 0x1418 JUMP JUMPDEST POP ADD SWAP2 DUP3 SLOAD SWAP5 PUSH1 0x1 PUSH1 0x40 SHL DUP7 LT ISZERO PUSH2 0x53C JUMPI DUP6 ADD DUP1 DUP5 SSTORE DUP6 LT ISZERO PUSH2 0x52B JUMPI POP POP DUP7 MSTORE DUP6 KECCAK256 DUP3 MLOAD PUSH1 0x3 SWAP1 SWAP3 MUL ADD DUP1 SLOAD PUSH1 0x1 PUSH1 0x1 PUSH1 0xA0 SHL SUB NOT AND PUSH1 0x1 PUSH1 0x1 PUSH1 0xA0 SHL SUB SWAP3 SWAP1 SWAP3 AND SWAP2 SWAP1 SWAP2 OR DUP2 SSTORE PUSH1 0x20 DUP3 ADD MLOAD PUSH1 0x1 DUP3 ADD SSTORE PUSH1 0x40 SWAP1 SWAP2 ADD MLOAD PUSH1 0x2 SWAP1 SWAP2 ADD SSTORE PUSH2 0x4FE SWAP1 MLOAD SWAP2 PUSH2 0x2189 JUMP JUMPDEST CALLER PUSH32 0x253FCD678C758E0E03DBF3A0243701C7439C306A61158B3C522A811977299010 DUP5 DUP1 LOG4 JUMPDEST PUSH1 0x1 DUP2 SSTORE DUP1 RETURN JUMPDEST PUSH4 0x4E487B71 PUSH1 0xE0 SHL DUP10 MSTORE PUSH1 0x32 SWAP1 MSTORE DUP8 REVERT JUMPDEST POP PUSH4 0x4E487B71 PUSH1 0xE0 SHL DUP10 MSTORE PUSH1 0x41 SWAP1 MSTORE DUP8 REVERT JUMPDEST PUSH4 0x4E487B71 PUSH1 0xE0 SHL DUP12 MSTORE PUSH1 0x11 DUP6 MSTORE DUP4 DUP12 REVERT JUMPDEST POP PUSH4 0x4E487B71 PUSH1 0xE0 SHL DUP9 MSTORE PUSH1 0x11 DUP3 MSTORE DUP8 REVERT JUMPDEST PUSH1 0x40 MLOAD PUSH4 0xE90DB85 PUSH1 0xE3 SHL DUP2 MSTORE SWAP6 DUP7 ADD SWAP4 SWAP1 SWAP4 MSTORE DUP5 SWAP4 SWAP3 PUSH2 0x596 PUSH1 0x64 DUP7 ADD DUP13 PUSH2 0x11A0 JUMP JUMPDEST SWAP4 DUP6 ADD MSTORE DUP4 ADD MSTORE SUB SWAP1 REVERT JUMPDEST POP POP POP POP POP POP POP POP POP PUSH2 0x524 JUMP JUMPDEST PUSH1 0x40 MLOAD PUSH4 0x3EE5AEB5 PUSH1 0xE0 SHL DUP2 MSTORE DUP4 SWAP1 REVERT JUMPDEST DUP7 DUP1 REVERT JUMPDEST DUP3 DUP1 REVERT JUMPDEST POP CALLVALUE PUSH2 0x240 JUMPI PUSH1 0x20 CALLDATASIZE PUSH1 0x3 NOT ADD SLT PUSH2 0x240 JUMPI PUSH1 0x20 SWAP1 PUSH1 0x40 SWAP1 PUSH1 0x1 PUSH1 0x1 PUSH1 0xA0 SHL SUB PUSH2 0x5F0 PUSH2 0x1402 JUMP JUMPDEST AND DUP2 MSTORE PUSH1 0x3 DUP4 MSTORE KECCAK256 SLOAD PUSH1 0x40 MLOAD SWAP1 DUP2 MSTORE RETURN JUMPDEST POP SWAP1 CALLVALUE PUSH2 0x23C JUMPI PUSH1 0x20 DUP1 PUSH1 0x3 NOT CALLDATASIZE ADD SLT PUSH2 0x5C4 JUMPI DUP2 CALLDATALOAD PUSH1 0x1 PUSH1 0x1 PUSH1 0x40 SHL SUB DUP2 GT PUSH2 0x238 JUMPI PUSH2 0x632 SWAP1 CALLDATASIZE SWAP1 DUP5 ADD PUSH2 0x1131 JUMP JUMPDEST CALLER DUP5 MSTORE PUSH1 0x1 DUP3 MSTORE PUSH1 0x40 DUP5 KECCAK256 PUSH1 0x40 MLOAD DUP4 DUP2 DUP5 MLOAD SWAP4 DUP3 DUP7 ADD SWAP5 PUSH2 0x654 DUP2 DUP5 DUP9 PUSH2 0x117D JUMP JUMPDEST DUP3 ADD SWAP1 DUP2 MSTORE SUB ADD SWAP1 KECCAK256 SLOAD SWAP1 DUP2 ISZERO PUSH2 0x742 JUMPI PUSH2 0x687 DUP5 DUP8 SWAP3 CALLER DUP5 MSTORE PUSH1 0x1 DUP3 MSTORE PUSH1 0x40 DUP5 KECCAK256 PUSH1 0x40 MLOAD DUP1 SWAP5 DUP2 SWAP4 DUP10 MLOAD SWAP3 DUP4 SWAP2 PUSH2 0x117D JUMP JUMPDEST DUP3 ADD SWAP1 DUP2 MSTORE SUB ADD SWAP1 KECCAK256 SSTORE DUP5 DUP1 DUP1 DUP1 DUP5 CALLER GAS CALL SWAP2 DUP3 RETURNDATASIZE ISZERO PUSH2 0x73D JUMPI RETURNDATASIZE PUSH2 0x6AB DUP2 PUSH2 0x1116 JUMP JUMPDEST SWAP1 PUSH2 0x6B9 PUSH1 0x40 MLOAD SWAP3 DUP4 PUSH2 0x10F5 JUMP JUMPDEST DUP2 MSTORE DUP8 DUP7 RETURNDATASIZE SWAP3 ADD RETURNDATACOPY JUMPDEST PUSH2 0x708 JUMPI JUMPDEST POP POP ISZERO PUSH2 0x6D2 JUMPI DUP3 DUP1 RETURN JUMPDEST PUSH1 0x40 MLOAD PUSH3 0x461BCD PUSH1 0xE5 SHL DUP2 MSTORE SWAP2 DUP3 ADD MSTORE PUSH1 0x10 PUSH1 0x24 DUP3 ADD MSTORE PUSH16 0x5472616E73666572206661696C656421 PUSH1 0x80 SHL PUSH1 0x44 DUP3 ADD MSTORE PUSH1 0x64 SWAP2 POP REVERT JUMPDEST PUSH2 0x711 SWAP1 PUSH2 0x2189 JUMP JUMPDEST CALLER PUSH32 0xF2CA3EFE12F71D386EF0FD2B75EBBEF402882711943CCB42D5BDB696FA7A1341 DUP8 DUP1 LOG4 CODESIZE DUP1 PUSH2 0x6C7 JUMP JUMPDEST PUSH2 0x6C2 JUMP JUMPDEST PUSH1 0x40 MLOAD PUSH4 0x125D726B PUSH1 0xE2 SHL DUP2 MSTORE DUP6 SWAP1 REVERT JUMPDEST POP SWAP1 CALLVALUE PUSH2 0x23C JUMPI PUSH1 0x40 CALLDATASIZE PUSH1 0x3 NOT ADD SLT PUSH2 0x23C JUMPI PUSH2 0x76E PUSH2 0x1402 JUMP JUMPDEST SWAP1 PUSH1 0x24 CALLDATALOAD PUSH1 0x1 PUSH1 0x1 PUSH1 0x40 SHL SUB DUP2 GT PUSH2 0x238 JUMPI SWAP2 PUSH1 0x40 PUSH1 0x20 SWAP5 PUSH2 0x797 DUP7 SWAP5 PUSH2 0x7BD SWAP7 CALLDATASIZE SWAP2 ADD PUSH2 0x1131 JUMP JUMPDEST PUSH1 0x1 PUSH1 0x1 PUSH1 0xA0 SHL SUB SWAP1 SWAP4 AND DUP2 MSTORE PUSH1 0x1 DUP5 MSTORE KECCAK256 PUSH1 0x40 MLOAD DUP3 MLOAD SWAP1 SWAP5 DUP6 SWAP4 DUP3 SWAP1 DUP6 SWAP1 DUP8 ADD PUSH2 0x117D JUMP JUMPDEST DUP3 ADD SWAP1 DUP2 MSTORE SUB ADD SWAP1 KECCAK256 SLOAD PUSH1 0x40 MLOAD SWAP1 DUP2 MSTORE RETURN JUMPDEST POP SWAP1 CALLVALUE PUSH2 0x23C JUMPI PUSH1 0x20 CALLDATASIZE PUSH1 0x3 NOT ADD SLT PUSH2 0x23C JUMPI DUP1 CALLDATALOAD SWAP1 PUSH1 0x1 PUSH1 0x1 PUSH1 0x40 SHL SUB DUP3 GT PUSH2 0x5C4 JUMPI PUSH2 0x7FF SWAP2 CALLDATASIZE SWAP2 ADD PUSH2 0x1131 JUMP JUMPDEST PUSH1 0x5 SLOAD SWAP1 PUSH2 0x80C DUP3 PUSH2 0x24D2 JUMP JUMPDEST SWAP3 JUMPDEST DUP3 DUP2 LT PUSH2 0x827 JUMPI PUSH1 0x40 MLOAD DUP1 PUSH2 0x823 DUP7 DUP3 PUSH2 0x11C5 JUMP JUMPDEST SUB SWAP1 RETURN JUMPDEST DUP1 PUSH2 0x83D DUP4 PUSH2 0x3D7 PUSH1 0x2 PUSH2 0x3D0 PUSH2 0x846 SWAP7 PUSH2 0x1418 JUMP JUMPDEST PUSH2 0x84B JUMPI PUSH2 0x21A9 JUMP JUMPDEST PUSH2 0x80E JUMP JUMPDEST PUSH2 0x857 PUSH2 0x3FE DUP3 PUSH2 0x1418 JUMP JUMPDEST PUSH2 0x861 DUP3 DUP8 PUSH2 0x2581 JUMP JUMPDEST MSTORE PUSH2 0x86C DUP2 DUP7 PUSH2 0x2581 JUMP JUMPDEST POP PUSH2 0x21A9 JUMP JUMPDEST POP CALLVALUE PUSH2 0x240 JUMPI DUP1 PUSH1 0x3 NOT CALLDATASIZE ADD SLT PUSH2 0x240 JUMPI PUSH1 0x5 SLOAD PUSH2 0x88F DUP2 PUSH2 0x22B1 JUMP JUMPDEST SWAP1 PUSH2 0x89D PUSH1 0x40 MLOAD SWAP3 DUP4 PUSH2 0x10F5 JUMP JUMPDEST DUP1 DUP3 MSTORE PUSH1 0x5 DUP4 MSTORE PUSH32 0x36B6384B5ECA791C62761152D0C79BB0604C104A5FB6F4EB0703F3154BB3DB0 SWAP3 PUSH1 0x20 DUP1 DUP5 ADD JUMPDEST DUP4 DUP4 LT PUSH2 0x8E1 JUMPI PUSH1 0x40 MLOAD DUP1 PUSH2 0x823 DUP8 DUP3 PUSH2 0x11C5 JUMP JUMPDEST PUSH1 0xD DUP3 PUSH1 0x1 SWAP3 PUSH2 0x8F0 DUP10 PUSH2 0x23E4 JUMP JUMPDEST DUP2 MSTORE ADD SWAP7 ADD SWAP3 ADD SWAP2 SWAP5 PUSH2 0x8CC JUMP JUMPDEST POP SWAP1 CALLVALUE PUSH2 0x23C JUMPI PUSH1 0x40 CALLDATASIZE PUSH1 0x3 NOT ADD SLT PUSH2 0x23C JUMPI DUP1 CALLDATALOAD SWAP1 PUSH1 0x1 PUSH1 0x1 PUSH1 0x40 SHL SUB DUP3 GT PUSH2 0x5C4 JUMPI PUSH2 0x92E SWAP2 CALLDATASIZE SWAP2 ADD PUSH2 0x1131 JUMP JUMPDEST PUSH1 0x24 CALLDATALOAD SWAP1 DUP2 ISZERO ISZERO SWAP1 DUP2 DUP4 SUB PUSH2 0x238 JUMPI DUP4 JUMPDEST PUSH1 0x5 SLOAD DUP2 LT ISZERO PUSH2 0x9CC JUMPI PUSH2 0x95B DUP3 PUSH2 0x3D7 PUSH1 0x9 PUSH2 0x3D0 DUP6 PUSH2 0x1418 JUMP JUMPDEST PUSH2 0x96D JUMPI PUSH2 0x968 SWAP1 PUSH2 0x21A9 JUMP JUMPDEST PUSH2 0x93F JUMP JUMPDEST PUSH2 0x9A4 SWAP3 SWAP4 PUSH1 0x1 PUSH2 0x980 PUSH2 0x99F SWAP4 PUSH2 0x1418 JUMP JUMPDEST POP ADD DUP1 SLOAD PUSH1 0xFF PUSH1 0xA0 SHL NOT AND SWAP2 ISZERO ISZERO PUSH1 0xA0 SHL PUSH1 0xFF PUSH1 0xA0 SHL AND SWAP2 SWAP1 SWAP2 OR SWAP1 SSTORE JUMP JUMPDEST PUSH2 0x2189 JUMP JUMPDEST CALLER PUSH32 0x51DABE03DBC9869CDC42F327348910C055732B793C7AAADE368A32D8F3658E1E DUP5 DUP1 LOG4 DUP1 RETURN JUMPDEST POP POP POP POP DUP1 RETURN JUMPDEST POP SWAP1 CALLVALUE PUSH2 0x23C JUMPI PUSH1 0xA0 CALLDATASIZE PUSH1 0x3 NOT ADD SLT PUSH2 0x23C JUMPI PUSH1 0x1 PUSH1 0x1 PUSH1 0x40 SHL SUB DUP2 CALLDATALOAD DUP2 DUP2 GT PUSH2 0x238 JUMPI PUSH2 0xA04 SWAP1 CALLDATASIZE SWAP1 DUP5 ADD PUSH2 0x1131 JUMP JUMPDEST SWAP1 PUSH1 0x24 SWAP3 DUP4 CALLDATALOAD SWAP3 PUSH1 0x44 CALLDATALOAD DUP4 DUP2 GT PUSH2 0x5C0 JUMPI PUSH2 0xA22 SWAP1 CALLDATASIZE SWAP1 DUP5 ADD PUSH2 0x1131 JUMP JUMPDEST SWAP3 PUSH1 0x64 CALLDATALOAD SWAP1 DUP2 GT PUSH2 0x5C0 JUMPI PUSH2 0xA3A SWAP1 CALLDATASIZE SWAP1 DUP5 ADD PUSH2 0x1131 JUMP JUMPDEST SWAP3 PUSH1 0x84 CALLDATALOAD PUSH1 0x1 PUSH1 0x1 PUSH1 0xA0 SHL SUB DUP2 AND SWAP4 SWAP1 DUP5 SWAP1 SUB PUSH2 0xB5D JUMPI DUP8 JUMPDEST PUSH1 0x5 DUP1 SLOAD DUP3 LT ISZERO PUSH2 0xB51 JUMPI PUSH2 0xA70 DUP8 PUSH2 0x3D7 PUSH1 0x9 PUSH2 0x3D0 DUP7 PUSH2 0x1418 JUMP JUMPDEST PUSH2 0xA83 JUMPI POP PUSH2 0xA7E SWAP1 PUSH2 0x21A9 JUMP JUMPDEST PUSH2 0xA53 JUMP JUMPDEST SWAP2 SWAP3 SWAP4 SWAP5 SWAP6 SWAP7 SWAP8 SWAP1 PUSH2 0xA96 PUSH1 0xB SWAP2 PUSH2 0x1418 JUMP JUMPDEST POP ADD SWAP1 PUSH1 0x40 MLOAD SWAP5 PUSH2 0xAA6 DUP7 PUSH2 0x10BF JUMP JUMPDEST CALLER DUP7 MSTORE PUSH1 0x20 SWAP10 DUP11 DUP8 ADD MSTORE DUP7 PUSH1 0x40 DUP8 ADD MSTORE TIMESTAMP PUSH1 0x60 DUP8 ADD MSTORE PUSH1 0x80 DUP7 ADD MSTORE DUP2 SLOAD SWAP4 PUSH1 0x1 PUSH1 0x40 SHL DUP6 LT ISZERO PUSH2 0xB40 JUMPI PUSH1 0x1 DUP6 ADD DUP1 DUP5 SSTORE DUP6 LT ISZERO PUSH2 0xB2F JUMPI POP POP PUSH2 0xB22 SWAP4 PUSH2 0xB1C SWAP4 PUSH32 0x8BB52EEE1B68032569FA2C483528D7D2B7DB7824B9704EE675F7202956220865 SWAP7 SWAP4 PUSH2 0x99F SWAP4 DUP13 MSTORE DUP11 DUP13 KECCAK256 SWAP2 MUL ADD PUSH2 0x1504 JUMP JUMPDEST SWAP4 PUSH2 0x2189 JUMP JUMPDEST SWAP4 PUSH1 0x40 MLOAD SWAP3 DUP4 MSTORE CALLER SWAP3 LOG4 DUP1 RETURN JUMPDEST PUSH4 0x4E487B71 PUSH1 0xE0 SHL DUP12 MSTORE PUSH1 0x32 SWAP1 MSTORE DUP10 REVERT JUMPDEST PUSH4 0x4E487B71 PUSH1 0xE0 SHL DUP12 MSTORE PUSH1 0x41 SWAP1 MSTORE DUP10 REVERT JUMPDEST POP POP POP POP POP POP POP POP POP DUP1 RETURN JUMPDEST DUP8 DUP1 REVERT JUMPDEST POP CALLVALUE PUSH2 0x240 JUMPI DUP1 PUSH1 0x3 NOT CALLDATASIZE ADD SLT PUSH2 0x240 JUMPI PUSH1 0x5 SLOAD PUSH2 0xB7E DUP2 PUSH2 0x24D2 JUMP JUMPDEST SWAP2 JUMPDEST DUP2 DUP2 LT PUSH2 0xB95 JUMPI PUSH1 0x40 MLOAD DUP1 PUSH2 0x823 DUP6 DUP3 PUSH2 0x11C5 JUMP JUMPDEST DUP1 PUSH2 0xBA2 PUSH2 0xBBB SWAP3 PUSH2 0x1418 JUMP JUMPDEST POP PUSH1 0x1 ADD SLOAD PUSH1 0x1 PUSH1 0x1 PUSH1 0xA0 SHL SUB AND CALLER EQ PUSH2 0xBC0 JUMPI PUSH2 0x21A9 JUMP JUMPDEST PUSH2 0xB80 JUMP JUMPDEST PUSH2 0xBCC PUSH2 0x3FE DUP3 PUSH2 0x1418 JUMP JUMPDEST PUSH2 0xBD6 DUP3 DUP7 PUSH2 0x2581 JUMP JUMPDEST MSTORE PUSH2 0x86C DUP2 DUP6 PUSH2 0x2581 JUMP JUMPDEST POP SWAP1 CALLVALUE PUSH2 0x23C JUMPI DUP2 PUSH1 0x3 NOT CALLDATASIZE ADD SLT PUSH2 0x23C JUMPI SLOAD PUSH1 0x40 MLOAD PUSH1 0x1 PUSH1 0x1 PUSH1 0xA0 SHL SUB SWAP1 SWAP2 AND DUP2 MSTORE PUSH1 0x20 SWAP1 RETURN JUMPDEST POP SWAP1 CALLVALUE PUSH2 0x23C JUMPI PUSH1 0xE0 CALLDATASIZE PUSH1 0x3 NOT ADD SLT PUSH2 0x23C JUMPI PUSH1 0x1 PUSH1 0x1 PUSH1 0x40 SHL SUB DUP2 CALLDATALOAD DUP2 DUP2 GT PUSH2 0x238 JUMPI PUSH2 0xC3A SWAP1 CALLDATASIZE SWAP1 DUP5 ADD PUSH2 0x1131 JUMP JUMPDEST PUSH1 0x44 CALLDATALOAD DUP3 DUP2 GT PUSH2 0xE57 JUMPI PUSH2 0xC51 SWAP1 CALLDATASIZE SWAP1 DUP6 ADD PUSH2 0x1131 JUMP JUMPDEST SWAP2 PUSH1 0x64 CALLDATALOAD DUP2 DUP2 GT PUSH2 0xE53 JUMPI PUSH2 0xC69 SWAP1 CALLDATASIZE SWAP1 DUP7 ADD PUSH2 0x1131 JUMP JUMPDEST SWAP4 PUSH1 0x84 CALLDATALOAD DUP3 DUP2 GT PUSH2 0x5C0 JUMPI PUSH2 0xC81 SWAP1 CALLDATASIZE SWAP1 DUP4 ADD PUSH2 0x1131 JUMP JUMPDEST SWAP2 PUSH1 0xA4 CALLDATALOAD DUP2 DUP2 GT PUSH2 0xB5D JUMPI PUSH2 0xC99 SWAP1 CALLDATASIZE SWAP1 DUP5 ADD PUSH2 0x1131 JUMP JUMPDEST SWAP2 PUSH1 0xC4 CALLDATALOAD SWAP2 DUP3 GT PUSH2 0xB5D JUMPI PUSH2 0xCB0 SWAP2 CALLDATASIZE SWAP2 ADD PUSH2 0x1131 JUMP JUMPDEST SWAP2 DUP7 JUMPDEST PUSH1 0x5 SLOAD DUP2 LT ISZERO PUSH2 0xE49 JUMPI PUSH2 0xCCF DUP6 PUSH2 0x3D7 PUSH1 0x9 PUSH2 0x3D0 DUP6 PUSH2 0x1418 JUMP JUMPDEST PUSH2 0xCE1 JUMPI PUSH2 0xCDC SWAP1 PUSH2 0x21A9 JUMP JUMPDEST PUSH2 0xCB3 JUMP JUMPDEST SWAP3 SWAP4 SWAP5 SWAP6 PUSH2 0xCEE DUP5 PUSH2 0x1418 JUMP JUMPDEST POP PUSH1 0x1 SWAP1 DUP2 ADD SLOAD PUSH1 0x1 PUSH1 0x1 PUSH1 0xA0 SHL SUB AND SWAP6 SWAP1 PUSH2 0xD09 DUP7 PUSH2 0x1418 JUMP JUMPDEST POP ADD SLOAD SWAP3 PUSH2 0xD16 DUP7 PUSH2 0x1418 JUMP JUMPDEST POP SWAP5 PUSH2 0xD21 DUP8 PUSH2 0x1418 JUMP JUMPDEST POP PUSH2 0xD2B DUP9 PUSH2 0x1418 JUMP JUMPDEST POP SWAP4 PUSH2 0xD36 DUP10 PUSH2 0x1418 JUMP JUMPDEST POP PUSH1 0xA ADD SLOAD SWAP6 PUSH2 0xD45 DUP11 PUSH2 0x1418 JUMP JUMPDEST POP SWAP8 PUSH2 0xD50 DUP12 PUSH2 0x1418 JUMP JUMPDEST POP SWAP10 PUSH1 0x40 MLOAD SWAP13 PUSH2 0xD5F DUP15 PUSH2 0x108D JUMP JUMPDEST PUSH1 0x24 CALLDATALOAD DUP15 MSTORE PUSH1 0x20 DUP15 ADD MSTORE PUSH1 0xFF PUSH1 0xA0 SWAP3 DUP4 SHR AND ISZERO ISZERO PUSH1 0x40 DUP15 ADD MSTORE PUSH2 0xD84 SWAP1 PUSH1 0x2 ADD PUSH2 0x21B8 JUMP JUMPDEST PUSH1 0x60 DUP14 ADD MSTORE DUP14 PUSH1 0x80 DUP14 ADD MSTORE DUP12 ADD MSTORE PUSH1 0xC0 DUP11 ADD MSTORE PUSH1 0x6 ADD PUSH2 0xDA3 SWAP1 PUSH2 0x21B8 JUMP JUMPDEST PUSH1 0xE0 DUP10 ADD MSTORE PUSH2 0x100 DUP9 ADD MSTORE PUSH2 0x120 DUP8 ADD MSTORE PUSH1 0x9 ADD PUSH2 0xDC0 SWAP1 PUSH2 0x21B8 JUMP JUMPDEST PUSH2 0x140 DUP7 ADD MSTORE PUSH2 0x160 DUP6 ADD MSTORE PUSH1 0xB ADD PUSH2 0xDD8 SWAP1 PUSH2 0x22C8 JUMP JUMPDEST PUSH2 0x180 DUP5 ADD MSTORE PUSH1 0xC ADD PUSH2 0xDEA SWAP1 PUSH2 0x2367 JUMP JUMPDEST PUSH2 0x1A0 DUP4 ADD MSTORE PUSH2 0xDF9 SWAP1 PUSH2 0x1418 JUMP JUMPDEST PUSH2 0xE03 SWAP3 SWAP2 PUSH2 0x173E JUMP JUMPDEST PUSH2 0xE0C SWAP1 PUSH2 0x2189 JUMP JUMPDEST SWAP1 PUSH2 0xE16 SWAP1 PUSH2 0x2189 JUMP JUMPDEST SWAP1 PUSH1 0x40 MLOAD PUSH1 0x24 CALLDATALOAD DUP2 MSTORE CALLER SWAP1 PUSH1 0x20 PUSH32 0x384C5F98880FAD6ED933597FE4BECD24246DB16D5A262945362C7ACE0A0E47B5 SWAP2 LOG4 DUP1 RETURN JUMPDEST POP POP POP POP POP POP POP DUP1 RETURN JUMPDEST DUP6 DUP1 REVERT JUMPDEST DUP5 DUP1 REVERT JUMPDEST POP CALLVALUE PUSH2 0x240 JUMPI PUSH1 0x20 CALLDATASIZE PUSH1 0x3 NOT ADD SLT PUSH2 0x240 JUMPI DUP2 CALLDATALOAD SWAP1 PUSH1 0x1 PUSH1 0x1 PUSH1 0x40 SHL SUB DUP3 GT PUSH2 0x240 JUMPI PUSH1 0x20 PUSH2 0xE94 PUSH2 0xE8F CALLDATASIZE DUP6 DUP8 ADD PUSH2 0x1131 JUMP JUMPDEST PUSH2 0x2595 JUMP JUMPDEST PUSH1 0x40 MLOAD SWAP1 ISZERO ISZERO DUP2 MSTORE RETURN JUMPDEST POP SWAP1 CALLVALUE PUSH2 0x23C JUMPI PUSH2 0x140 SWAP1 DUP2 PUSH1 0x3 NOT CALLDATASIZE ADD SLT PUSH2 0x5C4 JUMPI DUP1 CALLDATALOAD SWAP1 PUSH1 0x1 PUSH1 0x1 PUSH1 0x40 SHL SUB SWAP1 PUSH1 0x24 CALLDATALOAD DUP3 DUP2 GT PUSH2 0xE53 JUMPI PUSH2 0xED7 SWAP1 CALLDATASIZE SWAP1 DUP4 ADD PUSH2 0x1131 JUMP JUMPDEST SWAP1 PUSH1 0x44 CALLDATALOAD DUP4 DUP2 GT PUSH2 0x5C0 JUMPI PUSH2 0xEEF SWAP1 CALLDATASIZE SWAP1 DUP4 ADD PUSH2 0x1131 JUMP JUMPDEST SWAP5 PUSH1 0x64 CALLDATALOAD DUP5 DUP2 GT PUSH2 0xB5D JUMPI PUSH2 0xF07 SWAP1 CALLDATASIZE SWAP1 DUP5 ADD PUSH2 0x1131 JUMP JUMPDEST SWAP4 PUSH1 0x84 CALLDATALOAD DUP2 DUP2 GT PUSH2 0x1089 JUMPI PUSH2 0xF1F SWAP1 CALLDATASIZE SWAP1 DUP6 ADD PUSH2 0x1131 JUMP JUMPDEST PUSH1 0xA4 CALLDATALOAD DUP3 DUP2 GT PUSH2 0x1085 JUMPI PUSH2 0xF36 SWAP1 CALLDATASIZE SWAP1 DUP7 ADD PUSH2 0x1131 JUMP JUMPDEST PUSH1 0xC4 CALLDATALOAD DUP4 DUP2 GT PUSH2 0x1081 JUMPI PUSH2 0xF4D SWAP1 CALLDATASIZE SWAP1 DUP8 ADD PUSH2 0x1131 JUMP JUMPDEST SWAP2 PUSH1 0xE4 CALLDATALOAD DUP5 DUP2 GT PUSH2 0x107D JUMPI PUSH2 0xF65 SWAP1 CALLDATASIZE SWAP1 DUP9 ADD PUSH2 0x1131 JUMP JUMPDEST SWAP4 PUSH2 0x104 CALLDATALOAD SWAP1 DUP2 GT PUSH2 0x107D JUMPI PUSH2 0xF7E SWAP1 CALLDATASIZE SWAP1 DUP9 ADD PUSH2 0x1131 JUMP JUMPDEST SWAP8 DUP10 ISZERO PUSH2 0x106C JUMPI SWAP1 DUP9 SWAP6 SWAP5 SWAP4 SWAP3 SWAP2 PUSH1 0x40 MLOAD SWAP9 PUSH2 0xF99 DUP11 PUSH2 0x108D JUMP JUMPDEST DUP12 DUP11 MSTORE CALLER PUSH1 0x20 DUP12 ADD MSTORE DUP14 PUSH1 0x40 DUP12 ADD MSTORE PUSH1 0x60 DUP11 ADD MSTORE DUP12 PUSH1 0x80 DUP11 ADD MSTORE PUSH1 0xA0 DUP10 ADD MSTORE PUSH1 0xC0 DUP9 ADD MSTORE PUSH1 0xE0 DUP8 ADD MSTORE PUSH2 0x100 DUP7 ADD MSTORE PUSH2 0x120 DUP6 ADD MSTORE DUP4 ADD MSTORE PUSH2 0x124 CALLDATALOAD PUSH2 0x160 DUP4 ADD MSTORE PUSH1 0x60 PUSH2 0x180 DUP4 ADD MSTORE PUSH1 0x60 PUSH2 0x1A0 DUP4 ADD MSTORE PUSH1 0x5 SLOAD SWAP1 PUSH1 0x1 PUSH1 0x40 SHL DUP3 LT ISZERO PUSH2 0x1059 JUMPI POP PUSH2 0x101A SWAP3 SWAP2 PUSH2 0x1014 DUP3 PUSH1 0x1 PUSH2 0x99F SWAP5 ADD PUSH1 0x5 SSTORE PUSH2 0x1418 JUMP JUMPDEST SWAP1 PUSH2 0x173E JUMP JUMPDEST SWAP2 PUSH32 0x9EC512F6157DAF19471FDB4ABC754CD622CE54571FDA42C4C416FF378B041583 PUSH1 0x40 MLOAD PUSH1 0x20 DUP2 MSTORE DUP1 PUSH2 0x1053 CALLER SWAP5 PUSH1 0x20 DUP4 ADD SWAP1 PUSH2 0x11A0 JUMP JUMPDEST SUB SWAP1 LOG4 DUP1 RETURN JUMPDEST PUSH4 0x4E487B71 PUSH1 0xE0 SHL DUP8 MSTORE PUSH1 0x41 SWAP1 MSTORE PUSH1 0x24 DUP7 REVERT JUMPDEST PUSH1 0x40 MLOAD PUSH4 0x5EBDE5F5 PUSH1 0xE1 SHL DUP2 MSTORE DUP8 SWAP1 REVERT JUMPDEST DUP12 DUP1 REVERT JUMPDEST DUP11 DUP1 REVERT JUMPDEST DUP10 DUP1 REVERT JUMPDEST DUP9 DUP1 REVERT JUMPDEST PUSH2 0x1C0 DUP2 ADD SWAP1 DUP2 LT PUSH1 0x1 PUSH1 0x1 PUSH1 0x40 SHL SUB DUP3 GT OR PUSH2 0x10A9 JUMPI PUSH1 0x40 MSTORE JUMP JUMPDEST PUSH4 0x4E487B71 PUSH1 0xE0 SHL PUSH1 0x0 MSTORE PUSH1 0x41 PUSH1 0x4 MSTORE PUSH1 0x24 PUSH1 0x0 REVERT JUMPDEST PUSH1 0xA0 DUP2 ADD SWAP1 DUP2 LT PUSH1 0x1 PUSH1 0x1 PUSH1 0x40 SHL SUB DUP3 GT OR PUSH2 0x10A9 JUMPI PUSH1 0x40 MSTORE JUMP JUMPDEST PUSH1 0x60 DUP2 ADD SWAP1 DUP2 LT PUSH1 0x1 PUSH1 0x1 PUSH1 0x40 SHL SUB DUP3 GT OR PUSH2 0x10A9 JUMPI PUSH1 0x40 MSTORE JUMP JUMPDEST SWAP1 PUSH1 0x1F DUP1 NOT SWAP2 ADD AND DUP2 ADD SWAP1 DUP2 LT PUSH1 0x1 PUSH1 0x1 PUSH1 0x40 SHL SUB DUP3 GT OR PUSH2 0x10A9 JUMPI PUSH1 0x40 MSTORE JUMP JUMPDEST PUSH1 0x1 PUSH1 0x1 PUSH1 0x40 SHL SUB DUP2 GT PUSH2 0x10A9 JUMPI PUSH1 0x1F ADD PUSH1 0x1F NOT AND PUSH1 0x20 ADD SWAP1 JUMP JUMPDEST DUP2 PUSH1 0x1F DUP3 ADD SLT ISZERO PUSH2 0x1178 JUMPI DUP1 CALLDATALOAD SWAP1 PUSH2 0x1148 DUP3 PUSH2 0x1116 JUMP JUMPDEST SWAP3 PUSH2 0x1156 PUSH1 0x40 MLOAD SWAP5 DUP6 PUSH2 0x10F5 JUMP JUMPDEST DUP3 DUP5 MSTORE PUSH1 0x20 DUP4 DUP4 ADD ADD GT PUSH2 0x1178 JUMPI DUP2 PUSH1 0x0 SWAP3 PUSH1 0x20 DUP1 SWAP4 ADD DUP4 DUP7 ADD CALLDATACOPY DUP4 ADD ADD MSTORE SWAP1 JUMP JUMPDEST PUSH1 0x0 DUP1 REVERT JUMPDEST PUSH1 0x0 JUMPDEST DUP4 DUP2 LT PUSH2 0x1190 JUMPI POP POP PUSH1 0x0 SWAP2 ADD MSTORE JUMP JUMPDEST DUP2 DUP2 ADD MLOAD DUP4 DUP3 ADD MSTORE PUSH1 0x20 ADD PUSH2 0x1180 JUMP JUMPDEST SWAP1 PUSH1 0x20 SWAP2 PUSH2 0x11B9 DUP2 MLOAD DUP1 SWAP3 DUP2 DUP6 MSTORE DUP6 DUP1 DUP7 ADD SWAP2 ADD PUSH2 0x117D JUMP JUMPDEST PUSH1 0x1F ADD PUSH1 0x1F NOT AND ADD ADD SWAP1 JUMP JUMPDEST PUSH1 0x20 DUP2 ADD PUSH1 0x20 DUP3 MSTORE DUP3 MLOAD DUP1 SWAP2 MSTORE PUSH1 0x40 DUP3 ADD SWAP2 PUSH1 0x20 PUSH1 0x40 DUP4 PUSH1 0x5 SHL DUP4 ADD ADD SWAP5 ADD SWAP3 PUSH1 0x0 SWAP2 JUMPDEST DUP4 DUP4 LT PUSH2 0x11F8 JUMPI POP POP POP POP POP SWAP1 JUMP JUMPDEST SWAP1 SWAP2 SWAP3 SWAP4 SWAP5 PUSH1 0x3F NOT DUP3 DUP3 SUB ADD DUP4 MSTORE DUP6 MLOAD SWAP1 DUP2 MLOAD DUP2 MSTORE PUSH1 0x1 DUP1 PUSH1 0xA0 SHL SUB PUSH1 0x20 DUP4 ADD MLOAD AND PUSH1 0x20 DUP3 ADD MSTORE PUSH1 0x40 DUP3 ADD MLOAD ISZERO ISZERO PUSH1 0x40 DUP3 ADD MSTORE PUSH2 0x12DF PUSH2 0x12CB PUSH2 0x12B7 PUSH2 0x12A3 PUSH2 0x1290 PUSH2 0x127D PUSH2 0x126B PUSH2 0x1259 PUSH1 0x60 DUP11 ADD MLOAD PUSH2 0x1C0 DUP1 PUSH1 0x60 DUP13 ADD MSTORE DUP11 ADD SWAP1 PUSH2 0x11A0 JUMP JUMPDEST PUSH1 0x80 DUP11 ADD MLOAD DUP10 DUP3 SUB PUSH1 0x80 DUP12 ADD MSTORE PUSH2 0x11A0 JUMP JUMPDEST PUSH1 0xA0 DUP10 ADD MLOAD DUP9 DUP3 SUB PUSH1 0xA0 DUP11 ADD MSTORE PUSH2 0x11A0 JUMP JUMPDEST PUSH1 0xC0 DUP1 DUP10 ADD MLOAD SWAP1 DUP9 DUP4 SUB SWAP1 DUP10 ADD MSTORE PUSH2 0x11A0 JUMP JUMPDEST PUSH1 0xE0 DUP1 DUP9 ADD MLOAD SWAP1 DUP8 DUP4 SUB SWAP1 DUP9 ADD MSTORE PUSH2 0x11A0 JUMP JUMPDEST PUSH2 0x100 DUP1 DUP8 ADD MLOAD SWAP1 DUP7 DUP4 SUB SWAP1 DUP8 ADD MSTORE PUSH2 0x11A0 JUMP JUMPDEST PUSH2 0x120 DUP1 DUP7 ADD MLOAD SWAP1 DUP6 DUP4 SUB SWAP1 DUP7 ADD MSTORE PUSH2 0x11A0 JUMP JUMPDEST PUSH2 0x140 DUP1 DUP6 ADD MLOAD SWAP1 DUP5 DUP4 SUB SWAP1 DUP6 ADD MSTORE PUSH2 0x11A0 JUMP JUMPDEST SWAP1 PUSH2 0x160 DUP1 DUP5 ADD MLOAD SWAP1 DUP3 ADD MSTORE PUSH2 0x180 SWAP2 DUP3 DUP5 ADD MLOAD SWAP3 DUP3 DUP3 SUB SWAP1 DUP4 ADD MSTORE DUP3 MLOAD DUP1 DUP3 MSTORE PUSH1 0x20 DUP3 ADD SWAP1 PUSH1 0x20 DUP1 DUP3 PUSH1 0x5 SHL DUP6 ADD ADD SWAP6 ADD SWAP3 PUSH1 0x0 JUMPDEST DUP3 DUP2 LT PUSH2 0x1392 JUMPI POP POP POP POP POP PUSH2 0x1A0 DUP1 SWAP4 ADD MLOAD SWAP3 DUP2 DUP4 SUB SWAP2 ADD MSTORE PUSH1 0x20 DUP1 DUP4 MLOAD SWAP3 DUP4 DUP2 MSTORE ADD SWAP3 ADD SWAP1 PUSH1 0x0 SWAP1 JUMPDEST DUP1 DUP3 LT PUSH2 0x135F JUMPI POP POP POP PUSH1 0x20 DUP1 PUSH1 0x1 SWAP3 SWAP8 ADD SWAP4 ADD SWAP4 ADD SWAP2 SWAP4 SWAP3 SWAP1 PUSH2 0x11E9 JUMP JUMPDEST SWAP1 SWAP2 SWAP3 PUSH1 0x20 PUSH1 0x60 PUSH1 0x1 SWAP3 PUSH1 0x40 DUP8 MLOAD DUP6 DUP1 PUSH1 0xA0 SHL SUB DUP2 MLOAD AND DUP4 MSTORE DUP5 DUP2 ADD MLOAD DUP6 DUP5 ADD MSTORE ADD MLOAD PUSH1 0x40 DUP3 ADD MSTORE ADD SWAP5 ADD SWAP3 ADD SWAP1 PUSH2 0x1340 JUMP JUMPDEST SWAP1 SWAP2 SWAP3 SWAP4 SWAP6 PUSH1 0x20 DUP1 PUSH2 0x13F5 PUSH1 0x1 SWAP4 PUSH1 0x1F NOT DUP8 DUP3 SUB ADD DUP10 MSTORE DUP11 MLOAD SWAP1 DUP6 DUP1 PUSH1 0xA0 SHL SUB DUP3 MLOAD AND DUP2 MSTORE DUP4 DUP3 ADD MLOAD DUP5 DUP3 ADD MSTORE PUSH1 0x80 PUSH2 0x13DA PUSH1 0x40 DUP5 ADD MLOAD PUSH1 0xA0 PUSH1 0x40 DUP6 ADD MSTORE PUSH1 0xA0 DUP5 ADD SWAP1 PUSH2 0x11A0 JUMP JUMPDEST SWAP3 PUSH1 0x60 DUP2 ADD MLOAD PUSH1 0x60 DUP5 ADD MSTORE ADD MLOAD SWAP1 PUSH1 0x80 DUP2 DUP5 SUB SWAP2 ADD MSTORE PUSH2 0x11A0 JUMP JUMPDEST SWAP9 ADD SWAP6 ADD SWAP4 SWAP3 SWAP2 ADD PUSH2 0x1315 JUMP JUMPDEST PUSH1 0x4 CALLDATALOAD SWAP1 PUSH1 0x1 PUSH1 0x1 PUSH1 0xA0 SHL SUB DUP3 AND DUP3 SUB PUSH2 0x1178 JUMPI JUMP JUMPDEST PUSH1 0x5 SLOAD DUP2 LT ISZERO PUSH2 0x1453 JUMPI PUSH1 0xD SWAP1 PUSH1 0x5 PUSH1 0x0 MSTORE MUL PUSH32 0x36B6384B5ECA791C62761152D0C79BB0604C104A5FB6F4EB0703F3154BB3DB0 ADD SWAP1 PUSH1 0x0 SWAP1 JUMP JUMPDEST PUSH4 0x4E487B71 PUSH1 0xE0 SHL PUSH1 0x0 MSTORE PUSH1 0x32 PUSH1 0x4 MSTORE PUSH1 0x24 PUSH1 0x0 REVERT JUMPDEST SWAP1 PUSH1 0x1 DUP3 DUP2 SHR SWAP3 AND DUP1 ISZERO PUSH2 0x1499 JUMPI JUMPDEST PUSH1 0x20 DUP4 LT EQ PUSH2 0x1483 JUMPI JUMP JUMPDEST PUSH4 0x4E487B71 PUSH1 0xE0 SHL PUSH1 0x0 MSTORE PUSH1 0x22 PUSH1 0x4 MSTORE PUSH1 0x24 PUSH1 0x0 REVERT JUMPDEST SWAP2 PUSH1 0x7F AND SWAP2 PUSH2 0x1478 JUMP JUMPDEST DUP2 DUP2 LT PUSH2 0x14AE JUMPI POP POP JUMP JUMPDEST PUSH1 0x0 DUP2 SSTORE PUSH1 0x1 ADD PUSH2 0x14A3 JUMP JUMPDEST PUSH2 0x14C4 DUP2 SLOAD PUSH2 0x1469 JUMP JUMPDEST SWAP1 DUP2 PUSH2 0x14CE JUMPI POP POP JUMP JUMPDEST DUP2 PUSH1 0x1F PUSH1 0x0 SWAP4 GT PUSH1 0x1 EQ PUSH2 0x14E1 JUMPI POP SSTORE JUMPDEST JUMP JUMPDEST SWAP1 DUP1 DUP4 SWAP2 DUP3 MSTORE PUSH2 0x1500 PUSH1 0x1F PUSH1 0x20 DUP5 KECCAK256 SWAP5 ADD PUSH1 0x5 SHR DUP5 ADD PUSH1 0x1 DUP6 ADD PUSH2 0x14A3 JUMP JUMPDEST SSTORE SSTORE JUMP JUMPDEST PUSH1 0x1 DUP1 PUSH1 0xA0 SHL SUB DUP3 MLOAD AND PUSH12 0xFFFFFFFFFFFFFFFFFFFFFFFF PUSH1 0xA0 SHL DUP3 SLOAD AND OR DUP2 SSTORE PUSH1 0x20 DUP1 DUP4 ADD MLOAD SWAP2 PUSH1 0x1 SWAP3 DUP4 DUP3 ADD SSTORE PUSH1 0x2 DUP2 ADD SWAP2 PUSH1 0x40 DUP6 ADD MLOAD SWAP2 DUP3 MLOAD SWAP4 PUSH1 0x1 PUSH1 0x1 PUSH1 0x40 SHL SUB SWAP5 DUP6 DUP2 GT PUSH2 0x10A9 JUMPI PUSH2 0x155A DUP3 SLOAD PUSH2 0x1469 JUMP JUMPDEST SWAP5 PUSH1 0x1F SWAP6 DUP7 DUP2 GT PUSH2 0x1710 JUMPI JUMPDEST POP DUP5 SWAP1 DUP7 DUP4 GT PUSH1 0x1 EQ PUSH2 0x16A2 JUMPI SWAP2 DUP1 PUSH1 0x4 SWAP5 SWAP3 PUSH1 0x80 SWAP7 SWAP5 PUSH1 0x0 SWAP3 PUSH2 0x1697 JUMPI JUMPDEST POP POP PUSH1 0x0 NOT PUSH1 0x3 DUP4 SWAP1 SHL SHR NOT AND SWAP1 DUP10 SHL OR SWAP1 SSTORE JUMPDEST PUSH1 0x60 DUP9 ADD MLOAD PUSH1 0x3 DUP3 ADD SSTORE ADD SWAP6 ADD MLOAD SWAP1 DUP2 MLOAD SWAP4 DUP5 GT PUSH2 0x10A9 JUMPI PUSH2 0x15BB DUP7 SLOAD PUSH2 0x1469 JUMP JUMPDEST DUP4 DUP2 GT PUSH2 0x165F JUMPI JUMPDEST POP DUP1 SWAP3 DUP5 GT PUSH1 0x1 EQ PUSH2 0x15FC JUMPI POP SWAP3 DUP3 SWAP4 SWAP2 DUP4 SWAP3 PUSH1 0x0 SWAP5 PUSH2 0x15F1 JUMPI JUMPDEST POP POP SHL SWAP2 PUSH1 0x0 NOT SWAP1 PUSH1 0x3 SHL SHR NOT AND OR SWAP1 SSTORE JUMP JUMPDEST ADD MLOAD SWAP3 POP CODESIZE DUP1 PUSH2 0x15DE JUMP JUMPDEST SWAP2 SWAP1 DUP4 PUSH1 0x1F NOT DUP2 AND DUP8 PUSH1 0x0 MSTORE DUP5 PUSH1 0x0 KECCAK256 SWAP5 PUSH1 0x0 SWAP1 JUMPDEST DUP9 DUP4 DUP4 LT PUSH2 0x1645 JUMPI POP POP POP LT PUSH2 0x162C JUMPI JUMPDEST POP POP POP DUP2 SHL ADD SWAP1 SSTORE JUMP JUMPDEST ADD MLOAD PUSH1 0x0 NOT PUSH1 0xF8 DUP5 PUSH1 0x3 SHL AND SHR NOT AND SWAP1 SSTORE CODESIZE DUP1 DUP1 PUSH2 0x1622 JUMP JUMPDEST DUP6 DUP8 ADD MLOAD DUP9 SSTORE SWAP1 SWAP7 ADD SWAP6 SWAP5 DUP6 ADD SWAP5 DUP8 SWAP4 POP SWAP1 DUP2 ADD SWAP1 PUSH2 0x1611 JUMP JUMPDEST PUSH2 0x1688 SWAP1 DUP8 PUSH1 0x0 MSTORE DUP3 PUSH1 0x0 KECCAK256 DUP6 DUP1 DUP9 ADD PUSH1 0x5 SHR DUP3 ADD SWAP3 DUP6 DUP10 LT PUSH2 0x168E JUMPI JUMPDEST ADD PUSH1 0x5 SHR ADD SWAP1 PUSH2 0x14A3 JUMP JUMPDEST CODESIZE PUSH2 0x15C3 JUMP JUMPDEST SWAP3 POP DUP2 SWAP3 PUSH2 0x167D JUMP JUMPDEST ADD MLOAD SWAP1 POP CODESIZE DUP1 PUSH2 0x1585 JUMP JUMPDEST DUP9 SWAP3 SWAP2 PUSH1 0x1F NOT DUP4 AND SWAP2 DUP6 PUSH1 0x0 MSTORE DUP8 PUSH1 0x0 KECCAK256 SWAP3 PUSH1 0x0 JUMPDEST DUP10 DUP3 DUP3 LT PUSH2 0x16FA JUMPI POP POP SWAP2 PUSH1 0x80 SWAP8 SWAP6 SWAP4 SWAP2 DUP6 PUSH1 0x4 SWAP9 SWAP7 SWAP5 LT PUSH2 0x16E1 JUMPI JUMPDEST POP POP POP DUP2 SHL ADD SWAP1 SSTORE PUSH2 0x1599 JUMP JUMPDEST ADD MLOAD PUSH1 0x0 NOT PUSH1 0xF8 DUP5 PUSH1 0x3 SHL AND SHR NOT AND SWAP1 SSTORE CODESIZE DUP1 DUP1 PUSH2 0x16D4 JUMP JUMPDEST DUP4 DUP6 ADD MLOAD DUP7 SSTORE DUP14 SWAP8 SWAP1 SWAP6 ADD SWAP5 SWAP4 DUP5 ADD SWAP4 ADD PUSH2 0x16B7 JUMP JUMPDEST PUSH2 0x1738 SWAP1 DUP5 PUSH1 0x0 MSTORE DUP7 PUSH1 0x0 KECCAK256 DUP9 DUP1 DUP7 ADD PUSH1 0x5 SHR DUP3 ADD SWAP3 DUP10 DUP8 LT PUSH2 0x168E JUMPI ADD PUSH1 0x5 SHR ADD SWAP1 PUSH2 0x14A3 JUMP JUMPDEST CODESIZE PUSH2 0x1566 JUMP JUMPDEST SWAP2 SWAP1 PUSH2 0x2173 JUMPI DUP1 MLOAD DUP3 SSTORE PUSH1 0x20 DUP2 ADD MLOAD PUSH1 0x1 DUP4 ADD DUP1 SLOAD PUSH1 0x40 DUP5 ADD MLOAD PUSH1 0xFF PUSH1 0xA0 SHL SWAP1 ISZERO ISZERO PUSH1 0xA0 SHL AND PUSH1 0x1 PUSH1 0x1 PUSH1 0xA0 SHL SUB SWAP1 SWAP4 AND PUSH1 0x1 PUSH1 0x1 PUSH1 0xA8 SHL SUB NOT SWAP1 SWAP2 AND OR SWAP2 SWAP1 SWAP2 OR SWAP1 SSTORE PUSH1 0x2 DUP3 ADD PUSH1 0x60 DUP3 ADD MLOAD DUP1 MLOAD SWAP1 PUSH1 0x1 PUSH1 0x1 PUSH1 0x40 SHL SUB DUP3 GT PUSH2 0x10A9 JUMPI DUP2 SWAP1 PUSH2 0x17A8 DUP5 SLOAD PUSH2 0x1469 JUMP JUMPDEST PUSH1 0x1F DUP2 GT PUSH2 0x2141 JUMPI JUMPDEST POP PUSH1 0x20 SWAP1 PUSH1 0x1F DUP4 GT PUSH1 0x1 EQ PUSH2 0x20DB JUMPI PUSH1 0x0 SWAP3 PUSH2 0x20D0 JUMPI JUMPDEST POP POP DUP2 PUSH1 0x1 SHL SWAP2 PUSH1 0x0 NOT SWAP1 PUSH1 0x3 SHL SHR NOT AND OR SWAP1 SSTORE JUMPDEST PUSH1 0x3 DUP3 ADD PUSH1 0x80 DUP3 ADD MLOAD DUP1 MLOAD SWAP1 PUSH1 0x1 PUSH1 0x1 PUSH1 0x40 SHL SUB DUP3 GT PUSH2 0x10A9 JUMPI DUP2 SWAP1 PUSH2 0x1803 DUP5 SLOAD PUSH2 0x1469 JUMP JUMPDEST PUSH1 0x1F DUP2 GT PUSH2 0x209E JUMPI JUMPDEST POP PUSH1 0x20 SWAP1 PUSH1 0x1F DUP4 GT PUSH1 0x1 EQ PUSH2 0x2038 JUMPI PUSH1 0x0 SWAP3 PUSH2 0x202D JUMPI JUMPDEST POP POP DUP2 PUSH1 0x1 SHL SWAP2 PUSH1 0x0 NOT SWAP1 PUSH1 0x3 SHL SHR NOT AND OR SWAP1 SSTORE JUMPDEST PUSH1 0x4 DUP3 ADD PUSH1 0xA0 DUP3 ADD MLOAD DUP1 MLOAD SWAP1 PUSH1 0x1 PUSH1 0x1 PUSH1 0x40 SHL SUB DUP3 GT PUSH2 0x10A9 JUMPI DUP2 SWAP1 PUSH2 0x185E DUP5 SLOAD PUSH2 0x1469 JUMP JUMPDEST PUSH1 0x1F DUP2 GT PUSH2 0x1FFB JUMPI JUMPDEST POP PUSH1 0x20 SWAP1 PUSH1 0x1F DUP4 GT PUSH1 0x1 EQ PUSH2 0x1F95 JUMPI PUSH1 0x0 SWAP3 PUSH2 0x1F8A JUMPI JUMPDEST POP POP DUP2 PUSH1 0x1 SHL SWAP2 PUSH1 0x0 NOT SWAP1 PUSH1 0x3 SHL SHR NOT AND OR SWAP1 SSTORE JUMPDEST PUSH1 0x5 DUP3 ADD PUSH1 0xC0 DUP3 ADD MLOAD DUP1 MLOAD SWAP1 PUSH1 0x1 PUSH1 0x1 PUSH1 0x40 SHL SUB DUP3 GT PUSH2 0x10A9 JUMPI DUP2 SWAP1 PUSH2 0x18B9 DUP5 SLOAD PUSH2 0x1469 JUMP JUMPDEST PUSH1 0x1F DUP2 GT PUSH2 0x1F58 JUMPI JUMPDEST POP PUSH1 0x20 SWAP1 PUSH1 0x1F DUP4 GT PUSH1 0x1 EQ PUSH2 0x1EF2 JUMPI PUSH1 0x0 SWAP3 PUSH2 0x1EE7 JUMPI JUMPDEST POP POP DUP2 PUSH1 0x1 SHL SWAP2 PUSH1 0x0 NOT SWAP1 PUSH1 0x3 SHL SHR NOT AND OR SWAP1 SSTORE JUMPDEST PUSH1 0xE0 DUP2 ADD MLOAD SWAP3 DUP4 MLOAD PUSH1 0x1 PUSH1 0x1 PUSH1 0x40 SHL SUB DUP2 GT PUSH2 0x10A9 JUMPI PUSH2 0x1911 PUSH1 0x6 DUP6 ADD SLOAD PUSH2 0x1469 JUMP JUMPDEST PUSH1 0x1F DUP2 GT PUSH2 0x1EB2 JUMPI JUMPDEST POP PUSH1 0x20 SWAP5 PUSH1 0x1F DUP3 GT PUSH1 0x1 EQ PUSH2 0x1E46 JUMPI SWAP5 DUP2 SWAP3 SWAP4 SWAP5 SWAP6 PUSH1 0x0 SWAP3 PUSH2 0x1E3B JUMPI JUMPDEST POP POP DUP2 PUSH1 0x1 SHL SWAP2 PUSH1 0x0 NOT SWAP1 PUSH1 0x3 SHL SHR NOT AND OR PUSH1 0x6 DUP5 ADD SSTORE JUMPDEST PUSH2 0x100 DUP3 ADD MLOAD SWAP3 DUP4 MLOAD PUSH1 0x1 PUSH1 0x1 PUSH1 0x40 SHL SUB DUP2 GT PUSH2 0x10A9 JUMPI PUSH2 0x1973 PUSH1 0x7 DUP4 ADD SLOAD PUSH2 0x1469 JUMP JUMPDEST PUSH1 0x1F DUP2 GT PUSH2 0x1E06 JUMPI JUMPDEST POP PUSH1 0x20 PUSH1 0x1F DUP3 GT PUSH1 0x1 EQ PUSH2 0x1D97 JUMPI DUP2 SWAP3 SWAP4 SWAP5 SWAP6 PUSH1 0x0 SWAP3 PUSH2 0x1D8C JUMPI JUMPDEST POP POP DUP2 PUSH1 0x1 SHL SWAP2 PUSH1 0x0 NOT SWAP1 PUSH1 0x3 SHL SHR NOT AND OR PUSH1 0x7 DUP3 ADD SSTORE JUMPDEST PUSH2 0x120 DUP4 ADD MLOAD SWAP3 DUP4 MLOAD PUSH1 0x1 PUSH1 0x1 PUSH1 0x40 SHL SUB DUP2 GT PUSH2 0x10A9 JUMPI PUSH2 0x19D3 PUSH1 0x8 DUP5 ADD SLOAD PUSH2 0x1469 JUMP JUMPDEST PUSH1 0x1F DUP2 GT PUSH2 0x1D57 JUMPI JUMPDEST POP PUSH1 0x20 PUSH1 0x1F DUP3 GT PUSH1 0x1 EQ PUSH2 0x1CE8 JUMPI DUP2 SWAP3 SWAP4 SWAP5 SWAP6 PUSH1 0x0 SWAP3 PUSH2 0x1CDD JUMPI JUMPDEST POP POP DUP2 PUSH1 0x1 SHL SWAP2 PUSH1 0x0 NOT SWAP1 PUSH1 0x3 SHL SHR NOT AND OR PUSH1 0x8 DUP4 ADD SSTORE JUMPDEST PUSH1 0x9 DUP3 ADD PUSH2 0x140 DUP3 ADD MLOAD DUP1 MLOAD SWAP1 PUSH1 0x1 PUSH1 0x1 PUSH1 0x40 SHL SUB DUP3 GT PUSH2 0x10A9 JUMPI DUP2 SWAP1 PUSH2 0x1A36 DUP5 SLOAD PUSH2 0x1469 JUMP JUMPDEST PUSH1 0x1F DUP2 GT PUSH2 0x1CAB JUMPI JUMPDEST POP PUSH1 0x20 SWAP1 PUSH1 0x1F DUP4 GT PUSH1 0x1 EQ PUSH2 0x1C45 JUMPI PUSH1 0x0 SWAP3 PUSH2 0x1C3A JUMPI JUMPDEST POP POP DUP2 PUSH1 0x1 SHL SWAP2 PUSH1 0x0 NOT SWAP1 PUSH1 0x3 SHL SHR NOT AND OR SWAP1 SSTORE JUMPDEST PUSH2 0x160 DUP2 ADD MLOAD PUSH1 0xA DUP4 ADD SSTORE PUSH2 0x180 DUP2 ADD MLOAD DUP1 MLOAD PUSH1 0x1 PUSH1 0x40 SHL SWAP4 SWAP2 PUSH1 0xB DUP4 ADD SWAP1 DUP6 DUP4 GT PUSH2 0x10A9 JUMPI DUP2 SLOAD DUP4 DUP4 SSTORE DUP1 DUP5 LT PUSH2 0x1BCF JUMPI JUMPDEST POP PUSH1 0x20 ADD SWAP1 PUSH1 0x0 MSTORE PUSH1 0x20 PUSH1 0x0 KECCAK256 PUSH1 0x0 SWAP2 JUMPDEST DUP4 DUP4 LT PUSH2 0x1BB1 JUMPI POP POP POP POP PUSH1 0xC PUSH2 0x1A0 SWAP2 ADD SWAP2 ADD MLOAD DUP1 MLOAD SWAP3 DUP4 GT PUSH2 0x10A9 JUMPI DUP2 SLOAD DUP4 DUP4 SSTORE DUP1 DUP5 LT PUSH2 0x1B48 JUMPI JUMPDEST POP PUSH1 0x20 ADD SWAP1 PUSH1 0x0 MSTORE PUSH1 0x20 PUSH1 0x0 KECCAK256 PUSH1 0x0 SWAP2 JUMPDEST DUP4 DUP4 LT PUSH2 0x1AF8 JUMPI POP POP POP POP JUMP JUMPDEST PUSH1 0x3 PUSH1 0x20 DUP3 PUSH2 0x1B3C PUSH1 0x1 SWAP5 MLOAD DUP7 SWAP1 PUSH1 0x40 PUSH1 0x2 SWAP2 PUSH1 0x1 DUP1 PUSH1 0xA0 SHL SUB DUP2 MLOAD AND PUSH12 0xFFFFFFFFFFFFFFFFFFFFFFFF PUSH1 0xA0 SHL DUP6 SLOAD AND OR DUP5 SSTORE PUSH1 0x20 DUP2 ADD MLOAD PUSH1 0x1 DUP6 ADD SSTORE ADD MLOAD SWAP2 ADD SSTORE JUMP JUMPDEST ADD SWAP3 ADD SWAP3 ADD SWAP2 SWAP1 PUSH2 0x1AEB JUMP JUMPDEST DUP1 PUSH1 0x3 MUL SWAP1 PUSH1 0x3 DUP3 DIV SUB PUSH2 0x1B9B JUMPI DUP4 PUSH1 0x3 MUL PUSH1 0x3 DUP2 DIV DUP6 SUB PUSH2 0x1B9B JUMPI DUP4 PUSH1 0x0 MSTORE PUSH1 0x20 PUSH1 0x0 KECCAK256 SWAP2 DUP3 ADD SWAP2 ADD JUMPDEST DUP2 DUP2 LT PUSH2 0x1B80 JUMPI POP PUSH2 0x1ADA JUMP JUMPDEST DUP1 PUSH1 0x0 PUSH1 0x3 SWAP3 SSTORE PUSH1 0x0 PUSH1 0x1 DUP3 ADD SSTORE PUSH1 0x0 PUSH1 0x2 DUP3 ADD SSTORE ADD PUSH2 0x1B73 JUMP JUMPDEST PUSH4 0x4E487B71 PUSH1 0xE0 SHL PUSH1 0x0 MSTORE PUSH1 0x11 PUSH1 0x4 MSTORE PUSH1 0x24 PUSH1 0x0 REVERT JUMPDEST PUSH1 0x5 PUSH1 0x20 DUP3 PUSH2 0x1BC3 PUSH1 0x1 SWAP5 MLOAD DUP7 PUSH2 0x1504 JUMP JUMPDEST ADD SWAP3 ADD SWAP3 ADD SWAP2 SWAP1 PUSH2 0x1AAF JUMP JUMPDEST DUP1 PUSH1 0x5 MUL SWAP1 PUSH1 0x5 DUP3 DIV SUB PUSH2 0x1B9B JUMPI DUP4 PUSH1 0x5 MUL PUSH1 0x5 DUP2 DIV DUP6 SUB PUSH2 0x1B9B JUMPI DUP4 PUSH1 0x0 MSTORE PUSH1 0x20 PUSH1 0x0 KECCAK256 SWAP2 DUP3 ADD SWAP2 ADD JUMPDEST DUP2 DUP2 LT PUSH2 0x1C07 JUMPI POP PUSH2 0x1A9E JUMP JUMPDEST DUP1 PUSH1 0x0 PUSH1 0x5 SWAP3 SSTORE PUSH1 0x0 PUSH1 0x1 DUP3 ADD SSTORE PUSH2 0x1C21 PUSH1 0x2 DUP3 ADD PUSH2 0x14BA JUMP JUMPDEST PUSH1 0x0 PUSH1 0x3 DUP3 ADD SSTORE PUSH2 0x1C34 PUSH1 0x4 DUP3 ADD PUSH2 0x14BA JUMP JUMPDEST ADD PUSH2 0x1BFA JUMP JUMPDEST ADD MLOAD SWAP1 POP CODESIZE DUP1 PUSH2 0x1A56 JUMP JUMPDEST PUSH1 0x0 DUP6 DUP2 MSTORE PUSH1 0x20 DUP2 KECCAK256 SWAP4 POP PUSH1 0x1F NOT DUP6 AND SWAP1 JUMPDEST DUP2 DUP2 LT PUSH2 0x1C93 JUMPI POP SWAP1 DUP5 PUSH1 0x1 SWAP6 SWAP5 SWAP4 SWAP3 LT PUSH2 0x1C7A JUMPI JUMPDEST POP POP POP DUP2 SHL ADD SWAP1 SSTORE PUSH2 0x1A6B JUMP JUMPDEST ADD MLOAD PUSH1 0x0 NOT PUSH1 0xF8 DUP5 PUSH1 0x3 SHL AND SHR NOT AND SWAP1 SSTORE CODESIZE DUP1 DUP1 PUSH2 0x1C6D JUMP JUMPDEST SWAP3 SWAP4 PUSH1 0x20 PUSH1 0x1 DUP2 SWAP3 DUP8 DUP7 ADD MLOAD DUP2 SSTORE ADD SWAP6 ADD SWAP4 ADD PUSH2 0x1C57 JUMP JUMPDEST PUSH2 0x1CD7 SWAP1 DUP6 PUSH1 0x0 MSTORE PUSH1 0x20 PUSH1 0x0 KECCAK256 PUSH1 0x1F DUP6 ADD PUSH1 0x5 SHR DUP2 ADD SWAP2 PUSH1 0x20 DUP7 LT PUSH2 0x21B JUMPI PUSH1 0x1F ADD PUSH1 0x5 SHR ADD SWAP1 PUSH2 0x14A3 JUMP JUMPDEST CODESIZE PUSH2 0x1A3F JUMP JUMPDEST ADD MLOAD SWAP1 POP CODESIZE DUP1 PUSH2 0x19F7 JUMP JUMPDEST PUSH1 0x8 DUP5 ADD PUSH1 0x0 MSTORE PUSH1 0x20 PUSH1 0x0 KECCAK256 SWAP1 PUSH1 0x0 JUMPDEST PUSH1 0x1F NOT DUP5 AND DUP2 LT PUSH2 0x1D3F JUMPI POP PUSH1 0x1 SWAP4 SWAP5 SWAP6 SWAP7 DUP4 PUSH1 0x1F NOT DUP2 AND LT PUSH2 0x1D26 JUMPI JUMPDEST POP POP POP DUP2 SHL ADD PUSH1 0x8 DUP4 ADD SSTORE PUSH2 0x1A0F JUMP JUMPDEST ADD MLOAD PUSH1 0x0 NOT PUSH1 0xF8 DUP5 PUSH1 0x3 SHL AND SHR NOT AND SWAP1 SSTORE CODESIZE DUP1 DUP1 PUSH2 0x1D16 JUMP JUMPDEST SWAP1 SWAP2 PUSH1 0x20 PUSH1 0x1 DUP2 SWAP3 DUP6 DUP12 ADD MLOAD DUP2 SSTORE ADD SWAP4 ADD SWAP2 ADD PUSH2 0x1CF8 JUMP JUMPDEST PUSH2 0x1D86 SWAP1 PUSH1 0x8 DUP6 ADD PUSH1 0x0 MSTORE PUSH1 0x20 PUSH1 0x0 KECCAK256 PUSH1 0x1F DUP5 ADD PUSH1 0x5 SHR DUP2 ADD SWAP2 PUSH1 0x20 DUP6 LT PUSH2 0x21B JUMPI PUSH1 0x1F ADD PUSH1 0x5 SHR ADD SWAP1 PUSH2 0x14A3 JUMP JUMPDEST CODESIZE PUSH2 0x19DC JUMP JUMPDEST ADD MLOAD SWAP1 POP CODESIZE DUP1 PUSH2 0x1997 JUMP JUMPDEST PUSH1 0x7 DUP4 ADD PUSH1 0x0 MSTORE PUSH1 0x20 PUSH1 0x0 KECCAK256 SWAP1 PUSH1 0x0 JUMPDEST PUSH1 0x1F NOT DUP5 AND DUP2 LT PUSH2 0x1DEE JUMPI POP PUSH1 0x1 SWAP4 SWAP5 SWAP6 SWAP7 DUP4 PUSH1 0x1F NOT DUP2 AND LT PUSH2 0x1DD5 JUMPI JUMPDEST POP POP POP DUP2 SHL ADD PUSH1 0x7 DUP3 ADD SSTORE PUSH2 0x19AF JUMP JUMPDEST ADD MLOAD PUSH1 0x0 NOT PUSH1 0xF8 DUP5 PUSH1 0x3 SHL AND SHR NOT AND SWAP1 SSTORE CODESIZE DUP1 DUP1 PUSH2 0x1DC5 JUMP JUMPDEST SWAP1 SWAP2 PUSH1 0x20 PUSH1 0x1 DUP2 SWAP3 DUP6 DUP12 ADD MLOAD DUP2 SSTORE ADD SWAP4 ADD SWAP2 ADD PUSH2 0x1DA7 JUMP JUMPDEST PUSH2 0x1E35 SWAP1 PUSH1 0x7 DUP5 ADD PUSH1 0x0 MSTORE PUSH1 0x20 PUSH1 0x0 KECCAK256 PUSH1 0x1F DUP5 ADD PUSH1 0x5 SHR DUP2 ADD SWAP2 PUSH1 0x20 DUP6 LT PUSH2 0x21B JUMPI PUSH1 0x1F ADD PUSH1 0x5 SHR ADD SWAP1 PUSH2 0x14A3 JUMP JUMPDEST CODESIZE PUSH2 0x197C JUMP JUMPDEST ADD MLOAD SWAP1 POP CODESIZE DUP1 PUSH2 0x1937 JUMP JUMPDEST PUSH1 0x1F NOT DUP3 AND SWAP6 PUSH1 0x6 DUP7 ADD PUSH1 0x0 MSTORE PUSH1 0x20 PUSH1 0x0 KECCAK256 SWAP2 PUSH1 0x0 JUMPDEST DUP9 DUP2 LT PUSH2 0x1E9A JUMPI POP DUP4 PUSH1 0x1 SWAP6 SWAP7 SWAP8 SWAP9 LT PUSH2 0x1E81 JUMPI JUMPDEST POP POP POP DUP2 SHL ADD PUSH1 0x6 DUP5 ADD SSTORE PUSH2 0x194F JUMP JUMPDEST ADD MLOAD PUSH1 0x0 NOT PUSH1 0xF8 DUP5 PUSH1 0x3 SHL AND SHR NOT AND SWAP1 SSTORE CODESIZE DUP1 DUP1 PUSH2 0x1E71 JUMP JUMPDEST SWAP2 SWAP3 PUSH1 0x20 PUSH1 0x1 DUP2 SWAP3 DUP7 DUP6 ADD MLOAD DUP2 SSTORE ADD SWAP5 ADD SWAP3 ADD PUSH2 0x1E5C JUMP JUMPDEST PUSH2 0x1EE1 SWAP1 PUSH1 0x6 DUP7 ADD PUSH1 0x0 MSTORE PUSH1 0x20 PUSH1 0x0 KECCAK256 PUSH1 0x1F DUP5 ADD PUSH1 0x5 SHR DUP2 ADD SWAP2 PUSH1 0x20 DUP6 LT PUSH2 0x21B JUMPI PUSH1 0x1F ADD PUSH1 0x5 SHR ADD SWAP1 PUSH2 0x14A3 JUMP JUMPDEST CODESIZE PUSH2 0x191A JUMP JUMPDEST ADD MLOAD SWAP1 POP CODESIZE DUP1 PUSH2 0x18D9 JUMP JUMPDEST PUSH1 0x0 DUP6 DUP2 MSTORE PUSH1 0x20 DUP2 KECCAK256 SWAP4 POP PUSH1 0x1F NOT DUP6 AND SWAP1 JUMPDEST DUP2 DUP2 LT PUSH2 0x1F40 JUMPI POP SWAP1 DUP5 PUSH1 0x1 SWAP6 SWAP5 SWAP4 SWAP3 LT PUSH2 0x1F27 JUMPI JUMPDEST POP POP POP DUP2 SHL ADD SWAP1 SSTORE PUSH2 0x18EE JUMP JUMPDEST ADD MLOAD PUSH1 0x0 NOT PUSH1 0xF8 DUP5 PUSH1 0x3 SHL AND SHR NOT AND SWAP1 SSTORE CODESIZE DUP1 DUP1 PUSH2 0x1F1A JUMP JUMPDEST SWAP3 SWAP4 PUSH1 0x20 PUSH1 0x1 DUP2 SWAP3 DUP8 DUP7 ADD MLOAD DUP2 SSTORE ADD SWAP6 ADD SWAP4 ADD PUSH2 0x1F04 JUMP JUMPDEST PUSH2 0x1F84 SWAP1 DUP6 PUSH1 0x0 MSTORE PUSH1 0x20 PUSH1 0x0 KECCAK256 PUSH1 0x1F DUP6 ADD PUSH1 0x5 SHR DUP2 ADD SWAP2 PUSH1 0x20 DUP7 LT PUSH2 0x21B JUMPI PUSH1 0x1F ADD PUSH1 0x5 SHR ADD SWAP1 PUSH2 0x14A3 JUMP JUMPDEST CODESIZE PUSH2 0x18C2 JUMP JUMPDEST ADD MLOAD SWAP1 POP CODESIZE DUP1 PUSH2 0x187E JUMP JUMPDEST PUSH1 0x0 DUP6 DUP2 MSTORE PUSH1 0x20 DUP2 KECCAK256 SWAP4 POP PUSH1 0x1F NOT DUP6 AND SWAP1 JUMPDEST DUP2 DUP2 LT PUSH2 0x1FE3 JUMPI POP SWAP1 DUP5 PUSH1 0x1 SWAP6 SWAP5 SWAP4 SWAP3 LT PUSH2 0x1FCA JUMPI JUMPDEST POP POP POP DUP2 SHL ADD SWAP1 SSTORE PUSH2 0x1893 JUMP JUMPDEST ADD MLOAD PUSH1 0x0 NOT PUSH1 0xF8 DUP5 PUSH1 0x3 SHL AND SHR NOT AND SWAP1 SSTORE CODESIZE DUP1 DUP1 PUSH2 0x1FBD JUMP JUMPDEST SWAP3 SWAP4 PUSH1 0x20 PUSH1 0x1 DUP2 SWAP3 DUP8 DUP7 ADD MLOAD DUP2 SSTORE ADD SWAP6 ADD SWAP4 ADD PUSH2 0x1FA7 JUMP JUMPDEST PUSH2 0x2027 SWAP1 DUP6 PUSH1 0x0 MSTORE PUSH1 0x20 PUSH1 0x0 KECCAK256 PUSH1 0x1F DUP6 ADD PUSH1 0x5 SHR DUP2 ADD SWAP2 PUSH1 0x20 DUP7 LT PUSH2 0x21B JUMPI PUSH1 0x1F ADD PUSH1 0x5 SHR ADD SWAP1 PUSH2 0x14A3 JUMP JUMPDEST CODESIZE PUSH2 0x1867 JUMP JUMPDEST ADD MLOAD SWAP1 POP CODESIZE DUP1 PUSH2 0x1823 JUMP JUMPDEST PUSH1 0x0 DUP6 DUP2 MSTORE PUSH1 0x20 DUP2 KECCAK256 SWAP4 POP PUSH1 0x1F NOT DUP6 AND SWAP1 JUMPDEST DUP2 DUP2 LT PUSH2 0x2086 JUMPI POP SWAP1 DUP5 PUSH1 0x1 SWAP6 SWAP5 SWAP4 SWAP3 LT PUSH2 0x206D JUMPI JUMPDEST POP POP POP DUP2 SHL ADD SWAP1 SSTORE PUSH2 0x1838 JUMP JUMPDEST ADD MLOAD PUSH1 0x0 NOT PUSH1 0xF8 DUP5 PUSH1 0x3 SHL AND SHR NOT AND SWAP1 SSTORE CODESIZE DUP1 DUP1 PUSH2 0x2060 JUMP JUMPDEST SWAP3 SWAP4 PUSH1 0x20 PUSH1 0x1 DUP2 SWAP3 DUP8 DUP7 ADD MLOAD DUP2 SSTORE ADD SWAP6 ADD SWAP4 ADD PUSH2 0x204A JUMP JUMPDEST PUSH2 0x20CA SWAP1 DUP6 PUSH1 0x0 MSTORE PUSH1 0x20 PUSH1 0x0 KECCAK256 PUSH1 0x1F DUP6 ADD PUSH1 0x5 SHR DUP2 ADD SWAP2 PUSH1 0x20 DUP7 LT PUSH2 0x21B JUMPI PUSH1 0x1F ADD PUSH1 0x5 SHR ADD SWAP1 PUSH2 0x14A3 JUMP JUMPDEST CODESIZE PUSH2 0x180C JUMP JUMPDEST ADD MLOAD SWAP1 POP CODESIZE DUP1 PUSH2 0x17C8 JUMP JUMPDEST PUSH1 0x0 DUP6 DUP2 MSTORE PUSH1 0x20 DUP2 KECCAK256 SWAP4 POP PUSH1 0x1F NOT DUP6 AND SWAP1 JUMPDEST DUP2 DUP2 LT PUSH2 0x2129 JUMPI POP SWAP1 DUP5 PUSH1 0x1 SWAP6 SWAP5 SWAP4 SWAP3 LT PUSH2 0x2110 JUMPI JUMPDEST POP POP POP DUP2 SHL ADD SWAP1 SSTORE PUSH2 0x17DD JUMP JUMPDEST ADD MLOAD PUSH1 0x0 NOT PUSH1 0xF8 DUP5 PUSH1 0x3 SHL AND SHR NOT AND SWAP1 SSTORE CODESIZE DUP1 DUP1 PUSH2 0x2103 JUMP JUMPDEST SWAP3 SWAP4 PUSH1 0x20 PUSH1 0x1 DUP2 SWAP3 DUP8 DUP7 ADD MLOAD DUP2 SSTORE ADD SWAP6 ADD SWAP4 ADD PUSH2 0x20ED JUMP JUMPDEST PUSH2 0x216D SWAP1 DUP6 PUSH1 0x0 MSTORE PUSH1 0x20 PUSH1 0x0 KECCAK256 PUSH1 0x1F DUP6 ADD PUSH1 0x5 SHR DUP2 ADD SWAP2 PUSH1 0x20 DUP7 LT PUSH2 0x21B JUMPI PUSH1 0x1F ADD PUSH1 0x5 SHR ADD SWAP1 PUSH2 0x14A3 JUMP JUMPDEST CODESIZE PUSH2 0x17B1 JUMP JUMPDEST PUSH4 0x4E487B71 PUSH1 0xE0 SHL PUSH1 0x0 MSTORE PUSH1 0x0 PUSH1 0x4 MSTORE PUSH1 0x24 PUSH1 0x0 REVERT JUMPDEST PUSH2 0x21A1 SWAP1 PUSH1 0x20 PUSH1 0x40 MLOAD SWAP3 DUP3 DUP5 DUP1 SWAP5 MLOAD SWAP4 DUP5 SWAP3 ADD PUSH2 0x117D JUMP JUMPDEST DUP2 ADD SUB SWAP1 KECCAK256 SWAP1 JUMP JUMPDEST PUSH1 0x0 NOT DUP2 EQ PUSH2 0x1B9B JUMPI PUSH1 0x1 ADD SWAP1 JUMP JUMPDEST SWAP1 PUSH1 0x40 MLOAD SWAP2 DUP3 PUSH1 0x0 DUP3 SLOAD SWAP3 PUSH2 0x21CC DUP5 PUSH2 0x1469 JUMP JUMPDEST SWAP1 DUP2 DUP5 MSTORE PUSH1 0x1 SWAP5 DUP6 DUP2 AND SWAP1 DUP2 PUSH1 0x0 EQ PUSH2 0x2239 JUMPI POP PUSH1 0x1 EQ PUSH2 0x21F6 JUMPI JUMPDEST POP POP PUSH2 0x14DF SWAP3 POP SUB DUP4 PUSH2 0x10F5 JUMP JUMPDEST SWAP1 SWAP4 SWAP2 POP PUSH1 0x0 MSTORE PUSH1 0x20 SWAP1 DUP2 PUSH1 0x0 KECCAK256 SWAP4 PUSH1 0x0 SWAP2 JUMPDEST DUP2 DUP4 LT PUSH2 0x2221 JUMPI POP POP PUSH2 0x14DF SWAP4 POP DUP3 ADD ADD CODESIZE DUP1 PUSH2 0x21E8 JUMP JUMPDEST DUP6 SLOAD DUP9 DUP5 ADD DUP6 ADD MSTORE SWAP5 DUP6 ADD SWAP5 DUP8 SWAP5 POP SWAP2 DUP4 ADD SWAP2 PUSH2 0x2209 JUMP JUMPDEST SWAP2 POP POP PUSH2 0x14DF SWAP5 POP PUSH1 0x20 SWAP3 POP PUSH1 0xFF NOT AND DUP3 DUP5 ADD MSTORE ISZERO ISZERO PUSH1 0x5 SHL DUP3 ADD ADD CODESIZE DUP1 PUSH2 0x21E8 JUMP JUMPDEST SWAP1 PUSH1 0x40 MLOAD SWAP2 PUSH1 0x20 SWAP3 PUSH2 0x228A DUP5 DUP3 DUP2 PUSH2 0x227D DUP2 DUP4 ADD SWAP7 DUP8 DUP2 MLOAD SWAP4 DUP5 SWAP3 ADD PUSH2 0x117D JUMP JUMPDEST DUP2 ADD SUB DUP1 DUP5 MSTORE ADD DUP3 PUSH2 0x10F5 JUMP JUMPDEST MLOAD SWAP1 KECCAK256 SWAP2 PUSH2 0x22AA PUSH1 0x40 MLOAD SWAP2 DUP3 DUP2 PUSH2 0x227D DUP2 DUP4 ADD SWAP7 DUP8 DUP2 MLOAD SWAP4 DUP5 SWAP3 ADD PUSH2 0x117D JUMP JUMPDEST MLOAD SWAP1 KECCAK256 EQ SWAP1 JUMP JUMPDEST PUSH1 0x1 PUSH1 0x1 PUSH1 0x40 SHL SUB DUP2 GT PUSH2 0x10A9 JUMPI PUSH1 0x5 SHL PUSH1 0x20 ADD SWAP1 JUMP JUMPDEST SWAP1 DUP2 SLOAD PUSH2 0x22D4 DUP2 PUSH2 0x22B1 JUMP JUMPDEST SWAP3 PUSH1 0x40 SWAP4 PUSH2 0x22E4 DUP6 MLOAD SWAP2 DUP3 PUSH2 0x10F5 JUMP JUMPDEST DUP3 DUP2 MSTORE DUP1 SWAP5 PUSH1 0x20 DUP1 SWAP3 ADD SWAP3 PUSH1 0x0 MSTORE DUP2 PUSH1 0x0 KECCAK256 SWAP1 PUSH1 0x0 SWAP4 JUMPDEST DUP6 DUP6 LT PUSH2 0x230A JUMPI POP POP POP POP POP POP JUMP JUMPDEST PUSH1 0x5 DUP5 PUSH1 0x1 SWAP3 DUP5 MLOAD PUSH2 0x231B DUP2 PUSH2 0x10BF JUMP JUMPDEST DUP5 DUP1 PUSH1 0xA0 SHL SUB DUP8 SLOAD AND DUP2 MSTORE DUP5 DUP8 ADD SLOAD DUP4 DUP3 ADD MSTORE PUSH2 0x233A PUSH1 0x2 DUP9 ADD PUSH2 0x21B8 JUMP JUMPDEST DUP7 DUP3 ADD MSTORE PUSH1 0x3 DUP8 ADD SLOAD PUSH1 0x60 DUP3 ADD MSTORE PUSH2 0x2354 PUSH1 0x4 DUP9 ADD PUSH2 0x21B8 JUMP JUMPDEST PUSH1 0x80 DUP3 ADD MSTORE DUP2 MSTORE ADD SWAP4 ADD SWAP5 ADD SWAP4 SWAP2 PUSH2 0x22FB JUMP JUMPDEST SWAP1 DUP2 SLOAD PUSH2 0x2373 DUP2 PUSH2 0x22B1 JUMP JUMPDEST SWAP3 PUSH1 0x40 SWAP4 PUSH2 0x2383 DUP6 MLOAD SWAP2 DUP3 PUSH2 0x10F5 JUMP JUMPDEST DUP3 DUP2 MSTORE DUP1 SWAP5 PUSH1 0x20 DUP1 SWAP3 ADD SWAP3 PUSH1 0x0 MSTORE DUP2 PUSH1 0x0 KECCAK256 SWAP1 PUSH1 0x0 SWAP4 JUMPDEST DUP6 DUP6 LT PUSH2 0x23A9 JUMPI POP POP POP POP POP POP JUMP JUMPDEST PUSH1 0x3 DUP5 PUSH1 0x1 SWAP3 DUP5 MLOAD PUSH2 0x23BA DUP2 PUSH2 0x10DA JUMP JUMPDEST DUP5 DUP1 PUSH1 0xA0 SHL SUB DUP8 SLOAD AND DUP2 MSTORE DUP5 DUP8 ADD SLOAD DUP4 DUP3 ADD MSTORE PUSH1 0x2 DUP8 ADD SLOAD DUP7 DUP3 ADD MSTORE DUP2 MSTORE ADD SWAP4 ADD SWAP5 ADD SWAP4 SWAP2 PUSH2 0x239A JUMP JUMPDEST SWAP1 PUSH1 0x40 MLOAD PUSH2 0x23F1 DUP2 PUSH2 0x108D JUMP JUMPDEST PUSH2 0x1A0 PUSH2 0x24CD PUSH1 0xC DUP4 SWAP6 DUP1 SLOAD DUP6 MSTORE PUSH1 0xFF PUSH1 0x1 DUP3 ADD SLOAD PUSH1 0x1 DUP1 PUSH1 0xA0 SHL SUB DUP2 AND PUSH1 0x20 DUP9 ADD MSTORE PUSH1 0xA0 SHR AND ISZERO ISZERO PUSH1 0x40 DUP7 ADD MSTORE PUSH2 0x242B PUSH1 0x2 DUP3 ADD PUSH2 0x21B8 JUMP JUMPDEST PUSH1 0x60 DUP7 ADD MSTORE PUSH2 0x243C PUSH1 0x3 DUP3 ADD PUSH2 0x21B8 JUMP JUMPDEST PUSH1 0x80 DUP7 ADD MSTORE PUSH2 0x244D PUSH1 0x4 DUP3 ADD PUSH2 0x21B8 JUMP JUMPDEST PUSH1 0xA0 DUP7 ADD MSTORE PUSH2 0x245E PUSH1 0x5 DUP3 ADD PUSH2 0x21B8 JUMP JUMPDEST PUSH1 0xC0 DUP7 ADD MSTORE PUSH2 0x246F PUSH1 0x6 DUP3 ADD PUSH2 0x21B8 JUMP JUMPDEST PUSH1 0xE0 DUP7 ADD MSTORE PUSH2 0x2480 PUSH1 0x7 DUP3 ADD PUSH2 0x21B8 JUMP JUMPDEST PUSH2 0x100 DUP7 ADD MSTORE PUSH2 0x2492 PUSH1 0x8 DUP3 ADD PUSH2 0x21B8 JUMP JUMPDEST PUSH2 0x120 DUP7 ADD MSTORE PUSH2 0x24A4 PUSH1 0x9 DUP3 ADD PUSH2 0x21B8 JUMP JUMPDEST PUSH2 0x140 DUP7 ADD MSTORE PUSH1 0xA DUP2 ADD SLOAD PUSH2 0x160 DUP7 ADD MSTORE PUSH2 0x24C1 PUSH1 0xB DUP3 ADD PUSH2 0x22C8 JUMP JUMPDEST PUSH2 0x180 DUP7 ADD MSTORE ADD PUSH2 0x2367 JUMP JUMPDEST SWAP2 ADD MSTORE JUMP JUMPDEST SWAP1 PUSH2 0x24DC DUP3 PUSH2 0x22B1 JUMP JUMPDEST PUSH1 0x40 SWAP1 PUSH2 0x24EB DUP3 MLOAD SWAP2 DUP3 PUSH2 0x10F5 JUMP JUMPDEST DUP4 DUP2 MSTORE DUP1 SWAP4 PUSH2 0x24FC PUSH1 0x1F NOT SWAP2 PUSH2 0x22B1 JUMP JUMPDEST ADD SWAP2 PUSH1 0x0 JUMPDEST DUP4 DUP2 LT PUSH2 0x250E JUMPI POP POP POP POP JUMP JUMPDEST PUSH1 0x20 SWAP1 DUP3 MLOAD PUSH2 0x251C DUP2 PUSH2 0x108D JUMP JUMPDEST PUSH1 0x0 DUP2 MSTORE DUP3 PUSH1 0x0 DUP2 DUP4 ADD MSTORE PUSH1 0x0 DUP6 DUP4 ADD MSTORE PUSH1 0x60 DUP1 DUP1 DUP5 ADD MSTORE DUP1 PUSH1 0x80 DUP5 ADD MSTORE DUP1 PUSH1 0xA0 DUP5 ADD MSTORE DUP1 PUSH1 0xC0 DUP5 ADD MSTORE DUP1 PUSH1 0xE0 DUP5 ADD MSTORE DUP1 PUSH2 0x100 DUP5 ADD MSTORE DUP1 PUSH2 0x120 DUP5 ADD MSTORE DUP1 PUSH2 0x140 DUP5 ADD MSTORE PUSH1 0x0 PUSH2 0x160 DUP5 ADD MSTORE DUP1 PUSH2 0x180 DUP5 ADD MSTORE PUSH2 0x1A0 DUP4 ADD MSTORE DUP3 DUP7 ADD ADD MSTORE ADD PUSH2 0x2501 JUMP JUMPDEST DUP1 MLOAD DUP3 LT ISZERO PUSH2 0x1453 JUMPI PUSH1 0x20 SWAP2 PUSH1 0x5 SHL ADD ADD SWAP1 JUMP JUMPDEST PUSH1 0x5 SLOAD SWAP1 PUSH1 0x0 JUMPDEST DUP3 DUP2 LT PUSH2 0x25AB JUMPI POP POP POP PUSH1 0x0 SWAP1 JUMP JUMPDEST PUSH2 0x25BD DUP3 PUSH2 0x3D7 PUSH1 0x9 PUSH2 0x3D0 DUP6 PUSH2 0x1418 JUMP JUMPDEST PUSH2 0x25CF JUMPI PUSH2 0x25CA SWAP1 PUSH2 0x21A9 JUMP JUMPDEST PUSH2 0x259C JUMP JUMPDEST POP POP POP PUSH1 0x1 SWAP1 JUMP INVALID LOG2 PUSH5 0x6970667358 0x22 SLT KECCAK256 0xDD 0xEE PUSH10 0xB8DD8282E2E28CFBB70D 0xDA 0x25 SLOAD 0xA6 PUSH26 0x7A810525490B224DCB9C5558675364736F6C6343000814003300 "
        },
        "methodIdentifiers": {
          "addComment(string,uint256,string,string,address)": "93ec02f1",
          "addressToLastGetMetaverseToken(address)": "bddff4d8",
          "buyItem(string,address,uint256)": "d41aab23",
          "changeListingVisibility(string,bool)": "990d6459",
          "get1000MetaverseToken()": "e607a8ba",
          "getAllUserListings()": "9992b606",
          "getListingByProductType(string)": "9dee74d5",
          "getProceeds(address,string)": "a39249b8",
          "getUserListing()": "7791b330",
          "listItem(uint256,string,string,string,string,string,string,string,string,uint256)": "1a13cc59",
          "metaverseToken()": "3829f313",
          "productCodeExists(string)": "1cad3ac5",
          "setUsername(string)": "ed59313a",
          "updateListing(string,uint256,string,string,string,string,string)": "318bb5c7",
          "withdrawProceeds(string)": "a97ce3c2"
        }
      }
    }
  }
}