{
  "contracts/MetaverseMarketplace.sol": {
    "MetaverseMarketplace": {
      "abi": [
        {
          "inputs": [
            {
              "internalType": "address",
              "name": "_metaverseTokenAddress",
              "type": "address"
            }
          ],
          "stateMutability": "nonpayable",
          "type": "constructor"
        },
        {
          "inputs": [
            {
              "internalType": "address",
              "name": "senderAddress",
              "type": "address"
            }
          ],
          "name": "MetaverseMarketplace__AddressLessThan1DayForMetaverseToken",
          "type": "error"
        },
        {
          "inputs": [],
          "name": "MetaverseMarketplace__NoProceeds",
          "type": "error"
        },
        {
          "inputs": [],
          "name": "MetaverseMarketplace__PriceMustBeAboveZero",
          "type": "error"
        },
        {
          "inputs": [
            {
              "internalType": "string",
              "name": "productCode",
              "type": "string"
            },
            {
              "internalType": "address",
              "name": "seller",
              "type": "address"
            },
            {
              "internalType": "uint256",
              "name": "price",
              "type": "uint256"
            }
          ],
          "name": "MetaverseMarketplace__PriceNotMet",
          "type": "error"
        },
        {
          "inputs": [],
          "name": "ReentrancyGuardReentrantCall",
          "type": "error"
        },
        {
          "anonymous": false,
          "inputs": [
            {
              "indexed": true,
              "internalType": "address",
              "name": "commenter",
              "type": "address"
            },
            {
              "indexed": true,
              "internalType": "string",
              "name": "comment",
              "type": "string"
            },
            {
              "indexed": true,
              "internalType": "string",
              "name": "productCode",
              "type": "string"
            },
            {
              "indexed": false,
              "internalType": "address",
              "name": "seller",
              "type": "address"
            }
          ],
          "name": "CommentAdded",
          "type": "event"
        },
        {
          "anonymous": false,
          "inputs": [
            {
              "indexed": true,
              "internalType": "address",
              "name": "buyer",
              "type": "address"
            },
            {
              "indexed": true,
              "internalType": "string",
              "name": "productCode",
              "type": "string"
            },
            {
              "indexed": true,
              "internalType": "uint256",
              "name": "price",
              "type": "uint256"
            }
          ],
          "name": "ItemBought",
          "type": "event"
        },
        {
          "anonymous": false,
          "inputs": [
            {
              "indexed": true,
              "internalType": "address",
              "name": "seller",
              "type": "address"
            },
            {
              "indexed": true,
              "internalType": "uint256",
              "name": "price",
              "type": "uint256"
            },
            {
              "indexed": true,
              "internalType": "string",
              "name": "productCode",
              "type": "string"
            },
            {
              "indexed": false,
              "internalType": "string",
              "name": "title",
              "type": "string"
            }
          ],
          "name": "ItemListed",
          "type": "event"
        },
        {
          "anonymous": false,
          "inputs": [
            {
              "indexed": true,
              "internalType": "address",
              "name": "seller",
              "type": "address"
            },
            {
              "indexed": true,
              "internalType": "string",
              "name": "productCode",
              "type": "string"
            },
            {
              "indexed": true,
              "internalType": "bool",
              "name": "publish",
              "type": "bool"
            }
          ],
          "name": "ItemPublished",
          "type": "event"
        },
        {
          "anonymous": false,
          "inputs": [
            {
              "indexed": true,
              "internalType": "address",
              "name": "seller",
              "type": "address"
            },
            {
              "indexed": true,
              "internalType": "string",
              "name": "productCode",
              "type": "string"
            },
            {
              "indexed": true,
              "internalType": "string",
              "name": "title",
              "type": "string"
            },
            {
              "indexed": false,
              "internalType": "uint256",
              "name": "price",
              "type": "uint256"
            }
          ],
          "name": "ListingUpdated",
          "type": "event"
        },
        {
          "anonymous": false,
          "inputs": [
            {
              "indexed": true,
              "internalType": "address",
              "name": "person",
              "type": "address"
            }
          ],
          "name": "MetaverseAirdrop",
          "type": "event"
        },
        {
          "anonymous": false,
          "inputs": [
            {
              "indexed": true,
              "internalType": "address",
              "name": "person",
              "type": "address"
            },
            {
              "indexed": true,
              "internalType": "string",
              "name": "currency",
              "type": "string"
            },
            {
              "indexed": true,
              "internalType": "uint256",
              "name": "amount",
              "type": "uint256"
            }
          ],
          "name": "ProceedsWithdrawn",
          "type": "event"
        },
        {
          "anonymous": false,
          "inputs": [
            {
              "indexed": true,
              "internalType": "address",
              "name": "owner",
              "type": "address"
            },
            {
              "indexed": true,
              "internalType": "string",
              "name": "username",
              "type": "string"
            }
          ],
          "name": "SetUsername",
          "type": "event"
        },
        {
          "inputs": [
            {
              "internalType": "string",
              "name": "comment",
              "type": "string"
            },
            {
              "internalType": "uint256",
              "name": "rating",
              "type": "uint256"
            },
            {
              "internalType": "string",
              "name": "dateString",
              "type": "string"
            },
            {
              "internalType": "string",
              "name": "productCode",
              "type": "string"
            },
            {
              "internalType": "address",
              "name": "seller",
              "type": "address"
            }
          ],
          "name": "addComment",
          "outputs": [],
          "stateMutability": "nonpayable",
          "type": "function"
        },
        {
          "inputs": [
            {
              "internalType": "address",
              "name": "",
              "type": "address"
            }
          ],
          "name": "addressToLastGetMetaverseToken",
          "outputs": [
            {
              "internalType": "uint256",
              "name": "",
              "type": "uint256"
            }
          ],
          "stateMutability": "view",
          "type": "function"
        },
        {
          "inputs": [
            {
              "internalType": "string",
              "name": "productCode",
              "type": "string"
            },
            {
              "internalType": "address",
              "name": "seller",
              "type": "address"
            },
            {
              "internalType": "uint256",
              "name": "quantity",
              "type": "uint256"
            }
          ],
          "name": "buyItem",
          "outputs": [],
          "stateMutability": "payable",
          "type": "function"
        },
        {
          "inputs": [
            {
              "internalType": "string",
              "name": "productCode",
              "type": "string"
            },
            {
              "internalType": "bool",
              "name": "publish",
              "type": "bool"
            }
          ],
          "name": "changeListingVisibility",
          "outputs": [],
          "stateMutability": "nonpayable",
          "type": "function"
        },
        {
          "inputs": [],
          "name": "get1000MetaverseToken",
          "outputs": [],
          "stateMutability": "nonpayable",
          "type": "function"
        },
        {
          "inputs": [],
          "name": "getAllUserListings",
          "outputs": [
            {
              "components": [
                {
                  "internalType": "uint256",
                  "name": "price",
                  "type": "uint256"
                },
                {
                  "internalType": "address",
                  "name": "seller",
                  "type": "address"
                },
                {
                  "internalType": "bool",
                  "name": "published",
                  "type": "bool"
                },
                {
                  "internalType": "string",
                  "name": "productType",
                  "type": "string"
                },
                {
                  "internalType": "string",
                  "name": "title",
                  "type": "string"
                },
                {
                  "internalType": "string",
                  "name": "description",
                  "type": "string"
                },
                {
                  "internalType": "string",
                  "name": "imageUrl",
                  "type": "string"
                },
                {
                  "internalType": "string",
                  "name": "currency",
                  "type": "string"
                },
                {
                  "internalType": "string",
                  "name": "productUrl",
                  "type": "string"
                },
                {
                  "internalType": "string",
                  "name": "productInfo",
                  "type": "string"
                },
                {
                  "internalType": "string",
                  "name": "productCode",
                  "type": "string"
                },
                {
                  "internalType": "uint256",
                  "name": "nftTokenId",
                  "type": "uint256"
                },
                {
                  "components": [
                    {
                      "internalType": "address",
                      "name": "commenter",
                      "type": "address"
                    },
                    {
                      "internalType": "uint256",
                      "name": "rating",
                      "type": "uint256"
                    },
                    {
                      "internalType": "string",
                      "name": "comment",
                      "type": "string"
                    },
                    {
                      "internalType": "uint256",
                      "name": "time",
                      "type": "uint256"
                    },
                    {
                      "internalType": "string",
                      "name": "dateString",
                      "type": "string"
                    }
                  ],
                  "internalType": "struct MetaverseMarketplace.Comment[]",
                  "name": "comments",
                  "type": "tuple[]"
                },
                {
                  "components": [
                    {
                      "internalType": "address",
                      "name": "buyer",
                      "type": "address"
                    },
                    {
                      "internalType": "uint256",
                      "name": "quantity",
                      "type": "uint256"
                    },
                    {
                      "internalType": "uint256",
                      "name": "totalPrice",
                      "type": "uint256"
                    }
                  ],
                  "internalType": "struct MetaverseMarketplace.Buyer[]",
                  "name": "buyers",
                  "type": "tuple[]"
                }
              ],
              "internalType": "struct MetaverseMarketplace.Listing[]",
              "name": "",
              "type": "tuple[]"
            }
          ],
          "stateMutability": "view",
          "type": "function"
        },
        {
          "inputs": [
            {
              "internalType": "string",
              "name": "productType",
              "type": "string"
            }
          ],
          "name": "getListingByProductType",
          "outputs": [
            {
              "components": [
                {
                  "internalType": "uint256",
                  "name": "price",
                  "type": "uint256"
                },
                {
                  "internalType": "address",
                  "name": "seller",
                  "type": "address"
                },
                {
                  "internalType": "bool",
                  "name": "published",
                  "type": "bool"
                },
                {
                  "internalType": "string",
                  "name": "productType",
                  "type": "string"
                },
                {
                  "internalType": "string",
                  "name": "title",
                  "type": "string"
                },
                {
                  "internalType": "string",
                  "name": "description",
                  "type": "string"
                },
                {
                  "internalType": "string",
                  "name": "imageUrl",
                  "type": "string"
                },
                {
                  "internalType": "string",
                  "name": "currency",
                  "type": "string"
                },
                {
                  "internalType": "string",
                  "name": "productUrl",
                  "type": "string"
                },
                {
                  "internalType": "string",
                  "name": "productInfo",
                  "type": "string"
                },
                {
                  "internalType": "string",
                  "name": "productCode",
                  "type": "string"
                },
                {
                  "internalType": "uint256",
                  "name": "nftTokenId",
                  "type": "uint256"
                },
                {
                  "components": [
                    {
                      "internalType": "address",
                      "name": "commenter",
                      "type": "address"
                    },
                    {
                      "internalType": "uint256",
                      "name": "rating",
                      "type": "uint256"
                    },
                    {
                      "internalType": "string",
                      "name": "comment",
                      "type": "string"
                    },
                    {
                      "internalType": "uint256",
                      "name": "time",
                      "type": "uint256"
                    },
                    {
                      "internalType": "string",
                      "name": "dateString",
                      "type": "string"
                    }
                  ],
                  "internalType": "struct MetaverseMarketplace.Comment[]",
                  "name": "comments",
                  "type": "tuple[]"
                },
                {
                  "components": [
                    {
                      "internalType": "address",
                      "name": "buyer",
                      "type": "address"
                    },
                    {
                      "internalType": "uint256",
                      "name": "quantity",
                      "type": "uint256"
                    },
                    {
                      "internalType": "uint256",
                      "name": "totalPrice",
                      "type": "uint256"
                    }
                  ],
                  "internalType": "struct MetaverseMarketplace.Buyer[]",
                  "name": "buyers",
                  "type": "tuple[]"
                }
              ],
              "internalType": "struct MetaverseMarketplace.Listing[]",
              "name": "",
              "type": "tuple[]"
            }
          ],
          "stateMutability": "view",
          "type": "function"
        },
        {
          "inputs": [
            {
              "internalType": "address",
              "name": "seller",
              "type": "address"
            },
            {
              "internalType": "string",
              "name": "currency",
              "type": "string"
            }
          ],
          "name": "getProceeds",
          "outputs": [
            {
              "internalType": "uint256",
              "name": "",
              "type": "uint256"
            }
          ],
          "stateMutability": "view",
          "type": "function"
        },
        {
          "inputs": [],
          "name": "getUserListing",
          "outputs": [
            {
              "components": [
                {
                  "internalType": "uint256",
                  "name": "price",
                  "type": "uint256"
                },
                {
                  "internalType": "address",
                  "name": "seller",
                  "type": "address"
                },
                {
                  "internalType": "bool",
                  "name": "published",
                  "type": "bool"
                },
                {
                  "internalType": "string",
                  "name": "productType",
                  "type": "string"
                },
                {
                  "internalType": "string",
                  "name": "title",
                  "type": "string"
                },
                {
                  "internalType": "string",
                  "name": "description",
                  "type": "string"
                },
                {
                  "internalType": "string",
                  "name": "imageUrl",
                  "type": "string"
                },
                {
                  "internalType": "string",
                  "name": "currency",
                  "type": "string"
                },
                {
                  "internalType": "string",
                  "name": "productUrl",
                  "type": "string"
                },
                {
                  "internalType": "string",
                  "name": "productInfo",
                  "type": "string"
                },
                {
                  "internalType": "string",
                  "name": "productCode",
                  "type": "string"
                },
                {
                  "internalType": "uint256",
                  "name": "nftTokenId",
                  "type": "uint256"
                },
                {
                  "components": [
                    {
                      "internalType": "address",
                      "name": "commenter",
                      "type": "address"
                    },
                    {
                      "internalType": "uint256",
                      "name": "rating",
                      "type": "uint256"
                    },
                    {
                      "internalType": "string",
                      "name": "comment",
                      "type": "string"
                    },
                    {
                      "internalType": "uint256",
                      "name": "time",
                      "type": "uint256"
                    },
                    {
                      "internalType": "string",
                      "name": "dateString",
                      "type": "string"
                    }
                  ],
                  "internalType": "struct MetaverseMarketplace.Comment[]",
                  "name": "comments",
                  "type": "tuple[]"
                },
                {
                  "components": [
                    {
                      "internalType": "address",
                      "name": "buyer",
                      "type": "address"
                    },
                    {
                      "internalType": "uint256",
                      "name": "quantity",
                      "type": "uint256"
                    },
                    {
                      "internalType": "uint256",
                      "name": "totalPrice",
                      "type": "uint256"
                    }
                  ],
                  "internalType": "struct MetaverseMarketplace.Buyer[]",
                  "name": "buyers",
                  "type": "tuple[]"
                }
              ],
              "internalType": "struct MetaverseMarketplace.Listing[]",
              "name": "",
              "type": "tuple[]"
            }
          ],
          "stateMutability": "view",
          "type": "function"
        },
        {
          "inputs": [
            {
              "internalType": "uint256",
              "name": "price",
              "type": "uint256"
            },
            {
              "internalType": "string",
              "name": "productType",
              "type": "string"
            },
            {
              "internalType": "string",
              "name": "title",
              "type": "string"
            },
            {
              "internalType": "string",
              "name": "description",
              "type": "string"
            },
            {
              "internalType": "string",
              "name": "imageUrl",
              "type": "string"
            },
            {
              "internalType": "string",
              "name": "currency",
              "type": "string"
            },
            {
              "internalType": "string",
              "name": "productUrl",
              "type": "string"
            },
            {
              "internalType": "string",
              "name": "productInfo",
              "type": "string"
            },
            {
              "internalType": "string",
              "name": "productCode",
              "type": "string"
            },
            {
              "internalType": "uint256",
              "name": "nftTokenId",
              "type": "uint256"
            }
          ],
          "name": "listItem",
          "outputs": [],
          "stateMutability": "nonpayable",
          "type": "function"
        },
        {
          "inputs": [],
          "name": "metaverseToken",
          "outputs": [
            {
              "internalType": "contract IERC20",
              "name": "",
              "type": "address"
            }
          ],
          "stateMutability": "view",
          "type": "function"
        },
        {
          "inputs": [
            {
              "internalType": "string",
              "name": "newUsername",
              "type": "string"
            }
          ],
          "name": "setUsername",
          "outputs": [],
          "stateMutability": "nonpayable",
          "type": "function"
        },
        {
          "inputs": [
            {
              "internalType": "string",
              "name": "productCode",
              "type": "string"
            },
            {
              "internalType": "uint256",
              "name": "price",
              "type": "uint256"
            },
            {
              "internalType": "string",
              "name": "title",
              "type": "string"
            },
            {
              "internalType": "string",
              "name": "description",
              "type": "string"
            },
            {
              "internalType": "string",
              "name": "productInfo",
              "type": "string"
            },
            {
              "internalType": "string",
              "name": "productUrl",
              "type": "string"
            },
            {
              "internalType": "string",
              "name": "imageUrl",
              "type": "string"
            }
          ],
          "name": "updateListing",
          "outputs": [],
          "stateMutability": "nonpayable",
          "type": "function"
        },
        {
          "inputs": [
            {
              "internalType": "string",
              "name": "currency",
              "type": "string"
            }
          ],
          "name": "withdrawProceeds",
          "outputs": [],
          "stateMutability": "nonpayable",
          "type": "function"
        }
      ],
      "evm": {
        "bytecode": {
          "linkReferences": {},
          "object": "60803461007957601f61261238819003918201601f19168301916001600160401b0383118484101761007e5780849260209460405283398101031261007957516001600160a01b03811690819003610079576001600055600480546001600160a01b03191691909117905560405161257d90816100958239f35b600080fd5b634e487b7160e01b600052604160045260246000fdfe608060405260048036101561001357600080fd5b6000803560e01c80631a13cc5914610e50578063318bb5c714610bfe5780633829f31314610bd65780637791b33014610b5657806393ec02f1146109c8578063990d6459146108f35780639992b606146108675780639dee74d5146107c4578063a39249b814610748578063a97ce3c2146105f6578063bddff4d8146105bd578063d41aab231461034a578063e607a8ba146102385763ed59313a146100b857600080fd5b3461023557602080600319360112610231576001600160401b0392803584811161022d576100e990369083016110e3565b91338452600281526040842091835195861161021a575061010a825461141b565b601f81116101e1575b5080601f861160011461017a575093808495610147959161016f575b508160011b916000199060031b1c191617905561213b565b337fcfa484be7b1d89ac1b8203c2067a8efdffde3d5e5ec8a446cf9c54cb01c7e20b8380a380f35b90508301513861012f565b90601f1986168386528286209286905b8282106101c95750509186916101479697600194106101b0575b5050811b01905561213b565b85015160001960f88460031b161c1916905538806101a4565b80600185968294968a0151815501950193019061018a565b61020a90838652828620601f880160051c810191848910610210575b601f0160051c0190611455565b38610113565b90915081906101fd565b634e487b7160e01b855260419052602484fd5b8380fd5b5080fd5b80fd5b5034610235578060031936011261023557338152602060038152604082205442034281116103375762015180116103205780829333845260038252426040852055604460018060a01b0382541691604051958693849263a9059cbb60e01b84523390840152683635c9adc5dea0000060248401525af18015610315576102e2575b82337f561f98adfb5df58a7c3c03f4ada643cc46c1a5291389819dbd6d01fe490481498280a280f35b81813d831161030e575b6102f681836110a7565b810103126102315751801515036102355738806102b9565b503d6102ec565b6040513d85823e3d90fd5b60405163fca47e3160e01b81523381850152602490fd5b634e487b7160e01b835260118452602483fd5b5090606090816003193601126105b95780356001600160401b03811161022d5761037790369083016110e3565b6001600160a01b0360248035828116959394919391908690036105b55760449384359260028954146105a45760028955885b600554811015610596576103d1886103cc60096103c5856113ca565b500161216a565b61220e565b6103e3576103de9061215b565b6103a9565b949596976103f96103f3876113ca565b50612396565b97885191823410610567575050505085519485840295848704148415171561055557604051956104288761108c565b338752602094858801526040870152838701511688526001938484526104658460408b2060e08a015190826040519483868095519384920161112f565b8201908152030190208054903482018092116105435755600c90610488906113ca565b500191825494600160401b86101561053157850180845585101561052057505086528520825160039092020180546001600160a01b0319166001600160a01b0392909216919091178155602082015160018201556040909101516002909101556104f390519161213b565b337f253fcd678c758e0e03dbf3a0243701c7439c306a61158b3c522a8119772990108480a45b6001815580f35b634e487b7160e01b89526032905287fd5b50634e487b7160e01b89526041905287fd5b634e487b7160e01b8b5260118552838bfd5b50634e487b7160e01b88526011825287fd5b604051630e90db8560e31b81529586019390935284939261058b606486018c611152565b938501528301520390fd5b505050505050505050610519565b604051633ee5aeb560e01b81528390fd5b8680fd5b8280fd5b5034610235576020366003190112610235576020906040906001600160a01b036105e56113b4565b168152600383522054604051908152f35b509034610231576020806003193601126105b95781356001600160401b03811161022d5761062790369084016110e3565b338452600182526040842060405183818451938286019461064981848861112f565b820190815203019020549081156107375761067c848792338452600182526040842060405180948193895192839161112f565b820190815203019020558480808084335af191823d15610732573d6106a0816110c8565b906106ae60405192836110a7565b815287863d92013e5b6106fd575b5050156106c7578280f35b60405162461bcd60e51b815291820152601060248201526f5472616e73666572206661696c65642160801b604482015260649150fd5b6107069061213b565b337ff2ca3efe12f71d386ef0fd2b75ebbef402882711943ccb42d5bdb696fa7a13418780a438806106bc565b6106b7565b60405163125d726b60e21b81528590fd5b509034610231576040366003190112610231576107636113b4565b906024356001600160401b03811161022d5791604060209461078c86946107b2963691016110e3565b6001600160a01b039093168152600184522060405182519094859382908590870161112f565b82019081520301902054604051908152f35b509034610231576020366003190112610231578035906001600160401b0382116105b9576107f4913691016110e3565b6005549061080182612484565b925b82811061081c57604051806108188682611177565b0390f35b80610832836103cc60026103c561083b966113ca565b6108405761215b565b610803565b61084c6103f3826113ca565b6108568287612533565b526108618186612533565b5061215b565b503461023557806003193601126102355760055461088481612263565b9061089260405192836110a7565b808252600583527f036b6384b5eca791c62761152d0c79bb0604c104a5fb6f4eb0703f3154bb3db09260208084015b8383106108d657604051806108188782611177565b600d826001926108e589612396565b8152019601920191946108c1565b509034610231576040366003190112610231578035906001600160401b0382116105b957610923913691016110e3565b602435908115159081830361022d57835b6005548110156109c157610950826103cc60096103c5856113ca565b6109625761095d9061215b565b610934565b61099992936001610975610994936113ca565b5001805460ff60a01b191691151560a01b60ff60a01b16919091179055565b61213b565b337f51dabe03dbc9869cdc42f327348910c055732b793c7aaade368a32d8f3658e1e8480a480f35b5050505080f35b5090346102315760a0366003190112610231576001600160401b03813581811161022d576109f990369084016110e3565b906024928335926044358381116105b557610a1790369084016110e3565b926064359081116105b557610a2f90369084016110e3565b926084356001600160a01b0381169390849003610b5257875b60058054821015610b4657610a65876103cc60096103c5866113ca565b610a785750610a739061215b565b610a48565b9192939495969790610a8b600b916113ca565b50019060405194610a9b86611071565b3386526020998a8701528660408701524260608701526080860152815493600160401b851015610b355760018501808455851015610b24575050610b1793610b11937f8bb52eee1b68032569fa2c483528d7d2b7db7824b9704ee675f72029562208659693610994938c528a8c209102016114b6565b9361213b565b936040519283523392a480f35b634e487b7160e01b8b526032905289fd5b634e487b7160e01b8b526041905289fd5b50505050505050505080f35b8780fd5b5034610235578060031936011261023557600554610b7381612484565b915b818110610b8a57604051806108188582611177565b80610b97610bb0926113ca565b50600101546001600160a01b03163314610bb55761215b565b610b75565b610bc16103f3826113ca565b610bcb8286612533565b526108618185612533565b509034610231578160031936011261023157546040516001600160a01b039091168152602090f35b5090346102315760e0366003190112610231576001600160401b03813581811161022d57610c2f90369084016110e3565b604435828111610e4c57610c4690369085016110e3565b91606435818111610e4857610c5e90369086016110e3565b936084358281116105b557610c7690369083016110e3565b9160a435818111610b5257610c8e90369084016110e3565b9160c435918211610b5257610ca5913691016110e3565b91865b600554811015610e3e57610cc4856103cc60096103c5856113ca565b610cd657610cd19061215b565b610ca8565b92939495610ce3846113ca565b506001908101546001600160a01b03169590610cfe866113ca565b50015492610d0b866113ca565b5094610d16876113ca565b50610d20886113ca565b5093610d2b896113ca565b50600a015495610d3a8a6113ca565b5097610d458b6113ca565b50996040519c610d548e61103f565b6024358e5260208e015260ff60a092831c16151560408e0152610d799060020161216a565b60608d01528d60808d01528b015260c08a0152600601610d989061216a565b60e0890152610100880152610120870152600901610db59061216a565b610140860152610160850152600b01610dcd9061227a565b610180840152600c01610ddf90612319565b6101a0830152610dee906113ca565b610df892916116f0565b610e019061213b565b90610e0b9061213b565b906040516024358152339060207f384c5f98880fad6ed933597fe4becd24246db16d5a262945362c7ace0a0e47b591a480f35b5050505050505080f35b8580fd5b8480fd5b5090346102315761014090816003193601126105b9578035906001600160401b0390602435828111610e4857610e8990369083016110e3565b906044358381116105b557610ea190369083016110e3565b94606435848111610b5257610eb990369084016110e3565b9360843581811161103b57610ed190369085016110e3565b60a43582811161103757610ee890369086016110e3565b60c43583811161103357610eff90369087016110e3565b9160e43584811161102f57610f1790369088016110e3565b936101043590811161102f57610f3090369088016110e3565b97891561101e579088959493929160405198610f4b8a61103f565b8b8a523360208b01528d60408b015260608a01528b60808a015260a089015260c088015260e087015261010086015261012085015283015261012435610160830152606061018083015260606101a083015260055490600160401b82101561100b5750610fcc9291610fc682600161099494016005556113ca565b906116f0565b917f9ec512f6157daf19471fdb4abc754cd622ce54571fda42c4c416ff378b041583604051602081528061100533946020830190611152565b0390a480f35b634e487b7160e01b875260419052602486fd5b604051635ebde5f560e11b81528790fd5b8b80fd5b8a80fd5b8980fd5b8880fd5b6101c081019081106001600160401b0382111761105b57604052565b634e487b7160e01b600052604160045260246000fd5b60a081019081106001600160401b0382111761105b57604052565b606081019081106001600160401b0382111761105b57604052565b90601f801991011681019081106001600160401b0382111761105b57604052565b6001600160401b03811161105b57601f01601f191660200190565b81601f8201121561112a578035906110fa826110c8565b9261110860405194856110a7565b8284526020838301011161112a57816000926020809301838601378301015290565b600080fd5b60005b8381106111425750506000910152565b8181015183820152602001611132565b9060209161116b8151809281855285808601910161112f565b601f01601f1916010190565b602081016020825282518091526040820191602060408360051b8301019401926000915b8383106111aa57505050505090565b9091929394603f198282030183528551908151815260018060a01b03602083015116602082015260408201511515604082015261129161127d61126961125561124261122f61121d61120b60608a01516101c08060608c01528a0190611152565b60808a015189820360808b0152611152565b60a089015188820360a08a0152611152565b60c0808901519088830390890152611152565b60e0808801519087830390880152611152565b610100808701519086830390870152611152565b610120808601519085830390860152611152565b610140808501519084830390850152611152565b90610160808401519082015261018091828401519282820390830152825180825260208201906020808260051b85010195019260005b8281106113445750505050506101a08093015192818303910152602080835192838152019201906000905b808210611311575050506020806001929701930193019193929061119b565b9091926020606060019260408751858060a01b0381511683528481015185840152015160408201520194019201906112f2565b90919293956020806113a7600193601f198782030189528a5190858060a01b0382511681528382015184820152608061138c604084015160a0604085015260a0840190611152565b92606081015160608401520151906080818403910152611152565b98019501939291016112c7565b600435906001600160a01b038216820361112a57565b60055481101561140557600d906005600052027f036b6384b5eca791c62761152d0c79bb0604c104a5fb6f4eb0703f3154bb3db00190600090565b634e487b7160e01b600052603260045260246000fd5b90600182811c9216801561144b575b602083101461143557565b634e487b7160e01b600052602260045260246000fd5b91607f169161142a565b818110611460575050565b60008155600101611455565b611476815461141b565b9081611480575050565b81601f600093116001146114935750555b565b9080839182526114b2601f60208420940160051c840160018501611455565b5555565b60018060a01b038251166bffffffffffffffffffffffff60a01b825416178155602080830151916001928382015560028101916040850151918251936001600160401b039485811161105b5761150c825461141b565b94601f958681116116c2575b5084908683116001146116545791806004949260809694600092611649575b5050600019600383901b1c191690891b1790555b606088015160038201550195015190815193841161105b5761156d865461141b565b838111611611575b50809284116001146115ae57509282939183926000946115a3575b50501b916000199060031b1c1916179055565b015192503880611590565b919083601f1981168760005284600020946000905b888383106115f757505050106115de575b505050811b019055565b015160001960f88460031b161c191690553880806115d4565b8587015188559096019594850194879350908101906115c3565b61163a9087600052826000208580880160051c820192858910611640575b0160051c0190611455565b38611575565b9250819261162f565b015190503880611537565b889291601f1983169185600052876000209260005b898282106116ac5750509160809795939185600498969410611693575b505050811b01905561154b565b015160001960f88460031b161c19169055388080611686565b8385015186558d97909501949384019301611669565b6116ea9084600052866000208880860160051c820192898710611640570160051c0190611455565b38611518565b919061212557805182556020810151600183018054604084015160ff60a01b90151560a01b166001600160a01b039093166001600160a81b0319909116179190911790556002820160608201518051906001600160401b03821161105b57819061175a845461141b565b601f81116120f3575b50602090601f831160011461208d57600092612082575b50508160011b916000199060031b1c19161790555b6003820160808201518051906001600160401b03821161105b5781906117b5845461141b565b601f8111612050575b50602090601f8311600114611fea57600092611fdf575b50508160011b916000199060031b1c19161790555b6004820160a08201518051906001600160401b03821161105b578190611810845461141b565b601f8111611fad575b50602090601f8311600114611f4757600092611f3c575b50508160011b916000199060031b1c19161790555b6005820160c08201518051906001600160401b03821161105b57819061186b845461141b565b601f8111611f0a575b50602090601f8311600114611ea457600092611e99575b50508160011b916000199060031b1c19161790555b60e08101519283516001600160401b03811161105b576118c3600685015461141b565b601f8111611e64575b50602094601f8211600114611df857948192939495600092611ded575b50508160011b916000199060031b1c19161760068401555b6101008201519283516001600160401b03811161105b57611925600783015461141b565b601f8111611db8575b506020601f8211600114611d49578192939495600092611d3e575b50508160011b916000199060031b1c19161760078201555b6101208301519283516001600160401b03811161105b57611985600884015461141b565b601f8111611d09575b506020601f8211600114611c9a578192939495600092611c8f575b50508160011b916000199060031b1c19161760088301555b600982016101408201518051906001600160401b03821161105b5781906119e8845461141b565b601f8111611c5d575b50602090601f8311600114611bf757600092611bec575b50508160011b916000199060031b1c19161790555b610160810151600a8301556101808101518051600160401b9391600b83019085831161105b578154838355808410611b81575b506020019060005260206000206000915b838310611b635750505050600c6101a09101910151805192831161105b578154838355808410611afa575b506020019060005260206000206000915b838310611aaa5750505050565b6003602082611aee600194518690604060029160018060a01b038151166bffffffffffffffffffffffff60a01b855416178455602081015160018501550151910155565b01920192019190611a9d565b80600302906003820403611b4d5783600302600381048503611b4d5783600052602060002091820191015b818110611b325750611a8c565b80600060039255600060018201556000600282015501611b25565b634e487b7160e01b600052601160045260246000fd5b6005602082611b7560019451866114b6565b01920192019190611a61565b80600502906005820403611b4d5783600502600581048503611b4d5783600052602060002091820191015b818110611bb95750611a50565b8060006005925560006001820155611bd36002820161146c565b60006003820155611be66004820161146c565b01611bac565b015190503880611a08565b6000858152602081209350601f198516905b818110611c455750908460019594939210611c2c575b505050811b019055611a1d565b015160001960f88460031b161c19169055388080611c1f565b92936020600181928786015181550195019301611c09565b611c8990856000526020600020601f850160051c8101916020861061021057601f0160051c0190611455565b386119f1565b0151905038806119a9565b6008840160005260206000209060005b601f1984168110611cf1575060019394959683601f19811610611cd8575b505050811b0160088301556119c1565b015160001960f88460031b161c19169055388080611cc8565b9091602060018192858b015181550193019101611caa565b611d3890600885016000526020600020601f840160051c8101916020851061021057601f0160051c0190611455565b3861198e565b015190503880611949565b6007830160005260206000209060005b601f1984168110611da0575060019394959683601f19811610611d87575b505050811b016007820155611961565b015160001960f88460031b161c19169055388080611d77565b9091602060018192858b015181550193019101611d59565b611de790600784016000526020600020601f840160051c8101916020851061021057601f0160051c0190611455565b3861192e565b0151905038806118e9565b601f198216956006860160005260206000209160005b888110611e4c57508360019596979810611e33575b505050811b016006840155611901565b015160001960f88460031b161c19169055388080611e23565b91926020600181928685015181550194019201611e0e565b611e9390600686016000526020600020601f840160051c8101916020851061021057601f0160051c0190611455565b386118cc565b01519050388061188b565b6000858152602081209350601f198516905b818110611ef25750908460019594939210611ed9575b505050811b0190556118a0565b015160001960f88460031b161c19169055388080611ecc565b92936020600181928786015181550195019301611eb6565b611f3690856000526020600020601f850160051c8101916020861061021057601f0160051c0190611455565b38611874565b015190503880611830565b6000858152602081209350601f198516905b818110611f955750908460019594939210611f7c575b505050811b019055611845565b015160001960f88460031b161c19169055388080611f6f565b92936020600181928786015181550195019301611f59565b611fd990856000526020600020601f850160051c8101916020861061021057601f0160051c0190611455565b38611819565b0151905038806117d5565b6000858152602081209350601f198516905b818110612038575090846001959493921061201f575b505050811b0190556117ea565b015160001960f88460031b161c19169055388080612012565b92936020600181928786015181550195019301611ffc565b61207c90856000526020600020601f850160051c8101916020861061021057601f0160051c0190611455565b386117be565b01519050388061177a565b6000858152602081209350601f198516905b8181106120db57509084600195949392106120c2575b505050811b01905561178f565b015160001960f88460031b161c191690553880806120b5565b9293602060018192878601518155019501930161209f565b61211f90856000526020600020601f850160051c8101916020861061021057601f0160051c0190611455565b38611763565b634e487b7160e01b600052600060045260246000fd5b6121539060206040519282848094519384920161112f565b810103902090565b6000198114611b4d5760010190565b906040519182600082549261217e8461141b565b9081845260019485811690816000146121eb57506001146121a8575b5050611491925003836110a7565b9093915060005260209081600020936000915b8183106121d35750506114919350820101388061219a565b855488840185015294850194879450918301916121bb565b91505061149194506020925060ff191682840152151560051b820101388061219a565b906040519160209261223c84828161222f818301968781519384920161112f565b81010380845201826110a7565b5190209161225c60405191828161222f818301968781519384920161112f565b5190201490565b6001600160401b03811161105b5760051b60200190565b90815461228681612263565b92604093612296855191826110a7565b828152809460208092019260005281600020906000935b8585106122bc57505050505050565b60058460019284516122cd81611071565b848060a01b03875416815284870154838201526122ec6002880161216a565b86820152600387015460608201526123066004880161216a565b60808201528152019301940193916122ad565b90815461232581612263565b92604093612335855191826110a7565b828152809460208092019260005281600020906000935b85851061235b57505050505050565b600384600192845161236c8161108c565b848060a01b038754168152848701548382015260028701548682015281520193019401939161234c565b906040516123a38161103f565b6101a061247f600c83958054855260ff600182015460018060a01b038116602088015260a01c16151560408601526123dd6002820161216a565b60608601526123ee6003820161216a565b60808601526123ff6004820161216a565b60a08601526124106005820161216a565b60c08601526124216006820161216a565b60e08601526124326007820161216a565b6101008601526124446008820161216a565b6101208601526124566009820161216a565b610140860152600a810154610160860152612473600b820161227a565b61018086015201612319565b910152565b9061248e82612263565b60409061249d825191826110a7565b83815280936124ae601f1991612263565b019160005b8381106124c05750505050565b60209082516124ce8161103f565b6000815282600081830152600085830152606080808401528060808401528060a08401528060c08401528060e08401528061010084015280610120840152806101408401526000610160840152806101808401526101a08301528286010152016124b3565b80518210156114055760209160051b01019056fea26469706673582212201d5d7befb2fea8a867e47e59a90fedbd1d8deab917b5e434c7c93274fcf81c7464736f6c63430008140033",
          "opcodes": "PUSH1 0x80 CALLVALUE PUSH2 0x79 JUMPI PUSH1 0x1F PUSH2 0x2612 CODESIZE DUP2 SWAP1 SUB SWAP2 DUP3 ADD PUSH1 0x1F NOT AND DUP4 ADD SWAP2 PUSH1 0x1 PUSH1 0x1 PUSH1 0x40 SHL SUB DUP4 GT DUP5 DUP5 LT OR PUSH2 0x7E JUMPI DUP1 DUP5 SWAP3 PUSH1 0x20 SWAP5 PUSH1 0x40 MSTORE DUP4 CODECOPY DUP2 ADD SUB SLT PUSH2 0x79 JUMPI MLOAD PUSH1 0x1 PUSH1 0x1 PUSH1 0xA0 SHL SUB DUP2 AND SWAP1 DUP2 SWAP1 SUB PUSH2 0x79 JUMPI PUSH1 0x1 PUSH1 0x0 SSTORE PUSH1 0x4 DUP1 SLOAD PUSH1 0x1 PUSH1 0x1 PUSH1 0xA0 SHL SUB NOT AND SWAP2 SWAP1 SWAP2 OR SWAP1 SSTORE PUSH1 0x40 MLOAD PUSH2 0x257D SWAP1 DUP2 PUSH2 0x95 DUP3 CODECOPY RETURN JUMPDEST PUSH1 0x0 DUP1 REVERT JUMPDEST PUSH4 0x4E487B71 PUSH1 0xE0 SHL PUSH1 0x0 MSTORE PUSH1 0x41 PUSH1 0x4 MSTORE PUSH1 0x24 PUSH1 0x0 REVERT INVALID PUSH1 0x80 PUSH1 0x40 MSTORE PUSH1 0x4 DUP1 CALLDATASIZE LT ISZERO PUSH2 0x13 JUMPI PUSH1 0x0 DUP1 REVERT JUMPDEST PUSH1 0x0 DUP1 CALLDATALOAD PUSH1 0xE0 SHR DUP1 PUSH4 0x1A13CC59 EQ PUSH2 0xE50 JUMPI DUP1 PUSH4 0x318BB5C7 EQ PUSH2 0xBFE JUMPI DUP1 PUSH4 0x3829F313 EQ PUSH2 0xBD6 JUMPI DUP1 PUSH4 0x7791B330 EQ PUSH2 0xB56 JUMPI DUP1 PUSH4 0x93EC02F1 EQ PUSH2 0x9C8 JUMPI DUP1 PUSH4 0x990D6459 EQ PUSH2 0x8F3 JUMPI DUP1 PUSH4 0x9992B606 EQ PUSH2 0x867 JUMPI DUP1 PUSH4 0x9DEE74D5 EQ PUSH2 0x7C4 JUMPI DUP1 PUSH4 0xA39249B8 EQ PUSH2 0x748 JUMPI DUP1 PUSH4 0xA97CE3C2 EQ PUSH2 0x5F6 JUMPI DUP1 PUSH4 0xBDDFF4D8 EQ PUSH2 0x5BD JUMPI DUP1 PUSH4 0xD41AAB23 EQ PUSH2 0x34A JUMPI DUP1 PUSH4 0xE607A8BA EQ PUSH2 0x238 JUMPI PUSH4 0xED59313A EQ PUSH2 0xB8 JUMPI PUSH1 0x0 DUP1 REVERT JUMPDEST CALLVALUE PUSH2 0x235 JUMPI PUSH1 0x20 DUP1 PUSH1 0x3 NOT CALLDATASIZE ADD SLT PUSH2 0x231 JUMPI PUSH1 0x1 PUSH1 0x1 PUSH1 0x40 SHL SUB SWAP3 DUP1 CALLDATALOAD DUP5 DUP2 GT PUSH2 0x22D JUMPI PUSH2 0xE9 SWAP1 CALLDATASIZE SWAP1 DUP4 ADD PUSH2 0x10E3 JUMP JUMPDEST SWAP2 CALLER DUP5 MSTORE PUSH1 0x2 DUP2 MSTORE PUSH1 0x40 DUP5 KECCAK256 SWAP2 DUP4 MLOAD SWAP6 DUP7 GT PUSH2 0x21A JUMPI POP PUSH2 0x10A DUP3 SLOAD PUSH2 0x141B JUMP JUMPDEST PUSH1 0x1F DUP2 GT PUSH2 0x1E1 JUMPI JUMPDEST POP DUP1 PUSH1 0x1F DUP7 GT PUSH1 0x1 EQ PUSH2 0x17A JUMPI POP SWAP4 DUP1 DUP5 SWAP6 PUSH2 0x147 SWAP6 SWAP2 PUSH2 0x16F JUMPI JUMPDEST POP DUP2 PUSH1 0x1 SHL SWAP2 PUSH1 0x0 NOT SWAP1 PUSH1 0x3 SHL SHR NOT AND OR SWAP1 SSTORE PUSH2 0x213B JUMP JUMPDEST CALLER PUSH32 0xCFA484BE7B1D89AC1B8203C2067A8EFDFFDE3D5E5EC8A446CF9C54CB01C7E20B DUP4 DUP1 LOG3 DUP1 RETURN JUMPDEST SWAP1 POP DUP4 ADD MLOAD CODESIZE PUSH2 0x12F JUMP JUMPDEST SWAP1 PUSH1 0x1F NOT DUP7 AND DUP4 DUP7 MSTORE DUP3 DUP7 KECCAK256 SWAP3 DUP7 SWAP1 JUMPDEST DUP3 DUP3 LT PUSH2 0x1C9 JUMPI POP POP SWAP2 DUP7 SWAP2 PUSH2 0x147 SWAP7 SWAP8 PUSH1 0x1 SWAP5 LT PUSH2 0x1B0 JUMPI JUMPDEST POP POP DUP2 SHL ADD SWAP1 SSTORE PUSH2 0x213B JUMP JUMPDEST DUP6 ADD MLOAD PUSH1 0x0 NOT PUSH1 0xF8 DUP5 PUSH1 0x3 SHL AND SHR NOT AND SWAP1 SSTORE CODESIZE DUP1 PUSH2 0x1A4 JUMP JUMPDEST DUP1 PUSH1 0x1 DUP6 SWAP7 DUP3 SWAP5 SWAP7 DUP11 ADD MLOAD DUP2 SSTORE ADD SWAP6 ADD SWAP4 ADD SWAP1 PUSH2 0x18A JUMP JUMPDEST PUSH2 0x20A SWAP1 DUP4 DUP7 MSTORE DUP3 DUP7 KECCAK256 PUSH1 0x1F DUP9 ADD PUSH1 0x5 SHR DUP2 ADD SWAP2 DUP5 DUP10 LT PUSH2 0x210 JUMPI JUMPDEST PUSH1 0x1F ADD PUSH1 0x5 SHR ADD SWAP1 PUSH2 0x1455 JUMP JUMPDEST CODESIZE PUSH2 0x113 JUMP JUMPDEST SWAP1 SWAP2 POP DUP2 SWAP1 PUSH2 0x1FD JUMP JUMPDEST PUSH4 0x4E487B71 PUSH1 0xE0 SHL DUP6 MSTORE PUSH1 0x41 SWAP1 MSTORE PUSH1 0x24 DUP5 REVERT JUMPDEST DUP4 DUP1 REVERT JUMPDEST POP DUP1 REVERT JUMPDEST DUP1 REVERT JUMPDEST POP CALLVALUE PUSH2 0x235 JUMPI DUP1 PUSH1 0x3 NOT CALLDATASIZE ADD SLT PUSH2 0x235 JUMPI CALLER DUP2 MSTORE PUSH1 0x20 PUSH1 0x3 DUP2 MSTORE PUSH1 0x40 DUP3 KECCAK256 SLOAD TIMESTAMP SUB TIMESTAMP DUP2 GT PUSH2 0x337 JUMPI PUSH3 0x15180 GT PUSH2 0x320 JUMPI DUP1 DUP3 SWAP4 CALLER DUP5 MSTORE PUSH1 0x3 DUP3 MSTORE TIMESTAMP PUSH1 0x40 DUP6 KECCAK256 SSTORE PUSH1 0x44 PUSH1 0x1 DUP1 PUSH1 0xA0 SHL SUB DUP3 SLOAD AND SWAP2 PUSH1 0x40 MLOAD SWAP6 DUP7 SWAP4 DUP5 SWAP3 PUSH4 0xA9059CBB PUSH1 0xE0 SHL DUP5 MSTORE CALLER SWAP1 DUP5 ADD MSTORE PUSH9 0x3635C9ADC5DEA00000 PUSH1 0x24 DUP5 ADD MSTORE GAS CALL DUP1 ISZERO PUSH2 0x315 JUMPI PUSH2 0x2E2 JUMPI JUMPDEST DUP3 CALLER PUSH32 0x561F98ADFB5DF58A7C3C03F4ADA643CC46C1A5291389819DBD6D01FE49048149 DUP3 DUP1 LOG2 DUP1 RETURN JUMPDEST DUP2 DUP2 RETURNDATASIZE DUP4 GT PUSH2 0x30E JUMPI JUMPDEST PUSH2 0x2F6 DUP2 DUP4 PUSH2 0x10A7 JUMP JUMPDEST DUP2 ADD SUB SLT PUSH2 0x231 JUMPI MLOAD DUP1 ISZERO ISZERO SUB PUSH2 0x235 JUMPI CODESIZE DUP1 PUSH2 0x2B9 JUMP JUMPDEST POP RETURNDATASIZE PUSH2 0x2EC JUMP JUMPDEST PUSH1 0x40 MLOAD RETURNDATASIZE DUP6 DUP3 RETURNDATACOPY RETURNDATASIZE SWAP1 REVERT JUMPDEST PUSH1 0x40 MLOAD PUSH4 0xFCA47E31 PUSH1 0xE0 SHL DUP2 MSTORE CALLER DUP2 DUP6 ADD MSTORE PUSH1 0x24 SWAP1 REVERT JUMPDEST PUSH4 0x4E487B71 PUSH1 0xE0 SHL DUP4 MSTORE PUSH1 0x11 DUP5 MSTORE PUSH1 0x24 DUP4 REVERT JUMPDEST POP SWAP1 PUSH1 0x60 SWAP1 DUP2 PUSH1 0x3 NOT CALLDATASIZE ADD SLT PUSH2 0x5B9 JUMPI DUP1 CALLDATALOAD PUSH1 0x1 PUSH1 0x1 PUSH1 0x40 SHL SUB DUP2 GT PUSH2 0x22D JUMPI PUSH2 0x377 SWAP1 CALLDATASIZE SWAP1 DUP4 ADD PUSH2 0x10E3 JUMP JUMPDEST PUSH1 0x1 PUSH1 0x1 PUSH1 0xA0 SHL SUB PUSH1 0x24 DUP1 CALLDATALOAD DUP3 DUP2 AND SWAP6 SWAP4 SWAP5 SWAP2 SWAP4 SWAP2 SWAP1 DUP7 SWAP1 SUB PUSH2 0x5B5 JUMPI PUSH1 0x44 SWAP4 DUP5 CALLDATALOAD SWAP3 PUSH1 0x2 DUP10 SLOAD EQ PUSH2 0x5A4 JUMPI PUSH1 0x2 DUP10 SSTORE DUP9 JUMPDEST PUSH1 0x5 SLOAD DUP2 LT ISZERO PUSH2 0x596 JUMPI PUSH2 0x3D1 DUP9 PUSH2 0x3CC PUSH1 0x9 PUSH2 0x3C5 DUP6 PUSH2 0x13CA JUMP JUMPDEST POP ADD PUSH2 0x216A JUMP JUMPDEST PUSH2 0x220E JUMP JUMPDEST PUSH2 0x3E3 JUMPI PUSH2 0x3DE SWAP1 PUSH2 0x215B JUMP JUMPDEST PUSH2 0x3A9 JUMP JUMPDEST SWAP5 SWAP6 SWAP7 SWAP8 PUSH2 0x3F9 PUSH2 0x3F3 DUP8 PUSH2 0x13CA JUMP JUMPDEST POP PUSH2 0x2396 JUMP JUMPDEST SWAP8 DUP9 MLOAD SWAP2 DUP3 CALLVALUE LT PUSH2 0x567 JUMPI POP POP POP POP DUP6 MLOAD SWAP5 DUP6 DUP5 MUL SWAP6 DUP5 DUP8 DIV EQ DUP5 ISZERO OR ISZERO PUSH2 0x555 JUMPI PUSH1 0x40 MLOAD SWAP6 PUSH2 0x428 DUP8 PUSH2 0x108C JUMP JUMPDEST CALLER DUP8 MSTORE PUSH1 0x20 SWAP5 DUP6 DUP9 ADD MSTORE PUSH1 0x40 DUP8 ADD MSTORE DUP4 DUP8 ADD MLOAD AND DUP9 MSTORE PUSH1 0x1 SWAP4 DUP5 DUP5 MSTORE PUSH2 0x465 DUP5 PUSH1 0x40 DUP12 KECCAK256 PUSH1 0xE0 DUP11 ADD MLOAD SWAP1 DUP3 PUSH1 0x40 MLOAD SWAP5 DUP4 DUP7 DUP1 SWAP6 MLOAD SWAP4 DUP5 SWAP3 ADD PUSH2 0x112F JUMP JUMPDEST DUP3 ADD SWAP1 DUP2 MSTORE SUB ADD SWAP1 KECCAK256 DUP1 SLOAD SWAP1 CALLVALUE DUP3 ADD DUP1 SWAP3 GT PUSH2 0x543 JUMPI SSTORE PUSH1 0xC SWAP1 PUSH2 0x488 SWAP1 PUSH2 0x13CA JUMP JUMPDEST POP ADD SWAP2 DUP3 SLOAD SWAP5 PUSH1 0x1 PUSH1 0x40 SHL DUP7 LT ISZERO PUSH2 0x531 JUMPI DUP6 ADD DUP1 DUP5 SSTORE DUP6 LT ISZERO PUSH2 0x520 JUMPI POP POP DUP7 MSTORE DUP6 KECCAK256 DUP3 MLOAD PUSH1 0x3 SWAP1 SWAP3 MUL ADD DUP1 SLOAD PUSH1 0x1 PUSH1 0x1 PUSH1 0xA0 SHL SUB NOT AND PUSH1 0x1 PUSH1 0x1 PUSH1 0xA0 SHL SUB SWAP3 SWAP1 SWAP3 AND SWAP2 SWAP1 SWAP2 OR DUP2 SSTORE PUSH1 0x20 DUP3 ADD MLOAD PUSH1 0x1 DUP3 ADD SSTORE PUSH1 0x40 SWAP1 SWAP2 ADD MLOAD PUSH1 0x2 SWAP1 SWAP2 ADD SSTORE PUSH2 0x4F3 SWAP1 MLOAD SWAP2 PUSH2 0x213B JUMP JUMPDEST CALLER PUSH32 0x253FCD678C758E0E03DBF3A0243701C7439C306A61158B3C522A811977299010 DUP5 DUP1 LOG4 JUMPDEST PUSH1 0x1 DUP2 SSTORE DUP1 RETURN JUMPDEST PUSH4 0x4E487B71 PUSH1 0xE0 SHL DUP10 MSTORE PUSH1 0x32 SWAP1 MSTORE DUP8 REVERT JUMPDEST POP PUSH4 0x4E487B71 PUSH1 0xE0 SHL DUP10 MSTORE PUSH1 0x41 SWAP1 MSTORE DUP8 REVERT JUMPDEST PUSH4 0x4E487B71 PUSH1 0xE0 SHL DUP12 MSTORE PUSH1 0x11 DUP6 MSTORE DUP4 DUP12 REVERT JUMPDEST POP PUSH4 0x4E487B71 PUSH1 0xE0 SHL DUP9 MSTORE PUSH1 0x11 DUP3 MSTORE DUP8 REVERT JUMPDEST PUSH1 0x40 MLOAD PUSH4 0xE90DB85 PUSH1 0xE3 SHL DUP2 MSTORE SWAP6 DUP7 ADD SWAP4 SWAP1 SWAP4 MSTORE DUP5 SWAP4 SWAP3 PUSH2 0x58B PUSH1 0x64 DUP7 ADD DUP13 PUSH2 0x1152 JUMP JUMPDEST SWAP4 DUP6 ADD MSTORE DUP4 ADD MSTORE SUB SWAP1 REVERT JUMPDEST POP POP POP POP POP POP POP POP POP PUSH2 0x519 JUMP JUMPDEST PUSH1 0x40 MLOAD PUSH4 0x3EE5AEB5 PUSH1 0xE0 SHL DUP2 MSTORE DUP4 SWAP1 REVERT JUMPDEST DUP7 DUP1 REVERT JUMPDEST DUP3 DUP1 REVERT JUMPDEST POP CALLVALUE PUSH2 0x235 JUMPI PUSH1 0x20 CALLDATASIZE PUSH1 0x3 NOT ADD SLT PUSH2 0x235 JUMPI PUSH1 0x20 SWAP1 PUSH1 0x40 SWAP1 PUSH1 0x1 PUSH1 0x1 PUSH1 0xA0 SHL SUB PUSH2 0x5E5 PUSH2 0x13B4 JUMP JUMPDEST AND DUP2 MSTORE PUSH1 0x3 DUP4 MSTORE KECCAK256 SLOAD PUSH1 0x40 MLOAD SWAP1 DUP2 MSTORE RETURN JUMPDEST POP SWAP1 CALLVALUE PUSH2 0x231 JUMPI PUSH1 0x20 DUP1 PUSH1 0x3 NOT CALLDATASIZE ADD SLT PUSH2 0x5B9 JUMPI DUP2 CALLDATALOAD PUSH1 0x1 PUSH1 0x1 PUSH1 0x40 SHL SUB DUP2 GT PUSH2 0x22D JUMPI PUSH2 0x627 SWAP1 CALLDATASIZE SWAP1 DUP5 ADD PUSH2 0x10E3 JUMP JUMPDEST CALLER DUP5 MSTORE PUSH1 0x1 DUP3 MSTORE PUSH1 0x40 DUP5 KECCAK256 PUSH1 0x40 MLOAD DUP4 DUP2 DUP5 MLOAD SWAP4 DUP3 DUP7 ADD SWAP5 PUSH2 0x649 DUP2 DUP5 DUP9 PUSH2 0x112F JUMP JUMPDEST DUP3 ADD SWAP1 DUP2 MSTORE SUB ADD SWAP1 KECCAK256 SLOAD SWAP1 DUP2 ISZERO PUSH2 0x737 JUMPI PUSH2 0x67C DUP5 DUP8 SWAP3 CALLER DUP5 MSTORE PUSH1 0x1 DUP3 MSTORE PUSH1 0x40 DUP5 KECCAK256 PUSH1 0x40 MLOAD DUP1 SWAP5 DUP2 SWAP4 DUP10 MLOAD SWAP3 DUP4 SWAP2 PUSH2 0x112F JUMP JUMPDEST DUP3 ADD SWAP1 DUP2 MSTORE SUB ADD SWAP1 KECCAK256 SSTORE DUP5 DUP1 DUP1 DUP1 DUP5 CALLER GAS CALL SWAP2 DUP3 RETURNDATASIZE ISZERO PUSH2 0x732 JUMPI RETURNDATASIZE PUSH2 0x6A0 DUP2 PUSH2 0x10C8 JUMP JUMPDEST SWAP1 PUSH2 0x6AE PUSH1 0x40 MLOAD SWAP3 DUP4 PUSH2 0x10A7 JUMP JUMPDEST DUP2 MSTORE DUP8 DUP7 RETURNDATASIZE SWAP3 ADD RETURNDATACOPY JUMPDEST PUSH2 0x6FD JUMPI JUMPDEST POP POP ISZERO PUSH2 0x6C7 JUMPI DUP3 DUP1 RETURN JUMPDEST PUSH1 0x40 MLOAD PUSH3 0x461BCD PUSH1 0xE5 SHL DUP2 MSTORE SWAP2 DUP3 ADD MSTORE PUSH1 0x10 PUSH1 0x24 DUP3 ADD MSTORE PUSH16 0x5472616E73666572206661696C656421 PUSH1 0x80 SHL PUSH1 0x44 DUP3 ADD MSTORE PUSH1 0x64 SWAP2 POP REVERT JUMPDEST PUSH2 0x706 SWAP1 PUSH2 0x213B JUMP JUMPDEST CALLER PUSH32 0xF2CA3EFE12F71D386EF0FD2B75EBBEF402882711943CCB42D5BDB696FA7A1341 DUP8 DUP1 LOG4 CODESIZE DUP1 PUSH2 0x6BC JUMP JUMPDEST PUSH2 0x6B7 JUMP JUMPDEST PUSH1 0x40 MLOAD PUSH4 0x125D726B PUSH1 0xE2 SHL DUP2 MSTORE DUP6 SWAP1 REVERT JUMPDEST POP SWAP1 CALLVALUE PUSH2 0x231 JUMPI PUSH1 0x40 CALLDATASIZE PUSH1 0x3 NOT ADD SLT PUSH2 0x231 JUMPI PUSH2 0x763 PUSH2 0x13B4 JUMP JUMPDEST SWAP1 PUSH1 0x24 CALLDATALOAD PUSH1 0x1 PUSH1 0x1 PUSH1 0x40 SHL SUB DUP2 GT PUSH2 0x22D JUMPI SWAP2 PUSH1 0x40 PUSH1 0x20 SWAP5 PUSH2 0x78C DUP7 SWAP5 PUSH2 0x7B2 SWAP7 CALLDATASIZE SWAP2 ADD PUSH2 0x10E3 JUMP JUMPDEST PUSH1 0x1 PUSH1 0x1 PUSH1 0xA0 SHL SUB SWAP1 SWAP4 AND DUP2 MSTORE PUSH1 0x1 DUP5 MSTORE KECCAK256 PUSH1 0x40 MLOAD DUP3 MLOAD SWAP1 SWAP5 DUP6 SWAP4 DUP3 SWAP1 DUP6 SWAP1 DUP8 ADD PUSH2 0x112F JUMP JUMPDEST DUP3 ADD SWAP1 DUP2 MSTORE SUB ADD SWAP1 KECCAK256 SLOAD PUSH1 0x40 MLOAD SWAP1 DUP2 MSTORE RETURN JUMPDEST POP SWAP1 CALLVALUE PUSH2 0x231 JUMPI PUSH1 0x20 CALLDATASIZE PUSH1 0x3 NOT ADD SLT PUSH2 0x231 JUMPI DUP1 CALLDATALOAD SWAP1 PUSH1 0x1 PUSH1 0x1 PUSH1 0x40 SHL SUB DUP3 GT PUSH2 0x5B9 JUMPI PUSH2 0x7F4 SWAP2 CALLDATASIZE SWAP2 ADD PUSH2 0x10E3 JUMP JUMPDEST PUSH1 0x5 SLOAD SWAP1 PUSH2 0x801 DUP3 PUSH2 0x2484 JUMP JUMPDEST SWAP3 JUMPDEST DUP3 DUP2 LT PUSH2 0x81C JUMPI PUSH1 0x40 MLOAD DUP1 PUSH2 0x818 DUP7 DUP3 PUSH2 0x1177 JUMP JUMPDEST SUB SWAP1 RETURN JUMPDEST DUP1 PUSH2 0x832 DUP4 PUSH2 0x3CC PUSH1 0x2 PUSH2 0x3C5 PUSH2 0x83B SWAP7 PUSH2 0x13CA JUMP JUMPDEST PUSH2 0x840 JUMPI PUSH2 0x215B JUMP JUMPDEST PUSH2 0x803 JUMP JUMPDEST PUSH2 0x84C PUSH2 0x3F3 DUP3 PUSH2 0x13CA JUMP JUMPDEST PUSH2 0x856 DUP3 DUP8 PUSH2 0x2533 JUMP JUMPDEST MSTORE PUSH2 0x861 DUP2 DUP7 PUSH2 0x2533 JUMP JUMPDEST POP PUSH2 0x215B JUMP JUMPDEST POP CALLVALUE PUSH2 0x235 JUMPI DUP1 PUSH1 0x3 NOT CALLDATASIZE ADD SLT PUSH2 0x235 JUMPI PUSH1 0x5 SLOAD PUSH2 0x884 DUP2 PUSH2 0x2263 JUMP JUMPDEST SWAP1 PUSH2 0x892 PUSH1 0x40 MLOAD SWAP3 DUP4 PUSH2 0x10A7 JUMP JUMPDEST DUP1 DUP3 MSTORE PUSH1 0x5 DUP4 MSTORE PUSH32 0x36B6384B5ECA791C62761152D0C79BB0604C104A5FB6F4EB0703F3154BB3DB0 SWAP3 PUSH1 0x20 DUP1 DUP5 ADD JUMPDEST DUP4 DUP4 LT PUSH2 0x8D6 JUMPI PUSH1 0x40 MLOAD DUP1 PUSH2 0x818 DUP8 DUP3 PUSH2 0x1177 JUMP JUMPDEST PUSH1 0xD DUP3 PUSH1 0x1 SWAP3 PUSH2 0x8E5 DUP10 PUSH2 0x2396 JUMP JUMPDEST DUP2 MSTORE ADD SWAP7 ADD SWAP3 ADD SWAP2 SWAP5 PUSH2 0x8C1 JUMP JUMPDEST POP SWAP1 CALLVALUE PUSH2 0x231 JUMPI PUSH1 0x40 CALLDATASIZE PUSH1 0x3 NOT ADD SLT PUSH2 0x231 JUMPI DUP1 CALLDATALOAD SWAP1 PUSH1 0x1 PUSH1 0x1 PUSH1 0x40 SHL SUB DUP3 GT PUSH2 0x5B9 JUMPI PUSH2 0x923 SWAP2 CALLDATASIZE SWAP2 ADD PUSH2 0x10E3 JUMP JUMPDEST PUSH1 0x24 CALLDATALOAD SWAP1 DUP2 ISZERO ISZERO SWAP1 DUP2 DUP4 SUB PUSH2 0x22D JUMPI DUP4 JUMPDEST PUSH1 0x5 SLOAD DUP2 LT ISZERO PUSH2 0x9C1 JUMPI PUSH2 0x950 DUP3 PUSH2 0x3CC PUSH1 0x9 PUSH2 0x3C5 DUP6 PUSH2 0x13CA JUMP JUMPDEST PUSH2 0x962 JUMPI PUSH2 0x95D SWAP1 PUSH2 0x215B JUMP JUMPDEST PUSH2 0x934 JUMP JUMPDEST PUSH2 0x999 SWAP3 SWAP4 PUSH1 0x1 PUSH2 0x975 PUSH2 0x994 SWAP4 PUSH2 0x13CA JUMP JUMPDEST POP ADD DUP1 SLOAD PUSH1 0xFF PUSH1 0xA0 SHL NOT AND SWAP2 ISZERO ISZERO PUSH1 0xA0 SHL PUSH1 0xFF PUSH1 0xA0 SHL AND SWAP2 SWAP1 SWAP2 OR SWAP1 SSTORE JUMP JUMPDEST PUSH2 0x213B JUMP JUMPDEST CALLER PUSH32 0x51DABE03DBC9869CDC42F327348910C055732B793C7AAADE368A32D8F3658E1E DUP5 DUP1 LOG4 DUP1 RETURN JUMPDEST POP POP POP POP DUP1 RETURN JUMPDEST POP SWAP1 CALLVALUE PUSH2 0x231 JUMPI PUSH1 0xA0 CALLDATASIZE PUSH1 0x3 NOT ADD SLT PUSH2 0x231 JUMPI PUSH1 0x1 PUSH1 0x1 PUSH1 0x40 SHL SUB DUP2 CALLDATALOAD DUP2 DUP2 GT PUSH2 0x22D JUMPI PUSH2 0x9F9 SWAP1 CALLDATASIZE SWAP1 DUP5 ADD PUSH2 0x10E3 JUMP JUMPDEST SWAP1 PUSH1 0x24 SWAP3 DUP4 CALLDATALOAD SWAP3 PUSH1 0x44 CALLDATALOAD DUP4 DUP2 GT PUSH2 0x5B5 JUMPI PUSH2 0xA17 SWAP1 CALLDATASIZE SWAP1 DUP5 ADD PUSH2 0x10E3 JUMP JUMPDEST SWAP3 PUSH1 0x64 CALLDATALOAD SWAP1 DUP2 GT PUSH2 0x5B5 JUMPI PUSH2 0xA2F SWAP1 CALLDATASIZE SWAP1 DUP5 ADD PUSH2 0x10E3 JUMP JUMPDEST SWAP3 PUSH1 0x84 CALLDATALOAD PUSH1 0x1 PUSH1 0x1 PUSH1 0xA0 SHL SUB DUP2 AND SWAP4 SWAP1 DUP5 SWAP1 SUB PUSH2 0xB52 JUMPI DUP8 JUMPDEST PUSH1 0x5 DUP1 SLOAD DUP3 LT ISZERO PUSH2 0xB46 JUMPI PUSH2 0xA65 DUP8 PUSH2 0x3CC PUSH1 0x9 PUSH2 0x3C5 DUP7 PUSH2 0x13CA JUMP JUMPDEST PUSH2 0xA78 JUMPI POP PUSH2 0xA73 SWAP1 PUSH2 0x215B JUMP JUMPDEST PUSH2 0xA48 JUMP JUMPDEST SWAP2 SWAP3 SWAP4 SWAP5 SWAP6 SWAP7 SWAP8 SWAP1 PUSH2 0xA8B PUSH1 0xB SWAP2 PUSH2 0x13CA JUMP JUMPDEST POP ADD SWAP1 PUSH1 0x40 MLOAD SWAP5 PUSH2 0xA9B DUP7 PUSH2 0x1071 JUMP JUMPDEST CALLER DUP7 MSTORE PUSH1 0x20 SWAP10 DUP11 DUP8 ADD MSTORE DUP7 PUSH1 0x40 DUP8 ADD MSTORE TIMESTAMP PUSH1 0x60 DUP8 ADD MSTORE PUSH1 0x80 DUP7 ADD MSTORE DUP2 SLOAD SWAP4 PUSH1 0x1 PUSH1 0x40 SHL DUP6 LT ISZERO PUSH2 0xB35 JUMPI PUSH1 0x1 DUP6 ADD DUP1 DUP5 SSTORE DUP6 LT ISZERO PUSH2 0xB24 JUMPI POP POP PUSH2 0xB17 SWAP4 PUSH2 0xB11 SWAP4 PUSH32 0x8BB52EEE1B68032569FA2C483528D7D2B7DB7824B9704EE675F7202956220865 SWAP7 SWAP4 PUSH2 0x994 SWAP4 DUP13 MSTORE DUP11 DUP13 KECCAK256 SWAP2 MUL ADD PUSH2 0x14B6 JUMP JUMPDEST SWAP4 PUSH2 0x213B JUMP JUMPDEST SWAP4 PUSH1 0x40 MLOAD SWAP3 DUP4 MSTORE CALLER SWAP3 LOG4 DUP1 RETURN JUMPDEST PUSH4 0x4E487B71 PUSH1 0xE0 SHL DUP12 MSTORE PUSH1 0x32 SWAP1 MSTORE DUP10 REVERT JUMPDEST PUSH4 0x4E487B71 PUSH1 0xE0 SHL DUP12 MSTORE PUSH1 0x41 SWAP1 MSTORE DUP10 REVERT JUMPDEST POP POP POP POP POP POP POP POP POP DUP1 RETURN JUMPDEST DUP8 DUP1 REVERT JUMPDEST POP CALLVALUE PUSH2 0x235 JUMPI DUP1 PUSH1 0x3 NOT CALLDATASIZE ADD SLT PUSH2 0x235 JUMPI PUSH1 0x5 SLOAD PUSH2 0xB73 DUP2 PUSH2 0x2484 JUMP JUMPDEST SWAP2 JUMPDEST DUP2 DUP2 LT PUSH2 0xB8A JUMPI PUSH1 0x40 MLOAD DUP1 PUSH2 0x818 DUP6 DUP3 PUSH2 0x1177 JUMP JUMPDEST DUP1 PUSH2 0xB97 PUSH2 0xBB0 SWAP3 PUSH2 0x13CA JUMP JUMPDEST POP PUSH1 0x1 ADD SLOAD PUSH1 0x1 PUSH1 0x1 PUSH1 0xA0 SHL SUB AND CALLER EQ PUSH2 0xBB5 JUMPI PUSH2 0x215B JUMP JUMPDEST PUSH2 0xB75 JUMP JUMPDEST PUSH2 0xBC1 PUSH2 0x3F3 DUP3 PUSH2 0x13CA JUMP JUMPDEST PUSH2 0xBCB DUP3 DUP7 PUSH2 0x2533 JUMP JUMPDEST MSTORE PUSH2 0x861 DUP2 DUP6 PUSH2 0x2533 JUMP JUMPDEST POP SWAP1 CALLVALUE PUSH2 0x231 JUMPI DUP2 PUSH1 0x3 NOT CALLDATASIZE ADD SLT PUSH2 0x231 JUMPI SLOAD PUSH1 0x40 MLOAD PUSH1 0x1 PUSH1 0x1 PUSH1 0xA0 SHL SUB SWAP1 SWAP2 AND DUP2 MSTORE PUSH1 0x20 SWAP1 RETURN JUMPDEST POP SWAP1 CALLVALUE PUSH2 0x231 JUMPI PUSH1 0xE0 CALLDATASIZE PUSH1 0x3 NOT ADD SLT PUSH2 0x231 JUMPI PUSH1 0x1 PUSH1 0x1 PUSH1 0x40 SHL SUB DUP2 CALLDATALOAD DUP2 DUP2 GT PUSH2 0x22D JUMPI PUSH2 0xC2F SWAP1 CALLDATASIZE SWAP1 DUP5 ADD PUSH2 0x10E3 JUMP JUMPDEST PUSH1 0x44 CALLDATALOAD DUP3 DUP2 GT PUSH2 0xE4C JUMPI PUSH2 0xC46 SWAP1 CALLDATASIZE SWAP1 DUP6 ADD PUSH2 0x10E3 JUMP JUMPDEST SWAP2 PUSH1 0x64 CALLDATALOAD DUP2 DUP2 GT PUSH2 0xE48 JUMPI PUSH2 0xC5E SWAP1 CALLDATASIZE SWAP1 DUP7 ADD PUSH2 0x10E3 JUMP JUMPDEST SWAP4 PUSH1 0x84 CALLDATALOAD DUP3 DUP2 GT PUSH2 0x5B5 JUMPI PUSH2 0xC76 SWAP1 CALLDATASIZE SWAP1 DUP4 ADD PUSH2 0x10E3 JUMP JUMPDEST SWAP2 PUSH1 0xA4 CALLDATALOAD DUP2 DUP2 GT PUSH2 0xB52 JUMPI PUSH2 0xC8E SWAP1 CALLDATASIZE SWAP1 DUP5 ADD PUSH2 0x10E3 JUMP JUMPDEST SWAP2 PUSH1 0xC4 CALLDATALOAD SWAP2 DUP3 GT PUSH2 0xB52 JUMPI PUSH2 0xCA5 SWAP2 CALLDATASIZE SWAP2 ADD PUSH2 0x10E3 JUMP JUMPDEST SWAP2 DUP7 JUMPDEST PUSH1 0x5 SLOAD DUP2 LT ISZERO PUSH2 0xE3E JUMPI PUSH2 0xCC4 DUP6 PUSH2 0x3CC PUSH1 0x9 PUSH2 0x3C5 DUP6 PUSH2 0x13CA JUMP JUMPDEST PUSH2 0xCD6 JUMPI PUSH2 0xCD1 SWAP1 PUSH2 0x215B JUMP JUMPDEST PUSH2 0xCA8 JUMP JUMPDEST SWAP3 SWAP4 SWAP5 SWAP6 PUSH2 0xCE3 DUP5 PUSH2 0x13CA JUMP JUMPDEST POP PUSH1 0x1 SWAP1 DUP2 ADD SLOAD PUSH1 0x1 PUSH1 0x1 PUSH1 0xA0 SHL SUB AND SWAP6 SWAP1 PUSH2 0xCFE DUP7 PUSH2 0x13CA JUMP JUMPDEST POP ADD SLOAD SWAP3 PUSH2 0xD0B DUP7 PUSH2 0x13CA JUMP JUMPDEST POP SWAP5 PUSH2 0xD16 DUP8 PUSH2 0x13CA JUMP JUMPDEST POP PUSH2 0xD20 DUP9 PUSH2 0x13CA JUMP JUMPDEST POP SWAP4 PUSH2 0xD2B DUP10 PUSH2 0x13CA JUMP JUMPDEST POP PUSH1 0xA ADD SLOAD SWAP6 PUSH2 0xD3A DUP11 PUSH2 0x13CA JUMP JUMPDEST POP SWAP8 PUSH2 0xD45 DUP12 PUSH2 0x13CA JUMP JUMPDEST POP SWAP10 PUSH1 0x40 MLOAD SWAP13 PUSH2 0xD54 DUP15 PUSH2 0x103F JUMP JUMPDEST PUSH1 0x24 CALLDATALOAD DUP15 MSTORE PUSH1 0x20 DUP15 ADD MSTORE PUSH1 0xFF PUSH1 0xA0 SWAP3 DUP4 SHR AND ISZERO ISZERO PUSH1 0x40 DUP15 ADD MSTORE PUSH2 0xD79 SWAP1 PUSH1 0x2 ADD PUSH2 0x216A JUMP JUMPDEST PUSH1 0x60 DUP14 ADD MSTORE DUP14 PUSH1 0x80 DUP14 ADD MSTORE DUP12 ADD MSTORE PUSH1 0xC0 DUP11 ADD MSTORE PUSH1 0x6 ADD PUSH2 0xD98 SWAP1 PUSH2 0x216A JUMP JUMPDEST PUSH1 0xE0 DUP10 ADD MSTORE PUSH2 0x100 DUP9 ADD MSTORE PUSH2 0x120 DUP8 ADD MSTORE PUSH1 0x9 ADD PUSH2 0xDB5 SWAP1 PUSH2 0x216A JUMP JUMPDEST PUSH2 0x140 DUP7 ADD MSTORE PUSH2 0x160 DUP6 ADD MSTORE PUSH1 0xB ADD PUSH2 0xDCD SWAP1 PUSH2 0x227A JUMP JUMPDEST PUSH2 0x180 DUP5 ADD MSTORE PUSH1 0xC ADD PUSH2 0xDDF SWAP1 PUSH2 0x2319 JUMP JUMPDEST PUSH2 0x1A0 DUP4 ADD MSTORE PUSH2 0xDEE SWAP1 PUSH2 0x13CA JUMP JUMPDEST PUSH2 0xDF8 SWAP3 SWAP2 PUSH2 0x16F0 JUMP JUMPDEST PUSH2 0xE01 SWAP1 PUSH2 0x213B JUMP JUMPDEST SWAP1 PUSH2 0xE0B SWAP1 PUSH2 0x213B JUMP JUMPDEST SWAP1 PUSH1 0x40 MLOAD PUSH1 0x24 CALLDATALOAD DUP2 MSTORE CALLER SWAP1 PUSH1 0x20 PUSH32 0x384C5F98880FAD6ED933597FE4BECD24246DB16D5A262945362C7ACE0A0E47B5 SWAP2 LOG4 DUP1 RETURN JUMPDEST POP POP POP POP POP POP POP DUP1 RETURN JUMPDEST DUP6 DUP1 REVERT JUMPDEST DUP5 DUP1 REVERT JUMPDEST POP SWAP1 CALLVALUE PUSH2 0x231 JUMPI PUSH2 0x140 SWAP1 DUP2 PUSH1 0x3 NOT CALLDATASIZE ADD SLT PUSH2 0x5B9 JUMPI DUP1 CALLDATALOAD SWAP1 PUSH1 0x1 PUSH1 0x1 PUSH1 0x40 SHL SUB SWAP1 PUSH1 0x24 CALLDATALOAD DUP3 DUP2 GT PUSH2 0xE48 JUMPI PUSH2 0xE89 SWAP1 CALLDATASIZE SWAP1 DUP4 ADD PUSH2 0x10E3 JUMP JUMPDEST SWAP1 PUSH1 0x44 CALLDATALOAD DUP4 DUP2 GT PUSH2 0x5B5 JUMPI PUSH2 0xEA1 SWAP1 CALLDATASIZE SWAP1 DUP4 ADD PUSH2 0x10E3 JUMP JUMPDEST SWAP5 PUSH1 0x64 CALLDATALOAD DUP5 DUP2 GT PUSH2 0xB52 JUMPI PUSH2 0xEB9 SWAP1 CALLDATASIZE SWAP1 DUP5 ADD PUSH2 0x10E3 JUMP JUMPDEST SWAP4 PUSH1 0x84 CALLDATALOAD DUP2 DUP2 GT PUSH2 0x103B JUMPI PUSH2 0xED1 SWAP1 CALLDATASIZE SWAP1 DUP6 ADD PUSH2 0x10E3 JUMP JUMPDEST PUSH1 0xA4 CALLDATALOAD DUP3 DUP2 GT PUSH2 0x1037 JUMPI PUSH2 0xEE8 SWAP1 CALLDATASIZE SWAP1 DUP7 ADD PUSH2 0x10E3 JUMP JUMPDEST PUSH1 0xC4 CALLDATALOAD DUP4 DUP2 GT PUSH2 0x1033 JUMPI PUSH2 0xEFF SWAP1 CALLDATASIZE SWAP1 DUP8 ADD PUSH2 0x10E3 JUMP JUMPDEST SWAP2 PUSH1 0xE4 CALLDATALOAD DUP5 DUP2 GT PUSH2 0x102F JUMPI PUSH2 0xF17 SWAP1 CALLDATASIZE SWAP1 DUP9 ADD PUSH2 0x10E3 JUMP JUMPDEST SWAP4 PUSH2 0x104 CALLDATALOAD SWAP1 DUP2 GT PUSH2 0x102F JUMPI PUSH2 0xF30 SWAP1 CALLDATASIZE SWAP1 DUP9 ADD PUSH2 0x10E3 JUMP JUMPDEST SWAP8 DUP10 ISZERO PUSH2 0x101E JUMPI SWAP1 DUP9 SWAP6 SWAP5 SWAP4 SWAP3 SWAP2 PUSH1 0x40 MLOAD SWAP9 PUSH2 0xF4B DUP11 PUSH2 0x103F JUMP JUMPDEST DUP12 DUP11 MSTORE CALLER PUSH1 0x20 DUP12 ADD MSTORE DUP14 PUSH1 0x40 DUP12 ADD MSTORE PUSH1 0x60 DUP11 ADD MSTORE DUP12 PUSH1 0x80 DUP11 ADD MSTORE PUSH1 0xA0 DUP10 ADD MSTORE PUSH1 0xC0 DUP9 ADD MSTORE PUSH1 0xE0 DUP8 ADD MSTORE PUSH2 0x100 DUP7 ADD MSTORE PUSH2 0x120 DUP6 ADD MSTORE DUP4 ADD MSTORE PUSH2 0x124 CALLDATALOAD PUSH2 0x160 DUP4 ADD MSTORE PUSH1 0x60 PUSH2 0x180 DUP4 ADD MSTORE PUSH1 0x60 PUSH2 0x1A0 DUP4 ADD MSTORE PUSH1 0x5 SLOAD SWAP1 PUSH1 0x1 PUSH1 0x40 SHL DUP3 LT ISZERO PUSH2 0x100B JUMPI POP PUSH2 0xFCC SWAP3 SWAP2 PUSH2 0xFC6 DUP3 PUSH1 0x1 PUSH2 0x994 SWAP5 ADD PUSH1 0x5 SSTORE PUSH2 0x13CA JUMP JUMPDEST SWAP1 PUSH2 0x16F0 JUMP JUMPDEST SWAP2 PUSH32 0x9EC512F6157DAF19471FDB4ABC754CD622CE54571FDA42C4C416FF378B041583 PUSH1 0x40 MLOAD PUSH1 0x20 DUP2 MSTORE DUP1 PUSH2 0x1005 CALLER SWAP5 PUSH1 0x20 DUP4 ADD SWAP1 PUSH2 0x1152 JUMP JUMPDEST SUB SWAP1 LOG4 DUP1 RETURN JUMPDEST PUSH4 0x4E487B71 PUSH1 0xE0 SHL DUP8 MSTORE PUSH1 0x41 SWAP1 MSTORE PUSH1 0x24 DUP7 REVERT JUMPDEST PUSH1 0x40 MLOAD PUSH4 0x5EBDE5F5 PUSH1 0xE1 SHL DUP2 MSTORE DUP8 SWAP1 REVERT JUMPDEST DUP12 DUP1 REVERT JUMPDEST DUP11 DUP1 REVERT JUMPDEST DUP10 DUP1 REVERT JUMPDEST DUP9 DUP1 REVERT JUMPDEST PUSH2 0x1C0 DUP2 ADD SWAP1 DUP2 LT PUSH1 0x1 PUSH1 0x1 PUSH1 0x40 SHL SUB DUP3 GT OR PUSH2 0x105B JUMPI PUSH1 0x40 MSTORE JUMP JUMPDEST PUSH4 0x4E487B71 PUSH1 0xE0 SHL PUSH1 0x0 MSTORE PUSH1 0x41 PUSH1 0x4 MSTORE PUSH1 0x24 PUSH1 0x0 REVERT JUMPDEST PUSH1 0xA0 DUP2 ADD SWAP1 DUP2 LT PUSH1 0x1 PUSH1 0x1 PUSH1 0x40 SHL SUB DUP3 GT OR PUSH2 0x105B JUMPI PUSH1 0x40 MSTORE JUMP JUMPDEST PUSH1 0x60 DUP2 ADD SWAP1 DUP2 LT PUSH1 0x1 PUSH1 0x1 PUSH1 0x40 SHL SUB DUP3 GT OR PUSH2 0x105B JUMPI PUSH1 0x40 MSTORE JUMP JUMPDEST SWAP1 PUSH1 0x1F DUP1 NOT SWAP2 ADD AND DUP2 ADD SWAP1 DUP2 LT PUSH1 0x1 PUSH1 0x1 PUSH1 0x40 SHL SUB DUP3 GT OR PUSH2 0x105B JUMPI PUSH1 0x40 MSTORE JUMP JUMPDEST PUSH1 0x1 PUSH1 0x1 PUSH1 0x40 SHL SUB DUP2 GT PUSH2 0x105B JUMPI PUSH1 0x1F ADD PUSH1 0x1F NOT AND PUSH1 0x20 ADD SWAP1 JUMP JUMPDEST DUP2 PUSH1 0x1F DUP3 ADD SLT ISZERO PUSH2 0x112A JUMPI DUP1 CALLDATALOAD SWAP1 PUSH2 0x10FA DUP3 PUSH2 0x10C8 JUMP JUMPDEST SWAP3 PUSH2 0x1108 PUSH1 0x40 MLOAD SWAP5 DUP6 PUSH2 0x10A7 JUMP JUMPDEST DUP3 DUP5 MSTORE PUSH1 0x20 DUP4 DUP4 ADD ADD GT PUSH2 0x112A JUMPI DUP2 PUSH1 0x0 SWAP3 PUSH1 0x20 DUP1 SWAP4 ADD DUP4 DUP7 ADD CALLDATACOPY DUP4 ADD ADD MSTORE SWAP1 JUMP JUMPDEST PUSH1 0x0 DUP1 REVERT JUMPDEST PUSH1 0x0 JUMPDEST DUP4 DUP2 LT PUSH2 0x1142 JUMPI POP POP PUSH1 0x0 SWAP2 ADD MSTORE JUMP JUMPDEST DUP2 DUP2 ADD MLOAD DUP4 DUP3 ADD MSTORE PUSH1 0x20 ADD PUSH2 0x1132 JUMP JUMPDEST SWAP1 PUSH1 0x20 SWAP2 PUSH2 0x116B DUP2 MLOAD DUP1 SWAP3 DUP2 DUP6 MSTORE DUP6 DUP1 DUP7 ADD SWAP2 ADD PUSH2 0x112F JUMP JUMPDEST PUSH1 0x1F ADD PUSH1 0x1F NOT AND ADD ADD SWAP1 JUMP JUMPDEST PUSH1 0x20 DUP2 ADD PUSH1 0x20 DUP3 MSTORE DUP3 MLOAD DUP1 SWAP2 MSTORE PUSH1 0x40 DUP3 ADD SWAP2 PUSH1 0x20 PUSH1 0x40 DUP4 PUSH1 0x5 SHL DUP4 ADD ADD SWAP5 ADD SWAP3 PUSH1 0x0 SWAP2 JUMPDEST DUP4 DUP4 LT PUSH2 0x11AA JUMPI POP POP POP POP POP SWAP1 JUMP JUMPDEST SWAP1 SWAP2 SWAP3 SWAP4 SWAP5 PUSH1 0x3F NOT DUP3 DUP3 SUB ADD DUP4 MSTORE DUP6 MLOAD SWAP1 DUP2 MLOAD DUP2 MSTORE PUSH1 0x1 DUP1 PUSH1 0xA0 SHL SUB PUSH1 0x20 DUP4 ADD MLOAD AND PUSH1 0x20 DUP3 ADD MSTORE PUSH1 0x40 DUP3 ADD MLOAD ISZERO ISZERO PUSH1 0x40 DUP3 ADD MSTORE PUSH2 0x1291 PUSH2 0x127D PUSH2 0x1269 PUSH2 0x1255 PUSH2 0x1242 PUSH2 0x122F PUSH2 0x121D PUSH2 0x120B PUSH1 0x60 DUP11 ADD MLOAD PUSH2 0x1C0 DUP1 PUSH1 0x60 DUP13 ADD MSTORE DUP11 ADD SWAP1 PUSH2 0x1152 JUMP JUMPDEST PUSH1 0x80 DUP11 ADD MLOAD DUP10 DUP3 SUB PUSH1 0x80 DUP12 ADD MSTORE PUSH2 0x1152 JUMP JUMPDEST PUSH1 0xA0 DUP10 ADD MLOAD DUP9 DUP3 SUB PUSH1 0xA0 DUP11 ADD MSTORE PUSH2 0x1152 JUMP JUMPDEST PUSH1 0xC0 DUP1 DUP10 ADD MLOAD SWAP1 DUP9 DUP4 SUB SWAP1 DUP10 ADD MSTORE PUSH2 0x1152 JUMP JUMPDEST PUSH1 0xE0 DUP1 DUP9 ADD MLOAD SWAP1 DUP8 DUP4 SUB SWAP1 DUP9 ADD MSTORE PUSH2 0x1152 JUMP JUMPDEST PUSH2 0x100 DUP1 DUP8 ADD MLOAD SWAP1 DUP7 DUP4 SUB SWAP1 DUP8 ADD MSTORE PUSH2 0x1152 JUMP JUMPDEST PUSH2 0x120 DUP1 DUP7 ADD MLOAD SWAP1 DUP6 DUP4 SUB SWAP1 DUP7 ADD MSTORE PUSH2 0x1152 JUMP JUMPDEST PUSH2 0x140 DUP1 DUP6 ADD MLOAD SWAP1 DUP5 DUP4 SUB SWAP1 DUP6 ADD MSTORE PUSH2 0x1152 JUMP JUMPDEST SWAP1 PUSH2 0x160 DUP1 DUP5 ADD MLOAD SWAP1 DUP3 ADD MSTORE PUSH2 0x180 SWAP2 DUP3 DUP5 ADD MLOAD SWAP3 DUP3 DUP3 SUB SWAP1 DUP4 ADD MSTORE DUP3 MLOAD DUP1 DUP3 MSTORE PUSH1 0x20 DUP3 ADD SWAP1 PUSH1 0x20 DUP1 DUP3 PUSH1 0x5 SHL DUP6 ADD ADD SWAP6 ADD SWAP3 PUSH1 0x0 JUMPDEST DUP3 DUP2 LT PUSH2 0x1344 JUMPI POP POP POP POP POP PUSH2 0x1A0 DUP1 SWAP4 ADD MLOAD SWAP3 DUP2 DUP4 SUB SWAP2 ADD MSTORE PUSH1 0x20 DUP1 DUP4 MLOAD SWAP3 DUP4 DUP2 MSTORE ADD SWAP3 ADD SWAP1 PUSH1 0x0 SWAP1 JUMPDEST DUP1 DUP3 LT PUSH2 0x1311 JUMPI POP POP POP PUSH1 0x20 DUP1 PUSH1 0x1 SWAP3 SWAP8 ADD SWAP4 ADD SWAP4 ADD SWAP2 SWAP4 SWAP3 SWAP1 PUSH2 0x119B JUMP JUMPDEST SWAP1 SWAP2 SWAP3 PUSH1 0x20 PUSH1 0x60 PUSH1 0x1 SWAP3 PUSH1 0x40 DUP8 MLOAD DUP6 DUP1 PUSH1 0xA0 SHL SUB DUP2 MLOAD AND DUP4 MSTORE DUP5 DUP2 ADD MLOAD DUP6 DUP5 ADD MSTORE ADD MLOAD PUSH1 0x40 DUP3 ADD MSTORE ADD SWAP5 ADD SWAP3 ADD SWAP1 PUSH2 0x12F2 JUMP JUMPDEST SWAP1 SWAP2 SWAP3 SWAP4 SWAP6 PUSH1 0x20 DUP1 PUSH2 0x13A7 PUSH1 0x1 SWAP4 PUSH1 0x1F NOT DUP8 DUP3 SUB ADD DUP10 MSTORE DUP11 MLOAD SWAP1 DUP6 DUP1 PUSH1 0xA0 SHL SUB DUP3 MLOAD AND DUP2 MSTORE DUP4 DUP3 ADD MLOAD DUP5 DUP3 ADD MSTORE PUSH1 0x80 PUSH2 0x138C PUSH1 0x40 DUP5 ADD MLOAD PUSH1 0xA0 PUSH1 0x40 DUP6 ADD MSTORE PUSH1 0xA0 DUP5 ADD SWAP1 PUSH2 0x1152 JUMP JUMPDEST SWAP3 PUSH1 0x60 DUP2 ADD MLOAD PUSH1 0x60 DUP5 ADD MSTORE ADD MLOAD SWAP1 PUSH1 0x80 DUP2 DUP5 SUB SWAP2 ADD MSTORE PUSH2 0x1152 JUMP JUMPDEST SWAP9 ADD SWAP6 ADD SWAP4 SWAP3 SWAP2 ADD PUSH2 0x12C7 JUMP JUMPDEST PUSH1 0x4 CALLDATALOAD SWAP1 PUSH1 0x1 PUSH1 0x1 PUSH1 0xA0 SHL SUB DUP3 AND DUP3 SUB PUSH2 0x112A JUMPI JUMP JUMPDEST PUSH1 0x5 SLOAD DUP2 LT ISZERO PUSH2 0x1405 JUMPI PUSH1 0xD SWAP1 PUSH1 0x5 PUSH1 0x0 MSTORE MUL PUSH32 0x36B6384B5ECA791C62761152D0C79BB0604C104A5FB6F4EB0703F3154BB3DB0 ADD SWAP1 PUSH1 0x0 SWAP1 JUMP JUMPDEST PUSH4 0x4E487B71 PUSH1 0xE0 SHL PUSH1 0x0 MSTORE PUSH1 0x32 PUSH1 0x4 MSTORE PUSH1 0x24 PUSH1 0x0 REVERT JUMPDEST SWAP1 PUSH1 0x1 DUP3 DUP2 SHR SWAP3 AND DUP1 ISZERO PUSH2 0x144B JUMPI JUMPDEST PUSH1 0x20 DUP4 LT EQ PUSH2 0x1435 JUMPI JUMP JUMPDEST PUSH4 0x4E487B71 PUSH1 0xE0 SHL PUSH1 0x0 MSTORE PUSH1 0x22 PUSH1 0x4 MSTORE PUSH1 0x24 PUSH1 0x0 REVERT JUMPDEST SWAP2 PUSH1 0x7F AND SWAP2 PUSH2 0x142A JUMP JUMPDEST DUP2 DUP2 LT PUSH2 0x1460 JUMPI POP POP JUMP JUMPDEST PUSH1 0x0 DUP2 SSTORE PUSH1 0x1 ADD PUSH2 0x1455 JUMP JUMPDEST PUSH2 0x1476 DUP2 SLOAD PUSH2 0x141B JUMP JUMPDEST SWAP1 DUP2 PUSH2 0x1480 JUMPI POP POP JUMP JUMPDEST DUP2 PUSH1 0x1F PUSH1 0x0 SWAP4 GT PUSH1 0x1 EQ PUSH2 0x1493 JUMPI POP SSTORE JUMPDEST JUMP JUMPDEST SWAP1 DUP1 DUP4 SWAP2 DUP3 MSTORE PUSH2 0x14B2 PUSH1 0x1F PUSH1 0x20 DUP5 KECCAK256 SWAP5 ADD PUSH1 0x5 SHR DUP5 ADD PUSH1 0x1 DUP6 ADD PUSH2 0x1455 JUMP JUMPDEST SSTORE SSTORE JUMP JUMPDEST PUSH1 0x1 DUP1 PUSH1 0xA0 SHL SUB DUP3 MLOAD AND PUSH12 0xFFFFFFFFFFFFFFFFFFFFFFFF PUSH1 0xA0 SHL DUP3 SLOAD AND OR DUP2 SSTORE PUSH1 0x20 DUP1 DUP4 ADD MLOAD SWAP2 PUSH1 0x1 SWAP3 DUP4 DUP3 ADD SSTORE PUSH1 0x2 DUP2 ADD SWAP2 PUSH1 0x40 DUP6 ADD MLOAD SWAP2 DUP3 MLOAD SWAP4 PUSH1 0x1 PUSH1 0x1 PUSH1 0x40 SHL SUB SWAP5 DUP6 DUP2 GT PUSH2 0x105B JUMPI PUSH2 0x150C DUP3 SLOAD PUSH2 0x141B JUMP JUMPDEST SWAP5 PUSH1 0x1F SWAP6 DUP7 DUP2 GT PUSH2 0x16C2 JUMPI JUMPDEST POP DUP5 SWAP1 DUP7 DUP4 GT PUSH1 0x1 EQ PUSH2 0x1654 JUMPI SWAP2 DUP1 PUSH1 0x4 SWAP5 SWAP3 PUSH1 0x80 SWAP7 SWAP5 PUSH1 0x0 SWAP3 PUSH2 0x1649 JUMPI JUMPDEST POP POP PUSH1 0x0 NOT PUSH1 0x3 DUP4 SWAP1 SHL SHR NOT AND SWAP1 DUP10 SHL OR SWAP1 SSTORE JUMPDEST PUSH1 0x60 DUP9 ADD MLOAD PUSH1 0x3 DUP3 ADD SSTORE ADD SWAP6 ADD MLOAD SWAP1 DUP2 MLOAD SWAP4 DUP5 GT PUSH2 0x105B JUMPI PUSH2 0x156D DUP7 SLOAD PUSH2 0x141B JUMP JUMPDEST DUP4 DUP2 GT PUSH2 0x1611 JUMPI JUMPDEST POP DUP1 SWAP3 DUP5 GT PUSH1 0x1 EQ PUSH2 0x15AE JUMPI POP SWAP3 DUP3 SWAP4 SWAP2 DUP4 SWAP3 PUSH1 0x0 SWAP5 PUSH2 0x15A3 JUMPI JUMPDEST POP POP SHL SWAP2 PUSH1 0x0 NOT SWAP1 PUSH1 0x3 SHL SHR NOT AND OR SWAP1 SSTORE JUMP JUMPDEST ADD MLOAD SWAP3 POP CODESIZE DUP1 PUSH2 0x1590 JUMP JUMPDEST SWAP2 SWAP1 DUP4 PUSH1 0x1F NOT DUP2 AND DUP8 PUSH1 0x0 MSTORE DUP5 PUSH1 0x0 KECCAK256 SWAP5 PUSH1 0x0 SWAP1 JUMPDEST DUP9 DUP4 DUP4 LT PUSH2 0x15F7 JUMPI POP POP POP LT PUSH2 0x15DE JUMPI JUMPDEST POP POP POP DUP2 SHL ADD SWAP1 SSTORE JUMP JUMPDEST ADD MLOAD PUSH1 0x0 NOT PUSH1 0xF8 DUP5 PUSH1 0x3 SHL AND SHR NOT AND SWAP1 SSTORE CODESIZE DUP1 DUP1 PUSH2 0x15D4 JUMP JUMPDEST DUP6 DUP8 ADD MLOAD DUP9 SSTORE SWAP1 SWAP7 ADD SWAP6 SWAP5 DUP6 ADD SWAP5 DUP8 SWAP4 POP SWAP1 DUP2 ADD SWAP1 PUSH2 0x15C3 JUMP JUMPDEST PUSH2 0x163A SWAP1 DUP8 PUSH1 0x0 MSTORE DUP3 PUSH1 0x0 KECCAK256 DUP6 DUP1 DUP9 ADD PUSH1 0x5 SHR DUP3 ADD SWAP3 DUP6 DUP10 LT PUSH2 0x1640 JUMPI JUMPDEST ADD PUSH1 0x5 SHR ADD SWAP1 PUSH2 0x1455 JUMP JUMPDEST CODESIZE PUSH2 0x1575 JUMP JUMPDEST SWAP3 POP DUP2 SWAP3 PUSH2 0x162F JUMP JUMPDEST ADD MLOAD SWAP1 POP CODESIZE DUP1 PUSH2 0x1537 JUMP JUMPDEST DUP9 SWAP3 SWAP2 PUSH1 0x1F NOT DUP4 AND SWAP2 DUP6 PUSH1 0x0 MSTORE DUP8 PUSH1 0x0 KECCAK256 SWAP3 PUSH1 0x0 JUMPDEST DUP10 DUP3 DUP3 LT PUSH2 0x16AC JUMPI POP POP SWAP2 PUSH1 0x80 SWAP8 SWAP6 SWAP4 SWAP2 DUP6 PUSH1 0x4 SWAP9 SWAP7 SWAP5 LT PUSH2 0x1693 JUMPI JUMPDEST POP POP POP DUP2 SHL ADD SWAP1 SSTORE PUSH2 0x154B JUMP JUMPDEST ADD MLOAD PUSH1 0x0 NOT PUSH1 0xF8 DUP5 PUSH1 0x3 SHL AND SHR NOT AND SWAP1 SSTORE CODESIZE DUP1 DUP1 PUSH2 0x1686 JUMP JUMPDEST DUP4 DUP6 ADD MLOAD DUP7 SSTORE DUP14 SWAP8 SWAP1 SWAP6 ADD SWAP5 SWAP4 DUP5 ADD SWAP4 ADD PUSH2 0x1669 JUMP JUMPDEST PUSH2 0x16EA SWAP1 DUP5 PUSH1 0x0 MSTORE DUP7 PUSH1 0x0 KECCAK256 DUP9 DUP1 DUP7 ADD PUSH1 0x5 SHR DUP3 ADD SWAP3 DUP10 DUP8 LT PUSH2 0x1640 JUMPI ADD PUSH1 0x5 SHR ADD SWAP1 PUSH2 0x1455 JUMP JUMPDEST CODESIZE PUSH2 0x1518 JUMP JUMPDEST SWAP2 SWAP1 PUSH2 0x2125 JUMPI DUP1 MLOAD DUP3 SSTORE PUSH1 0x20 DUP2 ADD MLOAD PUSH1 0x1 DUP4 ADD DUP1 SLOAD PUSH1 0x40 DUP5 ADD MLOAD PUSH1 0xFF PUSH1 0xA0 SHL SWAP1 ISZERO ISZERO PUSH1 0xA0 SHL AND PUSH1 0x1 PUSH1 0x1 PUSH1 0xA0 SHL SUB SWAP1 SWAP4 AND PUSH1 0x1 PUSH1 0x1 PUSH1 0xA8 SHL SUB NOT SWAP1 SWAP2 AND OR SWAP2 SWAP1 SWAP2 OR SWAP1 SSTORE PUSH1 0x2 DUP3 ADD PUSH1 0x60 DUP3 ADD MLOAD DUP1 MLOAD SWAP1 PUSH1 0x1 PUSH1 0x1 PUSH1 0x40 SHL SUB DUP3 GT PUSH2 0x105B JUMPI DUP2 SWAP1 PUSH2 0x175A DUP5 SLOAD PUSH2 0x141B JUMP JUMPDEST PUSH1 0x1F DUP2 GT PUSH2 0x20F3 JUMPI JUMPDEST POP PUSH1 0x20 SWAP1 PUSH1 0x1F DUP4 GT PUSH1 0x1 EQ PUSH2 0x208D JUMPI PUSH1 0x0 SWAP3 PUSH2 0x2082 JUMPI JUMPDEST POP POP DUP2 PUSH1 0x1 SHL SWAP2 PUSH1 0x0 NOT SWAP1 PUSH1 0x3 SHL SHR NOT AND OR SWAP1 SSTORE JUMPDEST PUSH1 0x3 DUP3 ADD PUSH1 0x80 DUP3 ADD MLOAD DUP1 MLOAD SWAP1 PUSH1 0x1 PUSH1 0x1 PUSH1 0x40 SHL SUB DUP3 GT PUSH2 0x105B JUMPI DUP2 SWAP1 PUSH2 0x17B5 DUP5 SLOAD PUSH2 0x141B JUMP JUMPDEST PUSH1 0x1F DUP2 GT PUSH2 0x2050 JUMPI JUMPDEST POP PUSH1 0x20 SWAP1 PUSH1 0x1F DUP4 GT PUSH1 0x1 EQ PUSH2 0x1FEA JUMPI PUSH1 0x0 SWAP3 PUSH2 0x1FDF JUMPI JUMPDEST POP POP DUP2 PUSH1 0x1 SHL SWAP2 PUSH1 0x0 NOT SWAP1 PUSH1 0x3 SHL SHR NOT AND OR SWAP1 SSTORE JUMPDEST PUSH1 0x4 DUP3 ADD PUSH1 0xA0 DUP3 ADD MLOAD DUP1 MLOAD SWAP1 PUSH1 0x1 PUSH1 0x1 PUSH1 0x40 SHL SUB DUP3 GT PUSH2 0x105B JUMPI DUP2 SWAP1 PUSH2 0x1810 DUP5 SLOAD PUSH2 0x141B JUMP JUMPDEST PUSH1 0x1F DUP2 GT PUSH2 0x1FAD JUMPI JUMPDEST POP PUSH1 0x20 SWAP1 PUSH1 0x1F DUP4 GT PUSH1 0x1 EQ PUSH2 0x1F47 JUMPI PUSH1 0x0 SWAP3 PUSH2 0x1F3C JUMPI JUMPDEST POP POP DUP2 PUSH1 0x1 SHL SWAP2 PUSH1 0x0 NOT SWAP1 PUSH1 0x3 SHL SHR NOT AND OR SWAP1 SSTORE JUMPDEST PUSH1 0x5 DUP3 ADD PUSH1 0xC0 DUP3 ADD MLOAD DUP1 MLOAD SWAP1 PUSH1 0x1 PUSH1 0x1 PUSH1 0x40 SHL SUB DUP3 GT PUSH2 0x105B JUMPI DUP2 SWAP1 PUSH2 0x186B DUP5 SLOAD PUSH2 0x141B JUMP JUMPDEST PUSH1 0x1F DUP2 GT PUSH2 0x1F0A JUMPI JUMPDEST POP PUSH1 0x20 SWAP1 PUSH1 0x1F DUP4 GT PUSH1 0x1 EQ PUSH2 0x1EA4 JUMPI PUSH1 0x0 SWAP3 PUSH2 0x1E99 JUMPI JUMPDEST POP POP DUP2 PUSH1 0x1 SHL SWAP2 PUSH1 0x0 NOT SWAP1 PUSH1 0x3 SHL SHR NOT AND OR SWAP1 SSTORE JUMPDEST PUSH1 0xE0 DUP2 ADD MLOAD SWAP3 DUP4 MLOAD PUSH1 0x1 PUSH1 0x1 PUSH1 0x40 SHL SUB DUP2 GT PUSH2 0x105B JUMPI PUSH2 0x18C3 PUSH1 0x6 DUP6 ADD SLOAD PUSH2 0x141B JUMP JUMPDEST PUSH1 0x1F DUP2 GT PUSH2 0x1E64 JUMPI JUMPDEST POP PUSH1 0x20 SWAP5 PUSH1 0x1F DUP3 GT PUSH1 0x1 EQ PUSH2 0x1DF8 JUMPI SWAP5 DUP2 SWAP3 SWAP4 SWAP5 SWAP6 PUSH1 0x0 SWAP3 PUSH2 0x1DED JUMPI JUMPDEST POP POP DUP2 PUSH1 0x1 SHL SWAP2 PUSH1 0x0 NOT SWAP1 PUSH1 0x3 SHL SHR NOT AND OR PUSH1 0x6 DUP5 ADD SSTORE JUMPDEST PUSH2 0x100 DUP3 ADD MLOAD SWAP3 DUP4 MLOAD PUSH1 0x1 PUSH1 0x1 PUSH1 0x40 SHL SUB DUP2 GT PUSH2 0x105B JUMPI PUSH2 0x1925 PUSH1 0x7 DUP4 ADD SLOAD PUSH2 0x141B JUMP JUMPDEST PUSH1 0x1F DUP2 GT PUSH2 0x1DB8 JUMPI JUMPDEST POP PUSH1 0x20 PUSH1 0x1F DUP3 GT PUSH1 0x1 EQ PUSH2 0x1D49 JUMPI DUP2 SWAP3 SWAP4 SWAP5 SWAP6 PUSH1 0x0 SWAP3 PUSH2 0x1D3E JUMPI JUMPDEST POP POP DUP2 PUSH1 0x1 SHL SWAP2 PUSH1 0x0 NOT SWAP1 PUSH1 0x3 SHL SHR NOT AND OR PUSH1 0x7 DUP3 ADD SSTORE JUMPDEST PUSH2 0x120 DUP4 ADD MLOAD SWAP3 DUP4 MLOAD PUSH1 0x1 PUSH1 0x1 PUSH1 0x40 SHL SUB DUP2 GT PUSH2 0x105B JUMPI PUSH2 0x1985 PUSH1 0x8 DUP5 ADD SLOAD PUSH2 0x141B JUMP JUMPDEST PUSH1 0x1F DUP2 GT PUSH2 0x1D09 JUMPI JUMPDEST POP PUSH1 0x20 PUSH1 0x1F DUP3 GT PUSH1 0x1 EQ PUSH2 0x1C9A JUMPI DUP2 SWAP3 SWAP4 SWAP5 SWAP6 PUSH1 0x0 SWAP3 PUSH2 0x1C8F JUMPI JUMPDEST POP POP DUP2 PUSH1 0x1 SHL SWAP2 PUSH1 0x0 NOT SWAP1 PUSH1 0x3 SHL SHR NOT AND OR PUSH1 0x8 DUP4 ADD SSTORE JUMPDEST PUSH1 0x9 DUP3 ADD PUSH2 0x140 DUP3 ADD MLOAD DUP1 MLOAD SWAP1 PUSH1 0x1 PUSH1 0x1 PUSH1 0x40 SHL SUB DUP3 GT PUSH2 0x105B JUMPI DUP2 SWAP1 PUSH2 0x19E8 DUP5 SLOAD PUSH2 0x141B JUMP JUMPDEST PUSH1 0x1F DUP2 GT PUSH2 0x1C5D JUMPI JUMPDEST POP PUSH1 0x20 SWAP1 PUSH1 0x1F DUP4 GT PUSH1 0x1 EQ PUSH2 0x1BF7 JUMPI PUSH1 0x0 SWAP3 PUSH2 0x1BEC JUMPI JUMPDEST POP POP DUP2 PUSH1 0x1 SHL SWAP2 PUSH1 0x0 NOT SWAP1 PUSH1 0x3 SHL SHR NOT AND OR SWAP1 SSTORE JUMPDEST PUSH2 0x160 DUP2 ADD MLOAD PUSH1 0xA DUP4 ADD SSTORE PUSH2 0x180 DUP2 ADD MLOAD DUP1 MLOAD PUSH1 0x1 PUSH1 0x40 SHL SWAP4 SWAP2 PUSH1 0xB DUP4 ADD SWAP1 DUP6 DUP4 GT PUSH2 0x105B JUMPI DUP2 SLOAD DUP4 DUP4 SSTORE DUP1 DUP5 LT PUSH2 0x1B81 JUMPI JUMPDEST POP PUSH1 0x20 ADD SWAP1 PUSH1 0x0 MSTORE PUSH1 0x20 PUSH1 0x0 KECCAK256 PUSH1 0x0 SWAP2 JUMPDEST DUP4 DUP4 LT PUSH2 0x1B63 JUMPI POP POP POP POP PUSH1 0xC PUSH2 0x1A0 SWAP2 ADD SWAP2 ADD MLOAD DUP1 MLOAD SWAP3 DUP4 GT PUSH2 0x105B JUMPI DUP2 SLOAD DUP4 DUP4 SSTORE DUP1 DUP5 LT PUSH2 0x1AFA JUMPI JUMPDEST POP PUSH1 0x20 ADD SWAP1 PUSH1 0x0 MSTORE PUSH1 0x20 PUSH1 0x0 KECCAK256 PUSH1 0x0 SWAP2 JUMPDEST DUP4 DUP4 LT PUSH2 0x1AAA JUMPI POP POP POP POP JUMP JUMPDEST PUSH1 0x3 PUSH1 0x20 DUP3 PUSH2 0x1AEE PUSH1 0x1 SWAP5 MLOAD DUP7 SWAP1 PUSH1 0x40 PUSH1 0x2 SWAP2 PUSH1 0x1 DUP1 PUSH1 0xA0 SHL SUB DUP2 MLOAD AND PUSH12 0xFFFFFFFFFFFFFFFFFFFFFFFF PUSH1 0xA0 SHL DUP6 SLOAD AND OR DUP5 SSTORE PUSH1 0x20 DUP2 ADD MLOAD PUSH1 0x1 DUP6 ADD SSTORE ADD MLOAD SWAP2 ADD SSTORE JUMP JUMPDEST ADD SWAP3 ADD SWAP3 ADD SWAP2 SWAP1 PUSH2 0x1A9D JUMP JUMPDEST DUP1 PUSH1 0x3 MUL SWAP1 PUSH1 0x3 DUP3 DIV SUB PUSH2 0x1B4D JUMPI DUP4 PUSH1 0x3 MUL PUSH1 0x3 DUP2 DIV DUP6 SUB PUSH2 0x1B4D JUMPI DUP4 PUSH1 0x0 MSTORE PUSH1 0x20 PUSH1 0x0 KECCAK256 SWAP2 DUP3 ADD SWAP2 ADD JUMPDEST DUP2 DUP2 LT PUSH2 0x1B32 JUMPI POP PUSH2 0x1A8C JUMP JUMPDEST DUP1 PUSH1 0x0 PUSH1 0x3 SWAP3 SSTORE PUSH1 0x0 PUSH1 0x1 DUP3 ADD SSTORE PUSH1 0x0 PUSH1 0x2 DUP3 ADD SSTORE ADD PUSH2 0x1B25 JUMP JUMPDEST PUSH4 0x4E487B71 PUSH1 0xE0 SHL PUSH1 0x0 MSTORE PUSH1 0x11 PUSH1 0x4 MSTORE PUSH1 0x24 PUSH1 0x0 REVERT JUMPDEST PUSH1 0x5 PUSH1 0x20 DUP3 PUSH2 0x1B75 PUSH1 0x1 SWAP5 MLOAD DUP7 PUSH2 0x14B6 JUMP JUMPDEST ADD SWAP3 ADD SWAP3 ADD SWAP2 SWAP1 PUSH2 0x1A61 JUMP JUMPDEST DUP1 PUSH1 0x5 MUL SWAP1 PUSH1 0x5 DUP3 DIV SUB PUSH2 0x1B4D JUMPI DUP4 PUSH1 0x5 MUL PUSH1 0x5 DUP2 DIV DUP6 SUB PUSH2 0x1B4D JUMPI DUP4 PUSH1 0x0 MSTORE PUSH1 0x20 PUSH1 0x0 KECCAK256 SWAP2 DUP3 ADD SWAP2 ADD JUMPDEST DUP2 DUP2 LT PUSH2 0x1BB9 JUMPI POP PUSH2 0x1A50 JUMP JUMPDEST DUP1 PUSH1 0x0 PUSH1 0x5 SWAP3 SSTORE PUSH1 0x0 PUSH1 0x1 DUP3 ADD SSTORE PUSH2 0x1BD3 PUSH1 0x2 DUP3 ADD PUSH2 0x146C JUMP JUMPDEST PUSH1 0x0 PUSH1 0x3 DUP3 ADD SSTORE PUSH2 0x1BE6 PUSH1 0x4 DUP3 ADD PUSH2 0x146C JUMP JUMPDEST ADD PUSH2 0x1BAC JUMP JUMPDEST ADD MLOAD SWAP1 POP CODESIZE DUP1 PUSH2 0x1A08 JUMP JUMPDEST PUSH1 0x0 DUP6 DUP2 MSTORE PUSH1 0x20 DUP2 KECCAK256 SWAP4 POP PUSH1 0x1F NOT DUP6 AND SWAP1 JUMPDEST DUP2 DUP2 LT PUSH2 0x1C45 JUMPI POP SWAP1 DUP5 PUSH1 0x1 SWAP6 SWAP5 SWAP4 SWAP3 LT PUSH2 0x1C2C JUMPI JUMPDEST POP POP POP DUP2 SHL ADD SWAP1 SSTORE PUSH2 0x1A1D JUMP JUMPDEST ADD MLOAD PUSH1 0x0 NOT PUSH1 0xF8 DUP5 PUSH1 0x3 SHL AND SHR NOT AND SWAP1 SSTORE CODESIZE DUP1 DUP1 PUSH2 0x1C1F JUMP JUMPDEST SWAP3 SWAP4 PUSH1 0x20 PUSH1 0x1 DUP2 SWAP3 DUP8 DUP7 ADD MLOAD DUP2 SSTORE ADD SWAP6 ADD SWAP4 ADD PUSH2 0x1C09 JUMP JUMPDEST PUSH2 0x1C89 SWAP1 DUP6 PUSH1 0x0 MSTORE PUSH1 0x20 PUSH1 0x0 KECCAK256 PUSH1 0x1F DUP6 ADD PUSH1 0x5 SHR DUP2 ADD SWAP2 PUSH1 0x20 DUP7 LT PUSH2 0x210 JUMPI PUSH1 0x1F ADD PUSH1 0x5 SHR ADD SWAP1 PUSH2 0x1455 JUMP JUMPDEST CODESIZE PUSH2 0x19F1 JUMP JUMPDEST ADD MLOAD SWAP1 POP CODESIZE DUP1 PUSH2 0x19A9 JUMP JUMPDEST PUSH1 0x8 DUP5 ADD PUSH1 0x0 MSTORE PUSH1 0x20 PUSH1 0x0 KECCAK256 SWAP1 PUSH1 0x0 JUMPDEST PUSH1 0x1F NOT DUP5 AND DUP2 LT PUSH2 0x1CF1 JUMPI POP PUSH1 0x1 SWAP4 SWAP5 SWAP6 SWAP7 DUP4 PUSH1 0x1F NOT DUP2 AND LT PUSH2 0x1CD8 JUMPI JUMPDEST POP POP POP DUP2 SHL ADD PUSH1 0x8 DUP4 ADD SSTORE PUSH2 0x19C1 JUMP JUMPDEST ADD MLOAD PUSH1 0x0 NOT PUSH1 0xF8 DUP5 PUSH1 0x3 SHL AND SHR NOT AND SWAP1 SSTORE CODESIZE DUP1 DUP1 PUSH2 0x1CC8 JUMP JUMPDEST SWAP1 SWAP2 PUSH1 0x20 PUSH1 0x1 DUP2 SWAP3 DUP6 DUP12 ADD MLOAD DUP2 SSTORE ADD SWAP4 ADD SWAP2 ADD PUSH2 0x1CAA JUMP JUMPDEST PUSH2 0x1D38 SWAP1 PUSH1 0x8 DUP6 ADD PUSH1 0x0 MSTORE PUSH1 0x20 PUSH1 0x0 KECCAK256 PUSH1 0x1F DUP5 ADD PUSH1 0x5 SHR DUP2 ADD SWAP2 PUSH1 0x20 DUP6 LT PUSH2 0x210 JUMPI PUSH1 0x1F ADD PUSH1 0x5 SHR ADD SWAP1 PUSH2 0x1455 JUMP JUMPDEST CODESIZE PUSH2 0x198E JUMP JUMPDEST ADD MLOAD SWAP1 POP CODESIZE DUP1 PUSH2 0x1949 JUMP JUMPDEST PUSH1 0x7 DUP4 ADD PUSH1 0x0 MSTORE PUSH1 0x20 PUSH1 0x0 KECCAK256 SWAP1 PUSH1 0x0 JUMPDEST PUSH1 0x1F NOT DUP5 AND DUP2 LT PUSH2 0x1DA0 JUMPI POP PUSH1 0x1 SWAP4 SWAP5 SWAP6 SWAP7 DUP4 PUSH1 0x1F NOT DUP2 AND LT PUSH2 0x1D87 JUMPI JUMPDEST POP POP POP DUP2 SHL ADD PUSH1 0x7 DUP3 ADD SSTORE PUSH2 0x1961 JUMP JUMPDEST ADD MLOAD PUSH1 0x0 NOT PUSH1 0xF8 DUP5 PUSH1 0x3 SHL AND SHR NOT AND SWAP1 SSTORE CODESIZE DUP1 DUP1 PUSH2 0x1D77 JUMP JUMPDEST SWAP1 SWAP2 PUSH1 0x20 PUSH1 0x1 DUP2 SWAP3 DUP6 DUP12 ADD MLOAD DUP2 SSTORE ADD SWAP4 ADD SWAP2 ADD PUSH2 0x1D59 JUMP JUMPDEST PUSH2 0x1DE7 SWAP1 PUSH1 0x7 DUP5 ADD PUSH1 0x0 MSTORE PUSH1 0x20 PUSH1 0x0 KECCAK256 PUSH1 0x1F DUP5 ADD PUSH1 0x5 SHR DUP2 ADD SWAP2 PUSH1 0x20 DUP6 LT PUSH2 0x210 JUMPI PUSH1 0x1F ADD PUSH1 0x5 SHR ADD SWAP1 PUSH2 0x1455 JUMP JUMPDEST CODESIZE PUSH2 0x192E JUMP JUMPDEST ADD MLOAD SWAP1 POP CODESIZE DUP1 PUSH2 0x18E9 JUMP JUMPDEST PUSH1 0x1F NOT DUP3 AND SWAP6 PUSH1 0x6 DUP7 ADD PUSH1 0x0 MSTORE PUSH1 0x20 PUSH1 0x0 KECCAK256 SWAP2 PUSH1 0x0 JUMPDEST DUP9 DUP2 LT PUSH2 0x1E4C JUMPI POP DUP4 PUSH1 0x1 SWAP6 SWAP7 SWAP8 SWAP9 LT PUSH2 0x1E33 JUMPI JUMPDEST POP POP POP DUP2 SHL ADD PUSH1 0x6 DUP5 ADD SSTORE PUSH2 0x1901 JUMP JUMPDEST ADD MLOAD PUSH1 0x0 NOT PUSH1 0xF8 DUP5 PUSH1 0x3 SHL AND SHR NOT AND SWAP1 SSTORE CODESIZE DUP1 DUP1 PUSH2 0x1E23 JUMP JUMPDEST SWAP2 SWAP3 PUSH1 0x20 PUSH1 0x1 DUP2 SWAP3 DUP7 DUP6 ADD MLOAD DUP2 SSTORE ADD SWAP5 ADD SWAP3 ADD PUSH2 0x1E0E JUMP JUMPDEST PUSH2 0x1E93 SWAP1 PUSH1 0x6 DUP7 ADD PUSH1 0x0 MSTORE PUSH1 0x20 PUSH1 0x0 KECCAK256 PUSH1 0x1F DUP5 ADD PUSH1 0x5 SHR DUP2 ADD SWAP2 PUSH1 0x20 DUP6 LT PUSH2 0x210 JUMPI PUSH1 0x1F ADD PUSH1 0x5 SHR ADD SWAP1 PUSH2 0x1455 JUMP JUMPDEST CODESIZE PUSH2 0x18CC JUMP JUMPDEST ADD MLOAD SWAP1 POP CODESIZE DUP1 PUSH2 0x188B JUMP JUMPDEST PUSH1 0x0 DUP6 DUP2 MSTORE PUSH1 0x20 DUP2 KECCAK256 SWAP4 POP PUSH1 0x1F NOT DUP6 AND SWAP1 JUMPDEST DUP2 DUP2 LT PUSH2 0x1EF2 JUMPI POP SWAP1 DUP5 PUSH1 0x1 SWAP6 SWAP5 SWAP4 SWAP3 LT PUSH2 0x1ED9 JUMPI JUMPDEST POP POP POP DUP2 SHL ADD SWAP1 SSTORE PUSH2 0x18A0 JUMP JUMPDEST ADD MLOAD PUSH1 0x0 NOT PUSH1 0xF8 DUP5 PUSH1 0x3 SHL AND SHR NOT AND SWAP1 SSTORE CODESIZE DUP1 DUP1 PUSH2 0x1ECC JUMP JUMPDEST SWAP3 SWAP4 PUSH1 0x20 PUSH1 0x1 DUP2 SWAP3 DUP8 DUP7 ADD MLOAD DUP2 SSTORE ADD SWAP6 ADD SWAP4 ADD PUSH2 0x1EB6 JUMP JUMPDEST PUSH2 0x1F36 SWAP1 DUP6 PUSH1 0x0 MSTORE PUSH1 0x20 PUSH1 0x0 KECCAK256 PUSH1 0x1F DUP6 ADD PUSH1 0x5 SHR DUP2 ADD SWAP2 PUSH1 0x20 DUP7 LT PUSH2 0x210 JUMPI PUSH1 0x1F ADD PUSH1 0x5 SHR ADD SWAP1 PUSH2 0x1455 JUMP JUMPDEST CODESIZE PUSH2 0x1874 JUMP JUMPDEST ADD MLOAD SWAP1 POP CODESIZE DUP1 PUSH2 0x1830 JUMP JUMPDEST PUSH1 0x0 DUP6 DUP2 MSTORE PUSH1 0x20 DUP2 KECCAK256 SWAP4 POP PUSH1 0x1F NOT DUP6 AND SWAP1 JUMPDEST DUP2 DUP2 LT PUSH2 0x1F95 JUMPI POP SWAP1 DUP5 PUSH1 0x1 SWAP6 SWAP5 SWAP4 SWAP3 LT PUSH2 0x1F7C JUMPI JUMPDEST POP POP POP DUP2 SHL ADD SWAP1 SSTORE PUSH2 0x1845 JUMP JUMPDEST ADD MLOAD PUSH1 0x0 NOT PUSH1 0xF8 DUP5 PUSH1 0x3 SHL AND SHR NOT AND SWAP1 SSTORE CODESIZE DUP1 DUP1 PUSH2 0x1F6F JUMP JUMPDEST SWAP3 SWAP4 PUSH1 0x20 PUSH1 0x1 DUP2 SWAP3 DUP8 DUP7 ADD MLOAD DUP2 SSTORE ADD SWAP6 ADD SWAP4 ADD PUSH2 0x1F59 JUMP JUMPDEST PUSH2 0x1FD9 SWAP1 DUP6 PUSH1 0x0 MSTORE PUSH1 0x20 PUSH1 0x0 KECCAK256 PUSH1 0x1F DUP6 ADD PUSH1 0x5 SHR DUP2 ADD SWAP2 PUSH1 0x20 DUP7 LT PUSH2 0x210 JUMPI PUSH1 0x1F ADD PUSH1 0x5 SHR ADD SWAP1 PUSH2 0x1455 JUMP JUMPDEST CODESIZE PUSH2 0x1819 JUMP JUMPDEST ADD MLOAD SWAP1 POP CODESIZE DUP1 PUSH2 0x17D5 JUMP JUMPDEST PUSH1 0x0 DUP6 DUP2 MSTORE PUSH1 0x20 DUP2 KECCAK256 SWAP4 POP PUSH1 0x1F NOT DUP6 AND SWAP1 JUMPDEST DUP2 DUP2 LT PUSH2 0x2038 JUMPI POP SWAP1 DUP5 PUSH1 0x1 SWAP6 SWAP5 SWAP4 SWAP3 LT PUSH2 0x201F JUMPI JUMPDEST POP POP POP DUP2 SHL ADD SWAP1 SSTORE PUSH2 0x17EA JUMP JUMPDEST ADD MLOAD PUSH1 0x0 NOT PUSH1 0xF8 DUP5 PUSH1 0x3 SHL AND SHR NOT AND SWAP1 SSTORE CODESIZE DUP1 DUP1 PUSH2 0x2012 JUMP JUMPDEST SWAP3 SWAP4 PUSH1 0x20 PUSH1 0x1 DUP2 SWAP3 DUP8 DUP7 ADD MLOAD DUP2 SSTORE ADD SWAP6 ADD SWAP4 ADD PUSH2 0x1FFC JUMP JUMPDEST PUSH2 0x207C SWAP1 DUP6 PUSH1 0x0 MSTORE PUSH1 0x20 PUSH1 0x0 KECCAK256 PUSH1 0x1F DUP6 ADD PUSH1 0x5 SHR DUP2 ADD SWAP2 PUSH1 0x20 DUP7 LT PUSH2 0x210 JUMPI PUSH1 0x1F ADD PUSH1 0x5 SHR ADD SWAP1 PUSH2 0x1455 JUMP JUMPDEST CODESIZE PUSH2 0x17BE JUMP JUMPDEST ADD MLOAD SWAP1 POP CODESIZE DUP1 PUSH2 0x177A JUMP JUMPDEST PUSH1 0x0 DUP6 DUP2 MSTORE PUSH1 0x20 DUP2 KECCAK256 SWAP4 POP PUSH1 0x1F NOT DUP6 AND SWAP1 JUMPDEST DUP2 DUP2 LT PUSH2 0x20DB JUMPI POP SWAP1 DUP5 PUSH1 0x1 SWAP6 SWAP5 SWAP4 SWAP3 LT PUSH2 0x20C2 JUMPI JUMPDEST POP POP POP DUP2 SHL ADD SWAP1 SSTORE PUSH2 0x178F JUMP JUMPDEST ADD MLOAD PUSH1 0x0 NOT PUSH1 0xF8 DUP5 PUSH1 0x3 SHL AND SHR NOT AND SWAP1 SSTORE CODESIZE DUP1 DUP1 PUSH2 0x20B5 JUMP JUMPDEST SWAP3 SWAP4 PUSH1 0x20 PUSH1 0x1 DUP2 SWAP3 DUP8 DUP7 ADD MLOAD DUP2 SSTORE ADD SWAP6 ADD SWAP4 ADD PUSH2 0x209F JUMP JUMPDEST PUSH2 0x211F SWAP1 DUP6 PUSH1 0x0 MSTORE PUSH1 0x20 PUSH1 0x0 KECCAK256 PUSH1 0x1F DUP6 ADD PUSH1 0x5 SHR DUP2 ADD SWAP2 PUSH1 0x20 DUP7 LT PUSH2 0x210 JUMPI PUSH1 0x1F ADD PUSH1 0x5 SHR ADD SWAP1 PUSH2 0x1455 JUMP JUMPDEST CODESIZE PUSH2 0x1763 JUMP JUMPDEST PUSH4 0x4E487B71 PUSH1 0xE0 SHL PUSH1 0x0 MSTORE PUSH1 0x0 PUSH1 0x4 MSTORE PUSH1 0x24 PUSH1 0x0 REVERT JUMPDEST PUSH2 0x2153 SWAP1 PUSH1 0x20 PUSH1 0x40 MLOAD SWAP3 DUP3 DUP5 DUP1 SWAP5 MLOAD SWAP4 DUP5 SWAP3 ADD PUSH2 0x112F JUMP JUMPDEST DUP2 ADD SUB SWAP1 KECCAK256 SWAP1 JUMP JUMPDEST PUSH1 0x0 NOT DUP2 EQ PUSH2 0x1B4D JUMPI PUSH1 0x1 ADD SWAP1 JUMP JUMPDEST SWAP1 PUSH1 0x40 MLOAD SWAP2 DUP3 PUSH1 0x0 DUP3 SLOAD SWAP3 PUSH2 0x217E DUP5 PUSH2 0x141B JUMP JUMPDEST SWAP1 DUP2 DUP5 MSTORE PUSH1 0x1 SWAP5 DUP6 DUP2 AND SWAP1 DUP2 PUSH1 0x0 EQ PUSH2 0x21EB JUMPI POP PUSH1 0x1 EQ PUSH2 0x21A8 JUMPI JUMPDEST POP POP PUSH2 0x1491 SWAP3 POP SUB DUP4 PUSH2 0x10A7 JUMP JUMPDEST SWAP1 SWAP4 SWAP2 POP PUSH1 0x0 MSTORE PUSH1 0x20 SWAP1 DUP2 PUSH1 0x0 KECCAK256 SWAP4 PUSH1 0x0 SWAP2 JUMPDEST DUP2 DUP4 LT PUSH2 0x21D3 JUMPI POP POP PUSH2 0x1491 SWAP4 POP DUP3 ADD ADD CODESIZE DUP1 PUSH2 0x219A JUMP JUMPDEST DUP6 SLOAD DUP9 DUP5 ADD DUP6 ADD MSTORE SWAP5 DUP6 ADD SWAP5 DUP8 SWAP5 POP SWAP2 DUP4 ADD SWAP2 PUSH2 0x21BB JUMP JUMPDEST SWAP2 POP POP PUSH2 0x1491 SWAP5 POP PUSH1 0x20 SWAP3 POP PUSH1 0xFF NOT AND DUP3 DUP5 ADD MSTORE ISZERO ISZERO PUSH1 0x5 SHL DUP3 ADD ADD CODESIZE DUP1 PUSH2 0x219A JUMP JUMPDEST SWAP1 PUSH1 0x40 MLOAD SWAP2 PUSH1 0x20 SWAP3 PUSH2 0x223C DUP5 DUP3 DUP2 PUSH2 0x222F DUP2 DUP4 ADD SWAP7 DUP8 DUP2 MLOAD SWAP4 DUP5 SWAP3 ADD PUSH2 0x112F JUMP JUMPDEST DUP2 ADD SUB DUP1 DUP5 MSTORE ADD DUP3 PUSH2 0x10A7 JUMP JUMPDEST MLOAD SWAP1 KECCAK256 SWAP2 PUSH2 0x225C PUSH1 0x40 MLOAD SWAP2 DUP3 DUP2 PUSH2 0x222F DUP2 DUP4 ADD SWAP7 DUP8 DUP2 MLOAD SWAP4 DUP5 SWAP3 ADD PUSH2 0x112F JUMP JUMPDEST MLOAD SWAP1 KECCAK256 EQ SWAP1 JUMP JUMPDEST PUSH1 0x1 PUSH1 0x1 PUSH1 0x40 SHL SUB DUP2 GT PUSH2 0x105B JUMPI PUSH1 0x5 SHL PUSH1 0x20 ADD SWAP1 JUMP JUMPDEST SWAP1 DUP2 SLOAD PUSH2 0x2286 DUP2 PUSH2 0x2263 JUMP JUMPDEST SWAP3 PUSH1 0x40 SWAP4 PUSH2 0x2296 DUP6 MLOAD SWAP2 DUP3 PUSH2 0x10A7 JUMP JUMPDEST DUP3 DUP2 MSTORE DUP1 SWAP5 PUSH1 0x20 DUP1 SWAP3 ADD SWAP3 PUSH1 0x0 MSTORE DUP2 PUSH1 0x0 KECCAK256 SWAP1 PUSH1 0x0 SWAP4 JUMPDEST DUP6 DUP6 LT PUSH2 0x22BC JUMPI POP POP POP POP POP POP JUMP JUMPDEST PUSH1 0x5 DUP5 PUSH1 0x1 SWAP3 DUP5 MLOAD PUSH2 0x22CD DUP2 PUSH2 0x1071 JUMP JUMPDEST DUP5 DUP1 PUSH1 0xA0 SHL SUB DUP8 SLOAD AND DUP2 MSTORE DUP5 DUP8 ADD SLOAD DUP4 DUP3 ADD MSTORE PUSH2 0x22EC PUSH1 0x2 DUP9 ADD PUSH2 0x216A JUMP JUMPDEST DUP7 DUP3 ADD MSTORE PUSH1 0x3 DUP8 ADD SLOAD PUSH1 0x60 DUP3 ADD MSTORE PUSH2 0x2306 PUSH1 0x4 DUP9 ADD PUSH2 0x216A JUMP JUMPDEST PUSH1 0x80 DUP3 ADD MSTORE DUP2 MSTORE ADD SWAP4 ADD SWAP5 ADD SWAP4 SWAP2 PUSH2 0x22AD JUMP JUMPDEST SWAP1 DUP2 SLOAD PUSH2 0x2325 DUP2 PUSH2 0x2263 JUMP JUMPDEST SWAP3 PUSH1 0x40 SWAP4 PUSH2 0x2335 DUP6 MLOAD SWAP2 DUP3 PUSH2 0x10A7 JUMP JUMPDEST DUP3 DUP2 MSTORE DUP1 SWAP5 PUSH1 0x20 DUP1 SWAP3 ADD SWAP3 PUSH1 0x0 MSTORE DUP2 PUSH1 0x0 KECCAK256 SWAP1 PUSH1 0x0 SWAP4 JUMPDEST DUP6 DUP6 LT PUSH2 0x235B JUMPI POP POP POP POP POP POP JUMP JUMPDEST PUSH1 0x3 DUP5 PUSH1 0x1 SWAP3 DUP5 MLOAD PUSH2 0x236C DUP2 PUSH2 0x108C JUMP JUMPDEST DUP5 DUP1 PUSH1 0xA0 SHL SUB DUP8 SLOAD AND DUP2 MSTORE DUP5 DUP8 ADD SLOAD DUP4 DUP3 ADD MSTORE PUSH1 0x2 DUP8 ADD SLOAD DUP7 DUP3 ADD MSTORE DUP2 MSTORE ADD SWAP4 ADD SWAP5 ADD SWAP4 SWAP2 PUSH2 0x234C JUMP JUMPDEST SWAP1 PUSH1 0x40 MLOAD PUSH2 0x23A3 DUP2 PUSH2 0x103F JUMP JUMPDEST PUSH2 0x1A0 PUSH2 0x247F PUSH1 0xC DUP4 SWAP6 DUP1 SLOAD DUP6 MSTORE PUSH1 0xFF PUSH1 0x1 DUP3 ADD SLOAD PUSH1 0x1 DUP1 PUSH1 0xA0 SHL SUB DUP2 AND PUSH1 0x20 DUP9 ADD MSTORE PUSH1 0xA0 SHR AND ISZERO ISZERO PUSH1 0x40 DUP7 ADD MSTORE PUSH2 0x23DD PUSH1 0x2 DUP3 ADD PUSH2 0x216A JUMP JUMPDEST PUSH1 0x60 DUP7 ADD MSTORE PUSH2 0x23EE PUSH1 0x3 DUP3 ADD PUSH2 0x216A JUMP JUMPDEST PUSH1 0x80 DUP7 ADD MSTORE PUSH2 0x23FF PUSH1 0x4 DUP3 ADD PUSH2 0x216A JUMP JUMPDEST PUSH1 0xA0 DUP7 ADD MSTORE PUSH2 0x2410 PUSH1 0x5 DUP3 ADD PUSH2 0x216A JUMP JUMPDEST PUSH1 0xC0 DUP7 ADD MSTORE PUSH2 0x2421 PUSH1 0x6 DUP3 ADD PUSH2 0x216A JUMP JUMPDEST PUSH1 0xE0 DUP7 ADD MSTORE PUSH2 0x2432 PUSH1 0x7 DUP3 ADD PUSH2 0x216A JUMP JUMPDEST PUSH2 0x100 DUP7 ADD MSTORE PUSH2 0x2444 PUSH1 0x8 DUP3 ADD PUSH2 0x216A JUMP JUMPDEST PUSH2 0x120 DUP7 ADD MSTORE PUSH2 0x2456 PUSH1 0x9 DUP3 ADD PUSH2 0x216A JUMP JUMPDEST PUSH2 0x140 DUP7 ADD MSTORE PUSH1 0xA DUP2 ADD SLOAD PUSH2 0x160 DUP7 ADD MSTORE PUSH2 0x2473 PUSH1 0xB DUP3 ADD PUSH2 0x227A JUMP JUMPDEST PUSH2 0x180 DUP7 ADD MSTORE ADD PUSH2 0x2319 JUMP JUMPDEST SWAP2 ADD MSTORE JUMP JUMPDEST SWAP1 PUSH2 0x248E DUP3 PUSH2 0x2263 JUMP JUMPDEST PUSH1 0x40 SWAP1 PUSH2 0x249D DUP3 MLOAD SWAP2 DUP3 PUSH2 0x10A7 JUMP JUMPDEST DUP4 DUP2 MSTORE DUP1 SWAP4 PUSH2 0x24AE PUSH1 0x1F NOT SWAP2 PUSH2 0x2263 JUMP JUMPDEST ADD SWAP2 PUSH1 0x0 JUMPDEST DUP4 DUP2 LT PUSH2 0x24C0 JUMPI POP POP POP POP JUMP JUMPDEST PUSH1 0x20 SWAP1 DUP3 MLOAD PUSH2 0x24CE DUP2 PUSH2 0x103F JUMP JUMPDEST PUSH1 0x0 DUP2 MSTORE DUP3 PUSH1 0x0 DUP2 DUP4 ADD MSTORE PUSH1 0x0 DUP6 DUP4 ADD MSTORE PUSH1 0x60 DUP1 DUP1 DUP5 ADD MSTORE DUP1 PUSH1 0x80 DUP5 ADD MSTORE DUP1 PUSH1 0xA0 DUP5 ADD MSTORE DUP1 PUSH1 0xC0 DUP5 ADD MSTORE DUP1 PUSH1 0xE0 DUP5 ADD MSTORE DUP1 PUSH2 0x100 DUP5 ADD MSTORE DUP1 PUSH2 0x120 DUP5 ADD MSTORE DUP1 PUSH2 0x140 DUP5 ADD MSTORE PUSH1 0x0 PUSH2 0x160 DUP5 ADD MSTORE DUP1 PUSH2 0x180 DUP5 ADD MSTORE PUSH2 0x1A0 DUP4 ADD MSTORE DUP3 DUP7 ADD ADD MSTORE ADD PUSH2 0x24B3 JUMP JUMPDEST DUP1 MLOAD DUP3 LT ISZERO PUSH2 0x1405 JUMPI PUSH1 0x20 SWAP2 PUSH1 0x5 SHL ADD ADD SWAP1 JUMP INVALID LOG2 PUSH5 0x6970667358 0x22 SLT KECCAK256 SAR 0x5D PUSH28 0xEFB2FEA8A867E47E59A90FEDBD1D8DEAB917B5E434C7C93274FCF81C PUSH21 0x64736F6C6343000814003300000000000000000000 "
        },
        "methodIdentifiers": {
          "addComment(string,uint256,string,string,address)": "93ec02f1",
          "addressToLastGetMetaverseToken(address)": "bddff4d8",
          "buyItem(string,address,uint256)": "d41aab23",
          "changeListingVisibility(string,bool)": "990d6459",
          "get1000MetaverseToken()": "e607a8ba",
          "getAllUserListings()": "9992b606",
          "getListingByProductType(string)": "9dee74d5",
          "getProceeds(address,string)": "a39249b8",
          "getUserListing()": "7791b330",
          "listItem(uint256,string,string,string,string,string,string,string,string,uint256)": "1a13cc59",
          "metaverseToken()": "3829f313",
          "setUsername(string)": "ed59313a",
          "updateListing(string,uint256,string,string,string,string,string)": "318bb5c7",
          "withdrawProceeds(string)": "a97ce3c2"
        }
      }
    }
  }
}