{
  "contracts/MetaverseMarketplace.sol": {
    "MetaverseMarketplace": {
      "abi": [
        {
          "inputs": [
            {
              "internalType": "address",
              "name": "_metaverseTokenAddress",
              "type": "address"
            }
          ],
          "stateMutability": "nonpayable",
          "type": "constructor"
        },
        {
          "inputs": [
            {
              "internalType": "address",
              "name": "senderAddress",
              "type": "address"
            }
          ],
          "name": "MetaverseMarketplace__AddressLessThan1DayForMetaverseToken",
          "type": "error"
        },
        {
          "inputs": [],
          "name": "MetaverseMarketplace__NoProceeds",
          "type": "error"
        },
        {
          "inputs": [],
          "name": "MetaverseMarketplace__PriceMustBeAboveZero",
          "type": "error"
        },
        {
          "inputs": [
            {
              "internalType": "string",
              "name": "productCode",
              "type": "string"
            },
            {
              "internalType": "address",
              "name": "seller",
              "type": "address"
            },
            {
              "internalType": "uint256",
              "name": "price",
              "type": "uint256"
            }
          ],
          "name": "MetaverseMarketplace__PriceNotMet",
          "type": "error"
        },
        {
          "inputs": [],
          "name": "ReentrancyGuardReentrantCall",
          "type": "error"
        },
        {
          "anonymous": false,
          "inputs": [
            {
              "indexed": true,
              "internalType": "address",
              "name": "commenter",
              "type": "address"
            },
            {
              "indexed": true,
              "internalType": "string",
              "name": "comment",
              "type": "string"
            },
            {
              "indexed": true,
              "internalType": "string",
              "name": "productCode",
              "type": "string"
            },
            {
              "indexed": false,
              "internalType": "address",
              "name": "seller",
              "type": "address"
            }
          ],
          "name": "CommentAdded",
          "type": "event"
        },
        {
          "anonymous": false,
          "inputs": [
            {
              "indexed": true,
              "internalType": "address",
              "name": "buyer",
              "type": "address"
            },
            {
              "indexed": true,
              "internalType": "string",
              "name": "productCode",
              "type": "string"
            },
            {
              "indexed": true,
              "internalType": "uint256",
              "name": "price",
              "type": "uint256"
            }
          ],
          "name": "ItemBought",
          "type": "event"
        },
        {
          "anonymous": false,
          "inputs": [
            {
              "indexed": true,
              "internalType": "address",
              "name": "seller",
              "type": "address"
            },
            {
              "indexed": true,
              "internalType": "uint256",
              "name": "price",
              "type": "uint256"
            },
            {
              "indexed": true,
              "internalType": "string",
              "name": "productCode",
              "type": "string"
            },
            {
              "indexed": false,
              "internalType": "string",
              "name": "title",
              "type": "string"
            }
          ],
          "name": "ItemListed",
          "type": "event"
        },
        {
          "anonymous": false,
          "inputs": [
            {
              "indexed": true,
              "internalType": "address",
              "name": "seller",
              "type": "address"
            },
            {
              "indexed": true,
              "internalType": "string",
              "name": "productCode",
              "type": "string"
            },
            {
              "indexed": true,
              "internalType": "bool",
              "name": "publish",
              "type": "bool"
            }
          ],
          "name": "ItemPublished",
          "type": "event"
        },
        {
          "anonymous": false,
          "inputs": [
            {
              "indexed": true,
              "internalType": "address",
              "name": "seller",
              "type": "address"
            },
            {
              "indexed": true,
              "internalType": "string",
              "name": "productCode",
              "type": "string"
            },
            {
              "indexed": true,
              "internalType": "string",
              "name": "title",
              "type": "string"
            },
            {
              "indexed": false,
              "internalType": "uint256",
              "name": "price",
              "type": "uint256"
            }
          ],
          "name": "ListingUpdated",
          "type": "event"
        },
        {
          "anonymous": false,
          "inputs": [
            {
              "indexed": true,
              "internalType": "address",
              "name": "person",
              "type": "address"
            }
          ],
          "name": "MetaverseAirdrop",
          "type": "event"
        },
        {
          "anonymous": false,
          "inputs": [
            {
              "indexed": true,
              "internalType": "address",
              "name": "person",
              "type": "address"
            },
            {
              "indexed": true,
              "internalType": "string",
              "name": "currency",
              "type": "string"
            },
            {
              "indexed": true,
              "internalType": "uint256",
              "name": "amount",
              "type": "uint256"
            }
          ],
          "name": "ProceedsWithdrawn",
          "type": "event"
        },
        {
          "anonymous": false,
          "inputs": [
            {
              "indexed": true,
              "internalType": "address",
              "name": "owner",
              "type": "address"
            },
            {
              "indexed": true,
              "internalType": "string",
              "name": "username",
              "type": "string"
            },
            {
              "indexed": true,
              "internalType": "string",
              "name": "profileImageUrl",
              "type": "string"
            }
          ],
          "name": "SetUserProfile",
          "type": "event"
        },
        {
          "inputs": [
            {
              "internalType": "string",
              "name": "comment",
              "type": "string"
            },
            {
              "internalType": "uint256",
              "name": "rating",
              "type": "uint256"
            },
            {
              "internalType": "string",
              "name": "dateString",
              "type": "string"
            },
            {
              "internalType": "string",
              "name": "productCode",
              "type": "string"
            },
            {
              "internalType": "address",
              "name": "seller",
              "type": "address"
            }
          ],
          "name": "addComment",
          "outputs": [],
          "stateMutability": "nonpayable",
          "type": "function"
        },
        {
          "inputs": [
            {
              "internalType": "address",
              "name": "",
              "type": "address"
            }
          ],
          "name": "addressToLastGetMetaverseToken",
          "outputs": [
            {
              "internalType": "uint256",
              "name": "",
              "type": "uint256"
            }
          ],
          "stateMutability": "view",
          "type": "function"
        },
        {
          "inputs": [
            {
              "internalType": "string",
              "name": "productCode",
              "type": "string"
            },
            {
              "internalType": "address",
              "name": "seller",
              "type": "address"
            },
            {
              "internalType": "uint256",
              "name": "quantity",
              "type": "uint256"
            }
          ],
          "name": "buyItem",
          "outputs": [],
          "stateMutability": "payable",
          "type": "function"
        },
        {
          "inputs": [
            {
              "internalType": "string",
              "name": "productCode",
              "type": "string"
            },
            {
              "internalType": "bool",
              "name": "publish",
              "type": "bool"
            }
          ],
          "name": "changeListingVisibility",
          "outputs": [],
          "stateMutability": "nonpayable",
          "type": "function"
        },
        {
          "inputs": [],
          "name": "get1000MetaverseToken",
          "outputs": [],
          "stateMutability": "nonpayable",
          "type": "function"
        },
        {
          "inputs": [],
          "name": "getAllUserListings",
          "outputs": [
            {
              "components": [
                {
                  "internalType": "uint256",
                  "name": "price",
                  "type": "uint256"
                },
                {
                  "internalType": "address",
                  "name": "seller",
                  "type": "address"
                },
                {
                  "internalType": "bool",
                  "name": "published",
                  "type": "bool"
                },
                {
                  "internalType": "string",
                  "name": "productType",
                  "type": "string"
                },
                {
                  "internalType": "string",
                  "name": "title",
                  "type": "string"
                },
                {
                  "internalType": "string",
                  "name": "description",
                  "type": "string"
                },
                {
                  "internalType": "string",
                  "name": "imageUrl",
                  "type": "string"
                },
                {
                  "internalType": "string",
                  "name": "currency",
                  "type": "string"
                },
                {
                  "internalType": "string",
                  "name": "productUrl",
                  "type": "string"
                },
                {
                  "internalType": "string",
                  "name": "productInfo",
                  "type": "string"
                },
                {
                  "internalType": "string",
                  "name": "productCode",
                  "type": "string"
                },
                {
                  "internalType": "uint256",
                  "name": "nftTokenId",
                  "type": "uint256"
                },
                {
                  "components": [
                    {
                      "internalType": "address",
                      "name": "commenter",
                      "type": "address"
                    },
                    {
                      "internalType": "uint256",
                      "name": "rating",
                      "type": "uint256"
                    },
                    {
                      "internalType": "string",
                      "name": "comment",
                      "type": "string"
                    },
                    {
                      "internalType": "uint256",
                      "name": "time",
                      "type": "uint256"
                    },
                    {
                      "internalType": "string",
                      "name": "dateString",
                      "type": "string"
                    }
                  ],
                  "internalType": "struct MetaverseMarketplace.Comment[]",
                  "name": "comments",
                  "type": "tuple[]"
                },
                {
                  "components": [
                    {
                      "internalType": "address",
                      "name": "buyer",
                      "type": "address"
                    },
                    {
                      "internalType": "uint256",
                      "name": "quantity",
                      "type": "uint256"
                    },
                    {
                      "internalType": "uint256",
                      "name": "totalPrice",
                      "type": "uint256"
                    }
                  ],
                  "internalType": "struct MetaverseMarketplace.Buyer[]",
                  "name": "buyers",
                  "type": "tuple[]"
                }
              ],
              "internalType": "struct MetaverseMarketplace.Listing[]",
              "name": "",
              "type": "tuple[]"
            }
          ],
          "stateMutability": "view",
          "type": "function"
        },
        {
          "inputs": [
            {
              "internalType": "string",
              "name": "productCode",
              "type": "string"
            }
          ],
          "name": "getListingByProductCode",
          "outputs": [
            {
              "components": [
                {
                  "internalType": "uint256",
                  "name": "price",
                  "type": "uint256"
                },
                {
                  "internalType": "address",
                  "name": "seller",
                  "type": "address"
                },
                {
                  "internalType": "bool",
                  "name": "published",
                  "type": "bool"
                },
                {
                  "internalType": "string",
                  "name": "productType",
                  "type": "string"
                },
                {
                  "internalType": "string",
                  "name": "title",
                  "type": "string"
                },
                {
                  "internalType": "string",
                  "name": "description",
                  "type": "string"
                },
                {
                  "internalType": "string",
                  "name": "imageUrl",
                  "type": "string"
                },
                {
                  "internalType": "string",
                  "name": "currency",
                  "type": "string"
                },
                {
                  "internalType": "string",
                  "name": "productUrl",
                  "type": "string"
                },
                {
                  "internalType": "string",
                  "name": "productInfo",
                  "type": "string"
                },
                {
                  "internalType": "string",
                  "name": "productCode",
                  "type": "string"
                },
                {
                  "internalType": "uint256",
                  "name": "nftTokenId",
                  "type": "uint256"
                },
                {
                  "components": [
                    {
                      "internalType": "address",
                      "name": "commenter",
                      "type": "address"
                    },
                    {
                      "internalType": "uint256",
                      "name": "rating",
                      "type": "uint256"
                    },
                    {
                      "internalType": "string",
                      "name": "comment",
                      "type": "string"
                    },
                    {
                      "internalType": "uint256",
                      "name": "time",
                      "type": "uint256"
                    },
                    {
                      "internalType": "string",
                      "name": "dateString",
                      "type": "string"
                    }
                  ],
                  "internalType": "struct MetaverseMarketplace.Comment[]",
                  "name": "comments",
                  "type": "tuple[]"
                },
                {
                  "components": [
                    {
                      "internalType": "address",
                      "name": "buyer",
                      "type": "address"
                    },
                    {
                      "internalType": "uint256",
                      "name": "quantity",
                      "type": "uint256"
                    },
                    {
                      "internalType": "uint256",
                      "name": "totalPrice",
                      "type": "uint256"
                    }
                  ],
                  "internalType": "struct MetaverseMarketplace.Buyer[]",
                  "name": "buyers",
                  "type": "tuple[]"
                }
              ],
              "internalType": "struct MetaverseMarketplace.Listing",
              "name": "",
              "type": "tuple"
            }
          ],
          "stateMutability": "view",
          "type": "function"
        },
        {
          "inputs": [
            {
              "internalType": "string",
              "name": "productType",
              "type": "string"
            }
          ],
          "name": "getListingByProductType",
          "outputs": [
            {
              "components": [
                {
                  "internalType": "uint256",
                  "name": "price",
                  "type": "uint256"
                },
                {
                  "internalType": "address",
                  "name": "seller",
                  "type": "address"
                },
                {
                  "internalType": "bool",
                  "name": "published",
                  "type": "bool"
                },
                {
                  "internalType": "string",
                  "name": "productType",
                  "type": "string"
                },
                {
                  "internalType": "string",
                  "name": "title",
                  "type": "string"
                },
                {
                  "internalType": "string",
                  "name": "description",
                  "type": "string"
                },
                {
                  "internalType": "string",
                  "name": "imageUrl",
                  "type": "string"
                },
                {
                  "internalType": "string",
                  "name": "currency",
                  "type": "string"
                },
                {
                  "internalType": "string",
                  "name": "productUrl",
                  "type": "string"
                },
                {
                  "internalType": "string",
                  "name": "productInfo",
                  "type": "string"
                },
                {
                  "internalType": "string",
                  "name": "productCode",
                  "type": "string"
                },
                {
                  "internalType": "uint256",
                  "name": "nftTokenId",
                  "type": "uint256"
                },
                {
                  "components": [
                    {
                      "internalType": "address",
                      "name": "commenter",
                      "type": "address"
                    },
                    {
                      "internalType": "uint256",
                      "name": "rating",
                      "type": "uint256"
                    },
                    {
                      "internalType": "string",
                      "name": "comment",
                      "type": "string"
                    },
                    {
                      "internalType": "uint256",
                      "name": "time",
                      "type": "uint256"
                    },
                    {
                      "internalType": "string",
                      "name": "dateString",
                      "type": "string"
                    }
                  ],
                  "internalType": "struct MetaverseMarketplace.Comment[]",
                  "name": "comments",
                  "type": "tuple[]"
                },
                {
                  "components": [
                    {
                      "internalType": "address",
                      "name": "buyer",
                      "type": "address"
                    },
                    {
                      "internalType": "uint256",
                      "name": "quantity",
                      "type": "uint256"
                    },
                    {
                      "internalType": "uint256",
                      "name": "totalPrice",
                      "type": "uint256"
                    }
                  ],
                  "internalType": "struct MetaverseMarketplace.Buyer[]",
                  "name": "buyers",
                  "type": "tuple[]"
                }
              ],
              "internalType": "struct MetaverseMarketplace.Listing[]",
              "name": "",
              "type": "tuple[]"
            }
          ],
          "stateMutability": "view",
          "type": "function"
        },
        {
          "inputs": [
            {
              "internalType": "address",
              "name": "seller",
              "type": "address"
            },
            {
              "internalType": "string",
              "name": "currency",
              "type": "string"
            }
          ],
          "name": "getProceeds",
          "outputs": [
            {
              "internalType": "uint256",
              "name": "",
              "type": "uint256"
            }
          ],
          "stateMutability": "view",
          "type": "function"
        },
        {
          "inputs": [],
          "name": "getUserListing",
          "outputs": [
            {
              "components": [
                {
                  "internalType": "uint256",
                  "name": "price",
                  "type": "uint256"
                },
                {
                  "internalType": "address",
                  "name": "seller",
                  "type": "address"
                },
                {
                  "internalType": "bool",
                  "name": "published",
                  "type": "bool"
                },
                {
                  "internalType": "string",
                  "name": "productType",
                  "type": "string"
                },
                {
                  "internalType": "string",
                  "name": "title",
                  "type": "string"
                },
                {
                  "internalType": "string",
                  "name": "description",
                  "type": "string"
                },
                {
                  "internalType": "string",
                  "name": "imageUrl",
                  "type": "string"
                },
                {
                  "internalType": "string",
                  "name": "currency",
                  "type": "string"
                },
                {
                  "internalType": "string",
                  "name": "productUrl",
                  "type": "string"
                },
                {
                  "internalType": "string",
                  "name": "productInfo",
                  "type": "string"
                },
                {
                  "internalType": "string",
                  "name": "productCode",
                  "type": "string"
                },
                {
                  "internalType": "uint256",
                  "name": "nftTokenId",
                  "type": "uint256"
                },
                {
                  "components": [
                    {
                      "internalType": "address",
                      "name": "commenter",
                      "type": "address"
                    },
                    {
                      "internalType": "uint256",
                      "name": "rating",
                      "type": "uint256"
                    },
                    {
                      "internalType": "string",
                      "name": "comment",
                      "type": "string"
                    },
                    {
                      "internalType": "uint256",
                      "name": "time",
                      "type": "uint256"
                    },
                    {
                      "internalType": "string",
                      "name": "dateString",
                      "type": "string"
                    }
                  ],
                  "internalType": "struct MetaverseMarketplace.Comment[]",
                  "name": "comments",
                  "type": "tuple[]"
                },
                {
                  "components": [
                    {
                      "internalType": "address",
                      "name": "buyer",
                      "type": "address"
                    },
                    {
                      "internalType": "uint256",
                      "name": "quantity",
                      "type": "uint256"
                    },
                    {
                      "internalType": "uint256",
                      "name": "totalPrice",
                      "type": "uint256"
                    }
                  ],
                  "internalType": "struct MetaverseMarketplace.Buyer[]",
                  "name": "buyers",
                  "type": "tuple[]"
                }
              ],
              "internalType": "struct MetaverseMarketplace.Listing[]",
              "name": "",
              "type": "tuple[]"
            }
          ],
          "stateMutability": "view",
          "type": "function"
        },
        {
          "inputs": [
            {
              "internalType": "address",
              "name": "profileOwner",
              "type": "address"
            }
          ],
          "name": "getUserProfile",
          "outputs": [
            {
              "components": [
                {
                  "internalType": "string",
                  "name": "username",
                  "type": "string"
                },
                {
                  "internalType": "string",
                  "name": "profileImageUrl",
                  "type": "string"
                }
              ],
              "internalType": "struct MetaverseMarketplace.UserProfile",
              "name": "",
              "type": "tuple"
            }
          ],
          "stateMutability": "view",
          "type": "function"
        },
        {
          "inputs": [
            {
              "internalType": "uint256",
              "name": "price",
              "type": "uint256"
            },
            {
              "internalType": "string",
              "name": "productType",
              "type": "string"
            },
            {
              "internalType": "string",
              "name": "title",
              "type": "string"
            },
            {
              "internalType": "string",
              "name": "description",
              "type": "string"
            },
            {
              "internalType": "string",
              "name": "imageUrl",
              "type": "string"
            },
            {
              "internalType": "string",
              "name": "currency",
              "type": "string"
            },
            {
              "internalType": "string",
              "name": "productUrl",
              "type": "string"
            },
            {
              "internalType": "string",
              "name": "productInfo",
              "type": "string"
            },
            {
              "internalType": "string",
              "name": "productCode",
              "type": "string"
            },
            {
              "internalType": "uint256",
              "name": "nftTokenId",
              "type": "uint256"
            }
          ],
          "name": "listItem",
          "outputs": [],
          "stateMutability": "nonpayable",
          "type": "function"
        },
        {
          "inputs": [],
          "name": "metaverseToken",
          "outputs": [
            {
              "internalType": "contract IERC20",
              "name": "",
              "type": "address"
            }
          ],
          "stateMutability": "view",
          "type": "function"
        },
        {
          "inputs": [
            {
              "internalType": "string",
              "name": "",
              "type": "string"
            },
            {
              "internalType": "address",
              "name": "",
              "type": "address"
            }
          ],
          "name": "productCodeCommentToAddress",
          "outputs": [
            {
              "internalType": "bool",
              "name": "",
              "type": "bool"
            }
          ],
          "stateMutability": "view",
          "type": "function"
        },
        {
          "inputs": [
            {
              "internalType": "string",
              "name": "productCode",
              "type": "string"
            }
          ],
          "name": "productCodeExists",
          "outputs": [
            {
              "internalType": "bool",
              "name": "",
              "type": "bool"
            }
          ],
          "stateMutability": "view",
          "type": "function"
        },
        {
          "inputs": [
            {
              "internalType": "string",
              "name": "newUsername",
              "type": "string"
            },
            {
              "internalType": "string",
              "name": "profileImageUrl",
              "type": "string"
            }
          ],
          "name": "setUserProfile",
          "outputs": [],
          "stateMutability": "nonpayable",
          "type": "function"
        },
        {
          "inputs": [
            {
              "internalType": "string",
              "name": "productCode",
              "type": "string"
            },
            {
              "internalType": "uint256",
              "name": "price",
              "type": "uint256"
            },
            {
              "internalType": "string",
              "name": "title",
              "type": "string"
            },
            {
              "internalType": "string",
              "name": "description",
              "type": "string"
            },
            {
              "internalType": "string",
              "name": "productInfo",
              "type": "string"
            },
            {
              "internalType": "string",
              "name": "productUrl",
              "type": "string"
            },
            {
              "internalType": "string",
              "name": "imageUrl",
              "type": "string"
            }
          ],
          "name": "updateListing",
          "outputs": [],
          "stateMutability": "nonpayable",
          "type": "function"
        },
        {
          "inputs": [
            {
              "internalType": "string",
              "name": "currency",
              "type": "string"
            }
          ],
          "name": "withdrawProceeds",
          "outputs": [],
          "stateMutability": "nonpayable",
          "type": "function"
        }
      ],
      "evm": {
        "bytecode": {
          "linkReferences": {},
          "object": "60803461007b57601f62002efa38819003918201601f19168301916001600160401b038311848410176100805780849260209460405283398101031261007b57516001600160a01b0381169081900361007b576001600055600580546001600160a01b031916919091179055604051612e639081620000978239f35b600080fd5b634e487b7160e01b600052604160045260246000fdfe6080604052600436101561001257600080fd5b6000803560e01c8063016363fa146113b05780631a13cc59146111c95780631cad3ac514611184578063318bb5c714610eb55780633829f31314610e8c5780637791b33014610e0c57806393ec02f114610b71578063987ee15614610ad2578063990d6459146109925780639992b606146109065780639dee74d514610866578063a39249b814610803578063a97ce3c21461062b578063bd623642146105d7578063bddff4d81461059e578063d41aab2314610277578063e4ba3747146101f45763e607a8ba146100e357600080fd5b346101f157806003193601126101f1573381526003602052604081205442034281116101dd5762015180116101c557338152600360205242604082205580602060018060a01b036005541660446040518094819363a9059cbb60e01b8352336004840152683635c9adc5dea0000060248401525af180156101ba5761018c575b50337f561f98adfb5df58a7c3c03f4ada643cc46c1a5291389819dbd6d01fe490481498280a280f35b6101ac9060203d81116101b3575b6101a481836116f4565b810190612b45565b5038610163565b503d61019a565b6040513d84823e3d90fd5b60405163fca47e3160e01b8152336004820152602490fd5b634e487b7160e01b82526011600452602482fd5b80fd5b50346101f15760403660031901126101f1576004356001600160401b03811161027357604060209261022c60ff933690600401611730565b61024b85610238611a2e565b928186519382858094519384920161177c565b6004908201908152030190206001600160a01b03909116825284522054604051911615158152f35b5080fd5b50606080600319360112610273576004356001600160401b03811161059a576102a4903690600401611730565b6102ac611a2e565b604480359060028654146105885760028655855b60065481101561057d576102e8856102e360096102dc85611a6a565b500161280b565b6128af565b6102fa576102f5906127fc565b6102c0565b61031261030c82979394959697611a6a565b50612a37565b946020928387019060018060a01b03928383511633146105395788518034106105045750505086518087029087820414871517156104f05760405196610357886116be565b338852858801526040870152888460e089019661037d8851610377612b25565b906128af565b610488575b5050505116875261039d600193848452604089209051611a44565b8054903482018092116104745755600c906103b790611a6a565b5001805492600160401b84101561046057830180825583101561044c5786528520825160039092020180546001600160a01b0319166001600160a01b03929092169190911781556020820151600182015560409091015160029091015561041f9051916127dc565b337f253fcd678c758e0e03dbf3a0243701c7439c306a61158b3c522a8119772990108480a45b6001815580f35b634e487b7160e01b87526032600452602487fd5b634e487b7160e01b88526041600452602488fd5b634e487b7160e01b89526011600452602489fd5b606485600554169160405194859384926323b872dd60e01b845233600485015230602485015234908401525af180156104e5576104c8575b848a91610382565b6104de90853d87116101b3576101a481836116f4565b50386104c0565b6040513d8c823e3d90fd5b634e487b7160e01b8a52601160045260248afd5b8a9350878561052b604051968796630e90db8560e31b88526004880152606487019061179f565b931660248501528301520390fd5b60405162461bcd60e51b815260048101879052601d60248201527f43616e206e6f742062757920796f7572206f776e2070726f647563742100000081890152606490fd5b505050505050610445565b604051633ee5aeb560e01b8152600490fd5b8280fd5b50346101f15760203660031901126101f1576020906040906001600160a01b036105c6611a18565b168152600383522054604051908152f35b50346101f15760203660031901126101f157600435906001600160401b0382116101f15761062761061361060e3660048601611730565b612cbf565b6040519182916020835260208301906117c4565b0390f35b50346101f157602080600319360112610273576004356001600160401b03811161059a5761065d903690600401611730565b338352600182526106716040842082611a44565b5480156107f157338452600183528361068d6040822084611a44565b55836106b360405161069e81611656565b600381526208aa8960eb1b86820152846128af565b156107695780808084335af191823d15610764573d6106d181611715565b906106df60405192836116f4565b815286863d92013e5b61072f575b5050156106f8575080f35b6064906040519062461bcd60e51b82526004820152601060248201526f5472616e73666572206661696c65642160801b6044820152fd5b610738906127dc565b337ff2ca3efe12f71d386ef0fd2b75ebbef402882711943ccb42d5bdb696fa7a13418680a438806106ed565b6106e8565b9161077690610377612b25565b610781575b50505080f35b60055460405163a9059cbb60e01b815233600482015260248101929092529091839183916044918391906001600160a01b03165af180156107e6576107c8575b829061077b565b816107de92903d106101b3576101a481836116f4565b5038806107c1565b6040513d85823e3d90fd5b60405163125d726b60e21b8152600490fd5b50346101f15760403660031901126101f15761081d611a18565b6024356001600160401b03811161059a5790604060209361084561085d943690600401611730565b6001600160a01b039093168152600185522090611a44565b54604051908152f35b50346101f15760203660031901126101f1576004356001600160401b03811161027357610897903690600401611730565b600654906108a482612c5b565b925b8281106108bb576040518061062786826119b6565b806108d1836102e360026102dc6108da96611a6a565b6108df576127fc565b6108a6565b6108eb61030c82611a6a565b6108f58287612cab565b526109008186612cab565b506127fc565b50346101f157806003193601126101f15760065461092381612904565b9061093160405192836116f4565b808252600683527ff652222313e28459528d920b65115c16c04f3efc82aaedc97be59f3f377c0d3f9260208084015b838310610975576040518061062787826119b6565b600d8260019261098489612a37565b815201960192019194610960565b50346101f15760403660031901126101f1576004356001600160401b038111610273576109c3903690600401611730565b60249081359081151591828103610ace57845b600654811015610ac6576109f2836102e360096102dc85611a6a565b610a04576109ff906127fc565b6109d6565b610a12819592939495611a6a565b506001908101549092906001600160a01b03163303610a8a575091610a5d91610a3e610a629594611a6a565b5001805460ff60a01b191691151560a01b60ff60a01b16919091179055565b6127dc565b337f51dabe03dbc9869cdc42f327348910c055732b793c7aaade368a32d8f3658e1e8480a480f35b60649060156040519162461bcd60e51b835260206004840152820152744e6f7420796f7572206f776e2070726f647563742160581b6044820152fd5b505050505080f35b8480fd5b50346101f1576020806003193601126102735761062760408093610af4611a18565b6060858451610b0281611656565b82815201526001600160a01b03168152600284522083519290610b5e90610b4090600190610b2f87611656565b610b388161280b565b87520161280b565b9180850192835285519586958287525191860152606085019061179f565b9051838203601f1901604085015261179f565b50346101f15760a03660031901126101f1576001600160401b0360043581811161059a57610ba3903690600401611730565b916024928335936044918235858111610ace57610bc4903690600401611730565b956064958635908111610e0857610bdf903690600401611730565b9360849788359460018060a01b0392838716809703610e0457885b600654811015610df557610c0d81611a6a565b50610c1f8a6102e3600980940161280b565b610c325750610c2d906127fc565b610bfa565b91610c46829495969798999a9b9c92611a6a565b5096600180980154163314610da6578b9c5060ff6040610c7085610c6988611a6a565b5001612b5d565b9d33815260209e8f52205416610d6657505081610c95610cad92610c69600b95611a6a565b338d528b5260408c20805460ff191687179055611a6a565b50019160405194610cbd866116a3565b338652898601528560408601524260608601526080850152815492600160401b841015610d53578301808355831015610d41575092610a5d610d3493610d2e937f8bb52eee1b68032569fa2c483528d7d2b7db7824b9704ee675f7202956220865968b5260058a8c20910201611b56565b936127dc565b936040519283523392a480f35b634e487b7160e01b8952603260045288fd5b50634e487b7160e01b8952604160045288fd5b7f43616e206e6f7420636f6d6d656e74206d6f7265207468616e206f6e636521008c91601f876040519462461bcd60e51b86526004860152840152820152fd5b64756374732160d81b8d927f43616e206e6f7420636f6d6d656e74206f6e20796f7572206f776e2070726f64879360256040519562461bcd60e51b875260206004880152860152840152820152fd5b50505050505050505091505080f35b8880fd5b8580fd5b50346101f157806003193601126101f157600654610e2981612c5b565b915b818110610e40576040518061062785826119b6565b80610e4d610e6692611a6a565b50600101546001600160a01b03163314610e6b576127fc565b610e2b565b610e7761030c82611a6a565b610e818286612cab565b526109008185612cab565b50346101f157806003193601126101f1576005546040516001600160a01b039091168152602090f35b50346101f15760e03660031901126101f1576001600160401b0360043581811161059a57610ee7903690600401611730565b6044908135838111610ace57610f01903690600401611730565b91606493843581811161118057610f1c903690600401611730565b6084908135838111610e0457610f36903690600401611730565b9160a43584811161117c57610f4f903690600401611730565b9360c43590811161117c57610f68903690600401611730565b94895b60065481101561116f57610f87886102e360096102dc85611a6a565b610f9957610f94906127fc565b610f6b565b95969798610fa687611a6a565b50600101546001600160a01b0316330361112057505050610fc684611a6a565b50600101546001600160a01b031694610fde85611a6a565b506001015492610fed86611a6a565b5094610ff887611a6a565b5061100288611a6a565b509361100d89611a6a565b50600a01549561101c8a611a6a565b50976110278b611a6a565b50996040519c6110368e611687565b6024358e5260208e015260ff60a092831c16151560408e015261105b9060020161280b565b60608d01528d60808d01528b015260c08a015260060161107a9061280b565b60e08901526101008801526101208701526009016110979061280b565b610140860152610160850152600b016110af9061291b565b610180840152600c016110c1906129ba565b6101a08301526110d090611a6a565b6110da9291611d86565b6110e3906127dc565b906110ed906127dc565b906040516024358152339060207f384c5f98880fad6ed933597fe4becd24246db16d5a262945362c7ace0a0e47b591a480f35b656f647563742160d01b907f43616e206e6f74206564697420616e6f7468657220706572736f6e27732070726040519362461bcd60e51b85526020600486015260266024860152840152820152fd5b5050505050505050505080f35b8980fd5b8680fd5b50346101f15760203660031901126101f157600435906001600160401b0382116101f15760206111bf6111ba3660048601611730565b612deb565b6040519015158152f35b50346101f15761014080600319360112610273576004356001600160401b03602435818111610ace57611200903690600401611730565b604435828111610e0857611218903690600401611730565b9360643583811161118057611231903690600401611730565b906084358481116113ac5761124a903690600401611730565b9360a435818111610e0457611263903690600401611730565b60c43582811161117c5761127b903690600401611730565b9060e4358381116113a857611294903690600401611730565b92610104359081116113a8576112ae903690600401611730565b968815611396578795604051976112c489611687565b8a89523360208a01528c60408a015260608901528a608089015260a088015260c087015260e086015261010085015261012084015282015261012435610160820152606061018082015260606101a0820152600654600160401b81101561138257611343929161133d826001610a5d9401600655611a6a565b90611d86565b917f9ec512f6157daf19471fdb4abc754cd622ce54571fda42c4c416ff378b041583604051602081528061137c3394602083019061179f565b0390a480f35b634e487b7160e01b86526041600452602486fd5b604051635ebde5f560e11b8152600490fd5b8a80fd5b8780fd5b50346101f15760403660031901126101f1576001600160401b0360043581811161059a576113e2903690600401611730565b90602435818111611652576113fb903690600401611730565b9160405161140881611656565b818152602092838201918583523387526002855260408720905180518381116115a457806114368454611abb565b92601f93848111611626575b5088908483116001146115c3578b926115b8575b50508160011b916000199060031b1c19161782555b600180920193519586519384116115a4576114868554611abb565b82811161156e575b50809184116001146115005750918080926114c69695946114cc988b946114f5575b50501b916000199060031b1c19161790556127dc565b916127dc565b90337f8fb63d21cd1646c22e90408d0771d27886ed526a60064418e44b4e4a35bf6a078480a480f35b0151925038806114b0565b91939495601f198416868a52838a20938a905b828210611557575050916114cc97959391856114c69896941061153e575b505050811b0190556127dc565b015160001960f88460031b161c19169055388080611531565b808886978294978701518155019601940190611513565b61159590868b52828b208480880160051c82019285891061159b575b0160051c0190611af5565b3861148e565b9250819261158a565b634e487b7160e01b89526041600452602489fd5b015190503880611456565b858c52898c209250601f1984168c5b8b8282106116105750509084600195949392106115f7575b505050811b01825561146b565b015160001960f88460031b161c191690553880806115ea565b60018596829396860151815501950193016115d2565b61164c90868d528a8d208680860160051c8201928d871061159b570160051c0190611af5565b38611442565b8380fd5b604081019081106001600160401b0382111761167157604052565b634e487b7160e01b600052604160045260246000fd5b6101c081019081106001600160401b0382111761167157604052565b60a081019081106001600160401b0382111761167157604052565b606081019081106001600160401b0382111761167157604052565b602081019081106001600160401b0382111761167157604052565b90601f801991011681019081106001600160401b0382111761167157604052565b6001600160401b03811161167157601f01601f191660200190565b81601f820112156117775780359061174782611715565b9261175560405194856116f4565b8284526020838301011161177757816000926020809301838601378301015290565b600080fd5b60005b83811061178f5750506000910152565b818101518382015260200161177f565b906020916117b88151809281855285808601910161177c565b601f01601f1916010190565b908151815260018060a01b0390602082818501511681830152604092838501511515848401526060611803818701516101c0808488015286019061179f565b9361181a608095868901518382038885015261179f565b6118a061188c6118786118646118528c60c061184260a098898401518b82038b8d015261179f565b91015188820360c08a015261179f565b60e08d015187820360e089015261179f565b610100808d0151908783039088015261179f565b610120808c0151908683039087015261179f565b610140808b0151908583039086015261179f565b95610160808a01519084015261018096878a015197848203908501528751918282528782019088808560051b8501019a01946000935b85851061193d57505050505050506101a080970151968186039101528280875195868152019601946000925b858410611913575050505050505090565b86518051821689528086015189870152820151888301529682019695840195600190930192611902565b9091929394959b9798999a8b8061199f8f6001948f8f92908f611987908c938e601f198d88030190525192835116855287830151888601528b81840151918601528b85019061179f565b9380820151908401520151908981840391015261179f565b9e01950195019395949291909b9a9998979b6118d6565b602080820190808352835180925260408301928160408460051b8301019501936000915b8483106119ea5750505050505090565b9091929394958480611a08600193603f198682030187528a516117c4565b98019301930191949392906119da565b600435906001600160a01b038216820361177757565b602435906001600160a01b038216820361177757565b602090611a5e92826040519483868095519384920161177c565b82019081520301902090565b600654811015611aa557600d906006600052027ff652222313e28459528d920b65115c16c04f3efc82aaedc97be59f3f377c0d3f0190600090565b634e487b7160e01b600052603260045260246000fd5b90600182811c92168015611aeb575b6020831014611ad557565b634e487b7160e01b600052602260045260246000fd5b91607f1691611aca565b818110611b00575050565b60008155600101611af5565b611b168154611abb565b9081611b20575050565b81601f60009311600114611b335750555b565b908083918252611b52601f60208420940160051c840160018501611af5565b5555565b60018060a01b038251166bffffffffffffffffffffffff60a01b825416178155602080830151916001928382015560028101916040850151918251936001600160401b039485811161167157611bac8254611abb565b94601f95868111611d58575b508490868311600114611cea5791806004949260809694600092611cdf575b5050600019600383901b1c191690891b1790555b606088015160038201550195015190815193841161167157611c0d8654611abb565b838111611cb1575b5080928411600114611c4e5750928293918392600094611c43575b50501b916000199060031b1c1916179055565b015192503880611c30565b919083601f1981168760005284600020946000905b88838310611c975750505010611c7e575b505050811b019055565b015160001960f88460031b161c19169055388080611c74565b858701518855909601959485019487935090810190611c63565b611cd99087600052826000208580880160051c82019285891061159b570160051c0190611af5565b38611c15565b015190503880611bd7565b889291601f1983169185600052876000209260005b89828210611d425750509160809795939185600498969410611d29575b505050811b019055611beb565b015160001960f88460031b161c19169055388080611d1c565b8385015186558d97909501949384019301611cff565b611d809084600052866000208880860160051c82019289871061159b570160051c0190611af5565b38611bb8565b91906127c657805182556020810151600183018054604084015160ff60a01b90151560a01b166001600160a01b039093166001600160a81b0319909116179190911790556002820160608201518051906001600160401b038211611671578190611df08454611abb565b601f8111612794575b50602090601f831160011461272e57600092612723575b50508160011b916000199060031b1c19161790555b6003820160808201518051906001600160401b038211611671578190611e4b8454611abb565b601f81116126f1575b50602090601f831160011461268b57600092612680575b50508160011b916000199060031b1c19161790555b6004820160a08201518051906001600160401b038211611671578190611ea68454611abb565b601f811161264e575b50602090601f83116001146125e8576000926125dd575b50508160011b916000199060031b1c19161790555b6005820160c08201518051906001600160401b038211611671578190611f018454611abb565b601f81116125ab575b50602090601f83116001146125455760009261253a575b50508160011b916000199060031b1c19161790555b60e08101519283516001600160401b03811161167157611f596006850154611abb565b601f8111612505575b50602094601f82116001146124995794819293949560009261248e575b50508160011b916000199060031b1c19161760068401555b6101008201519283516001600160401b03811161167157611fbb6007830154611abb565b601f8111612459575b506020601f82116001146123ea5781929394956000926123df575b50508160011b916000199060031b1c19161760078201555b6101208301519283516001600160401b0381116116715761201b6008840154611abb565b601f81116123aa575b506020601f821160011461233b578192939495600092612330575b50508160011b916000199060031b1c19161760088301555b600982016101408201518051906001600160401b03821161167157819061207e8454611abb565b601f81116122f3575b50602090601f831160011461228d57600092612282575b50508160011b916000199060031b1c19161790555b610160810151600a8301556101808101518051600160401b9391600b830190858311611671578154838355808410612217575b506020019060005260206000206000915b8383106121f95750505050600c6101a091019101518051928311611671578154838355808410612190575b506020019060005260206000206000915b8383106121405750505050565b6003602082612184600194518690604060029160018060a01b038151166bffffffffffffffffffffffff60a01b855416178455602081015160018501550151910155565b01920192019190612133565b806003029060038204036121e357836003026003810485036121e35783600052602060002091820191015b8181106121c85750612122565b806000600392556000600182015560006002820155016121bb565b634e487b7160e01b600052601160045260246000fd5b600560208261220b6001945186611b56565b019201920191906120f7565b806005029060058204036121e357836005026005810485036121e35783600052602060002091820191015b81811061224f57506120e6565b806000600592556000600182015561226960028201611b0c565b6000600382015561227c60048201611b0c565b01612242565b01519050388061209e565b6000858152602081209350601f198516905b8181106122db57509084600195949392106122c2575b505050811b0190556120b3565b015160001960f88460031b161c191690553880806122b5565b9293602060018192878601518155019501930161229f565b61232090856000526020600020601f850160051c81019160208610612326575b601f0160051c0190611af5565b38612087565b9091508190612313565b01519050388061203f565b6008840160005260206000209060005b601f1984168110612392575060019394959683601f19811610612379575b505050811b016008830155612057565b015160001960f88460031b161c19169055388080612369565b9091602060018192858b01518155019301910161234b565b6123d990600885016000526020600020601f840160051c8101916020851061232657601f0160051c0190611af5565b38612024565b015190503880611fdf565b6007830160005260206000209060005b601f1984168110612441575060019394959683601f19811610612428575b505050811b016007820155611ff7565b015160001960f88460031b161c19169055388080612418565b9091602060018192858b0151815501930191016123fa565b61248890600784016000526020600020601f840160051c8101916020851061232657601f0160051c0190611af5565b38611fc4565b015190503880611f7f565b601f198216956006860160005260206000209160005b8881106124ed575083600195969798106124d4575b505050811b016006840155611f97565b015160001960f88460031b161c191690553880806124c4565b919260206001819286850151815501940192016124af565b61253490600686016000526020600020601f840160051c8101916020851061232657601f0160051c0190611af5565b38611f62565b015190503880611f21565b6000858152602081209350601f198516905b818110612593575090846001959493921061257a575b505050811b019055611f36565b015160001960f88460031b161c1916905538808061256d565b92936020600181928786015181550195019301612557565b6125d790856000526020600020601f850160051c8101916020861061232657601f0160051c0190611af5565b38611f0a565b015190503880611ec6565b6000858152602081209350601f198516905b818110612636575090846001959493921061261d575b505050811b019055611edb565b015160001960f88460031b161c19169055388080612610565b929360206001819287860151815501950193016125fa565b61267a90856000526020600020601f850160051c8101916020861061232657601f0160051c0190611af5565b38611eaf565b015190503880611e6b565b6000858152602081209350601f198516905b8181106126d957509084600195949392106126c0575b505050811b019055611e80565b015160001960f88460031b161c191690553880806126b3565b9293602060018192878601518155019501930161269d565b61271d90856000526020600020601f850160051c8101916020861061232657601f0160051c0190611af5565b38611e54565b015190503880611e10565b6000858152602081209350601f198516905b81811061277c5750908460019594939210612763575b505050811b019055611e25565b015160001960f88460031b161c19169055388080612756565b92936020600181928786015181550195019301612740565b6127c090856000526020600020601f850160051c8101916020861061232657601f0160051c0190611af5565b38611df9565b634e487b7160e01b600052600060045260246000fd5b6127f49060206040519282848094519384920161177c565b810103902090565b60001981146121e35760010190565b906040519182600082549261281f84611abb565b90818452600194858116908160001461288c5750600114612849575b5050611b31925003836116f4565b9093915060005260209081600020936000915b818310612874575050611b319350820101388061283b565b8554888401850152948501948794509183019161285c565b915050611b3194506020925060ff191682840152151560051b820101388061283b565b90604051916020926128dd8482816128d0818301968781519384920161177c565b81010380845201826116f4565b519020916128fd6040519182816128d0818301968781519384920161177c565b5190201490565b6001600160401b0381116116715760051b60200190565b90815461292781612904565b92604093612937855191826116f4565b828152809460208092019260005281600020906000935b85851061295d57505050505050565b600584600192845161296e816116a3565b848060a01b038754168152848701548382015261298d6002880161280b565b86820152600387015460608201526129a76004880161280b565b608082015281520193019401939161294e565b9081546129c681612904565b926040936129d6855191826116f4565b828152809460208092019260005281600020906000935b8585106129fc57505050505050565b6003846001928451612a0d816116be565b848060a01b03875416815284870154838201526002870154868201528152019301940193916129ed565b90604051612a4481611687565b6101a0612b20600c83958054855260ff600182015460018060a01b038116602088015260a01c1615156040860152612a7e6002820161280b565b6060860152612a8f6003820161280b565b6080860152612aa06004820161280b565b60a0860152612ab16005820161280b565b60c0860152612ac26006820161280b565b60e0860152612ad36007820161280b565b610100860152612ae56008820161280b565b610120860152612af76009820161280b565b610140860152600a810154610160860152612b14600b820161291b565b610180860152016129ba565b910152565b60405190612b3282611656565b60048252631351551560e21b6020830152565b90816020910312611777575180151581036117775790565b604051908160008254612b6f81611abb565b93600191808316908115612bd45750600114612b97575b505060209250600481520301902090565b90915060005260209081600020906000915b858310612bc0575050505060209181013880612b86565b805487840152869450918301918101612ba9565b92505050602093915060ff191682528015150281013880612b86565b60405190612bfd82611687565b816000815260006020820152600060408201526101a060609182808201528260808201528260a08201528260c08201528260e08201528261010082015282610120820152826101408201526000610160820152826101808201520152565b90612c6582612904565b612c7260405191826116f4565b8281528092612c83601f1991612904565b019060005b828110612c9457505050565b602090612c9f612bf0565b82828501015201612c88565b8051821015611aa55760209160051b010190565b612cc7612bf0565b506006549060005b828110612db5575050506040805190612ce782611687565b60008252600060208301526000818301528051612d03816116d9565b6000815260608301528051612d17816116d9565b6000815260808301528051612d2b816116d9565b6000815260a08301528051612d3f816116d9565b6000815260c08301528051612d53816116d9565b6000815260e08301528051612d67816116d9565b600081526101008301528051612d7c816116d9565b6000815261012083015251612d90816116d9565b600081526101408201526000610160820152606061018082015260606101a082015290565b612dc7826102e360096102dc85611a6a565b612dd957612dd4906127fc565b612ccf565b612de8925061030c9150611a6a565b90565b6006549060005b828110612e0157505050600090565b612e13826102e360096102dc85611a6a565b612e2557612e20906127fc565b612df2565b50505060019056fea264697066735822122001867f2cc7dffdf6bdf8b941f4db096fec08faef3d54cea1972579e66c99155364736f6c63430008140033",
          "opcodes": "PUSH1 0x80 CALLVALUE PUSH2 0x7B JUMPI PUSH1 0x1F PUSH3 0x2EFA CODESIZE DUP2 SWAP1 SUB SWAP2 DUP3 ADD PUSH1 0x1F NOT AND DUP4 ADD SWAP2 PUSH1 0x1 PUSH1 0x1 PUSH1 0x40 SHL SUB DUP4 GT DUP5 DUP5 LT OR PUSH2 0x80 JUMPI DUP1 DUP5 SWAP3 PUSH1 0x20 SWAP5 PUSH1 0x40 MSTORE DUP4 CODECOPY DUP2 ADD SUB SLT PUSH2 0x7B JUMPI MLOAD PUSH1 0x1 PUSH1 0x1 PUSH1 0xA0 SHL SUB DUP2 AND SWAP1 DUP2 SWAP1 SUB PUSH2 0x7B JUMPI PUSH1 0x1 PUSH1 0x0 SSTORE PUSH1 0x5 DUP1 SLOAD PUSH1 0x1 PUSH1 0x1 PUSH1 0xA0 SHL SUB NOT AND SWAP2 SWAP1 SWAP2 OR SWAP1 SSTORE PUSH1 0x40 MLOAD PUSH2 0x2E63 SWAP1 DUP2 PUSH3 0x97 DUP3 CODECOPY RETURN JUMPDEST PUSH1 0x0 DUP1 REVERT JUMPDEST PUSH4 0x4E487B71 PUSH1 0xE0 SHL PUSH1 0x0 MSTORE PUSH1 0x41 PUSH1 0x4 MSTORE PUSH1 0x24 PUSH1 0x0 REVERT INVALID PUSH1 0x80 PUSH1 0x40 MSTORE PUSH1 0x4 CALLDATASIZE LT ISZERO PUSH2 0x12 JUMPI PUSH1 0x0 DUP1 REVERT JUMPDEST PUSH1 0x0 DUP1 CALLDATALOAD PUSH1 0xE0 SHR DUP1 PUSH4 0x16363FA EQ PUSH2 0x13B0 JUMPI DUP1 PUSH4 0x1A13CC59 EQ PUSH2 0x11C9 JUMPI DUP1 PUSH4 0x1CAD3AC5 EQ PUSH2 0x1184 JUMPI DUP1 PUSH4 0x318BB5C7 EQ PUSH2 0xEB5 JUMPI DUP1 PUSH4 0x3829F313 EQ PUSH2 0xE8C JUMPI DUP1 PUSH4 0x7791B330 EQ PUSH2 0xE0C JUMPI DUP1 PUSH4 0x93EC02F1 EQ PUSH2 0xB71 JUMPI DUP1 PUSH4 0x987EE156 EQ PUSH2 0xAD2 JUMPI DUP1 PUSH4 0x990D6459 EQ PUSH2 0x992 JUMPI DUP1 PUSH4 0x9992B606 EQ PUSH2 0x906 JUMPI DUP1 PUSH4 0x9DEE74D5 EQ PUSH2 0x866 JUMPI DUP1 PUSH4 0xA39249B8 EQ PUSH2 0x803 JUMPI DUP1 PUSH4 0xA97CE3C2 EQ PUSH2 0x62B JUMPI DUP1 PUSH4 0xBD623642 EQ PUSH2 0x5D7 JUMPI DUP1 PUSH4 0xBDDFF4D8 EQ PUSH2 0x59E JUMPI DUP1 PUSH4 0xD41AAB23 EQ PUSH2 0x277 JUMPI DUP1 PUSH4 0xE4BA3747 EQ PUSH2 0x1F4 JUMPI PUSH4 0xE607A8BA EQ PUSH2 0xE3 JUMPI PUSH1 0x0 DUP1 REVERT JUMPDEST CALLVALUE PUSH2 0x1F1 JUMPI DUP1 PUSH1 0x3 NOT CALLDATASIZE ADD SLT PUSH2 0x1F1 JUMPI CALLER DUP2 MSTORE PUSH1 0x3 PUSH1 0x20 MSTORE PUSH1 0x40 DUP2 KECCAK256 SLOAD TIMESTAMP SUB TIMESTAMP DUP2 GT PUSH2 0x1DD JUMPI PUSH3 0x15180 GT PUSH2 0x1C5 JUMPI CALLER DUP2 MSTORE PUSH1 0x3 PUSH1 0x20 MSTORE TIMESTAMP PUSH1 0x40 DUP3 KECCAK256 SSTORE DUP1 PUSH1 0x20 PUSH1 0x1 DUP1 PUSH1 0xA0 SHL SUB PUSH1 0x5 SLOAD AND PUSH1 0x44 PUSH1 0x40 MLOAD DUP1 SWAP5 DUP2 SWAP4 PUSH4 0xA9059CBB PUSH1 0xE0 SHL DUP4 MSTORE CALLER PUSH1 0x4 DUP5 ADD MSTORE PUSH9 0x3635C9ADC5DEA00000 PUSH1 0x24 DUP5 ADD MSTORE GAS CALL DUP1 ISZERO PUSH2 0x1BA JUMPI PUSH2 0x18C JUMPI JUMPDEST POP CALLER PUSH32 0x561F98ADFB5DF58A7C3C03F4ADA643CC46C1A5291389819DBD6D01FE49048149 DUP3 DUP1 LOG2 DUP1 RETURN JUMPDEST PUSH2 0x1AC SWAP1 PUSH1 0x20 RETURNDATASIZE DUP2 GT PUSH2 0x1B3 JUMPI JUMPDEST PUSH2 0x1A4 DUP2 DUP4 PUSH2 0x16F4 JUMP JUMPDEST DUP2 ADD SWAP1 PUSH2 0x2B45 JUMP JUMPDEST POP CODESIZE PUSH2 0x163 JUMP JUMPDEST POP RETURNDATASIZE PUSH2 0x19A JUMP JUMPDEST PUSH1 0x40 MLOAD RETURNDATASIZE DUP5 DUP3 RETURNDATACOPY RETURNDATASIZE SWAP1 REVERT JUMPDEST PUSH1 0x40 MLOAD PUSH4 0xFCA47E31 PUSH1 0xE0 SHL DUP2 MSTORE CALLER PUSH1 0x4 DUP3 ADD MSTORE PUSH1 0x24 SWAP1 REVERT JUMPDEST PUSH4 0x4E487B71 PUSH1 0xE0 SHL DUP3 MSTORE PUSH1 0x11 PUSH1 0x4 MSTORE PUSH1 0x24 DUP3 REVERT JUMPDEST DUP1 REVERT JUMPDEST POP CALLVALUE PUSH2 0x1F1 JUMPI PUSH1 0x40 CALLDATASIZE PUSH1 0x3 NOT ADD SLT PUSH2 0x1F1 JUMPI PUSH1 0x4 CALLDATALOAD PUSH1 0x1 PUSH1 0x1 PUSH1 0x40 SHL SUB DUP2 GT PUSH2 0x273 JUMPI PUSH1 0x40 PUSH1 0x20 SWAP3 PUSH2 0x22C PUSH1 0xFF SWAP4 CALLDATASIZE SWAP1 PUSH1 0x4 ADD PUSH2 0x1730 JUMP JUMPDEST PUSH2 0x24B DUP6 PUSH2 0x238 PUSH2 0x1A2E JUMP JUMPDEST SWAP3 DUP2 DUP7 MLOAD SWAP4 DUP3 DUP6 DUP1 SWAP5 MLOAD SWAP4 DUP5 SWAP3 ADD PUSH2 0x177C JUMP JUMPDEST PUSH1 0x4 SWAP1 DUP3 ADD SWAP1 DUP2 MSTORE SUB ADD SWAP1 KECCAK256 PUSH1 0x1 PUSH1 0x1 PUSH1 0xA0 SHL SUB SWAP1 SWAP2 AND DUP3 MSTORE DUP5 MSTORE KECCAK256 SLOAD PUSH1 0x40 MLOAD SWAP2 AND ISZERO ISZERO DUP2 MSTORE RETURN JUMPDEST POP DUP1 REVERT JUMPDEST POP PUSH1 0x60 DUP1 PUSH1 0x3 NOT CALLDATASIZE ADD SLT PUSH2 0x273 JUMPI PUSH1 0x4 CALLDATALOAD PUSH1 0x1 PUSH1 0x1 PUSH1 0x40 SHL SUB DUP2 GT PUSH2 0x59A JUMPI PUSH2 0x2A4 SWAP1 CALLDATASIZE SWAP1 PUSH1 0x4 ADD PUSH2 0x1730 JUMP JUMPDEST PUSH2 0x2AC PUSH2 0x1A2E JUMP JUMPDEST PUSH1 0x44 DUP1 CALLDATALOAD SWAP1 PUSH1 0x2 DUP7 SLOAD EQ PUSH2 0x588 JUMPI PUSH1 0x2 DUP7 SSTORE DUP6 JUMPDEST PUSH1 0x6 SLOAD DUP2 LT ISZERO PUSH2 0x57D JUMPI PUSH2 0x2E8 DUP6 PUSH2 0x2E3 PUSH1 0x9 PUSH2 0x2DC DUP6 PUSH2 0x1A6A JUMP JUMPDEST POP ADD PUSH2 0x280B JUMP JUMPDEST PUSH2 0x28AF JUMP JUMPDEST PUSH2 0x2FA JUMPI PUSH2 0x2F5 SWAP1 PUSH2 0x27FC JUMP JUMPDEST PUSH2 0x2C0 JUMP JUMPDEST PUSH2 0x312 PUSH2 0x30C DUP3 SWAP8 SWAP4 SWAP5 SWAP6 SWAP7 SWAP8 PUSH2 0x1A6A JUMP JUMPDEST POP PUSH2 0x2A37 JUMP JUMPDEST SWAP5 PUSH1 0x20 SWAP3 DUP4 DUP8 ADD SWAP1 PUSH1 0x1 DUP1 PUSH1 0xA0 SHL SUB SWAP3 DUP4 DUP4 MLOAD AND CALLER EQ PUSH2 0x539 JUMPI DUP9 MLOAD DUP1 CALLVALUE LT PUSH2 0x504 JUMPI POP POP POP DUP7 MLOAD DUP1 DUP8 MUL SWAP1 DUP8 DUP3 DIV EQ DUP8 ISZERO OR ISZERO PUSH2 0x4F0 JUMPI PUSH1 0x40 MLOAD SWAP7 PUSH2 0x357 DUP9 PUSH2 0x16BE JUMP JUMPDEST CALLER DUP9 MSTORE DUP6 DUP9 ADD MSTORE PUSH1 0x40 DUP8 ADD MSTORE DUP9 DUP5 PUSH1 0xE0 DUP10 ADD SWAP7 PUSH2 0x37D DUP9 MLOAD PUSH2 0x377 PUSH2 0x2B25 JUMP JUMPDEST SWAP1 PUSH2 0x28AF JUMP JUMPDEST PUSH2 0x488 JUMPI JUMPDEST POP POP POP MLOAD AND DUP8 MSTORE PUSH2 0x39D PUSH1 0x1 SWAP4 DUP5 DUP5 MSTORE PUSH1 0x40 DUP10 KECCAK256 SWAP1 MLOAD PUSH2 0x1A44 JUMP JUMPDEST DUP1 SLOAD SWAP1 CALLVALUE DUP3 ADD DUP1 SWAP3 GT PUSH2 0x474 JUMPI SSTORE PUSH1 0xC SWAP1 PUSH2 0x3B7 SWAP1 PUSH2 0x1A6A JUMP JUMPDEST POP ADD DUP1 SLOAD SWAP3 PUSH1 0x1 PUSH1 0x40 SHL DUP5 LT ISZERO PUSH2 0x460 JUMPI DUP4 ADD DUP1 DUP3 SSTORE DUP4 LT ISZERO PUSH2 0x44C JUMPI DUP7 MSTORE DUP6 KECCAK256 DUP3 MLOAD PUSH1 0x3 SWAP1 SWAP3 MUL ADD DUP1 SLOAD PUSH1 0x1 PUSH1 0x1 PUSH1 0xA0 SHL SUB NOT AND PUSH1 0x1 PUSH1 0x1 PUSH1 0xA0 SHL SUB SWAP3 SWAP1 SWAP3 AND SWAP2 SWAP1 SWAP2 OR DUP2 SSTORE PUSH1 0x20 DUP3 ADD MLOAD PUSH1 0x1 DUP3 ADD SSTORE PUSH1 0x40 SWAP1 SWAP2 ADD MLOAD PUSH1 0x2 SWAP1 SWAP2 ADD SSTORE PUSH2 0x41F SWAP1 MLOAD SWAP2 PUSH2 0x27DC JUMP JUMPDEST CALLER PUSH32 0x253FCD678C758E0E03DBF3A0243701C7439C306A61158B3C522A811977299010 DUP5 DUP1 LOG4 JUMPDEST PUSH1 0x1 DUP2 SSTORE DUP1 RETURN JUMPDEST PUSH4 0x4E487B71 PUSH1 0xE0 SHL DUP8 MSTORE PUSH1 0x32 PUSH1 0x4 MSTORE PUSH1 0x24 DUP8 REVERT JUMPDEST PUSH4 0x4E487B71 PUSH1 0xE0 SHL DUP9 MSTORE PUSH1 0x41 PUSH1 0x4 MSTORE PUSH1 0x24 DUP9 REVERT JUMPDEST PUSH4 0x4E487B71 PUSH1 0xE0 SHL DUP10 MSTORE PUSH1 0x11 PUSH1 0x4 MSTORE PUSH1 0x24 DUP10 REVERT JUMPDEST PUSH1 0x64 DUP6 PUSH1 0x5 SLOAD AND SWAP2 PUSH1 0x40 MLOAD SWAP5 DUP6 SWAP4 DUP5 SWAP3 PUSH4 0x23B872DD PUSH1 0xE0 SHL DUP5 MSTORE CALLER PUSH1 0x4 DUP6 ADD MSTORE ADDRESS PUSH1 0x24 DUP6 ADD MSTORE CALLVALUE SWAP1 DUP5 ADD MSTORE GAS CALL DUP1 ISZERO PUSH2 0x4E5 JUMPI PUSH2 0x4C8 JUMPI JUMPDEST DUP5 DUP11 SWAP2 PUSH2 0x382 JUMP JUMPDEST PUSH2 0x4DE SWAP1 DUP6 RETURNDATASIZE DUP8 GT PUSH2 0x1B3 JUMPI PUSH2 0x1A4 DUP2 DUP4 PUSH2 0x16F4 JUMP JUMPDEST POP CODESIZE PUSH2 0x4C0 JUMP JUMPDEST PUSH1 0x40 MLOAD RETURNDATASIZE DUP13 DUP3 RETURNDATACOPY RETURNDATASIZE SWAP1 REVERT JUMPDEST PUSH4 0x4E487B71 PUSH1 0xE0 SHL DUP11 MSTORE PUSH1 0x11 PUSH1 0x4 MSTORE PUSH1 0x24 DUP11 REVERT JUMPDEST DUP11 SWAP4 POP DUP8 DUP6 PUSH2 0x52B PUSH1 0x40 MLOAD SWAP7 DUP8 SWAP7 PUSH4 0xE90DB85 PUSH1 0xE3 SHL DUP9 MSTORE PUSH1 0x4 DUP9 ADD MSTORE PUSH1 0x64 DUP8 ADD SWAP1 PUSH2 0x179F JUMP JUMPDEST SWAP4 AND PUSH1 0x24 DUP6 ADD MSTORE DUP4 ADD MSTORE SUB SWAP1 REVERT JUMPDEST PUSH1 0x40 MLOAD PUSH3 0x461BCD PUSH1 0xE5 SHL DUP2 MSTORE PUSH1 0x4 DUP2 ADD DUP8 SWAP1 MSTORE PUSH1 0x1D PUSH1 0x24 DUP3 ADD MSTORE PUSH32 0x43616E206E6F742062757920796F7572206F776E2070726F6475637421000000 DUP2 DUP10 ADD MSTORE PUSH1 0x64 SWAP1 REVERT JUMPDEST POP POP POP POP POP POP PUSH2 0x445 JUMP JUMPDEST PUSH1 0x40 MLOAD PUSH4 0x3EE5AEB5 PUSH1 0xE0 SHL DUP2 MSTORE PUSH1 0x4 SWAP1 REVERT JUMPDEST DUP3 DUP1 REVERT JUMPDEST POP CALLVALUE PUSH2 0x1F1 JUMPI PUSH1 0x20 CALLDATASIZE PUSH1 0x3 NOT ADD SLT PUSH2 0x1F1 JUMPI PUSH1 0x20 SWAP1 PUSH1 0x40 SWAP1 PUSH1 0x1 PUSH1 0x1 PUSH1 0xA0 SHL SUB PUSH2 0x5C6 PUSH2 0x1A18 JUMP JUMPDEST AND DUP2 MSTORE PUSH1 0x3 DUP4 MSTORE KECCAK256 SLOAD PUSH1 0x40 MLOAD SWAP1 DUP2 MSTORE RETURN JUMPDEST POP CALLVALUE PUSH2 0x1F1 JUMPI PUSH1 0x20 CALLDATASIZE PUSH1 0x3 NOT ADD SLT PUSH2 0x1F1 JUMPI PUSH1 0x4 CALLDATALOAD SWAP1 PUSH1 0x1 PUSH1 0x1 PUSH1 0x40 SHL SUB DUP3 GT PUSH2 0x1F1 JUMPI PUSH2 0x627 PUSH2 0x613 PUSH2 0x60E CALLDATASIZE PUSH1 0x4 DUP7 ADD PUSH2 0x1730 JUMP JUMPDEST PUSH2 0x2CBF JUMP JUMPDEST PUSH1 0x40 MLOAD SWAP2 DUP3 SWAP2 PUSH1 0x20 DUP4 MSTORE PUSH1 0x20 DUP4 ADD SWAP1 PUSH2 0x17C4 JUMP JUMPDEST SUB SWAP1 RETURN JUMPDEST POP CALLVALUE PUSH2 0x1F1 JUMPI PUSH1 0x20 DUP1 PUSH1 0x3 NOT CALLDATASIZE ADD SLT PUSH2 0x273 JUMPI PUSH1 0x4 CALLDATALOAD PUSH1 0x1 PUSH1 0x1 PUSH1 0x40 SHL SUB DUP2 GT PUSH2 0x59A JUMPI PUSH2 0x65D SWAP1 CALLDATASIZE SWAP1 PUSH1 0x4 ADD PUSH2 0x1730 JUMP JUMPDEST CALLER DUP4 MSTORE PUSH1 0x1 DUP3 MSTORE PUSH2 0x671 PUSH1 0x40 DUP5 KECCAK256 DUP3 PUSH2 0x1A44 JUMP JUMPDEST SLOAD DUP1 ISZERO PUSH2 0x7F1 JUMPI CALLER DUP5 MSTORE PUSH1 0x1 DUP4 MSTORE DUP4 PUSH2 0x68D PUSH1 0x40 DUP3 KECCAK256 DUP5 PUSH2 0x1A44 JUMP JUMPDEST SSTORE DUP4 PUSH2 0x6B3 PUSH1 0x40 MLOAD PUSH2 0x69E DUP2 PUSH2 0x1656 JUMP JUMPDEST PUSH1 0x3 DUP2 MSTORE PUSH3 0x8AA89 PUSH1 0xEB SHL DUP7 DUP3 ADD MSTORE DUP5 PUSH2 0x28AF JUMP JUMPDEST ISZERO PUSH2 0x769 JUMPI DUP1 DUP1 DUP1 DUP5 CALLER GAS CALL SWAP2 DUP3 RETURNDATASIZE ISZERO PUSH2 0x764 JUMPI RETURNDATASIZE PUSH2 0x6D1 DUP2 PUSH2 0x1715 JUMP JUMPDEST SWAP1 PUSH2 0x6DF PUSH1 0x40 MLOAD SWAP3 DUP4 PUSH2 0x16F4 JUMP JUMPDEST DUP2 MSTORE DUP7 DUP7 RETURNDATASIZE SWAP3 ADD RETURNDATACOPY JUMPDEST PUSH2 0x72F JUMPI JUMPDEST POP POP ISZERO PUSH2 0x6F8 JUMPI POP DUP1 RETURN JUMPDEST PUSH1 0x64 SWAP1 PUSH1 0x40 MLOAD SWAP1 PUSH3 0x461BCD PUSH1 0xE5 SHL DUP3 MSTORE PUSH1 0x4 DUP3 ADD MSTORE PUSH1 0x10 PUSH1 0x24 DUP3 ADD MSTORE PUSH16 0x5472616E73666572206661696C656421 PUSH1 0x80 SHL PUSH1 0x44 DUP3 ADD MSTORE REVERT JUMPDEST PUSH2 0x738 SWAP1 PUSH2 0x27DC JUMP JUMPDEST CALLER PUSH32 0xF2CA3EFE12F71D386EF0FD2B75EBBEF402882711943CCB42D5BDB696FA7A1341 DUP7 DUP1 LOG4 CODESIZE DUP1 PUSH2 0x6ED JUMP JUMPDEST PUSH2 0x6E8 JUMP JUMPDEST SWAP2 PUSH2 0x776 SWAP1 PUSH2 0x377 PUSH2 0x2B25 JUMP JUMPDEST PUSH2 0x781 JUMPI JUMPDEST POP POP POP DUP1 RETURN JUMPDEST PUSH1 0x5 SLOAD PUSH1 0x40 MLOAD PUSH4 0xA9059CBB PUSH1 0xE0 SHL DUP2 MSTORE CALLER PUSH1 0x4 DUP3 ADD MSTORE PUSH1 0x24 DUP2 ADD SWAP3 SWAP1 SWAP3 MSTORE SWAP1 SWAP2 DUP4 SWAP2 DUP4 SWAP2 PUSH1 0x44 SWAP2 DUP4 SWAP2 SWAP1 PUSH1 0x1 PUSH1 0x1 PUSH1 0xA0 SHL SUB AND GAS CALL DUP1 ISZERO PUSH2 0x7E6 JUMPI PUSH2 0x7C8 JUMPI JUMPDEST DUP3 SWAP1 PUSH2 0x77B JUMP JUMPDEST DUP2 PUSH2 0x7DE SWAP3 SWAP1 RETURNDATASIZE LT PUSH2 0x1B3 JUMPI PUSH2 0x1A4 DUP2 DUP4 PUSH2 0x16F4 JUMP JUMPDEST POP CODESIZE DUP1 PUSH2 0x7C1 JUMP JUMPDEST PUSH1 0x40 MLOAD RETURNDATASIZE DUP6 DUP3 RETURNDATACOPY RETURNDATASIZE SWAP1 REVERT JUMPDEST PUSH1 0x40 MLOAD PUSH4 0x125D726B PUSH1 0xE2 SHL DUP2 MSTORE PUSH1 0x4 SWAP1 REVERT JUMPDEST POP CALLVALUE PUSH2 0x1F1 JUMPI PUSH1 0x40 CALLDATASIZE PUSH1 0x3 NOT ADD SLT PUSH2 0x1F1 JUMPI PUSH2 0x81D PUSH2 0x1A18 JUMP JUMPDEST PUSH1 0x24 CALLDATALOAD PUSH1 0x1 PUSH1 0x1 PUSH1 0x40 SHL SUB DUP2 GT PUSH2 0x59A JUMPI SWAP1 PUSH1 0x40 PUSH1 0x20 SWAP4 PUSH2 0x845 PUSH2 0x85D SWAP5 CALLDATASIZE SWAP1 PUSH1 0x4 ADD PUSH2 0x1730 JUMP JUMPDEST PUSH1 0x1 PUSH1 0x1 PUSH1 0xA0 SHL SUB SWAP1 SWAP4 AND DUP2 MSTORE PUSH1 0x1 DUP6 MSTORE KECCAK256 SWAP1 PUSH2 0x1A44 JUMP JUMPDEST SLOAD PUSH1 0x40 MLOAD SWAP1 DUP2 MSTORE RETURN JUMPDEST POP CALLVALUE PUSH2 0x1F1 JUMPI PUSH1 0x20 CALLDATASIZE PUSH1 0x3 NOT ADD SLT PUSH2 0x1F1 JUMPI PUSH1 0x4 CALLDATALOAD PUSH1 0x1 PUSH1 0x1 PUSH1 0x40 SHL SUB DUP2 GT PUSH2 0x273 JUMPI PUSH2 0x897 SWAP1 CALLDATASIZE SWAP1 PUSH1 0x4 ADD PUSH2 0x1730 JUMP JUMPDEST PUSH1 0x6 SLOAD SWAP1 PUSH2 0x8A4 DUP3 PUSH2 0x2C5B JUMP JUMPDEST SWAP3 JUMPDEST DUP3 DUP2 LT PUSH2 0x8BB JUMPI PUSH1 0x40 MLOAD DUP1 PUSH2 0x627 DUP7 DUP3 PUSH2 0x19B6 JUMP JUMPDEST DUP1 PUSH2 0x8D1 DUP4 PUSH2 0x2E3 PUSH1 0x2 PUSH2 0x2DC PUSH2 0x8DA SWAP7 PUSH2 0x1A6A JUMP JUMPDEST PUSH2 0x8DF JUMPI PUSH2 0x27FC JUMP JUMPDEST PUSH2 0x8A6 JUMP JUMPDEST PUSH2 0x8EB PUSH2 0x30C DUP3 PUSH2 0x1A6A JUMP JUMPDEST PUSH2 0x8F5 DUP3 DUP8 PUSH2 0x2CAB JUMP JUMPDEST MSTORE PUSH2 0x900 DUP2 DUP7 PUSH2 0x2CAB JUMP JUMPDEST POP PUSH2 0x27FC JUMP JUMPDEST POP CALLVALUE PUSH2 0x1F1 JUMPI DUP1 PUSH1 0x3 NOT CALLDATASIZE ADD SLT PUSH2 0x1F1 JUMPI PUSH1 0x6 SLOAD PUSH2 0x923 DUP2 PUSH2 0x2904 JUMP JUMPDEST SWAP1 PUSH2 0x931 PUSH1 0x40 MLOAD SWAP3 DUP4 PUSH2 0x16F4 JUMP JUMPDEST DUP1 DUP3 MSTORE PUSH1 0x6 DUP4 MSTORE PUSH32 0xF652222313E28459528D920B65115C16C04F3EFC82AAEDC97BE59F3F377C0D3F SWAP3 PUSH1 0x20 DUP1 DUP5 ADD JUMPDEST DUP4 DUP4 LT PUSH2 0x975 JUMPI PUSH1 0x40 MLOAD DUP1 PUSH2 0x627 DUP8 DUP3 PUSH2 0x19B6 JUMP JUMPDEST PUSH1 0xD DUP3 PUSH1 0x1 SWAP3 PUSH2 0x984 DUP10 PUSH2 0x2A37 JUMP JUMPDEST DUP2 MSTORE ADD SWAP7 ADD SWAP3 ADD SWAP2 SWAP5 PUSH2 0x960 JUMP JUMPDEST POP CALLVALUE PUSH2 0x1F1 JUMPI PUSH1 0x40 CALLDATASIZE PUSH1 0x3 NOT ADD SLT PUSH2 0x1F1 JUMPI PUSH1 0x4 CALLDATALOAD PUSH1 0x1 PUSH1 0x1 PUSH1 0x40 SHL SUB DUP2 GT PUSH2 0x273 JUMPI PUSH2 0x9C3 SWAP1 CALLDATASIZE SWAP1 PUSH1 0x4 ADD PUSH2 0x1730 JUMP JUMPDEST PUSH1 0x24 SWAP1 DUP2 CALLDATALOAD SWAP1 DUP2 ISZERO ISZERO SWAP2 DUP3 DUP2 SUB PUSH2 0xACE JUMPI DUP5 JUMPDEST PUSH1 0x6 SLOAD DUP2 LT ISZERO PUSH2 0xAC6 JUMPI PUSH2 0x9F2 DUP4 PUSH2 0x2E3 PUSH1 0x9 PUSH2 0x2DC DUP6 PUSH2 0x1A6A JUMP JUMPDEST PUSH2 0xA04 JUMPI PUSH2 0x9FF SWAP1 PUSH2 0x27FC JUMP JUMPDEST PUSH2 0x9D6 JUMP JUMPDEST PUSH2 0xA12 DUP2 SWAP6 SWAP3 SWAP4 SWAP5 SWAP6 PUSH2 0x1A6A JUMP JUMPDEST POP PUSH1 0x1 SWAP1 DUP2 ADD SLOAD SWAP1 SWAP3 SWAP1 PUSH1 0x1 PUSH1 0x1 PUSH1 0xA0 SHL SUB AND CALLER SUB PUSH2 0xA8A JUMPI POP SWAP2 PUSH2 0xA5D SWAP2 PUSH2 0xA3E PUSH2 0xA62 SWAP6 SWAP5 PUSH2 0x1A6A JUMP JUMPDEST POP ADD DUP1 SLOAD PUSH1 0xFF PUSH1 0xA0 SHL NOT AND SWAP2 ISZERO ISZERO PUSH1 0xA0 SHL PUSH1 0xFF PUSH1 0xA0 SHL AND SWAP2 SWAP1 SWAP2 OR SWAP1 SSTORE JUMP JUMPDEST PUSH2 0x27DC JUMP JUMPDEST CALLER PUSH32 0x51DABE03DBC9869CDC42F327348910C055732B793C7AAADE368A32D8F3658E1E DUP5 DUP1 LOG4 DUP1 RETURN JUMPDEST PUSH1 0x64 SWAP1 PUSH1 0x15 PUSH1 0x40 MLOAD SWAP2 PUSH3 0x461BCD PUSH1 0xE5 SHL DUP4 MSTORE PUSH1 0x20 PUSH1 0x4 DUP5 ADD MSTORE DUP3 ADD MSTORE PUSH21 0x4E6F7420796F7572206F776E2070726F6475637421 PUSH1 0x58 SHL PUSH1 0x44 DUP3 ADD MSTORE REVERT JUMPDEST POP POP POP POP POP DUP1 RETURN JUMPDEST DUP5 DUP1 REVERT JUMPDEST POP CALLVALUE PUSH2 0x1F1 JUMPI PUSH1 0x20 DUP1 PUSH1 0x3 NOT CALLDATASIZE ADD SLT PUSH2 0x273 JUMPI PUSH2 0x627 PUSH1 0x40 DUP1 SWAP4 PUSH2 0xAF4 PUSH2 0x1A18 JUMP JUMPDEST PUSH1 0x60 DUP6 DUP5 MLOAD PUSH2 0xB02 DUP2 PUSH2 0x1656 JUMP JUMPDEST DUP3 DUP2 MSTORE ADD MSTORE PUSH1 0x1 PUSH1 0x1 PUSH1 0xA0 SHL SUB AND DUP2 MSTORE PUSH1 0x2 DUP5 MSTORE KECCAK256 DUP4 MLOAD SWAP3 SWAP1 PUSH2 0xB5E SWAP1 PUSH2 0xB40 SWAP1 PUSH1 0x1 SWAP1 PUSH2 0xB2F DUP8 PUSH2 0x1656 JUMP JUMPDEST PUSH2 0xB38 DUP2 PUSH2 0x280B JUMP JUMPDEST DUP8 MSTORE ADD PUSH2 0x280B JUMP JUMPDEST SWAP2 DUP1 DUP6 ADD SWAP3 DUP4 MSTORE DUP6 MLOAD SWAP6 DUP7 SWAP6 DUP3 DUP8 MSTORE MLOAD SWAP2 DUP7 ADD MSTORE PUSH1 0x60 DUP6 ADD SWAP1 PUSH2 0x179F JUMP JUMPDEST SWAP1 MLOAD DUP4 DUP3 SUB PUSH1 0x1F NOT ADD PUSH1 0x40 DUP6 ADD MSTORE PUSH2 0x179F JUMP JUMPDEST POP CALLVALUE PUSH2 0x1F1 JUMPI PUSH1 0xA0 CALLDATASIZE PUSH1 0x3 NOT ADD SLT PUSH2 0x1F1 JUMPI PUSH1 0x1 PUSH1 0x1 PUSH1 0x40 SHL SUB PUSH1 0x4 CALLDATALOAD DUP2 DUP2 GT PUSH2 0x59A JUMPI PUSH2 0xBA3 SWAP1 CALLDATASIZE SWAP1 PUSH1 0x4 ADD PUSH2 0x1730 JUMP JUMPDEST SWAP2 PUSH1 0x24 SWAP3 DUP4 CALLDATALOAD SWAP4 PUSH1 0x44 SWAP2 DUP3 CALLDATALOAD DUP6 DUP2 GT PUSH2 0xACE JUMPI PUSH2 0xBC4 SWAP1 CALLDATASIZE SWAP1 PUSH1 0x4 ADD PUSH2 0x1730 JUMP JUMPDEST SWAP6 PUSH1 0x64 SWAP6 DUP7 CALLDATALOAD SWAP1 DUP2 GT PUSH2 0xE08 JUMPI PUSH2 0xBDF SWAP1 CALLDATASIZE SWAP1 PUSH1 0x4 ADD PUSH2 0x1730 JUMP JUMPDEST SWAP4 PUSH1 0x84 SWAP8 DUP9 CALLDATALOAD SWAP5 PUSH1 0x1 DUP1 PUSH1 0xA0 SHL SUB SWAP3 DUP4 DUP8 AND DUP1 SWAP8 SUB PUSH2 0xE04 JUMPI DUP9 JUMPDEST PUSH1 0x6 SLOAD DUP2 LT ISZERO PUSH2 0xDF5 JUMPI PUSH2 0xC0D DUP2 PUSH2 0x1A6A JUMP JUMPDEST POP PUSH2 0xC1F DUP11 PUSH2 0x2E3 PUSH1 0x9 DUP1 SWAP5 ADD PUSH2 0x280B JUMP JUMPDEST PUSH2 0xC32 JUMPI POP PUSH2 0xC2D SWAP1 PUSH2 0x27FC JUMP JUMPDEST PUSH2 0xBFA JUMP JUMPDEST SWAP2 PUSH2 0xC46 DUP3 SWAP5 SWAP6 SWAP7 SWAP8 SWAP9 SWAP10 SWAP11 SWAP12 SWAP13 SWAP3 PUSH2 0x1A6A JUMP JUMPDEST POP SWAP7 PUSH1 0x1 DUP1 SWAP9 ADD SLOAD AND CALLER EQ PUSH2 0xDA6 JUMPI DUP12 SWAP13 POP PUSH1 0xFF PUSH1 0x40 PUSH2 0xC70 DUP6 PUSH2 0xC69 DUP9 PUSH2 0x1A6A JUMP JUMPDEST POP ADD PUSH2 0x2B5D JUMP JUMPDEST SWAP14 CALLER DUP2 MSTORE PUSH1 0x20 SWAP15 DUP16 MSTORE KECCAK256 SLOAD AND PUSH2 0xD66 JUMPI POP POP DUP2 PUSH2 0xC95 PUSH2 0xCAD SWAP3 PUSH2 0xC69 PUSH1 0xB SWAP6 PUSH2 0x1A6A JUMP JUMPDEST CALLER DUP14 MSTORE DUP12 MSTORE PUSH1 0x40 DUP13 KECCAK256 DUP1 SLOAD PUSH1 0xFF NOT AND DUP8 OR SWAP1 SSTORE PUSH2 0x1A6A JUMP JUMPDEST POP ADD SWAP2 PUSH1 0x40 MLOAD SWAP5 PUSH2 0xCBD DUP7 PUSH2 0x16A3 JUMP JUMPDEST CALLER DUP7 MSTORE DUP10 DUP7 ADD MSTORE DUP6 PUSH1 0x40 DUP7 ADD MSTORE TIMESTAMP PUSH1 0x60 DUP7 ADD MSTORE PUSH1 0x80 DUP6 ADD MSTORE DUP2 SLOAD SWAP3 PUSH1 0x1 PUSH1 0x40 SHL DUP5 LT ISZERO PUSH2 0xD53 JUMPI DUP4 ADD DUP1 DUP4 SSTORE DUP4 LT ISZERO PUSH2 0xD41 JUMPI POP SWAP3 PUSH2 0xA5D PUSH2 0xD34 SWAP4 PUSH2 0xD2E SWAP4 PUSH32 0x8BB52EEE1B68032569FA2C483528D7D2B7DB7824B9704EE675F7202956220865 SWAP7 DUP12 MSTORE PUSH1 0x5 DUP11 DUP13 KECCAK256 SWAP2 MUL ADD PUSH2 0x1B56 JUMP JUMPDEST SWAP4 PUSH2 0x27DC JUMP JUMPDEST SWAP4 PUSH1 0x40 MLOAD SWAP3 DUP4 MSTORE CALLER SWAP3 LOG4 DUP1 RETURN JUMPDEST PUSH4 0x4E487B71 PUSH1 0xE0 SHL DUP10 MSTORE PUSH1 0x32 PUSH1 0x4 MSTORE DUP9 REVERT JUMPDEST POP PUSH4 0x4E487B71 PUSH1 0xE0 SHL DUP10 MSTORE PUSH1 0x41 PUSH1 0x4 MSTORE DUP9 REVERT JUMPDEST PUSH32 0x43616E206E6F7420636F6D6D656E74206D6F7265207468616E206F6E63652100 DUP13 SWAP2 PUSH1 0x1F DUP8 PUSH1 0x40 MLOAD SWAP5 PUSH3 0x461BCD PUSH1 0xE5 SHL DUP7 MSTORE PUSH1 0x4 DUP7 ADD MSTORE DUP5 ADD MSTORE DUP3 ADD MSTORE REVERT JUMPDEST PUSH5 0x7563747321 PUSH1 0xD8 SHL DUP14 SWAP3 PUSH32 0x43616E206E6F7420636F6D6D656E74206F6E20796F7572206F776E2070726F64 DUP8 SWAP4 PUSH1 0x25 PUSH1 0x40 MLOAD SWAP6 PUSH3 0x461BCD PUSH1 0xE5 SHL DUP8 MSTORE PUSH1 0x20 PUSH1 0x4 DUP9 ADD MSTORE DUP7 ADD MSTORE DUP5 ADD MSTORE DUP3 ADD MSTORE REVERT JUMPDEST POP POP POP POP POP POP POP POP POP SWAP2 POP POP DUP1 RETURN JUMPDEST DUP9 DUP1 REVERT JUMPDEST DUP6 DUP1 REVERT JUMPDEST POP CALLVALUE PUSH2 0x1F1 JUMPI DUP1 PUSH1 0x3 NOT CALLDATASIZE ADD SLT PUSH2 0x1F1 JUMPI PUSH1 0x6 SLOAD PUSH2 0xE29 DUP2 PUSH2 0x2C5B JUMP JUMPDEST SWAP2 JUMPDEST DUP2 DUP2 LT PUSH2 0xE40 JUMPI PUSH1 0x40 MLOAD DUP1 PUSH2 0x627 DUP6 DUP3 PUSH2 0x19B6 JUMP JUMPDEST DUP1 PUSH2 0xE4D PUSH2 0xE66 SWAP3 PUSH2 0x1A6A JUMP JUMPDEST POP PUSH1 0x1 ADD SLOAD PUSH1 0x1 PUSH1 0x1 PUSH1 0xA0 SHL SUB AND CALLER EQ PUSH2 0xE6B JUMPI PUSH2 0x27FC JUMP JUMPDEST PUSH2 0xE2B JUMP JUMPDEST PUSH2 0xE77 PUSH2 0x30C DUP3 PUSH2 0x1A6A JUMP JUMPDEST PUSH2 0xE81 DUP3 DUP7 PUSH2 0x2CAB JUMP JUMPDEST MSTORE PUSH2 0x900 DUP2 DUP6 PUSH2 0x2CAB JUMP JUMPDEST POP CALLVALUE PUSH2 0x1F1 JUMPI DUP1 PUSH1 0x3 NOT CALLDATASIZE ADD SLT PUSH2 0x1F1 JUMPI PUSH1 0x5 SLOAD PUSH1 0x40 MLOAD PUSH1 0x1 PUSH1 0x1 PUSH1 0xA0 SHL SUB SWAP1 SWAP2 AND DUP2 MSTORE PUSH1 0x20 SWAP1 RETURN JUMPDEST POP CALLVALUE PUSH2 0x1F1 JUMPI PUSH1 0xE0 CALLDATASIZE PUSH1 0x3 NOT ADD SLT PUSH2 0x1F1 JUMPI PUSH1 0x1 PUSH1 0x1 PUSH1 0x40 SHL SUB PUSH1 0x4 CALLDATALOAD DUP2 DUP2 GT PUSH2 0x59A JUMPI PUSH2 0xEE7 SWAP1 CALLDATASIZE SWAP1 PUSH1 0x4 ADD PUSH2 0x1730 JUMP JUMPDEST PUSH1 0x44 SWAP1 DUP2 CALLDATALOAD DUP4 DUP2 GT PUSH2 0xACE JUMPI PUSH2 0xF01 SWAP1 CALLDATASIZE SWAP1 PUSH1 0x4 ADD PUSH2 0x1730 JUMP JUMPDEST SWAP2 PUSH1 0x64 SWAP4 DUP5 CALLDATALOAD DUP2 DUP2 GT PUSH2 0x1180 JUMPI PUSH2 0xF1C SWAP1 CALLDATASIZE SWAP1 PUSH1 0x4 ADD PUSH2 0x1730 JUMP JUMPDEST PUSH1 0x84 SWAP1 DUP2 CALLDATALOAD DUP4 DUP2 GT PUSH2 0xE04 JUMPI PUSH2 0xF36 SWAP1 CALLDATASIZE SWAP1 PUSH1 0x4 ADD PUSH2 0x1730 JUMP JUMPDEST SWAP2 PUSH1 0xA4 CALLDATALOAD DUP5 DUP2 GT PUSH2 0x117C JUMPI PUSH2 0xF4F SWAP1 CALLDATASIZE SWAP1 PUSH1 0x4 ADD PUSH2 0x1730 JUMP JUMPDEST SWAP4 PUSH1 0xC4 CALLDATALOAD SWAP1 DUP2 GT PUSH2 0x117C JUMPI PUSH2 0xF68 SWAP1 CALLDATASIZE SWAP1 PUSH1 0x4 ADD PUSH2 0x1730 JUMP JUMPDEST SWAP5 DUP10 JUMPDEST PUSH1 0x6 SLOAD DUP2 LT ISZERO PUSH2 0x116F JUMPI PUSH2 0xF87 DUP9 PUSH2 0x2E3 PUSH1 0x9 PUSH2 0x2DC DUP6 PUSH2 0x1A6A JUMP JUMPDEST PUSH2 0xF99 JUMPI PUSH2 0xF94 SWAP1 PUSH2 0x27FC JUMP JUMPDEST PUSH2 0xF6B JUMP JUMPDEST SWAP6 SWAP7 SWAP8 SWAP9 PUSH2 0xFA6 DUP8 PUSH2 0x1A6A JUMP JUMPDEST POP PUSH1 0x1 ADD SLOAD PUSH1 0x1 PUSH1 0x1 PUSH1 0xA0 SHL SUB AND CALLER SUB PUSH2 0x1120 JUMPI POP POP POP PUSH2 0xFC6 DUP5 PUSH2 0x1A6A JUMP JUMPDEST POP PUSH1 0x1 ADD SLOAD PUSH1 0x1 PUSH1 0x1 PUSH1 0xA0 SHL SUB AND SWAP5 PUSH2 0xFDE DUP6 PUSH2 0x1A6A JUMP JUMPDEST POP PUSH1 0x1 ADD SLOAD SWAP3 PUSH2 0xFED DUP7 PUSH2 0x1A6A JUMP JUMPDEST POP SWAP5 PUSH2 0xFF8 DUP8 PUSH2 0x1A6A JUMP JUMPDEST POP PUSH2 0x1002 DUP9 PUSH2 0x1A6A JUMP JUMPDEST POP SWAP4 PUSH2 0x100D DUP10 PUSH2 0x1A6A JUMP JUMPDEST POP PUSH1 0xA ADD SLOAD SWAP6 PUSH2 0x101C DUP11 PUSH2 0x1A6A JUMP JUMPDEST POP SWAP8 PUSH2 0x1027 DUP12 PUSH2 0x1A6A JUMP JUMPDEST POP SWAP10 PUSH1 0x40 MLOAD SWAP13 PUSH2 0x1036 DUP15 PUSH2 0x1687 JUMP JUMPDEST PUSH1 0x24 CALLDATALOAD DUP15 MSTORE PUSH1 0x20 DUP15 ADD MSTORE PUSH1 0xFF PUSH1 0xA0 SWAP3 DUP4 SHR AND ISZERO ISZERO PUSH1 0x40 DUP15 ADD MSTORE PUSH2 0x105B SWAP1 PUSH1 0x2 ADD PUSH2 0x280B JUMP JUMPDEST PUSH1 0x60 DUP14 ADD MSTORE DUP14 PUSH1 0x80 DUP14 ADD MSTORE DUP12 ADD MSTORE PUSH1 0xC0 DUP11 ADD MSTORE PUSH1 0x6 ADD PUSH2 0x107A SWAP1 PUSH2 0x280B JUMP JUMPDEST PUSH1 0xE0 DUP10 ADD MSTORE PUSH2 0x100 DUP9 ADD MSTORE PUSH2 0x120 DUP8 ADD MSTORE PUSH1 0x9 ADD PUSH2 0x1097 SWAP1 PUSH2 0x280B JUMP JUMPDEST PUSH2 0x140 DUP7 ADD MSTORE PUSH2 0x160 DUP6 ADD MSTORE PUSH1 0xB ADD PUSH2 0x10AF SWAP1 PUSH2 0x291B JUMP JUMPDEST PUSH2 0x180 DUP5 ADD MSTORE PUSH1 0xC ADD PUSH2 0x10C1 SWAP1 PUSH2 0x29BA JUMP JUMPDEST PUSH2 0x1A0 DUP4 ADD MSTORE PUSH2 0x10D0 SWAP1 PUSH2 0x1A6A JUMP JUMPDEST PUSH2 0x10DA SWAP3 SWAP2 PUSH2 0x1D86 JUMP JUMPDEST PUSH2 0x10E3 SWAP1 PUSH2 0x27DC JUMP JUMPDEST SWAP1 PUSH2 0x10ED SWAP1 PUSH2 0x27DC JUMP JUMPDEST SWAP1 PUSH1 0x40 MLOAD PUSH1 0x24 CALLDATALOAD DUP2 MSTORE CALLER SWAP1 PUSH1 0x20 PUSH32 0x384C5F98880FAD6ED933597FE4BECD24246DB16D5A262945362C7ACE0A0E47B5 SWAP2 LOG4 DUP1 RETURN JUMPDEST PUSH6 0x6F6475637421 PUSH1 0xD0 SHL SWAP1 PUSH32 0x43616E206E6F74206564697420616E6F7468657220706572736F6E2773207072 PUSH1 0x40 MLOAD SWAP4 PUSH3 0x461BCD PUSH1 0xE5 SHL DUP6 MSTORE PUSH1 0x20 PUSH1 0x4 DUP7 ADD MSTORE PUSH1 0x26 PUSH1 0x24 DUP7 ADD MSTORE DUP5 ADD MSTORE DUP3 ADD MSTORE REVERT JUMPDEST POP POP POP POP POP POP POP POP POP POP DUP1 RETURN JUMPDEST DUP10 DUP1 REVERT JUMPDEST DUP7 DUP1 REVERT JUMPDEST POP CALLVALUE PUSH2 0x1F1 JUMPI PUSH1 0x20 CALLDATASIZE PUSH1 0x3 NOT ADD SLT PUSH2 0x1F1 JUMPI PUSH1 0x4 CALLDATALOAD SWAP1 PUSH1 0x1 PUSH1 0x1 PUSH1 0x40 SHL SUB DUP3 GT PUSH2 0x1F1 JUMPI PUSH1 0x20 PUSH2 0x11BF PUSH2 0x11BA CALLDATASIZE PUSH1 0x4 DUP7 ADD PUSH2 0x1730 JUMP JUMPDEST PUSH2 0x2DEB JUMP JUMPDEST PUSH1 0x40 MLOAD SWAP1 ISZERO ISZERO DUP2 MSTORE RETURN JUMPDEST POP CALLVALUE PUSH2 0x1F1 JUMPI PUSH2 0x140 DUP1 PUSH1 0x3 NOT CALLDATASIZE ADD SLT PUSH2 0x273 JUMPI PUSH1 0x4 CALLDATALOAD PUSH1 0x1 PUSH1 0x1 PUSH1 0x40 SHL SUB PUSH1 0x24 CALLDATALOAD DUP2 DUP2 GT PUSH2 0xACE JUMPI PUSH2 0x1200 SWAP1 CALLDATASIZE SWAP1 PUSH1 0x4 ADD PUSH2 0x1730 JUMP JUMPDEST PUSH1 0x44 CALLDATALOAD DUP3 DUP2 GT PUSH2 0xE08 JUMPI PUSH2 0x1218 SWAP1 CALLDATASIZE SWAP1 PUSH1 0x4 ADD PUSH2 0x1730 JUMP JUMPDEST SWAP4 PUSH1 0x64 CALLDATALOAD DUP4 DUP2 GT PUSH2 0x1180 JUMPI PUSH2 0x1231 SWAP1 CALLDATASIZE SWAP1 PUSH1 0x4 ADD PUSH2 0x1730 JUMP JUMPDEST SWAP1 PUSH1 0x84 CALLDATALOAD DUP5 DUP2 GT PUSH2 0x13AC JUMPI PUSH2 0x124A SWAP1 CALLDATASIZE SWAP1 PUSH1 0x4 ADD PUSH2 0x1730 JUMP JUMPDEST SWAP4 PUSH1 0xA4 CALLDATALOAD DUP2 DUP2 GT PUSH2 0xE04 JUMPI PUSH2 0x1263 SWAP1 CALLDATASIZE SWAP1 PUSH1 0x4 ADD PUSH2 0x1730 JUMP JUMPDEST PUSH1 0xC4 CALLDATALOAD DUP3 DUP2 GT PUSH2 0x117C JUMPI PUSH2 0x127B SWAP1 CALLDATASIZE SWAP1 PUSH1 0x4 ADD PUSH2 0x1730 JUMP JUMPDEST SWAP1 PUSH1 0xE4 CALLDATALOAD DUP4 DUP2 GT PUSH2 0x13A8 JUMPI PUSH2 0x1294 SWAP1 CALLDATASIZE SWAP1 PUSH1 0x4 ADD PUSH2 0x1730 JUMP JUMPDEST SWAP3 PUSH2 0x104 CALLDATALOAD SWAP1 DUP2 GT PUSH2 0x13A8 JUMPI PUSH2 0x12AE SWAP1 CALLDATASIZE SWAP1 PUSH1 0x4 ADD PUSH2 0x1730 JUMP JUMPDEST SWAP7 DUP9 ISZERO PUSH2 0x1396 JUMPI DUP8 SWAP6 PUSH1 0x40 MLOAD SWAP8 PUSH2 0x12C4 DUP10 PUSH2 0x1687 JUMP JUMPDEST DUP11 DUP10 MSTORE CALLER PUSH1 0x20 DUP11 ADD MSTORE DUP13 PUSH1 0x40 DUP11 ADD MSTORE PUSH1 0x60 DUP10 ADD MSTORE DUP11 PUSH1 0x80 DUP10 ADD MSTORE PUSH1 0xA0 DUP9 ADD MSTORE PUSH1 0xC0 DUP8 ADD MSTORE PUSH1 0xE0 DUP7 ADD MSTORE PUSH2 0x100 DUP6 ADD MSTORE PUSH2 0x120 DUP5 ADD MSTORE DUP3 ADD MSTORE PUSH2 0x124 CALLDATALOAD PUSH2 0x160 DUP3 ADD MSTORE PUSH1 0x60 PUSH2 0x180 DUP3 ADD MSTORE PUSH1 0x60 PUSH2 0x1A0 DUP3 ADD MSTORE PUSH1 0x6 SLOAD PUSH1 0x1 PUSH1 0x40 SHL DUP2 LT ISZERO PUSH2 0x1382 JUMPI PUSH2 0x1343 SWAP3 SWAP2 PUSH2 0x133D DUP3 PUSH1 0x1 PUSH2 0xA5D SWAP5 ADD PUSH1 0x6 SSTORE PUSH2 0x1A6A JUMP JUMPDEST SWAP1 PUSH2 0x1D86 JUMP JUMPDEST SWAP2 PUSH32 0x9EC512F6157DAF19471FDB4ABC754CD622CE54571FDA42C4C416FF378B041583 PUSH1 0x40 MLOAD PUSH1 0x20 DUP2 MSTORE DUP1 PUSH2 0x137C CALLER SWAP5 PUSH1 0x20 DUP4 ADD SWAP1 PUSH2 0x179F JUMP JUMPDEST SUB SWAP1 LOG4 DUP1 RETURN JUMPDEST PUSH4 0x4E487B71 PUSH1 0xE0 SHL DUP7 MSTORE PUSH1 0x41 PUSH1 0x4 MSTORE PUSH1 0x24 DUP7 REVERT JUMPDEST PUSH1 0x40 MLOAD PUSH4 0x5EBDE5F5 PUSH1 0xE1 SHL DUP2 MSTORE PUSH1 0x4 SWAP1 REVERT JUMPDEST DUP11 DUP1 REVERT JUMPDEST DUP8 DUP1 REVERT JUMPDEST POP CALLVALUE PUSH2 0x1F1 JUMPI PUSH1 0x40 CALLDATASIZE PUSH1 0x3 NOT ADD SLT PUSH2 0x1F1 JUMPI PUSH1 0x1 PUSH1 0x1 PUSH1 0x40 SHL SUB PUSH1 0x4 CALLDATALOAD DUP2 DUP2 GT PUSH2 0x59A JUMPI PUSH2 0x13E2 SWAP1 CALLDATASIZE SWAP1 PUSH1 0x4 ADD PUSH2 0x1730 JUMP JUMPDEST SWAP1 PUSH1 0x24 CALLDATALOAD DUP2 DUP2 GT PUSH2 0x1652 JUMPI PUSH2 0x13FB SWAP1 CALLDATASIZE SWAP1 PUSH1 0x4 ADD PUSH2 0x1730 JUMP JUMPDEST SWAP2 PUSH1 0x40 MLOAD PUSH2 0x1408 DUP2 PUSH2 0x1656 JUMP JUMPDEST DUP2 DUP2 MSTORE PUSH1 0x20 SWAP3 DUP4 DUP3 ADD SWAP2 DUP6 DUP4 MSTORE CALLER DUP8 MSTORE PUSH1 0x2 DUP6 MSTORE PUSH1 0x40 DUP8 KECCAK256 SWAP1 MLOAD DUP1 MLOAD DUP4 DUP2 GT PUSH2 0x15A4 JUMPI DUP1 PUSH2 0x1436 DUP5 SLOAD PUSH2 0x1ABB JUMP JUMPDEST SWAP3 PUSH1 0x1F SWAP4 DUP5 DUP2 GT PUSH2 0x1626 JUMPI JUMPDEST POP DUP9 SWAP1 DUP5 DUP4 GT PUSH1 0x1 EQ PUSH2 0x15C3 JUMPI DUP12 SWAP3 PUSH2 0x15B8 JUMPI JUMPDEST POP POP DUP2 PUSH1 0x1 SHL SWAP2 PUSH1 0x0 NOT SWAP1 PUSH1 0x3 SHL SHR NOT AND OR DUP3 SSTORE JUMPDEST PUSH1 0x1 DUP1 SWAP3 ADD SWAP4 MLOAD SWAP6 DUP7 MLOAD SWAP4 DUP5 GT PUSH2 0x15A4 JUMPI PUSH2 0x1486 DUP6 SLOAD PUSH2 0x1ABB JUMP JUMPDEST DUP3 DUP2 GT PUSH2 0x156E JUMPI JUMPDEST POP DUP1 SWAP2 DUP5 GT PUSH1 0x1 EQ PUSH2 0x1500 JUMPI POP SWAP2 DUP1 DUP1 SWAP3 PUSH2 0x14C6 SWAP7 SWAP6 SWAP5 PUSH2 0x14CC SWAP9 DUP12 SWAP5 PUSH2 0x14F5 JUMPI JUMPDEST POP POP SHL SWAP2 PUSH1 0x0 NOT SWAP1 PUSH1 0x3 SHL SHR NOT AND OR SWAP1 SSTORE PUSH2 0x27DC JUMP JUMPDEST SWAP2 PUSH2 0x27DC JUMP JUMPDEST SWAP1 CALLER PUSH32 0x8FB63D21CD1646C22E90408D0771D27886ED526A60064418E44B4E4A35BF6A07 DUP5 DUP1 LOG4 DUP1 RETURN JUMPDEST ADD MLOAD SWAP3 POP CODESIZE DUP1 PUSH2 0x14B0 JUMP JUMPDEST SWAP2 SWAP4 SWAP5 SWAP6 PUSH1 0x1F NOT DUP5 AND DUP7 DUP11 MSTORE DUP4 DUP11 KECCAK256 SWAP4 DUP11 SWAP1 JUMPDEST DUP3 DUP3 LT PUSH2 0x1557 JUMPI POP POP SWAP2 PUSH2 0x14CC SWAP8 SWAP6 SWAP4 SWAP2 DUP6 PUSH2 0x14C6 SWAP9 SWAP7 SWAP5 LT PUSH2 0x153E JUMPI JUMPDEST POP POP POP DUP2 SHL ADD SWAP1 SSTORE PUSH2 0x27DC JUMP JUMPDEST ADD MLOAD PUSH1 0x0 NOT PUSH1 0xF8 DUP5 PUSH1 0x3 SHL AND SHR NOT AND SWAP1 SSTORE CODESIZE DUP1 DUP1 PUSH2 0x1531 JUMP JUMPDEST DUP1 DUP9 DUP7 SWAP8 DUP3 SWAP5 SWAP8 DUP8 ADD MLOAD DUP2 SSTORE ADD SWAP7 ADD SWAP5 ADD SWAP1 PUSH2 0x1513 JUMP JUMPDEST PUSH2 0x1595 SWAP1 DUP7 DUP12 MSTORE DUP3 DUP12 KECCAK256 DUP5 DUP1 DUP9 ADD PUSH1 0x5 SHR DUP3 ADD SWAP3 DUP6 DUP10 LT PUSH2 0x159B JUMPI JUMPDEST ADD PUSH1 0x5 SHR ADD SWAP1 PUSH2 0x1AF5 JUMP JUMPDEST CODESIZE PUSH2 0x148E JUMP JUMPDEST SWAP3 POP DUP2 SWAP3 PUSH2 0x158A JUMP JUMPDEST PUSH4 0x4E487B71 PUSH1 0xE0 SHL DUP10 MSTORE PUSH1 0x41 PUSH1 0x4 MSTORE PUSH1 0x24 DUP10 REVERT JUMPDEST ADD MLOAD SWAP1 POP CODESIZE DUP1 PUSH2 0x1456 JUMP JUMPDEST DUP6 DUP13 MSTORE DUP10 DUP13 KECCAK256 SWAP3 POP PUSH1 0x1F NOT DUP5 AND DUP13 JUMPDEST DUP12 DUP3 DUP3 LT PUSH2 0x1610 JUMPI POP POP SWAP1 DUP5 PUSH1 0x1 SWAP6 SWAP5 SWAP4 SWAP3 LT PUSH2 0x15F7 JUMPI JUMPDEST POP POP POP DUP2 SHL ADD DUP3 SSTORE PUSH2 0x146B JUMP JUMPDEST ADD MLOAD PUSH1 0x0 NOT PUSH1 0xF8 DUP5 PUSH1 0x3 SHL AND SHR NOT AND SWAP1 SSTORE CODESIZE DUP1 DUP1 PUSH2 0x15EA JUMP JUMPDEST PUSH1 0x1 DUP6 SWAP7 DUP3 SWAP4 SWAP7 DUP7 ADD MLOAD DUP2 SSTORE ADD SWAP6 ADD SWAP4 ADD PUSH2 0x15D2 JUMP JUMPDEST PUSH2 0x164C SWAP1 DUP7 DUP14 MSTORE DUP11 DUP14 KECCAK256 DUP7 DUP1 DUP7 ADD PUSH1 0x5 SHR DUP3 ADD SWAP3 DUP14 DUP8 LT PUSH2 0x159B JUMPI ADD PUSH1 0x5 SHR ADD SWAP1 PUSH2 0x1AF5 JUMP JUMPDEST CODESIZE PUSH2 0x1442 JUMP JUMPDEST DUP4 DUP1 REVERT JUMPDEST PUSH1 0x40 DUP2 ADD SWAP1 DUP2 LT PUSH1 0x1 PUSH1 0x1 PUSH1 0x40 SHL SUB DUP3 GT OR PUSH2 0x1671 JUMPI PUSH1 0x40 MSTORE JUMP JUMPDEST PUSH4 0x4E487B71 PUSH1 0xE0 SHL PUSH1 0x0 MSTORE PUSH1 0x41 PUSH1 0x4 MSTORE PUSH1 0x24 PUSH1 0x0 REVERT JUMPDEST PUSH2 0x1C0 DUP2 ADD SWAP1 DUP2 LT PUSH1 0x1 PUSH1 0x1 PUSH1 0x40 SHL SUB DUP3 GT OR PUSH2 0x1671 JUMPI PUSH1 0x40 MSTORE JUMP JUMPDEST PUSH1 0xA0 DUP2 ADD SWAP1 DUP2 LT PUSH1 0x1 PUSH1 0x1 PUSH1 0x40 SHL SUB DUP3 GT OR PUSH2 0x1671 JUMPI PUSH1 0x40 MSTORE JUMP JUMPDEST PUSH1 0x60 DUP2 ADD SWAP1 DUP2 LT PUSH1 0x1 PUSH1 0x1 PUSH1 0x40 SHL SUB DUP3 GT OR PUSH2 0x1671 JUMPI PUSH1 0x40 MSTORE JUMP JUMPDEST PUSH1 0x20 DUP2 ADD SWAP1 DUP2 LT PUSH1 0x1 PUSH1 0x1 PUSH1 0x40 SHL SUB DUP3 GT OR PUSH2 0x1671 JUMPI PUSH1 0x40 MSTORE JUMP JUMPDEST SWAP1 PUSH1 0x1F DUP1 NOT SWAP2 ADD AND DUP2 ADD SWAP1 DUP2 LT PUSH1 0x1 PUSH1 0x1 PUSH1 0x40 SHL SUB DUP3 GT OR PUSH2 0x1671 JUMPI PUSH1 0x40 MSTORE JUMP JUMPDEST PUSH1 0x1 PUSH1 0x1 PUSH1 0x40 SHL SUB DUP2 GT PUSH2 0x1671 JUMPI PUSH1 0x1F ADD PUSH1 0x1F NOT AND PUSH1 0x20 ADD SWAP1 JUMP JUMPDEST DUP2 PUSH1 0x1F DUP3 ADD SLT ISZERO PUSH2 0x1777 JUMPI DUP1 CALLDATALOAD SWAP1 PUSH2 0x1747 DUP3 PUSH2 0x1715 JUMP JUMPDEST SWAP3 PUSH2 0x1755 PUSH1 0x40 MLOAD SWAP5 DUP6 PUSH2 0x16F4 JUMP JUMPDEST DUP3 DUP5 MSTORE PUSH1 0x20 DUP4 DUP4 ADD ADD GT PUSH2 0x1777 JUMPI DUP2 PUSH1 0x0 SWAP3 PUSH1 0x20 DUP1 SWAP4 ADD DUP4 DUP7 ADD CALLDATACOPY DUP4 ADD ADD MSTORE SWAP1 JUMP JUMPDEST PUSH1 0x0 DUP1 REVERT JUMPDEST PUSH1 0x0 JUMPDEST DUP4 DUP2 LT PUSH2 0x178F JUMPI POP POP PUSH1 0x0 SWAP2 ADD MSTORE JUMP JUMPDEST DUP2 DUP2 ADD MLOAD DUP4 DUP3 ADD MSTORE PUSH1 0x20 ADD PUSH2 0x177F JUMP JUMPDEST SWAP1 PUSH1 0x20 SWAP2 PUSH2 0x17B8 DUP2 MLOAD DUP1 SWAP3 DUP2 DUP6 MSTORE DUP6 DUP1 DUP7 ADD SWAP2 ADD PUSH2 0x177C JUMP JUMPDEST PUSH1 0x1F ADD PUSH1 0x1F NOT AND ADD ADD SWAP1 JUMP JUMPDEST SWAP1 DUP2 MLOAD DUP2 MSTORE PUSH1 0x1 DUP1 PUSH1 0xA0 SHL SUB SWAP1 PUSH1 0x20 DUP3 DUP2 DUP6 ADD MLOAD AND DUP2 DUP4 ADD MSTORE PUSH1 0x40 SWAP3 DUP4 DUP6 ADD MLOAD ISZERO ISZERO DUP5 DUP5 ADD MSTORE PUSH1 0x60 PUSH2 0x1803 DUP2 DUP8 ADD MLOAD PUSH2 0x1C0 DUP1 DUP5 DUP9 ADD MSTORE DUP7 ADD SWAP1 PUSH2 0x179F JUMP JUMPDEST SWAP4 PUSH2 0x181A PUSH1 0x80 SWAP6 DUP7 DUP10 ADD MLOAD DUP4 DUP3 SUB DUP9 DUP6 ADD MSTORE PUSH2 0x179F JUMP JUMPDEST PUSH2 0x18A0 PUSH2 0x188C PUSH2 0x1878 PUSH2 0x1864 PUSH2 0x1852 DUP13 PUSH1 0xC0 PUSH2 0x1842 PUSH1 0xA0 SWAP9 DUP10 DUP5 ADD MLOAD DUP12 DUP3 SUB DUP12 DUP14 ADD MSTORE PUSH2 0x179F JUMP JUMPDEST SWAP2 ADD MLOAD DUP9 DUP3 SUB PUSH1 0xC0 DUP11 ADD MSTORE PUSH2 0x179F JUMP JUMPDEST PUSH1 0xE0 DUP14 ADD MLOAD DUP8 DUP3 SUB PUSH1 0xE0 DUP10 ADD MSTORE PUSH2 0x179F JUMP JUMPDEST PUSH2 0x100 DUP1 DUP14 ADD MLOAD SWAP1 DUP8 DUP4 SUB SWAP1 DUP9 ADD MSTORE PUSH2 0x179F JUMP JUMPDEST PUSH2 0x120 DUP1 DUP13 ADD MLOAD SWAP1 DUP7 DUP4 SUB SWAP1 DUP8 ADD MSTORE PUSH2 0x179F JUMP JUMPDEST PUSH2 0x140 DUP1 DUP12 ADD MLOAD SWAP1 DUP6 DUP4 SUB SWAP1 DUP7 ADD MSTORE PUSH2 0x179F JUMP JUMPDEST SWAP6 PUSH2 0x160 DUP1 DUP11 ADD MLOAD SWAP1 DUP5 ADD MSTORE PUSH2 0x180 SWAP7 DUP8 DUP11 ADD MLOAD SWAP8 DUP5 DUP3 SUB SWAP1 DUP6 ADD MSTORE DUP8 MLOAD SWAP2 DUP3 DUP3 MSTORE DUP8 DUP3 ADD SWAP1 DUP9 DUP1 DUP6 PUSH1 0x5 SHL DUP6 ADD ADD SWAP11 ADD SWAP5 PUSH1 0x0 SWAP4 JUMPDEST DUP6 DUP6 LT PUSH2 0x193D JUMPI POP POP POP POP POP POP POP PUSH2 0x1A0 DUP1 SWAP8 ADD MLOAD SWAP7 DUP2 DUP7 SUB SWAP2 ADD MSTORE DUP3 DUP1 DUP8 MLOAD SWAP6 DUP7 DUP2 MSTORE ADD SWAP7 ADD SWAP5 PUSH1 0x0 SWAP3 JUMPDEST DUP6 DUP5 LT PUSH2 0x1913 JUMPI POP POP POP POP POP POP POP SWAP1 JUMP JUMPDEST DUP7 MLOAD DUP1 MLOAD DUP3 AND DUP10 MSTORE DUP1 DUP7 ADD MLOAD DUP10 DUP8 ADD MSTORE DUP3 ADD MLOAD DUP9 DUP4 ADD MSTORE SWAP7 DUP3 ADD SWAP7 SWAP6 DUP5 ADD SWAP6 PUSH1 0x1 SWAP1 SWAP4 ADD SWAP3 PUSH2 0x1902 JUMP JUMPDEST SWAP1 SWAP2 SWAP3 SWAP4 SWAP5 SWAP6 SWAP12 SWAP8 SWAP9 SWAP10 SWAP11 DUP12 DUP1 PUSH2 0x199F DUP16 PUSH1 0x1 SWAP5 DUP16 DUP16 SWAP3 SWAP1 DUP16 PUSH2 0x1987 SWAP1 DUP13 SWAP4 DUP15 PUSH1 0x1F NOT DUP14 DUP9 SUB ADD SWAP1 MSTORE MLOAD SWAP3 DUP4 MLOAD AND DUP6 MSTORE DUP8 DUP4 ADD MLOAD DUP9 DUP7 ADD MSTORE DUP12 DUP2 DUP5 ADD MLOAD SWAP2 DUP7 ADD MSTORE DUP12 DUP6 ADD SWAP1 PUSH2 0x179F JUMP JUMPDEST SWAP4 DUP1 DUP3 ADD MLOAD SWAP1 DUP5 ADD MSTORE ADD MLOAD SWAP1 DUP10 DUP2 DUP5 SUB SWAP2 ADD MSTORE PUSH2 0x179F JUMP JUMPDEST SWAP15 ADD SWAP6 ADD SWAP6 ADD SWAP4 SWAP6 SWAP5 SWAP3 SWAP2 SWAP1 SWAP12 SWAP11 SWAP10 SWAP9 SWAP8 SWAP12 PUSH2 0x18D6 JUMP JUMPDEST PUSH1 0x20 DUP1 DUP3 ADD SWAP1 DUP1 DUP4 MSTORE DUP4 MLOAD DUP1 SWAP3 MSTORE PUSH1 0x40 DUP4 ADD SWAP3 DUP2 PUSH1 0x40 DUP5 PUSH1 0x5 SHL DUP4 ADD ADD SWAP6 ADD SWAP4 PUSH1 0x0 SWAP2 JUMPDEST DUP5 DUP4 LT PUSH2 0x19EA JUMPI POP POP POP POP POP POP SWAP1 JUMP JUMPDEST SWAP1 SWAP2 SWAP3 SWAP4 SWAP5 SWAP6 DUP5 DUP1 PUSH2 0x1A08 PUSH1 0x1 SWAP4 PUSH1 0x3F NOT DUP7 DUP3 SUB ADD DUP8 MSTORE DUP11 MLOAD PUSH2 0x17C4 JUMP JUMPDEST SWAP9 ADD SWAP4 ADD SWAP4 ADD SWAP2 SWAP5 SWAP4 SWAP3 SWAP1 PUSH2 0x19DA JUMP JUMPDEST PUSH1 0x4 CALLDATALOAD SWAP1 PUSH1 0x1 PUSH1 0x1 PUSH1 0xA0 SHL SUB DUP3 AND DUP3 SUB PUSH2 0x1777 JUMPI JUMP JUMPDEST PUSH1 0x24 CALLDATALOAD SWAP1 PUSH1 0x1 PUSH1 0x1 PUSH1 0xA0 SHL SUB DUP3 AND DUP3 SUB PUSH2 0x1777 JUMPI JUMP JUMPDEST PUSH1 0x20 SWAP1 PUSH2 0x1A5E SWAP3 DUP3 PUSH1 0x40 MLOAD SWAP5 DUP4 DUP7 DUP1 SWAP6 MLOAD SWAP4 DUP5 SWAP3 ADD PUSH2 0x177C JUMP JUMPDEST DUP3 ADD SWAP1 DUP2 MSTORE SUB ADD SWAP1 KECCAK256 SWAP1 JUMP JUMPDEST PUSH1 0x6 SLOAD DUP2 LT ISZERO PUSH2 0x1AA5 JUMPI PUSH1 0xD SWAP1 PUSH1 0x6 PUSH1 0x0 MSTORE MUL PUSH32 0xF652222313E28459528D920B65115C16C04F3EFC82AAEDC97BE59F3F377C0D3F ADD SWAP1 PUSH1 0x0 SWAP1 JUMP JUMPDEST PUSH4 0x4E487B71 PUSH1 0xE0 SHL PUSH1 0x0 MSTORE PUSH1 0x32 PUSH1 0x4 MSTORE PUSH1 0x24 PUSH1 0x0 REVERT JUMPDEST SWAP1 PUSH1 0x1 DUP3 DUP2 SHR SWAP3 AND DUP1 ISZERO PUSH2 0x1AEB JUMPI JUMPDEST PUSH1 0x20 DUP4 LT EQ PUSH2 0x1AD5 JUMPI JUMP JUMPDEST PUSH4 0x4E487B71 PUSH1 0xE0 SHL PUSH1 0x0 MSTORE PUSH1 0x22 PUSH1 0x4 MSTORE PUSH1 0x24 PUSH1 0x0 REVERT JUMPDEST SWAP2 PUSH1 0x7F AND SWAP2 PUSH2 0x1ACA JUMP JUMPDEST DUP2 DUP2 LT PUSH2 0x1B00 JUMPI POP POP JUMP JUMPDEST PUSH1 0x0 DUP2 SSTORE PUSH1 0x1 ADD PUSH2 0x1AF5 JUMP JUMPDEST PUSH2 0x1B16 DUP2 SLOAD PUSH2 0x1ABB JUMP JUMPDEST SWAP1 DUP2 PUSH2 0x1B20 JUMPI POP POP JUMP JUMPDEST DUP2 PUSH1 0x1F PUSH1 0x0 SWAP4 GT PUSH1 0x1 EQ PUSH2 0x1B33 JUMPI POP SSTORE JUMPDEST JUMP JUMPDEST SWAP1 DUP1 DUP4 SWAP2 DUP3 MSTORE PUSH2 0x1B52 PUSH1 0x1F PUSH1 0x20 DUP5 KECCAK256 SWAP5 ADD PUSH1 0x5 SHR DUP5 ADD PUSH1 0x1 DUP6 ADD PUSH2 0x1AF5 JUMP JUMPDEST SSTORE SSTORE JUMP JUMPDEST PUSH1 0x1 DUP1 PUSH1 0xA0 SHL SUB DUP3 MLOAD AND PUSH12 0xFFFFFFFFFFFFFFFFFFFFFFFF PUSH1 0xA0 SHL DUP3 SLOAD AND OR DUP2 SSTORE PUSH1 0x20 DUP1 DUP4 ADD MLOAD SWAP2 PUSH1 0x1 SWAP3 DUP4 DUP3 ADD SSTORE PUSH1 0x2 DUP2 ADD SWAP2 PUSH1 0x40 DUP6 ADD MLOAD SWAP2 DUP3 MLOAD SWAP4 PUSH1 0x1 PUSH1 0x1 PUSH1 0x40 SHL SUB SWAP5 DUP6 DUP2 GT PUSH2 0x1671 JUMPI PUSH2 0x1BAC DUP3 SLOAD PUSH2 0x1ABB JUMP JUMPDEST SWAP5 PUSH1 0x1F SWAP6 DUP7 DUP2 GT PUSH2 0x1D58 JUMPI JUMPDEST POP DUP5 SWAP1 DUP7 DUP4 GT PUSH1 0x1 EQ PUSH2 0x1CEA JUMPI SWAP2 DUP1 PUSH1 0x4 SWAP5 SWAP3 PUSH1 0x80 SWAP7 SWAP5 PUSH1 0x0 SWAP3 PUSH2 0x1CDF JUMPI JUMPDEST POP POP PUSH1 0x0 NOT PUSH1 0x3 DUP4 SWAP1 SHL SHR NOT AND SWAP1 DUP10 SHL OR SWAP1 SSTORE JUMPDEST PUSH1 0x60 DUP9 ADD MLOAD PUSH1 0x3 DUP3 ADD SSTORE ADD SWAP6 ADD MLOAD SWAP1 DUP2 MLOAD SWAP4 DUP5 GT PUSH2 0x1671 JUMPI PUSH2 0x1C0D DUP7 SLOAD PUSH2 0x1ABB JUMP JUMPDEST DUP4 DUP2 GT PUSH2 0x1CB1 JUMPI JUMPDEST POP DUP1 SWAP3 DUP5 GT PUSH1 0x1 EQ PUSH2 0x1C4E JUMPI POP SWAP3 DUP3 SWAP4 SWAP2 DUP4 SWAP3 PUSH1 0x0 SWAP5 PUSH2 0x1C43 JUMPI JUMPDEST POP POP SHL SWAP2 PUSH1 0x0 NOT SWAP1 PUSH1 0x3 SHL SHR NOT AND OR SWAP1 SSTORE JUMP JUMPDEST ADD MLOAD SWAP3 POP CODESIZE DUP1 PUSH2 0x1C30 JUMP JUMPDEST SWAP2 SWAP1 DUP4 PUSH1 0x1F NOT DUP2 AND DUP8 PUSH1 0x0 MSTORE DUP5 PUSH1 0x0 KECCAK256 SWAP5 PUSH1 0x0 SWAP1 JUMPDEST DUP9 DUP4 DUP4 LT PUSH2 0x1C97 JUMPI POP POP POP LT PUSH2 0x1C7E JUMPI JUMPDEST POP POP POP DUP2 SHL ADD SWAP1 SSTORE JUMP JUMPDEST ADD MLOAD PUSH1 0x0 NOT PUSH1 0xF8 DUP5 PUSH1 0x3 SHL AND SHR NOT AND SWAP1 SSTORE CODESIZE DUP1 DUP1 PUSH2 0x1C74 JUMP JUMPDEST DUP6 DUP8 ADD MLOAD DUP9 SSTORE SWAP1 SWAP7 ADD SWAP6 SWAP5 DUP6 ADD SWAP5 DUP8 SWAP4 POP SWAP1 DUP2 ADD SWAP1 PUSH2 0x1C63 JUMP JUMPDEST PUSH2 0x1CD9 SWAP1 DUP8 PUSH1 0x0 MSTORE DUP3 PUSH1 0x0 KECCAK256 DUP6 DUP1 DUP9 ADD PUSH1 0x5 SHR DUP3 ADD SWAP3 DUP6 DUP10 LT PUSH2 0x159B JUMPI ADD PUSH1 0x5 SHR ADD SWAP1 PUSH2 0x1AF5 JUMP JUMPDEST CODESIZE PUSH2 0x1C15 JUMP JUMPDEST ADD MLOAD SWAP1 POP CODESIZE DUP1 PUSH2 0x1BD7 JUMP JUMPDEST DUP9 SWAP3 SWAP2 PUSH1 0x1F NOT DUP4 AND SWAP2 DUP6 PUSH1 0x0 MSTORE DUP8 PUSH1 0x0 KECCAK256 SWAP3 PUSH1 0x0 JUMPDEST DUP10 DUP3 DUP3 LT PUSH2 0x1D42 JUMPI POP POP SWAP2 PUSH1 0x80 SWAP8 SWAP6 SWAP4 SWAP2 DUP6 PUSH1 0x4 SWAP9 SWAP7 SWAP5 LT PUSH2 0x1D29 JUMPI JUMPDEST POP POP POP DUP2 SHL ADD SWAP1 SSTORE PUSH2 0x1BEB JUMP JUMPDEST ADD MLOAD PUSH1 0x0 NOT PUSH1 0xF8 DUP5 PUSH1 0x3 SHL AND SHR NOT AND SWAP1 SSTORE CODESIZE DUP1 DUP1 PUSH2 0x1D1C JUMP JUMPDEST DUP4 DUP6 ADD MLOAD DUP7 SSTORE DUP14 SWAP8 SWAP1 SWAP6 ADD SWAP5 SWAP4 DUP5 ADD SWAP4 ADD PUSH2 0x1CFF JUMP JUMPDEST PUSH2 0x1D80 SWAP1 DUP5 PUSH1 0x0 MSTORE DUP7 PUSH1 0x0 KECCAK256 DUP9 DUP1 DUP7 ADD PUSH1 0x5 SHR DUP3 ADD SWAP3 DUP10 DUP8 LT PUSH2 0x159B JUMPI ADD PUSH1 0x5 SHR ADD SWAP1 PUSH2 0x1AF5 JUMP JUMPDEST CODESIZE PUSH2 0x1BB8 JUMP JUMPDEST SWAP2 SWAP1 PUSH2 0x27C6 JUMPI DUP1 MLOAD DUP3 SSTORE PUSH1 0x20 DUP2 ADD MLOAD PUSH1 0x1 DUP4 ADD DUP1 SLOAD PUSH1 0x40 DUP5 ADD MLOAD PUSH1 0xFF PUSH1 0xA0 SHL SWAP1 ISZERO ISZERO PUSH1 0xA0 SHL AND PUSH1 0x1 PUSH1 0x1 PUSH1 0xA0 SHL SUB SWAP1 SWAP4 AND PUSH1 0x1 PUSH1 0x1 PUSH1 0xA8 SHL SUB NOT SWAP1 SWAP2 AND OR SWAP2 SWAP1 SWAP2 OR SWAP1 SSTORE PUSH1 0x2 DUP3 ADD PUSH1 0x60 DUP3 ADD MLOAD DUP1 MLOAD SWAP1 PUSH1 0x1 PUSH1 0x1 PUSH1 0x40 SHL SUB DUP3 GT PUSH2 0x1671 JUMPI DUP2 SWAP1 PUSH2 0x1DF0 DUP5 SLOAD PUSH2 0x1ABB JUMP JUMPDEST PUSH1 0x1F DUP2 GT PUSH2 0x2794 JUMPI JUMPDEST POP PUSH1 0x20 SWAP1 PUSH1 0x1F DUP4 GT PUSH1 0x1 EQ PUSH2 0x272E JUMPI PUSH1 0x0 SWAP3 PUSH2 0x2723 JUMPI JUMPDEST POP POP DUP2 PUSH1 0x1 SHL SWAP2 PUSH1 0x0 NOT SWAP1 PUSH1 0x3 SHL SHR NOT AND OR SWAP1 SSTORE JUMPDEST PUSH1 0x3 DUP3 ADD PUSH1 0x80 DUP3 ADD MLOAD DUP1 MLOAD SWAP1 PUSH1 0x1 PUSH1 0x1 PUSH1 0x40 SHL SUB DUP3 GT PUSH2 0x1671 JUMPI DUP2 SWAP1 PUSH2 0x1E4B DUP5 SLOAD PUSH2 0x1ABB JUMP JUMPDEST PUSH1 0x1F DUP2 GT PUSH2 0x26F1 JUMPI JUMPDEST POP PUSH1 0x20 SWAP1 PUSH1 0x1F DUP4 GT PUSH1 0x1 EQ PUSH2 0x268B JUMPI PUSH1 0x0 SWAP3 PUSH2 0x2680 JUMPI JUMPDEST POP POP DUP2 PUSH1 0x1 SHL SWAP2 PUSH1 0x0 NOT SWAP1 PUSH1 0x3 SHL SHR NOT AND OR SWAP1 SSTORE JUMPDEST PUSH1 0x4 DUP3 ADD PUSH1 0xA0 DUP3 ADD MLOAD DUP1 MLOAD SWAP1 PUSH1 0x1 PUSH1 0x1 PUSH1 0x40 SHL SUB DUP3 GT PUSH2 0x1671 JUMPI DUP2 SWAP1 PUSH2 0x1EA6 DUP5 SLOAD PUSH2 0x1ABB JUMP JUMPDEST PUSH1 0x1F DUP2 GT PUSH2 0x264E JUMPI JUMPDEST POP PUSH1 0x20 SWAP1 PUSH1 0x1F DUP4 GT PUSH1 0x1 EQ PUSH2 0x25E8 JUMPI PUSH1 0x0 SWAP3 PUSH2 0x25DD JUMPI JUMPDEST POP POP DUP2 PUSH1 0x1 SHL SWAP2 PUSH1 0x0 NOT SWAP1 PUSH1 0x3 SHL SHR NOT AND OR SWAP1 SSTORE JUMPDEST PUSH1 0x5 DUP3 ADD PUSH1 0xC0 DUP3 ADD MLOAD DUP1 MLOAD SWAP1 PUSH1 0x1 PUSH1 0x1 PUSH1 0x40 SHL SUB DUP3 GT PUSH2 0x1671 JUMPI DUP2 SWAP1 PUSH2 0x1F01 DUP5 SLOAD PUSH2 0x1ABB JUMP JUMPDEST PUSH1 0x1F DUP2 GT PUSH2 0x25AB JUMPI JUMPDEST POP PUSH1 0x20 SWAP1 PUSH1 0x1F DUP4 GT PUSH1 0x1 EQ PUSH2 0x2545 JUMPI PUSH1 0x0 SWAP3 PUSH2 0x253A JUMPI JUMPDEST POP POP DUP2 PUSH1 0x1 SHL SWAP2 PUSH1 0x0 NOT SWAP1 PUSH1 0x3 SHL SHR NOT AND OR SWAP1 SSTORE JUMPDEST PUSH1 0xE0 DUP2 ADD MLOAD SWAP3 DUP4 MLOAD PUSH1 0x1 PUSH1 0x1 PUSH1 0x40 SHL SUB DUP2 GT PUSH2 0x1671 JUMPI PUSH2 0x1F59 PUSH1 0x6 DUP6 ADD SLOAD PUSH2 0x1ABB JUMP JUMPDEST PUSH1 0x1F DUP2 GT PUSH2 0x2505 JUMPI JUMPDEST POP PUSH1 0x20 SWAP5 PUSH1 0x1F DUP3 GT PUSH1 0x1 EQ PUSH2 0x2499 JUMPI SWAP5 DUP2 SWAP3 SWAP4 SWAP5 SWAP6 PUSH1 0x0 SWAP3 PUSH2 0x248E JUMPI JUMPDEST POP POP DUP2 PUSH1 0x1 SHL SWAP2 PUSH1 0x0 NOT SWAP1 PUSH1 0x3 SHL SHR NOT AND OR PUSH1 0x6 DUP5 ADD SSTORE JUMPDEST PUSH2 0x100 DUP3 ADD MLOAD SWAP3 DUP4 MLOAD PUSH1 0x1 PUSH1 0x1 PUSH1 0x40 SHL SUB DUP2 GT PUSH2 0x1671 JUMPI PUSH2 0x1FBB PUSH1 0x7 DUP4 ADD SLOAD PUSH2 0x1ABB JUMP JUMPDEST PUSH1 0x1F DUP2 GT PUSH2 0x2459 JUMPI JUMPDEST POP PUSH1 0x20 PUSH1 0x1F DUP3 GT PUSH1 0x1 EQ PUSH2 0x23EA JUMPI DUP2 SWAP3 SWAP4 SWAP5 SWAP6 PUSH1 0x0 SWAP3 PUSH2 0x23DF JUMPI JUMPDEST POP POP DUP2 PUSH1 0x1 SHL SWAP2 PUSH1 0x0 NOT SWAP1 PUSH1 0x3 SHL SHR NOT AND OR PUSH1 0x7 DUP3 ADD SSTORE JUMPDEST PUSH2 0x120 DUP4 ADD MLOAD SWAP3 DUP4 MLOAD PUSH1 0x1 PUSH1 0x1 PUSH1 0x40 SHL SUB DUP2 GT PUSH2 0x1671 JUMPI PUSH2 0x201B PUSH1 0x8 DUP5 ADD SLOAD PUSH2 0x1ABB JUMP JUMPDEST PUSH1 0x1F DUP2 GT PUSH2 0x23AA JUMPI JUMPDEST POP PUSH1 0x20 PUSH1 0x1F DUP3 GT PUSH1 0x1 EQ PUSH2 0x233B JUMPI DUP2 SWAP3 SWAP4 SWAP5 SWAP6 PUSH1 0x0 SWAP3 PUSH2 0x2330 JUMPI JUMPDEST POP POP DUP2 PUSH1 0x1 SHL SWAP2 PUSH1 0x0 NOT SWAP1 PUSH1 0x3 SHL SHR NOT AND OR PUSH1 0x8 DUP4 ADD SSTORE JUMPDEST PUSH1 0x9 DUP3 ADD PUSH2 0x140 DUP3 ADD MLOAD DUP1 MLOAD SWAP1 PUSH1 0x1 PUSH1 0x1 PUSH1 0x40 SHL SUB DUP3 GT PUSH2 0x1671 JUMPI DUP2 SWAP1 PUSH2 0x207E DUP5 SLOAD PUSH2 0x1ABB JUMP JUMPDEST PUSH1 0x1F DUP2 GT PUSH2 0x22F3 JUMPI JUMPDEST POP PUSH1 0x20 SWAP1 PUSH1 0x1F DUP4 GT PUSH1 0x1 EQ PUSH2 0x228D JUMPI PUSH1 0x0 SWAP3 PUSH2 0x2282 JUMPI JUMPDEST POP POP DUP2 PUSH1 0x1 SHL SWAP2 PUSH1 0x0 NOT SWAP1 PUSH1 0x3 SHL SHR NOT AND OR SWAP1 SSTORE JUMPDEST PUSH2 0x160 DUP2 ADD MLOAD PUSH1 0xA DUP4 ADD SSTORE PUSH2 0x180 DUP2 ADD MLOAD DUP1 MLOAD PUSH1 0x1 PUSH1 0x40 SHL SWAP4 SWAP2 PUSH1 0xB DUP4 ADD SWAP1 DUP6 DUP4 GT PUSH2 0x1671 JUMPI DUP2 SLOAD DUP4 DUP4 SSTORE DUP1 DUP5 LT PUSH2 0x2217 JUMPI JUMPDEST POP PUSH1 0x20 ADD SWAP1 PUSH1 0x0 MSTORE PUSH1 0x20 PUSH1 0x0 KECCAK256 PUSH1 0x0 SWAP2 JUMPDEST DUP4 DUP4 LT PUSH2 0x21F9 JUMPI POP POP POP POP PUSH1 0xC PUSH2 0x1A0 SWAP2 ADD SWAP2 ADD MLOAD DUP1 MLOAD SWAP3 DUP4 GT PUSH2 0x1671 JUMPI DUP2 SLOAD DUP4 DUP4 SSTORE DUP1 DUP5 LT PUSH2 0x2190 JUMPI JUMPDEST POP PUSH1 0x20 ADD SWAP1 PUSH1 0x0 MSTORE PUSH1 0x20 PUSH1 0x0 KECCAK256 PUSH1 0x0 SWAP2 JUMPDEST DUP4 DUP4 LT PUSH2 0x2140 JUMPI POP POP POP POP JUMP JUMPDEST PUSH1 0x3 PUSH1 0x20 DUP3 PUSH2 0x2184 PUSH1 0x1 SWAP5 MLOAD DUP7 SWAP1 PUSH1 0x40 PUSH1 0x2 SWAP2 PUSH1 0x1 DUP1 PUSH1 0xA0 SHL SUB DUP2 MLOAD AND PUSH12 0xFFFFFFFFFFFFFFFFFFFFFFFF PUSH1 0xA0 SHL DUP6 SLOAD AND OR DUP5 SSTORE PUSH1 0x20 DUP2 ADD MLOAD PUSH1 0x1 DUP6 ADD SSTORE ADD MLOAD SWAP2 ADD SSTORE JUMP JUMPDEST ADD SWAP3 ADD SWAP3 ADD SWAP2 SWAP1 PUSH2 0x2133 JUMP JUMPDEST DUP1 PUSH1 0x3 MUL SWAP1 PUSH1 0x3 DUP3 DIV SUB PUSH2 0x21E3 JUMPI DUP4 PUSH1 0x3 MUL PUSH1 0x3 DUP2 DIV DUP6 SUB PUSH2 0x21E3 JUMPI DUP4 PUSH1 0x0 MSTORE PUSH1 0x20 PUSH1 0x0 KECCAK256 SWAP2 DUP3 ADD SWAP2 ADD JUMPDEST DUP2 DUP2 LT PUSH2 0x21C8 JUMPI POP PUSH2 0x2122 JUMP JUMPDEST DUP1 PUSH1 0x0 PUSH1 0x3 SWAP3 SSTORE PUSH1 0x0 PUSH1 0x1 DUP3 ADD SSTORE PUSH1 0x0 PUSH1 0x2 DUP3 ADD SSTORE ADD PUSH2 0x21BB JUMP JUMPDEST PUSH4 0x4E487B71 PUSH1 0xE0 SHL PUSH1 0x0 MSTORE PUSH1 0x11 PUSH1 0x4 MSTORE PUSH1 0x24 PUSH1 0x0 REVERT JUMPDEST PUSH1 0x5 PUSH1 0x20 DUP3 PUSH2 0x220B PUSH1 0x1 SWAP5 MLOAD DUP7 PUSH2 0x1B56 JUMP JUMPDEST ADD SWAP3 ADD SWAP3 ADD SWAP2 SWAP1 PUSH2 0x20F7 JUMP JUMPDEST DUP1 PUSH1 0x5 MUL SWAP1 PUSH1 0x5 DUP3 DIV SUB PUSH2 0x21E3 JUMPI DUP4 PUSH1 0x5 MUL PUSH1 0x5 DUP2 DIV DUP6 SUB PUSH2 0x21E3 JUMPI DUP4 PUSH1 0x0 MSTORE PUSH1 0x20 PUSH1 0x0 KECCAK256 SWAP2 DUP3 ADD SWAP2 ADD JUMPDEST DUP2 DUP2 LT PUSH2 0x224F JUMPI POP PUSH2 0x20E6 JUMP JUMPDEST DUP1 PUSH1 0x0 PUSH1 0x5 SWAP3 SSTORE PUSH1 0x0 PUSH1 0x1 DUP3 ADD SSTORE PUSH2 0x2269 PUSH1 0x2 DUP3 ADD PUSH2 0x1B0C JUMP JUMPDEST PUSH1 0x0 PUSH1 0x3 DUP3 ADD SSTORE PUSH2 0x227C PUSH1 0x4 DUP3 ADD PUSH2 0x1B0C JUMP JUMPDEST ADD PUSH2 0x2242 JUMP JUMPDEST ADD MLOAD SWAP1 POP CODESIZE DUP1 PUSH2 0x209E JUMP JUMPDEST PUSH1 0x0 DUP6 DUP2 MSTORE PUSH1 0x20 DUP2 KECCAK256 SWAP4 POP PUSH1 0x1F NOT DUP6 AND SWAP1 JUMPDEST DUP2 DUP2 LT PUSH2 0x22DB JUMPI POP SWAP1 DUP5 PUSH1 0x1 SWAP6 SWAP5 SWAP4 SWAP3 LT PUSH2 0x22C2 JUMPI JUMPDEST POP POP POP DUP2 SHL ADD SWAP1 SSTORE PUSH2 0x20B3 JUMP JUMPDEST ADD MLOAD PUSH1 0x0 NOT PUSH1 0xF8 DUP5 PUSH1 0x3 SHL AND SHR NOT AND SWAP1 SSTORE CODESIZE DUP1 DUP1 PUSH2 0x22B5 JUMP JUMPDEST SWAP3 SWAP4 PUSH1 0x20 PUSH1 0x1 DUP2 SWAP3 DUP8 DUP7 ADD MLOAD DUP2 SSTORE ADD SWAP6 ADD SWAP4 ADD PUSH2 0x229F JUMP JUMPDEST PUSH2 0x2320 SWAP1 DUP6 PUSH1 0x0 MSTORE PUSH1 0x20 PUSH1 0x0 KECCAK256 PUSH1 0x1F DUP6 ADD PUSH1 0x5 SHR DUP2 ADD SWAP2 PUSH1 0x20 DUP7 LT PUSH2 0x2326 JUMPI JUMPDEST PUSH1 0x1F ADD PUSH1 0x5 SHR ADD SWAP1 PUSH2 0x1AF5 JUMP JUMPDEST CODESIZE PUSH2 0x2087 JUMP JUMPDEST SWAP1 SWAP2 POP DUP2 SWAP1 PUSH2 0x2313 JUMP JUMPDEST ADD MLOAD SWAP1 POP CODESIZE DUP1 PUSH2 0x203F JUMP JUMPDEST PUSH1 0x8 DUP5 ADD PUSH1 0x0 MSTORE PUSH1 0x20 PUSH1 0x0 KECCAK256 SWAP1 PUSH1 0x0 JUMPDEST PUSH1 0x1F NOT DUP5 AND DUP2 LT PUSH2 0x2392 JUMPI POP PUSH1 0x1 SWAP4 SWAP5 SWAP6 SWAP7 DUP4 PUSH1 0x1F NOT DUP2 AND LT PUSH2 0x2379 JUMPI JUMPDEST POP POP POP DUP2 SHL ADD PUSH1 0x8 DUP4 ADD SSTORE PUSH2 0x2057 JUMP JUMPDEST ADD MLOAD PUSH1 0x0 NOT PUSH1 0xF8 DUP5 PUSH1 0x3 SHL AND SHR NOT AND SWAP1 SSTORE CODESIZE DUP1 DUP1 PUSH2 0x2369 JUMP JUMPDEST SWAP1 SWAP2 PUSH1 0x20 PUSH1 0x1 DUP2 SWAP3 DUP6 DUP12 ADD MLOAD DUP2 SSTORE ADD SWAP4 ADD SWAP2 ADD PUSH2 0x234B JUMP JUMPDEST PUSH2 0x23D9 SWAP1 PUSH1 0x8 DUP6 ADD PUSH1 0x0 MSTORE PUSH1 0x20 PUSH1 0x0 KECCAK256 PUSH1 0x1F DUP5 ADD PUSH1 0x5 SHR DUP2 ADD SWAP2 PUSH1 0x20 DUP6 LT PUSH2 0x2326 JUMPI PUSH1 0x1F ADD PUSH1 0x5 SHR ADD SWAP1 PUSH2 0x1AF5 JUMP JUMPDEST CODESIZE PUSH2 0x2024 JUMP JUMPDEST ADD MLOAD SWAP1 POP CODESIZE DUP1 PUSH2 0x1FDF JUMP JUMPDEST PUSH1 0x7 DUP4 ADD PUSH1 0x0 MSTORE PUSH1 0x20 PUSH1 0x0 KECCAK256 SWAP1 PUSH1 0x0 JUMPDEST PUSH1 0x1F NOT DUP5 AND DUP2 LT PUSH2 0x2441 JUMPI POP PUSH1 0x1 SWAP4 SWAP5 SWAP6 SWAP7 DUP4 PUSH1 0x1F NOT DUP2 AND LT PUSH2 0x2428 JUMPI JUMPDEST POP POP POP DUP2 SHL ADD PUSH1 0x7 DUP3 ADD SSTORE PUSH2 0x1FF7 JUMP JUMPDEST ADD MLOAD PUSH1 0x0 NOT PUSH1 0xF8 DUP5 PUSH1 0x3 SHL AND SHR NOT AND SWAP1 SSTORE CODESIZE DUP1 DUP1 PUSH2 0x2418 JUMP JUMPDEST SWAP1 SWAP2 PUSH1 0x20 PUSH1 0x1 DUP2 SWAP3 DUP6 DUP12 ADD MLOAD DUP2 SSTORE ADD SWAP4 ADD SWAP2 ADD PUSH2 0x23FA JUMP JUMPDEST PUSH2 0x2488 SWAP1 PUSH1 0x7 DUP5 ADD PUSH1 0x0 MSTORE PUSH1 0x20 PUSH1 0x0 KECCAK256 PUSH1 0x1F DUP5 ADD PUSH1 0x5 SHR DUP2 ADD SWAP2 PUSH1 0x20 DUP6 LT PUSH2 0x2326 JUMPI PUSH1 0x1F ADD PUSH1 0x5 SHR ADD SWAP1 PUSH2 0x1AF5 JUMP JUMPDEST CODESIZE PUSH2 0x1FC4 JUMP JUMPDEST ADD MLOAD SWAP1 POP CODESIZE DUP1 PUSH2 0x1F7F JUMP JUMPDEST PUSH1 0x1F NOT DUP3 AND SWAP6 PUSH1 0x6 DUP7 ADD PUSH1 0x0 MSTORE PUSH1 0x20 PUSH1 0x0 KECCAK256 SWAP2 PUSH1 0x0 JUMPDEST DUP9 DUP2 LT PUSH2 0x24ED JUMPI POP DUP4 PUSH1 0x1 SWAP6 SWAP7 SWAP8 SWAP9 LT PUSH2 0x24D4 JUMPI JUMPDEST POP POP POP DUP2 SHL ADD PUSH1 0x6 DUP5 ADD SSTORE PUSH2 0x1F97 JUMP JUMPDEST ADD MLOAD PUSH1 0x0 NOT PUSH1 0xF8 DUP5 PUSH1 0x3 SHL AND SHR NOT AND SWAP1 SSTORE CODESIZE DUP1 DUP1 PUSH2 0x24C4 JUMP JUMPDEST SWAP2 SWAP3 PUSH1 0x20 PUSH1 0x1 DUP2 SWAP3 DUP7 DUP6 ADD MLOAD DUP2 SSTORE ADD SWAP5 ADD SWAP3 ADD PUSH2 0x24AF JUMP JUMPDEST PUSH2 0x2534 SWAP1 PUSH1 0x6 DUP7 ADD PUSH1 0x0 MSTORE PUSH1 0x20 PUSH1 0x0 KECCAK256 PUSH1 0x1F DUP5 ADD PUSH1 0x5 SHR DUP2 ADD SWAP2 PUSH1 0x20 DUP6 LT PUSH2 0x2326 JUMPI PUSH1 0x1F ADD PUSH1 0x5 SHR ADD SWAP1 PUSH2 0x1AF5 JUMP JUMPDEST CODESIZE PUSH2 0x1F62 JUMP JUMPDEST ADD MLOAD SWAP1 POP CODESIZE DUP1 PUSH2 0x1F21 JUMP JUMPDEST PUSH1 0x0 DUP6 DUP2 MSTORE PUSH1 0x20 DUP2 KECCAK256 SWAP4 POP PUSH1 0x1F NOT DUP6 AND SWAP1 JUMPDEST DUP2 DUP2 LT PUSH2 0x2593 JUMPI POP SWAP1 DUP5 PUSH1 0x1 SWAP6 SWAP5 SWAP4 SWAP3 LT PUSH2 0x257A JUMPI JUMPDEST POP POP POP DUP2 SHL ADD SWAP1 SSTORE PUSH2 0x1F36 JUMP JUMPDEST ADD MLOAD PUSH1 0x0 NOT PUSH1 0xF8 DUP5 PUSH1 0x3 SHL AND SHR NOT AND SWAP1 SSTORE CODESIZE DUP1 DUP1 PUSH2 0x256D JUMP JUMPDEST SWAP3 SWAP4 PUSH1 0x20 PUSH1 0x1 DUP2 SWAP3 DUP8 DUP7 ADD MLOAD DUP2 SSTORE ADD SWAP6 ADD SWAP4 ADD PUSH2 0x2557 JUMP JUMPDEST PUSH2 0x25D7 SWAP1 DUP6 PUSH1 0x0 MSTORE PUSH1 0x20 PUSH1 0x0 KECCAK256 PUSH1 0x1F DUP6 ADD PUSH1 0x5 SHR DUP2 ADD SWAP2 PUSH1 0x20 DUP7 LT PUSH2 0x2326 JUMPI PUSH1 0x1F ADD PUSH1 0x5 SHR ADD SWAP1 PUSH2 0x1AF5 JUMP JUMPDEST CODESIZE PUSH2 0x1F0A JUMP JUMPDEST ADD MLOAD SWAP1 POP CODESIZE DUP1 PUSH2 0x1EC6 JUMP JUMPDEST PUSH1 0x0 DUP6 DUP2 MSTORE PUSH1 0x20 DUP2 KECCAK256 SWAP4 POP PUSH1 0x1F NOT DUP6 AND SWAP1 JUMPDEST DUP2 DUP2 LT PUSH2 0x2636 JUMPI POP SWAP1 DUP5 PUSH1 0x1 SWAP6 SWAP5 SWAP4 SWAP3 LT PUSH2 0x261D JUMPI JUMPDEST POP POP POP DUP2 SHL ADD SWAP1 SSTORE PUSH2 0x1EDB JUMP JUMPDEST ADD MLOAD PUSH1 0x0 NOT PUSH1 0xF8 DUP5 PUSH1 0x3 SHL AND SHR NOT AND SWAP1 SSTORE CODESIZE DUP1 DUP1 PUSH2 0x2610 JUMP JUMPDEST SWAP3 SWAP4 PUSH1 0x20 PUSH1 0x1 DUP2 SWAP3 DUP8 DUP7 ADD MLOAD DUP2 SSTORE ADD SWAP6 ADD SWAP4 ADD PUSH2 0x25FA JUMP JUMPDEST PUSH2 0x267A SWAP1 DUP6 PUSH1 0x0 MSTORE PUSH1 0x20 PUSH1 0x0 KECCAK256 PUSH1 0x1F DUP6 ADD PUSH1 0x5 SHR DUP2 ADD SWAP2 PUSH1 0x20 DUP7 LT PUSH2 0x2326 JUMPI PUSH1 0x1F ADD PUSH1 0x5 SHR ADD SWAP1 PUSH2 0x1AF5 JUMP JUMPDEST CODESIZE PUSH2 0x1EAF JUMP JUMPDEST ADD MLOAD SWAP1 POP CODESIZE DUP1 PUSH2 0x1E6B JUMP JUMPDEST PUSH1 0x0 DUP6 DUP2 MSTORE PUSH1 0x20 DUP2 KECCAK256 SWAP4 POP PUSH1 0x1F NOT DUP6 AND SWAP1 JUMPDEST DUP2 DUP2 LT PUSH2 0x26D9 JUMPI POP SWAP1 DUP5 PUSH1 0x1 SWAP6 SWAP5 SWAP4 SWAP3 LT PUSH2 0x26C0 JUMPI JUMPDEST POP POP POP DUP2 SHL ADD SWAP1 SSTORE PUSH2 0x1E80 JUMP JUMPDEST ADD MLOAD PUSH1 0x0 NOT PUSH1 0xF8 DUP5 PUSH1 0x3 SHL AND SHR NOT AND SWAP1 SSTORE CODESIZE DUP1 DUP1 PUSH2 0x26B3 JUMP JUMPDEST SWAP3 SWAP4 PUSH1 0x20 PUSH1 0x1 DUP2 SWAP3 DUP8 DUP7 ADD MLOAD DUP2 SSTORE ADD SWAP6 ADD SWAP4 ADD PUSH2 0x269D JUMP JUMPDEST PUSH2 0x271D SWAP1 DUP6 PUSH1 0x0 MSTORE PUSH1 0x20 PUSH1 0x0 KECCAK256 PUSH1 0x1F DUP6 ADD PUSH1 0x5 SHR DUP2 ADD SWAP2 PUSH1 0x20 DUP7 LT PUSH2 0x2326 JUMPI PUSH1 0x1F ADD PUSH1 0x5 SHR ADD SWAP1 PUSH2 0x1AF5 JUMP JUMPDEST CODESIZE PUSH2 0x1E54 JUMP JUMPDEST ADD MLOAD SWAP1 POP CODESIZE DUP1 PUSH2 0x1E10 JUMP JUMPDEST PUSH1 0x0 DUP6 DUP2 MSTORE PUSH1 0x20 DUP2 KECCAK256 SWAP4 POP PUSH1 0x1F NOT DUP6 AND SWAP1 JUMPDEST DUP2 DUP2 LT PUSH2 0x277C JUMPI POP SWAP1 DUP5 PUSH1 0x1 SWAP6 SWAP5 SWAP4 SWAP3 LT PUSH2 0x2763 JUMPI JUMPDEST POP POP POP DUP2 SHL ADD SWAP1 SSTORE PUSH2 0x1E25 JUMP JUMPDEST ADD MLOAD PUSH1 0x0 NOT PUSH1 0xF8 DUP5 PUSH1 0x3 SHL AND SHR NOT AND SWAP1 SSTORE CODESIZE DUP1 DUP1 PUSH2 0x2756 JUMP JUMPDEST SWAP3 SWAP4 PUSH1 0x20 PUSH1 0x1 DUP2 SWAP3 DUP8 DUP7 ADD MLOAD DUP2 SSTORE ADD SWAP6 ADD SWAP4 ADD PUSH2 0x2740 JUMP JUMPDEST PUSH2 0x27C0 SWAP1 DUP6 PUSH1 0x0 MSTORE PUSH1 0x20 PUSH1 0x0 KECCAK256 PUSH1 0x1F DUP6 ADD PUSH1 0x5 SHR DUP2 ADD SWAP2 PUSH1 0x20 DUP7 LT PUSH2 0x2326 JUMPI PUSH1 0x1F ADD PUSH1 0x5 SHR ADD SWAP1 PUSH2 0x1AF5 JUMP JUMPDEST CODESIZE PUSH2 0x1DF9 JUMP JUMPDEST PUSH4 0x4E487B71 PUSH1 0xE0 SHL PUSH1 0x0 MSTORE PUSH1 0x0 PUSH1 0x4 MSTORE PUSH1 0x24 PUSH1 0x0 REVERT JUMPDEST PUSH2 0x27F4 SWAP1 PUSH1 0x20 PUSH1 0x40 MLOAD SWAP3 DUP3 DUP5 DUP1 SWAP5 MLOAD SWAP4 DUP5 SWAP3 ADD PUSH2 0x177C JUMP JUMPDEST DUP2 ADD SUB SWAP1 KECCAK256 SWAP1 JUMP JUMPDEST PUSH1 0x0 NOT DUP2 EQ PUSH2 0x21E3 JUMPI PUSH1 0x1 ADD SWAP1 JUMP JUMPDEST SWAP1 PUSH1 0x40 MLOAD SWAP2 DUP3 PUSH1 0x0 DUP3 SLOAD SWAP3 PUSH2 0x281F DUP5 PUSH2 0x1ABB JUMP JUMPDEST SWAP1 DUP2 DUP5 MSTORE PUSH1 0x1 SWAP5 DUP6 DUP2 AND SWAP1 DUP2 PUSH1 0x0 EQ PUSH2 0x288C JUMPI POP PUSH1 0x1 EQ PUSH2 0x2849 JUMPI JUMPDEST POP POP PUSH2 0x1B31 SWAP3 POP SUB DUP4 PUSH2 0x16F4 JUMP JUMPDEST SWAP1 SWAP4 SWAP2 POP PUSH1 0x0 MSTORE PUSH1 0x20 SWAP1 DUP2 PUSH1 0x0 KECCAK256 SWAP4 PUSH1 0x0 SWAP2 JUMPDEST DUP2 DUP4 LT PUSH2 0x2874 JUMPI POP POP PUSH2 0x1B31 SWAP4 POP DUP3 ADD ADD CODESIZE DUP1 PUSH2 0x283B JUMP JUMPDEST DUP6 SLOAD DUP9 DUP5 ADD DUP6 ADD MSTORE SWAP5 DUP6 ADD SWAP5 DUP8 SWAP5 POP SWAP2 DUP4 ADD SWAP2 PUSH2 0x285C JUMP JUMPDEST SWAP2 POP POP PUSH2 0x1B31 SWAP5 POP PUSH1 0x20 SWAP3 POP PUSH1 0xFF NOT AND DUP3 DUP5 ADD MSTORE ISZERO ISZERO PUSH1 0x5 SHL DUP3 ADD ADD CODESIZE DUP1 PUSH2 0x283B JUMP JUMPDEST SWAP1 PUSH1 0x40 MLOAD SWAP2 PUSH1 0x20 SWAP3 PUSH2 0x28DD DUP5 DUP3 DUP2 PUSH2 0x28D0 DUP2 DUP4 ADD SWAP7 DUP8 DUP2 MLOAD SWAP4 DUP5 SWAP3 ADD PUSH2 0x177C JUMP JUMPDEST DUP2 ADD SUB DUP1 DUP5 MSTORE ADD DUP3 PUSH2 0x16F4 JUMP JUMPDEST MLOAD SWAP1 KECCAK256 SWAP2 PUSH2 0x28FD PUSH1 0x40 MLOAD SWAP2 DUP3 DUP2 PUSH2 0x28D0 DUP2 DUP4 ADD SWAP7 DUP8 DUP2 MLOAD SWAP4 DUP5 SWAP3 ADD PUSH2 0x177C JUMP JUMPDEST MLOAD SWAP1 KECCAK256 EQ SWAP1 JUMP JUMPDEST PUSH1 0x1 PUSH1 0x1 PUSH1 0x40 SHL SUB DUP2 GT PUSH2 0x1671 JUMPI PUSH1 0x5 SHL PUSH1 0x20 ADD SWAP1 JUMP JUMPDEST SWAP1 DUP2 SLOAD PUSH2 0x2927 DUP2 PUSH2 0x2904 JUMP JUMPDEST SWAP3 PUSH1 0x40 SWAP4 PUSH2 0x2937 DUP6 MLOAD SWAP2 DUP3 PUSH2 0x16F4 JUMP JUMPDEST DUP3 DUP2 MSTORE DUP1 SWAP5 PUSH1 0x20 DUP1 SWAP3 ADD SWAP3 PUSH1 0x0 MSTORE DUP2 PUSH1 0x0 KECCAK256 SWAP1 PUSH1 0x0 SWAP4 JUMPDEST DUP6 DUP6 LT PUSH2 0x295D JUMPI POP POP POP POP POP POP JUMP JUMPDEST PUSH1 0x5 DUP5 PUSH1 0x1 SWAP3 DUP5 MLOAD PUSH2 0x296E DUP2 PUSH2 0x16A3 JUMP JUMPDEST DUP5 DUP1 PUSH1 0xA0 SHL SUB DUP8 SLOAD AND DUP2 MSTORE DUP5 DUP8 ADD SLOAD DUP4 DUP3 ADD MSTORE PUSH2 0x298D PUSH1 0x2 DUP9 ADD PUSH2 0x280B JUMP JUMPDEST DUP7 DUP3 ADD MSTORE PUSH1 0x3 DUP8 ADD SLOAD PUSH1 0x60 DUP3 ADD MSTORE PUSH2 0x29A7 PUSH1 0x4 DUP9 ADD PUSH2 0x280B JUMP JUMPDEST PUSH1 0x80 DUP3 ADD MSTORE DUP2 MSTORE ADD SWAP4 ADD SWAP5 ADD SWAP4 SWAP2 PUSH2 0x294E JUMP JUMPDEST SWAP1 DUP2 SLOAD PUSH2 0x29C6 DUP2 PUSH2 0x2904 JUMP JUMPDEST SWAP3 PUSH1 0x40 SWAP4 PUSH2 0x29D6 DUP6 MLOAD SWAP2 DUP3 PUSH2 0x16F4 JUMP JUMPDEST DUP3 DUP2 MSTORE DUP1 SWAP5 PUSH1 0x20 DUP1 SWAP3 ADD SWAP3 PUSH1 0x0 MSTORE DUP2 PUSH1 0x0 KECCAK256 SWAP1 PUSH1 0x0 SWAP4 JUMPDEST DUP6 DUP6 LT PUSH2 0x29FC JUMPI POP POP POP POP POP POP JUMP JUMPDEST PUSH1 0x3 DUP5 PUSH1 0x1 SWAP3 DUP5 MLOAD PUSH2 0x2A0D DUP2 PUSH2 0x16BE JUMP JUMPDEST DUP5 DUP1 PUSH1 0xA0 SHL SUB DUP8 SLOAD AND DUP2 MSTORE DUP5 DUP8 ADD SLOAD DUP4 DUP3 ADD MSTORE PUSH1 0x2 DUP8 ADD SLOAD DUP7 DUP3 ADD MSTORE DUP2 MSTORE ADD SWAP4 ADD SWAP5 ADD SWAP4 SWAP2 PUSH2 0x29ED JUMP JUMPDEST SWAP1 PUSH1 0x40 MLOAD PUSH2 0x2A44 DUP2 PUSH2 0x1687 JUMP JUMPDEST PUSH2 0x1A0 PUSH2 0x2B20 PUSH1 0xC DUP4 SWAP6 DUP1 SLOAD DUP6 MSTORE PUSH1 0xFF PUSH1 0x1 DUP3 ADD SLOAD PUSH1 0x1 DUP1 PUSH1 0xA0 SHL SUB DUP2 AND PUSH1 0x20 DUP9 ADD MSTORE PUSH1 0xA0 SHR AND ISZERO ISZERO PUSH1 0x40 DUP7 ADD MSTORE PUSH2 0x2A7E PUSH1 0x2 DUP3 ADD PUSH2 0x280B JUMP JUMPDEST PUSH1 0x60 DUP7 ADD MSTORE PUSH2 0x2A8F PUSH1 0x3 DUP3 ADD PUSH2 0x280B JUMP JUMPDEST PUSH1 0x80 DUP7 ADD MSTORE PUSH2 0x2AA0 PUSH1 0x4 DUP3 ADD PUSH2 0x280B JUMP JUMPDEST PUSH1 0xA0 DUP7 ADD MSTORE PUSH2 0x2AB1 PUSH1 0x5 DUP3 ADD PUSH2 0x280B JUMP JUMPDEST PUSH1 0xC0 DUP7 ADD MSTORE PUSH2 0x2AC2 PUSH1 0x6 DUP3 ADD PUSH2 0x280B JUMP JUMPDEST PUSH1 0xE0 DUP7 ADD MSTORE PUSH2 0x2AD3 PUSH1 0x7 DUP3 ADD PUSH2 0x280B JUMP JUMPDEST PUSH2 0x100 DUP7 ADD MSTORE PUSH2 0x2AE5 PUSH1 0x8 DUP3 ADD PUSH2 0x280B JUMP JUMPDEST PUSH2 0x120 DUP7 ADD MSTORE PUSH2 0x2AF7 PUSH1 0x9 DUP3 ADD PUSH2 0x280B JUMP JUMPDEST PUSH2 0x140 DUP7 ADD MSTORE PUSH1 0xA DUP2 ADD SLOAD PUSH2 0x160 DUP7 ADD MSTORE PUSH2 0x2B14 PUSH1 0xB DUP3 ADD PUSH2 0x291B JUMP JUMPDEST PUSH2 0x180 DUP7 ADD MSTORE ADD PUSH2 0x29BA JUMP JUMPDEST SWAP2 ADD MSTORE JUMP JUMPDEST PUSH1 0x40 MLOAD SWAP1 PUSH2 0x2B32 DUP3 PUSH2 0x1656 JUMP JUMPDEST PUSH1 0x4 DUP3 MSTORE PUSH4 0x13515515 PUSH1 0xE2 SHL PUSH1 0x20 DUP4 ADD MSTORE JUMP JUMPDEST SWAP1 DUP2 PUSH1 0x20 SWAP2 SUB SLT PUSH2 0x1777 JUMPI MLOAD DUP1 ISZERO ISZERO DUP2 SUB PUSH2 0x1777 JUMPI SWAP1 JUMP JUMPDEST PUSH1 0x40 MLOAD SWAP1 DUP2 PUSH1 0x0 DUP3 SLOAD PUSH2 0x2B6F DUP2 PUSH2 0x1ABB JUMP JUMPDEST SWAP4 PUSH1 0x1 SWAP2 DUP1 DUP4 AND SWAP1 DUP2 ISZERO PUSH2 0x2BD4 JUMPI POP PUSH1 0x1 EQ PUSH2 0x2B97 JUMPI JUMPDEST POP POP PUSH1 0x20 SWAP3 POP PUSH1 0x4 DUP2 MSTORE SUB ADD SWAP1 KECCAK256 SWAP1 JUMP JUMPDEST SWAP1 SWAP2 POP PUSH1 0x0 MSTORE PUSH1 0x20 SWAP1 DUP2 PUSH1 0x0 KECCAK256 SWAP1 PUSH1 0x0 SWAP2 JUMPDEST DUP6 DUP4 LT PUSH2 0x2BC0 JUMPI POP POP POP POP PUSH1 0x20 SWAP2 DUP2 ADD CODESIZE DUP1 PUSH2 0x2B86 JUMP JUMPDEST DUP1 SLOAD DUP8 DUP5 ADD MSTORE DUP7 SWAP5 POP SWAP2 DUP4 ADD SWAP2 DUP2 ADD PUSH2 0x2BA9 JUMP JUMPDEST SWAP3 POP POP POP PUSH1 0x20 SWAP4 SWAP2 POP PUSH1 0xFF NOT AND DUP3 MSTORE DUP1 ISZERO ISZERO MUL DUP2 ADD CODESIZE DUP1 PUSH2 0x2B86 JUMP JUMPDEST PUSH1 0x40 MLOAD SWAP1 PUSH2 0x2BFD DUP3 PUSH2 0x1687 JUMP JUMPDEST DUP2 PUSH1 0x0 DUP2 MSTORE PUSH1 0x0 PUSH1 0x20 DUP3 ADD MSTORE PUSH1 0x0 PUSH1 0x40 DUP3 ADD MSTORE PUSH2 0x1A0 PUSH1 0x60 SWAP2 DUP3 DUP1 DUP3 ADD MSTORE DUP3 PUSH1 0x80 DUP3 ADD MSTORE DUP3 PUSH1 0xA0 DUP3 ADD MSTORE DUP3 PUSH1 0xC0 DUP3 ADD MSTORE DUP3 PUSH1 0xE0 DUP3 ADD MSTORE DUP3 PUSH2 0x100 DUP3 ADD MSTORE DUP3 PUSH2 0x120 DUP3 ADD MSTORE DUP3 PUSH2 0x140 DUP3 ADD MSTORE PUSH1 0x0 PUSH2 0x160 DUP3 ADD MSTORE DUP3 PUSH2 0x180 DUP3 ADD MSTORE ADD MSTORE JUMP JUMPDEST SWAP1 PUSH2 0x2C65 DUP3 PUSH2 0x2904 JUMP JUMPDEST PUSH2 0x2C72 PUSH1 0x40 MLOAD SWAP2 DUP3 PUSH2 0x16F4 JUMP JUMPDEST DUP3 DUP2 MSTORE DUP1 SWAP3 PUSH2 0x2C83 PUSH1 0x1F NOT SWAP2 PUSH2 0x2904 JUMP JUMPDEST ADD SWAP1 PUSH1 0x0 JUMPDEST DUP3 DUP2 LT PUSH2 0x2C94 JUMPI POP POP POP JUMP JUMPDEST PUSH1 0x20 SWAP1 PUSH2 0x2C9F PUSH2 0x2BF0 JUMP JUMPDEST DUP3 DUP3 DUP6 ADD ADD MSTORE ADD PUSH2 0x2C88 JUMP JUMPDEST DUP1 MLOAD DUP3 LT ISZERO PUSH2 0x1AA5 JUMPI PUSH1 0x20 SWAP2 PUSH1 0x5 SHL ADD ADD SWAP1 JUMP JUMPDEST PUSH2 0x2CC7 PUSH2 0x2BF0 JUMP JUMPDEST POP PUSH1 0x6 SLOAD SWAP1 PUSH1 0x0 JUMPDEST DUP3 DUP2 LT PUSH2 0x2DB5 JUMPI POP POP POP PUSH1 0x40 DUP1 MLOAD SWAP1 PUSH2 0x2CE7 DUP3 PUSH2 0x1687 JUMP JUMPDEST PUSH1 0x0 DUP3 MSTORE PUSH1 0x0 PUSH1 0x20 DUP4 ADD MSTORE PUSH1 0x0 DUP2 DUP4 ADD MSTORE DUP1 MLOAD PUSH2 0x2D03 DUP2 PUSH2 0x16D9 JUMP JUMPDEST PUSH1 0x0 DUP2 MSTORE PUSH1 0x60 DUP4 ADD MSTORE DUP1 MLOAD PUSH2 0x2D17 DUP2 PUSH2 0x16D9 JUMP JUMPDEST PUSH1 0x0 DUP2 MSTORE PUSH1 0x80 DUP4 ADD MSTORE DUP1 MLOAD PUSH2 0x2D2B DUP2 PUSH2 0x16D9 JUMP JUMPDEST PUSH1 0x0 DUP2 MSTORE PUSH1 0xA0 DUP4 ADD MSTORE DUP1 MLOAD PUSH2 0x2D3F DUP2 PUSH2 0x16D9 JUMP JUMPDEST PUSH1 0x0 DUP2 MSTORE PUSH1 0xC0 DUP4 ADD MSTORE DUP1 MLOAD PUSH2 0x2D53 DUP2 PUSH2 0x16D9 JUMP JUMPDEST PUSH1 0x0 DUP2 MSTORE PUSH1 0xE0 DUP4 ADD MSTORE DUP1 MLOAD PUSH2 0x2D67 DUP2 PUSH2 0x16D9 JUMP JUMPDEST PUSH1 0x0 DUP2 MSTORE PUSH2 0x100 DUP4 ADD MSTORE DUP1 MLOAD PUSH2 0x2D7C DUP2 PUSH2 0x16D9 JUMP JUMPDEST PUSH1 0x0 DUP2 MSTORE PUSH2 0x120 DUP4 ADD MSTORE MLOAD PUSH2 0x2D90 DUP2 PUSH2 0x16D9 JUMP JUMPDEST PUSH1 0x0 DUP2 MSTORE PUSH2 0x140 DUP3 ADD MSTORE PUSH1 0x0 PUSH2 0x160 DUP3 ADD MSTORE PUSH1 0x60 PUSH2 0x180 DUP3 ADD MSTORE PUSH1 0x60 PUSH2 0x1A0 DUP3 ADD MSTORE SWAP1 JUMP JUMPDEST PUSH2 0x2DC7 DUP3 PUSH2 0x2E3 PUSH1 0x9 PUSH2 0x2DC DUP6 PUSH2 0x1A6A JUMP JUMPDEST PUSH2 0x2DD9 JUMPI PUSH2 0x2DD4 SWAP1 PUSH2 0x27FC JUMP JUMPDEST PUSH2 0x2CCF JUMP JUMPDEST PUSH2 0x2DE8 SWAP3 POP PUSH2 0x30C SWAP2 POP PUSH2 0x1A6A JUMP JUMPDEST SWAP1 JUMP JUMPDEST PUSH1 0x6 SLOAD SWAP1 PUSH1 0x0 JUMPDEST DUP3 DUP2 LT PUSH2 0x2E01 JUMPI POP POP POP PUSH1 0x0 SWAP1 JUMP JUMPDEST PUSH2 0x2E13 DUP3 PUSH2 0x2E3 PUSH1 0x9 PUSH2 0x2DC DUP6 PUSH2 0x1A6A JUMP JUMPDEST PUSH2 0x2E25 JUMPI PUSH2 0x2E20 SWAP1 PUSH2 0x27FC JUMP JUMPDEST PUSH2 0x2DF2 JUMP JUMPDEST POP POP POP PUSH1 0x1 SWAP1 JUMP INVALID LOG2 PUSH5 0x6970667358 0x22 SLT KECCAK256 ADD DUP7 PUSH32 0x2CC7DFFDF6BDF8B941F4DB096FEC08FAEF3D54CEA1972579E66C99155364736F PUSH13 0x63430008140033000000000000 "
        },
        "methodIdentifiers": {
          "addComment(string,uint256,string,string,address)": "93ec02f1",
          "addressToLastGetMetaverseToken(address)": "bddff4d8",
          "buyItem(string,address,uint256)": "d41aab23",
          "changeListingVisibility(string,bool)": "990d6459",
          "get1000MetaverseToken()": "e607a8ba",
          "getAllUserListings()": "9992b606",
          "getListingByProductCode(string)": "bd623642",
          "getListingByProductType(string)": "9dee74d5",
          "getProceeds(address,string)": "a39249b8",
          "getUserListing()": "7791b330",
          "getUserProfile(address)": "987ee156",
          "listItem(uint256,string,string,string,string,string,string,string,string,uint256)": "1a13cc59",
          "metaverseToken()": "3829f313",
          "productCodeCommentToAddress(string,address)": "e4ba3747",
          "productCodeExists(string)": "1cad3ac5",
          "setUserProfile(string,string)": "016363fa",
          "updateListing(string,uint256,string,string,string,string,string)": "318bb5c7",
          "withdrawProceeds(string)": "a97ce3c2"
        }
      }
    }
  }
}