{
  "contracts/MetaverseMarketplace.sol": {
    "MetaverseMarketplace": {
      "abi": [
        {
          "inputs": [
            {
              "internalType": "address",
              "name": "_metaverseTokenAddress",
              "type": "address"
            }
          ],
          "stateMutability": "nonpayable",
          "type": "constructor"
        },
        {
          "inputs": [
            {
              "internalType": "address",
              "name": "senderAddress",
              "type": "address"
            }
          ],
          "name": "MetaverseMarketplace__AddressLessThan1DayForMetaverseToken",
          "type": "error"
        },
        {
          "inputs": [],
          "name": "MetaverseMarketplace__NoProceeds",
          "type": "error"
        },
        {
          "inputs": [],
          "name": "MetaverseMarketplace__PriceMustBeAboveZero",
          "type": "error"
        },
        {
          "inputs": [
            {
              "internalType": "string",
              "name": "productCode",
              "type": "string"
            },
            {
              "internalType": "address",
              "name": "seller",
              "type": "address"
            },
            {
              "internalType": "uint256",
              "name": "price",
              "type": "uint256"
            }
          ],
          "name": "MetaverseMarketplace__PriceNotMet",
          "type": "error"
        },
        {
          "inputs": [],
          "name": "ReentrancyGuardReentrantCall",
          "type": "error"
        },
        {
          "anonymous": false,
          "inputs": [
            {
              "indexed": true,
              "internalType": "address",
              "name": "commenter",
              "type": "address"
            },
            {
              "indexed": true,
              "internalType": "string",
              "name": "comment",
              "type": "string"
            },
            {
              "indexed": true,
              "internalType": "string",
              "name": "productCode",
              "type": "string"
            },
            {
              "indexed": false,
              "internalType": "address",
              "name": "seller",
              "type": "address"
            }
          ],
          "name": "CommentAdded",
          "type": "event"
        },
        {
          "anonymous": false,
          "inputs": [
            {
              "indexed": true,
              "internalType": "address",
              "name": "buyer",
              "type": "address"
            },
            {
              "indexed": true,
              "internalType": "string",
              "name": "productCode",
              "type": "string"
            },
            {
              "indexed": true,
              "internalType": "uint256",
              "name": "price",
              "type": "uint256"
            }
          ],
          "name": "ItemBought",
          "type": "event"
        },
        {
          "anonymous": false,
          "inputs": [
            {
              "indexed": true,
              "internalType": "address",
              "name": "seller",
              "type": "address"
            },
            {
              "indexed": true,
              "internalType": "uint256",
              "name": "price",
              "type": "uint256"
            },
            {
              "indexed": true,
              "internalType": "string",
              "name": "productCode",
              "type": "string"
            },
            {
              "indexed": false,
              "internalType": "string",
              "name": "title",
              "type": "string"
            }
          ],
          "name": "ItemListed",
          "type": "event"
        },
        {
          "anonymous": false,
          "inputs": [
            {
              "indexed": true,
              "internalType": "address",
              "name": "seller",
              "type": "address"
            },
            {
              "indexed": true,
              "internalType": "string",
              "name": "productCode",
              "type": "string"
            },
            {
              "indexed": true,
              "internalType": "bool",
              "name": "publish",
              "type": "bool"
            }
          ],
          "name": "ItemPublished",
          "type": "event"
        },
        {
          "anonymous": false,
          "inputs": [
            {
              "indexed": true,
              "internalType": "address",
              "name": "seller",
              "type": "address"
            },
            {
              "indexed": true,
              "internalType": "string",
              "name": "productCode",
              "type": "string"
            },
            {
              "indexed": true,
              "internalType": "string",
              "name": "title",
              "type": "string"
            },
            {
              "indexed": false,
              "internalType": "uint256",
              "name": "price",
              "type": "uint256"
            }
          ],
          "name": "ListingUpdated",
          "type": "event"
        },
        {
          "anonymous": false,
          "inputs": [
            {
              "indexed": true,
              "internalType": "address",
              "name": "person",
              "type": "address"
            }
          ],
          "name": "MetaverseAirdrop",
          "type": "event"
        },
        {
          "anonymous": false,
          "inputs": [
            {
              "indexed": true,
              "internalType": "address",
              "name": "person",
              "type": "address"
            },
            {
              "indexed": true,
              "internalType": "string",
              "name": "currency",
              "type": "string"
            },
            {
              "indexed": true,
              "internalType": "uint256",
              "name": "amount",
              "type": "uint256"
            }
          ],
          "name": "ProceedsWithdrawn",
          "type": "event"
        },
        {
          "anonymous": false,
          "inputs": [
            {
              "indexed": true,
              "internalType": "address",
              "name": "owner",
              "type": "address"
            },
            {
              "indexed": true,
              "internalType": "string",
              "name": "username",
              "type": "string"
            },
            {
              "indexed": true,
              "internalType": "string",
              "name": "profileImageUrl",
              "type": "string"
            }
          ],
          "name": "SetUserProfile",
          "type": "event"
        },
        {
          "inputs": [
            {
              "internalType": "string",
              "name": "comment",
              "type": "string"
            },
            {
              "internalType": "uint256",
              "name": "rating",
              "type": "uint256"
            },
            {
              "internalType": "string",
              "name": "dateString",
              "type": "string"
            },
            {
              "internalType": "string",
              "name": "productCode",
              "type": "string"
            },
            {
              "internalType": "address",
              "name": "seller",
              "type": "address"
            }
          ],
          "name": "addComment",
          "outputs": [],
          "stateMutability": "nonpayable",
          "type": "function"
        },
        {
          "inputs": [
            {
              "internalType": "address",
              "name": "",
              "type": "address"
            }
          ],
          "name": "addressToLastGetMetaverseToken",
          "outputs": [
            {
              "internalType": "uint256",
              "name": "",
              "type": "uint256"
            }
          ],
          "stateMutability": "view",
          "type": "function"
        },
        {
          "inputs": [
            {
              "internalType": "string",
              "name": "productCode",
              "type": "string"
            },
            {
              "internalType": "address",
              "name": "seller",
              "type": "address"
            },
            {
              "internalType": "uint256",
              "name": "quantity",
              "type": "uint256"
            }
          ],
          "name": "buyItem",
          "outputs": [],
          "stateMutability": "payable",
          "type": "function"
        },
        {
          "inputs": [
            {
              "internalType": "string",
              "name": "productCode",
              "type": "string"
            },
            {
              "internalType": "bool",
              "name": "publish",
              "type": "bool"
            }
          ],
          "name": "changeListingVisibility",
          "outputs": [],
          "stateMutability": "nonpayable",
          "type": "function"
        },
        {
          "inputs": [],
          "name": "get1000MetaverseToken",
          "outputs": [],
          "stateMutability": "nonpayable",
          "type": "function"
        },
        {
          "inputs": [],
          "name": "getAllUserListings",
          "outputs": [
            {
              "components": [
                {
                  "internalType": "uint256",
                  "name": "price",
                  "type": "uint256"
                },
                {
                  "internalType": "address",
                  "name": "seller",
                  "type": "address"
                },
                {
                  "internalType": "bool",
                  "name": "published",
                  "type": "bool"
                },
                {
                  "internalType": "string",
                  "name": "productType",
                  "type": "string"
                },
                {
                  "internalType": "string",
                  "name": "title",
                  "type": "string"
                },
                {
                  "internalType": "string",
                  "name": "description",
                  "type": "string"
                },
                {
                  "internalType": "string",
                  "name": "imageUrl",
                  "type": "string"
                },
                {
                  "internalType": "string",
                  "name": "currency",
                  "type": "string"
                },
                {
                  "internalType": "string",
                  "name": "productUrl",
                  "type": "string"
                },
                {
                  "internalType": "string",
                  "name": "productInfo",
                  "type": "string"
                },
                {
                  "internalType": "string",
                  "name": "productCode",
                  "type": "string"
                },
                {
                  "internalType": "uint256",
                  "name": "nftTokenId",
                  "type": "uint256"
                },
                {
                  "components": [
                    {
                      "internalType": "address",
                      "name": "commenter",
                      "type": "address"
                    },
                    {
                      "internalType": "uint256",
                      "name": "rating",
                      "type": "uint256"
                    },
                    {
                      "internalType": "string",
                      "name": "comment",
                      "type": "string"
                    },
                    {
                      "internalType": "uint256",
                      "name": "time",
                      "type": "uint256"
                    },
                    {
                      "internalType": "string",
                      "name": "dateString",
                      "type": "string"
                    }
                  ],
                  "internalType": "struct MetaverseMarketplace.Comment[]",
                  "name": "comments",
                  "type": "tuple[]"
                },
                {
                  "components": [
                    {
                      "internalType": "address",
                      "name": "buyer",
                      "type": "address"
                    },
                    {
                      "internalType": "uint256",
                      "name": "quantity",
                      "type": "uint256"
                    },
                    {
                      "internalType": "uint256",
                      "name": "totalPrice",
                      "type": "uint256"
                    }
                  ],
                  "internalType": "struct MetaverseMarketplace.Buyer[]",
                  "name": "buyers",
                  "type": "tuple[]"
                }
              ],
              "internalType": "struct MetaverseMarketplace.Listing[]",
              "name": "",
              "type": "tuple[]"
            }
          ],
          "stateMutability": "view",
          "type": "function"
        },
        {
          "inputs": [
            {
              "internalType": "string",
              "name": "productType",
              "type": "string"
            }
          ],
          "name": "getListingByProductType",
          "outputs": [
            {
              "components": [
                {
                  "internalType": "uint256",
                  "name": "price",
                  "type": "uint256"
                },
                {
                  "internalType": "address",
                  "name": "seller",
                  "type": "address"
                },
                {
                  "internalType": "bool",
                  "name": "published",
                  "type": "bool"
                },
                {
                  "internalType": "string",
                  "name": "productType",
                  "type": "string"
                },
                {
                  "internalType": "string",
                  "name": "title",
                  "type": "string"
                },
                {
                  "internalType": "string",
                  "name": "description",
                  "type": "string"
                },
                {
                  "internalType": "string",
                  "name": "imageUrl",
                  "type": "string"
                },
                {
                  "internalType": "string",
                  "name": "currency",
                  "type": "string"
                },
                {
                  "internalType": "string",
                  "name": "productUrl",
                  "type": "string"
                },
                {
                  "internalType": "string",
                  "name": "productInfo",
                  "type": "string"
                },
                {
                  "internalType": "string",
                  "name": "productCode",
                  "type": "string"
                },
                {
                  "internalType": "uint256",
                  "name": "nftTokenId",
                  "type": "uint256"
                },
                {
                  "components": [
                    {
                      "internalType": "address",
                      "name": "commenter",
                      "type": "address"
                    },
                    {
                      "internalType": "uint256",
                      "name": "rating",
                      "type": "uint256"
                    },
                    {
                      "internalType": "string",
                      "name": "comment",
                      "type": "string"
                    },
                    {
                      "internalType": "uint256",
                      "name": "time",
                      "type": "uint256"
                    },
                    {
                      "internalType": "string",
                      "name": "dateString",
                      "type": "string"
                    }
                  ],
                  "internalType": "struct MetaverseMarketplace.Comment[]",
                  "name": "comments",
                  "type": "tuple[]"
                },
                {
                  "components": [
                    {
                      "internalType": "address",
                      "name": "buyer",
                      "type": "address"
                    },
                    {
                      "internalType": "uint256",
                      "name": "quantity",
                      "type": "uint256"
                    },
                    {
                      "internalType": "uint256",
                      "name": "totalPrice",
                      "type": "uint256"
                    }
                  ],
                  "internalType": "struct MetaverseMarketplace.Buyer[]",
                  "name": "buyers",
                  "type": "tuple[]"
                }
              ],
              "internalType": "struct MetaverseMarketplace.Listing[]",
              "name": "",
              "type": "tuple[]"
            }
          ],
          "stateMutability": "view",
          "type": "function"
        },
        {
          "inputs": [
            {
              "internalType": "address",
              "name": "seller",
              "type": "address"
            },
            {
              "internalType": "string",
              "name": "currency",
              "type": "string"
            }
          ],
          "name": "getProceeds",
          "outputs": [
            {
              "internalType": "uint256",
              "name": "",
              "type": "uint256"
            }
          ],
          "stateMutability": "view",
          "type": "function"
        },
        {
          "inputs": [],
          "name": "getUserListing",
          "outputs": [
            {
              "components": [
                {
                  "internalType": "uint256",
                  "name": "price",
                  "type": "uint256"
                },
                {
                  "internalType": "address",
                  "name": "seller",
                  "type": "address"
                },
                {
                  "internalType": "bool",
                  "name": "published",
                  "type": "bool"
                },
                {
                  "internalType": "string",
                  "name": "productType",
                  "type": "string"
                },
                {
                  "internalType": "string",
                  "name": "title",
                  "type": "string"
                },
                {
                  "internalType": "string",
                  "name": "description",
                  "type": "string"
                },
                {
                  "internalType": "string",
                  "name": "imageUrl",
                  "type": "string"
                },
                {
                  "internalType": "string",
                  "name": "currency",
                  "type": "string"
                },
                {
                  "internalType": "string",
                  "name": "productUrl",
                  "type": "string"
                },
                {
                  "internalType": "string",
                  "name": "productInfo",
                  "type": "string"
                },
                {
                  "internalType": "string",
                  "name": "productCode",
                  "type": "string"
                },
                {
                  "internalType": "uint256",
                  "name": "nftTokenId",
                  "type": "uint256"
                },
                {
                  "components": [
                    {
                      "internalType": "address",
                      "name": "commenter",
                      "type": "address"
                    },
                    {
                      "internalType": "uint256",
                      "name": "rating",
                      "type": "uint256"
                    },
                    {
                      "internalType": "string",
                      "name": "comment",
                      "type": "string"
                    },
                    {
                      "internalType": "uint256",
                      "name": "time",
                      "type": "uint256"
                    },
                    {
                      "internalType": "string",
                      "name": "dateString",
                      "type": "string"
                    }
                  ],
                  "internalType": "struct MetaverseMarketplace.Comment[]",
                  "name": "comments",
                  "type": "tuple[]"
                },
                {
                  "components": [
                    {
                      "internalType": "address",
                      "name": "buyer",
                      "type": "address"
                    },
                    {
                      "internalType": "uint256",
                      "name": "quantity",
                      "type": "uint256"
                    },
                    {
                      "internalType": "uint256",
                      "name": "totalPrice",
                      "type": "uint256"
                    }
                  ],
                  "internalType": "struct MetaverseMarketplace.Buyer[]",
                  "name": "buyers",
                  "type": "tuple[]"
                }
              ],
              "internalType": "struct MetaverseMarketplace.Listing[]",
              "name": "",
              "type": "tuple[]"
            }
          ],
          "stateMutability": "view",
          "type": "function"
        },
        {
          "inputs": [
            {
              "internalType": "address",
              "name": "profileOwner",
              "type": "address"
            }
          ],
          "name": "getUserProfile",
          "outputs": [
            {
              "components": [
                {
                  "internalType": "string",
                  "name": "username",
                  "type": "string"
                },
                {
                  "internalType": "string",
                  "name": "profileImageUrl",
                  "type": "string"
                }
              ],
              "internalType": "struct MetaverseMarketplace.UserProfile",
              "name": "",
              "type": "tuple"
            }
          ],
          "stateMutability": "view",
          "type": "function"
        },
        {
          "inputs": [
            {
              "internalType": "uint256",
              "name": "price",
              "type": "uint256"
            },
            {
              "internalType": "string",
              "name": "productType",
              "type": "string"
            },
            {
              "internalType": "string",
              "name": "title",
              "type": "string"
            },
            {
              "internalType": "string",
              "name": "description",
              "type": "string"
            },
            {
              "internalType": "string",
              "name": "imageUrl",
              "type": "string"
            },
            {
              "internalType": "string",
              "name": "currency",
              "type": "string"
            },
            {
              "internalType": "string",
              "name": "productUrl",
              "type": "string"
            },
            {
              "internalType": "string",
              "name": "productInfo",
              "type": "string"
            },
            {
              "internalType": "string",
              "name": "productCode",
              "type": "string"
            },
            {
              "internalType": "uint256",
              "name": "nftTokenId",
              "type": "uint256"
            }
          ],
          "name": "listItem",
          "outputs": [],
          "stateMutability": "nonpayable",
          "type": "function"
        },
        {
          "inputs": [],
          "name": "metaverseToken",
          "outputs": [
            {
              "internalType": "contract IERC20",
              "name": "",
              "type": "address"
            }
          ],
          "stateMutability": "view",
          "type": "function"
        },
        {
          "inputs": [
            {
              "internalType": "string",
              "name": "productCode",
              "type": "string"
            }
          ],
          "name": "productCodeExists",
          "outputs": [
            {
              "internalType": "bool",
              "name": "",
              "type": "bool"
            }
          ],
          "stateMutability": "view",
          "type": "function"
        },
        {
          "inputs": [
            {
              "internalType": "string",
              "name": "newUsername",
              "type": "string"
            },
            {
              "internalType": "string",
              "name": "profileImageUrl",
              "type": "string"
            }
          ],
          "name": "setUserProfile",
          "outputs": [],
          "stateMutability": "nonpayable",
          "type": "function"
        },
        {
          "inputs": [
            {
              "internalType": "string",
              "name": "productCode",
              "type": "string"
            },
            {
              "internalType": "uint256",
              "name": "price",
              "type": "uint256"
            },
            {
              "internalType": "string",
              "name": "title",
              "type": "string"
            },
            {
              "internalType": "string",
              "name": "description",
              "type": "string"
            },
            {
              "internalType": "string",
              "name": "productInfo",
              "type": "string"
            },
            {
              "internalType": "string",
              "name": "productUrl",
              "type": "string"
            },
            {
              "internalType": "string",
              "name": "imageUrl",
              "type": "string"
            }
          ],
          "name": "updateListing",
          "outputs": [],
          "stateMutability": "nonpayable",
          "type": "function"
        },
        {
          "inputs": [
            {
              "internalType": "string",
              "name": "currency",
              "type": "string"
            }
          ],
          "name": "withdrawProceeds",
          "outputs": [],
          "stateMutability": "nonpayable",
          "type": "function"
        }
      ],
      "evm": {
        "bytecode": {
          "linkReferences": {},
          "object": "60803461007957601f6128ab38819003918201601f19168301916001600160401b0383118484101761007e5780849260209460405283398101031261007957516001600160a01b03811690819003610079576001600055600480546001600160a01b03191691909117905560405161281690816100958239f35b600080fd5b634e487b7160e01b600052604160045260246000fdfe608060405260048036101561001357600080fd5b6000803560e01c8063016363fa14610fc15780631a13cc5914610dd25780631cad3ac514610d8f578063318bb5c714610b3d5780633829f31314610b155780637791b33014610a9557806393ec02f114610907578063987ee15614610868578063990d6459146107935780639992b606146107075780639dee74d514610664578063a39249b8146105e8578063a97ce3c214610496578063bddff4d81461045d578063d41aab23146101e65763e607a8ba146100ce57600080fd5b346101a357806003193601126101a357338152602060038152604082205442034281116101d35762015180116101bc5780829333845260038252426040852055604460018060a01b0382541691604051958693849263a9059cbb60e01b84523390840152683635c9adc5dea0000060248401525af180156101b157610177575b82337f561f98adfb5df58a7c3c03f4ada643cc46c1a5291389819dbd6d01fe490481498280a280f35b81813d83116101aa575b61018b81836112fd565b810103126101a65751801515036101a357388061014e565b80fd5b5080fd5b503d610181565b6040513d85823e3d90fd5b60405163fca47e3160e01b81523381850152602490fd5b634e487b7160e01b835260118452602483fd5b5090606090816003193601126104595780356001600160401b038111610455576102139036908301611339565b6001600160a01b0360248035828116959394919391908690036104515760449384359260028954146104405760028955885b6005548110156104325761026d88610268600961026185611620565b50016123c1565b612465565b61027f5761027a906123b2565b610245565b9495969761029561028f87611620565b506125ed565b9788519182341061040357505050508551948584029584870414841517156103f157604051956102c4876112e2565b338752602094858801526040870152838701511688526001938484526103018460408b2060e08a0151908260405194838680955193849201611385565b8201908152030190208054903482018092116103df5755600c9061032490611620565b500191825494600160401b8610156103cd5785018084558510156103bc57505086528520825160039092020180546001600160a01b0319166001600160a01b03929092169190911781556020820151600182015560409091015160029091015561038f905191612392565b337f253fcd678c758e0e03dbf3a0243701c7439c306a61158b3c522a8119772990108480a45b6001815580f35b634e487b7160e01b89526032905287fd5b50634e487b7160e01b89526041905287fd5b634e487b7160e01b8b5260118552838bfd5b50634e487b7160e01b88526011825287fd5b604051630e90db8560e31b815295860193909352849392610427606486018c6113a8565b938501528301520390fd5b5050505050505050506103b5565b604051633ee5aeb560e01b81528390fd5b8680fd5b8380fd5b8280fd5b50346101a35760203660031901126101a3576020906040906001600160a01b0361048561160a565b168152600383522054604051908152f35b5090346101a6576020806003193601126104595781356001600160401b038111610455576104c79036908401611339565b33845260018252604084206040518381845193828601946104e9818488611385565b820190815203019020549081156105d75761051c8487923384526001825260408420604051809481938951928391611385565b820190815203019020558480808084335af191823d156105d2573d6105408161131e565b9061054e60405192836112fd565b815287863d92013e5b61059d575b505015610567578280f35b60405162461bcd60e51b815291820152601060248201526f5472616e73666572206661696c65642160801b604482015260649150fd5b6105a690612392565b337ff2ca3efe12f71d386ef0fd2b75ebbef402882711943ccb42d5bdb696fa7a13418780a4388061055c565b610557565b60405163125d726b60e21b81528590fd5b5090346101a65760403660031901126101a65761060361160a565b906024356001600160401b0381116104555791604060209461062c869461065296369101611339565b6001600160a01b0390931681526001845220604051825190948593829085908701611385565b82019081520301902054604051908152f35b5090346101a65760203660031901126101a6578035906001600160401b0382116104595761069491369101611339565b600554906106a1826126db565b925b8281106106bc57604051806106b886826113cd565b0390f35b806106d28361026860026102616106db96611620565b6106e0576123b2565b6106a3565b6106ec61028f82611620565b6106f6828761278a565b52610701818661278a565b506123b2565b50346101a357806003193601126101a357600554610724816124ba565b9061073260405192836112fd565b808252600583527f036b6384b5eca791c62761152d0c79bb0604c104a5fb6f4eb0703f3154bb3db09260208084015b83831061077657604051806106b887826113cd565b600d82600192610785896125ed565b815201960192019194610761565b5090346101a65760403660031901126101a6578035906001600160401b038211610459576107c391369101611339565b602435908115159081830361045557835b600554811015610861576107f082610268600961026185611620565b610802576107fd906123b2565b6107d4565b6108399293600161081561083493611620565b5001805460ff60a01b191691151560a01b60ff60a01b16919091179055565b612392565b337f51dabe03dbc9869cdc42f327348910c055732b793c7aaade368a32d8f3658e1e8480a480f35b5050505080f35b50346101a3576020806003193601126101a6576106b86040809361088a61160a565b60608584516108988161127a565b82815201526001600160a01b031681526002845220835192906108f4906108d6906001906108c58761127a565b6108ce816123c1565b8752016123c1565b918085019283528551958695828752519186015260608501906113a8565b9051838203601f190160408501526113a8565b5090346101a65760a03660031901126101a6576001600160401b038135818111610455576109389036908401611339565b90602492833592604435838111610451576109569036908401611339565b926064359081116104515761096e9036908401611339565b926084356001600160a01b0381169390849003610a9157875b60058054821015610a85576109a487610268600961026186611620565b6109b757506109b2906123b2565b610987565b91929394959697906109ca600b91611620565b500190604051946109da866112c7565b3386526020998a8701528660408701524260608701526080860152815493600160401b851015610a745760018501808455851015610a63575050610a5693610a50937f8bb52eee1b68032569fa2c483528d7d2b7db7824b9704ee675f72029562208659693610834938c528a8c2091020161170c565b93612392565b936040519283523392a480f35b634e487b7160e01b8b526032905289fd5b634e487b7160e01b8b526041905289fd5b50505050505050505080f35b8780fd5b50346101a357806003193601126101a357600554610ab2816126db565b915b818110610ac957604051806106b885826113cd565b80610ad6610aef92611620565b50600101546001600160a01b03163314610af4576123b2565b610ab4565b610b0061028f82611620565b610b0a828661278a565b52610701818561278a565b5090346101a657816003193601126101a657546040516001600160a01b039091168152602090f35b5090346101a65760e03660031901126101a6576001600160401b03813581811161045557610b6e9036908401611339565b604435828111610d8b57610b859036908501611339565b91606435818111610d8757610b9d9036908601611339565b9360843582811161045157610bb59036908301611339565b9160a435818111610a9157610bcd9036908401611339565b9160c435918211610a9157610be491369101611339565b91865b600554811015610d7d57610c0385610268600961026185611620565b610c1557610c10906123b2565b610be7565b92939495610c2284611620565b506001908101546001600160a01b03169590610c3d86611620565b50015492610c4a86611620565b5094610c5587611620565b50610c5f88611620565b5093610c6a89611620565b50600a015495610c798a611620565b5097610c848b611620565b50996040519c610c938e6112ab565b6024358e5260208e015260ff60a092831c16151560408e0152610cb8906002016123c1565b60608d01528d60808d01528b015260c08a0152600601610cd7906123c1565b60e0890152610100880152610120870152600901610cf4906123c1565b610140860152610160850152600b01610d0c906124d1565b610180840152600c01610d1e90612570565b6101a0830152610d2d90611620565b610d37929161193c565b610d4090612392565b90610d4a90612392565b906040516024358152339060207f384c5f98880fad6ed933597fe4becd24246db16d5a262945362c7ace0a0e47b591a480f35b5050505050505080f35b8580fd5b8480fd5b50346101a35760203660031901126101a3578135906001600160401b0382116101a3576020610dc8610dc336858701611339565b61279e565b6040519015158152f35b5090346101a6576101409081600319360112610459578035906001600160401b0390602435828111610d8757610e0b9036908301611339565b9060443583811161045157610e239036908301611339565b94606435848111610a9157610e3b9036908401611339565b93608435818111610fbd57610e539036908501611339565b60a435828111610fb957610e6a9036908601611339565b60c435838111610fb557610e819036908701611339565b9160e435848111610fb157610e999036908801611339565b9361010435908111610fb157610eb29036908801611339565b978915610fa0579088959493929160405198610ecd8a6112ab565b8b8a523360208b01528d60408b015260608a01528b60808a015260a089015260c088015260e087015261010086015261012085015283015261012435610160830152606061018083015260606101a083015260055490600160401b821015610f8d5750610f4e9291610f488260016108349401600555611620565b9061193c565b917f9ec512f6157daf19471fdb4abc754cd622ce54571fda42c4c416ff378b0415836040516020815280610f87339460208301906113a8565b0390a480f35b634e487b7160e01b875260419052602486fd5b604051635ebde5f560e11b81528790fd5b8b80fd5b8a80fd5b8980fd5b8880fd5b5090346101a65760403660031901126101a6576001600160401b0390803582811161045557610ff39036908301611339565b602435838111610d8b5761100a9036908401611339565b92604051906110188261127a565b828252602091828101928684523388526002815260408820915190815184811161126757806110478554611671565b938b601f958587821161123b575b50505083908583116001146111d8578c926111cd575b50508160011b916000199060031b1c19161783555b600180930194519687519485116111ba575061109c8554611671565b828111611184575b50809184116001146111165750918080926110dc9695946110e2988b9461110b575b50501b916000199060031b1c1916179055612392565b91612392565b90337f8fb63d21cd1646c22e90408d0771d27886ed526a60064418e44b4e4a35bf6a078480a480f35b0151925038806110c6565b91939495601f198416868a52838a20938a905b82821061116d575050916110e297959391856110dc98969410611154575b505050811b019055612392565b015160001960f88460031b161c19169055388080611147565b808886978294978701518155019601940190611129565b6111ab90868b52828b208480880160051c8201928589106111b1575b0160051c01906116ab565b386110a4565b925081926111a0565b634e487b7160e01b8a5260419052602489fd5b01519050388061106b565b868d52848d209250601f1984168d5b8682821061122557505090846001959493921061120c575b505050811b018355611080565b015160001960f88460031b161c191690553880806111ff565b60018596829396860151815501950193016111e7565b828961125f9452208780860160051c8201928887106111b1570160051c01906116ab565b8b3885611055565b634e487b7160e01b8a526041885260248afd5b604081019081106001600160401b0382111761129557604052565b634e487b7160e01b600052604160045260246000fd5b6101c081019081106001600160401b0382111761129557604052565b60a081019081106001600160401b0382111761129557604052565b606081019081106001600160401b0382111761129557604052565b90601f801991011681019081106001600160401b0382111761129557604052565b6001600160401b03811161129557601f01601f191660200190565b81601f82011215611380578035906113508261131e565b9261135e60405194856112fd565b8284526020838301011161138057816000926020809301838601378301015290565b600080fd5b60005b8381106113985750506000910152565b8181015183820152602001611388565b906020916113c181518092818552858086019101611385565b601f01601f1916010190565b602081016020825282518091526040820191602060408360051b8301019401926000915b83831061140057505050505090565b9091929394603f198282030183528551908151815260018060a01b0360208301511660208201526040820151151560408201526114e76114d36114bf6114ab61149861148561147361146160608a01516101c08060608c01528a01906113a8565b60808a015189820360808b01526113a8565b60a089015188820360a08a01526113a8565b60c08089015190888303908901526113a8565b60e08088015190878303908801526113a8565b6101008087015190868303908701526113a8565b6101208086015190858303908601526113a8565b6101408085015190848303908501526113a8565b90610160808401519082015261018091828401519282820390830152825180825260208201906020808260051b85010195019260005b82811061159a5750505050506101a08093015192818303910152602080835192838152019201906000905b80821061156757505050602080600192970193019301919392906113f1565b9091926020606060019260408751858060a01b038151168352848101518584015201516040820152019401920190611548565b90919293956020806115fd600193601f198782030189528a5190858060a01b038251168152838201518482015260806115e2604084015160a0604085015260a08401906113a8565b926060810151606084015201519060808184039101526113a8565b980195019392910161151d565b600435906001600160a01b038216820361138057565b60055481101561165b57600d906005600052027f036b6384b5eca791c62761152d0c79bb0604c104a5fb6f4eb0703f3154bb3db00190600090565b634e487b7160e01b600052603260045260246000fd5b90600182811c921680156116a1575b602083101461168b57565b634e487b7160e01b600052602260045260246000fd5b91607f1691611680565b8181106116b6575050565b600081556001016116ab565b6116cc8154611671565b90816116d6575050565b81601f600093116001146116e95750555b565b908083918252611708601f60208420940160051c8401600185016116ab565b5555565b60018060a01b038251166bffffffffffffffffffffffff60a01b825416178155602080830151916001928382015560028101916040850151918251936001600160401b0394858111611295576117628254611671565b94601f9586811161190e575b5084908683116001146118a05791806004949260809694600092611895575b5050600019600383901b1c191690891b1790555b6060880151600382015501950151908151938411611295576117c38654611671565b838111611867575b508092841160011461180457509282939183926000946117f9575b50501b916000199060031b1c1916179055565b0151925038806117e6565b919083601f1981168760005284600020946000905b8883831061184d5750505010611834575b505050811b019055565b015160001960f88460031b161c1916905538808061182a565b858701518855909601959485019487935090810190611819565b61188f9087600052826000208580880160051c8201928589106111b1570160051c01906116ab565b386117cb565b01519050388061178d565b889291601f1983169185600052876000209260005b898282106118f857505091608097959391856004989694106118df575b505050811b0190556117a1565b015160001960f88460031b161c191690553880806118d2565b8385015186558d979095019493840193016118b5565b6119369084600052866000208880860160051c8201928987106111b1570160051c01906116ab565b3861176e565b919061237c57805182556020810151600183018054604084015160ff60a01b90151560a01b166001600160a01b039093166001600160a81b0319909116179190911790556002820160608201518051906001600160401b0382116112955781906119a68454611671565b601f811161234a575b50602090601f83116001146122e4576000926122d9575b50508160011b916000199060031b1c19161790555b6003820160808201518051906001600160401b038211611295578190611a018454611671565b601f81116122a7575b50602090601f831160011461224157600092612236575b50508160011b916000199060031b1c19161790555b6004820160a08201518051906001600160401b038211611295578190611a5c8454611671565b601f8111612204575b50602090601f831160011461219e57600092612193575b50508160011b916000199060031b1c19161790555b6005820160c08201518051906001600160401b038211611295578190611ab78454611671565b601f8111612161575b50602090601f83116001146120fb576000926120f0575b50508160011b916000199060031b1c19161790555b60e08101519283516001600160401b03811161129557611b0f6006850154611671565b601f81116120bb575b50602094601f821160011461204f57948192939495600092612044575b50508160011b916000199060031b1c19161760068401555b6101008201519283516001600160401b03811161129557611b716007830154611671565b601f811161200f575b506020601f8211600114611fa0578192939495600092611f95575b50508160011b916000199060031b1c19161760078201555b6101208301519283516001600160401b03811161129557611bd16008840154611671565b601f8111611f60575b506020601f8211600114611ef1578192939495600092611ee6575b50508160011b916000199060031b1c19161760088301555b600982016101408201518051906001600160401b038211611295578190611c348454611671565b601f8111611ea9575b50602090601f8311600114611e4357600092611e38575b50508160011b916000199060031b1c19161790555b610160810151600a8301556101808101518051600160401b9391600b830190858311611295578154838355808410611dcd575b506020019060005260206000206000915b838310611daf5750505050600c6101a091019101518051928311611295578154838355808410611d46575b506020019060005260206000206000915b838310611cf65750505050565b6003602082611d3a600194518690604060029160018060a01b038151166bffffffffffffffffffffffff60a01b855416178455602081015160018501550151910155565b01920192019190611ce9565b80600302906003820403611d995783600302600381048503611d995783600052602060002091820191015b818110611d7e5750611cd8565b80600060039255600060018201556000600282015501611d71565b634e487b7160e01b600052601160045260246000fd5b6005602082611dc1600194518661170c565b01920192019190611cad565b80600502906005820403611d995783600502600581048503611d995783600052602060002091820191015b818110611e055750611c9c565b8060006005925560006001820155611e1f600282016116c2565b60006003820155611e32600482016116c2565b01611df8565b015190503880611c54565b6000858152602081209350601f198516905b818110611e915750908460019594939210611e78575b505050811b019055611c69565b015160001960f88460031b161c19169055388080611e6b565b92936020600181928786015181550195019301611e55565b611ed690856000526020600020601f850160051c81019160208610611edc575b601f0160051c01906116ab565b38611c3d565b9091508190611ec9565b015190503880611bf5565b6008840160005260206000209060005b601f1984168110611f48575060019394959683601f19811610611f2f575b505050811b016008830155611c0d565b015160001960f88460031b161c19169055388080611f1f565b9091602060018192858b015181550193019101611f01565b611f8f90600885016000526020600020601f840160051c81019160208510611edc57601f0160051c01906116ab565b38611bda565b015190503880611b95565b6007830160005260206000209060005b601f1984168110611ff7575060019394959683601f19811610611fde575b505050811b016007820155611bad565b015160001960f88460031b161c19169055388080611fce565b9091602060018192858b015181550193019101611fb0565b61203e90600784016000526020600020601f840160051c81019160208510611edc57601f0160051c01906116ab565b38611b7a565b015190503880611b35565b601f198216956006860160005260206000209160005b8881106120a35750836001959697981061208a575b505050811b016006840155611b4d565b015160001960f88460031b161c1916905538808061207a565b91926020600181928685015181550194019201612065565b6120ea90600686016000526020600020601f840160051c81019160208510611edc57601f0160051c01906116ab565b38611b18565b015190503880611ad7565b6000858152602081209350601f198516905b8181106121495750908460019594939210612130575b505050811b019055611aec565b015160001960f88460031b161c19169055388080612123565b9293602060018192878601518155019501930161210d565b61218d90856000526020600020601f850160051c81019160208610611edc57601f0160051c01906116ab565b38611ac0565b015190503880611a7c565b6000858152602081209350601f198516905b8181106121ec57509084600195949392106121d3575b505050811b019055611a91565b015160001960f88460031b161c191690553880806121c6565b929360206001819287860151815501950193016121b0565b61223090856000526020600020601f850160051c81019160208610611edc57601f0160051c01906116ab565b38611a65565b015190503880611a21565b6000858152602081209350601f198516905b81811061228f5750908460019594939210612276575b505050811b019055611a36565b015160001960f88460031b161c19169055388080612269565b92936020600181928786015181550195019301612253565b6122d390856000526020600020601f850160051c81019160208610611edc57601f0160051c01906116ab565b38611a0a565b0151905038806119c6565b6000858152602081209350601f198516905b8181106123325750908460019594939210612319575b505050811b0190556119db565b015160001960f88460031b161c1916905538808061230c565b929360206001819287860151815501950193016122f6565b61237690856000526020600020601f850160051c81019160208610611edc57601f0160051c01906116ab565b386119af565b634e487b7160e01b600052600060045260246000fd5b6123aa90602060405192828480945193849201611385565b810103902090565b6000198114611d995760010190565b90604051918260008254926123d584611671565b90818452600194858116908160001461244257506001146123ff575b50506116e7925003836112fd565b9093915060005260209081600020936000915b81831061242a5750506116e7935082010138806123f1565b85548884018501529485019487945091830191612412565b9150506116e794506020925060ff191682840152151560051b82010138806123f1565b90604051916020926124938482816124868183019687815193849201611385565b81010380845201826112fd565b519020916124b36040519182816124868183019687815193849201611385565b5190201490565b6001600160401b0381116112955760051b60200190565b9081546124dd816124ba565b926040936124ed855191826112fd565b828152809460208092019260005281600020906000935b85851061251357505050505050565b6005846001928451612524816112c7565b848060a01b0387541681528487015483820152612543600288016123c1565b868201526003870154606082015261255d600488016123c1565b6080820152815201930194019391612504565b90815461257c816124ba565b9260409361258c855191826112fd565b828152809460208092019260005281600020906000935b8585106125b257505050505050565b60038460019284516125c3816112e2565b848060a01b03875416815284870154838201526002870154868201528152019301940193916125a3565b906040516125fa816112ab565b6101a06126d6600c83958054855260ff600182015460018060a01b038116602088015260a01c1615156040860152612634600282016123c1565b6060860152612645600382016123c1565b6080860152612656600482016123c1565b60a0860152612667600582016123c1565b60c0860152612678600682016123c1565b60e0860152612689600782016123c1565b61010086015261269b600882016123c1565b6101208601526126ad600982016123c1565b610140860152600a8101546101608601526126ca600b82016124d1565b61018086015201612570565b910152565b906126e5826124ba565b6040906126f4825191826112fd565b8381528093612705601f19916124ba565b019160005b8381106127175750505050565b6020908251612725816112ab565b6000815282600081830152600085830152606080808401528060808401528060a08401528060c08401528060e08401528061010084015280610120840152806101408401526000610160840152806101808401526101a083015282860101520161270a565b805182101561165b5760209160051b010190565b6005549060005b8281106127b457505050600090565b6127c682610268600961026185611620565b6127d8576127d3906123b2565b6127a5565b50505060019056fea2646970667358221220d4f1ad995200f28fbd06b492a8326e399a4648dc65976ea7a24e84dade36d7a664736f6c63430008140033",
          "opcodes": "PUSH1 0x80 CALLVALUE PUSH2 0x79 JUMPI PUSH1 0x1F PUSH2 0x28AB CODESIZE DUP2 SWAP1 SUB SWAP2 DUP3 ADD PUSH1 0x1F NOT AND DUP4 ADD SWAP2 PUSH1 0x1 PUSH1 0x1 PUSH1 0x40 SHL SUB DUP4 GT DUP5 DUP5 LT OR PUSH2 0x7E JUMPI DUP1 DUP5 SWAP3 PUSH1 0x20 SWAP5 PUSH1 0x40 MSTORE DUP4 CODECOPY DUP2 ADD SUB SLT PUSH2 0x79 JUMPI MLOAD PUSH1 0x1 PUSH1 0x1 PUSH1 0xA0 SHL SUB DUP2 AND SWAP1 DUP2 SWAP1 SUB PUSH2 0x79 JUMPI PUSH1 0x1 PUSH1 0x0 SSTORE PUSH1 0x4 DUP1 SLOAD PUSH1 0x1 PUSH1 0x1 PUSH1 0xA0 SHL SUB NOT AND SWAP2 SWAP1 SWAP2 OR SWAP1 SSTORE PUSH1 0x40 MLOAD PUSH2 0x2816 SWAP1 DUP2 PUSH2 0x95 DUP3 CODECOPY RETURN JUMPDEST PUSH1 0x0 DUP1 REVERT JUMPDEST PUSH4 0x4E487B71 PUSH1 0xE0 SHL PUSH1 0x0 MSTORE PUSH1 0x41 PUSH1 0x4 MSTORE PUSH1 0x24 PUSH1 0x0 REVERT INVALID PUSH1 0x80 PUSH1 0x40 MSTORE PUSH1 0x4 DUP1 CALLDATASIZE LT ISZERO PUSH2 0x13 JUMPI PUSH1 0x0 DUP1 REVERT JUMPDEST PUSH1 0x0 DUP1 CALLDATALOAD PUSH1 0xE0 SHR DUP1 PUSH4 0x16363FA EQ PUSH2 0xFC1 JUMPI DUP1 PUSH4 0x1A13CC59 EQ PUSH2 0xDD2 JUMPI DUP1 PUSH4 0x1CAD3AC5 EQ PUSH2 0xD8F JUMPI DUP1 PUSH4 0x318BB5C7 EQ PUSH2 0xB3D JUMPI DUP1 PUSH4 0x3829F313 EQ PUSH2 0xB15 JUMPI DUP1 PUSH4 0x7791B330 EQ PUSH2 0xA95 JUMPI DUP1 PUSH4 0x93EC02F1 EQ PUSH2 0x907 JUMPI DUP1 PUSH4 0x987EE156 EQ PUSH2 0x868 JUMPI DUP1 PUSH4 0x990D6459 EQ PUSH2 0x793 JUMPI DUP1 PUSH4 0x9992B606 EQ PUSH2 0x707 JUMPI DUP1 PUSH4 0x9DEE74D5 EQ PUSH2 0x664 JUMPI DUP1 PUSH4 0xA39249B8 EQ PUSH2 0x5E8 JUMPI DUP1 PUSH4 0xA97CE3C2 EQ PUSH2 0x496 JUMPI DUP1 PUSH4 0xBDDFF4D8 EQ PUSH2 0x45D JUMPI DUP1 PUSH4 0xD41AAB23 EQ PUSH2 0x1E6 JUMPI PUSH4 0xE607A8BA EQ PUSH2 0xCE JUMPI PUSH1 0x0 DUP1 REVERT JUMPDEST CALLVALUE PUSH2 0x1A3 JUMPI DUP1 PUSH1 0x3 NOT CALLDATASIZE ADD SLT PUSH2 0x1A3 JUMPI CALLER DUP2 MSTORE PUSH1 0x20 PUSH1 0x3 DUP2 MSTORE PUSH1 0x40 DUP3 KECCAK256 SLOAD TIMESTAMP SUB TIMESTAMP DUP2 GT PUSH2 0x1D3 JUMPI PUSH3 0x15180 GT PUSH2 0x1BC JUMPI DUP1 DUP3 SWAP4 CALLER DUP5 MSTORE PUSH1 0x3 DUP3 MSTORE TIMESTAMP PUSH1 0x40 DUP6 KECCAK256 SSTORE PUSH1 0x44 PUSH1 0x1 DUP1 PUSH1 0xA0 SHL SUB DUP3 SLOAD AND SWAP2 PUSH1 0x40 MLOAD SWAP6 DUP7 SWAP4 DUP5 SWAP3 PUSH4 0xA9059CBB PUSH1 0xE0 SHL DUP5 MSTORE CALLER SWAP1 DUP5 ADD MSTORE PUSH9 0x3635C9ADC5DEA00000 PUSH1 0x24 DUP5 ADD MSTORE GAS CALL DUP1 ISZERO PUSH2 0x1B1 JUMPI PUSH2 0x177 JUMPI JUMPDEST DUP3 CALLER PUSH32 0x561F98ADFB5DF58A7C3C03F4ADA643CC46C1A5291389819DBD6D01FE49048149 DUP3 DUP1 LOG2 DUP1 RETURN JUMPDEST DUP2 DUP2 RETURNDATASIZE DUP4 GT PUSH2 0x1AA JUMPI JUMPDEST PUSH2 0x18B DUP2 DUP4 PUSH2 0x12FD JUMP JUMPDEST DUP2 ADD SUB SLT PUSH2 0x1A6 JUMPI MLOAD DUP1 ISZERO ISZERO SUB PUSH2 0x1A3 JUMPI CODESIZE DUP1 PUSH2 0x14E JUMP JUMPDEST DUP1 REVERT JUMPDEST POP DUP1 REVERT JUMPDEST POP RETURNDATASIZE PUSH2 0x181 JUMP JUMPDEST PUSH1 0x40 MLOAD RETURNDATASIZE DUP6 DUP3 RETURNDATACOPY RETURNDATASIZE SWAP1 REVERT JUMPDEST PUSH1 0x40 MLOAD PUSH4 0xFCA47E31 PUSH1 0xE0 SHL DUP2 MSTORE CALLER DUP2 DUP6 ADD MSTORE PUSH1 0x24 SWAP1 REVERT JUMPDEST PUSH4 0x4E487B71 PUSH1 0xE0 SHL DUP4 MSTORE PUSH1 0x11 DUP5 MSTORE PUSH1 0x24 DUP4 REVERT JUMPDEST POP SWAP1 PUSH1 0x60 SWAP1 DUP2 PUSH1 0x3 NOT CALLDATASIZE ADD SLT PUSH2 0x459 JUMPI DUP1 CALLDATALOAD PUSH1 0x1 PUSH1 0x1 PUSH1 0x40 SHL SUB DUP2 GT PUSH2 0x455 JUMPI PUSH2 0x213 SWAP1 CALLDATASIZE SWAP1 DUP4 ADD PUSH2 0x1339 JUMP JUMPDEST PUSH1 0x1 PUSH1 0x1 PUSH1 0xA0 SHL SUB PUSH1 0x24 DUP1 CALLDATALOAD DUP3 DUP2 AND SWAP6 SWAP4 SWAP5 SWAP2 SWAP4 SWAP2 SWAP1 DUP7 SWAP1 SUB PUSH2 0x451 JUMPI PUSH1 0x44 SWAP4 DUP5 CALLDATALOAD SWAP3 PUSH1 0x2 DUP10 SLOAD EQ PUSH2 0x440 JUMPI PUSH1 0x2 DUP10 SSTORE DUP9 JUMPDEST PUSH1 0x5 SLOAD DUP2 LT ISZERO PUSH2 0x432 JUMPI PUSH2 0x26D DUP9 PUSH2 0x268 PUSH1 0x9 PUSH2 0x261 DUP6 PUSH2 0x1620 JUMP JUMPDEST POP ADD PUSH2 0x23C1 JUMP JUMPDEST PUSH2 0x2465 JUMP JUMPDEST PUSH2 0x27F JUMPI PUSH2 0x27A SWAP1 PUSH2 0x23B2 JUMP JUMPDEST PUSH2 0x245 JUMP JUMPDEST SWAP5 SWAP6 SWAP7 SWAP8 PUSH2 0x295 PUSH2 0x28F DUP8 PUSH2 0x1620 JUMP JUMPDEST POP PUSH2 0x25ED JUMP JUMPDEST SWAP8 DUP9 MLOAD SWAP2 DUP3 CALLVALUE LT PUSH2 0x403 JUMPI POP POP POP POP DUP6 MLOAD SWAP5 DUP6 DUP5 MUL SWAP6 DUP5 DUP8 DIV EQ DUP5 ISZERO OR ISZERO PUSH2 0x3F1 JUMPI PUSH1 0x40 MLOAD SWAP6 PUSH2 0x2C4 DUP8 PUSH2 0x12E2 JUMP JUMPDEST CALLER DUP8 MSTORE PUSH1 0x20 SWAP5 DUP6 DUP9 ADD MSTORE PUSH1 0x40 DUP8 ADD MSTORE DUP4 DUP8 ADD MLOAD AND DUP9 MSTORE PUSH1 0x1 SWAP4 DUP5 DUP5 MSTORE PUSH2 0x301 DUP5 PUSH1 0x40 DUP12 KECCAK256 PUSH1 0xE0 DUP11 ADD MLOAD SWAP1 DUP3 PUSH1 0x40 MLOAD SWAP5 DUP4 DUP7 DUP1 SWAP6 MLOAD SWAP4 DUP5 SWAP3 ADD PUSH2 0x1385 JUMP JUMPDEST DUP3 ADD SWAP1 DUP2 MSTORE SUB ADD SWAP1 KECCAK256 DUP1 SLOAD SWAP1 CALLVALUE DUP3 ADD DUP1 SWAP3 GT PUSH2 0x3DF JUMPI SSTORE PUSH1 0xC SWAP1 PUSH2 0x324 SWAP1 PUSH2 0x1620 JUMP JUMPDEST POP ADD SWAP2 DUP3 SLOAD SWAP5 PUSH1 0x1 PUSH1 0x40 SHL DUP7 LT ISZERO PUSH2 0x3CD JUMPI DUP6 ADD DUP1 DUP5 SSTORE DUP6 LT ISZERO PUSH2 0x3BC JUMPI POP POP DUP7 MSTORE DUP6 KECCAK256 DUP3 MLOAD PUSH1 0x3 SWAP1 SWAP3 MUL ADD DUP1 SLOAD PUSH1 0x1 PUSH1 0x1 PUSH1 0xA0 SHL SUB NOT AND PUSH1 0x1 PUSH1 0x1 PUSH1 0xA0 SHL SUB SWAP3 SWAP1 SWAP3 AND SWAP2 SWAP1 SWAP2 OR DUP2 SSTORE PUSH1 0x20 DUP3 ADD MLOAD PUSH1 0x1 DUP3 ADD SSTORE PUSH1 0x40 SWAP1 SWAP2 ADD MLOAD PUSH1 0x2 SWAP1 SWAP2 ADD SSTORE PUSH2 0x38F SWAP1 MLOAD SWAP2 PUSH2 0x2392 JUMP JUMPDEST CALLER PUSH32 0x253FCD678C758E0E03DBF3A0243701C7439C306A61158B3C522A811977299010 DUP5 DUP1 LOG4 JUMPDEST PUSH1 0x1 DUP2 SSTORE DUP1 RETURN JUMPDEST PUSH4 0x4E487B71 PUSH1 0xE0 SHL DUP10 MSTORE PUSH1 0x32 SWAP1 MSTORE DUP8 REVERT JUMPDEST POP PUSH4 0x4E487B71 PUSH1 0xE0 SHL DUP10 MSTORE PUSH1 0x41 SWAP1 MSTORE DUP8 REVERT JUMPDEST PUSH4 0x4E487B71 PUSH1 0xE0 SHL DUP12 MSTORE PUSH1 0x11 DUP6 MSTORE DUP4 DUP12 REVERT JUMPDEST POP PUSH4 0x4E487B71 PUSH1 0xE0 SHL DUP9 MSTORE PUSH1 0x11 DUP3 MSTORE DUP8 REVERT JUMPDEST PUSH1 0x40 MLOAD PUSH4 0xE90DB85 PUSH1 0xE3 SHL DUP2 MSTORE SWAP6 DUP7 ADD SWAP4 SWAP1 SWAP4 MSTORE DUP5 SWAP4 SWAP3 PUSH2 0x427 PUSH1 0x64 DUP7 ADD DUP13 PUSH2 0x13A8 JUMP JUMPDEST SWAP4 DUP6 ADD MSTORE DUP4 ADD MSTORE SUB SWAP1 REVERT JUMPDEST POP POP POP POP POP POP POP POP POP PUSH2 0x3B5 JUMP JUMPDEST PUSH1 0x40 MLOAD PUSH4 0x3EE5AEB5 PUSH1 0xE0 SHL DUP2 MSTORE DUP4 SWAP1 REVERT JUMPDEST DUP7 DUP1 REVERT JUMPDEST DUP4 DUP1 REVERT JUMPDEST DUP3 DUP1 REVERT JUMPDEST POP CALLVALUE PUSH2 0x1A3 JUMPI PUSH1 0x20 CALLDATASIZE PUSH1 0x3 NOT ADD SLT PUSH2 0x1A3 JUMPI PUSH1 0x20 SWAP1 PUSH1 0x40 SWAP1 PUSH1 0x1 PUSH1 0x1 PUSH1 0xA0 SHL SUB PUSH2 0x485 PUSH2 0x160A JUMP JUMPDEST AND DUP2 MSTORE PUSH1 0x3 DUP4 MSTORE KECCAK256 SLOAD PUSH1 0x40 MLOAD SWAP1 DUP2 MSTORE RETURN JUMPDEST POP SWAP1 CALLVALUE PUSH2 0x1A6 JUMPI PUSH1 0x20 DUP1 PUSH1 0x3 NOT CALLDATASIZE ADD SLT PUSH2 0x459 JUMPI DUP2 CALLDATALOAD PUSH1 0x1 PUSH1 0x1 PUSH1 0x40 SHL SUB DUP2 GT PUSH2 0x455 JUMPI PUSH2 0x4C7 SWAP1 CALLDATASIZE SWAP1 DUP5 ADD PUSH2 0x1339 JUMP JUMPDEST CALLER DUP5 MSTORE PUSH1 0x1 DUP3 MSTORE PUSH1 0x40 DUP5 KECCAK256 PUSH1 0x40 MLOAD DUP4 DUP2 DUP5 MLOAD SWAP4 DUP3 DUP7 ADD SWAP5 PUSH2 0x4E9 DUP2 DUP5 DUP9 PUSH2 0x1385 JUMP JUMPDEST DUP3 ADD SWAP1 DUP2 MSTORE SUB ADD SWAP1 KECCAK256 SLOAD SWAP1 DUP2 ISZERO PUSH2 0x5D7 JUMPI PUSH2 0x51C DUP5 DUP8 SWAP3 CALLER DUP5 MSTORE PUSH1 0x1 DUP3 MSTORE PUSH1 0x40 DUP5 KECCAK256 PUSH1 0x40 MLOAD DUP1 SWAP5 DUP2 SWAP4 DUP10 MLOAD SWAP3 DUP4 SWAP2 PUSH2 0x1385 JUMP JUMPDEST DUP3 ADD SWAP1 DUP2 MSTORE SUB ADD SWAP1 KECCAK256 SSTORE DUP5 DUP1 DUP1 DUP1 DUP5 CALLER GAS CALL SWAP2 DUP3 RETURNDATASIZE ISZERO PUSH2 0x5D2 JUMPI RETURNDATASIZE PUSH2 0x540 DUP2 PUSH2 0x131E JUMP JUMPDEST SWAP1 PUSH2 0x54E PUSH1 0x40 MLOAD SWAP3 DUP4 PUSH2 0x12FD JUMP JUMPDEST DUP2 MSTORE DUP8 DUP7 RETURNDATASIZE SWAP3 ADD RETURNDATACOPY JUMPDEST PUSH2 0x59D JUMPI JUMPDEST POP POP ISZERO PUSH2 0x567 JUMPI DUP3 DUP1 RETURN JUMPDEST PUSH1 0x40 MLOAD PUSH3 0x461BCD PUSH1 0xE5 SHL DUP2 MSTORE SWAP2 DUP3 ADD MSTORE PUSH1 0x10 PUSH1 0x24 DUP3 ADD MSTORE PUSH16 0x5472616E73666572206661696C656421 PUSH1 0x80 SHL PUSH1 0x44 DUP3 ADD MSTORE PUSH1 0x64 SWAP2 POP REVERT JUMPDEST PUSH2 0x5A6 SWAP1 PUSH2 0x2392 JUMP JUMPDEST CALLER PUSH32 0xF2CA3EFE12F71D386EF0FD2B75EBBEF402882711943CCB42D5BDB696FA7A1341 DUP8 DUP1 LOG4 CODESIZE DUP1 PUSH2 0x55C JUMP JUMPDEST PUSH2 0x557 JUMP JUMPDEST PUSH1 0x40 MLOAD PUSH4 0x125D726B PUSH1 0xE2 SHL DUP2 MSTORE DUP6 SWAP1 REVERT JUMPDEST POP SWAP1 CALLVALUE PUSH2 0x1A6 JUMPI PUSH1 0x40 CALLDATASIZE PUSH1 0x3 NOT ADD SLT PUSH2 0x1A6 JUMPI PUSH2 0x603 PUSH2 0x160A JUMP JUMPDEST SWAP1 PUSH1 0x24 CALLDATALOAD PUSH1 0x1 PUSH1 0x1 PUSH1 0x40 SHL SUB DUP2 GT PUSH2 0x455 JUMPI SWAP2 PUSH1 0x40 PUSH1 0x20 SWAP5 PUSH2 0x62C DUP7 SWAP5 PUSH2 0x652 SWAP7 CALLDATASIZE SWAP2 ADD PUSH2 0x1339 JUMP JUMPDEST PUSH1 0x1 PUSH1 0x1 PUSH1 0xA0 SHL SUB SWAP1 SWAP4 AND DUP2 MSTORE PUSH1 0x1 DUP5 MSTORE KECCAK256 PUSH1 0x40 MLOAD DUP3 MLOAD SWAP1 SWAP5 DUP6 SWAP4 DUP3 SWAP1 DUP6 SWAP1 DUP8 ADD PUSH2 0x1385 JUMP JUMPDEST DUP3 ADD SWAP1 DUP2 MSTORE SUB ADD SWAP1 KECCAK256 SLOAD PUSH1 0x40 MLOAD SWAP1 DUP2 MSTORE RETURN JUMPDEST POP SWAP1 CALLVALUE PUSH2 0x1A6 JUMPI PUSH1 0x20 CALLDATASIZE PUSH1 0x3 NOT ADD SLT PUSH2 0x1A6 JUMPI DUP1 CALLDATALOAD SWAP1 PUSH1 0x1 PUSH1 0x1 PUSH1 0x40 SHL SUB DUP3 GT PUSH2 0x459 JUMPI PUSH2 0x694 SWAP2 CALLDATASIZE SWAP2 ADD PUSH2 0x1339 JUMP JUMPDEST PUSH1 0x5 SLOAD SWAP1 PUSH2 0x6A1 DUP3 PUSH2 0x26DB JUMP JUMPDEST SWAP3 JUMPDEST DUP3 DUP2 LT PUSH2 0x6BC JUMPI PUSH1 0x40 MLOAD DUP1 PUSH2 0x6B8 DUP7 DUP3 PUSH2 0x13CD JUMP JUMPDEST SUB SWAP1 RETURN JUMPDEST DUP1 PUSH2 0x6D2 DUP4 PUSH2 0x268 PUSH1 0x2 PUSH2 0x261 PUSH2 0x6DB SWAP7 PUSH2 0x1620 JUMP JUMPDEST PUSH2 0x6E0 JUMPI PUSH2 0x23B2 JUMP JUMPDEST PUSH2 0x6A3 JUMP JUMPDEST PUSH2 0x6EC PUSH2 0x28F DUP3 PUSH2 0x1620 JUMP JUMPDEST PUSH2 0x6F6 DUP3 DUP8 PUSH2 0x278A JUMP JUMPDEST MSTORE PUSH2 0x701 DUP2 DUP7 PUSH2 0x278A JUMP JUMPDEST POP PUSH2 0x23B2 JUMP JUMPDEST POP CALLVALUE PUSH2 0x1A3 JUMPI DUP1 PUSH1 0x3 NOT CALLDATASIZE ADD SLT PUSH2 0x1A3 JUMPI PUSH1 0x5 SLOAD PUSH2 0x724 DUP2 PUSH2 0x24BA JUMP JUMPDEST SWAP1 PUSH2 0x732 PUSH1 0x40 MLOAD SWAP3 DUP4 PUSH2 0x12FD JUMP JUMPDEST DUP1 DUP3 MSTORE PUSH1 0x5 DUP4 MSTORE PUSH32 0x36B6384B5ECA791C62761152D0C79BB0604C104A5FB6F4EB0703F3154BB3DB0 SWAP3 PUSH1 0x20 DUP1 DUP5 ADD JUMPDEST DUP4 DUP4 LT PUSH2 0x776 JUMPI PUSH1 0x40 MLOAD DUP1 PUSH2 0x6B8 DUP8 DUP3 PUSH2 0x13CD JUMP JUMPDEST PUSH1 0xD DUP3 PUSH1 0x1 SWAP3 PUSH2 0x785 DUP10 PUSH2 0x25ED JUMP JUMPDEST DUP2 MSTORE ADD SWAP7 ADD SWAP3 ADD SWAP2 SWAP5 PUSH2 0x761 JUMP JUMPDEST POP SWAP1 CALLVALUE PUSH2 0x1A6 JUMPI PUSH1 0x40 CALLDATASIZE PUSH1 0x3 NOT ADD SLT PUSH2 0x1A6 JUMPI DUP1 CALLDATALOAD SWAP1 PUSH1 0x1 PUSH1 0x1 PUSH1 0x40 SHL SUB DUP3 GT PUSH2 0x459 JUMPI PUSH2 0x7C3 SWAP2 CALLDATASIZE SWAP2 ADD PUSH2 0x1339 JUMP JUMPDEST PUSH1 0x24 CALLDATALOAD SWAP1 DUP2 ISZERO ISZERO SWAP1 DUP2 DUP4 SUB PUSH2 0x455 JUMPI DUP4 JUMPDEST PUSH1 0x5 SLOAD DUP2 LT ISZERO PUSH2 0x861 JUMPI PUSH2 0x7F0 DUP3 PUSH2 0x268 PUSH1 0x9 PUSH2 0x261 DUP6 PUSH2 0x1620 JUMP JUMPDEST PUSH2 0x802 JUMPI PUSH2 0x7FD SWAP1 PUSH2 0x23B2 JUMP JUMPDEST PUSH2 0x7D4 JUMP JUMPDEST PUSH2 0x839 SWAP3 SWAP4 PUSH1 0x1 PUSH2 0x815 PUSH2 0x834 SWAP4 PUSH2 0x1620 JUMP JUMPDEST POP ADD DUP1 SLOAD PUSH1 0xFF PUSH1 0xA0 SHL NOT AND SWAP2 ISZERO ISZERO PUSH1 0xA0 SHL PUSH1 0xFF PUSH1 0xA0 SHL AND SWAP2 SWAP1 SWAP2 OR SWAP1 SSTORE JUMP JUMPDEST PUSH2 0x2392 JUMP JUMPDEST CALLER PUSH32 0x51DABE03DBC9869CDC42F327348910C055732B793C7AAADE368A32D8F3658E1E DUP5 DUP1 LOG4 DUP1 RETURN JUMPDEST POP POP POP POP DUP1 RETURN JUMPDEST POP CALLVALUE PUSH2 0x1A3 JUMPI PUSH1 0x20 DUP1 PUSH1 0x3 NOT CALLDATASIZE ADD SLT PUSH2 0x1A6 JUMPI PUSH2 0x6B8 PUSH1 0x40 DUP1 SWAP4 PUSH2 0x88A PUSH2 0x160A JUMP JUMPDEST PUSH1 0x60 DUP6 DUP5 MLOAD PUSH2 0x898 DUP2 PUSH2 0x127A JUMP JUMPDEST DUP3 DUP2 MSTORE ADD MSTORE PUSH1 0x1 PUSH1 0x1 PUSH1 0xA0 SHL SUB AND DUP2 MSTORE PUSH1 0x2 DUP5 MSTORE KECCAK256 DUP4 MLOAD SWAP3 SWAP1 PUSH2 0x8F4 SWAP1 PUSH2 0x8D6 SWAP1 PUSH1 0x1 SWAP1 PUSH2 0x8C5 DUP8 PUSH2 0x127A JUMP JUMPDEST PUSH2 0x8CE DUP2 PUSH2 0x23C1 JUMP JUMPDEST DUP8 MSTORE ADD PUSH2 0x23C1 JUMP JUMPDEST SWAP2 DUP1 DUP6 ADD SWAP3 DUP4 MSTORE DUP6 MLOAD SWAP6 DUP7 SWAP6 DUP3 DUP8 MSTORE MLOAD SWAP2 DUP7 ADD MSTORE PUSH1 0x60 DUP6 ADD SWAP1 PUSH2 0x13A8 JUMP JUMPDEST SWAP1 MLOAD DUP4 DUP3 SUB PUSH1 0x1F NOT ADD PUSH1 0x40 DUP6 ADD MSTORE PUSH2 0x13A8 JUMP JUMPDEST POP SWAP1 CALLVALUE PUSH2 0x1A6 JUMPI PUSH1 0xA0 CALLDATASIZE PUSH1 0x3 NOT ADD SLT PUSH2 0x1A6 JUMPI PUSH1 0x1 PUSH1 0x1 PUSH1 0x40 SHL SUB DUP2 CALLDATALOAD DUP2 DUP2 GT PUSH2 0x455 JUMPI PUSH2 0x938 SWAP1 CALLDATASIZE SWAP1 DUP5 ADD PUSH2 0x1339 JUMP JUMPDEST SWAP1 PUSH1 0x24 SWAP3 DUP4 CALLDATALOAD SWAP3 PUSH1 0x44 CALLDATALOAD DUP4 DUP2 GT PUSH2 0x451 JUMPI PUSH2 0x956 SWAP1 CALLDATASIZE SWAP1 DUP5 ADD PUSH2 0x1339 JUMP JUMPDEST SWAP3 PUSH1 0x64 CALLDATALOAD SWAP1 DUP2 GT PUSH2 0x451 JUMPI PUSH2 0x96E SWAP1 CALLDATASIZE SWAP1 DUP5 ADD PUSH2 0x1339 JUMP JUMPDEST SWAP3 PUSH1 0x84 CALLDATALOAD PUSH1 0x1 PUSH1 0x1 PUSH1 0xA0 SHL SUB DUP2 AND SWAP4 SWAP1 DUP5 SWAP1 SUB PUSH2 0xA91 JUMPI DUP8 JUMPDEST PUSH1 0x5 DUP1 SLOAD DUP3 LT ISZERO PUSH2 0xA85 JUMPI PUSH2 0x9A4 DUP8 PUSH2 0x268 PUSH1 0x9 PUSH2 0x261 DUP7 PUSH2 0x1620 JUMP JUMPDEST PUSH2 0x9B7 JUMPI POP PUSH2 0x9B2 SWAP1 PUSH2 0x23B2 JUMP JUMPDEST PUSH2 0x987 JUMP JUMPDEST SWAP2 SWAP3 SWAP4 SWAP5 SWAP6 SWAP7 SWAP8 SWAP1 PUSH2 0x9CA PUSH1 0xB SWAP2 PUSH2 0x1620 JUMP JUMPDEST POP ADD SWAP1 PUSH1 0x40 MLOAD SWAP5 PUSH2 0x9DA DUP7 PUSH2 0x12C7 JUMP JUMPDEST CALLER DUP7 MSTORE PUSH1 0x20 SWAP10 DUP11 DUP8 ADD MSTORE DUP7 PUSH1 0x40 DUP8 ADD MSTORE TIMESTAMP PUSH1 0x60 DUP8 ADD MSTORE PUSH1 0x80 DUP7 ADD MSTORE DUP2 SLOAD SWAP4 PUSH1 0x1 PUSH1 0x40 SHL DUP6 LT ISZERO PUSH2 0xA74 JUMPI PUSH1 0x1 DUP6 ADD DUP1 DUP5 SSTORE DUP6 LT ISZERO PUSH2 0xA63 JUMPI POP POP PUSH2 0xA56 SWAP4 PUSH2 0xA50 SWAP4 PUSH32 0x8BB52EEE1B68032569FA2C483528D7D2B7DB7824B9704EE675F7202956220865 SWAP7 SWAP4 PUSH2 0x834 SWAP4 DUP13 MSTORE DUP11 DUP13 KECCAK256 SWAP2 MUL ADD PUSH2 0x170C JUMP JUMPDEST SWAP4 PUSH2 0x2392 JUMP JUMPDEST SWAP4 PUSH1 0x40 MLOAD SWAP3 DUP4 MSTORE CALLER SWAP3 LOG4 DUP1 RETURN JUMPDEST PUSH4 0x4E487B71 PUSH1 0xE0 SHL DUP12 MSTORE PUSH1 0x32 SWAP1 MSTORE DUP10 REVERT JUMPDEST PUSH4 0x4E487B71 PUSH1 0xE0 SHL DUP12 MSTORE PUSH1 0x41 SWAP1 MSTORE DUP10 REVERT JUMPDEST POP POP POP POP POP POP POP POP POP DUP1 RETURN JUMPDEST DUP8 DUP1 REVERT JUMPDEST POP CALLVALUE PUSH2 0x1A3 JUMPI DUP1 PUSH1 0x3 NOT CALLDATASIZE ADD SLT PUSH2 0x1A3 JUMPI PUSH1 0x5 SLOAD PUSH2 0xAB2 DUP2 PUSH2 0x26DB JUMP JUMPDEST SWAP2 JUMPDEST DUP2 DUP2 LT PUSH2 0xAC9 JUMPI PUSH1 0x40 MLOAD DUP1 PUSH2 0x6B8 DUP6 DUP3 PUSH2 0x13CD JUMP JUMPDEST DUP1 PUSH2 0xAD6 PUSH2 0xAEF SWAP3 PUSH2 0x1620 JUMP JUMPDEST POP PUSH1 0x1 ADD SLOAD PUSH1 0x1 PUSH1 0x1 PUSH1 0xA0 SHL SUB AND CALLER EQ PUSH2 0xAF4 JUMPI PUSH2 0x23B2 JUMP JUMPDEST PUSH2 0xAB4 JUMP JUMPDEST PUSH2 0xB00 PUSH2 0x28F DUP3 PUSH2 0x1620 JUMP JUMPDEST PUSH2 0xB0A DUP3 DUP7 PUSH2 0x278A JUMP JUMPDEST MSTORE PUSH2 0x701 DUP2 DUP6 PUSH2 0x278A JUMP JUMPDEST POP SWAP1 CALLVALUE PUSH2 0x1A6 JUMPI DUP2 PUSH1 0x3 NOT CALLDATASIZE ADD SLT PUSH2 0x1A6 JUMPI SLOAD PUSH1 0x40 MLOAD PUSH1 0x1 PUSH1 0x1 PUSH1 0xA0 SHL SUB SWAP1 SWAP2 AND DUP2 MSTORE PUSH1 0x20 SWAP1 RETURN JUMPDEST POP SWAP1 CALLVALUE PUSH2 0x1A6 JUMPI PUSH1 0xE0 CALLDATASIZE PUSH1 0x3 NOT ADD SLT PUSH2 0x1A6 JUMPI PUSH1 0x1 PUSH1 0x1 PUSH1 0x40 SHL SUB DUP2 CALLDATALOAD DUP2 DUP2 GT PUSH2 0x455 JUMPI PUSH2 0xB6E SWAP1 CALLDATASIZE SWAP1 DUP5 ADD PUSH2 0x1339 JUMP JUMPDEST PUSH1 0x44 CALLDATALOAD DUP3 DUP2 GT PUSH2 0xD8B JUMPI PUSH2 0xB85 SWAP1 CALLDATASIZE SWAP1 DUP6 ADD PUSH2 0x1339 JUMP JUMPDEST SWAP2 PUSH1 0x64 CALLDATALOAD DUP2 DUP2 GT PUSH2 0xD87 JUMPI PUSH2 0xB9D SWAP1 CALLDATASIZE SWAP1 DUP7 ADD PUSH2 0x1339 JUMP JUMPDEST SWAP4 PUSH1 0x84 CALLDATALOAD DUP3 DUP2 GT PUSH2 0x451 JUMPI PUSH2 0xBB5 SWAP1 CALLDATASIZE SWAP1 DUP4 ADD PUSH2 0x1339 JUMP JUMPDEST SWAP2 PUSH1 0xA4 CALLDATALOAD DUP2 DUP2 GT PUSH2 0xA91 JUMPI PUSH2 0xBCD SWAP1 CALLDATASIZE SWAP1 DUP5 ADD PUSH2 0x1339 JUMP JUMPDEST SWAP2 PUSH1 0xC4 CALLDATALOAD SWAP2 DUP3 GT PUSH2 0xA91 JUMPI PUSH2 0xBE4 SWAP2 CALLDATASIZE SWAP2 ADD PUSH2 0x1339 JUMP JUMPDEST SWAP2 DUP7 JUMPDEST PUSH1 0x5 SLOAD DUP2 LT ISZERO PUSH2 0xD7D JUMPI PUSH2 0xC03 DUP6 PUSH2 0x268 PUSH1 0x9 PUSH2 0x261 DUP6 PUSH2 0x1620 JUMP JUMPDEST PUSH2 0xC15 JUMPI PUSH2 0xC10 SWAP1 PUSH2 0x23B2 JUMP JUMPDEST PUSH2 0xBE7 JUMP JUMPDEST SWAP3 SWAP4 SWAP5 SWAP6 PUSH2 0xC22 DUP5 PUSH2 0x1620 JUMP JUMPDEST POP PUSH1 0x1 SWAP1 DUP2 ADD SLOAD PUSH1 0x1 PUSH1 0x1 PUSH1 0xA0 SHL SUB AND SWAP6 SWAP1 PUSH2 0xC3D DUP7 PUSH2 0x1620 JUMP JUMPDEST POP ADD SLOAD SWAP3 PUSH2 0xC4A DUP7 PUSH2 0x1620 JUMP JUMPDEST POP SWAP5 PUSH2 0xC55 DUP8 PUSH2 0x1620 JUMP JUMPDEST POP PUSH2 0xC5F DUP9 PUSH2 0x1620 JUMP JUMPDEST POP SWAP4 PUSH2 0xC6A DUP10 PUSH2 0x1620 JUMP JUMPDEST POP PUSH1 0xA ADD SLOAD SWAP6 PUSH2 0xC79 DUP11 PUSH2 0x1620 JUMP JUMPDEST POP SWAP8 PUSH2 0xC84 DUP12 PUSH2 0x1620 JUMP JUMPDEST POP SWAP10 PUSH1 0x40 MLOAD SWAP13 PUSH2 0xC93 DUP15 PUSH2 0x12AB JUMP JUMPDEST PUSH1 0x24 CALLDATALOAD DUP15 MSTORE PUSH1 0x20 DUP15 ADD MSTORE PUSH1 0xFF PUSH1 0xA0 SWAP3 DUP4 SHR AND ISZERO ISZERO PUSH1 0x40 DUP15 ADD MSTORE PUSH2 0xCB8 SWAP1 PUSH1 0x2 ADD PUSH2 0x23C1 JUMP JUMPDEST PUSH1 0x60 DUP14 ADD MSTORE DUP14 PUSH1 0x80 DUP14 ADD MSTORE DUP12 ADD MSTORE PUSH1 0xC0 DUP11 ADD MSTORE PUSH1 0x6 ADD PUSH2 0xCD7 SWAP1 PUSH2 0x23C1 JUMP JUMPDEST PUSH1 0xE0 DUP10 ADD MSTORE PUSH2 0x100 DUP9 ADD MSTORE PUSH2 0x120 DUP8 ADD MSTORE PUSH1 0x9 ADD PUSH2 0xCF4 SWAP1 PUSH2 0x23C1 JUMP JUMPDEST PUSH2 0x140 DUP7 ADD MSTORE PUSH2 0x160 DUP6 ADD MSTORE PUSH1 0xB ADD PUSH2 0xD0C SWAP1 PUSH2 0x24D1 JUMP JUMPDEST PUSH2 0x180 DUP5 ADD MSTORE PUSH1 0xC ADD PUSH2 0xD1E SWAP1 PUSH2 0x2570 JUMP JUMPDEST PUSH2 0x1A0 DUP4 ADD MSTORE PUSH2 0xD2D SWAP1 PUSH2 0x1620 JUMP JUMPDEST PUSH2 0xD37 SWAP3 SWAP2 PUSH2 0x193C JUMP JUMPDEST PUSH2 0xD40 SWAP1 PUSH2 0x2392 JUMP JUMPDEST SWAP1 PUSH2 0xD4A SWAP1 PUSH2 0x2392 JUMP JUMPDEST SWAP1 PUSH1 0x40 MLOAD PUSH1 0x24 CALLDATALOAD DUP2 MSTORE CALLER SWAP1 PUSH1 0x20 PUSH32 0x384C5F98880FAD6ED933597FE4BECD24246DB16D5A262945362C7ACE0A0E47B5 SWAP2 LOG4 DUP1 RETURN JUMPDEST POP POP POP POP POP POP POP DUP1 RETURN JUMPDEST DUP6 DUP1 REVERT JUMPDEST DUP5 DUP1 REVERT JUMPDEST POP CALLVALUE PUSH2 0x1A3 JUMPI PUSH1 0x20 CALLDATASIZE PUSH1 0x3 NOT ADD SLT PUSH2 0x1A3 JUMPI DUP2 CALLDATALOAD SWAP1 PUSH1 0x1 PUSH1 0x1 PUSH1 0x40 SHL SUB DUP3 GT PUSH2 0x1A3 JUMPI PUSH1 0x20 PUSH2 0xDC8 PUSH2 0xDC3 CALLDATASIZE DUP6 DUP8 ADD PUSH2 0x1339 JUMP JUMPDEST PUSH2 0x279E JUMP JUMPDEST PUSH1 0x40 MLOAD SWAP1 ISZERO ISZERO DUP2 MSTORE RETURN JUMPDEST POP SWAP1 CALLVALUE PUSH2 0x1A6 JUMPI PUSH2 0x140 SWAP1 DUP2 PUSH1 0x3 NOT CALLDATASIZE ADD SLT PUSH2 0x459 JUMPI DUP1 CALLDATALOAD SWAP1 PUSH1 0x1 PUSH1 0x1 PUSH1 0x40 SHL SUB SWAP1 PUSH1 0x24 CALLDATALOAD DUP3 DUP2 GT PUSH2 0xD87 JUMPI PUSH2 0xE0B SWAP1 CALLDATASIZE SWAP1 DUP4 ADD PUSH2 0x1339 JUMP JUMPDEST SWAP1 PUSH1 0x44 CALLDATALOAD DUP4 DUP2 GT PUSH2 0x451 JUMPI PUSH2 0xE23 SWAP1 CALLDATASIZE SWAP1 DUP4 ADD PUSH2 0x1339 JUMP JUMPDEST SWAP5 PUSH1 0x64 CALLDATALOAD DUP5 DUP2 GT PUSH2 0xA91 JUMPI PUSH2 0xE3B SWAP1 CALLDATASIZE SWAP1 DUP5 ADD PUSH2 0x1339 JUMP JUMPDEST SWAP4 PUSH1 0x84 CALLDATALOAD DUP2 DUP2 GT PUSH2 0xFBD JUMPI PUSH2 0xE53 SWAP1 CALLDATASIZE SWAP1 DUP6 ADD PUSH2 0x1339 JUMP JUMPDEST PUSH1 0xA4 CALLDATALOAD DUP3 DUP2 GT PUSH2 0xFB9 JUMPI PUSH2 0xE6A SWAP1 CALLDATASIZE SWAP1 DUP7 ADD PUSH2 0x1339 JUMP JUMPDEST PUSH1 0xC4 CALLDATALOAD DUP4 DUP2 GT PUSH2 0xFB5 JUMPI PUSH2 0xE81 SWAP1 CALLDATASIZE SWAP1 DUP8 ADD PUSH2 0x1339 JUMP JUMPDEST SWAP2 PUSH1 0xE4 CALLDATALOAD DUP5 DUP2 GT PUSH2 0xFB1 JUMPI PUSH2 0xE99 SWAP1 CALLDATASIZE SWAP1 DUP9 ADD PUSH2 0x1339 JUMP JUMPDEST SWAP4 PUSH2 0x104 CALLDATALOAD SWAP1 DUP2 GT PUSH2 0xFB1 JUMPI PUSH2 0xEB2 SWAP1 CALLDATASIZE SWAP1 DUP9 ADD PUSH2 0x1339 JUMP JUMPDEST SWAP8 DUP10 ISZERO PUSH2 0xFA0 JUMPI SWAP1 DUP9 SWAP6 SWAP5 SWAP4 SWAP3 SWAP2 PUSH1 0x40 MLOAD SWAP9 PUSH2 0xECD DUP11 PUSH2 0x12AB JUMP JUMPDEST DUP12 DUP11 MSTORE CALLER PUSH1 0x20 DUP12 ADD MSTORE DUP14 PUSH1 0x40 DUP12 ADD MSTORE PUSH1 0x60 DUP11 ADD MSTORE DUP12 PUSH1 0x80 DUP11 ADD MSTORE PUSH1 0xA0 DUP10 ADD MSTORE PUSH1 0xC0 DUP9 ADD MSTORE PUSH1 0xE0 DUP8 ADD MSTORE PUSH2 0x100 DUP7 ADD MSTORE PUSH2 0x120 DUP6 ADD MSTORE DUP4 ADD MSTORE PUSH2 0x124 CALLDATALOAD PUSH2 0x160 DUP4 ADD MSTORE PUSH1 0x60 PUSH2 0x180 DUP4 ADD MSTORE PUSH1 0x60 PUSH2 0x1A0 DUP4 ADD MSTORE PUSH1 0x5 SLOAD SWAP1 PUSH1 0x1 PUSH1 0x40 SHL DUP3 LT ISZERO PUSH2 0xF8D JUMPI POP PUSH2 0xF4E SWAP3 SWAP2 PUSH2 0xF48 DUP3 PUSH1 0x1 PUSH2 0x834 SWAP5 ADD PUSH1 0x5 SSTORE PUSH2 0x1620 JUMP JUMPDEST SWAP1 PUSH2 0x193C JUMP JUMPDEST SWAP2 PUSH32 0x9EC512F6157DAF19471FDB4ABC754CD622CE54571FDA42C4C416FF378B041583 PUSH1 0x40 MLOAD PUSH1 0x20 DUP2 MSTORE DUP1 PUSH2 0xF87 CALLER SWAP5 PUSH1 0x20 DUP4 ADD SWAP1 PUSH2 0x13A8 JUMP JUMPDEST SUB SWAP1 LOG4 DUP1 RETURN JUMPDEST PUSH4 0x4E487B71 PUSH1 0xE0 SHL DUP8 MSTORE PUSH1 0x41 SWAP1 MSTORE PUSH1 0x24 DUP7 REVERT JUMPDEST PUSH1 0x40 MLOAD PUSH4 0x5EBDE5F5 PUSH1 0xE1 SHL DUP2 MSTORE DUP8 SWAP1 REVERT JUMPDEST DUP12 DUP1 REVERT JUMPDEST DUP11 DUP1 REVERT JUMPDEST DUP10 DUP1 REVERT JUMPDEST DUP9 DUP1 REVERT JUMPDEST POP SWAP1 CALLVALUE PUSH2 0x1A6 JUMPI PUSH1 0x40 CALLDATASIZE PUSH1 0x3 NOT ADD SLT PUSH2 0x1A6 JUMPI PUSH1 0x1 PUSH1 0x1 PUSH1 0x40 SHL SUB SWAP1 DUP1 CALLDATALOAD DUP3 DUP2 GT PUSH2 0x455 JUMPI PUSH2 0xFF3 SWAP1 CALLDATASIZE SWAP1 DUP4 ADD PUSH2 0x1339 JUMP JUMPDEST PUSH1 0x24 CALLDATALOAD DUP4 DUP2 GT PUSH2 0xD8B JUMPI PUSH2 0x100A SWAP1 CALLDATASIZE SWAP1 DUP5 ADD PUSH2 0x1339 JUMP JUMPDEST SWAP3 PUSH1 0x40 MLOAD SWAP1 PUSH2 0x1018 DUP3 PUSH2 0x127A JUMP JUMPDEST DUP3 DUP3 MSTORE PUSH1 0x20 SWAP2 DUP3 DUP2 ADD SWAP3 DUP7 DUP5 MSTORE CALLER DUP9 MSTORE PUSH1 0x2 DUP2 MSTORE PUSH1 0x40 DUP9 KECCAK256 SWAP2 MLOAD SWAP1 DUP2 MLOAD DUP5 DUP2 GT PUSH2 0x1267 JUMPI DUP1 PUSH2 0x1047 DUP6 SLOAD PUSH2 0x1671 JUMP JUMPDEST SWAP4 DUP12 PUSH1 0x1F SWAP6 DUP6 DUP8 DUP3 GT PUSH2 0x123B JUMPI JUMPDEST POP POP POP DUP4 SWAP1 DUP6 DUP4 GT PUSH1 0x1 EQ PUSH2 0x11D8 JUMPI DUP13 SWAP3 PUSH2 0x11CD JUMPI JUMPDEST POP POP DUP2 PUSH1 0x1 SHL SWAP2 PUSH1 0x0 NOT SWAP1 PUSH1 0x3 SHL SHR NOT AND OR DUP4 SSTORE JUMPDEST PUSH1 0x1 DUP1 SWAP4 ADD SWAP5 MLOAD SWAP7 DUP8 MLOAD SWAP5 DUP6 GT PUSH2 0x11BA JUMPI POP PUSH2 0x109C DUP6 SLOAD PUSH2 0x1671 JUMP JUMPDEST DUP3 DUP2 GT PUSH2 0x1184 JUMPI JUMPDEST POP DUP1 SWAP2 DUP5 GT PUSH1 0x1 EQ PUSH2 0x1116 JUMPI POP SWAP2 DUP1 DUP1 SWAP3 PUSH2 0x10DC SWAP7 SWAP6 SWAP5 PUSH2 0x10E2 SWAP9 DUP12 SWAP5 PUSH2 0x110B JUMPI JUMPDEST POP POP SHL SWAP2 PUSH1 0x0 NOT SWAP1 PUSH1 0x3 SHL SHR NOT AND OR SWAP1 SSTORE PUSH2 0x2392 JUMP JUMPDEST SWAP2 PUSH2 0x2392 JUMP JUMPDEST SWAP1 CALLER PUSH32 0x8FB63D21CD1646C22E90408D0771D27886ED526A60064418E44B4E4A35BF6A07 DUP5 DUP1 LOG4 DUP1 RETURN JUMPDEST ADD MLOAD SWAP3 POP CODESIZE DUP1 PUSH2 0x10C6 JUMP JUMPDEST SWAP2 SWAP4 SWAP5 SWAP6 PUSH1 0x1F NOT DUP5 AND DUP7 DUP11 MSTORE DUP4 DUP11 KECCAK256 SWAP4 DUP11 SWAP1 JUMPDEST DUP3 DUP3 LT PUSH2 0x116D JUMPI POP POP SWAP2 PUSH2 0x10E2 SWAP8 SWAP6 SWAP4 SWAP2 DUP6 PUSH2 0x10DC SWAP9 SWAP7 SWAP5 LT PUSH2 0x1154 JUMPI JUMPDEST POP POP POP DUP2 SHL ADD SWAP1 SSTORE PUSH2 0x2392 JUMP JUMPDEST ADD MLOAD PUSH1 0x0 NOT PUSH1 0xF8 DUP5 PUSH1 0x3 SHL AND SHR NOT AND SWAP1 SSTORE CODESIZE DUP1 DUP1 PUSH2 0x1147 JUMP JUMPDEST DUP1 DUP9 DUP7 SWAP8 DUP3 SWAP5 SWAP8 DUP8 ADD MLOAD DUP2 SSTORE ADD SWAP7 ADD SWAP5 ADD SWAP1 PUSH2 0x1129 JUMP JUMPDEST PUSH2 0x11AB SWAP1 DUP7 DUP12 MSTORE DUP3 DUP12 KECCAK256 DUP5 DUP1 DUP9 ADD PUSH1 0x5 SHR DUP3 ADD SWAP3 DUP6 DUP10 LT PUSH2 0x11B1 JUMPI JUMPDEST ADD PUSH1 0x5 SHR ADD SWAP1 PUSH2 0x16AB JUMP JUMPDEST CODESIZE PUSH2 0x10A4 JUMP JUMPDEST SWAP3 POP DUP2 SWAP3 PUSH2 0x11A0 JUMP JUMPDEST PUSH4 0x4E487B71 PUSH1 0xE0 SHL DUP11 MSTORE PUSH1 0x41 SWAP1 MSTORE PUSH1 0x24 DUP10 REVERT JUMPDEST ADD MLOAD SWAP1 POP CODESIZE DUP1 PUSH2 0x106B JUMP JUMPDEST DUP7 DUP14 MSTORE DUP5 DUP14 KECCAK256 SWAP3 POP PUSH1 0x1F NOT DUP5 AND DUP14 JUMPDEST DUP7 DUP3 DUP3 LT PUSH2 0x1225 JUMPI POP POP SWAP1 DUP5 PUSH1 0x1 SWAP6 SWAP5 SWAP4 SWAP3 LT PUSH2 0x120C JUMPI JUMPDEST POP POP POP DUP2 SHL ADD DUP4 SSTORE PUSH2 0x1080 JUMP JUMPDEST ADD MLOAD PUSH1 0x0 NOT PUSH1 0xF8 DUP5 PUSH1 0x3 SHL AND SHR NOT AND SWAP1 SSTORE CODESIZE DUP1 DUP1 PUSH2 0x11FF JUMP JUMPDEST PUSH1 0x1 DUP6 SWAP7 DUP3 SWAP4 SWAP7 DUP7 ADD MLOAD DUP2 SSTORE ADD SWAP6 ADD SWAP4 ADD PUSH2 0x11E7 JUMP JUMPDEST DUP3 DUP10 PUSH2 0x125F SWAP5 MSTORE KECCAK256 DUP8 DUP1 DUP7 ADD PUSH1 0x5 SHR DUP3 ADD SWAP3 DUP9 DUP8 LT PUSH2 0x11B1 JUMPI ADD PUSH1 0x5 SHR ADD SWAP1 PUSH2 0x16AB JUMP JUMPDEST DUP12 CODESIZE DUP6 PUSH2 0x1055 JUMP JUMPDEST PUSH4 0x4E487B71 PUSH1 0xE0 SHL DUP11 MSTORE PUSH1 0x41 DUP9 MSTORE PUSH1 0x24 DUP11 REVERT JUMPDEST PUSH1 0x40 DUP2 ADD SWAP1 DUP2 LT PUSH1 0x1 PUSH1 0x1 PUSH1 0x40 SHL SUB DUP3 GT OR PUSH2 0x1295 JUMPI PUSH1 0x40 MSTORE JUMP JUMPDEST PUSH4 0x4E487B71 PUSH1 0xE0 SHL PUSH1 0x0 MSTORE PUSH1 0x41 PUSH1 0x4 MSTORE PUSH1 0x24 PUSH1 0x0 REVERT JUMPDEST PUSH2 0x1C0 DUP2 ADD SWAP1 DUP2 LT PUSH1 0x1 PUSH1 0x1 PUSH1 0x40 SHL SUB DUP3 GT OR PUSH2 0x1295 JUMPI PUSH1 0x40 MSTORE JUMP JUMPDEST PUSH1 0xA0 DUP2 ADD SWAP1 DUP2 LT PUSH1 0x1 PUSH1 0x1 PUSH1 0x40 SHL SUB DUP3 GT OR PUSH2 0x1295 JUMPI PUSH1 0x40 MSTORE JUMP JUMPDEST PUSH1 0x60 DUP2 ADD SWAP1 DUP2 LT PUSH1 0x1 PUSH1 0x1 PUSH1 0x40 SHL SUB DUP3 GT OR PUSH2 0x1295 JUMPI PUSH1 0x40 MSTORE JUMP JUMPDEST SWAP1 PUSH1 0x1F DUP1 NOT SWAP2 ADD AND DUP2 ADD SWAP1 DUP2 LT PUSH1 0x1 PUSH1 0x1 PUSH1 0x40 SHL SUB DUP3 GT OR PUSH2 0x1295 JUMPI PUSH1 0x40 MSTORE JUMP JUMPDEST PUSH1 0x1 PUSH1 0x1 PUSH1 0x40 SHL SUB DUP2 GT PUSH2 0x1295 JUMPI PUSH1 0x1F ADD PUSH1 0x1F NOT AND PUSH1 0x20 ADD SWAP1 JUMP JUMPDEST DUP2 PUSH1 0x1F DUP3 ADD SLT ISZERO PUSH2 0x1380 JUMPI DUP1 CALLDATALOAD SWAP1 PUSH2 0x1350 DUP3 PUSH2 0x131E JUMP JUMPDEST SWAP3 PUSH2 0x135E PUSH1 0x40 MLOAD SWAP5 DUP6 PUSH2 0x12FD JUMP JUMPDEST DUP3 DUP5 MSTORE PUSH1 0x20 DUP4 DUP4 ADD ADD GT PUSH2 0x1380 JUMPI DUP2 PUSH1 0x0 SWAP3 PUSH1 0x20 DUP1 SWAP4 ADD DUP4 DUP7 ADD CALLDATACOPY DUP4 ADD ADD MSTORE SWAP1 JUMP JUMPDEST PUSH1 0x0 DUP1 REVERT JUMPDEST PUSH1 0x0 JUMPDEST DUP4 DUP2 LT PUSH2 0x1398 JUMPI POP POP PUSH1 0x0 SWAP2 ADD MSTORE JUMP JUMPDEST DUP2 DUP2 ADD MLOAD DUP4 DUP3 ADD MSTORE PUSH1 0x20 ADD PUSH2 0x1388 JUMP JUMPDEST SWAP1 PUSH1 0x20 SWAP2 PUSH2 0x13C1 DUP2 MLOAD DUP1 SWAP3 DUP2 DUP6 MSTORE DUP6 DUP1 DUP7 ADD SWAP2 ADD PUSH2 0x1385 JUMP JUMPDEST PUSH1 0x1F ADD PUSH1 0x1F NOT AND ADD ADD SWAP1 JUMP JUMPDEST PUSH1 0x20 DUP2 ADD PUSH1 0x20 DUP3 MSTORE DUP3 MLOAD DUP1 SWAP2 MSTORE PUSH1 0x40 DUP3 ADD SWAP2 PUSH1 0x20 PUSH1 0x40 DUP4 PUSH1 0x5 SHL DUP4 ADD ADD SWAP5 ADD SWAP3 PUSH1 0x0 SWAP2 JUMPDEST DUP4 DUP4 LT PUSH2 0x1400 JUMPI POP POP POP POP POP SWAP1 JUMP JUMPDEST SWAP1 SWAP2 SWAP3 SWAP4 SWAP5 PUSH1 0x3F NOT DUP3 DUP3 SUB ADD DUP4 MSTORE DUP6 MLOAD SWAP1 DUP2 MLOAD DUP2 MSTORE PUSH1 0x1 DUP1 PUSH1 0xA0 SHL SUB PUSH1 0x20 DUP4 ADD MLOAD AND PUSH1 0x20 DUP3 ADD MSTORE PUSH1 0x40 DUP3 ADD MLOAD ISZERO ISZERO PUSH1 0x40 DUP3 ADD MSTORE PUSH2 0x14E7 PUSH2 0x14D3 PUSH2 0x14BF PUSH2 0x14AB PUSH2 0x1498 PUSH2 0x1485 PUSH2 0x1473 PUSH2 0x1461 PUSH1 0x60 DUP11 ADD MLOAD PUSH2 0x1C0 DUP1 PUSH1 0x60 DUP13 ADD MSTORE DUP11 ADD SWAP1 PUSH2 0x13A8 JUMP JUMPDEST PUSH1 0x80 DUP11 ADD MLOAD DUP10 DUP3 SUB PUSH1 0x80 DUP12 ADD MSTORE PUSH2 0x13A8 JUMP JUMPDEST PUSH1 0xA0 DUP10 ADD MLOAD DUP9 DUP3 SUB PUSH1 0xA0 DUP11 ADD MSTORE PUSH2 0x13A8 JUMP JUMPDEST PUSH1 0xC0 DUP1 DUP10 ADD MLOAD SWAP1 DUP9 DUP4 SUB SWAP1 DUP10 ADD MSTORE PUSH2 0x13A8 JUMP JUMPDEST PUSH1 0xE0 DUP1 DUP9 ADD MLOAD SWAP1 DUP8 DUP4 SUB SWAP1 DUP9 ADD MSTORE PUSH2 0x13A8 JUMP JUMPDEST PUSH2 0x100 DUP1 DUP8 ADD MLOAD SWAP1 DUP7 DUP4 SUB SWAP1 DUP8 ADD MSTORE PUSH2 0x13A8 JUMP JUMPDEST PUSH2 0x120 DUP1 DUP7 ADD MLOAD SWAP1 DUP6 DUP4 SUB SWAP1 DUP7 ADD MSTORE PUSH2 0x13A8 JUMP JUMPDEST PUSH2 0x140 DUP1 DUP6 ADD MLOAD SWAP1 DUP5 DUP4 SUB SWAP1 DUP6 ADD MSTORE PUSH2 0x13A8 JUMP JUMPDEST SWAP1 PUSH2 0x160 DUP1 DUP5 ADD MLOAD SWAP1 DUP3 ADD MSTORE PUSH2 0x180 SWAP2 DUP3 DUP5 ADD MLOAD SWAP3 DUP3 DUP3 SUB SWAP1 DUP4 ADD MSTORE DUP3 MLOAD DUP1 DUP3 MSTORE PUSH1 0x20 DUP3 ADD SWAP1 PUSH1 0x20 DUP1 DUP3 PUSH1 0x5 SHL DUP6 ADD ADD SWAP6 ADD SWAP3 PUSH1 0x0 JUMPDEST DUP3 DUP2 LT PUSH2 0x159A JUMPI POP POP POP POP POP PUSH2 0x1A0 DUP1 SWAP4 ADD MLOAD SWAP3 DUP2 DUP4 SUB SWAP2 ADD MSTORE PUSH1 0x20 DUP1 DUP4 MLOAD SWAP3 DUP4 DUP2 MSTORE ADD SWAP3 ADD SWAP1 PUSH1 0x0 SWAP1 JUMPDEST DUP1 DUP3 LT PUSH2 0x1567 JUMPI POP POP POP PUSH1 0x20 DUP1 PUSH1 0x1 SWAP3 SWAP8 ADD SWAP4 ADD SWAP4 ADD SWAP2 SWAP4 SWAP3 SWAP1 PUSH2 0x13F1 JUMP JUMPDEST SWAP1 SWAP2 SWAP3 PUSH1 0x20 PUSH1 0x60 PUSH1 0x1 SWAP3 PUSH1 0x40 DUP8 MLOAD DUP6 DUP1 PUSH1 0xA0 SHL SUB DUP2 MLOAD AND DUP4 MSTORE DUP5 DUP2 ADD MLOAD DUP6 DUP5 ADD MSTORE ADD MLOAD PUSH1 0x40 DUP3 ADD MSTORE ADD SWAP5 ADD SWAP3 ADD SWAP1 PUSH2 0x1548 JUMP JUMPDEST SWAP1 SWAP2 SWAP3 SWAP4 SWAP6 PUSH1 0x20 DUP1 PUSH2 0x15FD PUSH1 0x1 SWAP4 PUSH1 0x1F NOT DUP8 DUP3 SUB ADD DUP10 MSTORE DUP11 MLOAD SWAP1 DUP6 DUP1 PUSH1 0xA0 SHL SUB DUP3 MLOAD AND DUP2 MSTORE DUP4 DUP3 ADD MLOAD DUP5 DUP3 ADD MSTORE PUSH1 0x80 PUSH2 0x15E2 PUSH1 0x40 DUP5 ADD MLOAD PUSH1 0xA0 PUSH1 0x40 DUP6 ADD MSTORE PUSH1 0xA0 DUP5 ADD SWAP1 PUSH2 0x13A8 JUMP JUMPDEST SWAP3 PUSH1 0x60 DUP2 ADD MLOAD PUSH1 0x60 DUP5 ADD MSTORE ADD MLOAD SWAP1 PUSH1 0x80 DUP2 DUP5 SUB SWAP2 ADD MSTORE PUSH2 0x13A8 JUMP JUMPDEST SWAP9 ADD SWAP6 ADD SWAP4 SWAP3 SWAP2 ADD PUSH2 0x151D JUMP JUMPDEST PUSH1 0x4 CALLDATALOAD SWAP1 PUSH1 0x1 PUSH1 0x1 PUSH1 0xA0 SHL SUB DUP3 AND DUP3 SUB PUSH2 0x1380 JUMPI JUMP JUMPDEST PUSH1 0x5 SLOAD DUP2 LT ISZERO PUSH2 0x165B JUMPI PUSH1 0xD SWAP1 PUSH1 0x5 PUSH1 0x0 MSTORE MUL PUSH32 0x36B6384B5ECA791C62761152D0C79BB0604C104A5FB6F4EB0703F3154BB3DB0 ADD SWAP1 PUSH1 0x0 SWAP1 JUMP JUMPDEST PUSH4 0x4E487B71 PUSH1 0xE0 SHL PUSH1 0x0 MSTORE PUSH1 0x32 PUSH1 0x4 MSTORE PUSH1 0x24 PUSH1 0x0 REVERT JUMPDEST SWAP1 PUSH1 0x1 DUP3 DUP2 SHR SWAP3 AND DUP1 ISZERO PUSH2 0x16A1 JUMPI JUMPDEST PUSH1 0x20 DUP4 LT EQ PUSH2 0x168B JUMPI JUMP JUMPDEST PUSH4 0x4E487B71 PUSH1 0xE0 SHL PUSH1 0x0 MSTORE PUSH1 0x22 PUSH1 0x4 MSTORE PUSH1 0x24 PUSH1 0x0 REVERT JUMPDEST SWAP2 PUSH1 0x7F AND SWAP2 PUSH2 0x1680 JUMP JUMPDEST DUP2 DUP2 LT PUSH2 0x16B6 JUMPI POP POP JUMP JUMPDEST PUSH1 0x0 DUP2 SSTORE PUSH1 0x1 ADD PUSH2 0x16AB JUMP JUMPDEST PUSH2 0x16CC DUP2 SLOAD PUSH2 0x1671 JUMP JUMPDEST SWAP1 DUP2 PUSH2 0x16D6 JUMPI POP POP JUMP JUMPDEST DUP2 PUSH1 0x1F PUSH1 0x0 SWAP4 GT PUSH1 0x1 EQ PUSH2 0x16E9 JUMPI POP SSTORE JUMPDEST JUMP JUMPDEST SWAP1 DUP1 DUP4 SWAP2 DUP3 MSTORE PUSH2 0x1708 PUSH1 0x1F PUSH1 0x20 DUP5 KECCAK256 SWAP5 ADD PUSH1 0x5 SHR DUP5 ADD PUSH1 0x1 DUP6 ADD PUSH2 0x16AB JUMP JUMPDEST SSTORE SSTORE JUMP JUMPDEST PUSH1 0x1 DUP1 PUSH1 0xA0 SHL SUB DUP3 MLOAD AND PUSH12 0xFFFFFFFFFFFFFFFFFFFFFFFF PUSH1 0xA0 SHL DUP3 SLOAD AND OR DUP2 SSTORE PUSH1 0x20 DUP1 DUP4 ADD MLOAD SWAP2 PUSH1 0x1 SWAP3 DUP4 DUP3 ADD SSTORE PUSH1 0x2 DUP2 ADD SWAP2 PUSH1 0x40 DUP6 ADD MLOAD SWAP2 DUP3 MLOAD SWAP4 PUSH1 0x1 PUSH1 0x1 PUSH1 0x40 SHL SUB SWAP5 DUP6 DUP2 GT PUSH2 0x1295 JUMPI PUSH2 0x1762 DUP3 SLOAD PUSH2 0x1671 JUMP JUMPDEST SWAP5 PUSH1 0x1F SWAP6 DUP7 DUP2 GT PUSH2 0x190E JUMPI JUMPDEST POP DUP5 SWAP1 DUP7 DUP4 GT PUSH1 0x1 EQ PUSH2 0x18A0 JUMPI SWAP2 DUP1 PUSH1 0x4 SWAP5 SWAP3 PUSH1 0x80 SWAP7 SWAP5 PUSH1 0x0 SWAP3 PUSH2 0x1895 JUMPI JUMPDEST POP POP PUSH1 0x0 NOT PUSH1 0x3 DUP4 SWAP1 SHL SHR NOT AND SWAP1 DUP10 SHL OR SWAP1 SSTORE JUMPDEST PUSH1 0x60 DUP9 ADD MLOAD PUSH1 0x3 DUP3 ADD SSTORE ADD SWAP6 ADD MLOAD SWAP1 DUP2 MLOAD SWAP4 DUP5 GT PUSH2 0x1295 JUMPI PUSH2 0x17C3 DUP7 SLOAD PUSH2 0x1671 JUMP JUMPDEST DUP4 DUP2 GT PUSH2 0x1867 JUMPI JUMPDEST POP DUP1 SWAP3 DUP5 GT PUSH1 0x1 EQ PUSH2 0x1804 JUMPI POP SWAP3 DUP3 SWAP4 SWAP2 DUP4 SWAP3 PUSH1 0x0 SWAP5 PUSH2 0x17F9 JUMPI JUMPDEST POP POP SHL SWAP2 PUSH1 0x0 NOT SWAP1 PUSH1 0x3 SHL SHR NOT AND OR SWAP1 SSTORE JUMP JUMPDEST ADD MLOAD SWAP3 POP CODESIZE DUP1 PUSH2 0x17E6 JUMP JUMPDEST SWAP2 SWAP1 DUP4 PUSH1 0x1F NOT DUP2 AND DUP8 PUSH1 0x0 MSTORE DUP5 PUSH1 0x0 KECCAK256 SWAP5 PUSH1 0x0 SWAP1 JUMPDEST DUP9 DUP4 DUP4 LT PUSH2 0x184D JUMPI POP POP POP LT PUSH2 0x1834 JUMPI JUMPDEST POP POP POP DUP2 SHL ADD SWAP1 SSTORE JUMP JUMPDEST ADD MLOAD PUSH1 0x0 NOT PUSH1 0xF8 DUP5 PUSH1 0x3 SHL AND SHR NOT AND SWAP1 SSTORE CODESIZE DUP1 DUP1 PUSH2 0x182A JUMP JUMPDEST DUP6 DUP8 ADD MLOAD DUP9 SSTORE SWAP1 SWAP7 ADD SWAP6 SWAP5 DUP6 ADD SWAP5 DUP8 SWAP4 POP SWAP1 DUP2 ADD SWAP1 PUSH2 0x1819 JUMP JUMPDEST PUSH2 0x188F SWAP1 DUP8 PUSH1 0x0 MSTORE DUP3 PUSH1 0x0 KECCAK256 DUP6 DUP1 DUP9 ADD PUSH1 0x5 SHR DUP3 ADD SWAP3 DUP6 DUP10 LT PUSH2 0x11B1 JUMPI ADD PUSH1 0x5 SHR ADD SWAP1 PUSH2 0x16AB JUMP JUMPDEST CODESIZE PUSH2 0x17CB JUMP JUMPDEST ADD MLOAD SWAP1 POP CODESIZE DUP1 PUSH2 0x178D JUMP JUMPDEST DUP9 SWAP3 SWAP2 PUSH1 0x1F NOT DUP4 AND SWAP2 DUP6 PUSH1 0x0 MSTORE DUP8 PUSH1 0x0 KECCAK256 SWAP3 PUSH1 0x0 JUMPDEST DUP10 DUP3 DUP3 LT PUSH2 0x18F8 JUMPI POP POP SWAP2 PUSH1 0x80 SWAP8 SWAP6 SWAP4 SWAP2 DUP6 PUSH1 0x4 SWAP9 SWAP7 SWAP5 LT PUSH2 0x18DF JUMPI JUMPDEST POP POP POP DUP2 SHL ADD SWAP1 SSTORE PUSH2 0x17A1 JUMP JUMPDEST ADD MLOAD PUSH1 0x0 NOT PUSH1 0xF8 DUP5 PUSH1 0x3 SHL AND SHR NOT AND SWAP1 SSTORE CODESIZE DUP1 DUP1 PUSH2 0x18D2 JUMP JUMPDEST DUP4 DUP6 ADD MLOAD DUP7 SSTORE DUP14 SWAP8 SWAP1 SWAP6 ADD SWAP5 SWAP4 DUP5 ADD SWAP4 ADD PUSH2 0x18B5 JUMP JUMPDEST PUSH2 0x1936 SWAP1 DUP5 PUSH1 0x0 MSTORE DUP7 PUSH1 0x0 KECCAK256 DUP9 DUP1 DUP7 ADD PUSH1 0x5 SHR DUP3 ADD SWAP3 DUP10 DUP8 LT PUSH2 0x11B1 JUMPI ADD PUSH1 0x5 SHR ADD SWAP1 PUSH2 0x16AB JUMP JUMPDEST CODESIZE PUSH2 0x176E JUMP JUMPDEST SWAP2 SWAP1 PUSH2 0x237C JUMPI DUP1 MLOAD DUP3 SSTORE PUSH1 0x20 DUP2 ADD MLOAD PUSH1 0x1 DUP4 ADD DUP1 SLOAD PUSH1 0x40 DUP5 ADD MLOAD PUSH1 0xFF PUSH1 0xA0 SHL SWAP1 ISZERO ISZERO PUSH1 0xA0 SHL AND PUSH1 0x1 PUSH1 0x1 PUSH1 0xA0 SHL SUB SWAP1 SWAP4 AND PUSH1 0x1 PUSH1 0x1 PUSH1 0xA8 SHL SUB NOT SWAP1 SWAP2 AND OR SWAP2 SWAP1 SWAP2 OR SWAP1 SSTORE PUSH1 0x2 DUP3 ADD PUSH1 0x60 DUP3 ADD MLOAD DUP1 MLOAD SWAP1 PUSH1 0x1 PUSH1 0x1 PUSH1 0x40 SHL SUB DUP3 GT PUSH2 0x1295 JUMPI DUP2 SWAP1 PUSH2 0x19A6 DUP5 SLOAD PUSH2 0x1671 JUMP JUMPDEST PUSH1 0x1F DUP2 GT PUSH2 0x234A JUMPI JUMPDEST POP PUSH1 0x20 SWAP1 PUSH1 0x1F DUP4 GT PUSH1 0x1 EQ PUSH2 0x22E4 JUMPI PUSH1 0x0 SWAP3 PUSH2 0x22D9 JUMPI JUMPDEST POP POP DUP2 PUSH1 0x1 SHL SWAP2 PUSH1 0x0 NOT SWAP1 PUSH1 0x3 SHL SHR NOT AND OR SWAP1 SSTORE JUMPDEST PUSH1 0x3 DUP3 ADD PUSH1 0x80 DUP3 ADD MLOAD DUP1 MLOAD SWAP1 PUSH1 0x1 PUSH1 0x1 PUSH1 0x40 SHL SUB DUP3 GT PUSH2 0x1295 JUMPI DUP2 SWAP1 PUSH2 0x1A01 DUP5 SLOAD PUSH2 0x1671 JUMP JUMPDEST PUSH1 0x1F DUP2 GT PUSH2 0x22A7 JUMPI JUMPDEST POP PUSH1 0x20 SWAP1 PUSH1 0x1F DUP4 GT PUSH1 0x1 EQ PUSH2 0x2241 JUMPI PUSH1 0x0 SWAP3 PUSH2 0x2236 JUMPI JUMPDEST POP POP DUP2 PUSH1 0x1 SHL SWAP2 PUSH1 0x0 NOT SWAP1 PUSH1 0x3 SHL SHR NOT AND OR SWAP1 SSTORE JUMPDEST PUSH1 0x4 DUP3 ADD PUSH1 0xA0 DUP3 ADD MLOAD DUP1 MLOAD SWAP1 PUSH1 0x1 PUSH1 0x1 PUSH1 0x40 SHL SUB DUP3 GT PUSH2 0x1295 JUMPI DUP2 SWAP1 PUSH2 0x1A5C DUP5 SLOAD PUSH2 0x1671 JUMP JUMPDEST PUSH1 0x1F DUP2 GT PUSH2 0x2204 JUMPI JUMPDEST POP PUSH1 0x20 SWAP1 PUSH1 0x1F DUP4 GT PUSH1 0x1 EQ PUSH2 0x219E JUMPI PUSH1 0x0 SWAP3 PUSH2 0x2193 JUMPI JUMPDEST POP POP DUP2 PUSH1 0x1 SHL SWAP2 PUSH1 0x0 NOT SWAP1 PUSH1 0x3 SHL SHR NOT AND OR SWAP1 SSTORE JUMPDEST PUSH1 0x5 DUP3 ADD PUSH1 0xC0 DUP3 ADD MLOAD DUP1 MLOAD SWAP1 PUSH1 0x1 PUSH1 0x1 PUSH1 0x40 SHL SUB DUP3 GT PUSH2 0x1295 JUMPI DUP2 SWAP1 PUSH2 0x1AB7 DUP5 SLOAD PUSH2 0x1671 JUMP JUMPDEST PUSH1 0x1F DUP2 GT PUSH2 0x2161 JUMPI JUMPDEST POP PUSH1 0x20 SWAP1 PUSH1 0x1F DUP4 GT PUSH1 0x1 EQ PUSH2 0x20FB JUMPI PUSH1 0x0 SWAP3 PUSH2 0x20F0 JUMPI JUMPDEST POP POP DUP2 PUSH1 0x1 SHL SWAP2 PUSH1 0x0 NOT SWAP1 PUSH1 0x3 SHL SHR NOT AND OR SWAP1 SSTORE JUMPDEST PUSH1 0xE0 DUP2 ADD MLOAD SWAP3 DUP4 MLOAD PUSH1 0x1 PUSH1 0x1 PUSH1 0x40 SHL SUB DUP2 GT PUSH2 0x1295 JUMPI PUSH2 0x1B0F PUSH1 0x6 DUP6 ADD SLOAD PUSH2 0x1671 JUMP JUMPDEST PUSH1 0x1F DUP2 GT PUSH2 0x20BB JUMPI JUMPDEST POP PUSH1 0x20 SWAP5 PUSH1 0x1F DUP3 GT PUSH1 0x1 EQ PUSH2 0x204F JUMPI SWAP5 DUP2 SWAP3 SWAP4 SWAP5 SWAP6 PUSH1 0x0 SWAP3 PUSH2 0x2044 JUMPI JUMPDEST POP POP DUP2 PUSH1 0x1 SHL SWAP2 PUSH1 0x0 NOT SWAP1 PUSH1 0x3 SHL SHR NOT AND OR PUSH1 0x6 DUP5 ADD SSTORE JUMPDEST PUSH2 0x100 DUP3 ADD MLOAD SWAP3 DUP4 MLOAD PUSH1 0x1 PUSH1 0x1 PUSH1 0x40 SHL SUB DUP2 GT PUSH2 0x1295 JUMPI PUSH2 0x1B71 PUSH1 0x7 DUP4 ADD SLOAD PUSH2 0x1671 JUMP JUMPDEST PUSH1 0x1F DUP2 GT PUSH2 0x200F JUMPI JUMPDEST POP PUSH1 0x20 PUSH1 0x1F DUP3 GT PUSH1 0x1 EQ PUSH2 0x1FA0 JUMPI DUP2 SWAP3 SWAP4 SWAP5 SWAP6 PUSH1 0x0 SWAP3 PUSH2 0x1F95 JUMPI JUMPDEST POP POP DUP2 PUSH1 0x1 SHL SWAP2 PUSH1 0x0 NOT SWAP1 PUSH1 0x3 SHL SHR NOT AND OR PUSH1 0x7 DUP3 ADD SSTORE JUMPDEST PUSH2 0x120 DUP4 ADD MLOAD SWAP3 DUP4 MLOAD PUSH1 0x1 PUSH1 0x1 PUSH1 0x40 SHL SUB DUP2 GT PUSH2 0x1295 JUMPI PUSH2 0x1BD1 PUSH1 0x8 DUP5 ADD SLOAD PUSH2 0x1671 JUMP JUMPDEST PUSH1 0x1F DUP2 GT PUSH2 0x1F60 JUMPI JUMPDEST POP PUSH1 0x20 PUSH1 0x1F DUP3 GT PUSH1 0x1 EQ PUSH2 0x1EF1 JUMPI DUP2 SWAP3 SWAP4 SWAP5 SWAP6 PUSH1 0x0 SWAP3 PUSH2 0x1EE6 JUMPI JUMPDEST POP POP DUP2 PUSH1 0x1 SHL SWAP2 PUSH1 0x0 NOT SWAP1 PUSH1 0x3 SHL SHR NOT AND OR PUSH1 0x8 DUP4 ADD SSTORE JUMPDEST PUSH1 0x9 DUP3 ADD PUSH2 0x140 DUP3 ADD MLOAD DUP1 MLOAD SWAP1 PUSH1 0x1 PUSH1 0x1 PUSH1 0x40 SHL SUB DUP3 GT PUSH2 0x1295 JUMPI DUP2 SWAP1 PUSH2 0x1C34 DUP5 SLOAD PUSH2 0x1671 JUMP JUMPDEST PUSH1 0x1F DUP2 GT PUSH2 0x1EA9 JUMPI JUMPDEST POP PUSH1 0x20 SWAP1 PUSH1 0x1F DUP4 GT PUSH1 0x1 EQ PUSH2 0x1E43 JUMPI PUSH1 0x0 SWAP3 PUSH2 0x1E38 JUMPI JUMPDEST POP POP DUP2 PUSH1 0x1 SHL SWAP2 PUSH1 0x0 NOT SWAP1 PUSH1 0x3 SHL SHR NOT AND OR SWAP1 SSTORE JUMPDEST PUSH2 0x160 DUP2 ADD MLOAD PUSH1 0xA DUP4 ADD SSTORE PUSH2 0x180 DUP2 ADD MLOAD DUP1 MLOAD PUSH1 0x1 PUSH1 0x40 SHL SWAP4 SWAP2 PUSH1 0xB DUP4 ADD SWAP1 DUP6 DUP4 GT PUSH2 0x1295 JUMPI DUP2 SLOAD DUP4 DUP4 SSTORE DUP1 DUP5 LT PUSH2 0x1DCD JUMPI JUMPDEST POP PUSH1 0x20 ADD SWAP1 PUSH1 0x0 MSTORE PUSH1 0x20 PUSH1 0x0 KECCAK256 PUSH1 0x0 SWAP2 JUMPDEST DUP4 DUP4 LT PUSH2 0x1DAF JUMPI POP POP POP POP PUSH1 0xC PUSH2 0x1A0 SWAP2 ADD SWAP2 ADD MLOAD DUP1 MLOAD SWAP3 DUP4 GT PUSH2 0x1295 JUMPI DUP2 SLOAD DUP4 DUP4 SSTORE DUP1 DUP5 LT PUSH2 0x1D46 JUMPI JUMPDEST POP PUSH1 0x20 ADD SWAP1 PUSH1 0x0 MSTORE PUSH1 0x20 PUSH1 0x0 KECCAK256 PUSH1 0x0 SWAP2 JUMPDEST DUP4 DUP4 LT PUSH2 0x1CF6 JUMPI POP POP POP POP JUMP JUMPDEST PUSH1 0x3 PUSH1 0x20 DUP3 PUSH2 0x1D3A PUSH1 0x1 SWAP5 MLOAD DUP7 SWAP1 PUSH1 0x40 PUSH1 0x2 SWAP2 PUSH1 0x1 DUP1 PUSH1 0xA0 SHL SUB DUP2 MLOAD AND PUSH12 0xFFFFFFFFFFFFFFFFFFFFFFFF PUSH1 0xA0 SHL DUP6 SLOAD AND OR DUP5 SSTORE PUSH1 0x20 DUP2 ADD MLOAD PUSH1 0x1 DUP6 ADD SSTORE ADD MLOAD SWAP2 ADD SSTORE JUMP JUMPDEST ADD SWAP3 ADD SWAP3 ADD SWAP2 SWAP1 PUSH2 0x1CE9 JUMP JUMPDEST DUP1 PUSH1 0x3 MUL SWAP1 PUSH1 0x3 DUP3 DIV SUB PUSH2 0x1D99 JUMPI DUP4 PUSH1 0x3 MUL PUSH1 0x3 DUP2 DIV DUP6 SUB PUSH2 0x1D99 JUMPI DUP4 PUSH1 0x0 MSTORE PUSH1 0x20 PUSH1 0x0 KECCAK256 SWAP2 DUP3 ADD SWAP2 ADD JUMPDEST DUP2 DUP2 LT PUSH2 0x1D7E JUMPI POP PUSH2 0x1CD8 JUMP JUMPDEST DUP1 PUSH1 0x0 PUSH1 0x3 SWAP3 SSTORE PUSH1 0x0 PUSH1 0x1 DUP3 ADD SSTORE PUSH1 0x0 PUSH1 0x2 DUP3 ADD SSTORE ADD PUSH2 0x1D71 JUMP JUMPDEST PUSH4 0x4E487B71 PUSH1 0xE0 SHL PUSH1 0x0 MSTORE PUSH1 0x11 PUSH1 0x4 MSTORE PUSH1 0x24 PUSH1 0x0 REVERT JUMPDEST PUSH1 0x5 PUSH1 0x20 DUP3 PUSH2 0x1DC1 PUSH1 0x1 SWAP5 MLOAD DUP7 PUSH2 0x170C JUMP JUMPDEST ADD SWAP3 ADD SWAP3 ADD SWAP2 SWAP1 PUSH2 0x1CAD JUMP JUMPDEST DUP1 PUSH1 0x5 MUL SWAP1 PUSH1 0x5 DUP3 DIV SUB PUSH2 0x1D99 JUMPI DUP4 PUSH1 0x5 MUL PUSH1 0x5 DUP2 DIV DUP6 SUB PUSH2 0x1D99 JUMPI DUP4 PUSH1 0x0 MSTORE PUSH1 0x20 PUSH1 0x0 KECCAK256 SWAP2 DUP3 ADD SWAP2 ADD JUMPDEST DUP2 DUP2 LT PUSH2 0x1E05 JUMPI POP PUSH2 0x1C9C JUMP JUMPDEST DUP1 PUSH1 0x0 PUSH1 0x5 SWAP3 SSTORE PUSH1 0x0 PUSH1 0x1 DUP3 ADD SSTORE PUSH2 0x1E1F PUSH1 0x2 DUP3 ADD PUSH2 0x16C2 JUMP JUMPDEST PUSH1 0x0 PUSH1 0x3 DUP3 ADD SSTORE PUSH2 0x1E32 PUSH1 0x4 DUP3 ADD PUSH2 0x16C2 JUMP JUMPDEST ADD PUSH2 0x1DF8 JUMP JUMPDEST ADD MLOAD SWAP1 POP CODESIZE DUP1 PUSH2 0x1C54 JUMP JUMPDEST PUSH1 0x0 DUP6 DUP2 MSTORE PUSH1 0x20 DUP2 KECCAK256 SWAP4 POP PUSH1 0x1F NOT DUP6 AND SWAP1 JUMPDEST DUP2 DUP2 LT PUSH2 0x1E91 JUMPI POP SWAP1 DUP5 PUSH1 0x1 SWAP6 SWAP5 SWAP4 SWAP3 LT PUSH2 0x1E78 JUMPI JUMPDEST POP POP POP DUP2 SHL ADD SWAP1 SSTORE PUSH2 0x1C69 JUMP JUMPDEST ADD MLOAD PUSH1 0x0 NOT PUSH1 0xF8 DUP5 PUSH1 0x3 SHL AND SHR NOT AND SWAP1 SSTORE CODESIZE DUP1 DUP1 PUSH2 0x1E6B JUMP JUMPDEST SWAP3 SWAP4 PUSH1 0x20 PUSH1 0x1 DUP2 SWAP3 DUP8 DUP7 ADD MLOAD DUP2 SSTORE ADD SWAP6 ADD SWAP4 ADD PUSH2 0x1E55 JUMP JUMPDEST PUSH2 0x1ED6 SWAP1 DUP6 PUSH1 0x0 MSTORE PUSH1 0x20 PUSH1 0x0 KECCAK256 PUSH1 0x1F DUP6 ADD PUSH1 0x5 SHR DUP2 ADD SWAP2 PUSH1 0x20 DUP7 LT PUSH2 0x1EDC JUMPI JUMPDEST PUSH1 0x1F ADD PUSH1 0x5 SHR ADD SWAP1 PUSH2 0x16AB JUMP JUMPDEST CODESIZE PUSH2 0x1C3D JUMP JUMPDEST SWAP1 SWAP2 POP DUP2 SWAP1 PUSH2 0x1EC9 JUMP JUMPDEST ADD MLOAD SWAP1 POP CODESIZE DUP1 PUSH2 0x1BF5 JUMP JUMPDEST PUSH1 0x8 DUP5 ADD PUSH1 0x0 MSTORE PUSH1 0x20 PUSH1 0x0 KECCAK256 SWAP1 PUSH1 0x0 JUMPDEST PUSH1 0x1F NOT DUP5 AND DUP2 LT PUSH2 0x1F48 JUMPI POP PUSH1 0x1 SWAP4 SWAP5 SWAP6 SWAP7 DUP4 PUSH1 0x1F NOT DUP2 AND LT PUSH2 0x1F2F JUMPI JUMPDEST POP POP POP DUP2 SHL ADD PUSH1 0x8 DUP4 ADD SSTORE PUSH2 0x1C0D JUMP JUMPDEST ADD MLOAD PUSH1 0x0 NOT PUSH1 0xF8 DUP5 PUSH1 0x3 SHL AND SHR NOT AND SWAP1 SSTORE CODESIZE DUP1 DUP1 PUSH2 0x1F1F JUMP JUMPDEST SWAP1 SWAP2 PUSH1 0x20 PUSH1 0x1 DUP2 SWAP3 DUP6 DUP12 ADD MLOAD DUP2 SSTORE ADD SWAP4 ADD SWAP2 ADD PUSH2 0x1F01 JUMP JUMPDEST PUSH2 0x1F8F SWAP1 PUSH1 0x8 DUP6 ADD PUSH1 0x0 MSTORE PUSH1 0x20 PUSH1 0x0 KECCAK256 PUSH1 0x1F DUP5 ADD PUSH1 0x5 SHR DUP2 ADD SWAP2 PUSH1 0x20 DUP6 LT PUSH2 0x1EDC JUMPI PUSH1 0x1F ADD PUSH1 0x5 SHR ADD SWAP1 PUSH2 0x16AB JUMP JUMPDEST CODESIZE PUSH2 0x1BDA JUMP JUMPDEST ADD MLOAD SWAP1 POP CODESIZE DUP1 PUSH2 0x1B95 JUMP JUMPDEST PUSH1 0x7 DUP4 ADD PUSH1 0x0 MSTORE PUSH1 0x20 PUSH1 0x0 KECCAK256 SWAP1 PUSH1 0x0 JUMPDEST PUSH1 0x1F NOT DUP5 AND DUP2 LT PUSH2 0x1FF7 JUMPI POP PUSH1 0x1 SWAP4 SWAP5 SWAP6 SWAP7 DUP4 PUSH1 0x1F NOT DUP2 AND LT PUSH2 0x1FDE JUMPI JUMPDEST POP POP POP DUP2 SHL ADD PUSH1 0x7 DUP3 ADD SSTORE PUSH2 0x1BAD JUMP JUMPDEST ADD MLOAD PUSH1 0x0 NOT PUSH1 0xF8 DUP5 PUSH1 0x3 SHL AND SHR NOT AND SWAP1 SSTORE CODESIZE DUP1 DUP1 PUSH2 0x1FCE JUMP JUMPDEST SWAP1 SWAP2 PUSH1 0x20 PUSH1 0x1 DUP2 SWAP3 DUP6 DUP12 ADD MLOAD DUP2 SSTORE ADD SWAP4 ADD SWAP2 ADD PUSH2 0x1FB0 JUMP JUMPDEST PUSH2 0x203E SWAP1 PUSH1 0x7 DUP5 ADD PUSH1 0x0 MSTORE PUSH1 0x20 PUSH1 0x0 KECCAK256 PUSH1 0x1F DUP5 ADD PUSH1 0x5 SHR DUP2 ADD SWAP2 PUSH1 0x20 DUP6 LT PUSH2 0x1EDC JUMPI PUSH1 0x1F ADD PUSH1 0x5 SHR ADD SWAP1 PUSH2 0x16AB JUMP JUMPDEST CODESIZE PUSH2 0x1B7A JUMP JUMPDEST ADD MLOAD SWAP1 POP CODESIZE DUP1 PUSH2 0x1B35 JUMP JUMPDEST PUSH1 0x1F NOT DUP3 AND SWAP6 PUSH1 0x6 DUP7 ADD PUSH1 0x0 MSTORE PUSH1 0x20 PUSH1 0x0 KECCAK256 SWAP2 PUSH1 0x0 JUMPDEST DUP9 DUP2 LT PUSH2 0x20A3 JUMPI POP DUP4 PUSH1 0x1 SWAP6 SWAP7 SWAP8 SWAP9 LT PUSH2 0x208A JUMPI JUMPDEST POP POP POP DUP2 SHL ADD PUSH1 0x6 DUP5 ADD SSTORE PUSH2 0x1B4D JUMP JUMPDEST ADD MLOAD PUSH1 0x0 NOT PUSH1 0xF8 DUP5 PUSH1 0x3 SHL AND SHR NOT AND SWAP1 SSTORE CODESIZE DUP1 DUP1 PUSH2 0x207A JUMP JUMPDEST SWAP2 SWAP3 PUSH1 0x20 PUSH1 0x1 DUP2 SWAP3 DUP7 DUP6 ADD MLOAD DUP2 SSTORE ADD SWAP5 ADD SWAP3 ADD PUSH2 0x2065 JUMP JUMPDEST PUSH2 0x20EA SWAP1 PUSH1 0x6 DUP7 ADD PUSH1 0x0 MSTORE PUSH1 0x20 PUSH1 0x0 KECCAK256 PUSH1 0x1F DUP5 ADD PUSH1 0x5 SHR DUP2 ADD SWAP2 PUSH1 0x20 DUP6 LT PUSH2 0x1EDC JUMPI PUSH1 0x1F ADD PUSH1 0x5 SHR ADD SWAP1 PUSH2 0x16AB JUMP JUMPDEST CODESIZE PUSH2 0x1B18 JUMP JUMPDEST ADD MLOAD SWAP1 POP CODESIZE DUP1 PUSH2 0x1AD7 JUMP JUMPDEST PUSH1 0x0 DUP6 DUP2 MSTORE PUSH1 0x20 DUP2 KECCAK256 SWAP4 POP PUSH1 0x1F NOT DUP6 AND SWAP1 JUMPDEST DUP2 DUP2 LT PUSH2 0x2149 JUMPI POP SWAP1 DUP5 PUSH1 0x1 SWAP6 SWAP5 SWAP4 SWAP3 LT PUSH2 0x2130 JUMPI JUMPDEST POP POP POP DUP2 SHL ADD SWAP1 SSTORE PUSH2 0x1AEC JUMP JUMPDEST ADD MLOAD PUSH1 0x0 NOT PUSH1 0xF8 DUP5 PUSH1 0x3 SHL AND SHR NOT AND SWAP1 SSTORE CODESIZE DUP1 DUP1 PUSH2 0x2123 JUMP JUMPDEST SWAP3 SWAP4 PUSH1 0x20 PUSH1 0x1 DUP2 SWAP3 DUP8 DUP7 ADD MLOAD DUP2 SSTORE ADD SWAP6 ADD SWAP4 ADD PUSH2 0x210D JUMP JUMPDEST PUSH2 0x218D SWAP1 DUP6 PUSH1 0x0 MSTORE PUSH1 0x20 PUSH1 0x0 KECCAK256 PUSH1 0x1F DUP6 ADD PUSH1 0x5 SHR DUP2 ADD SWAP2 PUSH1 0x20 DUP7 LT PUSH2 0x1EDC JUMPI PUSH1 0x1F ADD PUSH1 0x5 SHR ADD SWAP1 PUSH2 0x16AB JUMP JUMPDEST CODESIZE PUSH2 0x1AC0 JUMP JUMPDEST ADD MLOAD SWAP1 POP CODESIZE DUP1 PUSH2 0x1A7C JUMP JUMPDEST PUSH1 0x0 DUP6 DUP2 MSTORE PUSH1 0x20 DUP2 KECCAK256 SWAP4 POP PUSH1 0x1F NOT DUP6 AND SWAP1 JUMPDEST DUP2 DUP2 LT PUSH2 0x21EC JUMPI POP SWAP1 DUP5 PUSH1 0x1 SWAP6 SWAP5 SWAP4 SWAP3 LT PUSH2 0x21D3 JUMPI JUMPDEST POP POP POP DUP2 SHL ADD SWAP1 SSTORE PUSH2 0x1A91 JUMP JUMPDEST ADD MLOAD PUSH1 0x0 NOT PUSH1 0xF8 DUP5 PUSH1 0x3 SHL AND SHR NOT AND SWAP1 SSTORE CODESIZE DUP1 DUP1 PUSH2 0x21C6 JUMP JUMPDEST SWAP3 SWAP4 PUSH1 0x20 PUSH1 0x1 DUP2 SWAP3 DUP8 DUP7 ADD MLOAD DUP2 SSTORE ADD SWAP6 ADD SWAP4 ADD PUSH2 0x21B0 JUMP JUMPDEST PUSH2 0x2230 SWAP1 DUP6 PUSH1 0x0 MSTORE PUSH1 0x20 PUSH1 0x0 KECCAK256 PUSH1 0x1F DUP6 ADD PUSH1 0x5 SHR DUP2 ADD SWAP2 PUSH1 0x20 DUP7 LT PUSH2 0x1EDC JUMPI PUSH1 0x1F ADD PUSH1 0x5 SHR ADD SWAP1 PUSH2 0x16AB JUMP JUMPDEST CODESIZE PUSH2 0x1A65 JUMP JUMPDEST ADD MLOAD SWAP1 POP CODESIZE DUP1 PUSH2 0x1A21 JUMP JUMPDEST PUSH1 0x0 DUP6 DUP2 MSTORE PUSH1 0x20 DUP2 KECCAK256 SWAP4 POP PUSH1 0x1F NOT DUP6 AND SWAP1 JUMPDEST DUP2 DUP2 LT PUSH2 0x228F JUMPI POP SWAP1 DUP5 PUSH1 0x1 SWAP6 SWAP5 SWAP4 SWAP3 LT PUSH2 0x2276 JUMPI JUMPDEST POP POP POP DUP2 SHL ADD SWAP1 SSTORE PUSH2 0x1A36 JUMP JUMPDEST ADD MLOAD PUSH1 0x0 NOT PUSH1 0xF8 DUP5 PUSH1 0x3 SHL AND SHR NOT AND SWAP1 SSTORE CODESIZE DUP1 DUP1 PUSH2 0x2269 JUMP JUMPDEST SWAP3 SWAP4 PUSH1 0x20 PUSH1 0x1 DUP2 SWAP3 DUP8 DUP7 ADD MLOAD DUP2 SSTORE ADD SWAP6 ADD SWAP4 ADD PUSH2 0x2253 JUMP JUMPDEST PUSH2 0x22D3 SWAP1 DUP6 PUSH1 0x0 MSTORE PUSH1 0x20 PUSH1 0x0 KECCAK256 PUSH1 0x1F DUP6 ADD PUSH1 0x5 SHR DUP2 ADD SWAP2 PUSH1 0x20 DUP7 LT PUSH2 0x1EDC JUMPI PUSH1 0x1F ADD PUSH1 0x5 SHR ADD SWAP1 PUSH2 0x16AB JUMP JUMPDEST CODESIZE PUSH2 0x1A0A JUMP JUMPDEST ADD MLOAD SWAP1 POP CODESIZE DUP1 PUSH2 0x19C6 JUMP JUMPDEST PUSH1 0x0 DUP6 DUP2 MSTORE PUSH1 0x20 DUP2 KECCAK256 SWAP4 POP PUSH1 0x1F NOT DUP6 AND SWAP1 JUMPDEST DUP2 DUP2 LT PUSH2 0x2332 JUMPI POP SWAP1 DUP5 PUSH1 0x1 SWAP6 SWAP5 SWAP4 SWAP3 LT PUSH2 0x2319 JUMPI JUMPDEST POP POP POP DUP2 SHL ADD SWAP1 SSTORE PUSH2 0x19DB JUMP JUMPDEST ADD MLOAD PUSH1 0x0 NOT PUSH1 0xF8 DUP5 PUSH1 0x3 SHL AND SHR NOT AND SWAP1 SSTORE CODESIZE DUP1 DUP1 PUSH2 0x230C JUMP JUMPDEST SWAP3 SWAP4 PUSH1 0x20 PUSH1 0x1 DUP2 SWAP3 DUP8 DUP7 ADD MLOAD DUP2 SSTORE ADD SWAP6 ADD SWAP4 ADD PUSH2 0x22F6 JUMP JUMPDEST PUSH2 0x2376 SWAP1 DUP6 PUSH1 0x0 MSTORE PUSH1 0x20 PUSH1 0x0 KECCAK256 PUSH1 0x1F DUP6 ADD PUSH1 0x5 SHR DUP2 ADD SWAP2 PUSH1 0x20 DUP7 LT PUSH2 0x1EDC JUMPI PUSH1 0x1F ADD PUSH1 0x5 SHR ADD SWAP1 PUSH2 0x16AB JUMP JUMPDEST CODESIZE PUSH2 0x19AF JUMP JUMPDEST PUSH4 0x4E487B71 PUSH1 0xE0 SHL PUSH1 0x0 MSTORE PUSH1 0x0 PUSH1 0x4 MSTORE PUSH1 0x24 PUSH1 0x0 REVERT JUMPDEST PUSH2 0x23AA SWAP1 PUSH1 0x20 PUSH1 0x40 MLOAD SWAP3 DUP3 DUP5 DUP1 SWAP5 MLOAD SWAP4 DUP5 SWAP3 ADD PUSH2 0x1385 JUMP JUMPDEST DUP2 ADD SUB SWAP1 KECCAK256 SWAP1 JUMP JUMPDEST PUSH1 0x0 NOT DUP2 EQ PUSH2 0x1D99 JUMPI PUSH1 0x1 ADD SWAP1 JUMP JUMPDEST SWAP1 PUSH1 0x40 MLOAD SWAP2 DUP3 PUSH1 0x0 DUP3 SLOAD SWAP3 PUSH2 0x23D5 DUP5 PUSH2 0x1671 JUMP JUMPDEST SWAP1 DUP2 DUP5 MSTORE PUSH1 0x1 SWAP5 DUP6 DUP2 AND SWAP1 DUP2 PUSH1 0x0 EQ PUSH2 0x2442 JUMPI POP PUSH1 0x1 EQ PUSH2 0x23FF JUMPI JUMPDEST POP POP PUSH2 0x16E7 SWAP3 POP SUB DUP4 PUSH2 0x12FD JUMP JUMPDEST SWAP1 SWAP4 SWAP2 POP PUSH1 0x0 MSTORE PUSH1 0x20 SWAP1 DUP2 PUSH1 0x0 KECCAK256 SWAP4 PUSH1 0x0 SWAP2 JUMPDEST DUP2 DUP4 LT PUSH2 0x242A JUMPI POP POP PUSH2 0x16E7 SWAP4 POP DUP3 ADD ADD CODESIZE DUP1 PUSH2 0x23F1 JUMP JUMPDEST DUP6 SLOAD DUP9 DUP5 ADD DUP6 ADD MSTORE SWAP5 DUP6 ADD SWAP5 DUP8 SWAP5 POP SWAP2 DUP4 ADD SWAP2 PUSH2 0x2412 JUMP JUMPDEST SWAP2 POP POP PUSH2 0x16E7 SWAP5 POP PUSH1 0x20 SWAP3 POP PUSH1 0xFF NOT AND DUP3 DUP5 ADD MSTORE ISZERO ISZERO PUSH1 0x5 SHL DUP3 ADD ADD CODESIZE DUP1 PUSH2 0x23F1 JUMP JUMPDEST SWAP1 PUSH1 0x40 MLOAD SWAP2 PUSH1 0x20 SWAP3 PUSH2 0x2493 DUP5 DUP3 DUP2 PUSH2 0x2486 DUP2 DUP4 ADD SWAP7 DUP8 DUP2 MLOAD SWAP4 DUP5 SWAP3 ADD PUSH2 0x1385 JUMP JUMPDEST DUP2 ADD SUB DUP1 DUP5 MSTORE ADD DUP3 PUSH2 0x12FD JUMP JUMPDEST MLOAD SWAP1 KECCAK256 SWAP2 PUSH2 0x24B3 PUSH1 0x40 MLOAD SWAP2 DUP3 DUP2 PUSH2 0x2486 DUP2 DUP4 ADD SWAP7 DUP8 DUP2 MLOAD SWAP4 DUP5 SWAP3 ADD PUSH2 0x1385 JUMP JUMPDEST MLOAD SWAP1 KECCAK256 EQ SWAP1 JUMP JUMPDEST PUSH1 0x1 PUSH1 0x1 PUSH1 0x40 SHL SUB DUP2 GT PUSH2 0x1295 JUMPI PUSH1 0x5 SHL PUSH1 0x20 ADD SWAP1 JUMP JUMPDEST SWAP1 DUP2 SLOAD PUSH2 0x24DD DUP2 PUSH2 0x24BA JUMP JUMPDEST SWAP3 PUSH1 0x40 SWAP4 PUSH2 0x24ED DUP6 MLOAD SWAP2 DUP3 PUSH2 0x12FD JUMP JUMPDEST DUP3 DUP2 MSTORE DUP1 SWAP5 PUSH1 0x20 DUP1 SWAP3 ADD SWAP3 PUSH1 0x0 MSTORE DUP2 PUSH1 0x0 KECCAK256 SWAP1 PUSH1 0x0 SWAP4 JUMPDEST DUP6 DUP6 LT PUSH2 0x2513 JUMPI POP POP POP POP POP POP JUMP JUMPDEST PUSH1 0x5 DUP5 PUSH1 0x1 SWAP3 DUP5 MLOAD PUSH2 0x2524 DUP2 PUSH2 0x12C7 JUMP JUMPDEST DUP5 DUP1 PUSH1 0xA0 SHL SUB DUP8 SLOAD AND DUP2 MSTORE DUP5 DUP8 ADD SLOAD DUP4 DUP3 ADD MSTORE PUSH2 0x2543 PUSH1 0x2 DUP9 ADD PUSH2 0x23C1 JUMP JUMPDEST DUP7 DUP3 ADD MSTORE PUSH1 0x3 DUP8 ADD SLOAD PUSH1 0x60 DUP3 ADD MSTORE PUSH2 0x255D PUSH1 0x4 DUP9 ADD PUSH2 0x23C1 JUMP JUMPDEST PUSH1 0x80 DUP3 ADD MSTORE DUP2 MSTORE ADD SWAP4 ADD SWAP5 ADD SWAP4 SWAP2 PUSH2 0x2504 JUMP JUMPDEST SWAP1 DUP2 SLOAD PUSH2 0x257C DUP2 PUSH2 0x24BA JUMP JUMPDEST SWAP3 PUSH1 0x40 SWAP4 PUSH2 0x258C DUP6 MLOAD SWAP2 DUP3 PUSH2 0x12FD JUMP JUMPDEST DUP3 DUP2 MSTORE DUP1 SWAP5 PUSH1 0x20 DUP1 SWAP3 ADD SWAP3 PUSH1 0x0 MSTORE DUP2 PUSH1 0x0 KECCAK256 SWAP1 PUSH1 0x0 SWAP4 JUMPDEST DUP6 DUP6 LT PUSH2 0x25B2 JUMPI POP POP POP POP POP POP JUMP JUMPDEST PUSH1 0x3 DUP5 PUSH1 0x1 SWAP3 DUP5 MLOAD PUSH2 0x25C3 DUP2 PUSH2 0x12E2 JUMP JUMPDEST DUP5 DUP1 PUSH1 0xA0 SHL SUB DUP8 SLOAD AND DUP2 MSTORE DUP5 DUP8 ADD SLOAD DUP4 DUP3 ADD MSTORE PUSH1 0x2 DUP8 ADD SLOAD DUP7 DUP3 ADD MSTORE DUP2 MSTORE ADD SWAP4 ADD SWAP5 ADD SWAP4 SWAP2 PUSH2 0x25A3 JUMP JUMPDEST SWAP1 PUSH1 0x40 MLOAD PUSH2 0x25FA DUP2 PUSH2 0x12AB JUMP JUMPDEST PUSH2 0x1A0 PUSH2 0x26D6 PUSH1 0xC DUP4 SWAP6 DUP1 SLOAD DUP6 MSTORE PUSH1 0xFF PUSH1 0x1 DUP3 ADD SLOAD PUSH1 0x1 DUP1 PUSH1 0xA0 SHL SUB DUP2 AND PUSH1 0x20 DUP9 ADD MSTORE PUSH1 0xA0 SHR AND ISZERO ISZERO PUSH1 0x40 DUP7 ADD MSTORE PUSH2 0x2634 PUSH1 0x2 DUP3 ADD PUSH2 0x23C1 JUMP JUMPDEST PUSH1 0x60 DUP7 ADD MSTORE PUSH2 0x2645 PUSH1 0x3 DUP3 ADD PUSH2 0x23C1 JUMP JUMPDEST PUSH1 0x80 DUP7 ADD MSTORE PUSH2 0x2656 PUSH1 0x4 DUP3 ADD PUSH2 0x23C1 JUMP JUMPDEST PUSH1 0xA0 DUP7 ADD MSTORE PUSH2 0x2667 PUSH1 0x5 DUP3 ADD PUSH2 0x23C1 JUMP JUMPDEST PUSH1 0xC0 DUP7 ADD MSTORE PUSH2 0x2678 PUSH1 0x6 DUP3 ADD PUSH2 0x23C1 JUMP JUMPDEST PUSH1 0xE0 DUP7 ADD MSTORE PUSH2 0x2689 PUSH1 0x7 DUP3 ADD PUSH2 0x23C1 JUMP JUMPDEST PUSH2 0x100 DUP7 ADD MSTORE PUSH2 0x269B PUSH1 0x8 DUP3 ADD PUSH2 0x23C1 JUMP JUMPDEST PUSH2 0x120 DUP7 ADD MSTORE PUSH2 0x26AD PUSH1 0x9 DUP3 ADD PUSH2 0x23C1 JUMP JUMPDEST PUSH2 0x140 DUP7 ADD MSTORE PUSH1 0xA DUP2 ADD SLOAD PUSH2 0x160 DUP7 ADD MSTORE PUSH2 0x26CA PUSH1 0xB DUP3 ADD PUSH2 0x24D1 JUMP JUMPDEST PUSH2 0x180 DUP7 ADD MSTORE ADD PUSH2 0x2570 JUMP JUMPDEST SWAP2 ADD MSTORE JUMP JUMPDEST SWAP1 PUSH2 0x26E5 DUP3 PUSH2 0x24BA JUMP JUMPDEST PUSH1 0x40 SWAP1 PUSH2 0x26F4 DUP3 MLOAD SWAP2 DUP3 PUSH2 0x12FD JUMP JUMPDEST DUP4 DUP2 MSTORE DUP1 SWAP4 PUSH2 0x2705 PUSH1 0x1F NOT SWAP2 PUSH2 0x24BA JUMP JUMPDEST ADD SWAP2 PUSH1 0x0 JUMPDEST DUP4 DUP2 LT PUSH2 0x2717 JUMPI POP POP POP POP JUMP JUMPDEST PUSH1 0x20 SWAP1 DUP3 MLOAD PUSH2 0x2725 DUP2 PUSH2 0x12AB JUMP JUMPDEST PUSH1 0x0 DUP2 MSTORE DUP3 PUSH1 0x0 DUP2 DUP4 ADD MSTORE PUSH1 0x0 DUP6 DUP4 ADD MSTORE PUSH1 0x60 DUP1 DUP1 DUP5 ADD MSTORE DUP1 PUSH1 0x80 DUP5 ADD MSTORE DUP1 PUSH1 0xA0 DUP5 ADD MSTORE DUP1 PUSH1 0xC0 DUP5 ADD MSTORE DUP1 PUSH1 0xE0 DUP5 ADD MSTORE DUP1 PUSH2 0x100 DUP5 ADD MSTORE DUP1 PUSH2 0x120 DUP5 ADD MSTORE DUP1 PUSH2 0x140 DUP5 ADD MSTORE PUSH1 0x0 PUSH2 0x160 DUP5 ADD MSTORE DUP1 PUSH2 0x180 DUP5 ADD MSTORE PUSH2 0x1A0 DUP4 ADD MSTORE DUP3 DUP7 ADD ADD MSTORE ADD PUSH2 0x270A JUMP JUMPDEST DUP1 MLOAD DUP3 LT ISZERO PUSH2 0x165B JUMPI PUSH1 0x20 SWAP2 PUSH1 0x5 SHL ADD ADD SWAP1 JUMP JUMPDEST PUSH1 0x5 SLOAD SWAP1 PUSH1 0x0 JUMPDEST DUP3 DUP2 LT PUSH2 0x27B4 JUMPI POP POP POP PUSH1 0x0 SWAP1 JUMP JUMPDEST PUSH2 0x27C6 DUP3 PUSH2 0x268 PUSH1 0x9 PUSH2 0x261 DUP6 PUSH2 0x1620 JUMP JUMPDEST PUSH2 0x27D8 JUMPI PUSH2 0x27D3 SWAP1 PUSH2 0x23B2 JUMP JUMPDEST PUSH2 0x27A5 JUMP JUMPDEST POP POP POP PUSH1 0x1 SWAP1 JUMP INVALID LOG2 PUSH5 0x6970667358 0x22 SLT KECCAK256 0xD4 CALL 0xAD SWAP10 MSTORE STOP CALLCODE DUP16 0xBD MOD 0xB4 SWAP3 0xA8 ORIGIN PUSH15 0x399A4648DC65976EA7A24E84DADE36 0xD7 0xA6 PUSH5 0x736F6C6343 STOP ADDMOD EQ STOP CALLER "
        },
        "methodIdentifiers": {
          "addComment(string,uint256,string,string,address)": "93ec02f1",
          "addressToLastGetMetaverseToken(address)": "bddff4d8",
          "buyItem(string,address,uint256)": "d41aab23",
          "changeListingVisibility(string,bool)": "990d6459",
          "get1000MetaverseToken()": "e607a8ba",
          "getAllUserListings()": "9992b606",
          "getListingByProductType(string)": "9dee74d5",
          "getProceeds(address,string)": "a39249b8",
          "getUserListing()": "7791b330",
          "getUserProfile(address)": "987ee156",
          "listItem(uint256,string,string,string,string,string,string,string,string,uint256)": "1a13cc59",
          "metaverseToken()": "3829f313",
          "productCodeExists(string)": "1cad3ac5",
          "setUserProfile(string,string)": "016363fa",
          "updateListing(string,uint256,string,string,string,string,string)": "318bb5c7",
          "withdrawProceeds(string)": "a97ce3c2"
        }
      }
    }
  }
}