{
  "_format": "hh-sol-artifact-1",
  "contractName": "MetaverseNFT",
  "sourceName": "contracts/MetaverseNFT.sol",
  "abi": [
    {
      "inputs": [],
      "stateMutability": "nonpayable",
      "type": "constructor"
    },
    {
      "inputs": [
        {
          "internalType": "address",
          "name": "sender",
          "type": "address"
        },
        {
          "internalType": "uint256",
          "name": "tokenId",
          "type": "uint256"
        },
        {
          "internalType": "address",
          "name": "owner",
          "type": "address"
        }
      ],
      "name": "ERC721IncorrectOwner",
      "type": "error"
    },
    {
      "inputs": [
        {
          "internalType": "address",
          "name": "operator",
          "type": "address"
        },
        {
          "internalType": "uint256",
          "name": "tokenId",
          "type": "uint256"
        }
      ],
      "name": "ERC721InsufficientApproval",
      "type": "error"
    },
    {
      "inputs": [
        {
          "internalType": "address",
          "name": "approver",
          "type": "address"
        }
      ],
      "name": "ERC721InvalidApprover",
      "type": "error"
    },
    {
      "inputs": [
        {
          "internalType": "address",
          "name": "operator",
          "type": "address"
        }
      ],
      "name": "ERC721InvalidOperator",
      "type": "error"
    },
    {
      "inputs": [
        {
          "internalType": "address",
          "name": "owner",
          "type": "address"
        }
      ],
      "name": "ERC721InvalidOwner",
      "type": "error"
    },
    {
      "inputs": [
        {
          "internalType": "address",
          "name": "receiver",
          "type": "address"
        }
      ],
      "name": "ERC721InvalidReceiver",
      "type": "error"
    },
    {
      "inputs": [
        {
          "internalType": "address",
          "name": "sender",
          "type": "address"
        }
      ],
      "name": "ERC721InvalidSender",
      "type": "error"
    },
    {
      "inputs": [
        {
          "internalType": "uint256",
          "name": "tokenId",
          "type": "uint256"
        }
      ],
      "name": "ERC721NonexistentToken",
      "type": "error"
    },
    {
      "anonymous": false,
      "inputs": [
        {
          "indexed": true,
          "internalType": "address",
          "name": "owner",
          "type": "address"
        },
        {
          "indexed": true,
          "internalType": "address",
          "name": "approved",
          "type": "address"
        },
        {
          "indexed": true,
          "internalType": "uint256",
          "name": "tokenId",
          "type": "uint256"
        }
      ],
      "name": "Approval",
      "type": "event"
    },
    {
      "anonymous": false,
      "inputs": [
        {
          "indexed": true,
          "internalType": "address",
          "name": "owner",
          "type": "address"
        },
        {
          "indexed": true,
          "internalType": "address",
          "name": "operator",
          "type": "address"
        },
        {
          "indexed": false,
          "internalType": "bool",
          "name": "approved",
          "type": "bool"
        }
      ],
      "name": "ApprovalForAll",
      "type": "event"
    },
    {
      "anonymous": false,
      "inputs": [
        {
          "indexed": false,
          "internalType": "uint256",
          "name": "_fromTokenId",
          "type": "uint256"
        },
        {
          "indexed": false,
          "internalType": "uint256",
          "name": "_toTokenId",
          "type": "uint256"
        }
      ],
      "name": "BatchMetadataUpdate",
      "type": "event"
    },
    {
      "anonymous": false,
      "inputs": [
        {
          "indexed": false,
          "internalType": "uint256",
          "name": "_tokenId",
          "type": "uint256"
        }
      ],
      "name": "MetadataUpdate",
      "type": "event"
    },
    {
      "anonymous": false,
      "inputs": [
        {
          "indexed": true,
          "internalType": "address",
          "name": "from",
          "type": "address"
        },
        {
          "indexed": true,
          "internalType": "address",
          "name": "to",
          "type": "address"
        },
        {
          "indexed": true,
          "internalType": "uint256",
          "name": "tokenId",
          "type": "uint256"
        }
      ],
      "name": "Transfer",
      "type": "event"
    },
    {
      "inputs": [
        {
          "internalType": "address",
          "name": "to",
          "type": "address"
        },
        {
          "internalType": "uint256",
          "name": "tokenId",
          "type": "uint256"
        }
      ],
      "name": "approve",
      "outputs": [],
      "stateMutability": "nonpayable",
      "type": "function"
    },
    {
      "inputs": [
        {
          "internalType": "address",
          "name": "owner",
          "type": "address"
        }
      ],
      "name": "balanceOf",
      "outputs": [
        {
          "internalType": "uint256",
          "name": "",
          "type": "uint256"
        }
      ],
      "stateMutability": "view",
      "type": "function"
    },
    {
      "inputs": [
        {
          "internalType": "uint256",
          "name": "tokenId",
          "type": "uint256"
        }
      ],
      "name": "getApproved",
      "outputs": [
        {
          "internalType": "address",
          "name": "",
          "type": "address"
        }
      ],
      "stateMutability": "view",
      "type": "function"
    },
    {
      "inputs": [
        {
          "internalType": "address",
          "name": "owner",
          "type": "address"
        },
        {
          "internalType": "address",
          "name": "operator",
          "type": "address"
        }
      ],
      "name": "isApprovedForAll",
      "outputs": [
        {
          "internalType": "bool",
          "name": "",
          "type": "bool"
        }
      ],
      "stateMutability": "view",
      "type": "function"
    },
    {
      "inputs": [
        {
          "internalType": "string",
          "name": "tokenURI",
          "type": "string"
        }
      ],
      "name": "mintNFT",
      "outputs": [
        {
          "internalType": "uint256",
          "name": "",
          "type": "uint256"
        }
      ],
      "stateMutability": "nonpayable",
      "type": "function"
    },
    {
      "inputs": [],
      "name": "name",
      "outputs": [
        {
          "internalType": "string",
          "name": "",
          "type": "string"
        }
      ],
      "stateMutability": "view",
      "type": "function"
    },
    {
      "inputs": [
        {
          "internalType": "uint256",
          "name": "tokenId",
          "type": "uint256"
        }
      ],
      "name": "ownerOf",
      "outputs": [
        {
          "internalType": "address",
          "name": "",
          "type": "address"
        }
      ],
      "stateMutability": "view",
      "type": "function"
    },
    {
      "inputs": [
        {
          "internalType": "address",
          "name": "from",
          "type": "address"
        },
        {
          "internalType": "address",
          "name": "to",
          "type": "address"
        },
        {
          "internalType": "uint256",
          "name": "tokenId",
          "type": "uint256"
        }
      ],
      "name": "safeTransferFrom",
      "outputs": [],
      "stateMutability": "nonpayable",
      "type": "function"
    },
    {
      "inputs": [
        {
          "internalType": "address",
          "name": "from",
          "type": "address"
        },
        {
          "internalType": "address",
          "name": "to",
          "type": "address"
        },
        {
          "internalType": "uint256",
          "name": "tokenId",
          "type": "uint256"
        },
        {
          "internalType": "bytes",
          "name": "data",
          "type": "bytes"
        }
      ],
      "name": "safeTransferFrom",
      "outputs": [],
      "stateMutability": "nonpayable",
      "type": "function"
    },
    {
      "inputs": [
        {
          "internalType": "address",
          "name": "operator",
          "type": "address"
        },
        {
          "internalType": "bool",
          "name": "approved",
          "type": "bool"
        }
      ],
      "name": "setApprovalForAll",
      "outputs": [],
      "stateMutability": "nonpayable",
      "type": "function"
    },
    {
      "inputs": [
        {
          "internalType": "bytes4",
          "name": "interfaceId",
          "type": "bytes4"
        }
      ],
      "name": "supportsInterface",
      "outputs": [
        {
          "internalType": "bool",
          "name": "",
          "type": "bool"
        }
      ],
      "stateMutability": "view",
      "type": "function"
    },
    {
      "inputs": [],
      "name": "symbol",
      "outputs": [
        {
          "internalType": "string",
          "name": "",
          "type": "string"
        }
      ],
      "stateMutability": "view",
      "type": "function"
    },
    {
      "inputs": [
        {
          "internalType": "uint256",
          "name": "tokenId",
          "type": "uint256"
        }
      ],
      "name": "tokenURI",
      "outputs": [
        {
          "internalType": "string",
          "name": "",
          "type": "string"
        }
      ],
      "stateMutability": "view",
      "type": "function"
    },
    {
      "inputs": [
        {
          "internalType": "address",
          "name": "from",
          "type": "address"
        },
        {
          "internalType": "address",
          "name": "to",
          "type": "address"
        },
        {
          "internalType": "uint256",
          "name": "tokenId",
          "type": "uint256"
        }
      ],
      "name": "transferFrom",
      "outputs": [],
      "stateMutability": "nonpayable",
      "type": "function"
    }
  ],
  "bytecode": "0x60803462000310576001600160401b039060409080820183811182821017620002fa578252600d81526020926c13595d185d995c9cd948139195609a1b84830152825183810181811083821117620002fa578452600381526213519560ea1b85820152825190828211620002fa5760008054926001958685811c95168015620002ef575b89861014620002db578190601f9586811162000288575b5089908683116001146200022457849262000218575b5050600019600383901b1c191690861b1781555b8151938411620002045784548581811c91168015620001f9575b88821014620001e5578381116200019d575b508692841160011462000137578394959650926200012b575b5050600019600383901b1c191690821b1790555b51610e9b9081620003168239f35b01519050388062000109565b9190601f1984169685845280842093905b8882106200018557505083859697106200016b575b505050811b0190556200011d565b015160001960f88460031b161c191690553880806200015d565b80878596829496860151815501950193019062000148565b8582528782208480870160051c8201928a8810620001db575b0160051c019086905b828110620001cf575050620000f0565b838155018690620001bf565b92508192620001b6565b634e487b7160e01b82526022600452602482fd5b90607f1690620000de565b634e487b7160e01b81526041600452602490fd5b015190503880620000b0565b8480528a85208994509190601f198416865b8d82821062000271575050841162000257575b505050811b018155620000c4565b015160001960f88460031b161c1916905538808062000249565b8385015186558c9790950194938401930162000236565b9091508380528984208680850160051c8201928c8610620002d1575b918a91869594930160051c01915b828110620002c25750506200009a565b8681558594508a9101620002b2565b92508192620002a4565b634e487b7160e01b83526022600452602483fd5b94607f169462000083565b634e487b7160e01b600052604160045260246000fd5b600080fdfe6080604081815260048036101561001557600080fd5b600092833560e01c90816301ffc9a71461092f5750806306fdde0314610887578063081812fc1461084c578063095ea7b31461077057806323b872dd1461075857806342842e0e1461072f5780636352211e146106fe57806370a08231146106a657806395d89b41146105c3578063a22cb46514610526578063b88d4fde146104be578063c87b56dd146103cd578063e985e9c51461037f5763fb37e883146100bd57600080fd5b3461037b57602091826003193601126103775767ffffffffffffffff9382358581116103735736602382011215610373576101019036906024818701359101610acb565b92600754956000198088146103605760018098018060075533156103495780855260028852858520546001600160a01b0316801515919082610318575b3380885260038b5288882080548d01905582885260028b5288882080546001600160a01b03191682179055907fddf252ad1be2c89b69c2b068fc378daa952ba7f163c4a11628f55a4df523b3ef8880a46103015760075493848152600688528581209387519384116102ee57506101b58454610b02565b601f81116102ac575b50969795969495889586906001601f86111461022d5791849392917ff8e1a15aba9398e019f0b49df1a4fde98ee17ae345cb5f6b5e2c27f5033e8ce7999a859395610222575b50501b9260031b1c19161790555b8351908152a16007549051908152f35b015193503880610204565b91939290601f19841699868452888420935b8b81106102975750847ff8e1a15aba9398e019f0b49df1a4fde98ee17ae345cb5f6b5e2c27f5033e8ce79a9b1061027f575b50505050811b019055610212565b01519060f88460031b161c1916905538808080610271565b8183015185559386019391890191890161023f565b848252888220601f850160051c8101918a86106102e4575b601f0160051c01905b8181106102da57506101be565b8281558a016102cd565b90915081906102c4565b634e487b7160e01b825260419052602490fd5b84516339e3563760e11b8152808401859052602490fd5b600082815260046020526040902080546001600160a01b031916905580875260038a5287872084815401905561013e565b8551633250574960e11b8152808501869052602490fd5b634e487b7160e01b845260118352602484fd5b5080fd5b8380fd5b8280fd5b50503461037357806003193601126103735760ff8160209361039f6109f5565b6103a7610a10565b6001600160a01b0391821683526005875283832091168252855220549151911615158152f35b50903461037b576020918260031936011261037757356103ec81610e2a565b5083526006825280832092815180948290805461040881610b02565b91828552600191888382169182600014610497575050600114610459575b50505061045593929161043a910386610a8d565b815161044581610a5b565b52519282849384528301906109b5565b0390f35b8552868520879350859291905b82841061047f575050508201018161043a610455610426565b8054848b018601528995508894909301928101610466565b60ff19168782015293151560051b8601909301935084925061043a91506104559050610426565b838234610373576080366003190112610373576104d96109f5565b6104e1610a10565b9060643567ffffffffffffffff811161052257366023820112156105225761051f9381602461051593369301359101610acb565b9160443591610cdb565b80f35b8480fd5b50903461037b578060031936011261037b576105406109f5565b9060243591821515809303610522576001600160a01b03169283156105ae5750338452600560205280842083855260205280842060ff1981541660ff8416179055519081527f17307eab39ab6107e8899845ad3d59bd9653f200f220920489ca2b5937696c3160203392a380f35b836024925191630b61174360e31b8352820152fd5b5050346103735781600319360112610373578051908260018054916105e783610b02565b8086529282811690811561067e5750600114610622575b50505061061082610455940383610a8d565b519182916020835260208301906109b5565b94508085527fb10e2d527612073b26eecdfd717e6a320cf44b4afac2b0732d9fcbe2b7fa0cf65b8286106106665750505061061082602061045595820101946105fe565b80546020878701810191909152909501948101610649565b61045597508693506020925061061094915060ff191682840152151560051b820101946105fe565b5091346106fb5760203660031901126106fb576001600160a01b036106c96109f5565b169283156106e65750806020938392526003845220549051908152f35b91516322718ad960e21b815291820152602490fd5b80fd5b5091346106fb5760203660031901126106fb575061071e60209235610e2a565b90516001600160a01b039091168152f35b5050346103735761051f9061074336610a26565b9192519261075084610a5b565b858452610cdb565b83346106fb5761051f61076a36610a26565b91610b3c565b50903461037b578060031936011261037b5761078a6109f5565b9160243561079781610e2a565b33151580610839575b80610810575b6107fa576001600160a01b039485169482918691167f8c5be1e5ebec7d5bd14f71427d1e84f3dd0314c0f7b2291e5b200ac8c7c3b9258880a48452602052822080546001600160a01b031916909117905580f35b835163a9fbf51f60e01b81523381850152602490fd5b506001600160a01b03811686526005602090815284872033885290528386205460ff16156107a6565b506001600160a01b0381163314156107a0565b503461037b57602036600319011261037b5791826020933561086d81610e2a565b50825283528190205490516001600160a01b039091168152f35b5050346103735781600319360112610373578051908280546108a881610b02565b8085529160019180831690811561067e57506001146108d35750505061061082610455940383610a8d565b80809650527f290decd9548b62a8d60345a988386fc84ba6bc95484008f6362f93160ef3e5635b8286106109175750505061061082602061045595820101946105fe565b805460208787018101919091529095019481016108fa565b9250503461037b57602036600319011261037b573563ffffffff60e01b811680910361037b5760209250632483248360e11b8114908115610972575b5015158152f35b6380ac58cd60e01b8114915081156109a4575b8115610993575b503861096b565b6301ffc9a760e01b1490503861098c565b635b5e139f60e01b81149150610985565b919082519283825260005b8481106109e1575050826000602080949584010152601f8019910116010190565b6020818301810151848301820152016109c0565b600435906001600160a01b0382168203610a0b57565b600080fd5b602435906001600160a01b0382168203610a0b57565b6060906003190112610a0b576001600160a01b03906004358281168103610a0b57916024359081168103610a0b579060443590565b6020810190811067ffffffffffffffff821117610a7757604052565b634e487b7160e01b600052604160045260246000fd5b90601f8019910116810190811067ffffffffffffffff821117610a7757604052565b67ffffffffffffffff8111610a7757601f01601f191660200190565b929192610ad782610aaf565b91610ae56040519384610a8d565b829481845281830111610a0b578281602093846000960137010152565b90600182811c92168015610b32575b6020831014610b1c57565b634e487b7160e01b600052602260045260246000fd5b91607f1691610b11565b6001600160a01b039182169290918315610cc257600092828452826020956002875260409684888820541696879133151580610c2c575b509060027fddf252ad1be2c89b69c2b068fc378daa952ba7f163c4a11628f55a4df523b3ef9284610bf9575b858352600381528b8320805460010190558683525289812080546001600160a01b0319168517905580a41692838303610bd85750505050565b6064945051926364283d7b60e01b8452600484015260248301526044820152fd5b600087815260046020526040902080546001600160a01b0319169055848352600381528b83208054600019019055610b9f565b91939450915080610c81575b15610c4857859291879138610b73565b878688610c65576024915190637e27328960e01b82526004820152fd5b604491519063177e802f60e01b82523360048301526024820152fd5b503387148015610ca6575b80610c385750858252600481523385898420541614610c38565b5086825260058152878220338352815260ff8883205416610c8c565b604051633250574960e11b815260006004820152602490fd5b610ce6838383610b3c565b813b610cf3575b50505050565b604051630a85bd0160e11b8082523360048301526001600160a01b03928316602483015260448201949094526080606482015260209592909116939092908390610d419060848301906109b5565b039285816000958187895af1849181610dea575b50610db5575050503d600014610dad573d610d6f81610aaf565b90610d7d6040519283610a8d565b81528091843d92013e5b80519283610da857604051633250574960e11b815260048101849052602490fd5b019050fd5b506060610d87565b919450915063ffffffff60e01b1603610dd2575038808080610ced565b60249060405190633250574960e11b82526004820152fd5b9091508681813d8311610e23575b610e028183610a8d565b8101031261052257516001600160e01b031981168103610522579038610d55565b503d610df8565b6000818152600260205260409020546001600160a01b0316908115610e4d575090565b60249060405190637e27328960e01b82526004820152fdfea2646970667358221220a99e22d5b3dca4bef82e871c502cada0b10a511a9533133dac2c090ff692433164736f6c63430008140033",
  "linkReferences": {},
  "deployedLinkReferences": {}
}