{
  "_format": "hh-sol-artifact-1",
  "contractName": "MetaverseMarketplace",
  "sourceName": "contracts/MetaverseMarketplace.sol",
  "abi": [
    {
      "inputs": [
        {
          "internalType": "address",
          "name": "_metaverseTokenAddress",
          "type": "address"
        }
      ],
      "stateMutability": "nonpayable",
      "type": "constructor"
    },
    {
      "inputs": [
        {
          "internalType": "address",
          "name": "senderAddress",
          "type": "address"
        }
      ],
      "name": "MetaverseMarketplace__AddressLessThan1DayForMetaverseToken",
      "type": "error"
    },
    {
      "inputs": [],
      "name": "MetaverseMarketplace__NoProceeds",
      "type": "error"
    },
    {
      "inputs": [],
      "name": "MetaverseMarketplace__PriceMustBeAboveZero",
      "type": "error"
    },
    {
      "inputs": [
        {
          "internalType": "string",
          "name": "productCode",
          "type": "string"
        },
        {
          "internalType": "address",
          "name": "seller",
          "type": "address"
        },
        {
          "internalType": "uint256",
          "name": "price",
          "type": "uint256"
        }
      ],
      "name": "MetaverseMarketplace__PriceNotMet",
      "type": "error"
    },
    {
      "inputs": [],
      "name": "ReentrancyGuardReentrantCall",
      "type": "error"
    },
    {
      "anonymous": false,
      "inputs": [
        {
          "indexed": true,
          "internalType": "address",
          "name": "commenter",
          "type": "address"
        },
        {
          "indexed": true,
          "internalType": "string",
          "name": "comment",
          "type": "string"
        },
        {
          "indexed": true,
          "internalType": "string",
          "name": "productCode",
          "type": "string"
        },
        {
          "indexed": false,
          "internalType": "address",
          "name": "seller",
          "type": "address"
        }
      ],
      "name": "CommentAdded",
      "type": "event"
    },
    {
      "anonymous": false,
      "inputs": [
        {
          "indexed": true,
          "internalType": "address",
          "name": "buyer",
          "type": "address"
        },
        {
          "indexed": true,
          "internalType": "string",
          "name": "productCode",
          "type": "string"
        },
        {
          "indexed": true,
          "internalType": "uint256",
          "name": "price",
          "type": "uint256"
        }
      ],
      "name": "ItemBought",
      "type": "event"
    },
    {
      "anonymous": false,
      "inputs": [
        {
          "indexed": true,
          "internalType": "address",
          "name": "seller",
          "type": "address"
        },
        {
          "indexed": true,
          "internalType": "uint256",
          "name": "price",
          "type": "uint256"
        },
        {
          "indexed": true,
          "internalType": "string",
          "name": "productCode",
          "type": "string"
        },
        {
          "indexed": false,
          "internalType": "string",
          "name": "title",
          "type": "string"
        }
      ],
      "name": "ItemListed",
      "type": "event"
    },
    {
      "anonymous": false,
      "inputs": [
        {
          "indexed": true,
          "internalType": "address",
          "name": "seller",
          "type": "address"
        },
        {
          "indexed": true,
          "internalType": "string",
          "name": "productCode",
          "type": "string"
        },
        {
          "indexed": true,
          "internalType": "bool",
          "name": "publish",
          "type": "bool"
        }
      ],
      "name": "ItemPublished",
      "type": "event"
    },
    {
      "anonymous": false,
      "inputs": [
        {
          "indexed": true,
          "internalType": "address",
          "name": "seller",
          "type": "address"
        },
        {
          "indexed": true,
          "internalType": "string",
          "name": "productCode",
          "type": "string"
        },
        {
          "indexed": true,
          "internalType": "string",
          "name": "title",
          "type": "string"
        },
        {
          "indexed": false,
          "internalType": "uint256",
          "name": "price",
          "type": "uint256"
        }
      ],
      "name": "ListingUpdated",
      "type": "event"
    },
    {
      "anonymous": false,
      "inputs": [
        {
          "indexed": true,
          "internalType": "address",
          "name": "person",
          "type": "address"
        }
      ],
      "name": "MetaverseAirdrop",
      "type": "event"
    },
    {
      "anonymous": false,
      "inputs": [
        {
          "indexed": true,
          "internalType": "address",
          "name": "person",
          "type": "address"
        },
        {
          "indexed": true,
          "internalType": "string",
          "name": "currency",
          "type": "string"
        },
        {
          "indexed": true,
          "internalType": "uint256",
          "name": "amount",
          "type": "uint256"
        }
      ],
      "name": "ProceedsWithdrawn",
      "type": "event"
    },
    {
      "anonymous": false,
      "inputs": [
        {
          "indexed": true,
          "internalType": "address",
          "name": "owner",
          "type": "address"
        },
        {
          "indexed": true,
          "internalType": "string",
          "name": "username",
          "type": "string"
        },
        {
          "indexed": true,
          "internalType": "string",
          "name": "profileImageUrl",
          "type": "string"
        }
      ],
      "name": "SetUserProfile",
      "type": "event"
    },
    {
      "inputs": [
        {
          "internalType": "string",
          "name": "comment",
          "type": "string"
        },
        {
          "internalType": "uint256",
          "name": "rating",
          "type": "uint256"
        },
        {
          "internalType": "string",
          "name": "dateString",
          "type": "string"
        },
        {
          "internalType": "string",
          "name": "productCode",
          "type": "string"
        },
        {
          "internalType": "address",
          "name": "seller",
          "type": "address"
        }
      ],
      "name": "addComment",
      "outputs": [],
      "stateMutability": "nonpayable",
      "type": "function"
    },
    {
      "inputs": [
        {
          "internalType": "address",
          "name": "",
          "type": "address"
        }
      ],
      "name": "addressToLastGetMetaverseToken",
      "outputs": [
        {
          "internalType": "uint256",
          "name": "",
          "type": "uint256"
        }
      ],
      "stateMutability": "view",
      "type": "function"
    },
    {
      "inputs": [
        {
          "internalType": "string",
          "name": "productCode",
          "type": "string"
        },
        {
          "internalType": "address",
          "name": "seller",
          "type": "address"
        },
        {
          "internalType": "uint256",
          "name": "quantity",
          "type": "uint256"
        }
      ],
      "name": "buyItem",
      "outputs": [],
      "stateMutability": "payable",
      "type": "function"
    },
    {
      "inputs": [
        {
          "internalType": "string",
          "name": "productCode",
          "type": "string"
        },
        {
          "internalType": "bool",
          "name": "publish",
          "type": "bool"
        }
      ],
      "name": "changeListingVisibility",
      "outputs": [],
      "stateMutability": "nonpayable",
      "type": "function"
    },
    {
      "inputs": [],
      "name": "get1000MetaverseToken",
      "outputs": [],
      "stateMutability": "nonpayable",
      "type": "function"
    },
    {
      "inputs": [],
      "name": "getAllUserListings",
      "outputs": [
        {
          "components": [
            {
              "internalType": "uint256",
              "name": "price",
              "type": "uint256"
            },
            {
              "internalType": "address",
              "name": "seller",
              "type": "address"
            },
            {
              "internalType": "bool",
              "name": "published",
              "type": "bool"
            },
            {
              "internalType": "string",
              "name": "productType",
              "type": "string"
            },
            {
              "internalType": "string",
              "name": "title",
              "type": "string"
            },
            {
              "internalType": "string",
              "name": "description",
              "type": "string"
            },
            {
              "internalType": "string",
              "name": "imageUrl",
              "type": "string"
            },
            {
              "internalType": "string",
              "name": "currency",
              "type": "string"
            },
            {
              "internalType": "string",
              "name": "productUrl",
              "type": "string"
            },
            {
              "internalType": "string",
              "name": "productInfo",
              "type": "string"
            },
            {
              "internalType": "string",
              "name": "productCode",
              "type": "string"
            },
            {
              "internalType": "uint256",
              "name": "nftTokenId",
              "type": "uint256"
            },
            {
              "components": [
                {
                  "internalType": "address",
                  "name": "commenter",
                  "type": "address"
                },
                {
                  "internalType": "uint256",
                  "name": "rating",
                  "type": "uint256"
                },
                {
                  "internalType": "string",
                  "name": "comment",
                  "type": "string"
                },
                {
                  "internalType": "uint256",
                  "name": "time",
                  "type": "uint256"
                },
                {
                  "internalType": "string",
                  "name": "dateString",
                  "type": "string"
                }
              ],
              "internalType": "struct MetaverseMarketplace.Comment[]",
              "name": "comments",
              "type": "tuple[]"
            },
            {
              "components": [
                {
                  "internalType": "address",
                  "name": "buyer",
                  "type": "address"
                },
                {
                  "internalType": "uint256",
                  "name": "quantity",
                  "type": "uint256"
                },
                {
                  "internalType": "uint256",
                  "name": "totalPrice",
                  "type": "uint256"
                }
              ],
              "internalType": "struct MetaverseMarketplace.Buyer[]",
              "name": "buyers",
              "type": "tuple[]"
            }
          ],
          "internalType": "struct MetaverseMarketplace.Listing[]",
          "name": "",
          "type": "tuple[]"
        }
      ],
      "stateMutability": "view",
      "type": "function"
    },
    {
      "inputs": [
        {
          "internalType": "string",
          "name": "productType",
          "type": "string"
        }
      ],
      "name": "getListingByProductType",
      "outputs": [
        {
          "components": [
            {
              "internalType": "uint256",
              "name": "price",
              "type": "uint256"
            },
            {
              "internalType": "address",
              "name": "seller",
              "type": "address"
            },
            {
              "internalType": "bool",
              "name": "published",
              "type": "bool"
            },
            {
              "internalType": "string",
              "name": "productType",
              "type": "string"
            },
            {
              "internalType": "string",
              "name": "title",
              "type": "string"
            },
            {
              "internalType": "string",
              "name": "description",
              "type": "string"
            },
            {
              "internalType": "string",
              "name": "imageUrl",
              "type": "string"
            },
            {
              "internalType": "string",
              "name": "currency",
              "type": "string"
            },
            {
              "internalType": "string",
              "name": "productUrl",
              "type": "string"
            },
            {
              "internalType": "string",
              "name": "productInfo",
              "type": "string"
            },
            {
              "internalType": "string",
              "name": "productCode",
              "type": "string"
            },
            {
              "internalType": "uint256",
              "name": "nftTokenId",
              "type": "uint256"
            },
            {
              "components": [
                {
                  "internalType": "address",
                  "name": "commenter",
                  "type": "address"
                },
                {
                  "internalType": "uint256",
                  "name": "rating",
                  "type": "uint256"
                },
                {
                  "internalType": "string",
                  "name": "comment",
                  "type": "string"
                },
                {
                  "internalType": "uint256",
                  "name": "time",
                  "type": "uint256"
                },
                {
                  "internalType": "string",
                  "name": "dateString",
                  "type": "string"
                }
              ],
              "internalType": "struct MetaverseMarketplace.Comment[]",
              "name": "comments",
              "type": "tuple[]"
            },
            {
              "components": [
                {
                  "internalType": "address",
                  "name": "buyer",
                  "type": "address"
                },
                {
                  "internalType": "uint256",
                  "name": "quantity",
                  "type": "uint256"
                },
                {
                  "internalType": "uint256",
                  "name": "totalPrice",
                  "type": "uint256"
                }
              ],
              "internalType": "struct MetaverseMarketplace.Buyer[]",
              "name": "buyers",
              "type": "tuple[]"
            }
          ],
          "internalType": "struct MetaverseMarketplace.Listing[]",
          "name": "",
          "type": "tuple[]"
        }
      ],
      "stateMutability": "view",
      "type": "function"
    },
    {
      "inputs": [
        {
          "internalType": "address",
          "name": "seller",
          "type": "address"
        },
        {
          "internalType": "string",
          "name": "currency",
          "type": "string"
        }
      ],
      "name": "getProceeds",
      "outputs": [
        {
          "internalType": "uint256",
          "name": "",
          "type": "uint256"
        }
      ],
      "stateMutability": "view",
      "type": "function"
    },
    {
      "inputs": [],
      "name": "getUserListing",
      "outputs": [
        {
          "components": [
            {
              "internalType": "uint256",
              "name": "price",
              "type": "uint256"
            },
            {
              "internalType": "address",
              "name": "seller",
              "type": "address"
            },
            {
              "internalType": "bool",
              "name": "published",
              "type": "bool"
            },
            {
              "internalType": "string",
              "name": "productType",
              "type": "string"
            },
            {
              "internalType": "string",
              "name": "title",
              "type": "string"
            },
            {
              "internalType": "string",
              "name": "description",
              "type": "string"
            },
            {
              "internalType": "string",
              "name": "imageUrl",
              "type": "string"
            },
            {
              "internalType": "string",
              "name": "currency",
              "type": "string"
            },
            {
              "internalType": "string",
              "name": "productUrl",
              "type": "string"
            },
            {
              "internalType": "string",
              "name": "productInfo",
              "type": "string"
            },
            {
              "internalType": "string",
              "name": "productCode",
              "type": "string"
            },
            {
              "internalType": "uint256",
              "name": "nftTokenId",
              "type": "uint256"
            },
            {
              "components": [
                {
                  "internalType": "address",
                  "name": "commenter",
                  "type": "address"
                },
                {
                  "internalType": "uint256",
                  "name": "rating",
                  "type": "uint256"
                },
                {
                  "internalType": "string",
                  "name": "comment",
                  "type": "string"
                },
                {
                  "internalType": "uint256",
                  "name": "time",
                  "type": "uint256"
                },
                {
                  "internalType": "string",
                  "name": "dateString",
                  "type": "string"
                }
              ],
              "internalType": "struct MetaverseMarketplace.Comment[]",
              "name": "comments",
              "type": "tuple[]"
            },
            {
              "components": [
                {
                  "internalType": "address",
                  "name": "buyer",
                  "type": "address"
                },
                {
                  "internalType": "uint256",
                  "name": "quantity",
                  "type": "uint256"
                },
                {
                  "internalType": "uint256",
                  "name": "totalPrice",
                  "type": "uint256"
                }
              ],
              "internalType": "struct MetaverseMarketplace.Buyer[]",
              "name": "buyers",
              "type": "tuple[]"
            }
          ],
          "internalType": "struct MetaverseMarketplace.Listing[]",
          "name": "",
          "type": "tuple[]"
        }
      ],
      "stateMutability": "view",
      "type": "function"
    },
    {
      "inputs": [],
      "name": "getUserProfile",
      "outputs": [
        {
          "components": [
            {
              "internalType": "string",
              "name": "username",
              "type": "string"
            },
            {
              "internalType": "string",
              "name": "profileImageUrl",
              "type": "string"
            }
          ],
          "internalType": "struct MetaverseMarketplace.UserProfile",
          "name": "",
          "type": "tuple"
        }
      ],
      "stateMutability": "view",
      "type": "function"
    },
    {
      "inputs": [
        {
          "internalType": "uint256",
          "name": "price",
          "type": "uint256"
        },
        {
          "internalType": "string",
          "name": "productType",
          "type": "string"
        },
        {
          "internalType": "string",
          "name": "title",
          "type": "string"
        },
        {
          "internalType": "string",
          "name": "description",
          "type": "string"
        },
        {
          "internalType": "string",
          "name": "imageUrl",
          "type": "string"
        },
        {
          "internalType": "string",
          "name": "currency",
          "type": "string"
        },
        {
          "internalType": "string",
          "name": "productUrl",
          "type": "string"
        },
        {
          "internalType": "string",
          "name": "productInfo",
          "type": "string"
        },
        {
          "internalType": "string",
          "name": "productCode",
          "type": "string"
        },
        {
          "internalType": "uint256",
          "name": "nftTokenId",
          "type": "uint256"
        }
      ],
      "name": "listItem",
      "outputs": [],
      "stateMutability": "nonpayable",
      "type": "function"
    },
    {
      "inputs": [],
      "name": "metaverseToken",
      "outputs": [
        {
          "internalType": "contract IERC20",
          "name": "",
          "type": "address"
        }
      ],
      "stateMutability": "view",
      "type": "function"
    },
    {
      "inputs": [
        {
          "internalType": "string",
          "name": "productCode",
          "type": "string"
        }
      ],
      "name": "productCodeExists",
      "outputs": [
        {
          "internalType": "bool",
          "name": "",
          "type": "bool"
        }
      ],
      "stateMutability": "view",
      "type": "function"
    },
    {
      "inputs": [
        {
          "internalType": "string",
          "name": "newUsername",
          "type": "string"
        },
        {
          "internalType": "string",
          "name": "profileImageUrl",
          "type": "string"
        }
      ],
      "name": "setUserProfile",
      "outputs": [],
      "stateMutability": "nonpayable",
      "type": "function"
    },
    {
      "inputs": [
        {
          "internalType": "string",
          "name": "productCode",
          "type": "string"
        },
        {
          "internalType": "uint256",
          "name": "price",
          "type": "uint256"
        },
        {
          "internalType": "string",
          "name": "title",
          "type": "string"
        },
        {
          "internalType": "string",
          "name": "description",
          "type": "string"
        },
        {
          "internalType": "string",
          "name": "productInfo",
          "type": "string"
        },
        {
          "internalType": "string",
          "name": "productUrl",
          "type": "string"
        },
        {
          "internalType": "string",
          "name": "imageUrl",
          "type": "string"
        }
      ],
      "name": "updateListing",
      "outputs": [],
      "stateMutability": "nonpayable",
      "type": "function"
    },
    {
      "inputs": [
        {
          "internalType": "string",
          "name": "currency",
          "type": "string"
        }
      ],
      "name": "withdrawProceeds",
      "outputs": [],
      "stateMutability": "nonpayable",
      "type": "function"
    }
  ],
  "bytecode": "0x60803461007957601f61289c38819003918201601f19168301916001600160401b0383118484101761007e5780849260209460405283398101031261007957516001600160a01b03811690819003610079576001600055600480546001600160a01b03191691909117905560405161280790816100958239f35b600080fd5b634e487b7160e01b600052604160045260246000fdfe608060405260048036101561001357600080fd5b6000803560e01c8063016363fa14610fb25780631a13cc5914610dc35780631cad3ac514610d80578063318bb5c714610b2e5780633829f31314610b065780636f61c74414610a765780637791b330146109f657806393ec02f114610868578063990d6459146107935780639992b606146107075780639dee74d514610664578063a39249b8146105e8578063a97ce3c214610496578063bddff4d81461045d578063d41aab23146101e65763e607a8ba146100ce57600080fd5b346101a357806003193601126101a357338152602060038152604082205442034281116101d35762015180116101bc5780829333845260038252426040852055604460018060a01b0382541691604051958693849263a9059cbb60e01b84523390840152683635c9adc5dea0000060248401525af180156101b157610177575b82337f561f98adfb5df58a7c3c03f4ada643cc46c1a5291389819dbd6d01fe490481498280a280f35b81813d83116101aa575b61018b81836112ee565b810103126101a65751801515036101a357388061014e565b80fd5b5080fd5b503d610181565b6040513d85823e3d90fd5b60405163fca47e3160e01b81523381850152602490fd5b634e487b7160e01b835260118452602483fd5b5090606090816003193601126104595780356001600160401b03811161045557610213903690830161132a565b6001600160a01b0360248035828116959394919391908690036104515760449384359260028954146104405760028955885b6005548110156104325761026d88610268600961026185611611565b50016123b2565b612456565b61027f5761027a906123a3565b610245565b9495969761029561028f87611611565b506125de565b9788519182341061040357505050508551948584029584870414841517156103f157604051956102c4876112d3565b338752602094858801526040870152838701511688526001938484526103018460408b2060e08a0151908260405194838680955193849201611376565b8201908152030190208054903482018092116103df5755600c9061032490611611565b500191825494600160401b8610156103cd5785018084558510156103bc57505086528520825160039092020180546001600160a01b0319166001600160a01b03929092169190911781556020820151600182015560409091015160029091015561038f905191612383565b337f253fcd678c758e0e03dbf3a0243701c7439c306a61158b3c522a8119772990108480a45b6001815580f35b634e487b7160e01b89526032905287fd5b50634e487b7160e01b89526041905287fd5b634e487b7160e01b8b5260118552838bfd5b50634e487b7160e01b88526011825287fd5b604051630e90db8560e31b815295860193909352849392610427606486018c611399565b938501528301520390fd5b5050505050505050506103b5565b604051633ee5aeb560e01b81528390fd5b8680fd5b8380fd5b8280fd5b50346101a35760203660031901126101a3576020906040906001600160a01b036104856115fb565b168152600383522054604051908152f35b5090346101a6576020806003193601126104595781356001600160401b038111610455576104c7903690840161132a565b33845260018252604084206040518381845193828601946104e9818488611376565b820190815203019020549081156105d75761051c8487923384526001825260408420604051809481938951928391611376565b820190815203019020558480808084335af191823d156105d2573d6105408161130f565b9061054e60405192836112ee565b815287863d92013e5b61059d575b505015610567578280f35b60405162461bcd60e51b815291820152601060248201526f5472616e73666572206661696c65642160801b604482015260649150fd5b6105a690612383565b337ff2ca3efe12f71d386ef0fd2b75ebbef402882711943ccb42d5bdb696fa7a13418780a4388061055c565b610557565b60405163125d726b60e21b81528590fd5b5090346101a65760403660031901126101a6576106036115fb565b906024356001600160401b0381116104555791604060209461062c86946106529636910161132a565b6001600160a01b0390931681526001845220604051825190948593829085908701611376565b82019081520301902054604051908152f35b5090346101a65760203660031901126101a6578035906001600160401b038211610459576106949136910161132a565b600554906106a1826126cc565b925b8281106106bc57604051806106b886826113be565b0390f35b806106d28361026860026102616106db96611611565b6106e0576123a3565b6106a3565b6106ec61028f82611611565b6106f6828761277b565b52610701818661277b565b506123a3565b50346101a357806003193601126101a357600554610724816124ab565b9061073260405192836112ee565b808252600583527f036b6384b5eca791c62761152d0c79bb0604c104a5fb6f4eb0703f3154bb3db09260208084015b83831061077657604051806106b887826113be565b600d82600192610785896125de565b815201960192019194610761565b5090346101a65760403660031901126101a6578035906001600160401b038211610459576107c39136910161132a565b602435908115159081830361045557835b600554811015610861576107f082610268600961026185611611565b610802576107fd906123a3565b6107d4565b6108399293600161081561083493611611565b5001805460ff60a01b191691151560a01b60ff60a01b16919091179055565b612383565b337f51dabe03dbc9869cdc42f327348910c055732b793c7aaade368a32d8f3658e1e8480a480f35b5050505080f35b5090346101a65760a03660031901126101a6576001600160401b03813581811161045557610899903690840161132a565b90602492833592604435838111610451576108b7903690840161132a565b92606435908111610451576108cf903690840161132a565b926084356001600160a01b03811693908490036109f257875b600580548210156109e65761090587610268600961026186611611565b6109185750610913906123a3565b6108e8565b919293949596979061092b600b91611611565b5001906040519461093b866112b8565b3386526020998a8701528660408701524260608701526080860152815493600160401b8510156109d557600185018084558510156109c45750506109b7936109b1937f8bb52eee1b68032569fa2c483528d7d2b7db7824b9704ee675f72029562208659693610834938c528a8c209102016116fd565b93612383565b936040519283523392a480f35b634e487b7160e01b8b526032905289fd5b634e487b7160e01b8b526041905289fd5b50505050505050505080f35b8780fd5b50346101a357806003193601126101a357600554610a13816126cc565b915b818110610a2a57604051806106b885826113be565b80610a37610a5092611611565b50600101546001600160a01b03163314610a55576123a3565b610a15565b610a6161028f82611611565b610a6b828661277b565b52610701818561277b565b50346101a357806003193601126101a3576040610af391606060208351610a9c8161126b565b82815201523381526002602052206106b8610ad0600160405193610abf8561126b565b610ac8816123b2565b8552016123b2565b602083019081526040519384936020855251604060208601526060850190611399565b9051838203601f19016040850152611399565b5090346101a657816003193601126101a657546040516001600160a01b039091168152602090f35b5090346101a65760e03660031901126101a6576001600160401b03813581811161045557610b5f903690840161132a565b604435828111610d7c57610b76903690850161132a565b91606435818111610d7857610b8e903690860161132a565b9360843582811161045157610ba6903690830161132a565b9160a4358181116109f257610bbe903690840161132a565b9160c4359182116109f257610bd59136910161132a565b91865b600554811015610d6e57610bf485610268600961026185611611565b610c0657610c01906123a3565b610bd8565b92939495610c1384611611565b506001908101546001600160a01b03169590610c2e86611611565b50015492610c3b86611611565b5094610c4687611611565b50610c5088611611565b5093610c5b89611611565b50600a015495610c6a8a611611565b5097610c758b611611565b50996040519c610c848e61129c565b6024358e5260208e015260ff60a092831c16151560408e0152610ca9906002016123b2565b60608d01528d60808d01528b015260c08a0152600601610cc8906123b2565b60e0890152610100880152610120870152600901610ce5906123b2565b610140860152610160850152600b01610cfd906124c2565b610180840152600c01610d0f90612561565b6101a0830152610d1e90611611565b610d28929161192d565b610d3190612383565b90610d3b90612383565b906040516024358152339060207f384c5f98880fad6ed933597fe4becd24246db16d5a262945362c7ace0a0e47b591a480f35b5050505050505080f35b8580fd5b8480fd5b50346101a35760203660031901126101a3578135906001600160401b0382116101a3576020610db9610db43685870161132a565b61278f565b6040519015158152f35b5090346101a6576101409081600319360112610459578035906001600160401b0390602435828111610d7857610dfc903690830161132a565b9060443583811161045157610e14903690830161132a565b946064358481116109f257610e2c903690840161132a565b93608435818111610fae57610e44903690850161132a565b60a435828111610faa57610e5b903690860161132a565b60c435838111610fa657610e72903690870161132a565b9160e435848111610fa257610e8a903690880161132a565b9361010435908111610fa257610ea3903690880161132a565b978915610f91579088959493929160405198610ebe8a61129c565b8b8a523360208b01528d60408b015260608a01528b60808a015260a089015260c088015260e087015261010086015261012085015283015261012435610160830152606061018083015260606101a083015260055490600160401b821015610f7e5750610f3f9291610f398260016108349401600555611611565b9061192d565b917f9ec512f6157daf19471fdb4abc754cd622ce54571fda42c4c416ff378b0415836040516020815280610f7833946020830190611399565b0390a480f35b634e487b7160e01b875260419052602486fd5b604051635ebde5f560e11b81528790fd5b8b80fd5b8a80fd5b8980fd5b8880fd5b5090346101a65760403660031901126101a6576001600160401b0390803582811161045557610fe4903690830161132a565b602435838111610d7c57610ffb903690840161132a565b92604051906110098261126b565b828252602091828101928684523388526002815260408820915190815184811161125857806110388554611662565b938b601f958587821161122c575b50505083908583116001146111c9578c926111be575b50508160011b916000199060031b1c19161783555b600180930194519687519485116111ab575061108d8554611662565b828111611175575b50809184116001146111075750918080926110cd9695946110d3988b946110fc575b50501b916000199060031b1c1916179055612383565b91612383565b90337f8fb63d21cd1646c22e90408d0771d27886ed526a60064418e44b4e4a35bf6a078480a480f35b0151925038806110b7565b91939495601f198416868a52838a20938a905b82821061115e575050916110d397959391856110cd98969410611145575b505050811b019055612383565b015160001960f88460031b161c19169055388080611138565b80888697829497870151815501960194019061111a565b61119c90868b52828b208480880160051c8201928589106111a2575b0160051c019061169c565b38611095565b92508192611191565b634e487b7160e01b8a5260419052602489fd5b01519050388061105c565b868d52848d209250601f1984168d5b868282106112165750509084600195949392106111fd575b505050811b018355611071565b015160001960f88460031b161c191690553880806111f0565b60018596829396860151815501950193016111d8565b82896112509452208780860160051c8201928887106111a2570160051c019061169c565b8b3885611046565b634e487b7160e01b8a526041885260248afd5b604081019081106001600160401b0382111761128657604052565b634e487b7160e01b600052604160045260246000fd5b6101c081019081106001600160401b0382111761128657604052565b60a081019081106001600160401b0382111761128657604052565b606081019081106001600160401b0382111761128657604052565b90601f801991011681019081106001600160401b0382111761128657604052565b6001600160401b03811161128657601f01601f191660200190565b81601f82011215611371578035906113418261130f565b9261134f60405194856112ee565b8284526020838301011161137157816000926020809301838601378301015290565b600080fd5b60005b8381106113895750506000910152565b8181015183820152602001611379565b906020916113b281518092818552858086019101611376565b601f01601f1916010190565b602081016020825282518091526040820191602060408360051b8301019401926000915b8383106113f157505050505090565b9091929394603f198282030183528551908151815260018060a01b0360208301511660208201526040820151151560408201526114d86114c46114b061149c61148961147661146461145260608a01516101c08060608c01528a0190611399565b60808a015189820360808b0152611399565b60a089015188820360a08a0152611399565b60c0808901519088830390890152611399565b60e0808801519087830390880152611399565b610100808701519086830390870152611399565b610120808601519085830390860152611399565b610140808501519084830390850152611399565b90610160808401519082015261018091828401519282820390830152825180825260208201906020808260051b85010195019260005b82811061158b5750505050506101a08093015192818303910152602080835192838152019201906000905b80821061155857505050602080600192970193019301919392906113e2565b9091926020606060019260408751858060a01b038151168352848101518584015201516040820152019401920190611539565b90919293956020806115ee600193601f198782030189528a5190858060a01b038251168152838201518482015260806115d3604084015160a0604085015260a0840190611399565b92606081015160608401520151906080818403910152611399565b980195019392910161150e565b600435906001600160a01b038216820361137157565b60055481101561164c57600d906005600052027f036b6384b5eca791c62761152d0c79bb0604c104a5fb6f4eb0703f3154bb3db00190600090565b634e487b7160e01b600052603260045260246000fd5b90600182811c92168015611692575b602083101461167c57565b634e487b7160e01b600052602260045260246000fd5b91607f1691611671565b8181106116a7575050565b6000815560010161169c565b6116bd8154611662565b90816116c7575050565b81601f600093116001146116da5750555b565b9080839182526116f9601f60208420940160051c84016001850161169c565b5555565b60018060a01b038251166bffffffffffffffffffffffff60a01b825416178155602080830151916001928382015560028101916040850151918251936001600160401b0394858111611286576117538254611662565b94601f958681116118ff575b5084908683116001146118915791806004949260809694600092611886575b5050600019600383901b1c191690891b1790555b6060880151600382015501950151908151938411611286576117b48654611662565b838111611858575b50809284116001146117f557509282939183926000946117ea575b50501b916000199060031b1c1916179055565b0151925038806117d7565b919083601f1981168760005284600020946000905b8883831061183e5750505010611825575b505050811b019055565b015160001960f88460031b161c1916905538808061181b565b85870151885590960195948501948793509081019061180a565b6118809087600052826000208580880160051c8201928589106111a2570160051c019061169c565b386117bc565b01519050388061177e565b889291601f1983169185600052876000209260005b898282106118e957505091608097959391856004989694106118d0575b505050811b019055611792565b015160001960f88460031b161c191690553880806118c3565b8385015186558d979095019493840193016118a6565b6119279084600052866000208880860160051c8201928987106111a2570160051c019061169c565b3861175f565b919061236d57805182556020810151600183018054604084015160ff60a01b90151560a01b166001600160a01b039093166001600160a81b0319909116179190911790556002820160608201518051906001600160401b0382116112865781906119978454611662565b601f811161233b575b50602090601f83116001146122d5576000926122ca575b50508160011b916000199060031b1c19161790555b6003820160808201518051906001600160401b0382116112865781906119f28454611662565b601f8111612298575b50602090601f831160011461223257600092612227575b50508160011b916000199060031b1c19161790555b6004820160a08201518051906001600160401b038211611286578190611a4d8454611662565b601f81116121f5575b50602090601f831160011461218f57600092612184575b50508160011b916000199060031b1c19161790555b6005820160c08201518051906001600160401b038211611286578190611aa88454611662565b601f8111612152575b50602090601f83116001146120ec576000926120e1575b50508160011b916000199060031b1c19161790555b60e08101519283516001600160401b03811161128657611b006006850154611662565b601f81116120ac575b50602094601f821160011461204057948192939495600092612035575b50508160011b916000199060031b1c19161760068401555b6101008201519283516001600160401b03811161128657611b626007830154611662565b601f8111612000575b506020601f8211600114611f91578192939495600092611f86575b50508160011b916000199060031b1c19161760078201555b6101208301519283516001600160401b03811161128657611bc26008840154611662565b601f8111611f51575b506020601f8211600114611ee2578192939495600092611ed7575b50508160011b916000199060031b1c19161760088301555b600982016101408201518051906001600160401b038211611286578190611c258454611662565b601f8111611e9a575b50602090601f8311600114611e3457600092611e29575b50508160011b916000199060031b1c19161790555b610160810151600a8301556101808101518051600160401b9391600b830190858311611286578154838355808410611dbe575b506020019060005260206000206000915b838310611da05750505050600c6101a091019101518051928311611286578154838355808410611d37575b506020019060005260206000206000915b838310611ce75750505050565b6003602082611d2b600194518690604060029160018060a01b038151166bffffffffffffffffffffffff60a01b855416178455602081015160018501550151910155565b01920192019190611cda565b80600302906003820403611d8a5783600302600381048503611d8a5783600052602060002091820191015b818110611d6f5750611cc9565b80600060039255600060018201556000600282015501611d62565b634e487b7160e01b600052601160045260246000fd5b6005602082611db260019451866116fd565b01920192019190611c9e565b80600502906005820403611d8a5783600502600581048503611d8a5783600052602060002091820191015b818110611df65750611c8d565b8060006005925560006001820155611e10600282016116b3565b60006003820155611e23600482016116b3565b01611de9565b015190503880611c45565b6000858152602081209350601f198516905b818110611e825750908460019594939210611e69575b505050811b019055611c5a565b015160001960f88460031b161c19169055388080611e5c565b92936020600181928786015181550195019301611e46565b611ec790856000526020600020601f850160051c81019160208610611ecd575b601f0160051c019061169c565b38611c2e565b9091508190611eba565b015190503880611be6565b6008840160005260206000209060005b601f1984168110611f39575060019394959683601f19811610611f20575b505050811b016008830155611bfe565b015160001960f88460031b161c19169055388080611f10565b9091602060018192858b015181550193019101611ef2565b611f8090600885016000526020600020601f840160051c81019160208510611ecd57601f0160051c019061169c565b38611bcb565b015190503880611b86565b6007830160005260206000209060005b601f1984168110611fe8575060019394959683601f19811610611fcf575b505050811b016007820155611b9e565b015160001960f88460031b161c19169055388080611fbf565b9091602060018192858b015181550193019101611fa1565b61202f90600784016000526020600020601f840160051c81019160208510611ecd57601f0160051c019061169c565b38611b6b565b015190503880611b26565b601f198216956006860160005260206000209160005b8881106120945750836001959697981061207b575b505050811b016006840155611b3e565b015160001960f88460031b161c1916905538808061206b565b91926020600181928685015181550194019201612056565b6120db90600686016000526020600020601f840160051c81019160208510611ecd57601f0160051c019061169c565b38611b09565b015190503880611ac8565b6000858152602081209350601f198516905b81811061213a5750908460019594939210612121575b505050811b019055611add565b015160001960f88460031b161c19169055388080612114565b929360206001819287860151815501950193016120fe565b61217e90856000526020600020601f850160051c81019160208610611ecd57601f0160051c019061169c565b38611ab1565b015190503880611a6d565b6000858152602081209350601f198516905b8181106121dd57509084600195949392106121c4575b505050811b019055611a82565b015160001960f88460031b161c191690553880806121b7565b929360206001819287860151815501950193016121a1565b61222190856000526020600020601f850160051c81019160208610611ecd57601f0160051c019061169c565b38611a56565b015190503880611a12565b6000858152602081209350601f198516905b8181106122805750908460019594939210612267575b505050811b019055611a27565b015160001960f88460031b161c1916905538808061225a565b92936020600181928786015181550195019301612244565b6122c490856000526020600020601f850160051c81019160208610611ecd57601f0160051c019061169c565b386119fb565b0151905038806119b7565b6000858152602081209350601f198516905b818110612323575090846001959493921061230a575b505050811b0190556119cc565b015160001960f88460031b161c191690553880806122fd565b929360206001819287860151815501950193016122e7565b61236790856000526020600020601f850160051c81019160208610611ecd57601f0160051c019061169c565b386119a0565b634e487b7160e01b600052600060045260246000fd5b61239b90602060405192828480945193849201611376565b810103902090565b6000198114611d8a5760010190565b90604051918260008254926123c684611662565b90818452600194858116908160001461243357506001146123f0575b50506116d8925003836112ee565b9093915060005260209081600020936000915b81831061241b5750506116d8935082010138806123e2565b85548884018501529485019487945091830191612403565b9150506116d894506020925060ff191682840152151560051b82010138806123e2565b90604051916020926124848482816124778183019687815193849201611376565b81010380845201826112ee565b519020916124a46040519182816124778183019687815193849201611376565b5190201490565b6001600160401b0381116112865760051b60200190565b9081546124ce816124ab565b926040936124de855191826112ee565b828152809460208092019260005281600020906000935b85851061250457505050505050565b6005846001928451612515816112b8565b848060a01b0387541681528487015483820152612534600288016123b2565b868201526003870154606082015261254e600488016123b2565b60808201528152019301940193916124f5565b90815461256d816124ab565b9260409361257d855191826112ee565b828152809460208092019260005281600020906000935b8585106125a357505050505050565b60038460019284516125b4816112d3565b848060a01b0387541681528487015483820152600287015486820152815201930194019391612594565b906040516125eb8161129c565b6101a06126c7600c83958054855260ff600182015460018060a01b038116602088015260a01c1615156040860152612625600282016123b2565b6060860152612636600382016123b2565b6080860152612647600482016123b2565b60a0860152612658600582016123b2565b60c0860152612669600682016123b2565b60e086015261267a600782016123b2565b61010086015261268c600882016123b2565b61012086015261269e600982016123b2565b610140860152600a8101546101608601526126bb600b82016124c2565b61018086015201612561565b910152565b906126d6826124ab565b6040906126e5825191826112ee565b83815280936126f6601f19916124ab565b019160005b8381106127085750505050565b60209082516127168161129c565b6000815282600081830152600085830152606080808401528060808401528060a08401528060c08401528060e08401528061010084015280610120840152806101408401526000610160840152806101808401526101a08301528286010152016126fb565b805182101561164c5760209160051b010190565b6005549060005b8281106127a557505050600090565b6127b782610268600961026185611611565b6127c9576127c4906123a3565b612796565b50505060019056fea26469706673582212209f85fe71d210313bdb889d6941305eb97c48cf82484ece6abdf9789f437b8cd464736f6c63430008140033",
  "linkReferences": {},
  "deployedLinkReferences": {}
}