{
  "_format": "hh-sol-artifact-1",
  "contractName": "MetaverseMarketplace",
  "sourceName": "contracts/MetaverseMarketplace.sol",
  "abi": [
    {
      "inputs": [
        {
          "internalType": "address",
          "name": "_metaverseTokenAddress",
          "type": "address"
        }
      ],
      "stateMutability": "nonpayable",
      "type": "constructor"
    },
    {
      "inputs": [
        {
          "internalType": "address",
          "name": "senderAddress",
          "type": "address"
        }
      ],
      "name": "MetaverseMarketplace__AddressLessThan1DayForMetaverseToken",
      "type": "error"
    },
    {
      "inputs": [],
      "name": "MetaverseMarketplace__NoProceeds",
      "type": "error"
    },
    {
      "inputs": [],
      "name": "MetaverseMarketplace__PriceMustBeAboveZero",
      "type": "error"
    },
    {
      "inputs": [
        {
          "internalType": "string",
          "name": "productCode",
          "type": "string"
        },
        {
          "internalType": "address",
          "name": "seller",
          "type": "address"
        },
        {
          "internalType": "uint256",
          "name": "price",
          "type": "uint256"
        }
      ],
      "name": "MetaverseMarketplace__PriceNotMet",
      "type": "error"
    },
    {
      "inputs": [],
      "name": "ReentrancyGuardReentrantCall",
      "type": "error"
    },
    {
      "anonymous": false,
      "inputs": [
        {
          "indexed": true,
          "internalType": "address",
          "name": "commenter",
          "type": "address"
        },
        {
          "indexed": true,
          "internalType": "string",
          "name": "comment",
          "type": "string"
        },
        {
          "indexed": true,
          "internalType": "string",
          "name": "productCode",
          "type": "string"
        },
        {
          "indexed": false,
          "internalType": "address",
          "name": "seller",
          "type": "address"
        }
      ],
      "name": "CommentAdded",
      "type": "event"
    },
    {
      "anonymous": false,
      "inputs": [
        {
          "indexed": true,
          "internalType": "address",
          "name": "buyer",
          "type": "address"
        },
        {
          "indexed": true,
          "internalType": "string",
          "name": "productCode",
          "type": "string"
        },
        {
          "indexed": true,
          "internalType": "uint256",
          "name": "price",
          "type": "uint256"
        }
      ],
      "name": "ItemBought",
      "type": "event"
    },
    {
      "anonymous": false,
      "inputs": [
        {
          "indexed": true,
          "internalType": "address",
          "name": "seller",
          "type": "address"
        },
        {
          "indexed": true,
          "internalType": "uint256",
          "name": "price",
          "type": "uint256"
        },
        {
          "indexed": true,
          "internalType": "string",
          "name": "productCode",
          "type": "string"
        },
        {
          "indexed": false,
          "internalType": "string",
          "name": "title",
          "type": "string"
        }
      ],
      "name": "ItemListed",
      "type": "event"
    },
    {
      "anonymous": false,
      "inputs": [
        {
          "indexed": true,
          "internalType": "address",
          "name": "seller",
          "type": "address"
        },
        {
          "indexed": true,
          "internalType": "string",
          "name": "productCode",
          "type": "string"
        },
        {
          "indexed": true,
          "internalType": "bool",
          "name": "publish",
          "type": "bool"
        }
      ],
      "name": "ItemPublished",
      "type": "event"
    },
    {
      "anonymous": false,
      "inputs": [
        {
          "indexed": true,
          "internalType": "address",
          "name": "seller",
          "type": "address"
        },
        {
          "indexed": true,
          "internalType": "string",
          "name": "productCode",
          "type": "string"
        },
        {
          "indexed": true,
          "internalType": "string",
          "name": "title",
          "type": "string"
        },
        {
          "indexed": false,
          "internalType": "uint256",
          "name": "price",
          "type": "uint256"
        }
      ],
      "name": "ListingUpdated",
      "type": "event"
    },
    {
      "anonymous": false,
      "inputs": [
        {
          "indexed": true,
          "internalType": "address",
          "name": "person",
          "type": "address"
        }
      ],
      "name": "MetaverseAirdrop",
      "type": "event"
    },
    {
      "anonymous": false,
      "inputs": [
        {
          "indexed": true,
          "internalType": "address",
          "name": "person",
          "type": "address"
        },
        {
          "indexed": true,
          "internalType": "string",
          "name": "currency",
          "type": "string"
        },
        {
          "indexed": true,
          "internalType": "uint256",
          "name": "amount",
          "type": "uint256"
        }
      ],
      "name": "ProceedsWithdrawn",
      "type": "event"
    },
    {
      "anonymous": false,
      "inputs": [
        {
          "indexed": true,
          "internalType": "address",
          "name": "owner",
          "type": "address"
        },
        {
          "indexed": true,
          "internalType": "string",
          "name": "username",
          "type": "string"
        }
      ],
      "name": "SetUsername",
      "type": "event"
    },
    {
      "inputs": [
        {
          "internalType": "string",
          "name": "comment",
          "type": "string"
        },
        {
          "internalType": "uint256",
          "name": "rating",
          "type": "uint256"
        },
        {
          "internalType": "string",
          "name": "dateString",
          "type": "string"
        },
        {
          "internalType": "string",
          "name": "productCode",
          "type": "string"
        },
        {
          "internalType": "address",
          "name": "seller",
          "type": "address"
        }
      ],
      "name": "addComment",
      "outputs": [],
      "stateMutability": "nonpayable",
      "type": "function"
    },
    {
      "inputs": [
        {
          "internalType": "address",
          "name": "",
          "type": "address"
        }
      ],
      "name": "addressToLastGetMetaverseToken",
      "outputs": [
        {
          "internalType": "uint256",
          "name": "",
          "type": "uint256"
        }
      ],
      "stateMutability": "view",
      "type": "function"
    },
    {
      "inputs": [
        {
          "internalType": "string",
          "name": "productCode",
          "type": "string"
        },
        {
          "internalType": "address",
          "name": "seller",
          "type": "address"
        }
      ],
      "name": "buyItem",
      "outputs": [],
      "stateMutability": "payable",
      "type": "function"
    },
    {
      "inputs": [
        {
          "internalType": "string",
          "name": "productCode",
          "type": "string"
        },
        {
          "internalType": "bool",
          "name": "publish",
          "type": "bool"
        }
      ],
      "name": "changeListingVisibility",
      "outputs": [],
      "stateMutability": "nonpayable",
      "type": "function"
    },
    {
      "inputs": [],
      "name": "get1000MetaverseToken",
      "outputs": [],
      "stateMutability": "nonpayable",
      "type": "function"
    },
    {
      "inputs": [],
      "name": "getAllUserListings",
      "outputs": [
        {
          "components": [
            {
              "internalType": "uint256",
              "name": "price",
              "type": "uint256"
            },
            {
              "internalType": "address",
              "name": "seller",
              "type": "address"
            },
            {
              "internalType": "bool",
              "name": "published",
              "type": "bool"
            },
            {
              "internalType": "string",
              "name": "productType",
              "type": "string"
            },
            {
              "internalType": "string",
              "name": "title",
              "type": "string"
            },
            {
              "internalType": "string",
              "name": "description",
              "type": "string"
            },
            {
              "internalType": "string",
              "name": "imageUrl",
              "type": "string"
            },
            {
              "internalType": "string",
              "name": "currency",
              "type": "string"
            },
            {
              "internalType": "string",
              "name": "productUrl",
              "type": "string"
            },
            {
              "internalType": "string",
              "name": "productInfo",
              "type": "string"
            },
            {
              "internalType": "string",
              "name": "productCode",
              "type": "string"
            },
            {
              "internalType": "uint256",
              "name": "nftTokenId",
              "type": "uint256"
            },
            {
              "components": [
                {
                  "internalType": "address",
                  "name": "commenter",
                  "type": "address"
                },
                {
                  "internalType": "uint256",
                  "name": "rating",
                  "type": "uint256"
                },
                {
                  "internalType": "string",
                  "name": "comment",
                  "type": "string"
                },
                {
                  "internalType": "uint256",
                  "name": "time",
                  "type": "uint256"
                },
                {
                  "internalType": "string",
                  "name": "dateString",
                  "type": "string"
                }
              ],
              "internalType": "struct MetaverseMarketplace.Comment[]",
              "name": "comments",
              "type": "tuple[]"
            }
          ],
          "internalType": "struct MetaverseMarketplace.Listing[]",
          "name": "",
          "type": "tuple[]"
        }
      ],
      "stateMutability": "view",
      "type": "function"
    },
    {
      "inputs": [
        {
          "internalType": "string",
          "name": "productType",
          "type": "string"
        }
      ],
      "name": "getListingByProductType",
      "outputs": [
        {
          "components": [
            {
              "internalType": "uint256",
              "name": "price",
              "type": "uint256"
            },
            {
              "internalType": "address",
              "name": "seller",
              "type": "address"
            },
            {
              "internalType": "bool",
              "name": "published",
              "type": "bool"
            },
            {
              "internalType": "string",
              "name": "productType",
              "type": "string"
            },
            {
              "internalType": "string",
              "name": "title",
              "type": "string"
            },
            {
              "internalType": "string",
              "name": "description",
              "type": "string"
            },
            {
              "internalType": "string",
              "name": "imageUrl",
              "type": "string"
            },
            {
              "internalType": "string",
              "name": "currency",
              "type": "string"
            },
            {
              "internalType": "string",
              "name": "productUrl",
              "type": "string"
            },
            {
              "internalType": "string",
              "name": "productInfo",
              "type": "string"
            },
            {
              "internalType": "string",
              "name": "productCode",
              "type": "string"
            },
            {
              "internalType": "uint256",
              "name": "nftTokenId",
              "type": "uint256"
            },
            {
              "components": [
                {
                  "internalType": "address",
                  "name": "commenter",
                  "type": "address"
                },
                {
                  "internalType": "uint256",
                  "name": "rating",
                  "type": "uint256"
                },
                {
                  "internalType": "string",
                  "name": "comment",
                  "type": "string"
                },
                {
                  "internalType": "uint256",
                  "name": "time",
                  "type": "uint256"
                },
                {
                  "internalType": "string",
                  "name": "dateString",
                  "type": "string"
                }
              ],
              "internalType": "struct MetaverseMarketplace.Comment[]",
              "name": "comments",
              "type": "tuple[]"
            }
          ],
          "internalType": "struct MetaverseMarketplace.Listing[]",
          "name": "",
          "type": "tuple[]"
        }
      ],
      "stateMutability": "view",
      "type": "function"
    },
    {
      "inputs": [
        {
          "internalType": "address",
          "name": "seller",
          "type": "address"
        },
        {
          "internalType": "string",
          "name": "currency",
          "type": "string"
        }
      ],
      "name": "getProceeds",
      "outputs": [
        {
          "internalType": "uint256",
          "name": "",
          "type": "uint256"
        }
      ],
      "stateMutability": "view",
      "type": "function"
    },
    {
      "inputs": [],
      "name": "getUserListing",
      "outputs": [
        {
          "components": [
            {
              "internalType": "uint256",
              "name": "price",
              "type": "uint256"
            },
            {
              "internalType": "address",
              "name": "seller",
              "type": "address"
            },
            {
              "internalType": "bool",
              "name": "published",
              "type": "bool"
            },
            {
              "internalType": "string",
              "name": "productType",
              "type": "string"
            },
            {
              "internalType": "string",
              "name": "title",
              "type": "string"
            },
            {
              "internalType": "string",
              "name": "description",
              "type": "string"
            },
            {
              "internalType": "string",
              "name": "imageUrl",
              "type": "string"
            },
            {
              "internalType": "string",
              "name": "currency",
              "type": "string"
            },
            {
              "internalType": "string",
              "name": "productUrl",
              "type": "string"
            },
            {
              "internalType": "string",
              "name": "productInfo",
              "type": "string"
            },
            {
              "internalType": "string",
              "name": "productCode",
              "type": "string"
            },
            {
              "internalType": "uint256",
              "name": "nftTokenId",
              "type": "uint256"
            },
            {
              "components": [
                {
                  "internalType": "address",
                  "name": "commenter",
                  "type": "address"
                },
                {
                  "internalType": "uint256",
                  "name": "rating",
                  "type": "uint256"
                },
                {
                  "internalType": "string",
                  "name": "comment",
                  "type": "string"
                },
                {
                  "internalType": "uint256",
                  "name": "time",
                  "type": "uint256"
                },
                {
                  "internalType": "string",
                  "name": "dateString",
                  "type": "string"
                }
              ],
              "internalType": "struct MetaverseMarketplace.Comment[]",
              "name": "comments",
              "type": "tuple[]"
            }
          ],
          "internalType": "struct MetaverseMarketplace.Listing[]",
          "name": "",
          "type": "tuple[]"
        }
      ],
      "stateMutability": "view",
      "type": "function"
    },
    {
      "inputs": [
        {
          "internalType": "uint256",
          "name": "price",
          "type": "uint256"
        },
        {
          "internalType": "string",
          "name": "productType",
          "type": "string"
        },
        {
          "internalType": "string",
          "name": "title",
          "type": "string"
        },
        {
          "internalType": "string",
          "name": "description",
          "type": "string"
        },
        {
          "internalType": "string",
          "name": "imageUrl",
          "type": "string"
        },
        {
          "internalType": "string",
          "name": "currency",
          "type": "string"
        },
        {
          "internalType": "string",
          "name": "productUrl",
          "type": "string"
        },
        {
          "internalType": "string",
          "name": "productInfo",
          "type": "string"
        },
        {
          "internalType": "string",
          "name": "productCode",
          "type": "string"
        },
        {
          "internalType": "uint256",
          "name": "nftTokenId",
          "type": "uint256"
        }
      ],
      "name": "listItem",
      "outputs": [],
      "stateMutability": "nonpayable",
      "type": "function"
    },
    {
      "inputs": [],
      "name": "metaverseToken",
      "outputs": [
        {
          "internalType": "contract IERC20",
          "name": "",
          "type": "address"
        }
      ],
      "stateMutability": "view",
      "type": "function"
    },
    {
      "inputs": [
        {
          "internalType": "string",
          "name": "newUsername",
          "type": "string"
        }
      ],
      "name": "setUsername",
      "outputs": [],
      "stateMutability": "nonpayable",
      "type": "function"
    },
    {
      "inputs": [
        {
          "internalType": "string",
          "name": "productCode",
          "type": "string"
        },
        {
          "internalType": "uint256",
          "name": "price",
          "type": "uint256"
        },
        {
          "internalType": "string",
          "name": "title",
          "type": "string"
        },
        {
          "internalType": "string",
          "name": "description",
          "type": "string"
        },
        {
          "internalType": "string",
          "name": "productInfo",
          "type": "string"
        },
        {
          "internalType": "string",
          "name": "productUrl",
          "type": "string"
        },
        {
          "internalType": "string",
          "name": "imageUrl",
          "type": "string"
        }
      ],
      "name": "updateListing",
      "outputs": [],
      "stateMutability": "nonpayable",
      "type": "function"
    },
    {
      "inputs": [
        {
          "internalType": "string",
          "name": "currency",
          "type": "string"
        }
      ],
      "name": "withdrawProceeds",
      "outputs": [],
      "stateMutability": "nonpayable",
      "type": "function"
    }
  ],
  "bytecode": "0x60803461007957601f61233138819003918201601f19168301916001600160401b0383118484101761007e5780849260209460405283398101031261007957516001600160a01b03811690819003610079576001600055600480546001600160a01b03191691909117905560405161229c90816100958239f35b600080fd5b634e487b7160e01b600052604160045260246000fdfe608060405260048036101561001357600080fd5b6000803560e01c80631a13cc5914610d5b578063318bb5c714610b255780633829f31314610afd5780637791b33014610a7d57806393ec02f1146108eb578063990d6459146108165780639992b6061461078a5780639d8820c41461060a5780639dee74d514610555578063a39249b8146104d9578063a97ce3c214610383578063bddff4d81461034a578063e607a8ba146102385763ed59313a146100b857600080fd5b3461023557602080600319360112610231576001600160401b0392803584811161022d576100e99036908301610fcb565b91338452600281526040842091835195861161021a575061010a82546112a5565b601f81116101e1575b5080601f861160011461017a575093808495610147959161016f575b508160011b916000199060031b1c1916179055611ef0565b337fcfa484be7b1d89ac1b8203c2067a8efdffde3d5e5ec8a446cf9c54cb01c7e20b8380a380f35b90508301513861012f565b90601f1986168386528286209286905b8282106101c95750509186916101479697600194106101b0575b5050811b019055611ef0565b85015160001960f88460031b161c1916905538806101a4565b80600185968294968a0151815501950193019061018a565b61020a90838652828620601f880160051c810191848910610210575b601f0160051c01906112df565b38610113565b90915081906101fd565b634e487b7160e01b855260419052602484fd5b8380fd5b5080fd5b80fd5b5034610235578060031936011261023557338152602060038152604082205442034281116103375762015180116103205780829333845260038252426040852055604460018060a01b0382541691604051958693849263a9059cbb60e01b84523390840152683635c9adc5dea0000060248401525af18015610315576102e2575b82337f561f98adfb5df58a7c3c03f4ada643cc46c1a5291389819dbd6d01fe490481498280a280f35b81813d831161030e575b6102f68183610f8f565b810103126102315751801515036102355738806102b9565b503d6102ec565b6040513d85823e3d90fd5b60405163fca47e3160e01b81523381850152602490fd5b634e487b7160e01b835260118452602483fd5b5034610235576020366003190112610235576020906040906001600160a01b0361037261123e565b168152600383522054604051908152f35b509034610231576020806003193601126104d55781356001600160401b03811161022d576103b49036908401610fcb565b33845260018252604084206040518381845193828601946103d6818488611017565b820190815203019020549081156104c4576104098487923384526001825260408420604051809481938951928391611017565b820190815203019020558480808084335af191823d156104bf573d61042d81610fb0565b9061043b6040519283610f8f565b815287863d92013e5b61048a575b505015610454578280f35b60405162461bcd60e51b815291820152601060248201526f5472616e73666572206661696c65642160801b604482015260649150fd5b61049390611ef0565b337ff2ca3efe12f71d386ef0fd2b75ebbef402882711943ccb42d5bdb696fa7a13418780a43880610449565b610444565b60405163125d726b60e21b81528590fd5b8280fd5b509034610231576040366003190112610231576104f461123e565b906024356001600160401b03811161022d5791604060209461051d869461054396369101610fcb565b6001600160a01b0390931681526001845220604051825190948593829085908701611017565b82019081520301902054604051908152f35b509034610231576020366003190112610231578035906001600160401b0382116104d55761058591369101610fcb565b60055490610592826121aa565b925b8281106105ad57604051806105a9868261105f565b0390f35b806105cf836105ca60026105c36105d896611254565b5001611f1f565b611fc3565b6105dd57611f10565b610594565b6105ef6105e982611254565b506120ce565b6105f98287612252565b526106048186612252565b50611f10565b509060403660031901126102315780356001600160401b0381116104d5576106359036908301610fcb565b91602492833560018060a01b039384821680920361022d57600284541461077b5760028455835b60055481101561076f57610678846105ca60096105c385611254565b61068a5761068590611f10565b61065c565b6105e961069c91969293949596611254565b9283519081341061073c5750506106d89060209081850151168652600181526040862060e0850151908260405194838680955193849201611017565b82019081520301902080549134830180931161072a575055519192506106fd90611ef0565b337f253fcd678c758e0e03dbf3a0243701c7439c306a61158b3c522a8119772990108480a45b6001815580f35b634e487b7160e01b8652601190528585fd5b604051630e90db8560e31b8152606081860152918291899190610762606485018a61103a565b9284015260448301520390fd5b50505050915050610723565b604051633ee5aeb560e01b8152fd5b50346102355780600319360112610235576005546107a781612018565b906107b56040519283610f8f565b808252600583527f036b6384b5eca791c62761152d0c79bb0604c104a5fb6f4eb0703f3154bb3db09260208084015b8383106107f957604051806105a9878261105f565b600c82600192610808896120ce565b8152019601920191946107e4565b509034610231576040366003190112610231578035906001600160401b0382116104d55761084691369101610fcb565b602435908115159081830361022d57835b6005548110156108e457610873826105ca60096105c385611254565b6108855761088090611f10565b610857565b6108bc929360016108986108b793611254565b5001805460ff60a01b191691151560a01b60ff60a01b16919091179055565b611ef0565b337f51dabe03dbc9869cdc42f327348910c055732b793c7aaade368a32d8f3658e1e8480a480f35b5050505080f35b5090346102315760a0366003190112610231576001600160401b03813581811161022d5761091c9036908401610fcb565b90602492833592604435838111610a795761093a9036908401610fcb565b92606435908111610a79576109529036908401610fcb565b926084356001600160a01b0381169390849003610a7557875b60058054821015610a6957610988876105ca60096105c386611254565b61099b575061099690611f10565b61096b565b91929394959697906109ae600b91611254565b500190604051946109be86610f74565b3386526020998a8701528660408701524260608701526080860152815493600160401b851015610a585760018501808455851015610a47575050610a3a93610a34937f8bb52eee1b68032569fa2c483528d7d2b7db7824b9704ee675f720295622086596936108b7938c528a8c20910201611340565b93611ef0565b936040519283523392a480f35b634e487b7160e01b8b526032905289fd5b634e487b7160e01b8b526041905289fd5b50505050505050505080f35b8780fd5b8680fd5b5034610235578060031936011261023557600554610a9a816121aa565b915b818110610ab157604051806105a9858261105f565b80610abe610ad792611254565b50600101546001600160a01b03163314610adc57611f10565b610a9c565b610ae86105e982611254565b610af28286612252565b526106048185612252565b509034610231578160031936011261023157546040516001600160a01b039091168152602090f35b5090346102315760e0366003190112610231576001600160401b03813581811161022d57610b569036908401610fcb565b604435828111610d5757610b6d9036908501610fcb565b91606435818111610d5357610b859036908601610fcb565b93608435828111610a7957610b9d9036908301610fcb565b9160a435818111610a7557610bb59036908401610fcb565b9160c435918211610a7557610bcc91369101610fcb565b90865b600554811015610d4957610beb856105ca60096105c385611254565b610bfd57610bf890611f10565b610bcf565b92939495610c0a84611254565b506001908101546001600160a01b03169590610c2586611254565b50015492610c3286611254565b5094610c3d87611254565b5090610c4888611254565b5094610c5389611254565b50600a015496610c628a611254565b50986040519b610c718d610f42565b6024358d5260208d015260a091821c60ff16151560408d0152600201610c9690611f1f565b60608c01528c60808c01528a015260c0890152600601610cb590611f1f565b60e0880152610100870152610120860152600901610cd290611f1f565b610140850152610160840152600b01610cea9061202f565b610180830152610cf990611254565b610d03929161157a565b610d0c90611ef0565b90610d1690611ef0565b906040516024358152339060207f384c5f98880fad6ed933597fe4becd24246db16d5a262945362c7ace0a0e47b591a480f35b5050505050505080f35b8580fd5b8480fd5b5090346102315761014090816003193601126104d5578035906001600160401b0390602435828111610d5357610d949036908301610fcb565b90604435838111610a7957610dac9036908301610fcb565b94606435848111610a7557610dc49036908401610fcb565b93608435818111610f3e57610ddc9036908501610fcb565b60a435828111610f3a57610df39036908601610fcb565b60c435838111610f3657610e0a9036908701610fcb565b9160e435848111610f3257610e229036908801610fcb565b9361010435908111610f3257610e3b9036908801610fcb565b978915610f21579088959493929160405198610e568a610f42565b8b8a523360208b01528d60408b015260608a01528b60808a015260a089015260c088015260e087015261010086015261012085015283015261012435610160830152606061018083015260055490600160401b821015610f0e5750610ecf9291610ec98260016108b79401600555611254565b9061157a565b917f9ec512f6157daf19471fdb4abc754cd622ce54571fda42c4c416ff378b0415836040516020815280610f083394602083019061103a565b0390a480f35b634e487b7160e01b875260419052602486fd5b604051635ebde5f560e11b81528790fd5b8b80fd5b8a80fd5b8980fd5b8880fd5b6101a081019081106001600160401b03821117610f5e57604052565b634e487b7160e01b600052604160045260246000fd5b60a081019081106001600160401b03821117610f5e57604052565b90601f801991011681019081106001600160401b03821117610f5e57604052565b6001600160401b038111610f5e57601f01601f191660200190565b81601f8201121561101257803590610fe282610fb0565b92610ff06040519485610f8f565b8284526020838301011161101257816000926020809301838601378301015290565b600080fd5b60005b83811061102a5750506000910152565b818101518382015260200161101a565b9060209161105381518092818552858086019101611017565b601f01601f1916010190565b602081016020825282518091526040820191602060408360051b8301019401926000915b83831061109257505050505090565b9091929394603f198282030183528551908151815260018060a01b03602083015116602082015260408201511515604082015261117961116561115161113d61112a6111176111056110f360608a01516101a08060608c01528a019061103a565b60808a015189820360808b015261103a565b60a089015188820360a08a015261103a565b60c080890151908883039089015261103a565b60e080880151908783039088015261103a565b61010080870151908683039087015261103a565b61012080860151908583039086015261103a565b61014080850151908483039085015261103a565b9061016080840151908201526101808093015192818303910152815180825260208201906020808260051b85010194019260005b8281106111ce57505050505060208060019297019301930191939290611083565b9091929394602080611231600193601f19878203018952895190858060a01b03825116815283820151848201526080611216604084015160a0604085015260a084019061103a565b9260608101516060840152015190608081840391015261103a565b97019501939291016111ad565b600435906001600160a01b038216820361101257565b60055481101561128f57600c906005600052027f036b6384b5eca791c62761152d0c79bb0604c104a5fb6f4eb0703f3154bb3db00190600090565b634e487b7160e01b600052603260045260246000fd5b90600182811c921680156112d5575b60208310146112bf57565b634e487b7160e01b600052602260045260246000fd5b91607f16916112b4565b8181106112ea575050565b600081556001016112df565b61130081546112a5565b908161130a575050565b81601f6000931160011461131d5750555b565b90808391825261133c601f60208420940160051c8401600185016112df565b5555565b60018060a01b038251166bffffffffffffffffffffffff60a01b825416178155602080830151916001928382015560028101916040850151918251936001600160401b0394858111610f5e5761139682546112a5565b94601f9586811161154c575b5084908683116001146114de57918060049492608096946000926114d3575b5050600019600383901b1c191690891b1790555b6060880151600382015501950151908151938411610f5e576113f786546112a5565b83811161149b575b5080928411600114611438575092829391839260009461142d575b50501b916000199060031b1c1916179055565b01519250388061141a565b919083601f1981168760005284600020946000905b888383106114815750505010611468575b505050811b019055565b015160001960f88460031b161c1916905538808061145e565b85870151885590960195948501948793509081019061144d565b6114c49087600052826000208580880160051c8201928589106114ca575b0160051c01906112df565b386113ff565b925081926114b9565b0151905038806113c1565b889291601f1983169185600052876000209260005b89828210611536575050916080979593918560049896941061151d575b505050811b0190556113d5565b015160001960f88460031b161c19169055388080611510565b8385015186558d979095019493840193016114f3565b6115749084600052866000208880860160051c8201928987106114ca570160051c01906112df565b386113a2565b90611eda57815181556020820151600182018054604085015160ff60a01b90151560a01b166001600160a01b039093166001600160a81b0319909116179190911790556002810160608301518051906001600160401b038211610f5e5781906115e384546112a5565b601f8111611ea8575b50602090601f8311600114611e4257600092611e37575b50508160011b916000199060031b1c19161790555b6003810160808301518051906001600160401b038211610f5e57819061163e84546112a5565b601f8111611e05575b50602090601f8311600114611d9f57600092611d94575b50508160011b916000199060031b1c19161790555b6004810160a08301518051906001600160401b038211610f5e57819061169984546112a5565b601f8111611d62575b50602090601f8311600114611cfc57600092611cf1575b50508160011b916000199060031b1c19161790555b6005810160c08301518051906001600160401b038211610f5e5781906116f484546112a5565b601f8111611cbf575b50602090601f8311600114611c5957600092611c4e575b50508160011b916000199060031b1c19161790555b60e08201519283516001600160401b038111610f5e5761174c60068401546112a5565b601f8111611c19575b506020601f8211600114611baa578192939495600092611b9f575b50508160011b916000199060031b1c19161760068301555b6101008301519283516001600160401b038111610f5e576117ac60078501546112a5565b601f8111611b6a575b506020601f8211600114611afb578192939495600092611af0575b50508160011b916000199060031b1c19161760078401555b6101208101519283516001600160401b038111610f5e5761180c60088301546112a5565b601f8111611abb575b506020601f8211600114611a4c578192939495600092611a41575b50508160011b916000199060031b1c19161760088201555b600981016101408301518051906001600160401b038211610f5e5761186d83546112a5565b601f8111611a0f575b50602090601f83116001146119a0579180600b94926101809694600092611995575b50508160011b916000199060031b1c19161790555b610160840151600a8201550191015190815191600160401b8311610f5e578154838355808410611914575b506020019060005260206000206000915b8383106118f65750505050565b60056020826119086001945186611340565b019201920191906118e9565b8060050290600582040361197f578360050260058104850361197f5783600052602060002091820191015b81811061194c57506118d8565b8060006005925560006001820155611966600282016112f6565b60006003820155611979600482016112f6565b0161193f565b634e487b7160e01b600052601160045260246000fd5b015190503880611898565b90601f198316918460005260206000209260005b8181106119f757509260019285926101809896600b9896106119de575b505050811b0190556118ad565b015160001960f88460031b161c191690553880806119d1565b929360206001819287860151815501950193016119b4565b611a3b90846000526020600020601f850160051c8101916020861061021057601f0160051c01906112df565b38611876565b015190503880611830565b6008830160005260206000209060005b601f1984168110611aa3575060019394959683601f19811610611a8a575b505050811b016008820155611848565b015160001960f88460031b161c19169055388080611a7a565b9091602060018192858b015181550193019101611a5c565b611aea90600884016000526020600020601f840160051c8101916020851061021057601f0160051c01906112df565b38611815565b0151905038806117d0565b6007850160005260206000209060005b601f1984168110611b52575060019394959683601f19811610611b39575b505050811b0160078401556117e8565b015160001960f88460031b161c19169055388080611b29565b9091602060018192858b015181550193019101611b0b565b611b9990600786016000526020600020601f840160051c8101916020851061021057601f0160051c01906112df565b386117b5565b015190503880611770565b6006840160005260206000209060005b601f1984168110611c01575060019394959683601f19811610611be8575b505050811b016006830155611788565b015160001960f88460031b161c19169055388080611bd8565b9091602060018192858b015181550193019101611bba565b611c4890600685016000526020600020601f840160051c8101916020851061021057601f0160051c01906112df565b38611755565b015190503880611714565b6000858152602081209350601f198516905b818110611ca75750908460019594939210611c8e575b505050811b019055611729565b015160001960f88460031b161c19169055388080611c81565b92936020600181928786015181550195019301611c6b565b611ceb90856000526020600020601f850160051c8101916020861061021057601f0160051c01906112df565b386116fd565b0151905038806116b9565b6000858152602081209350601f198516905b818110611d4a5750908460019594939210611d31575b505050811b0190556116ce565b015160001960f88460031b161c19169055388080611d24565b92936020600181928786015181550195019301611d0e565b611d8e90856000526020600020601f850160051c8101916020861061021057601f0160051c01906112df565b386116a2565b01519050388061165e565b6000858152602081209350601f198516905b818110611ded5750908460019594939210611dd4575b505050811b019055611673565b015160001960f88460031b161c19169055388080611dc7565b92936020600181928786015181550195019301611db1565b611e3190856000526020600020601f850160051c8101916020861061021057601f0160051c01906112df565b38611647565b015190503880611603565b6000858152602081209350601f198516905b818110611e905750908460019594939210611e77575b505050811b019055611618565b015160001960f88460031b161c19169055388080611e6a565b92936020600181928786015181550195019301611e54565b611ed490856000526020600020601f850160051c8101916020861061021057601f0160051c01906112df565b386115ec565b634e487b7160e01b600052600060045260246000fd5b611f0890602060405192828480945193849201611017565b810103902090565b600019811461197f5760010190565b9060405191826000825492611f33846112a5565b908184526001948581169081600014611fa05750600114611f5d575b505061131b92500383610f8f565b9093915060005260209081600020936000915b818310611f8857505061131b93508201013880611f4f565b85548884018501529485019487945091830191611f70565b91505061131b94506020925060ff191682840152151560051b8201013880611f4f565b9060405191602092611ff1848281611fe48183019687815193849201611017565b8101038084520182610f8f565b51902091612011604051918281611fe48183019687815193849201611017565b5190201490565b6001600160401b038111610f5e5760051b60200190565b90815461203b81612018565b9260409361204b85519182610f8f565b828152809460208092019260005281600020906000935b85851061207157505050505050565b600584600192845161208281610f74565b848060a01b03875416815284870154838201526120a160028801611f1f565b86820152600387015460608201526120bb60048801611f1f565b6080820152815201930194019391612062565b906040516120db81610f42565b6101806121a5600b83958054855260ff600182015460018060a01b038116602088015260a01c161515604086015261211560028201611f1f565b606086015261212660038201611f1f565b608086015261213760048201611f1f565b60a086015261214860058201611f1f565b60c086015261215960068201611f1f565b60e086015261216a60078201611f1f565b61010086015261217c60088201611f1f565b61012086015261218e60098201611f1f565b610140860152600a8101546101608601520161202f565b910152565b906121b482612018565b6040906121c382519182610f8f565b83815280936121d4601f1991612018565b019160005b8381106121e65750505050565b60209082516121f481610f42565b6000815282600081830152600085830152606080808401528060808401528060a08401528060c08401528060e084015280610100840152806101208401528061014084015260006101608401526101808301528286010152016121d9565b805182101561128f5760209160051b01019056fea2646970667358221220cac5c13bc0d3c18fda70adc1e19abb4c2bf505947bab258c2da85fd71e96cbc664736f6c63430008140033",
  "linkReferences": {},
  "deployedLinkReferences": {}
}