{
  "_format": "hh-sol-artifact-1",
  "contractName": "MetaverseMarketplace",
  "sourceName": "contracts/MetaverseMarketplace.sol",
  "abi": [
    {
      "inputs": [
        {
          "internalType": "address",
          "name": "_metaverseTokenAddress",
          "type": "address"
        }
      ],
      "stateMutability": "nonpayable",
      "type": "constructor"
    },
    {
      "inputs": [
        {
          "internalType": "address",
          "name": "senderAddress",
          "type": "address"
        }
      ],
      "name": "MetaverseMarketplace__AddressLessThan1DayForMetaverseToken",
      "type": "error"
    },
    {
      "inputs": [],
      "name": "MetaverseMarketplace__NoProceeds",
      "type": "error"
    },
    {
      "inputs": [],
      "name": "MetaverseMarketplace__PriceMustBeAboveZero",
      "type": "error"
    },
    {
      "inputs": [
        {
          "internalType": "string",
          "name": "productCode",
          "type": "string"
        },
        {
          "internalType": "address",
          "name": "seller",
          "type": "address"
        },
        {
          "internalType": "uint256",
          "name": "price",
          "type": "uint256"
        }
      ],
      "name": "MetaverseMarketplace__PriceNotMet",
      "type": "error"
    },
    {
      "inputs": [],
      "name": "ReentrancyGuardReentrantCall",
      "type": "error"
    },
    {
      "anonymous": false,
      "inputs": [
        {
          "indexed": true,
          "internalType": "address",
          "name": "commenter",
          "type": "address"
        },
        {
          "indexed": true,
          "internalType": "string",
          "name": "comment",
          "type": "string"
        },
        {
          "indexed": true,
          "internalType": "string",
          "name": "productCode",
          "type": "string"
        },
        {
          "indexed": false,
          "internalType": "address",
          "name": "seller",
          "type": "address"
        }
      ],
      "name": "CommentAdded",
      "type": "event"
    },
    {
      "anonymous": false,
      "inputs": [
        {
          "indexed": true,
          "internalType": "address",
          "name": "buyer",
          "type": "address"
        },
        {
          "indexed": true,
          "internalType": "string",
          "name": "productCode",
          "type": "string"
        },
        {
          "indexed": true,
          "internalType": "uint256",
          "name": "price",
          "type": "uint256"
        }
      ],
      "name": "ItemBought",
      "type": "event"
    },
    {
      "anonymous": false,
      "inputs": [
        {
          "indexed": true,
          "internalType": "address",
          "name": "seller",
          "type": "address"
        },
        {
          "indexed": true,
          "internalType": "uint256",
          "name": "price",
          "type": "uint256"
        },
        {
          "indexed": true,
          "internalType": "string",
          "name": "productCode",
          "type": "string"
        },
        {
          "indexed": false,
          "internalType": "string",
          "name": "title",
          "type": "string"
        }
      ],
      "name": "ItemListed",
      "type": "event"
    },
    {
      "anonymous": false,
      "inputs": [
        {
          "indexed": true,
          "internalType": "address",
          "name": "seller",
          "type": "address"
        },
        {
          "indexed": true,
          "internalType": "string",
          "name": "productCode",
          "type": "string"
        },
        {
          "indexed": true,
          "internalType": "bool",
          "name": "publish",
          "type": "bool"
        }
      ],
      "name": "ItemPublished",
      "type": "event"
    },
    {
      "anonymous": false,
      "inputs": [
        {
          "indexed": true,
          "internalType": "address",
          "name": "seller",
          "type": "address"
        },
        {
          "indexed": true,
          "internalType": "string",
          "name": "productCode",
          "type": "string"
        },
        {
          "indexed": true,
          "internalType": "string",
          "name": "title",
          "type": "string"
        },
        {
          "indexed": false,
          "internalType": "uint256",
          "name": "price",
          "type": "uint256"
        }
      ],
      "name": "ListingUpdated",
      "type": "event"
    },
    {
      "anonymous": false,
      "inputs": [
        {
          "indexed": true,
          "internalType": "address",
          "name": "person",
          "type": "address"
        }
      ],
      "name": "MetaverseAirdrop",
      "type": "event"
    },
    {
      "anonymous": false,
      "inputs": [
        {
          "indexed": true,
          "internalType": "address",
          "name": "person",
          "type": "address"
        },
        {
          "indexed": true,
          "internalType": "string",
          "name": "currency",
          "type": "string"
        },
        {
          "indexed": true,
          "internalType": "uint256",
          "name": "amount",
          "type": "uint256"
        }
      ],
      "name": "ProceedsWithdrawn",
      "type": "event"
    },
    {
      "anonymous": false,
      "inputs": [
        {
          "indexed": true,
          "internalType": "address",
          "name": "owner",
          "type": "address"
        },
        {
          "indexed": true,
          "internalType": "string",
          "name": "username",
          "type": "string"
        }
      ],
      "name": "SetUsername",
      "type": "event"
    },
    {
      "inputs": [
        {
          "internalType": "string",
          "name": "comment",
          "type": "string"
        },
        {
          "internalType": "uint256",
          "name": "rating",
          "type": "uint256"
        },
        {
          "internalType": "string",
          "name": "dateString",
          "type": "string"
        },
        {
          "internalType": "string",
          "name": "productCode",
          "type": "string"
        },
        {
          "internalType": "address",
          "name": "seller",
          "type": "address"
        }
      ],
      "name": "addComment",
      "outputs": [],
      "stateMutability": "nonpayable",
      "type": "function"
    },
    {
      "inputs": [
        {
          "internalType": "address",
          "name": "",
          "type": "address"
        }
      ],
      "name": "addressToLastGetMetaverseToken",
      "outputs": [
        {
          "internalType": "uint256",
          "name": "",
          "type": "uint256"
        }
      ],
      "stateMutability": "view",
      "type": "function"
    },
    {
      "inputs": [
        {
          "internalType": "string",
          "name": "productCode",
          "type": "string"
        },
        {
          "internalType": "address",
          "name": "seller",
          "type": "address"
        },
        {
          "internalType": "uint256",
          "name": "quantity",
          "type": "uint256"
        }
      ],
      "name": "buyItem",
      "outputs": [],
      "stateMutability": "payable",
      "type": "function"
    },
    {
      "inputs": [
        {
          "internalType": "string",
          "name": "productCode",
          "type": "string"
        },
        {
          "internalType": "bool",
          "name": "publish",
          "type": "bool"
        }
      ],
      "name": "changeListingVisibility",
      "outputs": [],
      "stateMutability": "nonpayable",
      "type": "function"
    },
    {
      "inputs": [],
      "name": "get1000MetaverseToken",
      "outputs": [],
      "stateMutability": "nonpayable",
      "type": "function"
    },
    {
      "inputs": [],
      "name": "getAllUserListings",
      "outputs": [
        {
          "components": [
            {
              "internalType": "uint256",
              "name": "price",
              "type": "uint256"
            },
            {
              "internalType": "address",
              "name": "seller",
              "type": "address"
            },
            {
              "internalType": "bool",
              "name": "published",
              "type": "bool"
            },
            {
              "internalType": "string",
              "name": "productType",
              "type": "string"
            },
            {
              "internalType": "string",
              "name": "title",
              "type": "string"
            },
            {
              "internalType": "string",
              "name": "description",
              "type": "string"
            },
            {
              "internalType": "string",
              "name": "imageUrl",
              "type": "string"
            },
            {
              "internalType": "string",
              "name": "currency",
              "type": "string"
            },
            {
              "internalType": "string",
              "name": "productUrl",
              "type": "string"
            },
            {
              "internalType": "string",
              "name": "productInfo",
              "type": "string"
            },
            {
              "internalType": "string",
              "name": "productCode",
              "type": "string"
            },
            {
              "internalType": "uint256",
              "name": "nftTokenId",
              "type": "uint256"
            },
            {
              "components": [
                {
                  "internalType": "address",
                  "name": "commenter",
                  "type": "address"
                },
                {
                  "internalType": "uint256",
                  "name": "rating",
                  "type": "uint256"
                },
                {
                  "internalType": "string",
                  "name": "comment",
                  "type": "string"
                },
                {
                  "internalType": "uint256",
                  "name": "time",
                  "type": "uint256"
                },
                {
                  "internalType": "string",
                  "name": "dateString",
                  "type": "string"
                }
              ],
              "internalType": "struct MetaverseMarketplace.Comment[]",
              "name": "comments",
              "type": "tuple[]"
            },
            {
              "components": [
                {
                  "internalType": "address",
                  "name": "buyer",
                  "type": "address"
                },
                {
                  "internalType": "uint256",
                  "name": "quantity",
                  "type": "uint256"
                },
                {
                  "internalType": "uint256",
                  "name": "totalPrice",
                  "type": "uint256"
                }
              ],
              "internalType": "struct MetaverseMarketplace.Buyer[]",
              "name": "buyers",
              "type": "tuple[]"
            }
          ],
          "internalType": "struct MetaverseMarketplace.Listing[]",
          "name": "",
          "type": "tuple[]"
        }
      ],
      "stateMutability": "view",
      "type": "function"
    },
    {
      "inputs": [
        {
          "internalType": "string",
          "name": "productType",
          "type": "string"
        }
      ],
      "name": "getListingByProductType",
      "outputs": [
        {
          "components": [
            {
              "internalType": "uint256",
              "name": "price",
              "type": "uint256"
            },
            {
              "internalType": "address",
              "name": "seller",
              "type": "address"
            },
            {
              "internalType": "bool",
              "name": "published",
              "type": "bool"
            },
            {
              "internalType": "string",
              "name": "productType",
              "type": "string"
            },
            {
              "internalType": "string",
              "name": "title",
              "type": "string"
            },
            {
              "internalType": "string",
              "name": "description",
              "type": "string"
            },
            {
              "internalType": "string",
              "name": "imageUrl",
              "type": "string"
            },
            {
              "internalType": "string",
              "name": "currency",
              "type": "string"
            },
            {
              "internalType": "string",
              "name": "productUrl",
              "type": "string"
            },
            {
              "internalType": "string",
              "name": "productInfo",
              "type": "string"
            },
            {
              "internalType": "string",
              "name": "productCode",
              "type": "string"
            },
            {
              "internalType": "uint256",
              "name": "nftTokenId",
              "type": "uint256"
            },
            {
              "components": [
                {
                  "internalType": "address",
                  "name": "commenter",
                  "type": "address"
                },
                {
                  "internalType": "uint256",
                  "name": "rating",
                  "type": "uint256"
                },
                {
                  "internalType": "string",
                  "name": "comment",
                  "type": "string"
                },
                {
                  "internalType": "uint256",
                  "name": "time",
                  "type": "uint256"
                },
                {
                  "internalType": "string",
                  "name": "dateString",
                  "type": "string"
                }
              ],
              "internalType": "struct MetaverseMarketplace.Comment[]",
              "name": "comments",
              "type": "tuple[]"
            },
            {
              "components": [
                {
                  "internalType": "address",
                  "name": "buyer",
                  "type": "address"
                },
                {
                  "internalType": "uint256",
                  "name": "quantity",
                  "type": "uint256"
                },
                {
                  "internalType": "uint256",
                  "name": "totalPrice",
                  "type": "uint256"
                }
              ],
              "internalType": "struct MetaverseMarketplace.Buyer[]",
              "name": "buyers",
              "type": "tuple[]"
            }
          ],
          "internalType": "struct MetaverseMarketplace.Listing[]",
          "name": "",
          "type": "tuple[]"
        }
      ],
      "stateMutability": "view",
      "type": "function"
    },
    {
      "inputs": [
        {
          "internalType": "address",
          "name": "seller",
          "type": "address"
        },
        {
          "internalType": "string",
          "name": "currency",
          "type": "string"
        }
      ],
      "name": "getProceeds",
      "outputs": [
        {
          "internalType": "uint256",
          "name": "",
          "type": "uint256"
        }
      ],
      "stateMutability": "view",
      "type": "function"
    },
    {
      "inputs": [],
      "name": "getUserListing",
      "outputs": [
        {
          "components": [
            {
              "internalType": "uint256",
              "name": "price",
              "type": "uint256"
            },
            {
              "internalType": "address",
              "name": "seller",
              "type": "address"
            },
            {
              "internalType": "bool",
              "name": "published",
              "type": "bool"
            },
            {
              "internalType": "string",
              "name": "productType",
              "type": "string"
            },
            {
              "internalType": "string",
              "name": "title",
              "type": "string"
            },
            {
              "internalType": "string",
              "name": "description",
              "type": "string"
            },
            {
              "internalType": "string",
              "name": "imageUrl",
              "type": "string"
            },
            {
              "internalType": "string",
              "name": "currency",
              "type": "string"
            },
            {
              "internalType": "string",
              "name": "productUrl",
              "type": "string"
            },
            {
              "internalType": "string",
              "name": "productInfo",
              "type": "string"
            },
            {
              "internalType": "string",
              "name": "productCode",
              "type": "string"
            },
            {
              "internalType": "uint256",
              "name": "nftTokenId",
              "type": "uint256"
            },
            {
              "components": [
                {
                  "internalType": "address",
                  "name": "commenter",
                  "type": "address"
                },
                {
                  "internalType": "uint256",
                  "name": "rating",
                  "type": "uint256"
                },
                {
                  "internalType": "string",
                  "name": "comment",
                  "type": "string"
                },
                {
                  "internalType": "uint256",
                  "name": "time",
                  "type": "uint256"
                },
                {
                  "internalType": "string",
                  "name": "dateString",
                  "type": "string"
                }
              ],
              "internalType": "struct MetaverseMarketplace.Comment[]",
              "name": "comments",
              "type": "tuple[]"
            },
            {
              "components": [
                {
                  "internalType": "address",
                  "name": "buyer",
                  "type": "address"
                },
                {
                  "internalType": "uint256",
                  "name": "quantity",
                  "type": "uint256"
                },
                {
                  "internalType": "uint256",
                  "name": "totalPrice",
                  "type": "uint256"
                }
              ],
              "internalType": "struct MetaverseMarketplace.Buyer[]",
              "name": "buyers",
              "type": "tuple[]"
            }
          ],
          "internalType": "struct MetaverseMarketplace.Listing[]",
          "name": "",
          "type": "tuple[]"
        }
      ],
      "stateMutability": "view",
      "type": "function"
    },
    {
      "inputs": [
        {
          "internalType": "uint256",
          "name": "price",
          "type": "uint256"
        },
        {
          "internalType": "string",
          "name": "productType",
          "type": "string"
        },
        {
          "internalType": "string",
          "name": "title",
          "type": "string"
        },
        {
          "internalType": "string",
          "name": "description",
          "type": "string"
        },
        {
          "internalType": "string",
          "name": "imageUrl",
          "type": "string"
        },
        {
          "internalType": "string",
          "name": "currency",
          "type": "string"
        },
        {
          "internalType": "string",
          "name": "productUrl",
          "type": "string"
        },
        {
          "internalType": "string",
          "name": "productInfo",
          "type": "string"
        },
        {
          "internalType": "string",
          "name": "productCode",
          "type": "string"
        },
        {
          "internalType": "uint256",
          "name": "nftTokenId",
          "type": "uint256"
        }
      ],
      "name": "listItem",
      "outputs": [],
      "stateMutability": "nonpayable",
      "type": "function"
    },
    {
      "inputs": [],
      "name": "metaverseToken",
      "outputs": [
        {
          "internalType": "contract IERC20",
          "name": "",
          "type": "address"
        }
      ],
      "stateMutability": "view",
      "type": "function"
    },
    {
      "inputs": [
        {
          "internalType": "string",
          "name": "productCode",
          "type": "string"
        }
      ],
      "name": "productCodeExists",
      "outputs": [
        {
          "internalType": "bool",
          "name": "",
          "type": "bool"
        }
      ],
      "stateMutability": "view",
      "type": "function"
    },
    {
      "inputs": [
        {
          "internalType": "string",
          "name": "newUsername",
          "type": "string"
        }
      ],
      "name": "setUsername",
      "outputs": [],
      "stateMutability": "nonpayable",
      "type": "function"
    },
    {
      "inputs": [
        {
          "internalType": "string",
          "name": "productCode",
          "type": "string"
        },
        {
          "internalType": "uint256",
          "name": "price",
          "type": "uint256"
        },
        {
          "internalType": "string",
          "name": "title",
          "type": "string"
        },
        {
          "internalType": "string",
          "name": "description",
          "type": "string"
        },
        {
          "internalType": "string",
          "name": "productInfo",
          "type": "string"
        },
        {
          "internalType": "string",
          "name": "productUrl",
          "type": "string"
        },
        {
          "internalType": "string",
          "name": "imageUrl",
          "type": "string"
        }
      ],
      "name": "updateListing",
      "outputs": [],
      "stateMutability": "nonpayable",
      "type": "function"
    },
    {
      "inputs": [
        {
          "internalType": "string",
          "name": "currency",
          "type": "string"
        }
      ],
      "name": "withdrawProceeds",
      "outputs": [],
      "stateMutability": "nonpayable",
      "type": "function"
    }
  ],
  "bytecode": "0x60803461007957601f6126a238819003918201601f19168301916001600160401b0383118484101761007e5780849260209460405283398101031261007957516001600160a01b03811690819003610079576001600055600480546001600160a01b03191691909117905560405161260d90816100958239f35b600080fd5b634e487b7160e01b600052604160045260246000fdfe608060405260048036101561001357600080fd5b6000803560e01c80631a13cc5914610e9e5780631cad3ac514610e5b578063318bb5c714610c095780633829f31314610be15780637791b33014610b6157806393ec02f1146109d3578063990d6459146108fe5780639992b606146108725780639dee74d5146107cf578063a39249b814610753578063a97ce3c214610601578063bddff4d8146105c8578063d41aab2314610355578063e607a8ba146102435763ed59313a146100c357600080fd5b346102405760208060031936011261023c576001600160401b03928035848111610238576100f49036908301611131565b91338452600281526040842091835195861161022557506101158254611469565b601f81116101ec575b5080601f8611600114610185575093808495610152959161017a575b508160011b916000199060031b1c1916179055612189565b337fcfa484be7b1d89ac1b8203c2067a8efdffde3d5e5ec8a446cf9c54cb01c7e20b8380a380f35b90508301513861013a565b90601f1986168386528286209286905b8282106101d45750509186916101529697600194106101bb575b5050811b019055612189565b85015160001960f88460031b161c1916905538806101af565b80600185968294968a01518155019501930190610195565b61021590838652828620601f880160051c81019184891061021b575b601f0160051c01906114a3565b3861011e565b9091508190610208565b634e487b7160e01b855260419052602484fd5b8380fd5b5080fd5b80fd5b50346102405780600319360112610240573381526020600381526040822054420342811161034257620151801161032b5780829333845260038252426040852055604460018060a01b0382541691604051958693849263a9059cbb60e01b84523390840152683635c9adc5dea0000060248401525af18015610320576102ed575b82337f561f98adfb5df58a7c3c03f4ada643cc46c1a5291389819dbd6d01fe490481498280a280f35b81813d8311610319575b61030181836110f5565b8101031261023c5751801515036102405738806102c4565b503d6102f7565b6040513d85823e3d90fd5b60405163fca47e3160e01b81523381850152602490fd5b634e487b7160e01b835260118452602483fd5b5090606090816003193601126105c45780356001600160401b038111610238576103829036908301611131565b6001600160a01b0360248035828116959394919391908690036105c05760449384359260028954146105af5760028955885b6005548110156105a1576103dc886103d760096103d085611418565b50016121b8565b61225c565b6103ee576103e9906121a9565b6103b4565b949596976104046103fe87611418565b506123e4565b9788519182341061057257505050508551948584029584870414841517156105605760405195610433876110da565b338752602094858801526040870152838701511688526001938484526104708460408b2060e08a015190826040519483868095519384920161117d565b82019081520301902080549034820180921161054e5755600c9061049390611418565b500191825494600160401b86101561053c57850180845585101561052b57505086528520825160039092020180546001600160a01b0319166001600160a01b0392909216919091178155602082015160018201556040909101516002909101556104fe905191612189565b337f253fcd678c758e0e03dbf3a0243701c7439c306a61158b3c522a8119772990108480a45b6001815580f35b634e487b7160e01b89526032905287fd5b50634e487b7160e01b89526041905287fd5b634e487b7160e01b8b5260118552838bfd5b50634e487b7160e01b88526011825287fd5b604051630e90db8560e31b815295860193909352849392610596606486018c6111a0565b938501528301520390fd5b505050505050505050610524565b604051633ee5aeb560e01b81528390fd5b8680fd5b8280fd5b5034610240576020366003190112610240576020906040906001600160a01b036105f0611402565b168152600383522054604051908152f35b50903461023c576020806003193601126105c45781356001600160401b038111610238576106329036908401611131565b338452600182526040842060405183818451938286019461065481848861117d565b8201908152030190205490811561074257610687848792338452600182526040842060405180948193895192839161117d565b820190815203019020558480808084335af191823d1561073d573d6106ab81611116565b906106b960405192836110f5565b815287863d92013e5b610708575b5050156106d2578280f35b60405162461bcd60e51b815291820152601060248201526f5472616e73666572206661696c65642160801b604482015260649150fd5b61071190612189565b337ff2ca3efe12f71d386ef0fd2b75ebbef402882711943ccb42d5bdb696fa7a13418780a438806106c7565b6106c2565b60405163125d726b60e21b81528590fd5b50903461023c57604036600319011261023c5761076e611402565b906024356001600160401b0381116102385791604060209461079786946107bd96369101611131565b6001600160a01b039093168152600184522060405182519094859382908590870161117d565b82019081520301902054604051908152f35b50903461023c57602036600319011261023c578035906001600160401b0382116105c4576107ff91369101611131565b6005549061080c826124d2565b925b828110610827576040518061082386826111c5565b0390f35b8061083d836103d760026103d061084696611418565b61084b576121a9565b61080e565b6108576103fe82611418565b6108618287612581565b5261086c8186612581565b506121a9565b503461024057806003193601126102405760055461088f816122b1565b9061089d60405192836110f5565b808252600583527f036b6384b5eca791c62761152d0c79bb0604c104a5fb6f4eb0703f3154bb3db09260208084015b8383106108e1576040518061082387826111c5565b600d826001926108f0896123e4565b8152019601920191946108cc565b50903461023c57604036600319011261023c578035906001600160401b0382116105c45761092e91369101611131565b602435908115159081830361023857835b6005548110156109cc5761095b826103d760096103d085611418565b61096d57610968906121a9565b61093f565b6109a49293600161098061099f93611418565b5001805460ff60a01b191691151560a01b60ff60a01b16919091179055565b612189565b337f51dabe03dbc9869cdc42f327348910c055732b793c7aaade368a32d8f3658e1e8480a480f35b5050505080f35b50903461023c5760a036600319011261023c576001600160401b03813581811161023857610a049036908401611131565b906024928335926044358381116105c057610a229036908401611131565b926064359081116105c057610a3a9036908401611131565b926084356001600160a01b0381169390849003610b5d57875b60058054821015610b5157610a70876103d760096103d086611418565b610a835750610a7e906121a9565b610a53565b9192939495969790610a96600b91611418565b50019060405194610aa6866110bf565b3386526020998a8701528660408701524260608701526080860152815493600160401b851015610b405760018501808455851015610b2f575050610b2293610b1c937f8bb52eee1b68032569fa2c483528d7d2b7db7824b9704ee675f7202956220865969361099f938c528a8c20910201611504565b93612189565b936040519283523392a480f35b634e487b7160e01b8b526032905289fd5b634e487b7160e01b8b526041905289fd5b50505050505050505080f35b8780fd5b5034610240578060031936011261024057600554610b7e816124d2565b915b818110610b95576040518061082385826111c5565b80610ba2610bbb92611418565b50600101546001600160a01b03163314610bc0576121a9565b610b80565b610bcc6103fe82611418565b610bd68286612581565b5261086c8185612581565b50903461023c578160031936011261023c57546040516001600160a01b039091168152602090f35b50903461023c5760e036600319011261023c576001600160401b03813581811161023857610c3a9036908401611131565b604435828111610e5757610c519036908501611131565b91606435818111610e5357610c699036908601611131565b936084358281116105c057610c819036908301611131565b9160a435818111610b5d57610c999036908401611131565b9160c435918211610b5d57610cb091369101611131565b91865b600554811015610e4957610ccf856103d760096103d085611418565b610ce157610cdc906121a9565b610cb3565b92939495610cee84611418565b506001908101546001600160a01b03169590610d0986611418565b50015492610d1686611418565b5094610d2187611418565b50610d2b88611418565b5093610d3689611418565b50600a015495610d458a611418565b5097610d508b611418565b50996040519c610d5f8e61108d565b6024358e5260208e015260ff60a092831c16151560408e0152610d84906002016121b8565b60608d01528d60808d01528b015260c08a0152600601610da3906121b8565b60e0890152610100880152610120870152600901610dc0906121b8565b610140860152610160850152600b01610dd8906122c8565b610180840152600c01610dea90612367565b6101a0830152610df990611418565b610e03929161173e565b610e0c90612189565b90610e1690612189565b906040516024358152339060207f384c5f98880fad6ed933597fe4becd24246db16d5a262945362c7ace0a0e47b591a480f35b5050505050505080f35b8580fd5b8480fd5b5034610240576020366003190112610240578135906001600160401b038211610240576020610e94610e8f36858701611131565b612595565b6040519015158152f35b50903461023c5761014090816003193601126105c4578035906001600160401b0390602435828111610e5357610ed79036908301611131565b906044358381116105c057610eef9036908301611131565b94606435848111610b5d57610f079036908401611131565b9360843581811161108957610f1f9036908501611131565b60a43582811161108557610f369036908601611131565b60c43583811161108157610f4d9036908701611131565b9160e43584811161107d57610f659036908801611131565b936101043590811161107d57610f7e9036908801611131565b97891561106c579088959493929160405198610f998a61108d565b8b8a523360208b01528d60408b015260608a01528b60808a015260a089015260c088015260e087015261010086015261012085015283015261012435610160830152606061018083015260606101a083015260055490600160401b821015611059575061101a929161101482600161099f9401600555611418565b9061173e565b917f9ec512f6157daf19471fdb4abc754cd622ce54571fda42c4c416ff378b0415836040516020815280611053339460208301906111a0565b0390a480f35b634e487b7160e01b875260419052602486fd5b604051635ebde5f560e11b81528790fd5b8b80fd5b8a80fd5b8980fd5b8880fd5b6101c081019081106001600160401b038211176110a957604052565b634e487b7160e01b600052604160045260246000fd5b60a081019081106001600160401b038211176110a957604052565b606081019081106001600160401b038211176110a957604052565b90601f801991011681019081106001600160401b038211176110a957604052565b6001600160401b0381116110a957601f01601f191660200190565b81601f820112156111785780359061114882611116565b9261115660405194856110f5565b8284526020838301011161117857816000926020809301838601378301015290565b600080fd5b60005b8381106111905750506000910152565b8181015183820152602001611180565b906020916111b98151809281855285808601910161117d565b601f01601f1916010190565b602081016020825282518091526040820191602060408360051b8301019401926000915b8383106111f857505050505090565b9091929394603f198282030183528551908151815260018060a01b0360208301511660208201526040820151151560408201526112df6112cb6112b76112a361129061127d61126b61125960608a01516101c08060608c01528a01906111a0565b60808a015189820360808b01526111a0565b60a089015188820360a08a01526111a0565b60c08089015190888303908901526111a0565b60e08088015190878303908801526111a0565b6101008087015190868303908701526111a0565b6101208086015190858303908601526111a0565b6101408085015190848303908501526111a0565b90610160808401519082015261018091828401519282820390830152825180825260208201906020808260051b85010195019260005b8281106113925750505050506101a08093015192818303910152602080835192838152019201906000905b80821061135f57505050602080600192970193019301919392906111e9565b9091926020606060019260408751858060a01b038151168352848101518584015201516040820152019401920190611340565b90919293956020806113f5600193601f198782030189528a5190858060a01b038251168152838201518482015260806113da604084015160a0604085015260a08401906111a0565b926060810151606084015201519060808184039101526111a0565b9801950193929101611315565b600435906001600160a01b038216820361117857565b60055481101561145357600d906005600052027f036b6384b5eca791c62761152d0c79bb0604c104a5fb6f4eb0703f3154bb3db00190600090565b634e487b7160e01b600052603260045260246000fd5b90600182811c92168015611499575b602083101461148357565b634e487b7160e01b600052602260045260246000fd5b91607f1691611478565b8181106114ae575050565b600081556001016114a3565b6114c48154611469565b90816114ce575050565b81601f600093116001146114e15750555b565b908083918252611500601f60208420940160051c8401600185016114a3565b5555565b60018060a01b038251166bffffffffffffffffffffffff60a01b825416178155602080830151916001928382015560028101916040850151918251936001600160401b03948581116110a95761155a8254611469565b94601f95868111611710575b5084908683116001146116a25791806004949260809694600092611697575b5050600019600383901b1c191690891b1790555b60608801516003820155019501519081519384116110a9576115bb8654611469565b83811161165f575b50809284116001146115fc57509282939183926000946115f1575b50501b916000199060031b1c1916179055565b0151925038806115de565b919083601f1981168760005284600020946000905b88838310611645575050501061162c575b505050811b019055565b015160001960f88460031b161c19169055388080611622565b858701518855909601959485019487935090810190611611565b6116889087600052826000208580880160051c82019285891061168e575b0160051c01906114a3565b386115c3565b9250819261167d565b015190503880611585565b889291601f1983169185600052876000209260005b898282106116fa57505091608097959391856004989694106116e1575b505050811b019055611599565b015160001960f88460031b161c191690553880806116d4565b8385015186558d979095019493840193016116b7565b6117389084600052866000208880860160051c82019289871061168e570160051c01906114a3565b38611566565b919061217357805182556020810151600183018054604084015160ff60a01b90151560a01b166001600160a01b039093166001600160a81b0319909116179190911790556002820160608201518051906001600160401b0382116110a95781906117a88454611469565b601f8111612141575b50602090601f83116001146120db576000926120d0575b50508160011b916000199060031b1c19161790555b6003820160808201518051906001600160401b0382116110a95781906118038454611469565b601f811161209e575b50602090601f83116001146120385760009261202d575b50508160011b916000199060031b1c19161790555b6004820160a08201518051906001600160401b0382116110a957819061185e8454611469565b601f8111611ffb575b50602090601f8311600114611f9557600092611f8a575b50508160011b916000199060031b1c19161790555b6005820160c08201518051906001600160401b0382116110a95781906118b98454611469565b601f8111611f58575b50602090601f8311600114611ef257600092611ee7575b50508160011b916000199060031b1c19161790555b60e08101519283516001600160401b0381116110a9576119116006850154611469565b601f8111611eb2575b50602094601f8211600114611e4657948192939495600092611e3b575b50508160011b916000199060031b1c19161760068401555b6101008201519283516001600160401b0381116110a9576119736007830154611469565b601f8111611e06575b506020601f8211600114611d97578192939495600092611d8c575b50508160011b916000199060031b1c19161760078201555b6101208301519283516001600160401b0381116110a9576119d36008840154611469565b601f8111611d57575b506020601f8211600114611ce8578192939495600092611cdd575b50508160011b916000199060031b1c19161760088301555b600982016101408201518051906001600160401b0382116110a9578190611a368454611469565b601f8111611cab575b50602090601f8311600114611c4557600092611c3a575b50508160011b916000199060031b1c19161790555b610160810151600a8301556101808101518051600160401b9391600b8301908583116110a9578154838355808410611bcf575b506020019060005260206000206000915b838310611bb15750505050600c6101a0910191015180519283116110a9578154838355808410611b48575b506020019060005260206000206000915b838310611af85750505050565b6003602082611b3c600194518690604060029160018060a01b038151166bffffffffffffffffffffffff60a01b855416178455602081015160018501550151910155565b01920192019190611aeb565b80600302906003820403611b9b5783600302600381048503611b9b5783600052602060002091820191015b818110611b805750611ada565b80600060039255600060018201556000600282015501611b73565b634e487b7160e01b600052601160045260246000fd5b6005602082611bc36001945186611504565b01920192019190611aaf565b80600502906005820403611b9b5783600502600581048503611b9b5783600052602060002091820191015b818110611c075750611a9e565b8060006005925560006001820155611c21600282016114ba565b60006003820155611c34600482016114ba565b01611bfa565b015190503880611a56565b6000858152602081209350601f198516905b818110611c935750908460019594939210611c7a575b505050811b019055611a6b565b015160001960f88460031b161c19169055388080611c6d565b92936020600181928786015181550195019301611c57565b611cd790856000526020600020601f850160051c8101916020861061021b57601f0160051c01906114a3565b38611a3f565b0151905038806119f7565b6008840160005260206000209060005b601f1984168110611d3f575060019394959683601f19811610611d26575b505050811b016008830155611a0f565b015160001960f88460031b161c19169055388080611d16565b9091602060018192858b015181550193019101611cf8565b611d8690600885016000526020600020601f840160051c8101916020851061021b57601f0160051c01906114a3565b386119dc565b015190503880611997565b6007830160005260206000209060005b601f1984168110611dee575060019394959683601f19811610611dd5575b505050811b0160078201556119af565b015160001960f88460031b161c19169055388080611dc5565b9091602060018192858b015181550193019101611da7565b611e3590600784016000526020600020601f840160051c8101916020851061021b57601f0160051c01906114a3565b3861197c565b015190503880611937565b601f198216956006860160005260206000209160005b888110611e9a57508360019596979810611e81575b505050811b01600684015561194f565b015160001960f88460031b161c19169055388080611e71565b91926020600181928685015181550194019201611e5c565b611ee190600686016000526020600020601f840160051c8101916020851061021b57601f0160051c01906114a3565b3861191a565b0151905038806118d9565b6000858152602081209350601f198516905b818110611f405750908460019594939210611f27575b505050811b0190556118ee565b015160001960f88460031b161c19169055388080611f1a565b92936020600181928786015181550195019301611f04565b611f8490856000526020600020601f850160051c8101916020861061021b57601f0160051c01906114a3565b386118c2565b01519050388061187e565b6000858152602081209350601f198516905b818110611fe35750908460019594939210611fca575b505050811b019055611893565b015160001960f88460031b161c19169055388080611fbd565b92936020600181928786015181550195019301611fa7565b61202790856000526020600020601f850160051c8101916020861061021b57601f0160051c01906114a3565b38611867565b015190503880611823565b6000858152602081209350601f198516905b818110612086575090846001959493921061206d575b505050811b019055611838565b015160001960f88460031b161c19169055388080612060565b9293602060018192878601518155019501930161204a565b6120ca90856000526020600020601f850160051c8101916020861061021b57601f0160051c01906114a3565b3861180c565b0151905038806117c8565b6000858152602081209350601f198516905b8181106121295750908460019594939210612110575b505050811b0190556117dd565b015160001960f88460031b161c19169055388080612103565b929360206001819287860151815501950193016120ed565b61216d90856000526020600020601f850160051c8101916020861061021b57601f0160051c01906114a3565b386117b1565b634e487b7160e01b600052600060045260246000fd5b6121a19060206040519282848094519384920161117d565b810103902090565b6000198114611b9b5760010190565b90604051918260008254926121cc84611469565b90818452600194858116908160001461223957506001146121f6575b50506114df925003836110f5565b9093915060005260209081600020936000915b8183106122215750506114df935082010138806121e8565b85548884018501529485019487945091830191612209565b9150506114df94506020925060ff191682840152151560051b82010138806121e8565b906040519160209261228a84828161227d818301968781519384920161117d565b81010380845201826110f5565b519020916122aa60405191828161227d818301968781519384920161117d565b5190201490565b6001600160401b0381116110a95760051b60200190565b9081546122d4816122b1565b926040936122e4855191826110f5565b828152809460208092019260005281600020906000935b85851061230a57505050505050565b600584600192845161231b816110bf565b848060a01b038754168152848701548382015261233a600288016121b8565b8682015260038701546060820152612354600488016121b8565b60808201528152019301940193916122fb565b908154612373816122b1565b92604093612383855191826110f5565b828152809460208092019260005281600020906000935b8585106123a957505050505050565b60038460019284516123ba816110da565b848060a01b038754168152848701548382015260028701548682015281520193019401939161239a565b906040516123f18161108d565b6101a06124cd600c83958054855260ff600182015460018060a01b038116602088015260a01c161515604086015261242b600282016121b8565b606086015261243c600382016121b8565b608086015261244d600482016121b8565b60a086015261245e600582016121b8565b60c086015261246f600682016121b8565b60e0860152612480600782016121b8565b610100860152612492600882016121b8565b6101208601526124a4600982016121b8565b610140860152600a8101546101608601526124c1600b82016122c8565b61018086015201612367565b910152565b906124dc826122b1565b6040906124eb825191826110f5565b83815280936124fc601f19916122b1565b019160005b83811061250e5750505050565b602090825161251c8161108d565b6000815282600081830152600085830152606080808401528060808401528060a08401528060c08401528060e08401528061010084015280610120840152806101408401526000610160840152806101808401526101a0830152828601015201612501565b80518210156114535760209160051b010190565b6005549060005b8281106125ab57505050600090565b6125bd826103d760096103d085611418565b6125cf576125ca906121a9565b61259c565b50505060019056fea2646970667358221220ddee69b8dd8282e2e28cfbb70dda2554a6797a810525490b224dcb9c5558675364736f6c63430008140033",
  "linkReferences": {},
  "deployedLinkReferences": {}
}