{
  "_format": "hh-sol-artifact-1",
  "contractName": "MetaverseMarketplace",
  "sourceName": "contracts/MetaverseMarketplace.sol",
  "abi": [
    {
      "inputs": [
        {
          "internalType": "address",
          "name": "_metaverseTokenAddress",
          "type": "address"
        }
      ],
      "stateMutability": "nonpayable",
      "type": "constructor"
    },
    {
      "inputs": [
        {
          "internalType": "address",
          "name": "senderAddress",
          "type": "address"
        }
      ],
      "name": "MetaverseMarketplace__AddressLessThan1DayForMetaverseToken",
      "type": "error"
    },
    {
      "inputs": [],
      "name": "MetaverseMarketplace__NoProceeds",
      "type": "error"
    },
    {
      "inputs": [],
      "name": "MetaverseMarketplace__PriceMustBeAboveZero",
      "type": "error"
    },
    {
      "inputs": [
        {
          "internalType": "string",
          "name": "productCode",
          "type": "string"
        },
        {
          "internalType": "address",
          "name": "seller",
          "type": "address"
        },
        {
          "internalType": "uint256",
          "name": "price",
          "type": "uint256"
        }
      ],
      "name": "MetaverseMarketplace__PriceNotMet",
      "type": "error"
    },
    {
      "inputs": [],
      "name": "ReentrancyGuardReentrantCall",
      "type": "error"
    },
    {
      "anonymous": false,
      "inputs": [
        {
          "indexed": true,
          "internalType": "address",
          "name": "commenter",
          "type": "address"
        },
        {
          "indexed": true,
          "internalType": "string",
          "name": "comment",
          "type": "string"
        },
        {
          "indexed": true,
          "internalType": "string",
          "name": "productCode",
          "type": "string"
        },
        {
          "indexed": false,
          "internalType": "address",
          "name": "seller",
          "type": "address"
        }
      ],
      "name": "CommentAdded",
      "type": "event"
    },
    {
      "anonymous": false,
      "inputs": [
        {
          "indexed": true,
          "internalType": "address",
          "name": "buyer",
          "type": "address"
        },
        {
          "indexed": true,
          "internalType": "string",
          "name": "productCode",
          "type": "string"
        },
        {
          "indexed": true,
          "internalType": "uint256",
          "name": "price",
          "type": "uint256"
        }
      ],
      "name": "ItemBought",
      "type": "event"
    },
    {
      "anonymous": false,
      "inputs": [
        {
          "indexed": true,
          "internalType": "address",
          "name": "seller",
          "type": "address"
        },
        {
          "indexed": true,
          "internalType": "uint256",
          "name": "price",
          "type": "uint256"
        },
        {
          "indexed": true,
          "internalType": "string",
          "name": "productCode",
          "type": "string"
        },
        {
          "indexed": false,
          "internalType": "string",
          "name": "title",
          "type": "string"
        }
      ],
      "name": "ItemListed",
      "type": "event"
    },
    {
      "anonymous": false,
      "inputs": [
        {
          "indexed": true,
          "internalType": "address",
          "name": "seller",
          "type": "address"
        },
        {
          "indexed": true,
          "internalType": "string",
          "name": "productCode",
          "type": "string"
        },
        {
          "indexed": true,
          "internalType": "bool",
          "name": "publish",
          "type": "bool"
        }
      ],
      "name": "ItemPublished",
      "type": "event"
    },
    {
      "anonymous": false,
      "inputs": [
        {
          "indexed": true,
          "internalType": "address",
          "name": "seller",
          "type": "address"
        },
        {
          "indexed": true,
          "internalType": "string",
          "name": "productCode",
          "type": "string"
        },
        {
          "indexed": true,
          "internalType": "string",
          "name": "title",
          "type": "string"
        },
        {
          "indexed": false,
          "internalType": "uint256",
          "name": "price",
          "type": "uint256"
        }
      ],
      "name": "ListingUpdated",
      "type": "event"
    },
    {
      "anonymous": false,
      "inputs": [
        {
          "indexed": true,
          "internalType": "address",
          "name": "person",
          "type": "address"
        }
      ],
      "name": "MetaverseAirdrop",
      "type": "event"
    },
    {
      "anonymous": false,
      "inputs": [
        {
          "indexed": true,
          "internalType": "address",
          "name": "person",
          "type": "address"
        },
        {
          "indexed": true,
          "internalType": "string",
          "name": "currency",
          "type": "string"
        },
        {
          "indexed": true,
          "internalType": "uint256",
          "name": "amount",
          "type": "uint256"
        }
      ],
      "name": "ProceedsWithdrawn",
      "type": "event"
    },
    {
      "anonymous": false,
      "inputs": [
        {
          "indexed": true,
          "internalType": "address",
          "name": "owner",
          "type": "address"
        },
        {
          "indexed": true,
          "internalType": "string",
          "name": "username",
          "type": "string"
        },
        {
          "indexed": true,
          "internalType": "string",
          "name": "profileImageUrl",
          "type": "string"
        }
      ],
      "name": "SetUserProfile",
      "type": "event"
    },
    {
      "inputs": [
        {
          "internalType": "string",
          "name": "comment",
          "type": "string"
        },
        {
          "internalType": "uint256",
          "name": "rating",
          "type": "uint256"
        },
        {
          "internalType": "string",
          "name": "dateString",
          "type": "string"
        },
        {
          "internalType": "string",
          "name": "productCode",
          "type": "string"
        },
        {
          "internalType": "address",
          "name": "seller",
          "type": "address"
        }
      ],
      "name": "addComment",
      "outputs": [],
      "stateMutability": "nonpayable",
      "type": "function"
    },
    {
      "inputs": [
        {
          "internalType": "address",
          "name": "",
          "type": "address"
        }
      ],
      "name": "addressToLastGetMetaverseToken",
      "outputs": [
        {
          "internalType": "uint256",
          "name": "",
          "type": "uint256"
        }
      ],
      "stateMutability": "view",
      "type": "function"
    },
    {
      "inputs": [
        {
          "internalType": "string",
          "name": "productCode",
          "type": "string"
        },
        {
          "internalType": "address",
          "name": "seller",
          "type": "address"
        },
        {
          "internalType": "uint256",
          "name": "quantity",
          "type": "uint256"
        }
      ],
      "name": "buyItem",
      "outputs": [],
      "stateMutability": "payable",
      "type": "function"
    },
    {
      "inputs": [
        {
          "internalType": "string",
          "name": "productCode",
          "type": "string"
        },
        {
          "internalType": "bool",
          "name": "publish",
          "type": "bool"
        }
      ],
      "name": "changeListingVisibility",
      "outputs": [],
      "stateMutability": "nonpayable",
      "type": "function"
    },
    {
      "inputs": [],
      "name": "get1000MetaverseToken",
      "outputs": [],
      "stateMutability": "nonpayable",
      "type": "function"
    },
    {
      "inputs": [],
      "name": "getAllUserListings",
      "outputs": [
        {
          "components": [
            {
              "internalType": "uint256",
              "name": "price",
              "type": "uint256"
            },
            {
              "internalType": "address",
              "name": "seller",
              "type": "address"
            },
            {
              "internalType": "bool",
              "name": "published",
              "type": "bool"
            },
            {
              "internalType": "string",
              "name": "productType",
              "type": "string"
            },
            {
              "internalType": "string",
              "name": "title",
              "type": "string"
            },
            {
              "internalType": "string",
              "name": "description",
              "type": "string"
            },
            {
              "internalType": "string",
              "name": "imageUrl",
              "type": "string"
            },
            {
              "internalType": "string",
              "name": "currency",
              "type": "string"
            },
            {
              "internalType": "string",
              "name": "productUrl",
              "type": "string"
            },
            {
              "internalType": "string",
              "name": "productInfo",
              "type": "string"
            },
            {
              "internalType": "string",
              "name": "productCode",
              "type": "string"
            },
            {
              "internalType": "uint256",
              "name": "nftTokenId",
              "type": "uint256"
            },
            {
              "components": [
                {
                  "internalType": "address",
                  "name": "commenter",
                  "type": "address"
                },
                {
                  "internalType": "uint256",
                  "name": "rating",
                  "type": "uint256"
                },
                {
                  "internalType": "string",
                  "name": "comment",
                  "type": "string"
                },
                {
                  "internalType": "uint256",
                  "name": "time",
                  "type": "uint256"
                },
                {
                  "internalType": "string",
                  "name": "dateString",
                  "type": "string"
                }
              ],
              "internalType": "struct MetaverseMarketplace.Comment[]",
              "name": "comments",
              "type": "tuple[]"
            },
            {
              "components": [
                {
                  "internalType": "address",
                  "name": "buyer",
                  "type": "address"
                },
                {
                  "internalType": "uint256",
                  "name": "quantity",
                  "type": "uint256"
                },
                {
                  "internalType": "uint256",
                  "name": "totalPrice",
                  "type": "uint256"
                }
              ],
              "internalType": "struct MetaverseMarketplace.Buyer[]",
              "name": "buyers",
              "type": "tuple[]"
            }
          ],
          "internalType": "struct MetaverseMarketplace.Listing[]",
          "name": "",
          "type": "tuple[]"
        }
      ],
      "stateMutability": "view",
      "type": "function"
    },
    {
      "inputs": [
        {
          "internalType": "string",
          "name": "productType",
          "type": "string"
        }
      ],
      "name": "getListingByProductType",
      "outputs": [
        {
          "components": [
            {
              "internalType": "uint256",
              "name": "price",
              "type": "uint256"
            },
            {
              "internalType": "address",
              "name": "seller",
              "type": "address"
            },
            {
              "internalType": "bool",
              "name": "published",
              "type": "bool"
            },
            {
              "internalType": "string",
              "name": "productType",
              "type": "string"
            },
            {
              "internalType": "string",
              "name": "title",
              "type": "string"
            },
            {
              "internalType": "string",
              "name": "description",
              "type": "string"
            },
            {
              "internalType": "string",
              "name": "imageUrl",
              "type": "string"
            },
            {
              "internalType": "string",
              "name": "currency",
              "type": "string"
            },
            {
              "internalType": "string",
              "name": "productUrl",
              "type": "string"
            },
            {
              "internalType": "string",
              "name": "productInfo",
              "type": "string"
            },
            {
              "internalType": "string",
              "name": "productCode",
              "type": "string"
            },
            {
              "internalType": "uint256",
              "name": "nftTokenId",
              "type": "uint256"
            },
            {
              "components": [
                {
                  "internalType": "address",
                  "name": "commenter",
                  "type": "address"
                },
                {
                  "internalType": "uint256",
                  "name": "rating",
                  "type": "uint256"
                },
                {
                  "internalType": "string",
                  "name": "comment",
                  "type": "string"
                },
                {
                  "internalType": "uint256",
                  "name": "time",
                  "type": "uint256"
                },
                {
                  "internalType": "string",
                  "name": "dateString",
                  "type": "string"
                }
              ],
              "internalType": "struct MetaverseMarketplace.Comment[]",
              "name": "comments",
              "type": "tuple[]"
            },
            {
              "components": [
                {
                  "internalType": "address",
                  "name": "buyer",
                  "type": "address"
                },
                {
                  "internalType": "uint256",
                  "name": "quantity",
                  "type": "uint256"
                },
                {
                  "internalType": "uint256",
                  "name": "totalPrice",
                  "type": "uint256"
                }
              ],
              "internalType": "struct MetaverseMarketplace.Buyer[]",
              "name": "buyers",
              "type": "tuple[]"
            }
          ],
          "internalType": "struct MetaverseMarketplace.Listing[]",
          "name": "",
          "type": "tuple[]"
        }
      ],
      "stateMutability": "view",
      "type": "function"
    },
    {
      "inputs": [
        {
          "internalType": "address",
          "name": "seller",
          "type": "address"
        },
        {
          "internalType": "string",
          "name": "currency",
          "type": "string"
        }
      ],
      "name": "getProceeds",
      "outputs": [
        {
          "internalType": "uint256",
          "name": "",
          "type": "uint256"
        }
      ],
      "stateMutability": "view",
      "type": "function"
    },
    {
      "inputs": [],
      "name": "getUserListing",
      "outputs": [
        {
          "components": [
            {
              "internalType": "uint256",
              "name": "price",
              "type": "uint256"
            },
            {
              "internalType": "address",
              "name": "seller",
              "type": "address"
            },
            {
              "internalType": "bool",
              "name": "published",
              "type": "bool"
            },
            {
              "internalType": "string",
              "name": "productType",
              "type": "string"
            },
            {
              "internalType": "string",
              "name": "title",
              "type": "string"
            },
            {
              "internalType": "string",
              "name": "description",
              "type": "string"
            },
            {
              "internalType": "string",
              "name": "imageUrl",
              "type": "string"
            },
            {
              "internalType": "string",
              "name": "currency",
              "type": "string"
            },
            {
              "internalType": "string",
              "name": "productUrl",
              "type": "string"
            },
            {
              "internalType": "string",
              "name": "productInfo",
              "type": "string"
            },
            {
              "internalType": "string",
              "name": "productCode",
              "type": "string"
            },
            {
              "internalType": "uint256",
              "name": "nftTokenId",
              "type": "uint256"
            },
            {
              "components": [
                {
                  "internalType": "address",
                  "name": "commenter",
                  "type": "address"
                },
                {
                  "internalType": "uint256",
                  "name": "rating",
                  "type": "uint256"
                },
                {
                  "internalType": "string",
                  "name": "comment",
                  "type": "string"
                },
                {
                  "internalType": "uint256",
                  "name": "time",
                  "type": "uint256"
                },
                {
                  "internalType": "string",
                  "name": "dateString",
                  "type": "string"
                }
              ],
              "internalType": "struct MetaverseMarketplace.Comment[]",
              "name": "comments",
              "type": "tuple[]"
            },
            {
              "components": [
                {
                  "internalType": "address",
                  "name": "buyer",
                  "type": "address"
                },
                {
                  "internalType": "uint256",
                  "name": "quantity",
                  "type": "uint256"
                },
                {
                  "internalType": "uint256",
                  "name": "totalPrice",
                  "type": "uint256"
                }
              ],
              "internalType": "struct MetaverseMarketplace.Buyer[]",
              "name": "buyers",
              "type": "tuple[]"
            }
          ],
          "internalType": "struct MetaverseMarketplace.Listing[]",
          "name": "",
          "type": "tuple[]"
        }
      ],
      "stateMutability": "view",
      "type": "function"
    },
    {
      "inputs": [
        {
          "internalType": "address",
          "name": "profileOwner",
          "type": "address"
        }
      ],
      "name": "getUserProfile",
      "outputs": [
        {
          "components": [
            {
              "internalType": "string",
              "name": "username",
              "type": "string"
            },
            {
              "internalType": "string",
              "name": "profileImageUrl",
              "type": "string"
            }
          ],
          "internalType": "struct MetaverseMarketplace.UserProfile",
          "name": "",
          "type": "tuple"
        }
      ],
      "stateMutability": "view",
      "type": "function"
    },
    {
      "inputs": [
        {
          "internalType": "uint256",
          "name": "price",
          "type": "uint256"
        },
        {
          "internalType": "string",
          "name": "productType",
          "type": "string"
        },
        {
          "internalType": "string",
          "name": "title",
          "type": "string"
        },
        {
          "internalType": "string",
          "name": "description",
          "type": "string"
        },
        {
          "internalType": "string",
          "name": "imageUrl",
          "type": "string"
        },
        {
          "internalType": "string",
          "name": "currency",
          "type": "string"
        },
        {
          "internalType": "string",
          "name": "productUrl",
          "type": "string"
        },
        {
          "internalType": "string",
          "name": "productInfo",
          "type": "string"
        },
        {
          "internalType": "string",
          "name": "productCode",
          "type": "string"
        },
        {
          "internalType": "uint256",
          "name": "nftTokenId",
          "type": "uint256"
        }
      ],
      "name": "listItem",
      "outputs": [],
      "stateMutability": "nonpayable",
      "type": "function"
    },
    {
      "inputs": [],
      "name": "metaverseToken",
      "outputs": [
        {
          "internalType": "contract IERC20",
          "name": "",
          "type": "address"
        }
      ],
      "stateMutability": "view",
      "type": "function"
    },
    {
      "inputs": [
        {
          "internalType": "string",
          "name": "productCode",
          "type": "string"
        }
      ],
      "name": "productCodeExists",
      "outputs": [
        {
          "internalType": "bool",
          "name": "",
          "type": "bool"
        }
      ],
      "stateMutability": "view",
      "type": "function"
    },
    {
      "inputs": [
        {
          "internalType": "string",
          "name": "newUsername",
          "type": "string"
        },
        {
          "internalType": "string",
          "name": "profileImageUrl",
          "type": "string"
        }
      ],
      "name": "setUserProfile",
      "outputs": [],
      "stateMutability": "nonpayable",
      "type": "function"
    },
    {
      "inputs": [
        {
          "internalType": "string",
          "name": "productCode",
          "type": "string"
        },
        {
          "internalType": "uint256",
          "name": "price",
          "type": "uint256"
        },
        {
          "internalType": "string",
          "name": "title",
          "type": "string"
        },
        {
          "internalType": "string",
          "name": "description",
          "type": "string"
        },
        {
          "internalType": "string",
          "name": "productInfo",
          "type": "string"
        },
        {
          "internalType": "string",
          "name": "productUrl",
          "type": "string"
        },
        {
          "internalType": "string",
          "name": "imageUrl",
          "type": "string"
        }
      ],
      "name": "updateListing",
      "outputs": [],
      "stateMutability": "nonpayable",
      "type": "function"
    },
    {
      "inputs": [
        {
          "internalType": "string",
          "name": "currency",
          "type": "string"
        }
      ],
      "name": "withdrawProceeds",
      "outputs": [],
      "stateMutability": "nonpayable",
      "type": "function"
    }
  ],
  "bytecode": "0x60803461007957601f6128ab38819003918201601f19168301916001600160401b0383118484101761007e5780849260209460405283398101031261007957516001600160a01b03811690819003610079576001600055600480546001600160a01b03191691909117905560405161281690816100958239f35b600080fd5b634e487b7160e01b600052604160045260246000fdfe608060405260048036101561001357600080fd5b6000803560e01c8063016363fa14610fc15780631a13cc5914610dd25780631cad3ac514610d8f578063318bb5c714610b3d5780633829f31314610b155780637791b33014610a9557806393ec02f114610907578063987ee15614610868578063990d6459146107935780639992b606146107075780639dee74d514610664578063a39249b8146105e8578063a97ce3c214610496578063bddff4d81461045d578063d41aab23146101e65763e607a8ba146100ce57600080fd5b346101a357806003193601126101a357338152602060038152604082205442034281116101d35762015180116101bc5780829333845260038252426040852055604460018060a01b0382541691604051958693849263a9059cbb60e01b84523390840152683635c9adc5dea0000060248401525af180156101b157610177575b82337f561f98adfb5df58a7c3c03f4ada643cc46c1a5291389819dbd6d01fe490481498280a280f35b81813d83116101aa575b61018b81836112fd565b810103126101a65751801515036101a357388061014e565b80fd5b5080fd5b503d610181565b6040513d85823e3d90fd5b60405163fca47e3160e01b81523381850152602490fd5b634e487b7160e01b835260118452602483fd5b5090606090816003193601126104595780356001600160401b038111610455576102139036908301611339565b6001600160a01b0360248035828116959394919391908690036104515760449384359260028954146104405760028955885b6005548110156104325761026d88610268600961026185611620565b50016123c1565b612465565b61027f5761027a906123b2565b610245565b9495969761029561028f87611620565b506125ed565b9788519182341061040357505050508551948584029584870414841517156103f157604051956102c4876112e2565b338752602094858801526040870152838701511688526001938484526103018460408b2060e08a0151908260405194838680955193849201611385565b8201908152030190208054903482018092116103df5755600c9061032490611620565b500191825494600160401b8610156103cd5785018084558510156103bc57505086528520825160039092020180546001600160a01b0319166001600160a01b03929092169190911781556020820151600182015560409091015160029091015561038f905191612392565b337f253fcd678c758e0e03dbf3a0243701c7439c306a61158b3c522a8119772990108480a45b6001815580f35b634e487b7160e01b89526032905287fd5b50634e487b7160e01b89526041905287fd5b634e487b7160e01b8b5260118552838bfd5b50634e487b7160e01b88526011825287fd5b604051630e90db8560e31b815295860193909352849392610427606486018c6113a8565b938501528301520390fd5b5050505050505050506103b5565b604051633ee5aeb560e01b81528390fd5b8680fd5b8380fd5b8280fd5b50346101a35760203660031901126101a3576020906040906001600160a01b0361048561160a565b168152600383522054604051908152f35b5090346101a6576020806003193601126104595781356001600160401b038111610455576104c79036908401611339565b33845260018252604084206040518381845193828601946104e9818488611385565b820190815203019020549081156105d75761051c8487923384526001825260408420604051809481938951928391611385565b820190815203019020558480808084335af191823d156105d2573d6105408161131e565b9061054e60405192836112fd565b815287863d92013e5b61059d575b505015610567578280f35b60405162461bcd60e51b815291820152601060248201526f5472616e73666572206661696c65642160801b604482015260649150fd5b6105a690612392565b337ff2ca3efe12f71d386ef0fd2b75ebbef402882711943ccb42d5bdb696fa7a13418780a4388061055c565b610557565b60405163125d726b60e21b81528590fd5b5090346101a65760403660031901126101a65761060361160a565b906024356001600160401b0381116104555791604060209461062c869461065296369101611339565b6001600160a01b0390931681526001845220604051825190948593829085908701611385565b82019081520301902054604051908152f35b5090346101a65760203660031901126101a6578035906001600160401b0382116104595761069491369101611339565b600554906106a1826126db565b925b8281106106bc57604051806106b886826113cd565b0390f35b806106d28361026860026102616106db96611620565b6106e0576123b2565b6106a3565b6106ec61028f82611620565b6106f6828761278a565b52610701818661278a565b506123b2565b50346101a357806003193601126101a357600554610724816124ba565b9061073260405192836112fd565b808252600583527f036b6384b5eca791c62761152d0c79bb0604c104a5fb6f4eb0703f3154bb3db09260208084015b83831061077657604051806106b887826113cd565b600d82600192610785896125ed565b815201960192019194610761565b5090346101a65760403660031901126101a6578035906001600160401b038211610459576107c391369101611339565b602435908115159081830361045557835b600554811015610861576107f082610268600961026185611620565b610802576107fd906123b2565b6107d4565b6108399293600161081561083493611620565b5001805460ff60a01b191691151560a01b60ff60a01b16919091179055565b612392565b337f51dabe03dbc9869cdc42f327348910c055732b793c7aaade368a32d8f3658e1e8480a480f35b5050505080f35b50346101a3576020806003193601126101a6576106b86040809361088a61160a565b60608584516108988161127a565b82815201526001600160a01b031681526002845220835192906108f4906108d6906001906108c58761127a565b6108ce816123c1565b8752016123c1565b918085019283528551958695828752519186015260608501906113a8565b9051838203601f190160408501526113a8565b5090346101a65760a03660031901126101a6576001600160401b038135818111610455576109389036908401611339565b90602492833592604435838111610451576109569036908401611339565b926064359081116104515761096e9036908401611339565b926084356001600160a01b0381169390849003610a9157875b60058054821015610a85576109a487610268600961026186611620565b6109b757506109b2906123b2565b610987565b91929394959697906109ca600b91611620565b500190604051946109da866112c7565b3386526020998a8701528660408701524260608701526080860152815493600160401b851015610a745760018501808455851015610a63575050610a5693610a50937f8bb52eee1b68032569fa2c483528d7d2b7db7824b9704ee675f72029562208659693610834938c528a8c2091020161170c565b93612392565b936040519283523392a480f35b634e487b7160e01b8b526032905289fd5b634e487b7160e01b8b526041905289fd5b50505050505050505080f35b8780fd5b50346101a357806003193601126101a357600554610ab2816126db565b915b818110610ac957604051806106b885826113cd565b80610ad6610aef92611620565b50600101546001600160a01b03163314610af4576123b2565b610ab4565b610b0061028f82611620565b610b0a828661278a565b52610701818561278a565b5090346101a657816003193601126101a657546040516001600160a01b039091168152602090f35b5090346101a65760e03660031901126101a6576001600160401b03813581811161045557610b6e9036908401611339565b604435828111610d8b57610b859036908501611339565b91606435818111610d8757610b9d9036908601611339565b9360843582811161045157610bb59036908301611339565b9160a435818111610a9157610bcd9036908401611339565b9160c435918211610a9157610be491369101611339565b91865b600554811015610d7d57610c0385610268600961026185611620565b610c1557610c10906123b2565b610be7565b92939495610c2284611620565b506001908101546001600160a01b03169590610c3d86611620565b50015492610c4a86611620565b5094610c5587611620565b50610c5f88611620565b5093610c6a89611620565b50600a015495610c798a611620565b5097610c848b611620565b50996040519c610c938e6112ab565b6024358e5260208e015260ff60a092831c16151560408e0152610cb8906002016123c1565b60608d01528d60808d01528b015260c08a0152600601610cd7906123c1565b60e0890152610100880152610120870152600901610cf4906123c1565b610140860152610160850152600b01610d0c906124d1565b610180840152600c01610d1e90612570565b6101a0830152610d2d90611620565b610d37929161193c565b610d4090612392565b90610d4a90612392565b906040516024358152339060207f384c5f98880fad6ed933597fe4becd24246db16d5a262945362c7ace0a0e47b591a480f35b5050505050505080f35b8580fd5b8480fd5b50346101a35760203660031901126101a3578135906001600160401b0382116101a3576020610dc8610dc336858701611339565b61279e565b6040519015158152f35b5090346101a6576101409081600319360112610459578035906001600160401b0390602435828111610d8757610e0b9036908301611339565b9060443583811161045157610e239036908301611339565b94606435848111610a9157610e3b9036908401611339565b93608435818111610fbd57610e539036908501611339565b60a435828111610fb957610e6a9036908601611339565b60c435838111610fb557610e819036908701611339565b9160e435848111610fb157610e999036908801611339565b9361010435908111610fb157610eb29036908801611339565b978915610fa0579088959493929160405198610ecd8a6112ab565b8b8a523360208b01528d60408b015260608a01528b60808a015260a089015260c088015260e087015261010086015261012085015283015261012435610160830152606061018083015260606101a083015260055490600160401b821015610f8d5750610f4e9291610f488260016108349401600555611620565b9061193c565b917f9ec512f6157daf19471fdb4abc754cd622ce54571fda42c4c416ff378b0415836040516020815280610f87339460208301906113a8565b0390a480f35b634e487b7160e01b875260419052602486fd5b604051635ebde5f560e11b81528790fd5b8b80fd5b8a80fd5b8980fd5b8880fd5b5090346101a65760403660031901126101a6576001600160401b0390803582811161045557610ff39036908301611339565b602435838111610d8b5761100a9036908401611339565b92604051906110188261127a565b828252602091828101928684523388526002815260408820915190815184811161126757806110478554611671565b938b601f958587821161123b575b50505083908583116001146111d8578c926111cd575b50508160011b916000199060031b1c19161783555b600180930194519687519485116111ba575061109c8554611671565b828111611184575b50809184116001146111165750918080926110dc9695946110e2988b9461110b575b50501b916000199060031b1c1916179055612392565b91612392565b90337f8fb63d21cd1646c22e90408d0771d27886ed526a60064418e44b4e4a35bf6a078480a480f35b0151925038806110c6565b91939495601f198416868a52838a20938a905b82821061116d575050916110e297959391856110dc98969410611154575b505050811b019055612392565b015160001960f88460031b161c19169055388080611147565b808886978294978701518155019601940190611129565b6111ab90868b52828b208480880160051c8201928589106111b1575b0160051c01906116ab565b386110a4565b925081926111a0565b634e487b7160e01b8a5260419052602489fd5b01519050388061106b565b868d52848d209250601f1984168d5b8682821061122557505090846001959493921061120c575b505050811b018355611080565b015160001960f88460031b161c191690553880806111ff565b60018596829396860151815501950193016111e7565b828961125f9452208780860160051c8201928887106111b1570160051c01906116ab565b8b3885611055565b634e487b7160e01b8a526041885260248afd5b604081019081106001600160401b0382111761129557604052565b634e487b7160e01b600052604160045260246000fd5b6101c081019081106001600160401b0382111761129557604052565b60a081019081106001600160401b0382111761129557604052565b606081019081106001600160401b0382111761129557604052565b90601f801991011681019081106001600160401b0382111761129557604052565b6001600160401b03811161129557601f01601f191660200190565b81601f82011215611380578035906113508261131e565b9261135e60405194856112fd565b8284526020838301011161138057816000926020809301838601378301015290565b600080fd5b60005b8381106113985750506000910152565b8181015183820152602001611388565b906020916113c181518092818552858086019101611385565b601f01601f1916010190565b602081016020825282518091526040820191602060408360051b8301019401926000915b83831061140057505050505090565b9091929394603f198282030183528551908151815260018060a01b0360208301511660208201526040820151151560408201526114e76114d36114bf6114ab61149861148561147361146160608a01516101c08060608c01528a01906113a8565b60808a015189820360808b01526113a8565b60a089015188820360a08a01526113a8565b60c08089015190888303908901526113a8565b60e08088015190878303908801526113a8565b6101008087015190868303908701526113a8565b6101208086015190858303908601526113a8565b6101408085015190848303908501526113a8565b90610160808401519082015261018091828401519282820390830152825180825260208201906020808260051b85010195019260005b82811061159a5750505050506101a08093015192818303910152602080835192838152019201906000905b80821061156757505050602080600192970193019301919392906113f1565b9091926020606060019260408751858060a01b038151168352848101518584015201516040820152019401920190611548565b90919293956020806115fd600193601f198782030189528a5190858060a01b038251168152838201518482015260806115e2604084015160a0604085015260a08401906113a8565b926060810151606084015201519060808184039101526113a8565b980195019392910161151d565b600435906001600160a01b038216820361138057565b60055481101561165b57600d906005600052027f036b6384b5eca791c62761152d0c79bb0604c104a5fb6f4eb0703f3154bb3db00190600090565b634e487b7160e01b600052603260045260246000fd5b90600182811c921680156116a1575b602083101461168b57565b634e487b7160e01b600052602260045260246000fd5b91607f1691611680565b8181106116b6575050565b600081556001016116ab565b6116cc8154611671565b90816116d6575050565b81601f600093116001146116e95750555b565b908083918252611708601f60208420940160051c8401600185016116ab565b5555565b60018060a01b038251166bffffffffffffffffffffffff60a01b825416178155602080830151916001928382015560028101916040850151918251936001600160401b0394858111611295576117628254611671565b94601f9586811161190e575b5084908683116001146118a05791806004949260809694600092611895575b5050600019600383901b1c191690891b1790555b6060880151600382015501950151908151938411611295576117c38654611671565b838111611867575b508092841160011461180457509282939183926000946117f9575b50501b916000199060031b1c1916179055565b0151925038806117e6565b919083601f1981168760005284600020946000905b8883831061184d5750505010611834575b505050811b019055565b015160001960f88460031b161c1916905538808061182a565b858701518855909601959485019487935090810190611819565b61188f9087600052826000208580880160051c8201928589106111b1570160051c01906116ab565b386117cb565b01519050388061178d565b889291601f1983169185600052876000209260005b898282106118f857505091608097959391856004989694106118df575b505050811b0190556117a1565b015160001960f88460031b161c191690553880806118d2565b8385015186558d979095019493840193016118b5565b6119369084600052866000208880860160051c8201928987106111b1570160051c01906116ab565b3861176e565b919061237c57805182556020810151600183018054604084015160ff60a01b90151560a01b166001600160a01b039093166001600160a81b0319909116179190911790556002820160608201518051906001600160401b0382116112955781906119a68454611671565b601f811161234a575b50602090601f83116001146122e4576000926122d9575b50508160011b916000199060031b1c19161790555b6003820160808201518051906001600160401b038211611295578190611a018454611671565b601f81116122a7575b50602090601f831160011461224157600092612236575b50508160011b916000199060031b1c19161790555b6004820160a08201518051906001600160401b038211611295578190611a5c8454611671565b601f8111612204575b50602090601f831160011461219e57600092612193575b50508160011b916000199060031b1c19161790555b6005820160c08201518051906001600160401b038211611295578190611ab78454611671565b601f8111612161575b50602090601f83116001146120fb576000926120f0575b50508160011b916000199060031b1c19161790555b60e08101519283516001600160401b03811161129557611b0f6006850154611671565b601f81116120bb575b50602094601f821160011461204f57948192939495600092612044575b50508160011b916000199060031b1c19161760068401555b6101008201519283516001600160401b03811161129557611b716007830154611671565b601f811161200f575b506020601f8211600114611fa0578192939495600092611f95575b50508160011b916000199060031b1c19161760078201555b6101208301519283516001600160401b03811161129557611bd16008840154611671565b601f8111611f60575b506020601f8211600114611ef1578192939495600092611ee6575b50508160011b916000199060031b1c19161760088301555b600982016101408201518051906001600160401b038211611295578190611c348454611671565b601f8111611ea9575b50602090601f8311600114611e4357600092611e38575b50508160011b916000199060031b1c19161790555b610160810151600a8301556101808101518051600160401b9391600b830190858311611295578154838355808410611dcd575b506020019060005260206000206000915b838310611daf5750505050600c6101a091019101518051928311611295578154838355808410611d46575b506020019060005260206000206000915b838310611cf65750505050565b6003602082611d3a600194518690604060029160018060a01b038151166bffffffffffffffffffffffff60a01b855416178455602081015160018501550151910155565b01920192019190611ce9565b80600302906003820403611d995783600302600381048503611d995783600052602060002091820191015b818110611d7e5750611cd8565b80600060039255600060018201556000600282015501611d71565b634e487b7160e01b600052601160045260246000fd5b6005602082611dc1600194518661170c565b01920192019190611cad565b80600502906005820403611d995783600502600581048503611d995783600052602060002091820191015b818110611e055750611c9c565b8060006005925560006001820155611e1f600282016116c2565b60006003820155611e32600482016116c2565b01611df8565b015190503880611c54565b6000858152602081209350601f198516905b818110611e915750908460019594939210611e78575b505050811b019055611c69565b015160001960f88460031b161c19169055388080611e6b565b92936020600181928786015181550195019301611e55565b611ed690856000526020600020601f850160051c81019160208610611edc575b601f0160051c01906116ab565b38611c3d565b9091508190611ec9565b015190503880611bf5565b6008840160005260206000209060005b601f1984168110611f48575060019394959683601f19811610611f2f575b505050811b016008830155611c0d565b015160001960f88460031b161c19169055388080611f1f565b9091602060018192858b015181550193019101611f01565b611f8f90600885016000526020600020601f840160051c81019160208510611edc57601f0160051c01906116ab565b38611bda565b015190503880611b95565b6007830160005260206000209060005b601f1984168110611ff7575060019394959683601f19811610611fde575b505050811b016007820155611bad565b015160001960f88460031b161c19169055388080611fce565b9091602060018192858b015181550193019101611fb0565b61203e90600784016000526020600020601f840160051c81019160208510611edc57601f0160051c01906116ab565b38611b7a565b015190503880611b35565b601f198216956006860160005260206000209160005b8881106120a35750836001959697981061208a575b505050811b016006840155611b4d565b015160001960f88460031b161c1916905538808061207a565b91926020600181928685015181550194019201612065565b6120ea90600686016000526020600020601f840160051c81019160208510611edc57601f0160051c01906116ab565b38611b18565b015190503880611ad7565b6000858152602081209350601f198516905b8181106121495750908460019594939210612130575b505050811b019055611aec565b015160001960f88460031b161c19169055388080612123565b9293602060018192878601518155019501930161210d565b61218d90856000526020600020601f850160051c81019160208610611edc57601f0160051c01906116ab565b38611ac0565b015190503880611a7c565b6000858152602081209350601f198516905b8181106121ec57509084600195949392106121d3575b505050811b019055611a91565b015160001960f88460031b161c191690553880806121c6565b929360206001819287860151815501950193016121b0565b61223090856000526020600020601f850160051c81019160208610611edc57601f0160051c01906116ab565b38611a65565b015190503880611a21565b6000858152602081209350601f198516905b81811061228f5750908460019594939210612276575b505050811b019055611a36565b015160001960f88460031b161c19169055388080612269565b92936020600181928786015181550195019301612253565b6122d390856000526020600020601f850160051c81019160208610611edc57601f0160051c01906116ab565b38611a0a565b0151905038806119c6565b6000858152602081209350601f198516905b8181106123325750908460019594939210612319575b505050811b0190556119db565b015160001960f88460031b161c1916905538808061230c565b929360206001819287860151815501950193016122f6565b61237690856000526020600020601f850160051c81019160208610611edc57601f0160051c01906116ab565b386119af565b634e487b7160e01b600052600060045260246000fd5b6123aa90602060405192828480945193849201611385565b810103902090565b6000198114611d995760010190565b90604051918260008254926123d584611671565b90818452600194858116908160001461244257506001146123ff575b50506116e7925003836112fd565b9093915060005260209081600020936000915b81831061242a5750506116e7935082010138806123f1565b85548884018501529485019487945091830191612412565b9150506116e794506020925060ff191682840152151560051b82010138806123f1565b90604051916020926124938482816124868183019687815193849201611385565b81010380845201826112fd565b519020916124b36040519182816124868183019687815193849201611385565b5190201490565b6001600160401b0381116112955760051b60200190565b9081546124dd816124ba565b926040936124ed855191826112fd565b828152809460208092019260005281600020906000935b85851061251357505050505050565b6005846001928451612524816112c7565b848060a01b0387541681528487015483820152612543600288016123c1565b868201526003870154606082015261255d600488016123c1565b6080820152815201930194019391612504565b90815461257c816124ba565b9260409361258c855191826112fd565b828152809460208092019260005281600020906000935b8585106125b257505050505050565b60038460019284516125c3816112e2565b848060a01b03875416815284870154838201526002870154868201528152019301940193916125a3565b906040516125fa816112ab565b6101a06126d6600c83958054855260ff600182015460018060a01b038116602088015260a01c1615156040860152612634600282016123c1565b6060860152612645600382016123c1565b6080860152612656600482016123c1565b60a0860152612667600582016123c1565b60c0860152612678600682016123c1565b60e0860152612689600782016123c1565b61010086015261269b600882016123c1565b6101208601526126ad600982016123c1565b610140860152600a8101546101608601526126ca600b82016124d1565b61018086015201612570565b910152565b906126e5826124ba565b6040906126f4825191826112fd565b8381528093612705601f19916124ba565b019160005b8381106127175750505050565b6020908251612725816112ab565b6000815282600081830152600085830152606080808401528060808401528060a08401528060c08401528060e08401528061010084015280610120840152806101408401526000610160840152806101808401526101a083015282860101520161270a565b805182101561165b5760209160051b010190565b6005549060005b8281106127b457505050600090565b6127c682610268600961026185611620565b6127d8576127d3906123b2565b6127a5565b50505060019056fea2646970667358221220d4f1ad995200f28fbd06b492a8326e399a4648dc65976ea7a24e84dade36d7a664736f6c63430008140033",
  "linkReferences": {},
  "deployedLinkReferences": {}
}