{
  "_format": "hh-sol-artifact-1",
  "contractName": "MetaverseMarketplace",
  "sourceName": "contracts/MetaverseMarketplace.sol",
  "abi": [
    {
      "inputs": [
        {
          "internalType": "address",
          "name": "_metaverseTokenAddress",
          "type": "address"
        }
      ],
      "stateMutability": "nonpayable",
      "type": "constructor"
    },
    {
      "inputs": [
        {
          "internalType": "address",
          "name": "senderAddress",
          "type": "address"
        }
      ],
      "name": "MetaverseMarketplace__AddressLessThan1DayForMetaverseToken",
      "type": "error"
    },
    {
      "inputs": [],
      "name": "MetaverseMarketplace__NoProceeds",
      "type": "error"
    },
    {
      "inputs": [],
      "name": "MetaverseMarketplace__PriceMustBeAboveZero",
      "type": "error"
    },
    {
      "inputs": [
        {
          "internalType": "string",
          "name": "productCode",
          "type": "string"
        },
        {
          "internalType": "address",
          "name": "seller",
          "type": "address"
        },
        {
          "internalType": "uint256",
          "name": "price",
          "type": "uint256"
        }
      ],
      "name": "MetaverseMarketplace__PriceNotMet",
      "type": "error"
    },
    {
      "inputs": [],
      "name": "ReentrancyGuardReentrantCall",
      "type": "error"
    },
    {
      "anonymous": false,
      "inputs": [
        {
          "indexed": true,
          "internalType": "address",
          "name": "commenter",
          "type": "address"
        },
        {
          "indexed": true,
          "internalType": "string",
          "name": "comment",
          "type": "string"
        },
        {
          "indexed": true,
          "internalType": "string",
          "name": "productCode",
          "type": "string"
        },
        {
          "indexed": false,
          "internalType": "address",
          "name": "seller",
          "type": "address"
        }
      ],
      "name": "CommentAdded",
      "type": "event"
    },
    {
      "anonymous": false,
      "inputs": [
        {
          "indexed": true,
          "internalType": "address",
          "name": "buyer",
          "type": "address"
        },
        {
          "indexed": true,
          "internalType": "string",
          "name": "productCode",
          "type": "string"
        },
        {
          "indexed": true,
          "internalType": "uint256",
          "name": "price",
          "type": "uint256"
        }
      ],
      "name": "ItemBought",
      "type": "event"
    },
    {
      "anonymous": false,
      "inputs": [
        {
          "indexed": true,
          "internalType": "address",
          "name": "seller",
          "type": "address"
        },
        {
          "indexed": true,
          "internalType": "uint256",
          "name": "price",
          "type": "uint256"
        },
        {
          "indexed": true,
          "internalType": "string",
          "name": "productCode",
          "type": "string"
        },
        {
          "indexed": false,
          "internalType": "string",
          "name": "title",
          "type": "string"
        }
      ],
      "name": "ItemListed",
      "type": "event"
    },
    {
      "anonymous": false,
      "inputs": [
        {
          "indexed": true,
          "internalType": "address",
          "name": "seller",
          "type": "address"
        },
        {
          "indexed": true,
          "internalType": "string",
          "name": "productCode",
          "type": "string"
        },
        {
          "indexed": true,
          "internalType": "bool",
          "name": "publish",
          "type": "bool"
        }
      ],
      "name": "ItemPublished",
      "type": "event"
    },
    {
      "anonymous": false,
      "inputs": [
        {
          "indexed": true,
          "internalType": "address",
          "name": "seller",
          "type": "address"
        },
        {
          "indexed": true,
          "internalType": "string",
          "name": "productCode",
          "type": "string"
        },
        {
          "indexed": true,
          "internalType": "string",
          "name": "title",
          "type": "string"
        },
        {
          "indexed": false,
          "internalType": "uint256",
          "name": "price",
          "type": "uint256"
        }
      ],
      "name": "ListingUpdated",
      "type": "event"
    },
    {
      "anonymous": false,
      "inputs": [
        {
          "indexed": true,
          "internalType": "address",
          "name": "person",
          "type": "address"
        }
      ],
      "name": "MetaverseAirdrop",
      "type": "event"
    },
    {
      "anonymous": false,
      "inputs": [
        {
          "indexed": true,
          "internalType": "address",
          "name": "person",
          "type": "address"
        },
        {
          "indexed": true,
          "internalType": "string",
          "name": "currency",
          "type": "string"
        },
        {
          "indexed": true,
          "internalType": "uint256",
          "name": "amount",
          "type": "uint256"
        }
      ],
      "name": "ProceedsWithdrawn",
      "type": "event"
    },
    {
      "anonymous": false,
      "inputs": [
        {
          "indexed": true,
          "internalType": "address",
          "name": "owner",
          "type": "address"
        },
        {
          "indexed": true,
          "internalType": "string",
          "name": "username",
          "type": "string"
        }
      ],
      "name": "SetUsername",
      "type": "event"
    },
    {
      "inputs": [
        {
          "internalType": "string",
          "name": "comment",
          "type": "string"
        },
        {
          "internalType": "uint256",
          "name": "rating",
          "type": "uint256"
        },
        {
          "internalType": "string",
          "name": "dateString",
          "type": "string"
        },
        {
          "internalType": "string",
          "name": "productCode",
          "type": "string"
        },
        {
          "internalType": "address",
          "name": "seller",
          "type": "address"
        }
      ],
      "name": "addComment",
      "outputs": [],
      "stateMutability": "nonpayable",
      "type": "function"
    },
    {
      "inputs": [
        {
          "internalType": "address",
          "name": "",
          "type": "address"
        }
      ],
      "name": "addressToLastGetMetaverseToken",
      "outputs": [
        {
          "internalType": "uint256",
          "name": "",
          "type": "uint256"
        }
      ],
      "stateMutability": "view",
      "type": "function"
    },
    {
      "inputs": [
        {
          "internalType": "string",
          "name": "productCode",
          "type": "string"
        },
        {
          "internalType": "address",
          "name": "seller",
          "type": "address"
        },
        {
          "internalType": "uint256",
          "name": "quantity",
          "type": "uint256"
        }
      ],
      "name": "buyItem",
      "outputs": [],
      "stateMutability": "payable",
      "type": "function"
    },
    {
      "inputs": [
        {
          "internalType": "string",
          "name": "productCode",
          "type": "string"
        },
        {
          "internalType": "bool",
          "name": "publish",
          "type": "bool"
        }
      ],
      "name": "changeListingVisibility",
      "outputs": [],
      "stateMutability": "nonpayable",
      "type": "function"
    },
    {
      "inputs": [],
      "name": "get1000MetaverseToken",
      "outputs": [],
      "stateMutability": "nonpayable",
      "type": "function"
    },
    {
      "inputs": [],
      "name": "getAllUserListings",
      "outputs": [
        {
          "components": [
            {
              "internalType": "uint256",
              "name": "price",
              "type": "uint256"
            },
            {
              "internalType": "address",
              "name": "seller",
              "type": "address"
            },
            {
              "internalType": "bool",
              "name": "published",
              "type": "bool"
            },
            {
              "internalType": "string",
              "name": "productType",
              "type": "string"
            },
            {
              "internalType": "string",
              "name": "title",
              "type": "string"
            },
            {
              "internalType": "string",
              "name": "description",
              "type": "string"
            },
            {
              "internalType": "string",
              "name": "imageUrl",
              "type": "string"
            },
            {
              "internalType": "string",
              "name": "currency",
              "type": "string"
            },
            {
              "internalType": "string",
              "name": "productUrl",
              "type": "string"
            },
            {
              "internalType": "string",
              "name": "productInfo",
              "type": "string"
            },
            {
              "internalType": "string",
              "name": "productCode",
              "type": "string"
            },
            {
              "internalType": "uint256",
              "name": "nftTokenId",
              "type": "uint256"
            },
            {
              "components": [
                {
                  "internalType": "address",
                  "name": "commenter",
                  "type": "address"
                },
                {
                  "internalType": "uint256",
                  "name": "rating",
                  "type": "uint256"
                },
                {
                  "internalType": "string",
                  "name": "comment",
                  "type": "string"
                },
                {
                  "internalType": "uint256",
                  "name": "time",
                  "type": "uint256"
                },
                {
                  "internalType": "string",
                  "name": "dateString",
                  "type": "string"
                }
              ],
              "internalType": "struct MetaverseMarketplace.Comment[]",
              "name": "comments",
              "type": "tuple[]"
            },
            {
              "components": [
                {
                  "internalType": "address",
                  "name": "buyer",
                  "type": "address"
                },
                {
                  "internalType": "uint256",
                  "name": "quantity",
                  "type": "uint256"
                },
                {
                  "internalType": "uint256",
                  "name": "totalPrice",
                  "type": "uint256"
                }
              ],
              "internalType": "struct MetaverseMarketplace.Buyer[]",
              "name": "buyers",
              "type": "tuple[]"
            }
          ],
          "internalType": "struct MetaverseMarketplace.Listing[]",
          "name": "",
          "type": "tuple[]"
        }
      ],
      "stateMutability": "view",
      "type": "function"
    },
    {
      "inputs": [
        {
          "internalType": "string",
          "name": "productType",
          "type": "string"
        }
      ],
      "name": "getListingByProductType",
      "outputs": [
        {
          "components": [
            {
              "internalType": "uint256",
              "name": "price",
              "type": "uint256"
            },
            {
              "internalType": "address",
              "name": "seller",
              "type": "address"
            },
            {
              "internalType": "bool",
              "name": "published",
              "type": "bool"
            },
            {
              "internalType": "string",
              "name": "productType",
              "type": "string"
            },
            {
              "internalType": "string",
              "name": "title",
              "type": "string"
            },
            {
              "internalType": "string",
              "name": "description",
              "type": "string"
            },
            {
              "internalType": "string",
              "name": "imageUrl",
              "type": "string"
            },
            {
              "internalType": "string",
              "name": "currency",
              "type": "string"
            },
            {
              "internalType": "string",
              "name": "productUrl",
              "type": "string"
            },
            {
              "internalType": "string",
              "name": "productInfo",
              "type": "string"
            },
            {
              "internalType": "string",
              "name": "productCode",
              "type": "string"
            },
            {
              "internalType": "uint256",
              "name": "nftTokenId",
              "type": "uint256"
            },
            {
              "components": [
                {
                  "internalType": "address",
                  "name": "commenter",
                  "type": "address"
                },
                {
                  "internalType": "uint256",
                  "name": "rating",
                  "type": "uint256"
                },
                {
                  "internalType": "string",
                  "name": "comment",
                  "type": "string"
                },
                {
                  "internalType": "uint256",
                  "name": "time",
                  "type": "uint256"
                },
                {
                  "internalType": "string",
                  "name": "dateString",
                  "type": "string"
                }
              ],
              "internalType": "struct MetaverseMarketplace.Comment[]",
              "name": "comments",
              "type": "tuple[]"
            },
            {
              "components": [
                {
                  "internalType": "address",
                  "name": "buyer",
                  "type": "address"
                },
                {
                  "internalType": "uint256",
                  "name": "quantity",
                  "type": "uint256"
                },
                {
                  "internalType": "uint256",
                  "name": "totalPrice",
                  "type": "uint256"
                }
              ],
              "internalType": "struct MetaverseMarketplace.Buyer[]",
              "name": "buyers",
              "type": "tuple[]"
            }
          ],
          "internalType": "struct MetaverseMarketplace.Listing[]",
          "name": "",
          "type": "tuple[]"
        }
      ],
      "stateMutability": "view",
      "type": "function"
    },
    {
      "inputs": [
        {
          "internalType": "address",
          "name": "seller",
          "type": "address"
        },
        {
          "internalType": "string",
          "name": "currency",
          "type": "string"
        }
      ],
      "name": "getProceeds",
      "outputs": [
        {
          "internalType": "uint256",
          "name": "",
          "type": "uint256"
        }
      ],
      "stateMutability": "view",
      "type": "function"
    },
    {
      "inputs": [],
      "name": "getUserListing",
      "outputs": [
        {
          "components": [
            {
              "internalType": "uint256",
              "name": "price",
              "type": "uint256"
            },
            {
              "internalType": "address",
              "name": "seller",
              "type": "address"
            },
            {
              "internalType": "bool",
              "name": "published",
              "type": "bool"
            },
            {
              "internalType": "string",
              "name": "productType",
              "type": "string"
            },
            {
              "internalType": "string",
              "name": "title",
              "type": "string"
            },
            {
              "internalType": "string",
              "name": "description",
              "type": "string"
            },
            {
              "internalType": "string",
              "name": "imageUrl",
              "type": "string"
            },
            {
              "internalType": "string",
              "name": "currency",
              "type": "string"
            },
            {
              "internalType": "string",
              "name": "productUrl",
              "type": "string"
            },
            {
              "internalType": "string",
              "name": "productInfo",
              "type": "string"
            },
            {
              "internalType": "string",
              "name": "productCode",
              "type": "string"
            },
            {
              "internalType": "uint256",
              "name": "nftTokenId",
              "type": "uint256"
            },
            {
              "components": [
                {
                  "internalType": "address",
                  "name": "commenter",
                  "type": "address"
                },
                {
                  "internalType": "uint256",
                  "name": "rating",
                  "type": "uint256"
                },
                {
                  "internalType": "string",
                  "name": "comment",
                  "type": "string"
                },
                {
                  "internalType": "uint256",
                  "name": "time",
                  "type": "uint256"
                },
                {
                  "internalType": "string",
                  "name": "dateString",
                  "type": "string"
                }
              ],
              "internalType": "struct MetaverseMarketplace.Comment[]",
              "name": "comments",
              "type": "tuple[]"
            },
            {
              "components": [
                {
                  "internalType": "address",
                  "name": "buyer",
                  "type": "address"
                },
                {
                  "internalType": "uint256",
                  "name": "quantity",
                  "type": "uint256"
                },
                {
                  "internalType": "uint256",
                  "name": "totalPrice",
                  "type": "uint256"
                }
              ],
              "internalType": "struct MetaverseMarketplace.Buyer[]",
              "name": "buyers",
              "type": "tuple[]"
            }
          ],
          "internalType": "struct MetaverseMarketplace.Listing[]",
          "name": "",
          "type": "tuple[]"
        }
      ],
      "stateMutability": "view",
      "type": "function"
    },
    {
      "inputs": [],
      "name": "getUsername",
      "outputs": [
        {
          "internalType": "string",
          "name": "",
          "type": "string"
        }
      ],
      "stateMutability": "view",
      "type": "function"
    },
    {
      "inputs": [
        {
          "internalType": "uint256",
          "name": "price",
          "type": "uint256"
        },
        {
          "internalType": "string",
          "name": "productType",
          "type": "string"
        },
        {
          "internalType": "string",
          "name": "title",
          "type": "string"
        },
        {
          "internalType": "string",
          "name": "description",
          "type": "string"
        },
        {
          "internalType": "string",
          "name": "imageUrl",
          "type": "string"
        },
        {
          "internalType": "string",
          "name": "currency",
          "type": "string"
        },
        {
          "internalType": "string",
          "name": "productUrl",
          "type": "string"
        },
        {
          "internalType": "string",
          "name": "productInfo",
          "type": "string"
        },
        {
          "internalType": "string",
          "name": "productCode",
          "type": "string"
        },
        {
          "internalType": "uint256",
          "name": "nftTokenId",
          "type": "uint256"
        }
      ],
      "name": "listItem",
      "outputs": [],
      "stateMutability": "nonpayable",
      "type": "function"
    },
    {
      "inputs": [],
      "name": "metaverseToken",
      "outputs": [
        {
          "internalType": "contract IERC20",
          "name": "",
          "type": "address"
        }
      ],
      "stateMutability": "view",
      "type": "function"
    },
    {
      "inputs": [
        {
          "internalType": "string",
          "name": "productCode",
          "type": "string"
        }
      ],
      "name": "productCodeExists",
      "outputs": [
        {
          "internalType": "bool",
          "name": "",
          "type": "bool"
        }
      ],
      "stateMutability": "view",
      "type": "function"
    },
    {
      "inputs": [
        {
          "internalType": "string",
          "name": "newUsername",
          "type": "string"
        }
      ],
      "name": "setUsername",
      "outputs": [],
      "stateMutability": "nonpayable",
      "type": "function"
    },
    {
      "inputs": [
        {
          "internalType": "string",
          "name": "productCode",
          "type": "string"
        },
        {
          "internalType": "uint256",
          "name": "price",
          "type": "uint256"
        },
        {
          "internalType": "string",
          "name": "title",
          "type": "string"
        },
        {
          "internalType": "string",
          "name": "description",
          "type": "string"
        },
        {
          "internalType": "string",
          "name": "productInfo",
          "type": "string"
        },
        {
          "internalType": "string",
          "name": "productUrl",
          "type": "string"
        },
        {
          "internalType": "string",
          "name": "imageUrl",
          "type": "string"
        }
      ],
      "name": "updateListing",
      "outputs": [],
      "stateMutability": "nonpayable",
      "type": "function"
    },
    {
      "inputs": [
        {
          "internalType": "string",
          "name": "currency",
          "type": "string"
        }
      ],
      "name": "withdrawProceeds",
      "outputs": [],
      "stateMutability": "nonpayable",
      "type": "function"
    }
  ],
  "bytecode": "0x60803461007957601f6126e938819003918201601f19168301916001600160401b0383118484101761007e5780849260209460405283398101031261007957516001600160a01b03811690819003610079576001600055600480546001600160a01b03191691909117905560405161265490816100958239f35b600080fd5b634e487b7160e01b600052604160045260246000fdfe608060405260048036101561001357600080fd5b6000803560e01c80631a13cc5914610ee55780631cad3ac514610ea2578063318bb5c714610c505780633829f31314610c28578063681f3e6d14610bec5780637791b33014610b6c57806393ec02f1146109de578063990d6459146109095780639992b6061461087d5780639dee74d5146107da578063a39249b81461075e578063a97ce3c21461060c578063bddff4d8146105d3578063d41aab2314610360578063e607a8ba1461024e5763ed59313a146100ce57600080fd5b3461024b57602080600319360112610247576001600160401b03928035848111610243576100ff9036908301611178565b913384526002815260408420918351958611610230575061012082546114b0565b601f81116101f7575b5080601f861160011461019057509380849561015d9591610185575b508160011b916000199060031b1c19161790556121d0565b337fcfa484be7b1d89ac1b8203c2067a8efdffde3d5e5ec8a446cf9c54cb01c7e20b8380a380f35b905083015138610145565b90601f1986168386528286209286905b8282106101df57505091869161015d9697600194106101c6575b5050811b0190556121d0565b85015160001960f88460031b161c1916905538806101ba565b80600185968294968a015181550195019301906101a0565b61022090838652828620601f880160051c810191848910610226575b601f0160051c01906114ea565b38610129565b9091508190610213565b634e487b7160e01b855260419052602484fd5b8380fd5b5080fd5b80fd5b503461024b578060031936011261024b573381526020600381526040822054420342811161034d5762015180116103365780829333845260038252426040852055604460018060a01b0382541691604051958693849263a9059cbb60e01b84523390840152683635c9adc5dea0000060248401525af1801561032b576102f8575b82337f561f98adfb5df58a7c3c03f4ada643cc46c1a5291389819dbd6d01fe490481498280a280f35b81813d8311610324575b61030c818361113c565b8101031261024757518015150361024b5738806102cf565b503d610302565b6040513d85823e3d90fd5b60405163fca47e3160e01b81523381850152602490fd5b634e487b7160e01b835260118452602483fd5b5090606090816003193601126105cf5780356001600160401b0381116102435761038d9036908301611178565b6001600160a01b0360248035828116959394919391908690036105cb5760449384359260028954146105ba5760028955885b6005548110156105ac576103e7886103e260096103db8561145f565b50016121ff565b6122a3565b6103f9576103f4906121f0565b6103bf565b9495969761040f6104098761145f565b5061242b565b9788519182341061057d575050505085519485840295848704148415171561056b576040519561043e87611121565b3387526020948588015260408701528387015116885260019384845261047b8460408b2060e08a01519082604051948386809551938492016111c4565b8201908152030190208054903482018092116105595755600c9061049e9061145f565b500191825494600160401b86101561054757850180845585101561053657505086528520825160039092020180546001600160a01b0319166001600160a01b0392909216919091178155602082015160018201556040909101516002909101556105099051916121d0565b337f253fcd678c758e0e03dbf3a0243701c7439c306a61158b3c522a8119772990108480a45b6001815580f35b634e487b7160e01b89526032905287fd5b50634e487b7160e01b89526041905287fd5b634e487b7160e01b8b5260118552838bfd5b50634e487b7160e01b88526011825287fd5b604051630e90db8560e31b8152958601939093528493926105a1606486018c6111e7565b938501528301520390fd5b50505050505050505061052f565b604051633ee5aeb560e01b81528390fd5b8680fd5b8280fd5b503461024b57602036600319011261024b576020906040906001600160a01b036105fb611449565b168152600383522054604051908152f35b509034610247576020806003193601126105cf5781356001600160401b0381116102435761063d9036908401611178565b338452600182526040842060405183818451938286019461065f8184886111c4565b8201908152030190205490811561074d5761069284879233845260018252604084206040518094819389519283916111c4565b820190815203019020558480808084335af191823d15610748573d6106b68161115d565b906106c4604051928361113c565b815287863d92013e5b610713575b5050156106dd578280f35b60405162461bcd60e51b815291820152601060248201526f5472616e73666572206661696c65642160801b604482015260649150fd5b61071c906121d0565b337ff2ca3efe12f71d386ef0fd2b75ebbef402882711943ccb42d5bdb696fa7a13418780a438806106d2565b6106cd565b60405163125d726b60e21b81528590fd5b50903461024757604036600319011261024757610779611449565b906024356001600160401b038111610243579160406020946107a286946107c896369101611178565b6001600160a01b03909316815260018452206040518251909485938290859087016111c4565b82019081520301902054604051908152f35b509034610247576020366003190112610247578035906001600160401b0382116105cf5761080a91369101611178565b6005549061081782612519565b925b828110610832576040518061082e868261120c565b0390f35b80610848836103e260026103db6108519661145f565b610856576121f0565b610819565b6108626104098261145f565b61086c82876125c8565b5261087781866125c8565b506121f0565b503461024b578060031936011261024b5760055461089a816122f8565b906108a8604051928361113c565b808252600583527f036b6384b5eca791c62761152d0c79bb0604c104a5fb6f4eb0703f3154bb3db09260208084015b8383106108ec576040518061082e878261120c565b600d826001926108fb8961242b565b8152019601920191946108d7565b509034610247576040366003190112610247578035906001600160401b0382116105cf5761093991369101611178565b602435908115159081830361024357835b6005548110156109d757610966826103e260096103db8561145f565b61097857610973906121f0565b61094a565b6109af9293600161098b6109aa9361145f565b5001805460ff60a01b191691151560a01b60ff60a01b16919091179055565b6121d0565b337f51dabe03dbc9869cdc42f327348910c055732b793c7aaade368a32d8f3658e1e8480a480f35b5050505080f35b5090346102475760a0366003190112610247576001600160401b03813581811161024357610a0f9036908401611178565b906024928335926044358381116105cb57610a2d9036908401611178565b926064359081116105cb57610a459036908401611178565b926084356001600160a01b0381169390849003610b6857875b60058054821015610b5c57610a7b876103e260096103db8661145f565b610a8e5750610a89906121f0565b610a5e565b9192939495969790610aa1600b9161145f565b50019060405194610ab186611106565b3386526020998a8701528660408701524260608701526080860152815493600160401b851015610b4b5760018501808455851015610b3a575050610b2d93610b27937f8bb52eee1b68032569fa2c483528d7d2b7db7824b9704ee675f720295622086596936109aa938c528a8c2091020161154b565b936121d0565b936040519283523392a480f35b634e487b7160e01b8b526032905289fd5b634e487b7160e01b8b526041905289fd5b50505050505050505080f35b8780fd5b503461024b578060031936011261024b57600554610b8981612519565b915b818110610ba0576040518061082e858261120c565b80610bad610bc69261145f565b50600101546001600160a01b03163314610bcb576121f0565b610b8b565b610bd76104098261145f565b610be182866125c8565b5261087781856125c8565b503461024b578060031936011261024b57610c14604061082e923381526002602052206121ff565b6040519182916020835260208301906111e7565b509034610247578160031936011261024757546040516001600160a01b039091168152602090f35b5090346102475760e0366003190112610247576001600160401b03813581811161024357610c819036908401611178565b604435828111610e9e57610c989036908501611178565b91606435818111610e9a57610cb09036908601611178565b936084358281116105cb57610cc89036908301611178565b9160a435818111610b6857610ce09036908401611178565b9160c435918211610b6857610cf791369101611178565b91865b600554811015610e9057610d16856103e260096103db8561145f565b610d2857610d23906121f0565b610cfa565b92939495610d358461145f565b506001908101546001600160a01b03169590610d508661145f565b50015492610d5d8661145f565b5094610d688761145f565b50610d728861145f565b5093610d7d8961145f565b50600a015495610d8c8a61145f565b5097610d978b61145f565b50996040519c610da68e6110d4565b6024358e5260208e015260ff60a092831c16151560408e0152610dcb906002016121ff565b60608d01528d60808d01528b015260c08a0152600601610dea906121ff565b60e0890152610100880152610120870152600901610e07906121ff565b610140860152610160850152600b01610e1f9061230f565b610180840152600c01610e31906123ae565b6101a0830152610e409061145f565b610e4a9291611785565b610e53906121d0565b90610e5d906121d0565b906040516024358152339060207f384c5f98880fad6ed933597fe4becd24246db16d5a262945362c7ace0a0e47b591a480f35b5050505050505080f35b8580fd5b8480fd5b503461024b57602036600319011261024b578135906001600160401b03821161024b576020610edb610ed636858701611178565b6125dc565b6040519015158152f35b5090346102475761014090816003193601126105cf578035906001600160401b0390602435828111610e9a57610f1e9036908301611178565b906044358381116105cb57610f369036908301611178565b94606435848111610b6857610f4e9036908401611178565b936084358181116110d057610f669036908501611178565b60a4358281116110cc57610f7d9036908601611178565b60c4358381116110c857610f949036908701611178565b9160e4358481116110c457610fac9036908801611178565b93610104359081116110c457610fc59036908801611178565b9789156110b3579088959493929160405198610fe08a6110d4565b8b8a523360208b01528d60408b015260608a01528b60808a015260a089015260c088015260e087015261010086015261012085015283015261012435610160830152606061018083015260606101a083015260055490600160401b8210156110a05750611061929161105b8260016109aa940160055561145f565b90611785565b917f9ec512f6157daf19471fdb4abc754cd622ce54571fda42c4c416ff378b041583604051602081528061109a339460208301906111e7565b0390a480f35b634e487b7160e01b875260419052602486fd5b604051635ebde5f560e11b81528790fd5b8b80fd5b8a80fd5b8980fd5b8880fd5b6101c081019081106001600160401b038211176110f057604052565b634e487b7160e01b600052604160045260246000fd5b60a081019081106001600160401b038211176110f057604052565b606081019081106001600160401b038211176110f057604052565b90601f801991011681019081106001600160401b038211176110f057604052565b6001600160401b0381116110f057601f01601f191660200190565b81601f820112156111bf5780359061118f8261115d565b9261119d604051948561113c565b828452602083830101116111bf57816000926020809301838601378301015290565b600080fd5b60005b8381106111d75750506000910152565b81810151838201526020016111c7565b90602091611200815180928185528580860191016111c4565b601f01601f1916010190565b602081016020825282518091526040820191602060408360051b8301019401926000915b83831061123f57505050505090565b9091929394603f198282030183528551908151815260018060a01b0360208301511660208201526040820151151560408201526113266113126112fe6112ea6112d76112c46112b26112a060608a01516101c08060608c01528a01906111e7565b60808a015189820360808b01526111e7565b60a089015188820360a08a01526111e7565b60c08089015190888303908901526111e7565b60e08088015190878303908801526111e7565b6101008087015190868303908701526111e7565b6101208086015190858303908601526111e7565b6101408085015190848303908501526111e7565b90610160808401519082015261018091828401519282820390830152825180825260208201906020808260051b85010195019260005b8281106113d95750505050506101a08093015192818303910152602080835192838152019201906000905b8082106113a65750505060208060019297019301930191939290611230565b9091926020606060019260408751858060a01b038151168352848101518584015201516040820152019401920190611387565b909192939560208061143c600193601f198782030189528a5190858060a01b03825116815283820151848201526080611421604084015160a0604085015260a08401906111e7565b926060810151606084015201519060808184039101526111e7565b980195019392910161135c565b600435906001600160a01b03821682036111bf57565b60055481101561149a57600d906005600052027f036b6384b5eca791c62761152d0c79bb0604c104a5fb6f4eb0703f3154bb3db00190600090565b634e487b7160e01b600052603260045260246000fd5b90600182811c921680156114e0575b60208310146114ca57565b634e487b7160e01b600052602260045260246000fd5b91607f16916114bf565b8181106114f5575050565b600081556001016114ea565b61150b81546114b0565b9081611515575050565b81601f600093116001146115285750555b565b908083918252611547601f60208420940160051c8401600185016114ea565b5555565b60018060a01b038251166bffffffffffffffffffffffff60a01b825416178155602080830151916001928382015560028101916040850151918251936001600160401b03948581116110f0576115a182546114b0565b94601f95868111611757575b5084908683116001146116e957918060049492608096946000926116de575b5050600019600383901b1c191690891b1790555b60608801516003820155019501519081519384116110f05761160286546114b0565b8381116116a6575b50809284116001146116435750928293918392600094611638575b50501b916000199060031b1c1916179055565b015192503880611625565b919083601f1981168760005284600020946000905b8883831061168c5750505010611673575b505050811b019055565b015160001960f88460031b161c19169055388080611669565b858701518855909601959485019487935090810190611658565b6116cf9087600052826000208580880160051c8201928589106116d5575b0160051c01906114ea565b3861160a565b925081926116c4565b0151905038806115cc565b889291601f1983169185600052876000209260005b898282106117415750509160809795939185600498969410611728575b505050811b0190556115e0565b015160001960f88460031b161c1916905538808061171b565b8385015186558d979095019493840193016116fe565b61177f9084600052866000208880860160051c8201928987106116d5570160051c01906114ea565b386115ad565b91906121ba57805182556020810151600183018054604084015160ff60a01b90151560a01b166001600160a01b039093166001600160a81b0319909116179190911790556002820160608201518051906001600160401b0382116110f05781906117ef84546114b0565b601f8111612188575b50602090601f831160011461212257600092612117575b50508160011b916000199060031b1c19161790555b6003820160808201518051906001600160401b0382116110f057819061184a84546114b0565b601f81116120e5575b50602090601f831160011461207f57600092612074575b50508160011b916000199060031b1c19161790555b6004820160a08201518051906001600160401b0382116110f05781906118a584546114b0565b601f8111612042575b50602090601f8311600114611fdc57600092611fd1575b50508160011b916000199060031b1c19161790555b6005820160c08201518051906001600160401b0382116110f057819061190084546114b0565b601f8111611f9f575b50602090601f8311600114611f3957600092611f2e575b50508160011b916000199060031b1c19161790555b60e08101519283516001600160401b0381116110f05761195860068501546114b0565b601f8111611ef9575b50602094601f8211600114611e8d57948192939495600092611e82575b50508160011b916000199060031b1c19161760068401555b6101008201519283516001600160401b0381116110f0576119ba60078301546114b0565b601f8111611e4d575b506020601f8211600114611dde578192939495600092611dd3575b50508160011b916000199060031b1c19161760078201555b6101208301519283516001600160401b0381116110f057611a1a60088401546114b0565b601f8111611d9e575b506020601f8211600114611d2f578192939495600092611d24575b50508160011b916000199060031b1c19161760088301555b600982016101408201518051906001600160401b0382116110f0578190611a7d84546114b0565b601f8111611cf2575b50602090601f8311600114611c8c57600092611c81575b50508160011b916000199060031b1c19161790555b610160810151600a8301556101808101518051600160401b9391600b8301908583116110f0578154838355808410611c16575b506020019060005260206000206000915b838310611bf85750505050600c6101a0910191015180519283116110f0578154838355808410611b8f575b506020019060005260206000206000915b838310611b3f5750505050565b6003602082611b83600194518690604060029160018060a01b038151166bffffffffffffffffffffffff60a01b855416178455602081015160018501550151910155565b01920192019190611b32565b80600302906003820403611be25783600302600381048503611be25783600052602060002091820191015b818110611bc75750611b21565b80600060039255600060018201556000600282015501611bba565b634e487b7160e01b600052601160045260246000fd5b6005602082611c0a600194518661154b565b01920192019190611af6565b80600502906005820403611be25783600502600581048503611be25783600052602060002091820191015b818110611c4e5750611ae5565b8060006005925560006001820155611c6860028201611501565b60006003820155611c7b60048201611501565b01611c41565b015190503880611a9d565b6000858152602081209350601f198516905b818110611cda5750908460019594939210611cc1575b505050811b019055611ab2565b015160001960f88460031b161c19169055388080611cb4565b92936020600181928786015181550195019301611c9e565b611d1e90856000526020600020601f850160051c8101916020861061022657601f0160051c01906114ea565b38611a86565b015190503880611a3e565b6008840160005260206000209060005b601f1984168110611d86575060019394959683601f19811610611d6d575b505050811b016008830155611a56565b015160001960f88460031b161c19169055388080611d5d565b9091602060018192858b015181550193019101611d3f565b611dcd90600885016000526020600020601f840160051c8101916020851061022657601f0160051c01906114ea565b38611a23565b0151905038806119de565b6007830160005260206000209060005b601f1984168110611e35575060019394959683601f19811610611e1c575b505050811b0160078201556119f6565b015160001960f88460031b161c19169055388080611e0c565b9091602060018192858b015181550193019101611dee565b611e7c90600784016000526020600020601f840160051c8101916020851061022657601f0160051c01906114ea565b386119c3565b01519050388061197e565b601f198216956006860160005260206000209160005b888110611ee157508360019596979810611ec8575b505050811b016006840155611996565b015160001960f88460031b161c19169055388080611eb8565b91926020600181928685015181550194019201611ea3565b611f2890600686016000526020600020601f840160051c8101916020851061022657601f0160051c01906114ea565b38611961565b015190503880611920565b6000858152602081209350601f198516905b818110611f875750908460019594939210611f6e575b505050811b019055611935565b015160001960f88460031b161c19169055388080611f61565b92936020600181928786015181550195019301611f4b565b611fcb90856000526020600020601f850160051c8101916020861061022657601f0160051c01906114ea565b38611909565b0151905038806118c5565b6000858152602081209350601f198516905b81811061202a5750908460019594939210612011575b505050811b0190556118da565b015160001960f88460031b161c19169055388080612004565b92936020600181928786015181550195019301611fee565b61206e90856000526020600020601f850160051c8101916020861061022657601f0160051c01906114ea565b386118ae565b01519050388061186a565b6000858152602081209350601f198516905b8181106120cd57509084600195949392106120b4575b505050811b01905561187f565b015160001960f88460031b161c191690553880806120a7565b92936020600181928786015181550195019301612091565b61211190856000526020600020601f850160051c8101916020861061022657601f0160051c01906114ea565b38611853565b01519050388061180f565b6000858152602081209350601f198516905b8181106121705750908460019594939210612157575b505050811b019055611824565b015160001960f88460031b161c1916905538808061214a565b92936020600181928786015181550195019301612134565b6121b490856000526020600020601f850160051c8101916020861061022657601f0160051c01906114ea565b386117f8565b634e487b7160e01b600052600060045260246000fd5b6121e8906020604051928284809451938492016111c4565b810103902090565b6000198114611be25760010190565b9060405191826000825492612213846114b0565b908184526001948581169081600014612280575060011461223d575b50506115269250038361113c565b9093915060005260209081600020936000915b8183106122685750506115269350820101388061222f565b85548884018501529485019487945091830191612250565b91505061152694506020925060ff191682840152151560051b820101388061222f565b90604051916020926122d18482816122c481830196878151938492016111c4565b810103808452018261113c565b519020916122f16040519182816122c481830196878151938492016111c4565b5190201490565b6001600160401b0381116110f05760051b60200190565b90815461231b816122f8565b9260409361232b8551918261113c565b828152809460208092019260005281600020906000935b85851061235157505050505050565b600584600192845161236281611106565b848060a01b0387541681528487015483820152612381600288016121ff565b868201526003870154606082015261239b600488016121ff565b6080820152815201930194019391612342565b9081546123ba816122f8565b926040936123ca8551918261113c565b828152809460208092019260005281600020906000935b8585106123f057505050505050565b600384600192845161240181611121565b848060a01b03875416815284870154838201526002870154868201528152019301940193916123e1565b90604051612438816110d4565b6101a0612514600c83958054855260ff600182015460018060a01b038116602088015260a01c1615156040860152612472600282016121ff565b6060860152612483600382016121ff565b6080860152612494600482016121ff565b60a08601526124a5600582016121ff565b60c08601526124b6600682016121ff565b60e08601526124c7600782016121ff565b6101008601526124d9600882016121ff565b6101208601526124eb600982016121ff565b610140860152600a810154610160860152612508600b820161230f565b610180860152016123ae565b910152565b90612523826122f8565b6040906125328251918261113c565b8381528093612543601f19916122f8565b019160005b8381106125555750505050565b6020908251612563816110d4565b6000815282600081830152600085830152606080808401528060808401528060a08401528060c08401528060e08401528061010084015280610120840152806101408401526000610160840152806101808401526101a0830152828601015201612548565b805182101561149a5760209160051b010190565b6005549060005b8281106125f257505050600090565b612604826103e260096103db8561145f565b61261657612611906121f0565b6125e3565b50505060019056fea2646970667358221220f8441f7237da9b5c6817f0d301c646a6360d4c8b3fa98ca2ed84fcc0c8aa193d64736f6c63430008140033",
  "linkReferences": {},
  "deployedLinkReferences": {}
}