{
  "_format": "hh-sol-artifact-1",
  "contractName": "MetaverseMarketplace",
  "sourceName": "contracts/MetaverseMarketplace.sol",
  "abi": [
    {
      "inputs": [
        {
          "internalType": "address",
          "name": "_metaverseTokenAddress",
          "type": "address"
        }
      ],
      "stateMutability": "nonpayable",
      "type": "constructor"
    },
    {
      "inputs": [
        {
          "internalType": "address",
          "name": "senderAddress",
          "type": "address"
        }
      ],
      "name": "MetaverseMarketplace__AddressLessThan1DayForMetaverseToken",
      "type": "error"
    },
    {
      "inputs": [
        {
          "internalType": "address",
          "name": "nftAddress",
          "type": "address"
        },
        {
          "internalType": "uint256",
          "name": "tokenId",
          "type": "uint256"
        }
      ],
      "name": "MetaverseMarketplace__AlreadyListed",
      "type": "error"
    },
    {
      "inputs": [],
      "name": "MetaverseMarketplace__NoProceeds",
      "type": "error"
    },
    {
      "inputs": [],
      "name": "MetaverseMarketplace__NotApprovedForMarketplace",
      "type": "error"
    },
    {
      "inputs": [
        {
          "internalType": "address",
          "name": "nftAddress",
          "type": "address"
        },
        {
          "internalType": "uint256",
          "name": "tokenId",
          "type": "uint256"
        }
      ],
      "name": "MetaverseMarketplace__NotListed",
      "type": "error"
    },
    {
      "inputs": [],
      "name": "MetaverseMarketplace__NotOwner",
      "type": "error"
    },
    {
      "inputs": [],
      "name": "MetaverseMarketplace__PriceMustBeAboveZero",
      "type": "error"
    },
    {
      "inputs": [
        {
          "internalType": "address",
          "name": "nftAddress",
          "type": "address"
        },
        {
          "internalType": "uint256",
          "name": "tokenId",
          "type": "uint256"
        },
        {
          "internalType": "uint256",
          "name": "price",
          "type": "uint256"
        }
      ],
      "name": "MetaverseMarketplace__PriceNotMet",
      "type": "error"
    },
    {
      "inputs": [],
      "name": "MetaverseMarketplace__TheOwner",
      "type": "error"
    },
    {
      "inputs": [],
      "name": "ReentrancyGuardReentrantCall",
      "type": "error"
    },
    {
      "anonymous": false,
      "inputs": [
        {
          "indexed": true,
          "internalType": "address",
          "name": "buyer",
          "type": "address"
        },
        {
          "indexed": true,
          "internalType": "address",
          "name": "nftAddress",
          "type": "address"
        },
        {
          "indexed": true,
          "internalType": "uint256",
          "name": "tokenId",
          "type": "uint256"
        },
        {
          "indexed": false,
          "internalType": "uint256",
          "name": "price",
          "type": "uint256"
        }
      ],
      "name": "ItemBought",
      "type": "event"
    },
    {
      "anonymous": false,
      "inputs": [
        {
          "indexed": true,
          "internalType": "address",
          "name": "seller",
          "type": "address"
        },
        {
          "indexed": true,
          "internalType": "address",
          "name": "nftAddress",
          "type": "address"
        },
        {
          "indexed": true,
          "internalType": "uint256",
          "name": "tokenId",
          "type": "uint256"
        },
        {
          "indexed": false,
          "internalType": "uint256",
          "name": "price",
          "type": "uint256"
        }
      ],
      "name": "ItemCanceled",
      "type": "event"
    },
    {
      "anonymous": false,
      "inputs": [
        {
          "indexed": true,
          "internalType": "address",
          "name": "seller",
          "type": "address"
        },
        {
          "indexed": true,
          "internalType": "address",
          "name": "nftAddress",
          "type": "address"
        },
        {
          "indexed": true,
          "internalType": "uint256",
          "name": "tokenId",
          "type": "uint256"
        },
        {
          "indexed": false,
          "internalType": "uint256",
          "name": "price",
          "type": "uint256"
        },
        {
          "indexed": false,
          "internalType": "string",
          "name": "action",
          "type": "string"
        }
      ],
      "name": "ItemListed",
      "type": "event"
    },
    {
      "inputs": [
        {
          "internalType": "address",
          "name": "",
          "type": "address"
        }
      ],
      "name": "addressToLastGetMetaverseToken",
      "outputs": [
        {
          "internalType": "uint256",
          "name": "",
          "type": "uint256"
        }
      ],
      "stateMutability": "view",
      "type": "function"
    },
    {
      "inputs": [
        {
          "internalType": "address",
          "name": "nftAddress",
          "type": "address"
        },
        {
          "internalType": "uint256",
          "name": "tokenId",
          "type": "uint256"
        }
      ],
      "name": "buyItem",
      "outputs": [],
      "stateMutability": "payable",
      "type": "function"
    },
    {
      "inputs": [
        {
          "internalType": "address",
          "name": "nftAddress",
          "type": "address"
        },
        {
          "internalType": "uint256",
          "name": "tokenId",
          "type": "uint256"
        }
      ],
      "name": "cancelListing",
      "outputs": [],
      "stateMutability": "nonpayable",
      "type": "function"
    },
    {
      "inputs": [],
      "name": "get1000MetaverseToken",
      "outputs": [],
      "stateMutability": "nonpayable",
      "type": "function"
    },
    {
      "inputs": [
        {
          "internalType": "address",
          "name": "nftAddress",
          "type": "address"
        },
        {
          "internalType": "uint256",
          "name": "tokenId",
          "type": "uint256"
        }
      ],
      "name": "getListing",
      "outputs": [
        {
          "components": [
            {
              "internalType": "uint256",
              "name": "price",
              "type": "uint256"
            },
            {
              "internalType": "address",
              "name": "seller",
              "type": "address"
            }
          ],
          "internalType": "struct MetaverseMarketplace.Listing",
          "name": "",
          "type": "tuple"
        }
      ],
      "stateMutability": "view",
      "type": "function"
    },
    {
      "inputs": [
        {
          "internalType": "address",
          "name": "seller",
          "type": "address"
        }
      ],
      "name": "getProceeds",
      "outputs": [
        {
          "internalType": "uint256",
          "name": "",
          "type": "uint256"
        }
      ],
      "stateMutability": "view",
      "type": "function"
    },
    {
      "inputs": [
        {
          "internalType": "address",
          "name": "nftAddress",
          "type": "address"
        },
        {
          "internalType": "uint256",
          "name": "tokenId",
          "type": "uint256"
        },
        {
          "internalType": "uint256",
          "name": "price",
          "type": "uint256"
        }
      ],
      "name": "listItem",
      "outputs": [],
      "stateMutability": "nonpayable",
      "type": "function"
    },
    {
      "inputs": [],
      "name": "metaverseToken",
      "outputs": [
        {
          "internalType": "contract IERC20",
          "name": "",
          "type": "address"
        }
      ],
      "stateMutability": "view",
      "type": "function"
    },
    {
      "inputs": [
        {
          "internalType": "address",
          "name": "nftAddress",
          "type": "address"
        },
        {
          "internalType": "uint256",
          "name": "tokenId",
          "type": "uint256"
        },
        {
          "internalType": "uint256",
          "name": "newPrice",
          "type": "uint256"
        }
      ],
      "name": "updateListing",
      "outputs": [],
      "stateMutability": "nonpayable",
      "type": "function"
    },
    {
      "inputs": [],
      "name": "withdrawProceeds",
      "outputs": [],
      "stateMutability": "nonpayable",
      "type": "function"
    }
  ],
  "bytecode": "0x608060405234801561001057600080fd5b5060405161225d38038061225d833981810160405281019061003291906100e4565b600160008190555080600560006101000a81548173ffffffffffffffffffffffffffffffffffffffff021916908373ffffffffffffffffffffffffffffffffffffffff16021790555050610111565b600080fd5b600073ffffffffffffffffffffffffffffffffffffffff82169050919050565b60006100b182610086565b9050919050565b6100c1816100a6565b81146100cc57600080fd5b50565b6000815190506100de816100b8565b92915050565b6000602082840312156100fa576100f9610081565b5b6000610108848285016100cf565b91505092915050565b61213d806101206000396000f3fe6080604052600436106100915760003560e01c80639f37092a116100595780639f37092a1461017b578063b2ddee0614610197578063bddff4d8146101c0578063e607a8ba146101fd578063f772adf11461021457610091565b806330cfeda9146100965780633829f313146100d357806388700d1c146100fe57806389bfd38f1461013b5780639038e69314610164575b600080fd5b3480156100a257600080fd5b506100bd60048036038101906100b89190611aeb565b61023d565b6040516100ca9190611b31565b60405180910390f35b3480156100df57600080fd5b506100e8610286565b6040516100f59190611bab565b60405180910390f35b34801561010a57600080fd5b5061012560048036038101906101209190611bf2565b6102ac565b6040516101329190611c7f565b60405180910390f35b34801561014757600080fd5b50610162600480360381019061015d9190611c9a565b610377565b005b34801561017057600080fd5b506101796108db565b005b61019560048036038101906101909190611bf2565b610a4e565b005b3480156101a357600080fd5b506101be60048036038101906101b99190611bf2565b611026565b005b3480156101cc57600080fd5b506101e760048036038101906101e29190611aeb565b611466565b6040516101f49190611b31565b60405180910390f35b34801561020957600080fd5b5061021261147e565b005b34801561022057600080fd5b5061023b60048036038101906102369190611c9a565b611600565b005b6000600260008373ffffffffffffffffffffffffffffffffffffffff1673ffffffffffffffffffffffffffffffffffffffff168152602001908152602001600020549050919050565b600560009054906101000a900473ffffffffffffffffffffffffffffffffffffffff1681565b6102b4611a58565b600160008473ffffffffffffffffffffffffffffffffffffffff1673ffffffffffffffffffffffffffffffffffffffff1681526020019081526020016000206000838152602001908152602001600020604051806040016040529081600082015481526020016001820160009054906101000a900473ffffffffffffffffffffffffffffffffffffffff1673ffffffffffffffffffffffffffffffffffffffff1673ffffffffffffffffffffffffffffffffffffffff1681525050905092915050565b8282600080600160008573ffffffffffffffffffffffffffffffffffffffff1673ffffffffffffffffffffffffffffffffffffffff1681526020019081526020016000206000848152602001908152602001600020604051806040016040529081600082015481526020016001820160009054906101000a900473ffffffffffffffffffffffffffffffffffffffff1673ffffffffffffffffffffffffffffffffffffffff1673ffffffffffffffffffffffffffffffffffffffff1681525050905060008160000151118015610451575060001515821515145b156104955783836040517f5b02633f00000000000000000000000000000000000000000000000000000000815260040161048c929190611cfc565b60405180910390fd5b60008160000151111580156104ae575060011515821515145b156104f25783836040517ff87ad3040000000000000000000000000000000000000000000000000000000081526004016104e9929190611cfc565b60405180910390fd5b8686336001600084905060008173ffffffffffffffffffffffffffffffffffffffff16636352211e866040518263ffffffff1660e01b81526004016105379190611b31565b602060405180830381865afa158015610554573d6000803e3d6000fd5b505050506040513d601f19601f820116820180604052508101906105789190611d3a565b90508373ffffffffffffffffffffffffffffffffffffffff168173ffffffffffffffffffffffffffffffffffffffff16141580156105ba575060011515831515145b156105f1576040517fbc1bc02200000000000000000000000000000000000000000000000000000000815260040160405180910390fd5b8373ffffffffffffffffffffffffffffffffffffffff168173ffffffffffffffffffffffffffffffffffffffff16148015610630575060001515831515145b15610667576040517f25b318c500000000000000000000000000000000000000000000000000000000815260040160405180910390fd5b60008b116106a1576040517fbd7bcbea00000000000000000000000000000000000000000000000000000000815260040160405180910390fd5b60008d90503073ffffffffffffffffffffffffffffffffffffffff168173ffffffffffffffffffffffffffffffffffffffff1663081812fc8f6040518263ffffffff1660e01b81526004016106f69190611b31565b602060405180830381865afa158015610713573d6000803e3d6000fd5b505050506040513d601f19601f820116820180604052508101906107379190611d3a565b73ffffffffffffffffffffffffffffffffffffffff1614610784576040517fe967300a00000000000000000000000000000000000000000000000000000000815260040160405180910390fd5b60008e905060008e905060008e905060405180604001604052808281526020013373ffffffffffffffffffffffffffffffffffffffff16815250600160008573ffffffffffffffffffffffffffffffffffffffff1673ffffffffffffffffffffffffffffffffffffffff16815260200190815260200160002060008481526020019081526020016000206000820151816000015560208201518160010160006101000a81548173ffffffffffffffffffffffffffffffffffffffff021916908373ffffffffffffffffffffffffffffffffffffffff160217905550905050818373ffffffffffffffffffffffffffffffffffffffff163373ffffffffffffffffffffffffffffffffffffffff167fa24d7f57961a475163f4ded9857498db096cdedf2e504991e3abc49ba85800a3846040516108c09190611dc4565b60405180910390a45050505050505050505050505050505050565b6000600260003373ffffffffffffffffffffffffffffffffffffffff1673ffffffffffffffffffffffffffffffffffffffff16815260200190815260200160002054905060008111610959576040517f4975c9ac00000000000000000000000000000000000000000000000000000000815260040160405180910390fd5b6000600260003373ffffffffffffffffffffffffffffffffffffffff1673ffffffffffffffffffffffffffffffffffffffff1681526020019081526020016000208190555060003373ffffffffffffffffffffffffffffffffffffffff16826040516109c490611e23565b60006040518083038185875af1925050503d8060008114610a01576040519150601f19603f3d011682016040523d82523d6000602084013e610a06565b606091505b5050905080610a4a576040517f08c379a0000000000000000000000000000000000000000000000000000000008152600401610a4190611e84565b60405180910390fd5b5050565b610a56611a08565b818160016000600160008573ffffffffffffffffffffffffffffffffffffffff1673ffffffffffffffffffffffffffffffffffffffff1681526020019081526020016000206000848152602001908152602001600020604051806040016040529081600082015481526020016001820160009054906101000a900473ffffffffffffffffffffffffffffffffffffffff1673ffffffffffffffffffffffffffffffffffffffff1673ffffffffffffffffffffffffffffffffffffffff1681525050905060008160000151118015610b31575060001515821515145b15610b755783836040517f5b02633f000000000000000000000000000000000000000000000000000000008152600401610b6c929190611cfc565b60405180910390fd5b6000816000015111158015610b8e575060011515821515145b15610bd25783836040517ff87ad304000000000000000000000000000000000000000000000000000000008152600401610bc9929190611cfc565b60405180910390fd5b85853360008084905060008173ffffffffffffffffffffffffffffffffffffffff16636352211e866040518263ffffffff1660e01b8152600401610c169190611b31565b602060405180830381865afa158015610c33573d6000803e3d6000fd5b505050506040513d601f19601f82011682018060405250810190610c579190611d3a565b90508373ffffffffffffffffffffffffffffffffffffffff168173ffffffffffffffffffffffffffffffffffffffff1614158015610c99575060011515831515145b15610cd0576040517fbc1bc02200000000000000000000000000000000000000000000000000000000815260040160405180910390fd5b8373ffffffffffffffffffffffffffffffffffffffff168173ffffffffffffffffffffffffffffffffffffffff16148015610d0f575060001515831515145b15610d46576040517f25b318c500000000000000000000000000000000000000000000000000000000815260040160405180910390fd5b6000600160008e73ffffffffffffffffffffffffffffffffffffffff1673ffffffffffffffffffffffffffffffffffffffff16815260200190815260200160002060008d8152602001908152602001600020604051806040016040529081600082015481526020016001820160009054906101000a900473ffffffffffffffffffffffffffffffffffffffff1673ffffffffffffffffffffffffffffffffffffffff1673ffffffffffffffffffffffffffffffffffffffff168152505090508060000151341015610e56578c8c82600001516040517f6512426e000000000000000000000000000000000000000000000000000000008152600401610e4d93929190611ea4565b60405180910390fd5b3460026000836020015173ffffffffffffffffffffffffffffffffffffffff1673ffffffffffffffffffffffffffffffffffffffff1681526020019081526020016000206000828254610ea99190611f0a565b92505081905550600160008e73ffffffffffffffffffffffffffffffffffffffff1673ffffffffffffffffffffffffffffffffffffffff16815260200190815260200160002060008d81526020019081526020016000206000808201600090556001820160006101000a81549073ffffffffffffffffffffffffffffffffffffffff021916905550508c73ffffffffffffffffffffffffffffffffffffffff166342842e0e8260200151338f6040518463ffffffff1660e01b8152600401610f7393929190611f3e565b600060405180830381600087803b158015610f8d57600080fd5b505af1158015610fa1573d6000803e3d6000fd5b505050508b8d73ffffffffffffffffffffffffffffffffffffffff163373ffffffffffffffffffffffffffffffffffffffff167f263223b1dd81e51054a4e6f791d45a4a1ddb4aadcd93a2dfd892615c3fdac18784600001516040516110079190611b31565b60405180910390a45050505050505050505050611022611a4e565b5050565b818160016000600160008573ffffffffffffffffffffffffffffffffffffffff1673ffffffffffffffffffffffffffffffffffffffff1681526020019081526020016000206000848152602001908152602001600020604051806040016040529081600082015481526020016001820160009054906101000a900473ffffffffffffffffffffffffffffffffffffffff1673ffffffffffffffffffffffffffffffffffffffff1673ffffffffffffffffffffffffffffffffffffffff1681525050905060008160000151118015611101575060001515821515145b156111455783836040517f5b02633f00000000000000000000000000000000000000000000000000000000815260040161113c929190611cfc565b60405180910390fd5b600081600001511115801561115e575060011515821515145b156111a25783836040517ff87ad304000000000000000000000000000000000000000000000000000000008152600401611199929190611cfc565b60405180910390fd5b8585336001600084905060008173ffffffffffffffffffffffffffffffffffffffff16636352211e866040518263ffffffff1660e01b81526004016111e79190611b31565b602060405180830381865afa158015611204573d6000803e3d6000fd5b505050506040513d601f19601f820116820180604052508101906112289190611d3a565b90508373ffffffffffffffffffffffffffffffffffffffff168173ffffffffffffffffffffffffffffffffffffffff161415801561126a575060011515831515145b156112a1576040517fbc1bc02200000000000000000000000000000000000000000000000000000000815260040160405180910390fd5b8373ffffffffffffffffffffffffffffffffffffffff168173ffffffffffffffffffffffffffffffffffffffff161480156112e0575060001515831515145b15611317576040517f25b318c500000000000000000000000000000000000000000000000000000000815260040160405180910390fd5b6000600160008e73ffffffffffffffffffffffffffffffffffffffff1673ffffffffffffffffffffffffffffffffffffffff16815260200190815260200160002060008d8152602001908152602001600020600001549050600160008e73ffffffffffffffffffffffffffffffffffffffff1673ffffffffffffffffffffffffffffffffffffffff16815260200190815260200160002060008d81526020019081526020016000206000808201600090556001820160006101000a81549073ffffffffffffffffffffffffffffffffffffffff021916905550508b8d73ffffffffffffffffffffffffffffffffffffffff163373ffffffffffffffffffffffffffffffffffffffff167f74114e1af8d4d398357d12468ae7b6a7bf4144bf482db553622d275b6be6f1918460405161144f9190611b31565b60405180910390a450505050505050505050505050565b60046020528060005260406000206000915090505481565b62015180600460003373ffffffffffffffffffffffffffffffffffffffff1673ffffffffffffffffffffffffffffffffffffffff16815260200190815260200160002054426114cd9190611f75565b101561151057336040517ffca47e310000000000000000000000000000000000000000000000000000000081526004016115079190611fa9565b60405180910390fd5b42600460003373ffffffffffffffffffffffffffffffffffffffff1673ffffffffffffffffffffffffffffffffffffffff16815260200190815260200160002081905550600560009054906101000a900473ffffffffffffffffffffffffffffffffffffffff1673ffffffffffffffffffffffffffffffffffffffff1663a9059cbb33683635c9adc5dea000006040518363ffffffff1660e01b81526004016115ba929190611fff565b6020604051808303816000875af11580156115d9573d6000803e3d6000fd5b505050506040513d601f19601f820116820180604052508101906115fd9190612060565b50565b611608611a08565b828260016000600160008573ffffffffffffffffffffffffffffffffffffffff1673ffffffffffffffffffffffffffffffffffffffff1681526020019081526020016000206000848152602001908152602001600020604051806040016040529081600082015481526020016001820160009054906101000a900473ffffffffffffffffffffffffffffffffffffffff1673ffffffffffffffffffffffffffffffffffffffff1673ffffffffffffffffffffffffffffffffffffffff16815250509050600081600001511180156116e3575060001515821515145b156117275783836040517f5b02633f00000000000000000000000000000000000000000000000000000000815260040161171e929190611cfc565b60405180910390fd5b6000816000015111158015611740575060011515821515145b156117845783836040517ff87ad30400000000000000000000000000000000000000000000000000000000815260040161177b929190611cfc565b60405180910390fd5b8686336001600084905060008173ffffffffffffffffffffffffffffffffffffffff16636352211e866040518263ffffffff1660e01b81526004016117c99190611b31565b602060405180830381865afa1580156117e6573d6000803e3d6000fd5b505050506040513d601f19601f8201168201806040525081019061180a9190611d3a565b90508373ffffffffffffffffffffffffffffffffffffffff168173ffffffffffffffffffffffffffffffffffffffff161415801561184c575060011515831515145b15611883576040517fbc1bc02200000000000000000000000000000000000000000000000000000000815260040160405180910390fd5b8373ffffffffffffffffffffffffffffffffffffffff168173ffffffffffffffffffffffffffffffffffffffff161480156118c2575060001515831515145b156118f9576040517f25b318c500000000000000000000000000000000000000000000000000000000815260040160405180910390fd5b60008b11611933576040517fbd7bcbea00000000000000000000000000000000000000000000000000000000815260040160405180910390fd5b8a600160008f73ffffffffffffffffffffffffffffffffffffffff1673ffffffffffffffffffffffffffffffffffffffff16815260200190815260200160002060008e8152602001908152602001600020600001819055508b8d73ffffffffffffffffffffffffffffffffffffffff163373ffffffffffffffffffffffffffffffffffffffff167fa24d7f57961a475163f4ded9857498db096cdedf2e504991e3abc49ba85800a38e6040516119e991906120d9565b60405180910390a450505050505050505050611a03611a4e565b505050565b600260005403611a44576040517f3ee5aeb500000000000000000000000000000000000000000000000000000000815260040160405180910390fd5b6002600081905550565b6001600081905550565b604051806040016040528060008152602001600073ffffffffffffffffffffffffffffffffffffffff1681525090565b600080fd5b600073ffffffffffffffffffffffffffffffffffffffff82169050919050565b6000611ab882611a8d565b9050919050565b611ac881611aad565b8114611ad357600080fd5b50565b600081359050611ae581611abf565b92915050565b600060208284031215611b0157611b00611a88565b5b6000611b0f84828501611ad6565b91505092915050565b6000819050919050565b611b2b81611b18565b82525050565b6000602082019050611b466000830184611b22565b92915050565b6000819050919050565b6000611b71611b6c611b6784611a8d565b611b4c565b611a8d565b9050919050565b6000611b8382611b56565b9050919050565b6000611b9582611b78565b9050919050565b611ba581611b8a565b82525050565b6000602082019050611bc06000830184611b9c565b92915050565b611bcf81611b18565b8114611bda57600080fd5b50565b600081359050611bec81611bc6565b92915050565b60008060408385031215611c0957611c08611a88565b5b6000611c1785828601611ad6565b9250506020611c2885828601611bdd565b9150509250929050565b611c3b81611b18565b82525050565b611c4a81611aad565b82525050565b604082016000820151611c666000850182611c32565b506020820151611c796020850182611c41565b50505050565b6000604082019050611c946000830184611c50565b92915050565b600080600060608486031215611cb357611cb2611a88565b5b6000611cc186828701611ad6565b9350506020611cd286828701611bdd565b9250506040611ce386828701611bdd565b9150509250925092565b611cf681611aad565b82525050565b6000604082019050611d116000830185611ced565b611d1e6020830184611b22565b9392505050565b600081519050611d3481611abf565b92915050565b600060208284031215611d5057611d4f611a88565b5b6000611d5e84828501611d25565b91505092915050565b600082825260208201905092915050565b7f6c6973745f6974656d0000000000000000000000000000000000000000000000600082015250565b6000611dae600983611d67565b9150611db982611d78565b602082019050919050565b6000604082019050611dd96000830184611b22565b8181036020830152611dea81611da1565b905092915050565b600081905092915050565b50565b6000611e0d600083611df2565b9150611e1882611dfd565b600082019050919050565b6000611e2e82611e00565b9150819050919050565b7f5472616e73666572206661696c65642100000000000000000000000000000000600082015250565b6000611e6e601083611d67565b9150611e7982611e38565b602082019050919050565b60006020820190508181036000830152611e9d81611e61565b9050919050565b6000606082019050611eb96000830186611ced565b611ec66020830185611b22565b611ed36040830184611b22565b949350505050565b7f4e487b7100000000000000000000000000000000000000000000000000000000600052601160045260246000fd5b6000611f1582611b18565b9150611f2083611b18565b9250828201905080821115611f3857611f37611edb565b5b92915050565b6000606082019050611f536000830186611ced565b611f606020830185611ced565b611f6d6040830184611b22565b949350505050565b6000611f8082611b18565b9150611f8b83611b18565b9250828203905081811115611fa357611fa2611edb565b5b92915050565b6000602082019050611fbe6000830184611ced565b92915050565b6000819050919050565b6000611fe9611fe4611fdf84611fc4565b611b4c565b611b18565b9050919050565b611ff981611fce565b82525050565b60006040820190506120146000830185611ced565b6120216020830184611ff0565b9392505050565b60008115159050919050565b61203d81612028565b811461204857600080fd5b50565b60008151905061205a81612034565b92915050565b60006020828403121561207657612075611a88565b5b60006120848482850161204b565b91505092915050565b7f7570646174655f70726963650000000000000000000000000000000000000000600082015250565b60006120c3600c83611d67565b91506120ce8261208d565b602082019050919050565b60006040820190506120ee6000830184611b22565b81810360208301526120ff816120b6565b90509291505056fea2646970667358221220f08562341a3f5ab32cf5daee4ff6060e4001da60ef1f7df017ce4b8c85ee9a5b64736f6c634300081c0033",
  "linkReferences": {},
  "deployedLinkReferences": {}
}