{
  "_format": "hh-sol-artifact-1",
  "contractName": "MetaverseMarketplace",
  "sourceName": "contracts/MetaverseMarketplace.sol",
  "abi": [
    {
      "inputs": [
        {
          "internalType": "address",
          "name": "_metaverseTokenAddress",
          "type": "address"
        }
      ],
      "stateMutability": "nonpayable",
      "type": "constructor"
    },
    {
      "inputs": [
        {
          "internalType": "address",
          "name": "senderAddress",
          "type": "address"
        }
      ],
      "name": "MetaverseMarketplace__AddressLessThan1DayForMetaverseToken",
      "type": "error"
    },
    {
      "inputs": [],
      "name": "MetaverseMarketplace__NoProceeds",
      "type": "error"
    },
    {
      "inputs": [],
      "name": "MetaverseMarketplace__PriceMustBeAboveZero",
      "type": "error"
    },
    {
      "inputs": [
        {
          "internalType": "string",
          "name": "productCode",
          "type": "string"
        },
        {
          "internalType": "address",
          "name": "seller",
          "type": "address"
        },
        {
          "internalType": "uint256",
          "name": "price",
          "type": "uint256"
        }
      ],
      "name": "MetaverseMarketplace__PriceNotMet",
      "type": "error"
    },
    {
      "inputs": [],
      "name": "ReentrancyGuardReentrantCall",
      "type": "error"
    },
    {
      "anonymous": false,
      "inputs": [
        {
          "indexed": true,
          "internalType": "address",
          "name": "commenter",
          "type": "address"
        },
        {
          "indexed": true,
          "internalType": "string",
          "name": "comment",
          "type": "string"
        },
        {
          "indexed": true,
          "internalType": "string",
          "name": "productCode",
          "type": "string"
        },
        {
          "indexed": false,
          "internalType": "address",
          "name": "seller",
          "type": "address"
        }
      ],
      "name": "CommentAdded",
      "type": "event"
    },
    {
      "anonymous": false,
      "inputs": [
        {
          "indexed": true,
          "internalType": "address",
          "name": "buyer",
          "type": "address"
        },
        {
          "indexed": true,
          "internalType": "string",
          "name": "productCode",
          "type": "string"
        },
        {
          "indexed": true,
          "internalType": "uint256",
          "name": "price",
          "type": "uint256"
        }
      ],
      "name": "ItemBought",
      "type": "event"
    },
    {
      "anonymous": false,
      "inputs": [
        {
          "indexed": true,
          "internalType": "address",
          "name": "seller",
          "type": "address"
        },
        {
          "indexed": true,
          "internalType": "uint256",
          "name": "price",
          "type": "uint256"
        },
        {
          "indexed": true,
          "internalType": "string",
          "name": "productCode",
          "type": "string"
        },
        {
          "indexed": false,
          "internalType": "string",
          "name": "title",
          "type": "string"
        }
      ],
      "name": "ItemListed",
      "type": "event"
    },
    {
      "anonymous": false,
      "inputs": [
        {
          "indexed": true,
          "internalType": "address",
          "name": "seller",
          "type": "address"
        },
        {
          "indexed": true,
          "internalType": "string",
          "name": "productCode",
          "type": "string"
        },
        {
          "indexed": true,
          "internalType": "bool",
          "name": "publish",
          "type": "bool"
        }
      ],
      "name": "ItemPublished",
      "type": "event"
    },
    {
      "anonymous": false,
      "inputs": [
        {
          "indexed": true,
          "internalType": "address",
          "name": "seller",
          "type": "address"
        },
        {
          "indexed": true,
          "internalType": "string",
          "name": "productCode",
          "type": "string"
        },
        {
          "indexed": true,
          "internalType": "string",
          "name": "title",
          "type": "string"
        },
        {
          "indexed": false,
          "internalType": "uint256",
          "name": "price",
          "type": "uint256"
        }
      ],
      "name": "ListingUpdated",
      "type": "event"
    },
    {
      "anonymous": false,
      "inputs": [
        {
          "indexed": true,
          "internalType": "address",
          "name": "person",
          "type": "address"
        }
      ],
      "name": "MetaverseAirdrop",
      "type": "event"
    },
    {
      "anonymous": false,
      "inputs": [
        {
          "indexed": true,
          "internalType": "address",
          "name": "person",
          "type": "address"
        },
        {
          "indexed": true,
          "internalType": "string",
          "name": "currency",
          "type": "string"
        },
        {
          "indexed": true,
          "internalType": "uint256",
          "name": "amount",
          "type": "uint256"
        }
      ],
      "name": "ProceedsWithdrawn",
      "type": "event"
    },
    {
      "anonymous": false,
      "inputs": [
        {
          "indexed": true,
          "internalType": "address",
          "name": "owner",
          "type": "address"
        },
        {
          "indexed": true,
          "internalType": "string",
          "name": "username",
          "type": "string"
        }
      ],
      "name": "SetUsername",
      "type": "event"
    },
    {
      "inputs": [
        {
          "internalType": "string",
          "name": "comment",
          "type": "string"
        },
        {
          "internalType": "uint256",
          "name": "rating",
          "type": "uint256"
        },
        {
          "internalType": "string",
          "name": "dateString",
          "type": "string"
        },
        {
          "internalType": "string",
          "name": "productCode",
          "type": "string"
        },
        {
          "internalType": "address",
          "name": "seller",
          "type": "address"
        }
      ],
      "name": "addComment",
      "outputs": [],
      "stateMutability": "nonpayable",
      "type": "function"
    },
    {
      "inputs": [
        {
          "internalType": "address",
          "name": "",
          "type": "address"
        }
      ],
      "name": "addressToLastGetMetaverseToken",
      "outputs": [
        {
          "internalType": "uint256",
          "name": "",
          "type": "uint256"
        }
      ],
      "stateMutability": "view",
      "type": "function"
    },
    {
      "inputs": [
        {
          "internalType": "string",
          "name": "productCode",
          "type": "string"
        },
        {
          "internalType": "address",
          "name": "seller",
          "type": "address"
        },
        {
          "internalType": "uint256",
          "name": "quantity",
          "type": "uint256"
        }
      ],
      "name": "buyItem",
      "outputs": [],
      "stateMutability": "payable",
      "type": "function"
    },
    {
      "inputs": [
        {
          "internalType": "string",
          "name": "productCode",
          "type": "string"
        },
        {
          "internalType": "bool",
          "name": "publish",
          "type": "bool"
        }
      ],
      "name": "changeListingVisibility",
      "outputs": [],
      "stateMutability": "nonpayable",
      "type": "function"
    },
    {
      "inputs": [],
      "name": "get1000MetaverseToken",
      "outputs": [],
      "stateMutability": "nonpayable",
      "type": "function"
    },
    {
      "inputs": [],
      "name": "getAllUserListings",
      "outputs": [
        {
          "components": [
            {
              "internalType": "uint256",
              "name": "price",
              "type": "uint256"
            },
            {
              "internalType": "address",
              "name": "seller",
              "type": "address"
            },
            {
              "internalType": "bool",
              "name": "published",
              "type": "bool"
            },
            {
              "internalType": "string",
              "name": "productType",
              "type": "string"
            },
            {
              "internalType": "string",
              "name": "title",
              "type": "string"
            },
            {
              "internalType": "string",
              "name": "description",
              "type": "string"
            },
            {
              "internalType": "string",
              "name": "imageUrl",
              "type": "string"
            },
            {
              "internalType": "string",
              "name": "currency",
              "type": "string"
            },
            {
              "internalType": "string",
              "name": "productUrl",
              "type": "string"
            },
            {
              "internalType": "string",
              "name": "productInfo",
              "type": "string"
            },
            {
              "internalType": "string",
              "name": "productCode",
              "type": "string"
            },
            {
              "internalType": "uint256",
              "name": "nftTokenId",
              "type": "uint256"
            },
            {
              "components": [
                {
                  "internalType": "address",
                  "name": "commenter",
                  "type": "address"
                },
                {
                  "internalType": "uint256",
                  "name": "rating",
                  "type": "uint256"
                },
                {
                  "internalType": "string",
                  "name": "comment",
                  "type": "string"
                },
                {
                  "internalType": "uint256",
                  "name": "time",
                  "type": "uint256"
                },
                {
                  "internalType": "string",
                  "name": "dateString",
                  "type": "string"
                }
              ],
              "internalType": "struct MetaverseMarketplace.Comment[]",
              "name": "comments",
              "type": "tuple[]"
            },
            {
              "components": [
                {
                  "internalType": "address",
                  "name": "buyer",
                  "type": "address"
                },
                {
                  "internalType": "uint256",
                  "name": "quantity",
                  "type": "uint256"
                },
                {
                  "internalType": "uint256",
                  "name": "totalPrice",
                  "type": "uint256"
                }
              ],
              "internalType": "struct MetaverseMarketplace.Buyer[]",
              "name": "buyers",
              "type": "tuple[]"
            }
          ],
          "internalType": "struct MetaverseMarketplace.Listing[]",
          "name": "",
          "type": "tuple[]"
        }
      ],
      "stateMutability": "view",
      "type": "function"
    },
    {
      "inputs": [
        {
          "internalType": "string",
          "name": "productType",
          "type": "string"
        }
      ],
      "name": "getListingByProductType",
      "outputs": [
        {
          "components": [
            {
              "internalType": "uint256",
              "name": "price",
              "type": "uint256"
            },
            {
              "internalType": "address",
              "name": "seller",
              "type": "address"
            },
            {
              "internalType": "bool",
              "name": "published",
              "type": "bool"
            },
            {
              "internalType": "string",
              "name": "productType",
              "type": "string"
            },
            {
              "internalType": "string",
              "name": "title",
              "type": "string"
            },
            {
              "internalType": "string",
              "name": "description",
              "type": "string"
            },
            {
              "internalType": "string",
              "name": "imageUrl",
              "type": "string"
            },
            {
              "internalType": "string",
              "name": "currency",
              "type": "string"
            },
            {
              "internalType": "string",
              "name": "productUrl",
              "type": "string"
            },
            {
              "internalType": "string",
              "name": "productInfo",
              "type": "string"
            },
            {
              "internalType": "string",
              "name": "productCode",
              "type": "string"
            },
            {
              "internalType": "uint256",
              "name": "nftTokenId",
              "type": "uint256"
            },
            {
              "components": [
                {
                  "internalType": "address",
                  "name": "commenter",
                  "type": "address"
                },
                {
                  "internalType": "uint256",
                  "name": "rating",
                  "type": "uint256"
                },
                {
                  "internalType": "string",
                  "name": "comment",
                  "type": "string"
                },
                {
                  "internalType": "uint256",
                  "name": "time",
                  "type": "uint256"
                },
                {
                  "internalType": "string",
                  "name": "dateString",
                  "type": "string"
                }
              ],
              "internalType": "struct MetaverseMarketplace.Comment[]",
              "name": "comments",
              "type": "tuple[]"
            },
            {
              "components": [
                {
                  "internalType": "address",
                  "name": "buyer",
                  "type": "address"
                },
                {
                  "internalType": "uint256",
                  "name": "quantity",
                  "type": "uint256"
                },
                {
                  "internalType": "uint256",
                  "name": "totalPrice",
                  "type": "uint256"
                }
              ],
              "internalType": "struct MetaverseMarketplace.Buyer[]",
              "name": "buyers",
              "type": "tuple[]"
            }
          ],
          "internalType": "struct MetaverseMarketplace.Listing[]",
          "name": "",
          "type": "tuple[]"
        }
      ],
      "stateMutability": "view",
      "type": "function"
    },
    {
      "inputs": [
        {
          "internalType": "address",
          "name": "seller",
          "type": "address"
        },
        {
          "internalType": "string",
          "name": "currency",
          "type": "string"
        }
      ],
      "name": "getProceeds",
      "outputs": [
        {
          "internalType": "uint256",
          "name": "",
          "type": "uint256"
        }
      ],
      "stateMutability": "view",
      "type": "function"
    },
    {
      "inputs": [],
      "name": "getUserListing",
      "outputs": [
        {
          "components": [
            {
              "internalType": "uint256",
              "name": "price",
              "type": "uint256"
            },
            {
              "internalType": "address",
              "name": "seller",
              "type": "address"
            },
            {
              "internalType": "bool",
              "name": "published",
              "type": "bool"
            },
            {
              "internalType": "string",
              "name": "productType",
              "type": "string"
            },
            {
              "internalType": "string",
              "name": "title",
              "type": "string"
            },
            {
              "internalType": "string",
              "name": "description",
              "type": "string"
            },
            {
              "internalType": "string",
              "name": "imageUrl",
              "type": "string"
            },
            {
              "internalType": "string",
              "name": "currency",
              "type": "string"
            },
            {
              "internalType": "string",
              "name": "productUrl",
              "type": "string"
            },
            {
              "internalType": "string",
              "name": "productInfo",
              "type": "string"
            },
            {
              "internalType": "string",
              "name": "productCode",
              "type": "string"
            },
            {
              "internalType": "uint256",
              "name": "nftTokenId",
              "type": "uint256"
            },
            {
              "components": [
                {
                  "internalType": "address",
                  "name": "commenter",
                  "type": "address"
                },
                {
                  "internalType": "uint256",
                  "name": "rating",
                  "type": "uint256"
                },
                {
                  "internalType": "string",
                  "name": "comment",
                  "type": "string"
                },
                {
                  "internalType": "uint256",
                  "name": "time",
                  "type": "uint256"
                },
                {
                  "internalType": "string",
                  "name": "dateString",
                  "type": "string"
                }
              ],
              "internalType": "struct MetaverseMarketplace.Comment[]",
              "name": "comments",
              "type": "tuple[]"
            },
            {
              "components": [
                {
                  "internalType": "address",
                  "name": "buyer",
                  "type": "address"
                },
                {
                  "internalType": "uint256",
                  "name": "quantity",
                  "type": "uint256"
                },
                {
                  "internalType": "uint256",
                  "name": "totalPrice",
                  "type": "uint256"
                }
              ],
              "internalType": "struct MetaverseMarketplace.Buyer[]",
              "name": "buyers",
              "type": "tuple[]"
            }
          ],
          "internalType": "struct MetaverseMarketplace.Listing[]",
          "name": "",
          "type": "tuple[]"
        }
      ],
      "stateMutability": "view",
      "type": "function"
    },
    {
      "inputs": [
        {
          "internalType": "uint256",
          "name": "price",
          "type": "uint256"
        },
        {
          "internalType": "string",
          "name": "productType",
          "type": "string"
        },
        {
          "internalType": "string",
          "name": "title",
          "type": "string"
        },
        {
          "internalType": "string",
          "name": "description",
          "type": "string"
        },
        {
          "internalType": "string",
          "name": "imageUrl",
          "type": "string"
        },
        {
          "internalType": "string",
          "name": "currency",
          "type": "string"
        },
        {
          "internalType": "string",
          "name": "productUrl",
          "type": "string"
        },
        {
          "internalType": "string",
          "name": "productInfo",
          "type": "string"
        },
        {
          "internalType": "string",
          "name": "productCode",
          "type": "string"
        },
        {
          "internalType": "uint256",
          "name": "nftTokenId",
          "type": "uint256"
        }
      ],
      "name": "listItem",
      "outputs": [],
      "stateMutability": "nonpayable",
      "type": "function"
    },
    {
      "inputs": [],
      "name": "metaverseToken",
      "outputs": [
        {
          "internalType": "contract IERC20",
          "name": "",
          "type": "address"
        }
      ],
      "stateMutability": "view",
      "type": "function"
    },
    {
      "inputs": [
        {
          "internalType": "string",
          "name": "newUsername",
          "type": "string"
        }
      ],
      "name": "setUsername",
      "outputs": [],
      "stateMutability": "nonpayable",
      "type": "function"
    },
    {
      "inputs": [
        {
          "internalType": "string",
          "name": "productCode",
          "type": "string"
        },
        {
          "internalType": "uint256",
          "name": "price",
          "type": "uint256"
        },
        {
          "internalType": "string",
          "name": "title",
          "type": "string"
        },
        {
          "internalType": "string",
          "name": "description",
          "type": "string"
        },
        {
          "internalType": "string",
          "name": "productInfo",
          "type": "string"
        },
        {
          "internalType": "string",
          "name": "productUrl",
          "type": "string"
        },
        {
          "internalType": "string",
          "name": "imageUrl",
          "type": "string"
        }
      ],
      "name": "updateListing",
      "outputs": [],
      "stateMutability": "nonpayable",
      "type": "function"
    },
    {
      "inputs": [
        {
          "internalType": "string",
          "name": "currency",
          "type": "string"
        }
      ],
      "name": "withdrawProceeds",
      "outputs": [],
      "stateMutability": "nonpayable",
      "type": "function"
    }
  ],
  "bytecode": "0x60803461007957601f61261238819003918201601f19168301916001600160401b0383118484101761007e5780849260209460405283398101031261007957516001600160a01b03811690819003610079576001600055600480546001600160a01b03191691909117905560405161257d90816100958239f35b600080fd5b634e487b7160e01b600052604160045260246000fdfe608060405260048036101561001357600080fd5b6000803560e01c80631a13cc5914610e50578063318bb5c714610bfe5780633829f31314610bd65780637791b33014610b5657806393ec02f1146109c8578063990d6459146108f35780639992b606146108675780639dee74d5146107c4578063a39249b814610748578063a97ce3c2146105f6578063bddff4d8146105bd578063d41aab231461034a578063e607a8ba146102385763ed59313a146100b857600080fd5b3461023557602080600319360112610231576001600160401b0392803584811161022d576100e990369083016110e3565b91338452600281526040842091835195861161021a575061010a825461141b565b601f81116101e1575b5080601f861160011461017a575093808495610147959161016f575b508160011b916000199060031b1c191617905561213b565b337fcfa484be7b1d89ac1b8203c2067a8efdffde3d5e5ec8a446cf9c54cb01c7e20b8380a380f35b90508301513861012f565b90601f1986168386528286209286905b8282106101c95750509186916101479697600194106101b0575b5050811b01905561213b565b85015160001960f88460031b161c1916905538806101a4565b80600185968294968a0151815501950193019061018a565b61020a90838652828620601f880160051c810191848910610210575b601f0160051c0190611455565b38610113565b90915081906101fd565b634e487b7160e01b855260419052602484fd5b8380fd5b5080fd5b80fd5b5034610235578060031936011261023557338152602060038152604082205442034281116103375762015180116103205780829333845260038252426040852055604460018060a01b0382541691604051958693849263a9059cbb60e01b84523390840152683635c9adc5dea0000060248401525af18015610315576102e2575b82337f561f98adfb5df58a7c3c03f4ada643cc46c1a5291389819dbd6d01fe490481498280a280f35b81813d831161030e575b6102f681836110a7565b810103126102315751801515036102355738806102b9565b503d6102ec565b6040513d85823e3d90fd5b60405163fca47e3160e01b81523381850152602490fd5b634e487b7160e01b835260118452602483fd5b5090606090816003193601126105b95780356001600160401b03811161022d5761037790369083016110e3565b6001600160a01b0360248035828116959394919391908690036105b55760449384359260028954146105a45760028955885b600554811015610596576103d1886103cc60096103c5856113ca565b500161216a565b61220e565b6103e3576103de9061215b565b6103a9565b949596976103f96103f3876113ca565b50612396565b97885191823410610567575050505085519485840295848704148415171561055557604051956104288761108c565b338752602094858801526040870152838701511688526001938484526104658460408b2060e08a015190826040519483868095519384920161112f565b8201908152030190208054903482018092116105435755600c90610488906113ca565b500191825494600160401b86101561053157850180845585101561052057505086528520825160039092020180546001600160a01b0319166001600160a01b0392909216919091178155602082015160018201556040909101516002909101556104f390519161213b565b337f253fcd678c758e0e03dbf3a0243701c7439c306a61158b3c522a8119772990108480a45b6001815580f35b634e487b7160e01b89526032905287fd5b50634e487b7160e01b89526041905287fd5b634e487b7160e01b8b5260118552838bfd5b50634e487b7160e01b88526011825287fd5b604051630e90db8560e31b81529586019390935284939261058b606486018c611152565b938501528301520390fd5b505050505050505050610519565b604051633ee5aeb560e01b81528390fd5b8680fd5b8280fd5b5034610235576020366003190112610235576020906040906001600160a01b036105e56113b4565b168152600383522054604051908152f35b509034610231576020806003193601126105b95781356001600160401b03811161022d5761062790369084016110e3565b338452600182526040842060405183818451938286019461064981848861112f565b820190815203019020549081156107375761067c848792338452600182526040842060405180948193895192839161112f565b820190815203019020558480808084335af191823d15610732573d6106a0816110c8565b906106ae60405192836110a7565b815287863d92013e5b6106fd575b5050156106c7578280f35b60405162461bcd60e51b815291820152601060248201526f5472616e73666572206661696c65642160801b604482015260649150fd5b6107069061213b565b337ff2ca3efe12f71d386ef0fd2b75ebbef402882711943ccb42d5bdb696fa7a13418780a438806106bc565b6106b7565b60405163125d726b60e21b81528590fd5b509034610231576040366003190112610231576107636113b4565b906024356001600160401b03811161022d5791604060209461078c86946107b2963691016110e3565b6001600160a01b039093168152600184522060405182519094859382908590870161112f565b82019081520301902054604051908152f35b509034610231576020366003190112610231578035906001600160401b0382116105b9576107f4913691016110e3565b6005549061080182612484565b925b82811061081c57604051806108188682611177565b0390f35b80610832836103cc60026103c561083b966113ca565b6108405761215b565b610803565b61084c6103f3826113ca565b6108568287612533565b526108618186612533565b5061215b565b503461023557806003193601126102355760055461088481612263565b9061089260405192836110a7565b808252600583527f036b6384b5eca791c62761152d0c79bb0604c104a5fb6f4eb0703f3154bb3db09260208084015b8383106108d657604051806108188782611177565b600d826001926108e589612396565b8152019601920191946108c1565b509034610231576040366003190112610231578035906001600160401b0382116105b957610923913691016110e3565b602435908115159081830361022d57835b6005548110156109c157610950826103cc60096103c5856113ca565b6109625761095d9061215b565b610934565b61099992936001610975610994936113ca565b5001805460ff60a01b191691151560a01b60ff60a01b16919091179055565b61213b565b337f51dabe03dbc9869cdc42f327348910c055732b793c7aaade368a32d8f3658e1e8480a480f35b5050505080f35b5090346102315760a0366003190112610231576001600160401b03813581811161022d576109f990369084016110e3565b906024928335926044358381116105b557610a1790369084016110e3565b926064359081116105b557610a2f90369084016110e3565b926084356001600160a01b0381169390849003610b5257875b60058054821015610b4657610a65876103cc60096103c5866113ca565b610a785750610a739061215b565b610a48565b9192939495969790610a8b600b916113ca565b50019060405194610a9b86611071565b3386526020998a8701528660408701524260608701526080860152815493600160401b851015610b355760018501808455851015610b24575050610b1793610b11937f8bb52eee1b68032569fa2c483528d7d2b7db7824b9704ee675f72029562208659693610994938c528a8c209102016114b6565b9361213b565b936040519283523392a480f35b634e487b7160e01b8b526032905289fd5b634e487b7160e01b8b526041905289fd5b50505050505050505080f35b8780fd5b5034610235578060031936011261023557600554610b7381612484565b915b818110610b8a57604051806108188582611177565b80610b97610bb0926113ca565b50600101546001600160a01b03163314610bb55761215b565b610b75565b610bc16103f3826113ca565b610bcb8286612533565b526108618185612533565b509034610231578160031936011261023157546040516001600160a01b039091168152602090f35b5090346102315760e0366003190112610231576001600160401b03813581811161022d57610c2f90369084016110e3565b604435828111610e4c57610c4690369085016110e3565b91606435818111610e4857610c5e90369086016110e3565b936084358281116105b557610c7690369083016110e3565b9160a435818111610b5257610c8e90369084016110e3565b9160c435918211610b5257610ca5913691016110e3565b91865b600554811015610e3e57610cc4856103cc60096103c5856113ca565b610cd657610cd19061215b565b610ca8565b92939495610ce3846113ca565b506001908101546001600160a01b03169590610cfe866113ca565b50015492610d0b866113ca565b5094610d16876113ca565b50610d20886113ca565b5093610d2b896113ca565b50600a015495610d3a8a6113ca565b5097610d458b6113ca565b50996040519c610d548e61103f565b6024358e5260208e015260ff60a092831c16151560408e0152610d799060020161216a565b60608d01528d60808d01528b015260c08a0152600601610d989061216a565b60e0890152610100880152610120870152600901610db59061216a565b610140860152610160850152600b01610dcd9061227a565b610180840152600c01610ddf90612319565b6101a0830152610dee906113ca565b610df892916116f0565b610e019061213b565b90610e0b9061213b565b906040516024358152339060207f384c5f98880fad6ed933597fe4becd24246db16d5a262945362c7ace0a0e47b591a480f35b5050505050505080f35b8580fd5b8480fd5b5090346102315761014090816003193601126105b9578035906001600160401b0390602435828111610e4857610e8990369083016110e3565b906044358381116105b557610ea190369083016110e3565b94606435848111610b5257610eb990369084016110e3565b9360843581811161103b57610ed190369085016110e3565b60a43582811161103757610ee890369086016110e3565b60c43583811161103357610eff90369087016110e3565b9160e43584811161102f57610f1790369088016110e3565b936101043590811161102f57610f3090369088016110e3565b97891561101e579088959493929160405198610f4b8a61103f565b8b8a523360208b01528d60408b015260608a01528b60808a015260a089015260c088015260e087015261010086015261012085015283015261012435610160830152606061018083015260606101a083015260055490600160401b82101561100b5750610fcc9291610fc682600161099494016005556113ca565b906116f0565b917f9ec512f6157daf19471fdb4abc754cd622ce54571fda42c4c416ff378b041583604051602081528061100533946020830190611152565b0390a480f35b634e487b7160e01b875260419052602486fd5b604051635ebde5f560e11b81528790fd5b8b80fd5b8a80fd5b8980fd5b8880fd5b6101c081019081106001600160401b0382111761105b57604052565b634e487b7160e01b600052604160045260246000fd5b60a081019081106001600160401b0382111761105b57604052565b606081019081106001600160401b0382111761105b57604052565b90601f801991011681019081106001600160401b0382111761105b57604052565b6001600160401b03811161105b57601f01601f191660200190565b81601f8201121561112a578035906110fa826110c8565b9261110860405194856110a7565b8284526020838301011161112a57816000926020809301838601378301015290565b600080fd5b60005b8381106111425750506000910152565b8181015183820152602001611132565b9060209161116b8151809281855285808601910161112f565b601f01601f1916010190565b602081016020825282518091526040820191602060408360051b8301019401926000915b8383106111aa57505050505090565b9091929394603f198282030183528551908151815260018060a01b03602083015116602082015260408201511515604082015261129161127d61126961125561124261122f61121d61120b60608a01516101c08060608c01528a0190611152565b60808a015189820360808b0152611152565b60a089015188820360a08a0152611152565b60c0808901519088830390890152611152565b60e0808801519087830390880152611152565b610100808701519086830390870152611152565b610120808601519085830390860152611152565b610140808501519084830390850152611152565b90610160808401519082015261018091828401519282820390830152825180825260208201906020808260051b85010195019260005b8281106113445750505050506101a08093015192818303910152602080835192838152019201906000905b808210611311575050506020806001929701930193019193929061119b565b9091926020606060019260408751858060a01b0381511683528481015185840152015160408201520194019201906112f2565b90919293956020806113a7600193601f198782030189528a5190858060a01b0382511681528382015184820152608061138c604084015160a0604085015260a0840190611152565b92606081015160608401520151906080818403910152611152565b98019501939291016112c7565b600435906001600160a01b038216820361112a57565b60055481101561140557600d906005600052027f036b6384b5eca791c62761152d0c79bb0604c104a5fb6f4eb0703f3154bb3db00190600090565b634e487b7160e01b600052603260045260246000fd5b90600182811c9216801561144b575b602083101461143557565b634e487b7160e01b600052602260045260246000fd5b91607f169161142a565b818110611460575050565b60008155600101611455565b611476815461141b565b9081611480575050565b81601f600093116001146114935750555b565b9080839182526114b2601f60208420940160051c840160018501611455565b5555565b60018060a01b038251166bffffffffffffffffffffffff60a01b825416178155602080830151916001928382015560028101916040850151918251936001600160401b039485811161105b5761150c825461141b565b94601f958681116116c2575b5084908683116001146116545791806004949260809694600092611649575b5050600019600383901b1c191690891b1790555b606088015160038201550195015190815193841161105b5761156d865461141b565b838111611611575b50809284116001146115ae57509282939183926000946115a3575b50501b916000199060031b1c1916179055565b015192503880611590565b919083601f1981168760005284600020946000905b888383106115f757505050106115de575b505050811b019055565b015160001960f88460031b161c191690553880806115d4565b8587015188559096019594850194879350908101906115c3565b61163a9087600052826000208580880160051c820192858910611640575b0160051c0190611455565b38611575565b9250819261162f565b015190503880611537565b889291601f1983169185600052876000209260005b898282106116ac5750509160809795939185600498969410611693575b505050811b01905561154b565b015160001960f88460031b161c19169055388080611686565b8385015186558d97909501949384019301611669565b6116ea9084600052866000208880860160051c820192898710611640570160051c0190611455565b38611518565b919061212557805182556020810151600183018054604084015160ff60a01b90151560a01b166001600160a01b039093166001600160a81b0319909116179190911790556002820160608201518051906001600160401b03821161105b57819061175a845461141b565b601f81116120f3575b50602090601f831160011461208d57600092612082575b50508160011b916000199060031b1c19161790555b6003820160808201518051906001600160401b03821161105b5781906117b5845461141b565b601f8111612050575b50602090601f8311600114611fea57600092611fdf575b50508160011b916000199060031b1c19161790555b6004820160a08201518051906001600160401b03821161105b578190611810845461141b565b601f8111611fad575b50602090601f8311600114611f4757600092611f3c575b50508160011b916000199060031b1c19161790555b6005820160c08201518051906001600160401b03821161105b57819061186b845461141b565b601f8111611f0a575b50602090601f8311600114611ea457600092611e99575b50508160011b916000199060031b1c19161790555b60e08101519283516001600160401b03811161105b576118c3600685015461141b565b601f8111611e64575b50602094601f8211600114611df857948192939495600092611ded575b50508160011b916000199060031b1c19161760068401555b6101008201519283516001600160401b03811161105b57611925600783015461141b565b601f8111611db8575b506020601f8211600114611d49578192939495600092611d3e575b50508160011b916000199060031b1c19161760078201555b6101208301519283516001600160401b03811161105b57611985600884015461141b565b601f8111611d09575b506020601f8211600114611c9a578192939495600092611c8f575b50508160011b916000199060031b1c19161760088301555b600982016101408201518051906001600160401b03821161105b5781906119e8845461141b565b601f8111611c5d575b50602090601f8311600114611bf757600092611bec575b50508160011b916000199060031b1c19161790555b610160810151600a8301556101808101518051600160401b9391600b83019085831161105b578154838355808410611b81575b506020019060005260206000206000915b838310611b635750505050600c6101a09101910151805192831161105b578154838355808410611afa575b506020019060005260206000206000915b838310611aaa5750505050565b6003602082611aee600194518690604060029160018060a01b038151166bffffffffffffffffffffffff60a01b855416178455602081015160018501550151910155565b01920192019190611a9d565b80600302906003820403611b4d5783600302600381048503611b4d5783600052602060002091820191015b818110611b325750611a8c565b80600060039255600060018201556000600282015501611b25565b634e487b7160e01b600052601160045260246000fd5b6005602082611b7560019451866114b6565b01920192019190611a61565b80600502906005820403611b4d5783600502600581048503611b4d5783600052602060002091820191015b818110611bb95750611a50565b8060006005925560006001820155611bd36002820161146c565b60006003820155611be66004820161146c565b01611bac565b015190503880611a08565b6000858152602081209350601f198516905b818110611c455750908460019594939210611c2c575b505050811b019055611a1d565b015160001960f88460031b161c19169055388080611c1f565b92936020600181928786015181550195019301611c09565b611c8990856000526020600020601f850160051c8101916020861061021057601f0160051c0190611455565b386119f1565b0151905038806119a9565b6008840160005260206000209060005b601f1984168110611cf1575060019394959683601f19811610611cd8575b505050811b0160088301556119c1565b015160001960f88460031b161c19169055388080611cc8565b9091602060018192858b015181550193019101611caa565b611d3890600885016000526020600020601f840160051c8101916020851061021057601f0160051c0190611455565b3861198e565b015190503880611949565b6007830160005260206000209060005b601f1984168110611da0575060019394959683601f19811610611d87575b505050811b016007820155611961565b015160001960f88460031b161c19169055388080611d77565b9091602060018192858b015181550193019101611d59565b611de790600784016000526020600020601f840160051c8101916020851061021057601f0160051c0190611455565b3861192e565b0151905038806118e9565b601f198216956006860160005260206000209160005b888110611e4c57508360019596979810611e33575b505050811b016006840155611901565b015160001960f88460031b161c19169055388080611e23565b91926020600181928685015181550194019201611e0e565b611e9390600686016000526020600020601f840160051c8101916020851061021057601f0160051c0190611455565b386118cc565b01519050388061188b565b6000858152602081209350601f198516905b818110611ef25750908460019594939210611ed9575b505050811b0190556118a0565b015160001960f88460031b161c19169055388080611ecc565b92936020600181928786015181550195019301611eb6565b611f3690856000526020600020601f850160051c8101916020861061021057601f0160051c0190611455565b38611874565b015190503880611830565b6000858152602081209350601f198516905b818110611f955750908460019594939210611f7c575b505050811b019055611845565b015160001960f88460031b161c19169055388080611f6f565b92936020600181928786015181550195019301611f59565b611fd990856000526020600020601f850160051c8101916020861061021057601f0160051c0190611455565b38611819565b0151905038806117d5565b6000858152602081209350601f198516905b818110612038575090846001959493921061201f575b505050811b0190556117ea565b015160001960f88460031b161c19169055388080612012565b92936020600181928786015181550195019301611ffc565b61207c90856000526020600020601f850160051c8101916020861061021057601f0160051c0190611455565b386117be565b01519050388061177a565b6000858152602081209350601f198516905b8181106120db57509084600195949392106120c2575b505050811b01905561178f565b015160001960f88460031b161c191690553880806120b5565b9293602060018192878601518155019501930161209f565b61211f90856000526020600020601f850160051c8101916020861061021057601f0160051c0190611455565b38611763565b634e487b7160e01b600052600060045260246000fd5b6121539060206040519282848094519384920161112f565b810103902090565b6000198114611b4d5760010190565b906040519182600082549261217e8461141b565b9081845260019485811690816000146121eb57506001146121a8575b5050611491925003836110a7565b9093915060005260209081600020936000915b8183106121d35750506114919350820101388061219a565b855488840185015294850194879450918301916121bb565b91505061149194506020925060ff191682840152151560051b820101388061219a565b906040519160209261223c84828161222f818301968781519384920161112f565b81010380845201826110a7565b5190209161225c60405191828161222f818301968781519384920161112f565b5190201490565b6001600160401b03811161105b5760051b60200190565b90815461228681612263565b92604093612296855191826110a7565b828152809460208092019260005281600020906000935b8585106122bc57505050505050565b60058460019284516122cd81611071565b848060a01b03875416815284870154838201526122ec6002880161216a565b86820152600387015460608201526123066004880161216a565b60808201528152019301940193916122ad565b90815461232581612263565b92604093612335855191826110a7565b828152809460208092019260005281600020906000935b85851061235b57505050505050565b600384600192845161236c8161108c565b848060a01b038754168152848701548382015260028701548682015281520193019401939161234c565b906040516123a38161103f565b6101a061247f600c83958054855260ff600182015460018060a01b038116602088015260a01c16151560408601526123dd6002820161216a565b60608601526123ee6003820161216a565b60808601526123ff6004820161216a565b60a08601526124106005820161216a565b60c08601526124216006820161216a565b60e08601526124326007820161216a565b6101008601526124446008820161216a565b6101208601526124566009820161216a565b610140860152600a810154610160860152612473600b820161227a565b61018086015201612319565b910152565b9061248e82612263565b60409061249d825191826110a7565b83815280936124ae601f1991612263565b019160005b8381106124c05750505050565b60209082516124ce8161103f565b6000815282600081830152600085830152606080808401528060808401528060a08401528060c08401528060e08401528061010084015280610120840152806101408401526000610160840152806101808401526101a08301528286010152016124b3565b80518210156114055760209160051b01019056fea26469706673582212201d5d7befb2fea8a867e47e59a90fedbd1d8deab917b5e434c7c93274fcf81c7464736f6c63430008140033",
  "linkReferences": {},
  "deployedLinkReferences": {}
}